{
  "_format": "hh-sol-artifact-1",
  "contractName": "SwapperByMoonveratest3",
  "sourceName": "src/dex/OrderMatcher.sol",
  "abi": [
    {
      "inputs": [],
      "stateMutability": "nonpayable",
      "type": "constructor"
    },
    {
      "anonymous": false,
      "inputs": [
        {
          "indexed": false,
          "internalType": "uint256",
          "name": "tradeId",
          "type": "uint256"
        },
        {
          "indexed": false,
          "internalType": "uint256",
          "name": "offerId",
          "type": "uint256"
        }
      ],
      "name": "OfferApproved",
      "type": "event"
    },
    {
      "anonymous": false,
      "inputs": [
        {
          "indexed": false,
          "internalType": "uint256",
          "name": "tradeId",
          "type": "uint256"
        },
        {
          "indexed": false,
          "internalType": "uint256",
          "name": "offerId",
          "type": "uint256"
        }
      ],
      "name": "OfferCancelled",
      "type": "event"
    },
    {
      "anonymous": false,
      "inputs": [
        {
          "indexed": false,
          "internalType": "uint256",
          "name": "tradeId",
          "type": "uint256"
        },
        {
          "indexed": false,
          "internalType": "uint256",
          "name": "offerId",
          "type": "uint256"
        },
        {
          "indexed": false,
          "internalType": "address",
          "name": "offerer",
          "type": "address"
        },
        {
          "indexed": false,
          "internalType": "uint256",
          "name": "token",
          "type": "uint256"
        },
        {
          "indexed": false,
          "internalType": "uint256",
          "name": "ethAmount",
          "type": "uint256"
        }
      ],
      "name": "OfferCreated",
      "type": "event"
    },
    {
      "anonymous": false,
      "inputs": [
        {
          "indexed": true,
          "internalType": "address",
          "name": "previousOwner",
          "type": "address"
        },
        {
          "indexed": true,
          "internalType": "address",
          "name": "newOwner",
          "type": "address"
        }
      ],
      "name": "OwnershipTransferred",
      "type": "event"
    },
    {
      "anonymous": false,
      "inputs": [
        {
          "indexed": false,
          "internalType": "address",
          "name": "account",
          "type": "address"
        }
      ],
      "name": "Paused",
      "type": "event"
    },
    {
      "anonymous": false,
      "inputs": [
        {
          "indexed": false,
          "internalType": "uint256",
          "name": "tradeId",
          "type": "uint256"
        }
      ],
      "name": "TradeCancelled",
      "type": "event"
    },
    {
      "anonymous": false,
      "inputs": [
        {
          "indexed": false,
          "internalType": "uint256",
          "name": "tradeId",
          "type": "uint256"
        },
        {
          "indexed": false,
          "internalType": "address",
          "name": "trader",
          "type": "address"
        },
        {
          "indexed": false,
          "internalType": "uint256",
          "name": "token",
          "type": "uint256"
        }
      ],
      "name": "TradeCreated",
      "type": "event"
    },
    {
      "anonymous": false,
      "inputs": [
        {
          "indexed": false,
          "internalType": "uint256",
          "name": "tradeId",
          "type": "uint256"
        },
        {
          "indexed": false,
          "internalType": "uint256",
          "name": "offerId",
          "type": "uint256"
        }
      ],
      "name": "TradeExecuted",
      "type": "event"
    },
    {
      "anonymous": false,
      "inputs": [
        {
          "indexed": false,
          "internalType": "address",
          "name": "account",
          "type": "address"
        }
      ],
      "name": "Unpaused",
      "type": "event"
    },
    {
      "inputs": [
        {
          "internalType": "uint256",
          "name": "",
          "type": "uint256"
        }
      ],
      "name": "activeTrades",
      "outputs": [
        {
          "internalType": "bool",
          "name": "",
          "type": "bool"
        }
      ],
      "stateMutability": "view",
      "type": "function"
    },
    {
      "inputs": [
        {
          "internalType": "uint256",
          "name": "tradeId",
          "type": "uint256"
        },
        {
          "internalType": "uint256",
          "name": "offerId",
          "type": "uint256"
        }
      ],
      "name": "approveOffer",
      "outputs": [],
      "stateMutability": "nonpayable",
      "type": "function"
    },
    {
      "inputs": [
        {
          "internalType": "uint256",
          "name": "tradeId",
          "type": "uint256"
        },
        {
          "internalType": "uint256",
          "name": "offerId",
          "type": "uint256"
        }
      ],
      "name": "cancelOffer",
      "outputs": [],
      "stateMutability": "nonpayable",
      "type": "function"
    },
    {
      "inputs": [
        {
          "internalType": "uint256",
          "name": "tradeId",
          "type": "uint256"
        }
      ],
      "name": "cancelTrade",
      "outputs": [],
      "stateMutability": "nonpayable",
      "type": "function"
    },
    {
      "inputs": [
        {
          "internalType": "uint256",
          "name": "tradeId",
          "type": "uint256"
        },
        {
          "internalType": "uint256",
          "name": "offeredToken",
          "type": "uint256"
        },
        {
          "internalType": "contract ERC721",
          "name": "offeredTokenContract",
          "type": "address"
        },
        {
          "internalType": "uint256",
          "name": "ethAmount",
          "type": "uint256"
        },
        {
          "internalType": "uint256",
          "name": "offerDuration",
          "type": "uint256"
        }
      ],
      "name": "createOffer",
      "outputs": [],
      "stateMutability": "payable",
      "type": "function"
    },
    {
      "inputs": [
        {
          "internalType": "uint256",
          "name": "token",
          "type": "uint256"
        },
        {
          "internalType": "contract ERC721",
          "name": "contractAddress",
          "type": "address"
        },
        {
          "internalType": "uint256",
          "name": "duration",
          "type": "uint256"
        }
      ],
      "name": "createTrade",
      "outputs": [],
      "stateMutability": "nonpayable",
      "type": "function"
    },
    {
      "inputs": [
        {
          "internalType": "uint256",
          "name": "tradeId",
          "type": "uint256"
        },
        {
          "internalType": "uint256",
          "name": "additionalDuration",
          "type": "uint256"
        }
      ],
      "name": "extendTradeDuration",
      "outputs": [],
      "stateMutability": "nonpayable",
      "type": "function"
    },
    {
      "inputs": [
        {
          "internalType": "address",
          "name": "operator",
          "type": "address"
        },
        {
          "internalType": "address",
          "name": "from",
          "type": "address"
        },
        {
          "internalType": "uint256",
          "name": "tokenId",
          "type": "uint256"
        },
        {
          "internalType": "bytes",
          "name": "data",
          "type": "bytes"
        }
      ],
      "name": "onERC721Received",
      "outputs": [
        {
          "internalType": "bytes4",
          "name": "",
          "type": "bytes4"
        }
      ],
      "stateMutability": "nonpayable",
      "type": "function"
    },
    {
      "inputs": [],
      "name": "owner",
      "outputs": [
        {
          "internalType": "address",
          "name": "",
          "type": "address"
        }
      ],
      "stateMutability": "view",
      "type": "function"
    },
    {
      "inputs": [],
      "name": "pause",
      "outputs": [],
      "stateMutability": "nonpayable",
      "type": "function"
    },
    {
      "inputs": [],
      "name": "paused",
      "outputs": [
        {
          "internalType": "bool",
          "name": "",
          "type": "bool"
        }
      ],
      "stateMutability": "view",
      "type": "function"
    },
    {
      "inputs": [],
      "name": "platformFeeBasisPoints",
      "outputs": [
        {
          "internalType": "uint256",
          "name": "",
          "type": "uint256"
        }
      ],
      "stateMutability": "view",
      "type": "function"
    },
    {
      "inputs": [],
      "name": "platformFeeFixed",
      "outputs": [
        {
          "internalType": "uint256",
          "name": "",
          "type": "uint256"
        }
      ],
      "stateMutability": "view",
      "type": "function"
    },
    {
      "inputs": [],
      "name": "platformFeeRecipient",
      "outputs": [
        {
          "internalType": "address",
          "name": "",
          "type": "address"
        }
      ],
      "stateMutability": "view",
      "type": "function"
    },
    {
      "inputs": [],
      "name": "renounceOwnership",
      "outputs": [],
      "stateMutability": "nonpayable",
      "type": "function"
    },
    {
      "inputs": [
        {
          "internalType": "uint256",
          "name": "_platformFeeBasisPoints",
          "type": "uint256"
        }
      ],
      "name": "setPlatformFeeBasisPoints",
      "outputs": [],
      "stateMutability": "nonpayable",
      "type": "function"
    },
    {
      "inputs": [
        {
          "internalType": "uint256",
          "name": "_platformFeeFixed",
          "type": "uint256"
        }
      ],
      "name": "setPlatformFeeFixed",
      "outputs": [],
      "stateMutability": "nonpayable",
      "type": "function"
    },
    {
      "inputs": [],
      "name": "totalTradesEverMade",
      "outputs": [
        {
          "internalType": "uint256",
          "name": "",
          "type": "uint256"
        }
      ],
      "stateMutability": "view",
      "type": "function"
    },
    {
      "inputs": [],
      "name": "tradeCounter",
      "outputs": [
        {
          "internalType": "uint256",
          "name": "",
          "type": "uint256"
        }
      ],
      "stateMutability": "view",
      "type": "function"
    },
    {
      "inputs": [
        {
          "internalType": "uint256",
          "name": "",
          "type": "uint256"
        }
      ],
      "name": "trades",
      "outputs": [
        {
          "internalType": "address payable",
          "name": "trader",
          "type": "address"
        },
        {
          "internalType": "uint256",
          "name": "token",
          "type": "uint256"
        },
        {
          "internalType": "contract ERC721",
          "name": "contractAddress",
          "type": "address"
        },
        {
          "internalType": "uint256",
          "name": "tradeEndsAt",
          "type": "uint256"
        },
        {
          "internalType": "bool",
          "name": "isCancelled",
          "type": "bool"
        },
        {
          "internalType": "uint256",
          "name": "offersCounter",
          "type": "uint256"
        },
        {
          "internalType": "uint256",
          "name": "acceptedOfferId",
          "type": "uint256"
        }
      ],
      "stateMutability": "view",
      "type": "function"
    },
    {
      "inputs": [
        {
          "internalType": "address",
          "name": "newOwner",
          "type": "address"
        }
      ],
      "name": "transferOwnership",
      "outputs": [],
      "stateMutability": "nonpayable",
      "type": "function"
    },
    {
      "inputs": [],
      "name": "unpause",
      "outputs": [],
      "stateMutability": "nonpayable",
      "type": "function"
    }
  ],
  "bytecode": "0x60806040525f6003555f60045560646005555f600655348015610020575f80fd5b5060015f5561002e33610052565b6001805460ff60a01b19169055600280546001600160a01b031916331790556100a3565b600180546001600160a01b038381166001600160a01b0319831681179093556040519116919082907f8be0079c531659141344cd1fd0a4f28419497f9722a3daafe3b4186f6b6457e0905f90a35050565b611de3806100b05f395ff3fe608060405260043610610131575f3560e01c8063665d31d7116100a8578063c58bfb661161006d578063c58bfb66146103dd578063d3f830f7146103f2578063d45557cc14610407578063eb13554f14610426578063f16f373014610445578063f2fde38b14610464575f80fd5b8063665d31d714610346578063715018a6146103655780638456cb59146103795780638da5cb5b1461038d578063c247e686146103be575f80fd5b8063150b7a02116100f9578063150b7a02146101cf5780631e6c598e146102135780633f4ba83a146102c15780634be52276146102d55780635c975abb14610313578063660d15b514610331575f80fd5b806308b7db7014610135578063094569f21461015d57806309ec6cc71461017e5780630a35a3031461019d5780630f5df339146101bc575b5f80fd5b348015610140575f80fd5b5061014a60045481565b6040519081526020015b60405180910390f35b348015610168575f80fd5b5061017c610177366004611b06565b610483565b005b348015610189575f80fd5b5061017c610198366004611b3b565b61080b565b3480156101a8575f80fd5b5061017c6101b7366004611b3b565b61098c565b61017c6101ca366004611b52565b610999565b3480156101da575f80fd5b506101fa6101e9366004611b97565b630a85bd0160e11b95945050505050565b6040516001600160e01b03199091168152602001610154565b34801561021e575f80fd5b5061027961022d366004611b3b565b60076020525f908152604090208054600182015460028301546003840154600485015460058601546006909601546001600160a01b0395861696949590931693919260ff909116919087565b604080516001600160a01b0398891681526020810197909752949096169385019390935260608401919091521515608083015260a082015260c081019190915260e001610154565b3480156102cc575f80fd5b5061017c610e10565b3480156102e0575f80fd5b506103036102ef366004611b3b565b60086020525f908152604090205460ff1681565b6040519015158152602001610154565b34801561031e575f80fd5b50600154600160a01b900460ff16610303565b34801561033c575f80fd5b5061014a60035481565b348015610351575f80fd5b5061017c610360366004611c2e565b610e22565b348015610370575f80fd5b5061017c610ef0565b348015610384575f80fd5b5061017c610f01565b348015610398575f80fd5b506001546001600160a01b03165b6040516001600160a01b039091168152602001610154565b3480156103c9575f80fd5b5061017c6103d8366004611b3b565b610f11565b3480156103e8575f80fd5b5061014a60055481565b3480156103fd575f80fd5b5061014a60065481565b348015610412575f80fd5b5061017c610421366004611c2e565b610f1e565b348015610431575f80fd5b506002546103a6906001600160a01b031681565b348015610450575f80fd5b5061017c61045f366004611c2e565b61107b565b34801561046f575f80fd5b5061017c61047e366004611c4e565b6111e3565b61048b611259565b6104936112a6565b6040516331a9108f60e11b81526004810184905233906001600160a01b03841690636352211e90602401602060405180830381865afa1580156104d8573d5f803e3d5ffd5b505050506040513d601f19601f820116820180604052508101906104fc9190611c70565b6001600160a01b0316146105575760405162461bcd60e51b815260206004820152601e60248201527f4d75737420626520746865206f776e6572206f662074686520746f6b656e000060448201526064015b60405180910390fd5b60405163a22cb46560e01b8152336004820152600160248201526001600160a01b0383169063a22cb465906044015f604051808303815f87803b15801561059c575f80fd5b505af11580156105ae573d5f803e3d5ffd5b50506003545f9081526008602052604090205460ff161591506106ad9050576003545f908152600760205260409020600481015460ff16806105f35750600681015415155b61063f5760405162461bcd60e51b815260206004820152601e60248201527f50726576696f7573207472616465206973207374696c6c206163746976650000604482015260640161054e565b50600380545f90815260076020908152604080832080546001600160a01b0319908116825560018201859055600282018054909116905580850184905560048101805460ff199081169091556005820185905560069091018490559354835260089091529020805490911690555b60038054905f6106bc83611c9f565b909155505060048054905f6106d083611c9f565b90915550506003545f9081526007602052604090208054336001600160a01b0319918216178255600182018590556002820180549091166001600160a01b03851617905561071e8242611cb7565b6003808301919091556004808301805460ff199081169091555f6005850181905560068501819055925483526008602052604092839020805490911660011790559051632142170760e11b81526001600160a01b038516916342842e0e9161078c91339130918a9101611cca565b5f604051808303815f87803b1580156107a3575f80fd5b505af11580156107b5573d5f803e3d5ffd5b50506003546040805191825233602083015281018790527f41ac822878e5f14cc044c3129e4a9966c96e7c151cab503be2f1d6b3c3b4eac29250606001905060405180910390a15061080660015f55565b505050565b610813611259565b61081b6112a6565b5f8181526008602052604090205460ff166108485760405162461bcd60e51b815260040161054e90611cee565b5f81815260076020526040902080546001600160a01b031633146108ba5760405162461bcd60e51b8152602060048201526024808201527f4f6e6c7920746865207472616465722063616e2063616e63656c2074686520746044820152637261646560e01b606482015260840161054e565b600281015481546001830154604051632142170760e11b81526001600160a01b03938416936342842e0e936108f89330939290911691600401611cca565b5f604051808303815f87803b15801561090f575f80fd5b505af1158015610921573d5f803e3d5ffd5b50505050600481018054600160ff19918216179091555f838152600860209081526040918290208054909316909255518381527f4e02dcf02d8510f6c8a6878a3c54ae6e2bfbf552df29221d7a1eed173a6b1ae7910160405180910390a15061098960015f55565b50565b6109946112fd565b600655565b6109a1611259565b6109a96112a6565b5f8581526008602052604090205460ff166109d65760405162461bcd60e51b815260040161054e90611cee565b5f85815260076020526040902080546001600160a01b03163303610a535760405162461bcd60e51b815260206004820152602e60248201527f5472616465722063616e6e6f74206d616b6520616e206f66666572206f6e207460448201526d68656972206f776e20747261646560901b606482015260840161054e565b600481015460ff1615610aa85760405162461bcd60e51b815260206004820152601860248201527f547261646520686173206265656e2063616e63656c6c65640000000000000000604482015260640161054e565b6040516331a9108f60e11b81526004810186905233906001600160a01b03861690636352211e90602401602060405180830381865afa158015610aed573d5f803e3d5ffd5b505050506040513d601f19601f82011682018060405250810190610b119190611c70565b6001600160a01b031614610b765760405162461bcd60e51b815260206004820152602660248201527f4d75737420626520746865206f776e6572206f662074686520746f6b656e206f6044820152651999995c995960d21b606482015260840161054e565b8060030154421115610bca5760405162461bcd60e51b815260206004820152601a60248201527f5472616465206475726174696f6e206861732065787069726564000000000000604482015260640161054e565b428160030154610bda9190611d38565b821115610c475760405162461bcd60e51b815260206004820152603560248201527f4f66666572206475726174696f6e2063616e6e6f74206578636565642072656d60448201527430b4b734b733903a3930b23290323ab930ba34b7b760591b606482015260840161054e565b600581018054905f610c5883611c9f565b919050555082341115610cbe5760405162461bcd60e51b815260206004820152602860248201527f53656e7420457468657220646f6573206e6f74206d617463682074686520746f6044820152671d185b0818dbdcdd60c21b606482015260840161054e565b5f6040518060e00160405280336001600160a01b03168152602001878152602001866001600160a01b031681526020018581526020015f151581526020015f151581526020018442610d109190611cb7565b9052600583810180545f908152600786016020908152604091829020855181546001600160a01b03199081166001600160a01b03928316178355878401516001840155878501516002840180549092169216919091179055606080870151600383015560808088015160048401805460a0808c015161ffff1990921693151561ff001916939093176101009115159190910217905560c08901519390970192909255935483518e81529283015233928201929092529182018a905281018790529192507f8bdb6541b99259f92b7d7c61d0f892fdd62042bd96c57fca917a3553af72b270910160405180910390a15050610e0960015f55565b5050505050565b610e186112fd565b610e20611357565b565b610e2a611259565b5f8281526008602052604090205460ff16610e575760405162461bcd60e51b815260040161054e90611cee565b5f82815260076020526040902080546001600160a01b03163314610ed35760405162461bcd60e51b815260206004820152602d60248201527f4f6e6c7920746865207472616465722063616e20657874656e6420746865207460448201526c3930b23290323ab930ba34b7b760991b606482015260840161054e565b81816003015f828254610ee69190611cb7565b9091555050505050565b610ef86112fd565b610e205f6113ac565b610f096112fd565b610e206113fd565b610f196112fd565b600555565b610f26611259565b610f2e6112a6565b5f8281526008602052604090205460ff16610f5b5760405162461bcd60e51b815260040161054e90611cee565b5f82815260076020818152604080842085855292830190915290912080546001600160a01b03163314610fdc5760405162461bcd60e51b8152602060048201526024808201527f4f6e6c7920746865206f6666657265722063616e2063616e63656c20616e206f604482015263333332b960e11b606482015260840161054e565b60038101541561102257805460038201546040516001600160a01b039092169181156108fc0291905f818181858888f19350505050158015611020573d5f803e3d5ffd5b505b60048101805461ff00191661010017905560408051858152602081018590527f33559c26e53c3e89ff8feeaf6cfba76e46453390b4a80b64e8672dad0a0a45fb910160405180910390a1505061107760015f55565b5050565b611083611259565b61108b6112a6565b5f8281526008602052604090205460ff166110b85760405162461bcd60e51b815260040161054e90611cee565b5f82815260076020818152604080842085855292830190915290912081546001600160a01b031633146111395760405162461bcd60e51b8152602060048201526024808201527f4f6e6c7920746865207472616465722063616e20617070726f766520616e206f604482015263333332b960e11b606482015260840161054e565b6004810154610100900460ff161561118e5760405162461bcd60e51b815260206004820152601860248201527713d999995c881a185cc81899595b8818d85b98d95b1b195960421b604482015260640161054e565b6006820183905560408051858152602081018590527f96d9707f8fe04b429a2a4acee1add3fc5f45fa2cab9544430629f26f77f2933d910160405180910390a16111d88484611440565b505061107760015f55565b6111eb6112fd565b6001600160a01b0381166112505760405162461bcd60e51b815260206004820152602660248201527f4f776e61626c653a206e6577206f776e657220697320746865207a65726f206160448201526564647265737360d01b606482015260840161054e565b610989816113ac565b600154600160a01b900460ff1615610e205760405162461bcd60e51b815260206004820152601060248201526f14185d5cd8589b194e881c185d5cd95960821b604482015260640161054e565b60025f54036112f75760405162461bcd60e51b815260206004820152601f60248201527f5265656e7472616e637947756172643a207265656e7472616e742063616c6c00604482015260640161054e565b60025f55565b6001546001600160a01b03163314610e205760405162461bcd60e51b815260206004820181905260248201527f4f776e61626c653a2063616c6c6572206973206e6f7420746865206f776e6572604482015260640161054e565b61135f6119c6565b6001805460ff60a01b191690557f5db9ee0a495bf2e6ff9c91a7834c1ba4fdd244a5e8aa4e537bd38aeae4b073aa335b6040516001600160a01b03909116815260200160405180910390a1565b600180546001600160a01b038381166001600160a01b0319831681179093556040519116919082907f8be0079c531659141344cd1fd0a4f28419497f9722a3daafe3b4186f6b6457e0905f90a35050565b611405611259565b6001805460ff60a01b1916600160a01b1790557f62e78cea01bee320cd4e420270b5ea74000d11b0c9f74754ebdbfc544b05a25861138f3390565b6114486112a6565b5f82815260076020818152604080842085855292830190915290912081546001600160a01b031633146114cb5760405162461bcd60e51b815260206004820152602560248201527f4f6e6c7920746865207472616465722063616e20657865637574652074686520604482015264747261646560d81b606482015260840161054e565b81600301544211156115185760405162461bcd60e51b8152602060048201526016602482015275151c98591948191d5c985d1a5bdb88195e1c1a5c995960521b604482015260640161054e565b80600501544211156115655760405162461bcd60e51b815260206004820152601660248201527513d999995c88191d5c985d1a5bdb88195e1c1a5c995960521b604482015260640161054e565b5f8260060154116115b85760405162461bcd60e51b815260206004820152601e60248201527f4e6f206f6666657220686173206265656e206163636570746564207965740000604482015260640161054e565b6004810154610100900460ff161561160d5760405162461bcd60e51b815260206004820152601860248201527713d999995c881a185cc81899595b8818d85b98d95b1b195960421b604482015260640161054e565b8054600282015460018301546040516331a9108f60e11b815260048101919091526001600160a01b039283169290911690636352211e90602401602060405180830381865afa158015611662573d5f803e3d5ffd5b505050506040513d601f19601f820116820180604052508101906116869190611c70565b6001600160a01b0316146116dc5760405162461bcd60e51b815260206004820152601e60248201527f4f666665726572206d757374207374696c6c206f776e20746865204e46540000604482015260640161054e565b60038101546002820154825484546001850154604051632142170760e11b81525f946001600160a01b03908116946342842e0e946117239491831693921691600401611cca565b5f604051808303815f87803b15801561173a575f80fd5b505af115801561174c573d5f803e3d5ffd5b505050505f8211156118c1576006546127106005548461176c9190611d4b565b6117769190611d62565b6117809190611cb7565b60028501549091505f906117a4906001600160a01b031663152a902d60e11b611a16565b15611870576002850154600186015460405163152a902d60e11b81525f9283926001600160a01b0390911691632a55205a916117ed918990600401918252602082015260400190565b6040805180830381865afa158015611807573d5f803e3d5ffd5b505050506040513d601f19601f8201168201806040525081019061182b9190611d81565b93509150829050801561186d576040516001600160a01b0383169084156108fc029085905f818181858888f1935050505015801561186b573d5f803e3d5ffd5b505b50505b5f8161187c8486611d38565b6118869190611d38565b86546040519192506001600160a01b03169082156108fc029083905f818181858888f193505050501580156118bd573d5f803e3d5ffd5b5050505b600284015483546001860154604051632142170760e11b81526001600160a01b03938416936342842e0e936118ff9330939290911691600401611cca565b5f604051808303815f87803b158015611916575f80fd5b505af1158015611928573d5f803e3d5ffd5b5050505f878152600860205260409020805460ff19169055508015611980576002546040516001600160a01b039091169082156108fc029083905f818181858888f1935050505015801561197e573d5f803e3d5ffd5b505b60408051878152602081018790527f589de19ac049f650e30154ebb6ba9be12c5394027648b0ff506705d197ec7086910160405180910390a15050505061107760015f55565b600154600160a01b900460ff16610e205760405162461bcd60e51b815260206004820152601460248201527314185d5cd8589b194e881b9bdd081c185d5cd95960621b604482015260640161054e565b5f611a2083611a3a565b8015611a315750611a318383611a6c565b90505b92915050565b5f611a4c826301ffc9a760e01b611a6c565b8015611a345750611a65826001600160e01b0319611a6c565b1592915050565b604080516001600160e01b03198316602480830191909152825180830390910181526044909101909152602080820180516001600160e01b03166301ffc9a760e01b17815282515f9392849283928392918391908a617530fa92503d91505f519050828015611adc575060208210155b8015611ae757505f81115b979650505050505050565b6001600160a01b0381168114610989575f80fd5b5f805f60608486031215611b18575f80fd5b833592506020840135611b2a81611af2565b929592945050506040919091013590565b5f60208284031215611b4b575f80fd5b5035919050565b5f805f805f60a08688031215611b66575f80fd5b85359450602086013593506040860135611b7f81611af2565b94979396509394606081013594506080013592915050565b5f805f805f60808688031215611bab575f80fd5b8535611bb681611af2565b94506020860135611bc681611af2565b935060408601359250606086013567ffffffffffffffff80821115611be9575f80fd5b818801915088601f830112611bfc575f80fd5b813581811115611c0a575f80fd5b896020828501011115611c1b575f80fd5b9699959850939650602001949392505050565b5f8060408385031215611c3f575f80fd5b50508035926020909101359150565b5f60208284031215611c5e575f80fd5b8135611c6981611af2565b9392505050565b5f60208284031215611c80575f80fd5b8151611c6981611af2565b634e487b7160e01b5f52601160045260245ffd5b5f60018201611cb057611cb0611c8b565b5060010190565b80820180821115611a3457611a34611c8b565b6001600160a01b039384168152919092166020820152604081019190915260600190565b6020808252602a908201527f547261646520646f65736e2774206578697374206f7220686173206265656e206040820152690636c65616e65642075760b41b606082015260800190565b81810381811115611a3457611a34611c8b565b8082028115828204841417611a3457611a34611c8b565b5f82611d7c57634e487b7160e01b5f52601260045260245ffd5b500490565b5f8060408385031215611d92575f80fd5b8251611d9d81611af2565b602093909301519294929350505056fea2646970667358221220e6cad74ea9ee802d80c07a21922606019de582cdb13a585734375ad87e11fc4664736f6c63430008140033",
  "linkReferences": {},
  "deployedLinkReferences": {}
}