{
  "_format": "hh-sol-artifact-1",
  "contractName": "MvxMarket",
  "sourceName": "src/MvxMarket.sol",
  "abi": [
    {
      "inputs": [
        {
          "internalType": "uint8",
          "name": "_rule",
          "type": "uint8"
        }
      ],
      "name": "BuyItemError",
      "type": "error"
    },
    {
      "inputs": [
        {
          "internalType": "uint8",
          "name": "_rule",
          "type": "uint8"
        }
      ],
      "name": "ListItemError",
      "type": "error"
    },
    {
      "anonymous": false,
      "inputs": [
        {
          "components": [
            {
              "internalType": "uint256",
              "name": "itemId",
              "type": "uint256"
            },
            {
              "internalType": "address",
              "name": "collection",
              "type": "address"
            },
            {
              "internalType": "uint256",
              "name": "tokenId",
              "type": "uint256"
            },
            {
              "internalType": "address payable",
              "name": "seller",
              "type": "address"
            },
            {
              "internalType": "address payable",
              "name": "owner",
              "type": "address"
            },
            {
              "internalType": "address",
              "name": "quoteAsset",
              "type": "address"
            },
            {
              "internalType": "uint256",
              "name": "price",
              "type": "uint256"
            },
            {
              "internalType": "uint256",
              "name": "listingTime",
              "type": "uint256"
            }
          ],
          "indexed": false,
          "internalType": "struct MvxMarket.MarketItem",
          "name": "_marketItem",
          "type": "tuple"
        }
      ],
      "name": "BuyItem",
      "type": "event"
    },
    {
      "anonymous": false,
      "inputs": [
        {
          "indexed": false,
          "internalType": "uint8",
          "name": "version",
          "type": "uint8"
        }
      ],
      "name": "Initialized",
      "type": "event"
    },
    {
      "anonymous": false,
      "inputs": [
        {
          "components": [
            {
              "internalType": "uint256",
              "name": "itemId",
              "type": "uint256"
            },
            {
              "internalType": "address",
              "name": "collection",
              "type": "address"
            },
            {
              "internalType": "uint256",
              "name": "tokenId",
              "type": "uint256"
            },
            {
              "internalType": "address payable",
              "name": "seller",
              "type": "address"
            },
            {
              "internalType": "address payable",
              "name": "owner",
              "type": "address"
            },
            {
              "internalType": "address",
              "name": "quoteAsset",
              "type": "address"
            },
            {
              "internalType": "uint256",
              "name": "price",
              "type": "uint256"
            },
            {
              "internalType": "uint256",
              "name": "listingTime",
              "type": "uint256"
            }
          ],
          "indexed": false,
          "internalType": "struct MvxMarket.MarketItem",
          "name": "_marketItem",
          "type": "tuple"
        }
      ],
      "name": "ListItem",
      "type": "event"
    },
    {
      "anonymous": false,
      "inputs": [
        {
          "indexed": true,
          "internalType": "address",
          "name": "previousOwner",
          "type": "address"
        },
        {
          "indexed": true,
          "internalType": "address",
          "name": "newOwner",
          "type": "address"
        }
      ],
      "name": "OwnershipTransferred",
      "type": "event"
    },
    {
      "inputs": [],
      "name": "_itemIds",
      "outputs": [
        {
          "internalType": "uint256",
          "name": "",
          "type": "uint256"
        }
      ],
      "stateMutability": "view",
      "type": "function"
    },
    {
      "inputs": [],
      "name": "_itemsSold",
      "outputs": [
        {
          "internalType": "uint256",
          "name": "",
          "type": "uint256"
        }
      ],
      "stateMutability": "view",
      "type": "function"
    },
    {
      "inputs": [],
      "name": "_listingPrice",
      "outputs": [
        {
          "internalType": "uint256",
          "name": "",
          "type": "uint256"
        }
      ],
      "stateMutability": "view",
      "type": "function"
    },
    {
      "inputs": [
        {
          "internalType": "uint256",
          "name": "_itemId",
          "type": "uint256"
        }
      ],
      "name": "buyItem",
      "outputs": [],
      "stateMutability": "payable",
      "type": "function"
    },
    {
      "inputs": [
        {
          "internalType": "uint256",
          "name": "",
          "type": "uint256"
        }
      ],
      "name": "idToMarketItem",
      "outputs": [
        {
          "internalType": "uint256",
          "name": "itemId",
          "type": "uint256"
        },
        {
          "internalType": "address",
          "name": "collection",
          "type": "address"
        },
        {
          "internalType": "uint256",
          "name": "tokenId",
          "type": "uint256"
        },
        {
          "internalType": "address payable",
          "name": "seller",
          "type": "address"
        },
        {
          "internalType": "address payable",
          "name": "owner",
          "type": "address"
        },
        {
          "internalType": "address",
          "name": "quoteAsset",
          "type": "address"
        },
        {
          "internalType": "uint256",
          "name": "price",
          "type": "uint256"
        },
        {
          "internalType": "uint256",
          "name": "listingTime",
          "type": "uint256"
        }
      ],
      "stateMutability": "view",
      "type": "function"
    },
    {
      "inputs": [
        {
          "internalType": "uint256",
          "name": "_initListingPrice",
          "type": "uint256"
        }
      ],
      "name": "initialize",
      "outputs": [],
      "stateMutability": "nonpayable",
      "type": "function"
    },
    {
      "inputs": [
        {
          "components": [
            {
              "internalType": "uint256",
              "name": "itemId",
              "type": "uint256"
            },
            {
              "internalType": "address",
              "name": "collection",
              "type": "address"
            },
            {
              "internalType": "uint256",
              "name": "tokenId",
              "type": "uint256"
            },
            {
              "internalType": "address payable",
              "name": "seller",
              "type": "address"
            },
            {
              "internalType": "address payable",
              "name": "owner",
              "type": "address"
            },
            {
              "internalType": "address",
              "name": "quoteAsset",
              "type": "address"
            },
            {
              "internalType": "uint256",
              "name": "price",
              "type": "uint256"
            },
            {
              "internalType": "uint256",
              "name": "listingTime",
              "type": "uint256"
            }
          ],
          "internalType": "struct MvxMarket.MarketItem",
          "name": "marketItem",
          "type": "tuple"
        }
      ],
      "name": "listItem",
      "outputs": [],
      "stateMutability": "payable",
      "type": "function"
    },
    {
      "inputs": [
        {
          "internalType": "address",
          "name": "operator",
          "type": "address"
        },
        {
          "internalType": "address",
          "name": "from",
          "type": "address"
        },
        {
          "internalType": "uint256",
          "name": "tokenId",
          "type": "uint256"
        },
        {
          "internalType": "bytes",
          "name": "data",
          "type": "bytes"
        }
      ],
      "name": "onERC721Received",
      "outputs": [
        {
          "internalType": "bytes4",
          "name": "",
          "type": "bytes4"
        }
      ],
      "stateMutability": "nonpayable",
      "type": "function"
    },
    {
      "inputs": [],
      "name": "owner",
      "outputs": [
        {
          "internalType": "address",
          "name": "",
          "type": "address"
        }
      ],
      "stateMutability": "view",
      "type": "function"
    },
    {
      "inputs": [],
      "name": "renounceOwnership",
      "outputs": [],
      "stateMutability": "nonpayable",
      "type": "function"
    },
    {
      "inputs": [
        {
          "internalType": "address",
          "name": "newOwner",
          "type": "address"
        }
      ],
      "name": "transferOwnership",
      "outputs": [],
      "stateMutability": "nonpayable",
      "type": "function"
    },
    {
      "inputs": [
        {
          "internalType": "uint256",
          "name": "minListingPrice_",
          "type": "uint256"
        }
      ],
      "name": "updateListingPrice",
      "outputs": [],
      "stateMutability": "nonpayable",
      "type": "function"
    }
  ],
  "bytecode": "0x608060405261012c609b55348015610015575f80fd5b50611389806100235f395ff3fe6080604052600436106100c3575f3560e01c8063ae677aa311610071578063e7fb74c71161004c578063e7fb74c7146102b6578063f2fde38b146102c9578063fe4b84df146102e8575f80fd5b8063ae677aa3146101b3578063b0545789146101d2578063e61a70c0146101e5575f80fd5b8063715018a6116100a1578063715018a61461015457806387506a0d1461016a5780638da5cb5b1461017f575f80fd5b8063150b7a02146100c757806334a7f1931461011c5780636462a44a1461013f575b5f80fd5b3480156100d2575f80fd5b506100e66100e1366004610ff8565b610307565b6040517fffffffff0000000000000000000000000000000000000000000000000000000090911681526020015b60405180910390f35b348015610127575f80fd5b5061013160975481565b604051908152602001610113565b34801561014a575f80fd5b5061013160995481565b34801561015f575f80fd5b506101686104c0565b005b348015610175575f80fd5b5061013160985481565b34801561018a575f80fd5b5060335460405173ffffffffffffffffffffffffffffffffffffffff9091168152602001610113565b3480156101be575f80fd5b506101686101cd36600461108f565b6104d3565b6101686101e03660046110a6565b6104e0565b3480156101f0575f80fd5b5061025e6101ff36600461108f565b609a6020525f908152604090208054600182015460028301546003840154600485015460058601546006870154600790970154959673ffffffffffffffffffffffffffffffffffffffff95861696949593841694928416939091169188565b6040805198895273ffffffffffffffffffffffffffffffffffffffff97881660208a01528801959095529285166060870152908416608086015290921660a084015260c083019190915260e082015261010001610113565b6101686102c436600461108f565b610675565b3480156102d4575f80fd5b506101686102e33660046110bd565b610adb565b3480156102f3575f80fd5b5061016861030236600461108f565b610b8f565b6097805460010190555f8061031e838501856110df565b6097548082524260e083019081525f918252609a6020908152604092839020845181559084015160018201805473ffffffffffffffffffffffffffffffffffffffff9283167fffffffffffffffffffffffff0000000000000000000000000000000000000000918216179091558486015160028401556060860151600384018054918416918316919091179055608086015160048401805491841691831691909117905560a086015160058401805491909316911617905560c084015160068201559051600790910155519091507f494850cee43dfa7ff115c7c6e9fe9cd9d53f6663cad83b5f3147402a52627ab39061048c9083905f6101008201905082518252602083015173ffffffffffffffffffffffffffffffffffffffff8082166020850152604085015160408501528060608601511660608501528060808601511660808501528060a08601511660a0850152505060c083015160c083015260e083015160e083015292915050565b60405180910390a1507f150b7a02000000000000000000000000000000000000000000000000000000009695505050505050565b6104c8610d25565b6104d15f610da6565b565b6104db610d25565b609955565b6104e8610e1c565b34609954101561052c576040517fcdff6792000000000000000000000000000000000000000000000000000000008152600160048201526024015b60405180910390fd5b5f61053d60408301602084016110bd565b905073ffffffffffffffffffffffffffffffffffffffff811661058f576040517fcdff679200000000000000000000000000000000000000000000000000000000815260026004820152602401610523565b5f8260c00135116105cf576040517fcdff679200000000000000000000000000000000000000000000000000000000815260036004820152602401610523565b81355f036106675773ffffffffffffffffffffffffffffffffffffffff811663b88d4fde333085604001358660405160200161060b91906111ae565b6040516020818303038152906040526040518563ffffffff1660e01b8152600401610639949392919061125c565b5f604051808303815f87803b158015610650575f80fd5b505af1158015610662573d5f803e3d5ffd5b505050505b506106726001606555565b50565b61067d610e1c565b5f818152609a6020908152604080832081516101008101835281548152600182015473ffffffffffffffffffffffffffffffffffffffff90811694820194909452600282015492810192909252600381015483166060830152600481015483166080830152600581015490921660a08201819052600683015460c0830181905260079093015460e0830152609b5491939092909161071a916112f6565b905073ffffffffffffffffffffffffffffffffffffffff82166108955780341015610774576040517fce7b046000000000000000000000000000000000000000000000000000000000815260016004820152602401610523565b602083015173ffffffffffffffffffffffffffffffffffffffff166323b872dd303360408088015190517fffffffff0000000000000000000000000000000000000000000000000000000060e086901b16815273ffffffffffffffffffffffffffffffffffffffff938416600482015292909116602483015260448201526064015f604051808303815f87803b15801561080c575f80fd5b505af115801561081e573d5f803e3d5ffd5b5050505f858152609a602052604081208181556001810180547fffffffffffffffffffffffff00000000000000000000000000000000000000009081169091556002820183905560038201805482169055600482018054821690556005820180549091169055600681018290556007015550610ace565b73ffffffffffffffffffffffffffffffffffffffff82166323b872dd336040517fffffffff0000000000000000000000000000000000000000000000000000000060e084901b16815273ffffffffffffffffffffffffffffffffffffffff9091166004820152306024820152604481018490526064016020604051808303815f875af1158015610927573d5f803e3d5ffd5b505050506040513d601f19601f8201168201806040525081019061094b9190611334565b6109b1576040517f08c379a000000000000000000000000000000000000000000000000000000000815260206004820152600a60248201527f6275794974656d3a3a31000000000000000000000000000000000000000000006044820152606401610523565b602083015173ffffffffffffffffffffffffffffffffffffffff166323b872dd303360408088015190517fffffffff0000000000000000000000000000000000000000000000000000000060e086901b16815273ffffffffffffffffffffffffffffffffffffffff938416600482015292909116602483015260448201526064015f604051808303815f87803b158015610a49575f80fd5b505af1158015610a5b573d5f803e3d5ffd5b5050505f858152609a602052604081208181556001810180547fffffffffffffffffffffffff000000000000000000000000000000000000000090811690915560028201839055600382018054821690556004820180548216905560058201805490911690556006810182905560070155505b5050506106726001606555565b610ae3610d25565b73ffffffffffffffffffffffffffffffffffffffff8116610b86576040517f08c379a000000000000000000000000000000000000000000000000000000000815260206004820152602660248201527f4f776e61626c653a206e6577206f776e657220697320746865207a65726f206160448201527f64647265737300000000000000000000000000000000000000000000000000006064820152608401610523565b61067281610da6565b5f54610100900460ff1615808015610bad57505f54600160ff909116105b80610bc65750303b158015610bc657505f5460ff166001145b610c52576040517f08c379a000000000000000000000000000000000000000000000000000000000815260206004820152602e60248201527f496e697469616c697a61626c653a20636f6e747261637420697320616c72656160448201527f647920696e697469616c697a65640000000000000000000000000000000000006064820152608401610523565b5f80547fffffffffffffffffffffffffffffffffffffffffffffffffffffffffffffff001660011790558015610cae575f80547fffffffffffffffffffffffffffffffffffffffffffffffffffffffffffff00ff166101001790555b610cb6610e8f565b610cbf826104d3565b8015610d21575f80547fffffffffffffffffffffffffffffffffffffffffffffffffffffffffffff00ff169055604051600181527f7f26b83ff96e1f2b6a682f133852f6798a09c465da95921460cefb38474024989060200160405180910390a15b5050565b60335473ffffffffffffffffffffffffffffffffffffffff1633146104d1576040517f08c379a000000000000000000000000000000000000000000000000000000000815260206004820181905260248201527f4f776e61626c653a2063616c6c6572206973206e6f7420746865206f776e65726044820152606401610523565b6033805473ffffffffffffffffffffffffffffffffffffffff8381167fffffffffffffffffffffffff0000000000000000000000000000000000000000831681179093556040519116919082907f8be0079c531659141344cd1fd0a4f28419497f9722a3daafe3b4186f6b6457e0905f90a35050565b600260655403610e88576040517f08c379a000000000000000000000000000000000000000000000000000000000815260206004820152601f60248201527f5265656e7472616e637947756172643a207265656e7472616e742063616c6c006044820152606401610523565b6002606555565b5f54610100900460ff16610f25576040517f08c379a000000000000000000000000000000000000000000000000000000000815260206004820152602b60248201527f496e697469616c697a61626c653a20636f6e7472616374206973206e6f74206960448201527f6e697469616c697a696e670000000000000000000000000000000000000000006064820152608401610523565b6104d15f54610100900460ff16610fbe576040517f08c379a000000000000000000000000000000000000000000000000000000000815260206004820152602b60248201527f496e697469616c697a61626c653a20636f6e7472616374206973206e6f74206960448201527f6e697469616c697a696e670000000000000000000000000000000000000000006064820152608401610523565b6104d133610da6565b73ffffffffffffffffffffffffffffffffffffffff81168114610672575f80fd5b8035610ff381610fc7565b919050565b5f805f805f6080868803121561100c575f80fd5b853561101781610fc7565b9450602086013561102781610fc7565b935060408601359250606086013567ffffffffffffffff8082111561104a575f80fd5b818801915088601f83011261105d575f80fd5b81358181111561106b575f80fd5b89602082850101111561107c575f80fd5b9699959850939650602001949392505050565b5f6020828403121561109f575f80fd5b5035919050565b5f61010082840312156110b7575f80fd5b50919050565b5f602082840312156110cd575f80fd5b81356110d881610fc7565b9392505050565b5f6101008083850312156110f1575f80fd5b6040519081019067ffffffffffffffff82118183101715611139577f4e487b71000000000000000000000000000000000000000000000000000000005f52604160045260245ffd5b816040528335815261114d60208501610fe8565b60208201526040840135604082015261116860608501610fe8565b606082015261117960808501610fe8565b608082015261118a60a08501610fe8565b60a082015260c084013560c082015260e084013560e0820152809250505092915050565b81358152610100810160208301356111c581610fc7565b73ffffffffffffffffffffffffffffffffffffffff808216602085015260408501356040850152606085013591506111fc82610fc7565b908116606084015260808401359061121382610fc7565b16608083015261122560a08401610fe8565b73ffffffffffffffffffffffffffffffffffffffff811660a08401525060c083013560c083015260e083013560e083015292915050565b5f73ffffffffffffffffffffffffffffffffffffffff808716835260208187168185015285604085015260806060850152845191508160808501525f5b828110156112b55785810182015185820160a001528101611299565b50505f60a0828501015260a07fffffffffffffffffffffffffffffffffffffffffffffffffffffffffffffffe0601f83011684010191505095945050505050565b8082018082111561132e577f4e487b71000000000000000000000000000000000000000000000000000000005f52601160045260245ffd5b92915050565b5f60208284031215611344575f80fd5b815180151581146110d8575f80fdfea264697066735822122084ead43e2bda6bef67b7bc360b4ba36a8973da46d96c1dfe750d55ae36f92f4364736f6c63430008140033",
  "linkReferences": {},
  "deployedLinkReferences": {}
}