{
  "_format": "hh-sol-artifact-1",
  "contractName": "MvxMarket",
  "sourceName": "src/MvxMarket.sol",
  "abi": [
    {
      "inputs": [
        {
          "internalType": "uint8",
          "name": "_rule",
          "type": "uint8"
        }
      ],
      "name": "BuyItemError",
      "type": "error"
    },
    {
      "inputs": [
        {
          "internalType": "uint8",
          "name": "_rule",
          "type": "uint8"
        }
      ],
      "name": "ListItemError",
      "type": "error"
    },
    {
      "anonymous": false,
      "inputs": [
        {
          "components": [
            {
              "internalType": "uint256",
              "name": "itemId",
              "type": "uint256"
            },
            {
              "internalType": "address",
              "name": "collection",
              "type": "address"
            },
            {
              "internalType": "uint256",
              "name": "tokenId",
              "type": "uint256"
            },
            {
              "internalType": "address payable",
              "name": "seller",
              "type": "address"
            },
            {
              "internalType": "address payable",
              "name": "owner",
              "type": "address"
            },
            {
              "internalType": "address",
              "name": "quoteAsset",
              "type": "address"
            },
            {
              "internalType": "uint256",
              "name": "price",
              "type": "uint256"
            },
            {
              "internalType": "uint256",
              "name": "listingTime",
              "type": "uint256"
            }
          ],
          "indexed": false,
          "internalType": "struct MvxMarket.MarketItem",
          "name": "_marketItem",
          "type": "tuple"
        }
      ],
      "name": "BuyItem",
      "type": "event"
    },
    {
      "anonymous": false,
      "inputs": [
        {
          "indexed": false,
          "internalType": "uint8",
          "name": "version",
          "type": "uint8"
        }
      ],
      "name": "Initialized",
      "type": "event"
    },
    {
      "anonymous": false,
      "inputs": [
        {
          "components": [
            {
              "internalType": "uint256",
              "name": "itemId",
              "type": "uint256"
            },
            {
              "internalType": "address",
              "name": "collection",
              "type": "address"
            },
            {
              "internalType": "uint256",
              "name": "tokenId",
              "type": "uint256"
            },
            {
              "internalType": "address payable",
              "name": "seller",
              "type": "address"
            },
            {
              "internalType": "address payable",
              "name": "owner",
              "type": "address"
            },
            {
              "internalType": "address",
              "name": "quoteAsset",
              "type": "address"
            },
            {
              "internalType": "uint256",
              "name": "price",
              "type": "uint256"
            },
            {
              "internalType": "uint256",
              "name": "listingTime",
              "type": "uint256"
            }
          ],
          "indexed": false,
          "internalType": "struct MvxMarket.MarketItem",
          "name": "_marketItem",
          "type": "tuple"
        }
      ],
      "name": "ListItem",
      "type": "event"
    },
    {
      "anonymous": false,
      "inputs": [
        {
          "indexed": true,
          "internalType": "address",
          "name": "previousOwner",
          "type": "address"
        },
        {
          "indexed": true,
          "internalType": "address",
          "name": "newOwner",
          "type": "address"
        }
      ],
      "name": "OwnershipTransferred",
      "type": "event"
    },
    {
      "inputs": [],
      "name": "_itemIds",
      "outputs": [
        {
          "internalType": "uint256",
          "name": "",
          "type": "uint256"
        }
      ],
      "stateMutability": "view",
      "type": "function"
    },
    {
      "inputs": [],
      "name": "_itemsSold",
      "outputs": [
        {
          "internalType": "uint256",
          "name": "",
          "type": "uint256"
        }
      ],
      "stateMutability": "view",
      "type": "function"
    },
    {
      "inputs": [],
      "name": "_listingPrice",
      "outputs": [
        {
          "internalType": "uint256",
          "name": "",
          "type": "uint256"
        }
      ],
      "stateMutability": "view",
      "type": "function"
    },
    {
      "inputs": [
        {
          "internalType": "uint256",
          "name": "_itemId",
          "type": "uint256"
        }
      ],
      "name": "buyItem",
      "outputs": [],
      "stateMutability": "payable",
      "type": "function"
    },
    {
      "inputs": [
        {
          "internalType": "uint256",
          "name": "",
          "type": "uint256"
        }
      ],
      "name": "idToMarketItem",
      "outputs": [
        {
          "internalType": "uint256",
          "name": "itemId",
          "type": "uint256"
        },
        {
          "internalType": "address",
          "name": "collection",
          "type": "address"
        },
        {
          "internalType": "uint256",
          "name": "tokenId",
          "type": "uint256"
        },
        {
          "internalType": "address payable",
          "name": "seller",
          "type": "address"
        },
        {
          "internalType": "address payable",
          "name": "owner",
          "type": "address"
        },
        {
          "internalType": "address",
          "name": "quoteAsset",
          "type": "address"
        },
        {
          "internalType": "uint256",
          "name": "price",
          "type": "uint256"
        },
        {
          "internalType": "uint256",
          "name": "listingTime",
          "type": "uint256"
        }
      ],
      "stateMutability": "view",
      "type": "function"
    },
    {
      "inputs": [
        {
          "internalType": "uint256",
          "name": "_initListingPrice",
          "type": "uint256"
        }
      ],
      "name": "initialize",
      "outputs": [],
      "stateMutability": "nonpayable",
      "type": "function"
    },
    {
      "inputs": [
        {
          "components": [
            {
              "internalType": "uint256",
              "name": "itemId",
              "type": "uint256"
            },
            {
              "internalType": "address",
              "name": "collection",
              "type": "address"
            },
            {
              "internalType": "uint256",
              "name": "tokenId",
              "type": "uint256"
            },
            {
              "internalType": "address payable",
              "name": "seller",
              "type": "address"
            },
            {
              "internalType": "address payable",
              "name": "owner",
              "type": "address"
            },
            {
              "internalType": "address",
              "name": "quoteAsset",
              "type": "address"
            },
            {
              "internalType": "uint256",
              "name": "price",
              "type": "uint256"
            },
            {
              "internalType": "uint256",
              "name": "listingTime",
              "type": "uint256"
            }
          ],
          "internalType": "struct MvxMarket.MarketItem",
          "name": "marketItem",
          "type": "tuple"
        }
      ],
      "name": "listItem",
      "outputs": [],
      "stateMutability": "payable",
      "type": "function"
    },
    {
      "inputs": [
        {
          "internalType": "address",
          "name": "operator",
          "type": "address"
        },
        {
          "internalType": "address",
          "name": "from",
          "type": "address"
        },
        {
          "internalType": "uint256",
          "name": "tokenId",
          "type": "uint256"
        },
        {
          "internalType": "bytes",
          "name": "data",
          "type": "bytes"
        }
      ],
      "name": "onERC721Received",
      "outputs": [
        {
          "internalType": "bytes4",
          "name": "",
          "type": "bytes4"
        }
      ],
      "stateMutability": "nonpayable",
      "type": "function"
    },
    {
      "inputs": [],
      "name": "owner",
      "outputs": [
        {
          "internalType": "address",
          "name": "",
          "type": "address"
        }
      ],
      "stateMutability": "view",
      "type": "function"
    },
    {
      "inputs": [],
      "name": "renounceOwnership",
      "outputs": [],
      "stateMutability": "nonpayable",
      "type": "function"
    },
    {
      "inputs": [
        {
          "internalType": "address",
          "name": "newOwner",
          "type": "address"
        }
      ],
      "name": "transferOwnership",
      "outputs": [],
      "stateMutability": "nonpayable",
      "type": "function"
    },
    {
      "inputs": [
        {
          "internalType": "uint256",
          "name": "minListingPrice_",
          "type": "uint256"
        }
      ],
      "name": "updateListingPrice",
      "outputs": [],
      "stateMutability": "nonpayable",
      "type": "function"
    }
  ],
  "bytecode": "0x608060405261012c609b55348015610015575f80fd5b50610f15806100235f395ff3fe6080604052600436106100a5575f3560e01c8063ae677aa311610062578063ae677aa314610170578063b05457891461018f578063e61a70c0146101a2578063e7fb74c714610259578063f2fde38b1461026c578063fe4b84df1461028b575f80fd5b8063150b7a02146100a957806334a7f193146100e65780636462a44a14610109578063715018a61461011e57806387506a0d146101345780638da5cb5b14610149575b5f80fd5b3480156100b4575f80fd5b506100c86100c3366004610bb2565b6102aa565b6040516001600160e01b031990911681526020015b60405180910390f35b3480156100f1575f80fd5b506100fb60975481565b6040519081526020016100dd565b348015610114575f80fd5b506100fb60995481565b348015610129575f80fd5b50610132610417565b005b34801561013f575f80fd5b506100fb60985481565b348015610154575f80fd5b506033546040516001600160a01b0390911681526020016100dd565b34801561017b575f80fd5b5061013261018a366004610c49565b61042a565b61013261019d366004610c60565b610437565b3480156101ad575f80fd5b5061020e6101bc366004610c49565b609a6020525f90815260409020805460018201546002830154600384015460048501546005860154600687015460079097015495966001600160a01b0395861696949593841694928416939091169188565b604080519889526001600160a01b0397881660208a01528801959095529285166060870152908416608086015290921660a084015260c083019190915260e0820152610100016100dd565b610132610267366004610c49565b610567565b348015610277575f80fd5b50610132610286366004610c77565b6108a7565b348015610296575f80fd5b506101326102a5366004610c49565b61091d565b6097805460010190555f806102c183850185610c99565b6097548082524260e083019081525f918252609a602090815260409283902084518155908401516001820180546001600160a01b039283166001600160a01b0319918216179091558486015160028401556060860151600384018054918416918316919091179055608086015160048401805491841691831691909117905560a086015160058401805491909316911617905560c084015160068201559051600790910155519091507f494850cee43dfa7ff115c7c6e9fe9cd9d53f6663cad83b5f3147402a52627ab3906103fc9083905f6101008201905082518252602083015160018060a01b038082166020850152604085015160408501528060608601511660608501528060808601511660808501528060a08601511660a0850152505060c083015160c083015260e083015160e083015292915050565b60405180910390a150630a85bd0160e11b9695505050505050565b61041f610a32565b6104285f610a8c565b565b610432610a32565b609955565b61043f610add565b34609954101561046a576040516366ffb3c960e11b8152600160048201526024015b60405180910390fd5b5f61047b6040830160208401610c77565b90506001600160a01b0381166104a7576040516366ffb3c960e11b815260026004820152602401610461565b5f8260c00135116104ce576040516366ffb3c960e11b815260036004820152602401610461565b81355f03610559576001600160a01b03811663b88d4fde33308560400135866040516020016104fd9190610d4f565b6040516020818303038152906040526040518563ffffffff1660e01b815260040161052b9493929190610de2565b5f604051808303815f87803b158015610542575f80fd5b505af1158015610554573d5f803e3d5ffd5b505050505b506105646001606555565b50565b61056f610add565b5f818152609a602090815260408083208151610100810183528154815260018201546001600160a01b0390811694820194909452600282015492810192909252600381015483166060830152600481015483166080830152600581015490921660a08201819052600683015460c0830181905260079093015460e0830152609b549193909290916105ff91610e50565b90506001600160a01b03821661070a578034101561063357604051630673d82360e51b815260016004820152602401610461565b60208301516001600160a01b03166323b872dd303360408088015190516001600160e01b031960e086901b1681526001600160a01b03938416600482015292909116602483015260448201526064015f604051808303815f87803b158015610699575f80fd5b505af11580156106ab573d5f803e3d5ffd5b5050505f858152609a602052604081208181556001810180546001600160a01b0319908116909155600282018390556003820180548216905560048201805482169055600582018054909116905560068101829055600701555061089a565b6001600160a01b0382166323b872dd336040516001600160e01b031960e084901b1681526001600160a01b039091166004820152306024820152604481018490526064016020604051808303815f875af115801561076a573d5f803e3d5ffd5b505050506040513d601f19601f8201168201806040525081019061078e9190610e75565b6107c75760405162461bcd60e51b815260206004820152600a6024820152696275794974656d3a3a3160b01b6044820152606401610461565b60208301516001600160a01b03166323b872dd303360408088015190516001600160e01b031960e086901b1681526001600160a01b03938416600482015292909116602483015260448201526064015f604051808303815f87803b15801561082d575f80fd5b505af115801561083f573d5f803e3d5ffd5b5050505f858152609a602052604081208181556001810180546001600160a01b031990811690915560028201839055600382018054821690556004820180548216905560058201805490911690556006810182905560070155505b5050506105646001606555565b6108af610a32565b6001600160a01b0381166109145760405162461bcd60e51b815260206004820152602660248201527f4f776e61626c653a206e6577206f776e657220697320746865207a65726f206160448201526564647265737360d01b6064820152608401610461565b61056481610a8c565b5f54610100900460ff161580801561093b57505f54600160ff909116105b806109545750303b15801561095457505f5460ff166001145b6109b75760405162461bcd60e51b815260206004820152602e60248201527f496e697469616c697a61626c653a20636f6e747261637420697320616c72656160448201526d191e481a5b9a5d1a585b1a5e995960921b6064820152608401610461565b5f805460ff1916600117905580156109d8575f805461ff0019166101001790555b6109e0610b36565b6109e98261042a565b8015610a2e575f805461ff0019169055604051600181527f7f26b83ff96e1f2b6a682f133852f6798a09c465da95921460cefb38474024989060200160405180910390a15b5050565b6033546001600160a01b031633146104285760405162461bcd60e51b815260206004820181905260248201527f4f776e61626c653a2063616c6c6572206973206e6f7420746865206f776e65726044820152606401610461565b603380546001600160a01b038381166001600160a01b0319831681179093556040519116919082907f8be0079c531659141344cd1fd0a4f28419497f9722a3daafe3b4186f6b6457e0905f90a35050565b600260655403610b2f5760405162461bcd60e51b815260206004820152601f60248201527f5265656e7472616e637947756172643a207265656e7472616e742063616c6c006044820152606401610461565b6002606555565b5f54610100900460ff16610b5c5760405162461bcd60e51b815260040161046190610e94565b6104285f54610100900460ff16610b855760405162461bcd60e51b815260040161046190610e94565b61042833610a8c565b6001600160a01b0381168114610564575f80fd5b8035610bad81610b8e565b919050565b5f805f805f60808688031215610bc6575f80fd5b8535610bd181610b8e565b94506020860135610be181610b8e565b935060408601359250606086013567ffffffffffffffff80821115610c04575f80fd5b818801915088601f830112610c17575f80fd5b813581811115610c25575f80fd5b896020828501011115610c36575f80fd5b9699959850939650602001949392505050565b5f60208284031215610c59575f80fd5b5035919050565b5f6101008284031215610c71575f80fd5b50919050565b5f60208284031215610c87575f80fd5b8135610c9281610b8e565b9392505050565b5f610100808385031215610cab575f80fd5b6040519081019067ffffffffffffffff82118183101715610cda57634e487b7160e01b5f52604160045260245ffd5b8160405283358152610cee60208501610ba2565b602082015260408401356040820152610d0960608501610ba2565b6060820152610d1a60808501610ba2565b6080820152610d2b60a08501610ba2565b60a082015260c084013560c082015260e084013560e0820152809250505092915050565b8135815261010081016020830135610d6681610b8e565b6001600160a01b03908116602084015260408481013590840152606084013590610d8f82610b8e565b9081166060840152608084013590610da682610b8e565b166080830152610db860a08401610ba2565b6001600160a01b03811660a08401525060c083013560c083015260e083013560e083015292915050565b5f60018060a01b03808716835260208187168185015285604085015260806060850152845191508160808501525f5b82811015610e2d5785810182015185820160a001528101610e11565b50505f60a0828501015260a0601f19601f83011684010191505095945050505050565b80820180821115610e6f57634e487b7160e01b5f52601160045260245ffd5b92915050565b5f60208284031215610e85575f80fd5b81518015158114610c92575f80fd5b6020808252602b908201527f496e697469616c697a61626c653a20636f6e7472616374206973206e6f74206960408201526a6e697469616c697a696e6760a81b60608201526080019056fea264697066735822122025e2c801bb40342a6900b540720678bead085156cad4322831f463c81b091c9364736f6c63430008140033",
  "linkReferences": {},
  "deployedLinkReferences": {}
}