{
  "_format": "hh-sol-artifact-1",
  "contractName": "MvxFactory",
  "sourceName": "src/MvxFactory.sol",
  "abi": [
    {
      "inputs": [],
      "name": "AdminWithdrawError",
      "type": "error"
    },
    {
      "inputs": [
        {
          "internalType": "uint8",
          "name": "",
          "type": "uint8"
        }
      ],
      "name": "CreateError",
      "type": "error"
    },
    {
      "inputs": [
        {
          "internalType": "uint8",
          "name": "",
          "type": "uint8"
        }
      ],
      "name": "DiscountError",
      "type": "error"
    },
    {
      "inputs": [
        {
          "internalType": "uint8",
          "name": "",
          "type": "uint8"
        }
      ],
      "name": "GrantReferralError",
      "type": "error"
    },
    {
      "inputs": [],
      "name": "InvalidColletion",
      "type": "error"
    },
    {
      "inputs": [],
      "name": "Unathorized",
      "type": "error"
    },
    {
      "inputs": [
        {
          "internalType": "uint8",
          "name": "",
          "type": "uint8"
        }
      ],
      "name": "UpdateMemberError",
      "type": "error"
    },
    {
      "inputs": [],
      "name": "UpdatePartnerError",
      "type": "error"
    },
    {
      "inputs": [
        {
          "internalType": "uint8",
          "name": "",
          "type": "uint8"
        }
      ],
      "name": "WithdrawPartnerError",
      "type": "error"
    },
    {
      "inputs": [
        {
          "internalType": "uint8",
          "name": "",
          "type": "uint8"
        }
      ],
      "name": "WithdrawReferralError",
      "type": "error"
    },
    {
      "anonymous": false,
      "inputs": [
        {
          "indexed": false,
          "internalType": "address",
          "name": "previousAdmin",
          "type": "address"
        },
        {
          "indexed": false,
          "internalType": "address",
          "name": "newAdmin",
          "type": "address"
        }
      ],
      "name": "AdminChanged",
      "type": "event"
    },
    {
      "anonymous": false,
      "inputs": [
        {
          "indexed": true,
          "internalType": "address",
          "name": "beacon",
          "type": "address"
        }
      ],
      "name": "BeaconUpgraded",
      "type": "event"
    },
    {
      "anonymous": false,
      "inputs": [
        {
          "indexed": true,
          "internalType": "address",
          "name": "_sender",
          "type": "address"
        },
        {
          "indexed": false,
          "internalType": "address",
          "name": "_impl",
          "type": "address"
        },
        {
          "indexed": false,
          "internalType": "address",
          "name": "_cloneAddress",
          "type": "address"
        }
      ],
      "name": "CreateEvent",
      "type": "event"
    },
    {
      "anonymous": false,
      "inputs": [
        {
          "indexed": false,
          "internalType": "uint256",
          "name": "",
          "type": "uint256"
        }
      ],
      "name": "FactoryFeeKept",
      "type": "event"
    },
    {
      "anonymous": false,
      "inputs": [
        {
          "indexed": false,
          "internalType": "uint8",
          "name": "version",
          "type": "uint8"
        }
      ],
      "name": "Initialized",
      "type": "event"
    },
    {
      "anonymous": false,
      "inputs": [
        {
          "indexed": false,
          "internalType": "string",
          "name": "",
          "type": "string"
        },
        {
          "indexed": false,
          "internalType": "address",
          "name": "",
          "type": "address"
        }
      ],
      "name": "Log",
      "type": "event"
    },
    {
      "anonymous": false,
      "inputs": [
        {
          "indexed": false,
          "internalType": "string",
          "name": "",
          "type": "string"
        },
        {
          "indexed": false,
          "internalType": "uint256",
          "name": "",
          "type": "uint256"
        }
      ],
      "name": "Log",
      "type": "event"
    },
    {
      "anonymous": false,
      "inputs": [
        {
          "indexed": false,
          "internalType": "string",
          "name": "",
          "type": "string"
        }
      ],
      "name": "Log",
      "type": "event"
    },
    {
      "anonymous": false,
      "inputs": [
        {
          "indexed": true,
          "internalType": "address",
          "name": "previousOwner",
          "type": "address"
        },
        {
          "indexed": true,
          "internalType": "address",
          "name": "newOwner",
          "type": "address"
        }
      ],
      "name": "OwnershipTransferred",
      "type": "event"
    },
    {
      "anonymous": false,
      "inputs": [
        {
          "indexed": true,
          "internalType": "address",
          "name": "_partner",
          "type": "address"
        },
        {
          "indexed": false,
          "internalType": "uint256",
          "name": "_balance",
          "type": "uint256"
        }
      ],
      "name": "PartnerBalanceUpdate",
      "type": "event"
    },
    {
      "anonymous": false,
      "inputs": [
        {
          "indexed": true,
          "internalType": "address",
          "name": "_referral",
          "type": "address"
        },
        {
          "indexed": false,
          "internalType": "uint256",
          "name": "_amount",
          "type": "uint256"
        }
      ],
      "name": "ReferralBalanceUpdate",
      "type": "event"
    },
    {
      "anonymous": false,
      "inputs": [
        {
          "indexed": true,
          "internalType": "address",
          "name": "_artist",
          "type": "address"
        },
        {
          "indexed": false,
          "internalType": "address",
          "name": "_sender",
          "type": "address"
        },
        {
          "indexed": false,
          "internalType": "address",
          "name": "_collection",
          "type": "address"
        }
      ],
      "name": "ReferralDiscount",
      "type": "event"
    },
    {
      "anonymous": false,
      "inputs": [
        {
          "indexed": false,
          "internalType": "address",
          "name": "_newImpl",
          "type": "address"
        }
      ],
      "name": "UpdateCollectionImpl",
      "type": "event"
    },
    {
      "anonymous": false,
      "inputs": [
        {
          "components": [
            {
              "internalType": "address",
              "name": "collection",
              "type": "address"
            },
            {
              "internalType": "uint256",
              "name": "deployFee",
              "type": "uint256"
            },
            {
              "internalType": "uint256",
              "name": "platformFee",
              "type": "uint256"
            },
            {
              "internalType": "uint96",
              "name": "discount",
              "type": "uint96"
            },
            {
              "internalType": "uint256",
              "name": "expiration",
              "type": "uint256"
            }
          ],
          "indexed": false,
          "internalType": "struct Member",
          "name": "",
          "type": "tuple"
        }
      ],
      "name": "UpdateMember",
      "type": "event"
    },
    {
      "anonymous": false,
      "inputs": [
        {
          "components": [
            {
              "internalType": "address",
              "name": "admin",
              "type": "address"
            },
            {
              "internalType": "uint96",
              "name": "adminOwnPercent",
              "type": "uint96"
            },
            {
              "internalType": "uint96",
              "name": "referralOwnPercent",
              "type": "uint96"
            },
            {
              "internalType": "uint256",
              "name": "balance",
              "type": "uint256"
            },
            {
              "internalType": "uint96",
              "name": "discount",
              "type": "uint96"
            },
            {
              "internalType": "uint40",
              "name": "expiration",
              "type": "uint40"
            }
          ],
          "indexed": false,
          "internalType": "struct Partner",
          "name": "",
          "type": "tuple"
        }
      ],
      "name": "UpdatePartner",
      "type": "event"
    },
    {
      "anonymous": false,
      "inputs": [
        {
          "indexed": true,
          "internalType": "address",
          "name": "implementation",
          "type": "address"
        }
      ],
      "name": "Upgraded",
      "type": "event"
    },
    {
      "anonymous": false,
      "inputs": [
        {
          "indexed": false,
          "internalType": "uint256",
          "name": "amount",
          "type": "uint256"
        }
      ],
      "name": "WithdrawAdmin",
      "type": "event"
    },
    {
      "anonymous": false,
      "inputs": [
        {
          "indexed": true,
          "internalType": "address",
          "name": "_sender",
          "type": "address"
        },
        {
          "indexed": false,
          "internalType": "address",
          "name": "_collection",
          "type": "address"
        },
        {
          "indexed": false,
          "internalType": "uint256",
          "name": "_balance",
          "type": "uint256"
        }
      ],
      "name": "WithdrawPartner",
      "type": "event"
    },
    {
      "anonymous": false,
      "inputs": [
        {
          "indexed": true,
          "internalType": "address",
          "name": "_sender",
          "type": "address"
        },
        {
          "indexed": false,
          "internalType": "address",
          "name": "_artist",
          "type": "address"
        },
        {
          "indexed": false,
          "internalType": "uint256",
          "name": "_referralBalance",
          "type": "uint256"
        }
      ],
      "name": "WithdrawReferral",
      "type": "event"
    },
    {
      "stateMutability": "payable",
      "type": "fallback"
    },
    {
      "inputs": [
        {
          "internalType": "address",
          "name": "",
          "type": "address"
        }
      ],
      "name": "artists",
      "outputs": [
        {
          "internalType": "address",
          "name": "referral",
          "type": "address"
        },
        {
          "internalType": "uint256",
          "name": "referralBalance",
          "type": "uint256"
        },
        {
          "internalType": "address",
          "name": "collection",
          "type": "address"
        }
      ],
      "stateMutability": "view",
      "type": "function"
    },
    {
      "inputs": [],
      "name": "collectionCount",
      "outputs": [
        {
          "internalType": "uint256",
          "name": "",
          "type": "uint256"
        }
      ],
      "stateMutability": "view",
      "type": "function"
    },
    {
      "inputs": [],
      "name": "collectionImpl",
      "outputs": [
        {
          "internalType": "address",
          "name": "",
          "type": "address"
        }
      ],
      "stateMutability": "view",
      "type": "function"
    },
    {
      "inputs": [
        {
          "components": [
            {
              "internalType": "string",
              "name": "name",
              "type": "string"
            },
            {
              "internalType": "string",
              "name": "symbol",
              "type": "string"
            },
            {
              "internalType": "string",
              "name": "baseURI",
              "type": "string"
            },
            {
              "internalType": "string",
              "name": "baseExt",
              "type": "string"
            },
            {
              "internalType": "uint256",
              "name": "maxSupply",
              "type": "uint256"
            },
            {
              "internalType": "uint96",
              "name": "royaltyFee",
              "type": "uint96"
            },
            {
              "internalType": "address",
              "name": "royaltyReceiver",
              "type": "address"
            }
          ],
          "internalType": "struct Collection",
          "name": "_nftsData",
          "type": "tuple"
        },
        {
          "components": [
            {
              "internalType": "uint256",
              "name": "ogMintPrice",
              "type": "uint256"
            },
            {
              "internalType": "uint256",
              "name": "whitelistMintPrice",
              "type": "uint256"
            },
            {
              "internalType": "uint256",
              "name": "mintPrice",
              "type": "uint256"
            },
            {
              "internalType": "uint256",
              "name": "mintMaxPerUser",
              "type": "uint256"
            },
            {
              "internalType": "uint256",
              "name": "ogMintMaxPerUser",
              "type": "uint256"
            },
            {
              "internalType": "uint256",
              "name": "whitelistMintMaxPerUser",
              "type": "uint256"
            },
            {
              "internalType": "uint256",
              "name": "mintStart",
              "type": "uint256"
            },
            {
              "internalType": "uint256",
              "name": "mintEnd",
              "type": "uint256"
            },
            {
              "internalType": "uint256",
              "name": "ogMintStart",
              "type": "uint256"
            },
            {
              "internalType": "uint256",
              "name": "ogMintEnd",
              "type": "uint256"
            },
            {
              "internalType": "uint256",
              "name": "whitelistMintStart",
              "type": "uint256"
            },
            {
              "internalType": "uint256",
              "name": "whitelistMintEnd",
              "type": "uint256"
            }
          ],
          "internalType": "struct Stages",
          "name": "_mintingStages",
          "type": "tuple"
        },
        {
          "internalType": "address[]",
          "name": "_ogs",
          "type": "address[]"
        },
        {
          "internalType": "address[]",
          "name": "_wls",
          "type": "address[]"
        }
      ],
      "name": "createCollection",
      "outputs": [
        {
          "internalType": "address",
          "name": "_clone",
          "type": "address"
        }
      ],
      "stateMutability": "payable",
      "type": "function"
    },
    {
      "inputs": [
        {
          "internalType": "address",
          "name": "_artist",
          "type": "address"
        }
      ],
      "name": "deleteArtist",
      "outputs": [],
      "stateMutability": "nonpayable",
      "type": "function"
    },
    {
      "inputs": [
        {
          "internalType": "address",
          "name": "_member",
          "type": "address"
        }
      ],
      "name": "deleteMember",
      "outputs": [],
      "stateMutability": "nonpayable",
      "type": "function"
    },
    {
      "inputs": [
        {
          "internalType": "address",
          "name": "_collection",
          "type": "address"
        }
      ],
      "name": "deletePartnership",
      "outputs": [],
      "stateMutability": "nonpayable",
      "type": "function"
    },
    {
      "inputs": [
        {
          "internalType": "address",
          "name": "_collection",
          "type": "address"
        }
      ],
      "name": "getPartnerBalance",
      "outputs": [
        {
          "internalType": "uint256",
          "name": "_balance",
          "type": "uint256"
        }
      ],
      "stateMutability": "view",
      "type": "function"
    },
    {
      "inputs": [
        {
          "internalType": "address",
          "name": "_artist",
          "type": "address"
        }
      ],
      "name": "getReferralBalance",
      "outputs": [
        {
          "internalType": "uint256",
          "name": "_balance",
          "type": "uint256"
        }
      ],
      "stateMutability": "view",
      "type": "function"
    },
    {
      "inputs": [],
      "name": "getTime",
      "outputs": [
        {
          "internalType": "uint256",
          "name": "_time",
          "type": "uint256"
        }
      ],
      "stateMutability": "view",
      "type": "function"
    },
    {
      "inputs": [
        {
          "internalType": "uint256",
          "name": "_daysFromNow",
          "type": "uint256"
        }
      ],
      "name": "getTime",
      "outputs": [
        {
          "internalType": "uint256",
          "name": "_time",
          "type": "uint256"
        }
      ],
      "stateMutability": "view",
      "type": "function"
    },
    {
      "inputs": [
        {
          "internalType": "address",
          "name": "_extCollection",
          "type": "address"
        },
        {
          "internalType": "address",
          "name": "_artist",
          "type": "address"
        }
      ],
      "name": "grantReferral",
      "outputs": [],
      "stateMutability": "nonpayable",
      "type": "function"
    },
    {
      "inputs": [],
      "name": "initialize",
      "outputs": [],
      "stateMutability": "nonpayable",
      "type": "function"
    },
    {
      "inputs": [
        {
          "internalType": "address",
          "name": "",
          "type": "address"
        }
      ],
      "name": "members",
      "outputs": [
        {
          "internalType": "address",
          "name": "collection",
          "type": "address"
        },
        {
          "internalType": "uint256",
          "name": "deployFee",
          "type": "uint256"
        },
        {
          "internalType": "uint256",
          "name": "platformFee",
          "type": "uint256"
        },
        {
          "internalType": "uint96",
          "name": "discount",
          "type": "uint96"
        },
        {
          "internalType": "uint256",
          "name": "expiration",
          "type": "uint256"
        }
      ],
      "stateMutability": "view",
      "type": "function"
    },
    {
      "inputs": [],
      "name": "owner",
      "outputs": [
        {
          "internalType": "address",
          "name": "",
          "type": "address"
        }
      ],
      "stateMutability": "view",
      "type": "function"
    },
    {
      "inputs": [
        {
          "internalType": "address",
          "name": "",
          "type": "address"
        }
      ],
      "name": "partners",
      "outputs": [
        {
          "internalType": "address",
          "name": "admin",
          "type": "address"
        },
        {
          "internalType": "uint96",
          "name": "adminOwnPercent",
          "type": "uint96"
        },
        {
          "internalType": "uint96",
          "name": "referralOwnPercent",
          "type": "uint96"
        },
        {
          "internalType": "uint256",
          "name": "balance",
          "type": "uint256"
        },
        {
          "internalType": "uint96",
          "name": "discount",
          "type": "uint96"
        },
        {
          "internalType": "uint40",
          "name": "expiration",
          "type": "uint40"
        }
      ],
      "stateMutability": "view",
      "type": "function"
    },
    {
      "inputs": [],
      "name": "proxiableUUID",
      "outputs": [
        {
          "internalType": "bytes32",
          "name": "",
          "type": "bytes32"
        }
      ],
      "stateMutability": "view",
      "type": "function"
    },
    {
      "inputs": [],
      "name": "renounceOwnership",
      "outputs": [],
      "stateMutability": "nonpayable",
      "type": "function"
    },
    {
      "inputs": [
        {
          "internalType": "address",
          "name": "newOwner",
          "type": "address"
        }
      ],
      "name": "transferOwnership",
      "outputs": [],
      "stateMutability": "nonpayable",
      "type": "function"
    },
    {
      "inputs": [
        {
          "internalType": "address",
          "name": "_impl",
          "type": "address"
        }
      ],
      "name": "updateCollectionImpl",
      "outputs": [],
      "stateMutability": "payable",
      "type": "function"
    },
    {
      "inputs": [
        {
          "internalType": "address",
          "name": "_newMember",
          "type": "address"
        },
        {
          "internalType": "address",
          "name": "_collection",
          "type": "address"
        },
        {
          "internalType": "uint256",
          "name": "_deployFee",
          "type": "uint256"
        },
        {
          "internalType": "uint96",
          "name": "_platformFee",
          "type": "uint96"
        },
        {
          "internalType": "uint96",
          "name": "_discount",
          "type": "uint96"
        },
        {
          "internalType": "uint256",
          "name": "_expirationDays",
          "type": "uint256"
        }
      ],
      "name": "updateMember",
      "outputs": [],
      "stateMutability": "payable",
      "type": "function"
    },
    {
      "inputs": [
        {
          "internalType": "address",
          "name": "_collection",
          "type": "address"
        },
        {
          "internalType": "address",
          "name": "_admin",
          "type": "address"
        },
        {
          "internalType": "uint96",
          "name": "_adminOwnPercent",
          "type": "uint96"
        },
        {
          "internalType": "uint96",
          "name": "_referralOwnPercent",
          "type": "uint96"
        },
        {
          "internalType": "uint96",
          "name": "_discountPercent",
          "type": "uint96"
        },
        {
          "internalType": "uint40",
          "name": "_expireDaysFromNow",
          "type": "uint40"
        }
      ],
      "name": "updatePartnership",
      "outputs": [],
      "stateMutability": "nonpayable",
      "type": "function"
    },
    {
      "inputs": [
        {
          "internalType": "address",
          "name": "_newImplementation",
          "type": "address"
        }
      ],
      "name": "upgradeTo",
      "outputs": [],
      "stateMutability": "nonpayable",
      "type": "function"
    },
    {
      "inputs": [
        {
          "internalType": "address",
          "name": "newImplementation",
          "type": "address"
        },
        {
          "internalType": "bytes",
          "name": "data",
          "type": "bytes"
        }
      ],
      "name": "upgradeToAndCall",
      "outputs": [],
      "stateMutability": "payable",
      "type": "function"
    },
    {
      "inputs": [],
      "name": "withdraw",
      "outputs": [],
      "stateMutability": "payable",
      "type": "function"
    },
    {
      "inputs": [
        {
          "internalType": "address",
          "name": "_collection",
          "type": "address"
        }
      ],
      "name": "withdrawPartner",
      "outputs": [],
      "stateMutability": "nonpayable",
      "type": "function"
    },
    {
      "inputs": [
        {
          "internalType": "address",
          "name": "artist_",
          "type": "address"
        }
      ],
      "name": "withdrawReferral",
      "outputs": [],
      "stateMutability": "nonpayable",
      "type": "function"
    },
    {
      "stateMutability": "payable",
      "type": "receive"
    }
  ],
  "bytecode": "0x60a060405230608052348015610013575f80fd5b5060805161394d6100485f395f818161107e0152818161112e015281816112760152818161221901526122c9015261394d5ff3fe6080604052600436106101af575f3560e01c8063557ed1ba116100eb578063b5b86a5111610089578063e636541b11610063578063e636541b146106c0578063f2fde38b146106d3578063f705ca75146106f2578063f9a432f814610711576101b6565b8063b5b86a5114610648578063b8d96c2e1461068c578063d57f966b146106ab576101b6565b806373627826116100c557806373627826146104eb5780638129fc1c1461050a5780638da5cb5b1461051e57806395c3365214610548576101b6565b8063557ed1ba146104b2578063686ff551146104c4578063715018a6146104d7576101b6565b80632be7d54b116101585780633ccfd60b116101325780633ccfd60b146104645780634a6798e81461046c5780634f1ef2861461048b57806352d1902d1461049e576101b6565b80632be7d54b146103d55780633166ef01146103f45780633659cfe614610445576101b6565b806311ffb1d41161018957806311ffb1d4146103825780631c8ebc1e146103a35780631e66345b146103b6576101b6565b8063016fa018146101e8578063069dab8f1461023f57806308ae4b0c146102c8576101b6565b366101b657005b6040517f28c3794a00000000000000000000000000000000000000000000000000000000815260040160405180910390fd5b3480156101f3575f80fd5b5061022c610202366004613116565b73ffffffffffffffffffffffffffffffffffffffff165f90815260cc602052604090206002015490565b6040519081526020015b60405180910390f35b34801561024a575f80fd5b50610291610259366004613116565b60cb6020525f908152604090208054600182015460029092015473ffffffffffffffffffffffffffffffffffffffff91821692911683565b6040805173ffffffffffffffffffffffffffffffffffffffff94851681526020810193909352921691810191909152606001610236565b3480156102d3575f80fd5b506103356102e2366004613116565b60cd6020525f90815260409020805460018201546002830154600384015460049094015473ffffffffffffffffffffffffffffffffffffffff90931693919290916bffffffffffffffffffffffff169085565b6040805173ffffffffffffffffffffffffffffffffffffffff90961686526020860194909452928401919091526bffffffffffffffffffffffff166060830152608082015260a001610236565b34801561038d575f80fd5b506103a161039c366004613116565b610730565b005b6103a16103b136600461314a565b6107bf565b3480156103c1575f80fd5b506103a16103d0366004613116565b6109e7565b3480156103e0575f80fd5b506103a16103ef3660046131ac565b610a72565b3480156103ff575f80fd5b5060c9546104209073ffffffffffffffffffffffffffffffffffffffff1681565b60405173ffffffffffffffffffffffffffffffffffffffff9091168152602001610236565b348015610450575f80fd5b506103a161045f366004613116565b610d73565b6103a1610d87565b348015610477575f80fd5b506103a1610486366004613116565b610e47565b6103a161049936600461320a565b611067565b3480156104a9575f80fd5b5061022c61125d565b3480156104bd575f80fd5b504261022c565b6103a16104d2366004613116565b611348565b3480156104e2575f80fd5b506103a16114ad565b3480156104f6575f80fd5b5061022c6105053660046132e4565b6114c0565b348015610515575f80fd5b506103a16114f2565b348015610529575f80fd5b5060335473ffffffffffffffffffffffffffffffffffffffff16610420565b348015610553575f80fd5b506105e6610562366004613116565b60cc6020525f9081526040902080546001820154600283015460039093015473ffffffffffffffffffffffffffffffffffffffff831693740100000000000000000000000000000000000000009093046bffffffffffffffffffffffff908116939281169291908116906c01000000000000000000000000900464ffffffffff1686565b6040805173ffffffffffffffffffffffffffffffffffffffff90971687526bffffffffffffffffffffffff958616602088015293851693860193909352606085019190915291909116608083015264ffffffffff1660a082015260c001610236565b348015610653575f80fd5b5061022c610662366004613116565b73ffffffffffffffffffffffffffffffffffffffff165f90815260cb602052604090206001015490565b348015610697575f80fd5b506103a16106a6366004613116565b611677565b3480156106b6575f80fd5b5061022c60ca5481565b6104206106ce366004613343565b6116de565b3480156106de575f80fd5b506103a16106ed366004613116565b611c53565b3480156106fd575f80fd5b506103a161070c366004613116565b611d07565b34801561071c575f80fd5b506103a161072b366004613419565b611f06565b610738612181565b73ffffffffffffffffffffffffffffffffffffffff165f90815260cd6020526040812080547fffffffffffffffffffffffff000000000000000000000000000000000000000016815560018101829055600281018290556003810180547fffffffffffffffffffffffffffffffffffffffff00000000000000000000000016905560040155565b6107c7612181565b73ffffffffffffffffffffffffffffffffffffffff861661081c576040517fcbb282d9000000000000000000000000000000000000000000000000000000008152600160048201526024015b60405180910390fd5b612710836bffffffffffffffffffffffff1610801561084a5750612710826bffffffffffffffffffffffff16105b610852575f80fd5b6040518060a001604052808673ffffffffffffffffffffffffffffffffffffffff168152602001858152602001846bffffffffffffffffffffffff168152602001836bffffffffffffffffffffffff16815260200182603c6108b491906134c3565b6108bf90603c6134c3565b6108ca9060186134c3565b6108d490426134da565b905273ffffffffffffffffffffffffffffffffffffffff8781165f90815260cd6020908152604091829020845181547fffffffffffffffffffffffff00000000000000000000000000000000000000001694169384178155848201516001820181905585840151600283018190556060808801516003850180547fffffffffffffffffffffffffffffffffffffffff000000000000000000000000166bffffffffffffffffffffffff909216918217905560809889015160049095018590558651978852948701929092529385019390935291830152918101919091527f7636fe15e140a62efb12e8fe33159c54b3c83c42313d40966642f8bbe6bf608d9060a0015b60405180910390a1505050505050565b6109ef612181565b73ffffffffffffffffffffffffffffffffffffffff165f90815260cc602052604081208181556001810180547fffffffffffffffffffffffffffffffffffffffff000000000000000000000000169055600281019190915560030180547fffffffffffffffffffffffffffffff0000000000000000000000000000000000169055565b6040517f70a082310000000000000000000000000000000000000000000000000000000081523360048201819052905f90819073ffffffffffffffffffffffffffffffffffffffff8616906370a08231906024016020604051808303815f875af1158015610ae2573d5f803e3d5ffd5b505050506040513d601f19601f82011682018060405250810190610b0691906134ed565b11905080610b43576040517ff97aaed000000000000000000000000000000000000000000000000000000000815260016004820152602401610813565b73ffffffffffffffffffffffffffffffffffffffff8481165f90815260cc60209081526040808320815160c08101835281549586168152740100000000000000000000000000000000000000009095046bffffffffffffffffffffffff9081169386019390935260018101548316918501919091526002810154606085015260030154908116608084018190526c0100000000000000000000000090910464ffffffffff1660a084015215801590610c055750428260a0015164ffffffffff16115b905080610c41576040517ff97aaed000000000000000000000000000000000000000000000000000000000815260026004820152602401610813565b73ffffffffffffffffffffffffffffffffffffffff8581165f90815260cb60205260409020541615610ca2576040517ff97aaed000000000000000000000000000000000000000000000000000000000815260036004820152602401610813565b6040805160608101825273ffffffffffffffffffffffffffffffffffffffff8681168083525f60208085018281528c85168688018181528d871680865260cb855294899020975188549088167fffffffffffffffffffffffff0000000000000000000000000000000000000000918216178955925160018901555160029097018054979096169690911695909517909355845191825291810192909252917f66abdd2619de838dbdd466748a5769d636daec3a3dc9350ee9d5e88483272932910160405180910390a2505050505050565b610d7b612181565b610d8481612202565b50565b610d8f612181565b60405147905f90339083908381818185875af1925050503d805f8114610dd0576040519150601f19603f3d011682016040523d82523d5f602084013e610dd5565b606091505b5050905080610e10576040517f7e4211ac00000000000000000000000000000000000000000000000000000000815260040160405180910390fd5b6040518281527f36d87f67b5609def24de3917d6e2b3c0ddd29370bd33cc2eb5821e814dbc77299060200160405180910390a15050565b73ffffffffffffffffffffffffffffffffffffffff8181165f90815260cc6020908152604091829020825160c0810184528154948516808252740100000000000000000000000000000000000000009095046bffffffffffffffffffffffff90811693820193909352600182015483169381019390935260028101546060840181905260039091015491821660808401526c0100000000000000000000000090910464ffffffffff1660a083015233928314610f32576040517f27bc636d00000000000000000000000000000000000000000000000000000000815260016004820152602401610813565b5f8111610f6e576040517f27bc636d00000000000000000000000000000000000000000000000000000000815260026004820152602401610813565b5f6060830181905260405173ffffffffffffffffffffffffffffffffffffffff85169083908381818185875af1925050503d805f8114610fc9576040519150601f19603f3d011682016040523d82523d5f602084013e610fce565b606091505b505090508061100c576040517f27bc636d00000000000000000000000000000000000000000000000000000000815260036004820152602401610813565b6040805173ffffffffffffffffffffffffffffffffffffffff8781168252602082018590528616917f3cebcff4b474dd1638e05b88c97b76249ed7a5b06775d18fa6f9f978ced7eccf91015b60405180910390a25050505050565b73ffffffffffffffffffffffffffffffffffffffff7f000000000000000000000000000000000000000000000000000000000000000016300361112c576040517f08c379a000000000000000000000000000000000000000000000000000000000815260206004820152602c60248201527f46756e6374696f6e206d7573742062652063616c6c6564207468726f7567682060448201527f64656c656761746563616c6c00000000000000000000000000000000000000006064820152608401610813565b7f000000000000000000000000000000000000000000000000000000000000000073ffffffffffffffffffffffffffffffffffffffff166111a17f360894a13ba1a3210667c828492db98dca3e2076cc3735a920a3ca505d382bbc5473ffffffffffffffffffffffffffffffffffffffff1690565b73ffffffffffffffffffffffffffffffffffffffff1614611244576040517f08c379a000000000000000000000000000000000000000000000000000000000815260206004820152602c60248201527f46756e6374696f6e206d7573742062652063616c6c6564207468726f7567682060448201527f6163746976652070726f787900000000000000000000000000000000000000006064820152608401610813565b61124d82612403565b6112598282600161240b565b5050565b5f3073ffffffffffffffffffffffffffffffffffffffff7f00000000000000000000000000000000000000000000000000000000000000001614611323576040517f08c379a000000000000000000000000000000000000000000000000000000000815260206004820152603860248201527f555550535570677261646561626c653a206d757374206e6f742062652063616c60448201527f6c6564207468726f7567682064656c656761746563616c6c00000000000000006064820152608401610813565b507f360894a13ba1a3210667c828492db98dca3e2076cc3735a920a3ca505d382bbc90565b611350612181565b6040517f01ffc9a70000000000000000000000000000000000000000000000000000000081527fc21b8f2800000000000000000000000000000000000000000000000000000000600482015273ffffffffffffffffffffffffffffffffffffffff8216906301ffc9a7906024016020604051808303815f875af11580156113d9573d5f803e3d5ffd5b505050506040513d601f19601f820116820180604052508101906113fd9190613504565b611433576040517f427f021400000000000000000000000000000000000000000000000000000000815260040160405180910390fd5b60c980547fffffffffffffffffffffffff00000000000000000000000000000000000000001673ffffffffffffffffffffffffffffffffffffffff83169081179091556040519081527f1f429f4905add3396291cd5fed632430e672564b59710524a74bff513cc99f07906020015b60405180910390a150565b6114b5612181565b6114be5f61260f565b565b5f6114cc82603c6134c3565b6114d790603c6134c3565b6114e29060186134c3565b6114ec90426134da565b92915050565b5f54610100900460ff161580801561151057505f54600160ff909116105b806115295750303b15801561152957505f5460ff166001145b6115b5576040517f08c379a000000000000000000000000000000000000000000000000000000000815260206004820152602e60248201527f496e697469616c697a61626c653a20636f6e747261637420697320616c72656160448201527f647920696e697469616c697a65640000000000000000000000000000000000006064820152608401610813565b5f80547fffffffffffffffffffffffffffffffffffffffffffffffffffffffffffffff001660011790558015611611575f80547fffffffffffffffffffffffffffffffffffffffffffffffffffffffffffff00ff166101001790555b611619612685565b8015610d84575f80547fffffffffffffffffffffffffffffffffffffffffffffffffffffffffffff00ff169055604051600181527f7f26b83ff96e1f2b6a682f133852f6798a09c465da95921460cefb3847402498906020016114a2565b61167f612181565b73ffffffffffffffffffffffffffffffffffffffff165f90815260cb6020526040812080547fffffffffffffffffffffffff00000000000000000000000000000000000000009081168255600182019290925560020180549091169055565b5f6116fe60335473ffffffffffffffffffffffffffffffffffffffff1690565b73ffffffffffffffffffffffffffffffffffffffff163373ffffffffffffffffffffffffffffffffffffffff1614806117475750335f90815260cd602052604090206004015442105b6117af576040517f08c379a00000000000000000000000000000000000000000000000000000000081526004016108139060208082526004908201527f4175746800000000000000000000000000000000000000000000000000000000604082015260600190565b335f81815260cb60209081526040808320815160608082018452825473ffffffffffffffffffffffffffffffffffffffff90811683526001808501548488015260029485015482168487015288885260cd875296859020855160a0810187528154909216825296870154958101869052928601548385015260038601546bffffffffffffffffffffffff169083015260049094015460808201528351915134949391927f1dfffa052d4a63bd70f14b863e128979d1c59e3589a0a3beb2633a120047042d916118ce919060408082526013908201527f5f6172746973742e726566657272616c3a3a2000000000000000000000000000606082015273ffffffffffffffffffffffffffffffffffffffff91909116602082015260800190565b60405180910390a1825173ffffffffffffffffffffffffffffffffffffffff161561196b577fcf34ef537ac33ee1ac626ca1587a0a7e8e51561e5514f8cb36afa1c5102b3bab6040516119529060208082526016908201527f5f6170706c79696e6720646973636f756e742e2e2e2e00000000000000000000604082015260600190565b60405180910390a161196683868684612724565b611a0f565b7fcf34ef537ac33ee1ac626ca1587a0a7e8e51561e5514f8cb36afa1c5102b3bab6040516119ca906020808252601a908201527f4e4f54205f6170706c79696e6720646973636f756e742e2e2e2e000000000000604082015260600190565b60405180910390a180841015611a0f576040517fab58291600000000000000000000000000000000000000000000000000000000815260016004820152602401610813565b60408051606087901b7fffffffffffffffffffffffffffffffffffffffff00000000000000000000000016602082015281516014818303018152603490910190915260c954611a749073ffffffffffffffffffffffffffffffffffffffff1682612b52565b965073ffffffffffffffffffffffffffffffffffffffff8716611ac6576040517fab58291600000000000000000000000000000000000000000000000000000000815260026004820152602401610813565b8673ffffffffffffffffffffffffffffffffffffffff16632caa9dec84604001518f8f8f8f8f8f6040518863ffffffff1660e01b8152600401611b0f979695949392919061361c565b5f604051808303815f87803b158015611b26575f80fd5b505af1158015611b38573d5f803e3d5ffd5b50505f6080860181815273ffffffffffffffffffffffffffffffffffffffff8b81168089528b821680855260cd60209081526040958690208b5181547fffffffffffffffffffffffff000000000000000000000000000000000000000016908616178155818c0151600180830191909155878d0151600283015560608d01516003830180547fffffffffffffffffffffffffffffffffffffffff000000000000000000000000166bffffffffffffffffffffffff909216919091179055955160049091015560ca805490950190945560c954855193168352928201529093507f3260bb218255e98a3f5731b9cd14cede49bbf1988ccd323b4a4912568739823192500160405180910390a25050505050509695505050505050565b611c5b612181565b73ffffffffffffffffffffffffffffffffffffffff8116611cfe576040517f08c379a000000000000000000000000000000000000000000000000000000000815260206004820152602660248201527f4f776e61626c653a206e6577206f776e657220697320746865207a65726f206160448201527f64647265737300000000000000000000000000000000000000000000000000006064820152608401610813565b610d848161260f565b73ffffffffffffffffffffffffffffffffffffffff8082165f90815260cb60209081526040918290208251606081018452815485168082526001830154938201849052600290920154909416928401929092523392918314611d98576040517ffa8af8fc00000000000000000000000000000000000000000000000000000000815260016004820152602401610813565b5f8111611dd4576040517ffa8af8fc00000000000000000000000000000000000000000000000000000000815260026004820152602401610813565b73ffffffffffffffffffffffffffffffffffffffff8481165f90815260cb602052604080822080547fffffffffffffffffffffffff000000000000000000000000000000000000000090811682556001820184905560029091018054909116905551909185169083908381818185875af1925050503d805f8114611e73576040519150601f19603f3d011682016040523d82523d5f602084013e611e78565b606091505b5050905080611eb6576040517ffa8af8fc00000000000000000000000000000000000000000000000000000000815260036004820152602401610813565b6040805173ffffffffffffffffffffffffffffffffffffffff8781168252602082018590528616917fc359f3a607928e86ec723fa39ad9790fcdf5b68416b174b0c7f9334cdda3b2f99101611058565b611f0e612181565b73ffffffffffffffffffffffffffffffffffffffff8516611f5b576040517f167bdd6700000000000000000000000000000000000000000000000000000000815260040160405180910390fd5b6040518060c001604052808673ffffffffffffffffffffffffffffffffffffffff168152602001856bffffffffffffffffffffffff168152602001846bffffffffffffffffffffffff1681526020015f8152602001836bffffffffffffffffffffffff1681526020018262015180611fd391906137fa565b611fe49064ffffffffff16426134da565b64ffffffffff90811690915273ffffffffffffffffffffffffffffffffffffffff8089165f90815260cc60209081526040918290208551918601516bffffffffffffffffffffffff908116740100000000000000000000000000000000000000000292909416919091178155848201516001820180549185167fffffffffffffffffffffffffffffffffffffffff00000000000000000000000090921691909117905560608501516002820155608085015160038201805460a0909701519095166c01000000000000000000000000027fffffffffffffffffffffffffffffff00000000000000000000000000000000009096169316929092179390931790915590517f9d8b47c55c1f7841b5a7f5d9c29a617d7be8dededefb384f93048d30f1e0342e916109d7915f60c082019050825473ffffffffffffffffffffffffffffffffffffffff811683528060a01c6020840152506bffffffffffffffffffffffff806001850154166040840152600284015460608401526003840154818116608085015264ffffffffff8160601c1660a0850152505092915050565b60335473ffffffffffffffffffffffffffffffffffffffff1633146114be576040517f08c379a000000000000000000000000000000000000000000000000000000000815260206004820181905260248201527f4f776e61626c653a2063616c6c6572206973206e6f7420746865206f776e65726044820152606401610813565b73ffffffffffffffffffffffffffffffffffffffff7f00000000000000000000000000000000000000000000000000000000000000001630036122c7576040517f08c379a000000000000000000000000000000000000000000000000000000000815260206004820152602c60248201527f46756e6374696f6e206d7573742062652063616c6c6564207468726f7567682060448201527f64656c656761746563616c6c00000000000000000000000000000000000000006064820152608401610813565b7f000000000000000000000000000000000000000000000000000000000000000073ffffffffffffffffffffffffffffffffffffffff1661233c7f360894a13ba1a3210667c828492db98dca3e2076cc3735a920a3ca505d382bbc5473ffffffffffffffffffffffffffffffffffffffff1690565b73ffffffffffffffffffffffffffffffffffffffff16146123df576040517f08c379a000000000000000000000000000000000000000000000000000000000815260206004820152602c60248201527f46756e6374696f6e206d7573742062652063616c6c6564207468726f7567682060448201527f6163746976652070726f787900000000000000000000000000000000000000006064820152608401610813565b6123e881612403565b604080515f80825260208201909252610d849183919061240b565b610d84612181565b7f4910fdfa16fed3260ed0e7147f7cc6da11a60208b5b9406d12a635614ffd91435460ff16156124435761243e83612c95565b505050565b8273ffffffffffffffffffffffffffffffffffffffff166352d1902d6040518163ffffffff1660e01b8152600401602060405180830381865afa9250505080156124c8575060408051601f3d9081017fffffffffffffffffffffffffffffffffffffffffffffffffffffffffffffffe01682019092526124c5918101906134ed565b60015b612554576040517f08c379a000000000000000000000000000000000000000000000000000000000815260206004820152602e60248201527f45524331393637557067726164653a206e657720696d706c656d656e7461746960448201527f6f6e206973206e6f7420555550530000000000000000000000000000000000006064820152608401610813565b7f360894a13ba1a3210667c828492db98dca3e2076cc3735a920a3ca505d382bbc8114612603576040517f08c379a000000000000000000000000000000000000000000000000000000000815260206004820152602960248201527f45524331393637557067726164653a20756e737570706f727465642070726f7860448201527f6961626c655555494400000000000000000000000000000000000000000000006064820152608401610813565b5061243e838383612d9f565b6033805473ffffffffffffffffffffffffffffffffffffffff8381167fffffffffffffffffffffffff0000000000000000000000000000000000000000831681179093556040519116919082907f8be0079c531659141344cd1fd0a4f28419497f9722a3daafe3b4186f6b6457e0905f90a35050565b5f54610100900460ff1661271b576040517f08c379a000000000000000000000000000000000000000000000000000000000815260206004820152602b60248201527f496e697469616c697a61626c653a20636f6e7472616374206973206e6f74206960448201527f6e697469616c697a696e670000000000000000000000000000000000000000006064820152608401610813565b6114be3361260f565b7fcf34ef537ac33ee1ac626ca1587a0a7e8e51561e5514f8cb36afa1c5102b3bab6040516127839060208082526018908201527f496e73696465205f6170706c79446973636f756e742e2e2e0000000000000000604082015260600190565b60405180910390a160408481015173ffffffffffffffffffffffffffffffffffffffff9081165f90815260cc6020908152838220845160c08101865281549485168152740100000000000000000000000000000000000000009094046bffffffffffffffffffffffff90811692850192909252600181015482169484019490945260028401546060840152600390930154928316608083018190526c0100000000000000000000000090930464ffffffffff1660a08301529091612848908490612dc9565b90505f6128558285613823565b90508080861015612895576040517fee3231cb000000000000000000000000000000000000000000000000000000008152600a6004820152602401610813565b5f6128a4838660400151612dc9565b90506128b08183613823565b6020808b0183815273ffffffffffffffffffffffffffffffffffffffff808c165f90815260cb9093526040928390208d5181549083167fffffffffffffffffffffffff00000000000000000000000000000000000000009182168117835593516001830155848f0151600290920180549290931691161790559051919350907f5638fe1d59cbaff19a53ea05820ebcfe8d70bd87ba73873ceeea44c2071497319061295e9084815260200190565b60405180910390a25f612975848760200151612dc9565b90506129818184613823565b925080866060015161299391906134da565b6060870190815260408b81015173ffffffffffffffffffffffffffffffffffffffff9081165f90815260cc6020908152908390208a51828c01519316740100000000000000000000000000000000000000006bffffffffffffffffffffffff9485160281178255848c01516001830180547fffffffffffffffffffffffffffffffffffffffff000000000000000000000000169186169190911790559451600282015560808b01516003909101805460a08d0151929094167fffffffffffffffffffffffffffffff0000000000000000000000000000000000909416939093176c0100000000000000000000000064ffffffffff909216919091021790915590518381527fffba746bd7819bccbdb2aa674c014ebacac05d280ba6f9f5912dadf6a9e3a22b910160405180910390a28382612ace83866134da565b612ad891906134da565b1015612b13576040517fee3231cb00000000000000000000000000000000000000000000000000000000815260026004820152602401610813565b6040518381527fe8c1273911aaa7065ddfd00c04f753b1d4f0dab8510c809fb72ea5242583e9f79060200160405180910390a150505050505050505050565b5f60608203516040830351602084035184518060208701018051600283016c5af43d3d93803e606057fd5bf3895289600d8a035278593da1005b363d3d373d3d3d3d610000806062363936013d738160481b1760218a03527f9e4ac34f21c619cefc926c8bd93b54bf5a39c7ab2127a895af1cc0691d7e3dff603a8a035272fd6100003d81600a3d39f336602c57343d527f6062820160781b1761ff9e82106059018a03528060f01b8352606c8101604c8a035ff097505086612c1c5763301164255f526004601cfd5b905285527fffffffffffffffffffffffffffffffffffffffffffffffffffffffffffffffe08501527fffffffffffffffffffffffffffffffffffffffffffffffffffffffffffffffc08401527fffffffffffffffffffffffffffffffffffffffffffffffffffffffffffffffa090920191909152919050565b73ffffffffffffffffffffffffffffffffffffffff81163b612d39576040517f08c379a000000000000000000000000000000000000000000000000000000000815260206004820152602d60248201527f455243313936373a206e657720696d706c656d656e746174696f6e206973206e60448201527f6f74206120636f6e7472616374000000000000000000000000000000000000006064820152608401610813565b7f360894a13ba1a3210667c828492db98dca3e2076cc3735a920a3ca505d382bbc80547fffffffffffffffffffffffff00000000000000000000000000000000000000001673ffffffffffffffffffffffffffffffffffffffff92909216919091179055565b612da883612dec565b5f82511180612db45750805b1561243e57612dc38383612e38565b50505050565b5f612de5836bffffffffffffffffffffffff8416612710612e5d565b9392505050565b612df581612c95565b60405173ffffffffffffffffffffffffffffffffffffffff8216907fbc7cd75a20ee27fd9adebab32041f755214dbc6bffa90cc0225b39da2e5c2d3b905f90a250565b6060612de583836040518060600160405280602781526020016138f160279139612f82565b5f80807fffffffffffffffffffffffffffffffffffffffffffffffffffffffffffffffff858709858702925082811083820303915050805f03612eb357838281612ea957612ea9613836565b0492505050612de5565b808411612f1c576040517f08c379a000000000000000000000000000000000000000000000000000000000815260206004820152601560248201527f4d6174683a206d756c446976206f766572666c6f7700000000000000000000006044820152606401610813565b5f84868809600260036001881981018916988990049182028318808302840302808302840302808302840302808302840302808302840302918202909203025f889003889004909101858311909403939093029303949094049190911702949350505050565b60605f808573ffffffffffffffffffffffffffffffffffffffff1685604051612fab9190613885565b5f60405180830381855af49150503d805f8114612fe3576040519150601f19603f3d011682016040523d82523d5f602084013e612fe8565b606091505b5091509150612ff986838387613003565b9695505050505050565b606083156130985782515f036130915773ffffffffffffffffffffffffffffffffffffffff85163b613091576040517f08c379a000000000000000000000000000000000000000000000000000000000815260206004820152601d60248201527f416464726573733a2063616c6c20746f206e6f6e2d636f6e74726163740000006044820152606401610813565b50816130a2565b6130a283836130aa565b949350505050565b8151156130ba5781518083602001fd5b806040517f08c379a000000000000000000000000000000000000000000000000000000000815260040161081391906138a0565b803573ffffffffffffffffffffffffffffffffffffffff81168114613111575f80fd5b919050565b5f60208284031215613126575f80fd5b612de5826130ee565b80356bffffffffffffffffffffffff81168114613111575f80fd5b5f805f805f8060c0878903121561315f575f80fd5b613168876130ee565b9550613176602088016130ee565b94506040870135935061318b6060880161312f565b92506131996080880161312f565b915060a087013590509295509295509295565b5f80604083850312156131bd575f80fd5b6131c6836130ee565b91506131d4602084016130ee565b90509250929050565b7f4e487b71000000000000000000000000000000000000000000000000000000005f52604160045260245ffd5b5f806040838503121561321b575f80fd5b613224836130ee565b9150602083013567ffffffffffffffff80821115613240575f80fd5b818501915085601f830112613253575f80fd5b813581811115613265576132656131dd565b604051601f82017fffffffffffffffffffffffffffffffffffffffffffffffffffffffffffffffe0908116603f011681019083821181831017156132ab576132ab6131dd565b816040528281528860208487010111156132c3575f80fd5b826020860160208301375f6020848301015280955050505050509250929050565b5f602082840312156132f4575f80fd5b5035919050565b5f8083601f84011261330b575f80fd5b50813567ffffffffffffffff811115613322575f80fd5b6020830191508360208260051b850101111561333c575f80fd5b9250929050565b5f805f805f808688036101e081121561335a575f80fd5b873567ffffffffffffffff80821115613371575f80fd5b9089019060e0828c031215613384575f80fd5b8198506101807fffffffffffffffffffffffffffffffffffffffffffffffffffffffffffffffe0840112156133b7575f80fd5b60208a0197506101a08a01359250808311156133d1575f80fd5b6133dd8b848c016132fb565b90975095506101c08a01359250869150808311156133f9575f80fd5b505061340789828a016132fb565b979a9699509497509295939492505050565b5f805f805f8060c0878903121561342e575f80fd5b613437876130ee565b9550613445602088016130ee565b94506134536040880161312f565b93506134616060880161312f565b925061346f6080880161312f565b915060a087013564ffffffffff81168114613488575f80fd5b809150509295509295509295565b7f4e487b71000000000000000000000000000000000000000000000000000000005f52601160045260245ffd5b80820281158282048414176114ec576114ec613496565b808201808211156114ec576114ec613496565b5f602082840312156134fd575f80fd5b5051919050565b5f60208284031215613514575f80fd5b81518015158114612de5575f80fd5b5f8083357fffffffffffffffffffffffffffffffffffffffffffffffffffffffffffffffe1843603018112613556575f80fd5b830160208101925035905067ffffffffffffffff811115613575575f80fd5b80360382131561333c575f80fd5b81835281816020850137505f602082840101525f60207fffffffffffffffffffffffffffffffffffffffffffffffffffffffffffffffe0601f840116840101905092915050565b8183525f60208085019450825f5b858110156136115773ffffffffffffffffffffffffffffffffffffffff6135fe836130ee565b16875295820195908201906001016135d8565b509495945050505050565b5f610200898352806020840152613633898a613523565b60e0838601526136486102e086018284613583565b9250505061365960208a018a613523565b7ffffffffffffffffffffffffffffffffffffffffffffffffffffffffffffffe008086850301610220870152613690848385613583565b935061369f60408d018d613523565b9350915080868503016102408701526136b9848484613583565b93506136c860608d018d613523565b935091508086850301610260870152506136e3838383613583565b9250505060808901356102808401526bffffffffffffffffffffffff61370b60a08b0161312f565b166102a084015261371e60c08a016130ee565b73ffffffffffffffffffffffffffffffffffffffff81166102c0850152506137c26040840189803582526020810135602083015260408101356040830152606081013560608301526080810135608083015260a081013560a083015260c081013560c083015260e081013560e08301526101008082013581840152506101208082013581840152506101408082013581840152506101608082013581840152505050565b8281036101c08401526137d68187896135ca565b90508281036101e08401526137ec8185876135ca565b9a9950505050505050505050565b64ffffffffff81811683821602808216919082811461381b5761381b613496565b505092915050565b818103818111156114ec576114ec613496565b7f4e487b71000000000000000000000000000000000000000000000000000000005f52601260045260245ffd5b5f5b8381101561387d578181015183820152602001613865565b50505f910152565b5f8251613896818460208701613863565b9190910192915050565b602081525f82518060208401526138be816040850160208701613863565b601f017fffffffffffffffffffffffffffffffffffffffffffffffffffffffffffffffe016919091016040019291505056fe416464726573733a206c6f772d6c6576656c2064656c65676174652063616c6c206661696c6564a2646970667358221220cb507afb3c0baf8b5db18143963c560e5e4ea9e03043c9d8b3e701bbe9a74bbe64736f6c63430008140033",
  "linkReferences": {},
  "deployedLinkReferences": {}
}