{
  "_format": "hh-sol-artifact-1",
  "contractName": "MvxFactory",
  "sourceName": "src/MvxFactory.sol",
  "abi": [
    {
      "inputs": [
        {
          "internalType": "uint96",
          "name": "_deployFee",
          "type": "uint96"
        }
      ],
      "stateMutability": "nonpayable",
      "type": "constructor"
    },
    {
      "inputs": [],
      "name": "CreateCloneError",
      "type": "error"
    },
    {
      "inputs": [
        {
          "internalType": "uint8",
          "name": "",
          "type": "uint8"
        }
      ],
      "name": "DiscountError",
      "type": "error"
    },
    {
      "inputs": [
        {
          "internalType": "uint8",
          "name": "",
          "type": "uint8"
        }
      ],
      "name": "InvalidColletion",
      "type": "error"
    },
    {
      "inputs": [
        {
          "internalType": "uint8",
          "name": "",
          "type": "uint8"
        }
      ],
      "name": "Unathorized",
      "type": "error"
    },
    {
      "inputs": [
        {
          "internalType": "uint8",
          "name": "",
          "type": "uint8"
        }
      ],
      "name": "WithdrawPartnerError",
      "type": "error"
    },
    {
      "inputs": [
        {
          "internalType": "uint8",
          "name": "",
          "type": "uint8"
        }
      ],
      "name": "WithdrawReferralError",
      "type": "error"
    },
    {
      "anonymous": false,
      "inputs": [
        {
          "indexed": true,
          "internalType": "address",
          "name": "_collection",
          "type": "address"
        },
        {
          "indexed": true,
          "internalType": "uint96",
          "name": "_discount",
          "type": "uint96"
        }
      ],
      "name": "CollectionDiscount",
      "type": "event"
    },
    {
      "anonymous": false,
      "inputs": [
        {
          "indexed": true,
          "internalType": "address",
          "name": "sender",
          "type": "address"
        },
        {
          "indexed": false,
          "internalType": "address",
          "name": "impl",
          "type": "address"
        },
        {
          "indexed": false,
          "internalType": "address",
          "name": "cloneAddress",
          "type": "address"
        }
      ],
      "name": "CreateCloneEvent",
      "type": "event"
    },
    {
      "anonymous": false,
      "inputs": [
        {
          "indexed": false,
          "internalType": "address",
          "name": "sender",
          "type": "address"
        },
        {
          "indexed": false,
          "internalType": "address",
          "name": "template",
          "type": "address"
        },
        {
          "indexed": false,
          "internalType": "address",
          "name": "clone",
          "type": "address"
        }
      ],
      "name": "CreateCollectionEvent",
      "type": "event"
    },
    {
      "anonymous": false,
      "inputs": [
        {
          "indexed": true,
          "internalType": "address",
          "name": "_artist",
          "type": "address"
        },
        {
          "indexed": true,
          "internalType": "address",
          "name": "_sender",
          "type": "address"
        },
        {
          "indexed": true,
          "internalType": "address",
          "name": "_collection",
          "type": "address"
        },
        {
          "indexed": false,
          "internalType": "uint96",
          "name": "_discount",
          "type": "uint96"
        }
      ],
      "name": "DiscountGranted",
      "type": "event"
    },
    {
      "anonymous": false,
      "inputs": [
        {
          "indexed": false,
          "internalType": "address",
          "name": "sender",
          "type": "address"
        },
        {
          "indexed": false,
          "internalType": "address",
          "name": "collection",
          "type": "address"
        }
      ],
      "name": "InitCollectionEvent",
      "type": "event"
    },
    {
      "anonymous": false,
      "inputs": [
        {
          "indexed": false,
          "internalType": "address",
          "name": "sender",
          "type": "address"
        }
      ],
      "name": "InitOwnerEvent",
      "type": "event"
    },
    {
      "anonymous": false,
      "inputs": [
        {
          "indexed": false,
          "internalType": "string",
          "name": "",
          "type": "string"
        },
        {
          "indexed": false,
          "internalType": "bytes4",
          "name": "",
          "type": "bytes4"
        }
      ],
      "name": "Log",
      "type": "event"
    },
    {
      "anonymous": false,
      "inputs": [
        {
          "indexed": false,
          "internalType": "string",
          "name": "",
          "type": "string"
        },
        {
          "indexed": false,
          "internalType": "uint256",
          "name": "",
          "type": "uint256"
        }
      ],
      "name": "Log",
      "type": "event"
    },
    {
      "anonymous": false,
      "inputs": [
        {
          "indexed": true,
          "internalType": "address",
          "name": "previousOwner",
          "type": "address"
        },
        {
          "indexed": true,
          "internalType": "address",
          "name": "newOwner",
          "type": "address"
        }
      ],
      "name": "OwnershipTransferred",
      "type": "event"
    },
    {
      "anonymous": false,
      "inputs": [
        {
          "indexed": true,
          "internalType": "address",
          "name": "_sender",
          "type": "address"
        },
        {
          "indexed": true,
          "internalType": "address",
          "name": "_collection",
          "type": "address"
        },
        {
          "indexed": false,
          "internalType": "uint256",
          "name": "_balance",
          "type": "uint256"
        }
      ],
      "name": "WithdrawPartner",
      "type": "event"
    },
    {
      "anonymous": false,
      "inputs": [
        {
          "indexed": true,
          "internalType": "address",
          "name": "_sender",
          "type": "address"
        },
        {
          "indexed": true,
          "internalType": "address",
          "name": "_artist",
          "type": "address"
        },
        {
          "indexed": false,
          "internalType": "uint256",
          "name": "_referralBalance",
          "type": "uint256"
        }
      ],
      "name": "WithdrawReferral",
      "type": "event"
    },
    {
      "stateMutability": "payable",
      "type": "fallback"
    },
    {
      "inputs": [
        {
          "internalType": "address",
          "name": "",
          "type": "address"
        }
      ],
      "name": "artists",
      "outputs": [
        {
          "internalType": "address",
          "name": "referral",
          "type": "address"
        },
        {
          "internalType": "uint256",
          "name": "referralBalance",
          "type": "uint256"
        },
        {
          "internalType": "address",
          "name": "collection",
          "type": "address"
        },
        {
          "internalType": "uint256",
          "name": "expiration",
          "type": "uint256"
        }
      ],
      "stateMutability": "view",
      "type": "function"
    },
    {
      "inputs": [],
      "name": "collectionCount",
      "outputs": [
        {
          "internalType": "uint16",
          "name": "",
          "type": "uint16"
        }
      ],
      "stateMutability": "view",
      "type": "function"
    },
    {
      "inputs": [],
      "name": "collectionImpl",
      "outputs": [
        {
          "internalType": "address",
          "name": "",
          "type": "address"
        }
      ],
      "stateMutability": "view",
      "type": "function"
    },
    {
      "inputs": [
        {
          "internalType": "address",
          "name": "",
          "type": "address"
        }
      ],
      "name": "collections",
      "outputs": [
        {
          "internalType": "address",
          "name": "",
          "type": "address"
        }
      ],
      "stateMutability": "view",
      "type": "function"
    },
    {
      "inputs": [
        {
          "components": [
            {
              "internalType": "string",
              "name": "name",
              "type": "string"
            },
            {
              "internalType": "string",
              "name": "symbol",
              "type": "string"
            },
            {
              "internalType": "string",
              "name": "baseURI",
              "type": "string"
            },
            {
              "internalType": "string",
              "name": "baseExt",
              "type": "string"
            },
            {
              "internalType": "uint256",
              "name": "maxSupply",
              "type": "uint256"
            },
            {
              "internalType": "uint96",
              "name": "royaltyFee",
              "type": "uint96"
            },
            {
              "internalType": "address",
              "name": "royaltyReceiver",
              "type": "address"
            }
          ],
          "internalType": "struct Collection",
          "name": "_nftsData",
          "type": "tuple"
        },
        {
          "components": [
            {
              "internalType": "uint256",
              "name": "ogMintPrice",
              "type": "uint256"
            },
            {
              "internalType": "uint256",
              "name": "whitelistMintPrice",
              "type": "uint256"
            },
            {
              "internalType": "uint256",
              "name": "mintPrice",
              "type": "uint256"
            },
            {
              "internalType": "uint256",
              "name": "mintMaxPerUser",
              "type": "uint256"
            },
            {
              "internalType": "uint256",
              "name": "ogMintMaxPerUser",
              "type": "uint256"
            },
            {
              "internalType": "uint256",
              "name": "whitelistMintMaxPerUser",
              "type": "uint256"
            },
            {
              "internalType": "uint256",
              "name": "mintStart",
              "type": "uint256"
            },
            {
              "internalType": "uint256",
              "name": "mintEnd",
              "type": "uint256"
            },
            {
              "internalType": "uint256",
              "name": "ogMintStart",
              "type": "uint256"
            },
            {
              "internalType": "uint256",
              "name": "ogMintEnd",
              "type": "uint256"
            },
            {
              "internalType": "uint256",
              "name": "whitelistMintStart",
              "type": "uint256"
            },
            {
              "internalType": "uint256",
              "name": "whitelistMintEnd",
              "type": "uint256"
            }
          ],
          "internalType": "struct Stages",
          "name": "_mintingStages",
          "type": "tuple"
        },
        {
          "internalType": "address[]",
          "name": "_ogs",
          "type": "address[]"
        },
        {
          "internalType": "address[]",
          "name": "_wls",
          "type": "address[]"
        }
      ],
      "name": "createCollection",
      "outputs": [
        {
          "internalType": "address",
          "name": "_clone",
          "type": "address"
        }
      ],
      "stateMutability": "payable",
      "type": "function"
    },
    {
      "inputs": [],
      "name": "deployFee",
      "outputs": [
        {
          "internalType": "uint96",
          "name": "",
          "type": "uint96"
        }
      ],
      "stateMutability": "view",
      "type": "function"
    },
    {
      "inputs": [
        {
          "internalType": "address",
          "name": "_collection",
          "type": "address"
        }
      ],
      "name": "getPartnerBalance",
      "outputs": [
        {
          "internalType": "uint256",
          "name": "_balance",
          "type": "uint256"
        }
      ],
      "stateMutability": "view",
      "type": "function"
    },
    {
      "inputs": [
        {
          "internalType": "address",
          "name": "_artist",
          "type": "address"
        }
      ],
      "name": "getReferralBalance",
      "outputs": [
        {
          "internalType": "uint256",
          "name": "_balance",
          "type": "uint256"
        }
      ],
      "stateMutability": "view",
      "type": "function"
    },
    {
      "inputs": [],
      "name": "getTime",
      "outputs": [
        {
          "internalType": "uint256",
          "name": "_time",
          "type": "uint256"
        }
      ],
      "stateMutability": "view",
      "type": "function"
    },
    {
      "inputs": [
        {
          "internalType": "uint256",
          "name": "_daysFromNow",
          "type": "uint256"
        }
      ],
      "name": "getTime",
      "outputs": [
        {
          "internalType": "uint256",
          "name": "_time",
          "type": "uint256"
        }
      ],
      "stateMutability": "view",
      "type": "function"
    },
    {
      "inputs": [
        {
          "internalType": "address",
          "name": "_extCollection",
          "type": "address"
        },
        {
          "internalType": "address",
          "name": "_artist",
          "type": "address"
        }
      ],
      "name": "grantReferral",
      "outputs": [],
      "stateMutability": "nonpayable",
      "type": "function"
    },
    {
      "inputs": [
        {
          "internalType": "address",
          "name": "",
          "type": "address"
        }
      ],
      "name": "members",
      "outputs": [
        {
          "internalType": "uint256",
          "name": "",
          "type": "uint256"
        }
      ],
      "stateMutability": "view",
      "type": "function"
    },
    {
      "inputs": [],
      "name": "owner",
      "outputs": [
        {
          "internalType": "address",
          "name": "",
          "type": "address"
        }
      ],
      "stateMutability": "view",
      "type": "function"
    },
    {
      "inputs": [
        {
          "internalType": "address",
          "name": "",
          "type": "address"
        }
      ],
      "name": "partners",
      "outputs": [
        {
          "internalType": "address",
          "name": "admin",
          "type": "address"
        },
        {
          "internalType": "uint96",
          "name": "adminOwnPercent",
          "type": "uint96"
        },
        {
          "internalType": "uint96",
          "name": "referralOwnPercent",
          "type": "uint96"
        },
        {
          "internalType": "uint256",
          "name": "balance",
          "type": "uint256"
        },
        {
          "internalType": "uint96",
          "name": "discount",
          "type": "uint96"
        }
      ],
      "stateMutability": "view",
      "type": "function"
    },
    {
      "inputs": [],
      "name": "platformFee",
      "outputs": [
        {
          "internalType": "uint96",
          "name": "",
          "type": "uint96"
        }
      ],
      "stateMutability": "view",
      "type": "function"
    },
    {
      "inputs": [],
      "name": "renounceOwnership",
      "outputs": [],
      "stateMutability": "nonpayable",
      "type": "function"
    },
    {
      "inputs": [
        {
          "internalType": "address",
          "name": "_impl",
          "type": "address"
        }
      ],
      "name": "setCollectionImpl",
      "outputs": [],
      "stateMutability": "payable",
      "type": "function"
    },
    {
      "inputs": [
        {
          "internalType": "address",
          "name": "_collection",
          "type": "address"
        },
        {
          "internalType": "address",
          "name": "_admin",
          "type": "address"
        },
        {
          "internalType": "uint96",
          "name": "_adminOwnPercent",
          "type": "uint96"
        },
        {
          "internalType": "uint96",
          "name": "_referralOwnPercent",
          "type": "uint96"
        },
        {
          "internalType": "uint96",
          "name": "_discountPercent",
          "type": "uint96"
        }
      ],
      "name": "setPartnership",
      "outputs": [],
      "stateMutability": "nonpayable",
      "type": "function"
    },
    {
      "inputs": [],
      "name": "totalCollections",
      "outputs": [
        {
          "internalType": "uint256",
          "name": "_total",
          "type": "uint256"
        }
      ],
      "stateMutability": "view",
      "type": "function"
    },
    {
      "inputs": [
        {
          "internalType": "address",
          "name": "newOwner",
          "type": "address"
        }
      ],
      "name": "transferOwnership",
      "outputs": [],
      "stateMutability": "nonpayable",
      "type": "function"
    },
    {
      "inputs": [
        {
          "internalType": "address",
          "name": "artist",
          "type": "address"
        }
      ],
      "name": "updateArtist",
      "outputs": [],
      "stateMutability": "nonpayable",
      "type": "function"
    },
    {
      "inputs": [
        {
          "internalType": "uint96",
          "name": "_newFee",
          "type": "uint96"
        }
      ],
      "name": "updateDeployFee",
      "outputs": [],
      "stateMutability": "payable",
      "type": "function"
    },
    {
      "inputs": [
        {
          "internalType": "address",
          "name": "_newMember",
          "type": "address"
        },
        {
          "internalType": "uint256",
          "name": "_expirationDays",
          "type": "uint256"
        }
      ],
      "name": "updateMember",
      "outputs": [],
      "stateMutability": "payable",
      "type": "function"
    },
    {
      "inputs": [
        {
          "internalType": "uint96",
          "name": "_fee",
          "type": "uint96"
        }
      ],
      "name": "updatePlatformFee",
      "outputs": [],
      "stateMutability": "payable",
      "type": "function"
    },
    {
      "inputs": [],
      "name": "withdraw",
      "outputs": [],
      "stateMutability": "payable",
      "type": "function"
    },
    {
      "inputs": [
        {
          "internalType": "address",
          "name": "_collection",
          "type": "address"
        }
      ],
      "name": "withdrawPartner",
      "outputs": [],
      "stateMutability": "nonpayable",
      "type": "function"
    },
    {
      "inputs": [
        {
          "internalType": "address",
          "name": "artist_",
          "type": "address"
        }
      ],
      "name": "withdrawReferral",
      "outputs": [],
      "stateMutability": "nonpayable",
      "type": "function"
    },
    {
      "stateMutability": "payable",
      "type": "receive"
    }
  ],
  "bytecode": "0x60806040523480156200001157600080fd5b5060405162002846380380620028468339810160408190526200003491620000bb565b6200003f336200006b565b600180546001600160601b03909216600160a01b026001600160a01b03909216919091179055620000ed565b600080546001600160a01b038381166001600160a01b0319831681178455604051919092169283917f8be0079c531659141344cd1fd0a4f28419497f9722a3daafe3b4186f6b6457e09190a35050565b600060208284031215620000ce57600080fd5b81516001600160601b0381168114620000e657600080fd5b9392505050565b61274980620000fd6000396000f3fe6080604052600436106101b05760003560e01c80635a9bb6fe116100ec578063b5b86a511161008a578063e636541b11610064578063e636541b146106e7578063eb2a5d2c146106fa578063f2fde38b14610737578063f705ca7514610757576101b7565b8063b5b86a5114610643578063bdf8dc6314610689578063d57f966b146106a9576101b7565b806373627826116100c6578063736278261461050f5780638da5cb5b1461052f57806395c336521461055a578063a760d1a914610630576101b7565b80635a9bb6fe146104be57806361d9db2d146104d1578063715018a6146104fa576101b7565b80633166ef01116101595780633ccfd60b116101335780633ccfd60b1461044057806343add2e6146104485780634a6798e81461048b578063557ed1ba146104ab576101b7565b80633166ef01146103c8578063317b8c5b1461041a578063336137c81461042d576101b7565b806326232a2e1161018a57806326232a2e146103445780632be7d54b146103865780632c482b20146103a8576101b7565b8063016fa0181461021e578063069dab8f1461027757806308ae4b0c14610317576101b7565b366101b757005b6040517f08c379a000000000000000000000000000000000000000000000000000000000815260206004820152600b60248201527f556e737570706f7274656400000000000000000000000000000000000000000060448201526064015b60405180910390fd5b34801561022a57600080fd5b50610264610239366004612101565b73ffffffffffffffffffffffffffffffffffffffff1660009081526004602052604090206002015490565b6040519081526020015b60405180910390f35b34801561028357600080fd5b506102d5610292366004612101565b6003602081905260009182526040909120805460018201546002830154929093015473ffffffffffffffffffffffffffffffffffffffff91821693929091169084565b60405161026e949392919073ffffffffffffffffffffffffffffffffffffffff9485168152602081019390935292166040820152606081019190915260800190565b34801561032357600080fd5b50610264610332366004612101565b60066020526000908152604090205481565b34801561035057600080fd5b50600254610369906bffffffffffffffffffffffff1681565b6040516bffffffffffffffffffffffff909116815260200161026e565b34801561039257600080fd5b506103a66103a136600461211c565b610777565b005b3480156103b457600080fd5b506103a66103c3366004612101565b610a0b565b3480156103d457600080fd5b506001546103f59073ffffffffffffffffffffffffffffffffffffffff1681565b60405173ffffffffffffffffffffffffffffffffffffffff909116815260200161026e565b6103a661042836600461216b565b610a77565b6103a661043b366004612186565b610a82565b6103a6610b4c565b34801561045457600080fd5b506103f5610463366004612101565b60056020526000908152604090205473ffffffffffffffffffffffffffffffffffffffff1681565b34801561049757600080fd5b506103a66104a6366004612101565b610c1e565b3480156104b757600080fd5b5042610264565b6103a66104cc36600461216b565b610ec7565b3480156104dd57600080fd5b506002546c01000000000000000000000000900461ffff16610264565b34801561050657600080fd5b506103a6610f92565b34801561051b57600080fd5b5061026461052a3660046121b0565b610fa6565b34801561053b57600080fd5b5060005473ffffffffffffffffffffffffffffffffffffffff166103f5565b34801561056657600080fd5b506105e0610575366004612101565b600460205260009081526040902080546001820154600283015460039093015473ffffffffffffffffffffffffffffffffffffffff8316936bffffffffffffffffffffffff740100000000000000000000000000000000000000009094048416939283169290911685565b6040805173ffffffffffffffffffffffffffffffffffffffff90961686526bffffffffffffffffffffffff948516602087015292841692850192909252606084015216608082015260a00161026e565b6103a661063e366004612101565b610fd9565b34801561064f57600080fd5b5061026461065e366004612101565b73ffffffffffffffffffffffffffffffffffffffff1660009081526003602052604090206001015490565b34801561069557600080fd5b506103a66106a43660046121c9565b611111565b3480156106b557600080fd5b506002546106d4906c01000000000000000000000000900461ffff1681565b60405161ffff909116815260200161026e565b6103f56106f536600461227a565b6111f5565b34801561070657600080fd5b50600154610369907401000000000000000000000000000000000000000090046bffffffffffffffffffffffff1681565b34801561074357600080fd5b506103a6610752366004612101565b6115d3565b34801561076357600080fd5b506103a6610772366004612101565b611687565b6040517f70a0823100000000000000000000000000000000000000000000000000000000815233600482018190529060009073ffffffffffffffffffffffffffffffffffffffff8516906370a08231906024016020604051808303816000875af11580156107e9573d6000803e3d6000fd5b505050506040513d601f19601f8201168201806040525081019061080d9190612359565b11610847576040517fee3231cb00000000000000000000000000000000000000000000000000000000815260016004820152602401610215565b73ffffffffffffffffffffffffffffffffffffffff83166000908152600460205260409020600301546bffffffffffffffffffffffff16806108b8576040517fee3231cb00000000000000000000000000000000000000000000000000000000815260026004820152602401610215565b73ffffffffffffffffffffffffffffffffffffffff838116600090815260036020526040902054161561091a576040517fee3231cb00000000000000000000000000000000000000000000000000000000815260036004820152602401610215565b6040805160808101825273ffffffffffffffffffffffffffffffffffffffff848116808352600060208085018281528a8516868801818152620d2f00606089018181528d89168088526003808852978c90209a518b54908b167fffffffffffffffffffffffff0000000000000000000000000000000000000000918216178c55955160018c0155925160028b01805491909a169516949094179097559151969093019590955594516bffffffffffffffffffffffff871681529294909391927f41c445dea480f244198164c479f8efc281f2060a7eaea4e4071509a89cdd16f0910160405180910390a45050505050565b610a13611935565b73ffffffffffffffffffffffffffffffffffffffff166000908152600360208190526040822080547fffffffffffffffffffffffff000000000000000000000000000000000000000090811682556001820184905560028201805490911690550155565b610a7f611935565b50565b610a8a611935565b6000610a9782603c6123a1565b610aa290603c6123a1565b610aad9060186123a1565b610ab790426123b8565b9050804210610b22576040517f08c379a000000000000000000000000000000000000000000000000000000000815260206004820152601360248201527f496e76616c69642076616c696420756e74696c000000000000000000000000006044820152606401610215565b5073ffffffffffffffffffffffffffffffffffffffff909116600090815260066020526040902055565b610b54611935565b6000805460405173ffffffffffffffffffffffffffffffffffffffff9091169047908381818185875af1925050503d8060008114610bae576040519150601f19603f3d011682016040523d82523d6000602084013e610bb3565b606091505b5050905080610a7f576040517f08c379a000000000000000000000000000000000000000000000000000000000815260206004820152600d60248201527f7769746864726177204661696c000000000000000000000000000000000000006044820152606401610215565b73ffffffffffffffffffffffffffffffffffffffff808216600090815260046020908152604091829020825160a08101845281549485168082526bffffffffffffffffffffffff7401000000000000000000000000000000000000000090960486169382019390935260018201548516938101939093526002810154606084018190526003909101549093166080830152339290839003610d1d576040517f08c379a00000000000000000000000000000000000000000000000000000000081526004016102159060208082526004908201527f57503a3100000000000000000000000000000000000000000000000000000000604082015260600190565b60008111610d89576040517f08c379a00000000000000000000000000000000000000000000000000000000081526004016102159060208082526004908201527f57503a3200000000000000000000000000000000000000000000000000000000604082015260600190565b60006060830181905260405173ffffffffffffffffffffffffffffffffffffffff85169083908381818185875af1925050503d8060008114610de7576040519150601f19603f3d011682016040523d82523d6000602084013e610dec565b606091505b5050905080610e59576040517f08c379a00000000000000000000000000000000000000000000000000000000081526004016102159060208082526004908201527f57503a3100000000000000000000000000000000000000000000000000000000604082015260600190565b8473ffffffffffffffffffffffffffffffffffffffff168473ffffffffffffffffffffffffffffffffffffffff167f3cebcff4b474dd1638e05b88c97b76249ed7a5b06775d18fa6f9f978ced7eccf84604051610eb891815260200190565b60405180910390a35050505050565b610ecf611935565b6000816bffffffffffffffffffffffff1611610f47576040517f08c379a000000000000000000000000000000000000000000000000000000000815260206004820152600b60248201527f496e76616c6964204665650000000000000000000000000000000000000000006044820152606401610215565b600180546bffffffffffffffffffffffff909216740100000000000000000000000000000000000000000273ffffffffffffffffffffffffffffffffffffffff909216919091179055565b610f9a611935565b610fa460006119d2565b565b6000610fb382603c6123a1565b610fbe90603c6123a1565b610fc99060186123a1565b610fd390426123b8565b92915050565b610fe1611935565b6040517f01ffc9a70000000000000000000000000000000000000000000000000000000081527fc21b8f2800000000000000000000000000000000000000000000000000000000600482015273ffffffffffffffffffffffffffffffffffffffff8216906301ffc9a7906024016020604051808303816000875af115801561106d573d6000803e3d6000fd5b505050506040513d601f19601f8201168201806040525081019061109191906123cb565b6110ca576040517f04cb937900000000000000000000000000000000000000000000000000000000815260026004820152602401610215565b600180547fffffffffffffffffffffffff00000000000000000000000000000000000000001673ffffffffffffffffffffffffffffffffffffffff92909216919091179055565b611119611935565b6040805160a08101825273ffffffffffffffffffffffffffffffffffffffff95861681526bffffffffffffffffffffffff948516602080830191825294861682840190815260006060840181815295881660808501908152998916815260049096529290942090519351851674010000000000000000000000000000000000000000029390951692909217845590516001840180549184167fffffffffffffffffffffffffffffffffffffffff000000000000000000000000928316179055905160028401559251600390920180549290911691909216179055565b6000805473ffffffffffffffffffffffffffffffffffffffff1633148061122a57503360009081526006602052604090205442105b611290576040517f08c379a000000000000000000000000000000000000000000000000000000000815260206004820152600b60248201527f556e6174686f72697a65640000000000000000000000000000000000000000006044820152606401610215565b336000818152600360208181526040928390208351608081018552815473ffffffffffffffffffffffffffffffffffffffff90811682526001830154938201939093526002820154909216938201939093529101546060820181905234919042101561130757611301818484611a47565b5061139b565b6001547401000000000000000000000000000000000000000090046bffffffffffffffffffffffff1682101561139b576040517f08c379a00000000000000000000000000000000000000000000000000000000081526004016102159060208082526004908201527f43433a3400000000000000000000000000000000000000000000000000000000604082015260600190565b60408051606085901b7fffffffffffffffffffffffffffffffffffffffff0000000000000000000000001660208201528151601481830301815260349091019091526001546114009073ffffffffffffffffffffffffffffffffffffffff1682611e50565b945073ffffffffffffffffffffffffffffffffffffffff851661144f576040517f7b00e2d600000000000000000000000000000000000000000000000000000000815260040160405180910390fd5b6040517f3693a35800000000000000000000000000000000000000000000000000000000815273ffffffffffffffffffffffffffffffffffffffff861690633693a358906114ae906000908f908f908f908f908f908f906004016124ee565b600060405180830381600087803b1580156114c857600080fd5b505af11580156114dc573d6000803e3d6000fd5b5050505073ffffffffffffffffffffffffffffffffffffffff84811660008181526005602090815260409182902080547fffffffffffffffffffffffff0000000000000000000000000000000000000000168a8616908117909155600280547fffffffffffffffffffffffffffffffffffff0000ffffffffffffffffffffffff81166c010000000000000000000000009182900461ffff908116600190810190911690920217909155548351948552909416908301528101919091527f3139cdb0cb014c974ebe32298933f6d15740acf85d0c96c06622349626c081a19060600160405180910390a1505050509695505050505050565b6115db611935565b73ffffffffffffffffffffffffffffffffffffffff811661167e576040517f08c379a000000000000000000000000000000000000000000000000000000000815260206004820152602660248201527f4f776e61626c653a206e6577206f776e657220697320746865207a65726f206160448201527f64647265737300000000000000000000000000000000000000000000000000006064820152608401610215565b610a7f816119d2565b73ffffffffffffffffffffffffffffffffffffffff80821660009081526003602081815260409283902083516080810185528154861680825260018301549382018490526002830154909616948101949094529091015460608301523392831461174f576040517f08c379a00000000000000000000000000000000000000000000000000000000081526004016102159060208082526004908201527f57523a3100000000000000000000000000000000000000000000000000000000604082015260600190565b600081116117bb576040517f08c379a00000000000000000000000000000000000000000000000000000000081526004016102159060208082526004908201527f57523a3200000000000000000000000000000000000000000000000000000000604082015260600190565b73ffffffffffffffffffffffffffffffffffffffff848116600090815260036020819052604080832080547fffffffffffffffffffffffff0000000000000000000000000000000000000000908116825560018201859055600282018054909116905590910182905551909185169083908381818185875af1925050503d8060008114611864576040519150601f19603f3d011682016040523d82523d6000602084013e611869565b606091505b50509050806118d6576040517f08c379a00000000000000000000000000000000000000000000000000000000081526004016102159060208082526004908201527f57523a3300000000000000000000000000000000000000000000000000000000604082015260600190565b8473ffffffffffffffffffffffffffffffffffffffff168473ffffffffffffffffffffffffffffffffffffffff167fc359f3a607928e86ec723fa39ad9790fcdf5b68416b174b0c7f9334cdda3b2f984604051610eb891815260200190565b3361195560005473ffffffffffffffffffffffffffffffffffffffff1690565b73ffffffffffffffffffffffffffffffffffffffff1614610fa4576040517f08c379a000000000000000000000000000000000000000000000000000000000815260206004820181905260248201527f4f776e61626c653a2063616c6c6572206973206e6f7420746865206f776e65726044820152606401610215565b6000805473ffffffffffffffffffffffffffffffffffffffff8381167fffffffffffffffffffffffff0000000000000000000000000000000000000000831681178455604051919092169283917f8be0079c531659141344cd1fd0a4f28419497f9722a3daafe3b4186f6b6457e09190a35050565b60408084015173ffffffffffffffffffffffffffffffffffffffff908116600090815260046020908152838220845160a081018652815494851681526bffffffffffffffffffffffff7401000000000000000000000000000000000000000095869004811693820193909352600180830154841696820196909652600282015460608201526003909101548216608082018190529454929490938593611af1939190041690611f96565b600154909150611b289082907401000000000000000000000000000000000000000090046bffffffffffffffffffffffff166126d1565b841015611b93576040517f08c379a00000000000000000000000000000000000000000000000000000000081526004016102159060208082526004908201527f43433a3100000000000000000000000000000000000000000000000000000000604082015260600190565b6000611bcb600160149054906101000a90046bffffffffffffffffffffffff166bffffffffffffffffffffffff168460400151611f96565b9050611bd781866126d1565b945080876020018181525050600087606001818152505086600360008873ffffffffffffffffffffffffffffffffffffffff1673ffffffffffffffffffffffffffffffffffffffff16815260200190815260200160002060008201518160000160006101000a81548173ffffffffffffffffffffffffffffffffffffffff021916908373ffffffffffffffffffffffffffffffffffffffff1602179055506020820151816001015560408201518160020160006101000a81548173ffffffffffffffffffffffffffffffffffffffff021916908373ffffffffffffffffffffffffffffffffffffffff160217905550606082015181600301559050506000611d0b600160149054906101000a90046bffffffffffffffffffffffff166bffffffffffffffffffffffff168560200151611f96565b9050808611611d78576040517f08c379a00000000000000000000000000000000000000000000000000000000081526004016102159060208082526004908201527f43433a3200000000000000000000000000000000000000000000000000000000604082015260600190565b611d8281876126d1565b6060850191825260408981015173ffffffffffffffffffffffffffffffffffffffff9081166000908152600460209081529083902088519189015191909216740100000000000000000000000000000000000000006bffffffffffffffffffffffff9283160217825591870151600180830180547fffffffffffffffffffffffffffffffffffffffff000000000000000000000000908116938616939093179055945160028301556080909701516003909101805490971691161790945592945091925050505b9392505050565b600060608203516040830351602084035184518060208701018051600283016c5af43d3d93803e606057fd5bf3895289600d8a035278593da1005b363d3d373d3d3d3d610000806062363936013d738160481b1760218a03527f9e4ac34f21c619cefc926c8bd93b54bf5a39c7ab2127a895af1cc0691d7e3dff603a8a035272fd6100003d81600a3d39f336602c57343d527f6062820160781b1761ff9e82106059018a03528060f01b8352606c8101604c8a036000f097505086611f1d5763301164256000526004601cfd5b905285527fffffffffffffffffffffffffffffffffffffffffffffffffffffffffffffffe08501527fffffffffffffffffffffffffffffffffffffffffffffffffffffffffffffffc08401527fffffffffffffffffffffffffffffffffffffffffffffffffffffffffffffffa090920191909152919050565b6000611e49836bffffffffffffffffffffffff8416612710600080807fffffffffffffffffffffffffffffffffffffffffffffffffffffffffffffffff8587098587029250828110838203039150508060000361200657838281611ffc57611ffc6126e4565b0492505050611e49565b80841161206f576040517f08c379a000000000000000000000000000000000000000000000000000000000815260206004820152601560248201527f4d6174683a206d756c446976206f766572666c6f7700000000000000000000006044820152606401610215565b60008486880960026001871981018816978890046003810283188082028403028082028403028082028403028082028403028082028403029081029092039091026000889003889004909101858311909403939093029303949094049190911702949350505050565b803573ffffffffffffffffffffffffffffffffffffffff811681146120fc57600080fd5b919050565b60006020828403121561211357600080fd5b611e49826120d8565b6000806040838503121561212f57600080fd5b612138836120d8565b9150612146602084016120d8565b90509250929050565b80356bffffffffffffffffffffffff811681146120fc57600080fd5b60006020828403121561217d57600080fd5b611e498261214f565b6000806040838503121561219957600080fd5b6121a2836120d8565b946020939093013593505050565b6000602082840312156121c257600080fd5b5035919050565b600080600080600060a086880312156121e157600080fd5b6121ea866120d8565b94506121f8602087016120d8565b93506122066040870161214f565b92506122146060870161214f565b91506122226080870161214f565b90509295509295909350565b60008083601f84011261224057600080fd5b50813567ffffffffffffffff81111561225857600080fd5b6020830191508360208260051b850101111561227357600080fd5b9250929050565b6000806000806000808688036101e081121561229557600080fd5b873567ffffffffffffffff808211156122ad57600080fd5b9089019060e0828c0312156122c157600080fd5b8198506101807fffffffffffffffffffffffffffffffffffffffffffffffffffffffffffffffe0840112156122f557600080fd5b60208a0197506101a08a013592508083111561231057600080fd5b61231c8b848c0161222e565b90975095506101c08a013592508691508083111561233957600080fd5b505061234789828a0161222e565b979a9699509497509295939492505050565b60006020828403121561236b57600080fd5b5051919050565b7f4e487b7100000000000000000000000000000000000000000000000000000000600052601160045260246000fd5b8082028115828204841417610fd357610fd3612372565b80820180821115610fd357610fd3612372565b6000602082840312156123dd57600080fd5b81518015158114611e4957600080fd5b60008083357fffffffffffffffffffffffffffffffffffffffffffffffffffffffffffffffe184360301811261242257600080fd5b830160208101925035905067ffffffffffffffff81111561244257600080fd5b80360382131561227357600080fd5b8183528181602085013750600060208284010152600060207fffffffffffffffffffffffffffffffffffffffffffffffffffffffffffffffe0601f840116840101905092915050565b8183526000602080850194508260005b858110156124e35773ffffffffffffffffffffffffffffffffffffffff6124d0836120d8565b16875295820195908201906001016124aa565b509495945050505050565b60006102006bffffffffffffffffffffffff808b1684528160208501526125158a8b6123ed565b60e08487015261252a6102e087018284612451565b9350505061253b60208b018b6123ed565b7ffffffffffffffffffffffffffffffffffffffffffffffffffffffffffffffe008087860301610220880152612572858385612451565b945061258160408e018e6123ed565b93509150808786030161024088015261259b858484612451565b94506125aa60608e018e6123ed565b935091508087860301610260880152506125c5848383612451565b9350505060808a0135610280850152806125e160a08c0161214f565b166102a0850152506125f560c08a016120d8565b73ffffffffffffffffffffffffffffffffffffffff81166102c0850152506126996040840189803582526020810135602083015260408101356040830152606081013560608301526080810135608083015260a081013560a083015260c081013560c083015260e081013560e08301526101008082013581840152506101208082013581840152506101408082013581840152506101608082013581840152505050565b8281036101c08401526126ad81878961249a565b90508281036101e08401526126c381858761249a565b9a9950505050505050505050565b81810381811115610fd357610fd3612372565b7f4e487b7100000000000000000000000000000000000000000000000000000000600052601260045260246000fdfea26469706673582212205c8c1e168425f509f4e8b2564bfd64d95d029bf439d8f17a865ea2cff34ef38264736f6c63430008140033",
  "linkReferences": {},
  "deployedLinkReferences": {}
}