{
  "_format": "hh-sol-artifact-1",
  "contractName": "MvxFactory",
  "sourceName": "src/MvxFactory.sol",
  "abi": [
    {
      "inputs": [],
      "name": "AdminWithdrawError",
      "type": "error"
    },
    {
      "inputs": [
        {
          "internalType": "uint8",
          "name": "",
          "type": "uint8"
        }
      ],
      "name": "CreateError",
      "type": "error"
    },
    {
      "inputs": [
        {
          "internalType": "uint8",
          "name": "",
          "type": "uint8"
        }
      ],
      "name": "DiscountError",
      "type": "error"
    },
    {
      "inputs": [
        {
          "internalType": "uint8",
          "name": "",
          "type": "uint8"
        }
      ],
      "name": "GrantReferralError",
      "type": "error"
    },
    {
      "inputs": [],
      "name": "InvalidColletion",
      "type": "error"
    },
    {
      "inputs": [],
      "name": "Unathorized",
      "type": "error"
    },
    {
      "inputs": [
        {
          "internalType": "uint8",
          "name": "",
          "type": "uint8"
        }
      ],
      "name": "UpdateMemberError",
      "type": "error"
    },
    {
      "inputs": [],
      "name": "UpdatePartnerError",
      "type": "error"
    },
    {
      "inputs": [
        {
          "internalType": "uint8",
          "name": "",
          "type": "uint8"
        }
      ],
      "name": "WithdrawPartnerError",
      "type": "error"
    },
    {
      "inputs": [
        {
          "internalType": "uint8",
          "name": "",
          "type": "uint8"
        }
      ],
      "name": "WithdrawReferralError",
      "type": "error"
    },
    {
      "anonymous": false,
      "inputs": [
        {
          "indexed": false,
          "internalType": "address",
          "name": "previousAdmin",
          "type": "address"
        },
        {
          "indexed": false,
          "internalType": "address",
          "name": "newAdmin",
          "type": "address"
        }
      ],
      "name": "AdminChanged",
      "type": "event"
    },
    {
      "anonymous": false,
      "inputs": [
        {
          "indexed": true,
          "internalType": "address",
          "name": "_sender",
          "type": "address"
        },
        {
          "indexed": false,
          "internalType": "uint256",
          "name": "_deployFee",
          "type": "uint256"
        },
        {
          "indexed": false,
          "internalType": "uint256",
          "name": "_discountAmt",
          "type": "uint256"
        }
      ],
      "name": "ArtistDiscount",
      "type": "event"
    },
    {
      "anonymous": false,
      "inputs": [
        {
          "indexed": true,
          "internalType": "address",
          "name": "beacon",
          "type": "address"
        }
      ],
      "name": "BeaconUpgraded",
      "type": "event"
    },
    {
      "anonymous": false,
      "inputs": [
        {
          "indexed": true,
          "internalType": "address",
          "name": "_sender",
          "type": "address"
        },
        {
          "indexed": false,
          "internalType": "address",
          "name": "_impl",
          "type": "address"
        },
        {
          "indexed": false,
          "internalType": "address",
          "name": "_cloneAddress",
          "type": "address"
        }
      ],
      "name": "CreateEvent",
      "type": "event"
    },
    {
      "anonymous": false,
      "inputs": [
        {
          "indexed": false,
          "internalType": "uint256",
          "name": "",
          "type": "uint256"
        }
      ],
      "name": "FactoryBalanceUpdate",
      "type": "event"
    },
    {
      "anonymous": false,
      "inputs": [
        {
          "indexed": true,
          "internalType": "address",
          "name": "_artist",
          "type": "address"
        },
        {
          "indexed": true,
          "internalType": "address",
          "name": "_sender",
          "type": "address"
        },
        {
          "indexed": false,
          "internalType": "address",
          "name": "_collection",
          "type": "address"
        }
      ],
      "name": "GrantReferralDiscount",
      "type": "event"
    },
    {
      "anonymous": false,
      "inputs": [
        {
          "indexed": false,
          "internalType": "uint8",
          "name": "version",
          "type": "uint8"
        }
      ],
      "name": "Initialized",
      "type": "event"
    },
    {
      "anonymous": false,
      "inputs": [
        {
          "indexed": true,
          "internalType": "address",
          "name": "_sender",
          "type": "address"
        },
        {
          "indexed": false,
          "internalType": "uint256",
          "name": "_deployFee",
          "type": "uint256"
        },
        {
          "indexed": false,
          "internalType": "uint256",
          "name": "_discountAmt",
          "type": "uint256"
        }
      ],
      "name": "MemberDiscount",
      "type": "event"
    },
    {
      "anonymous": false,
      "inputs": [
        {
          "indexed": true,
          "internalType": "address",
          "name": "previousOwner",
          "type": "address"
        },
        {
          "indexed": true,
          "internalType": "address",
          "name": "newOwner",
          "type": "address"
        }
      ],
      "name": "OwnershipTransferred",
      "type": "event"
    },
    {
      "anonymous": false,
      "inputs": [
        {
          "indexed": true,
          "internalType": "address",
          "name": "_partner",
          "type": "address"
        },
        {
          "indexed": true,
          "internalType": "uint256",
          "name": "_balance",
          "type": "uint256"
        }
      ],
      "name": "PartnerBalanceUpdate",
      "type": "event"
    },
    {
      "anonymous": false,
      "inputs": [
        {
          "indexed": true,
          "internalType": "address",
          "name": "_referral",
          "type": "address"
        },
        {
          "indexed": true,
          "internalType": "uint256",
          "name": "_amount",
          "type": "uint256"
        }
      ],
      "name": "ReferralBalanceUpdate",
      "type": "event"
    },
    {
      "anonymous": false,
      "inputs": [
        {
          "indexed": true,
          "internalType": "address",
          "name": "_newImpl",
          "type": "address"
        }
      ],
      "name": "UpdateCollectionImpl",
      "type": "event"
    },
    {
      "anonymous": false,
      "inputs": [
        {
          "indexed": true,
          "internalType": "address",
          "name": "_member",
          "type": "address"
        },
        {
          "indexed": true,
          "internalType": "address",
          "name": "_collection",
          "type": "address"
        },
        {
          "indexed": false,
          "internalType": "uint16",
          "name": "_expirationDays",
          "type": "uint16"
        }
      ],
      "name": "UpdateMemberEvent",
      "type": "event"
    },
    {
      "anonymous": false,
      "inputs": [
        {
          "indexed": true,
          "internalType": "address",
          "name": "_admin",
          "type": "address"
        },
        {
          "indexed": true,
          "internalType": "address",
          "name": "_collection",
          "type": "address"
        },
        {
          "indexed": false,
          "internalType": "uint16",
          "name": "_expirationDays",
          "type": "uint16"
        }
      ],
      "name": "UpdatePartnerEvent",
      "type": "event"
    },
    {
      "anonymous": false,
      "inputs": [
        {
          "indexed": false,
          "internalType": "uint8",
          "name": "_publicStageWeeks",
          "type": "uint8"
        },
        {
          "indexed": false,
          "internalType": "uint40",
          "name": "_stageTimeCapInDays",
          "type": "uint40"
        },
        {
          "indexed": false,
          "internalType": "uint72",
          "name": "_updateStageFee",
          "type": "uint72"
        }
      ],
      "name": "UpdateStageConfigEvent",
      "type": "event"
    },
    {
      "anonymous": false,
      "inputs": [
        {
          "indexed": true,
          "internalType": "address",
          "name": "implementation",
          "type": "address"
        }
      ],
      "name": "Upgraded",
      "type": "event"
    },
    {
      "anonymous": false,
      "inputs": [
        {
          "indexed": false,
          "internalType": "uint256",
          "name": "amount",
          "type": "uint256"
        }
      ],
      "name": "WithdrawAdmin",
      "type": "event"
    },
    {
      "anonymous": false,
      "inputs": [
        {
          "indexed": true,
          "internalType": "address",
          "name": "_sender",
          "type": "address"
        },
        {
          "indexed": true,
          "internalType": "address",
          "name": "_collection",
          "type": "address"
        },
        {
          "indexed": true,
          "internalType": "uint256",
          "name": "_balance",
          "type": "uint256"
        }
      ],
      "name": "WithdrawPartner",
      "type": "event"
    },
    {
      "anonymous": false,
      "inputs": [
        {
          "indexed": true,
          "internalType": "address",
          "name": "_sender",
          "type": "address"
        },
        {
          "indexed": true,
          "internalType": "uint256",
          "name": "_referralBalance",
          "type": "uint256"
        }
      ],
      "name": "WithdrawReferral",
      "type": "event"
    },
    {
      "stateMutability": "payable",
      "type": "fallback"
    },
    {
      "inputs": [
        {
          "internalType": "address",
          "name": "",
          "type": "address"
        }
      ],
      "name": "artists",
      "outputs": [
        {
          "internalType": "address",
          "name": "referral",
          "type": "address"
        },
        {
          "internalType": "address",
          "name": "collection",
          "type": "address"
        }
      ],
      "stateMutability": "view",
      "type": "function"
    },
    {
      "inputs": [],
      "name": "collectionCount",
      "outputs": [
        {
          "internalType": "uint256",
          "name": "",
          "type": "uint256"
        }
      ],
      "stateMutability": "view",
      "type": "function"
    },
    {
      "inputs": [],
      "name": "collectionImpl",
      "outputs": [
        {
          "internalType": "address",
          "name": "",
          "type": "address"
        }
      ],
      "stateMutability": "view",
      "type": "function"
    },
    {
      "inputs": [
        {
          "components": [
            {
              "internalType": "string",
              "name": "name",
              "type": "string"
            },
            {
              "internalType": "string",
              "name": "symbol",
              "type": "string"
            },
            {
              "internalType": "string",
              "name": "baseURI",
              "type": "string"
            },
            {
              "internalType": "string",
              "name": "baseExt",
              "type": "string"
            },
            {
              "internalType": "address",
              "name": "royaltyReceiver",
              "type": "address"
            },
            {
              "internalType": "uint128",
              "name": "maxSupply",
              "type": "uint128"
            },
            {
              "internalType": "uint128",
              "name": "royaltyFee",
              "type": "uint128"
            }
          ],
          "internalType": "struct Collection",
          "name": "_nftsData",
          "type": "tuple"
        },
        {
          "components": [
            {
              "internalType": "bool",
              "name": "isMaxSupplyUpdatable",
              "type": "bool"
            },
            {
              "internalType": "uint72",
              "name": "ogMintPrice",
              "type": "uint72"
            },
            {
              "internalType": "uint72",
              "name": "whitelistMintPrice",
              "type": "uint72"
            },
            {
              "internalType": "uint72",
              "name": "mintPrice",
              "type": "uint72"
            },
            {
              "internalType": "uint16",
              "name": "mintMaxPerUser",
              "type": "uint16"
            },
            {
              "internalType": "uint16",
              "name": "ogMintMaxPerUser",
              "type": "uint16"
            },
            {
              "internalType": "uint40",
              "name": "mintStart",
              "type": "uint40"
            },
            {
              "internalType": "uint40",
              "name": "mintEnd",
              "type": "uint40"
            },
            {
              "internalType": "uint40",
              "name": "ogMintStart",
              "type": "uint40"
            },
            {
              "internalType": "uint40",
              "name": "ogMintEnd",
              "type": "uint40"
            },
            {
              "internalType": "uint40",
              "name": "whitelistMintStart",
              "type": "uint40"
            },
            {
              "internalType": "uint40",
              "name": "whitelistMintEnd",
              "type": "uint40"
            },
            {
              "internalType": "uint16",
              "name": "whitelistMintMaxPerUser",
              "type": "uint16"
            }
          ],
          "internalType": "struct Stages",
          "name": "_mintingStages",
          "type": "tuple"
        },
        {
          "internalType": "address[]",
          "name": "_ogs",
          "type": "address[]"
        },
        {
          "internalType": "address[]",
          "name": "_wls",
          "type": "address[]"
        }
      ],
      "name": "createCollection",
      "outputs": [
        {
          "internalType": "address",
          "name": "_clone",
          "type": "address"
        }
      ],
      "stateMutability": "payable",
      "type": "function"
    },
    {
      "inputs": [
        {
          "internalType": "address",
          "name": "_extCollection",
          "type": "address"
        },
        {
          "internalType": "address",
          "name": "_artist",
          "type": "address"
        }
      ],
      "name": "grantReferral",
      "outputs": [],
      "stateMutability": "nonpayable",
      "type": "function"
    },
    {
      "inputs": [],
      "name": "initialize",
      "outputs": [],
      "stateMutability": "nonpayable",
      "type": "function"
    },
    {
      "inputs": [
        {
          "internalType": "address",
          "name": "",
          "type": "address"
        }
      ],
      "name": "members",
      "outputs": [
        {
          "internalType": "address",
          "name": "collection",
          "type": "address"
        },
        {
          "internalType": "uint72",
          "name": "deployFee",
          "type": "uint72"
        },
        {
          "internalType": "uint16",
          "name": "platformFee",
          "type": "uint16"
        },
        {
          "internalType": "uint16",
          "name": "discount",
          "type": "uint16"
        },
        {
          "internalType": "uint40",
          "name": "expiration",
          "type": "uint40"
        }
      ],
      "stateMutability": "view",
      "type": "function"
    },
    {
      "inputs": [],
      "name": "owner",
      "outputs": [
        {
          "internalType": "address",
          "name": "",
          "type": "address"
        }
      ],
      "stateMutability": "view",
      "type": "function"
    },
    {
      "inputs": [
        {
          "internalType": "address",
          "name": "",
          "type": "address"
        }
      ],
      "name": "partners",
      "outputs": [
        {
          "internalType": "address",
          "name": "collection",
          "type": "address"
        },
        {
          "internalType": "address",
          "name": "admin",
          "type": "address"
        },
        {
          "internalType": "uint16",
          "name": "adminOwnPercent",
          "type": "uint16"
        },
        {
          "internalType": "uint16",
          "name": "referralOwnPercent",
          "type": "uint16"
        },
        {
          "internalType": "uint16",
          "name": "discount",
          "type": "uint16"
        },
        {
          "internalType": "uint72",
          "name": "balance",
          "type": "uint72"
        },
        {
          "internalType": "uint40",
          "name": "expiration",
          "type": "uint40"
        }
      ],
      "stateMutability": "view",
      "type": "function"
    },
    {
      "inputs": [],
      "name": "proxiableUUID",
      "outputs": [
        {
          "internalType": "bytes32",
          "name": "",
          "type": "bytes32"
        }
      ],
      "stateMutability": "view",
      "type": "function"
    },
    {
      "inputs": [],
      "name": "publicStageWeeks",
      "outputs": [
        {
          "internalType": "uint8",
          "name": "",
          "type": "uint8"
        }
      ],
      "stateMutability": "view",
      "type": "function"
    },
    {
      "inputs": [
        {
          "internalType": "address",
          "name": "",
          "type": "address"
        }
      ],
      "name": "referralBalances",
      "outputs": [
        {
          "internalType": "uint72",
          "name": "",
          "type": "uint72"
        }
      ],
      "stateMutability": "view",
      "type": "function"
    },
    {
      "inputs": [],
      "name": "renounceOwnership",
      "outputs": [],
      "stateMutability": "nonpayable",
      "type": "function"
    },
    {
      "inputs": [],
      "name": "stageTimeCap",
      "outputs": [
        {
          "internalType": "uint40",
          "name": "",
          "type": "uint40"
        }
      ],
      "stateMutability": "view",
      "type": "function"
    },
    {
      "inputs": [
        {
          "internalType": "address",
          "name": "newOwner",
          "type": "address"
        }
      ],
      "name": "transferOwnership",
      "outputs": [],
      "stateMutability": "nonpayable",
      "type": "function"
    },
    {
      "inputs": [
        {
          "internalType": "address",
          "name": "_impl",
          "type": "address"
        }
      ],
      "name": "updateCollectionImpl",
      "outputs": [],
      "stateMutability": "payable",
      "type": "function"
    },
    {
      "inputs": [
        {
          "internalType": "address",
          "name": "_newMember",
          "type": "address"
        },
        {
          "internalType": "address",
          "name": "_collection",
          "type": "address"
        },
        {
          "internalType": "uint72",
          "name": "_deployFee",
          "type": "uint72"
        },
        {
          "internalType": "uint16",
          "name": "_platformFee",
          "type": "uint16"
        },
        {
          "internalType": "uint16",
          "name": "_discount",
          "type": "uint16"
        },
        {
          "internalType": "uint16",
          "name": "_expirationDays",
          "type": "uint16"
        }
      ],
      "name": "updateMember",
      "outputs": [],
      "stateMutability": "payable",
      "type": "function"
    },
    {
      "inputs": [
        {
          "internalType": "address",
          "name": "_collection",
          "type": "address"
        },
        {
          "internalType": "address",
          "name": "_admin",
          "type": "address"
        },
        {
          "internalType": "uint16",
          "name": "_adminOwnPercent",
          "type": "uint16"
        },
        {
          "internalType": "uint16",
          "name": "_referralOwnPercent",
          "type": "uint16"
        },
        {
          "internalType": "uint16",
          "name": "_discountPercent",
          "type": "uint16"
        },
        {
          "internalType": "uint16",
          "name": "_expirationDays",
          "type": "uint16"
        }
      ],
      "name": "updatePartnership",
      "outputs": [],
      "stateMutability": "nonpayable",
      "type": "function"
    },
    {
      "inputs": [
        {
          "internalType": "uint8",
          "name": "_publicStageWeeks",
          "type": "uint8"
        },
        {
          "internalType": "uint40",
          "name": "_stageTimeCapInDays",
          "type": "uint40"
        },
        {
          "internalType": "uint72",
          "name": "_updateStageFee",
          "type": "uint72"
        }
      ],
      "name": "updateStageConfig",
      "outputs": [],
      "stateMutability": "nonpayable",
      "type": "function"
    },
    {
      "inputs": [],
      "name": "updateStageFee",
      "outputs": [
        {
          "internalType": "uint72",
          "name": "",
          "type": "uint72"
        }
      ],
      "stateMutability": "view",
      "type": "function"
    },
    {
      "inputs": [
        {
          "internalType": "address",
          "name": "_newImplementation",
          "type": "address"
        }
      ],
      "name": "upgradeTo",
      "outputs": [],
      "stateMutability": "nonpayable",
      "type": "function"
    },
    {
      "inputs": [
        {
          "internalType": "address",
          "name": "newImplementation",
          "type": "address"
        },
        {
          "internalType": "bytes",
          "name": "data",
          "type": "bytes"
        }
      ],
      "name": "upgradeToAndCall",
      "outputs": [],
      "stateMutability": "payable",
      "type": "function"
    },
    {
      "inputs": [],
      "name": "withdraw",
      "outputs": [],
      "stateMutability": "payable",
      "type": "function"
    },
    {
      "inputs": [
        {
          "internalType": "address",
          "name": "_collection",
          "type": "address"
        }
      ],
      "name": "withdrawPartner",
      "outputs": [],
      "stateMutability": "nonpayable",
      "type": "function"
    },
    {
      "inputs": [],
      "name": "withdrawReferral",
      "outputs": [],
      "stateMutability": "nonpayable",
      "type": "function"
    },
    {
      "stateMutability": "payable",
      "type": "receive"
    }
  ],
  "bytecode": "0x60a060405230608052348015610013575f80fd5b50608051612fc26100485f395f8181610d9701528181610dd701528181610e6801528181611b6f0152611baf0152612fc25ff3fe608060405260043610610169575f3560e01c806368c16b22116100d057806395c3365211610089578063be4b1ef911610063578063be4b1ef91461059e578063d57f966b146105d8578063ee30b7dd146105ed578063f2fde38b1461060c57610170565b806395c336521461049a5780639ea0e07414610577578063a9d0a3be1461058b57610170565b806368c16b22146103f35780636f273dd814610417578063715018a61461042a5780638129fc1c1461043e57806381f4a0b5146104525780638da5cb5b1461047d57610170565b80633ccfd60b116101225780633ccfd60b146103655780633e680cd91461036d5780634a6798e81461038c5780634f1ef286146103ab57806352d1902d146103be578063686ff551146103e057610170565b8063069dab8f1461018957806308ae4b0c146101ed5780630e1e763f146102a25780632be7d54b146102ee5780633166ef011461030f5780633659cfe61461034657610170565b3661017057005b604051631461bca560e11b815260040160405180910390fd5b348015610194575f80fd5b506101c86101a33660046126af565b60cc6020525f9081526040902080546001909101546001600160a01b03918216911682565b604080516001600160a01b039384168152929091166020830152015b60405180910390f35b3480156101f8575f80fd5b5061025a6102073660046126af565b60ce6020525f9081526040902080546001909101546001600160a01b038216916001600160481b03600160a01b8204169161ffff600160e81b90920482169181169064ffffffffff620100009091041685565b604080516001600160a01b0390961686526001600160481b03909416602086015261ffff9283169385019390935216606083015264ffffffffff16608082015260a0016101e4565b3480156102ad575f80fd5b506102d66102bc3660046126af565b60cf6020525f90815260409020546001600160481b031681565b6040516001600160481b0390911681526020016101e4565b3480156102f9575f80fd5b5061030d6103083660046126c8565b61062b565b005b34801561031a575f80fd5b5060c95461032e906001600160a01b031681565b6040516001600160a01b0390911681526020016101e4565b348015610351575f80fd5b5061030d6103603660046126af565b610895565b61030d6108a9565b348015610378575f80fd5b5061030d61038736600461270a565b610950565b348015610397575f80fd5b5061030d6103a63660046126af565b610b1f565b61030d6103b936600461278e565b610d8d565b3480156103c9575f80fd5b506103d2610e5c565b6040519081526020016101e4565b61030d6103ee3660046126af565b610f0d565b3480156103fe575f80fd5b5060cb546102d69061010090046001600160481b031681565b61030d610425366004612860565b610ffb565b348015610435575f80fd5b5061030d6111a7565b348015610449575f80fd5b5061030d6111ba565b34801561045d575f80fd5b5060cb5461046b9060ff1681565b60405160ff90911681526020016101e4565b348015610488575f80fd5b506033546001600160a01b031661032e565b3480156104a5575f80fd5b5061051d6104b43660046126af565b60cd6020525f90815260409020805460018201546002909201546001600160a01b03918216929182169161ffff600160a01b8204811692600160b01b8304821692600160c01b9004909116906001600160481b0381169064ffffffffff600160481b9091041687565b604080516001600160a01b03988916815297909616602088015261ffff9485169587019590955291831660608601529190911660808401526001600160481b031660a083015264ffffffffff1660c082015260e0016101e4565b348015610582575f80fd5b5061030d6112c4565b61032e6105993660046128e2565b6113c5565b3480156105a9575f80fd5b5060cb546105c290600160501b900464ffffffffff1681565b60405164ffffffffff90911681526020016101e4565b3480156105e3575f80fd5b506103d260ca5481565b3480156105f8575f80fd5b5061030d6106073660046129ae565b6119f0565b348015610617575f80fd5b5061030d6106263660046126af565b611a95565b6001600160a01b038083165f90815260cd6020908152604091829020825160e08101845281548516815260018201549485169281019290925261ffff600160a01b8504811693830193909352600160b01b840483166060830152600160c01b909304909116608082018190526002909201546001600160481b03811660a083015264ffffffffff600160481b9091041660c082015290158015906106d95750428160c0015164ffffffffff16115b6106fe57604051630f97aaed60e41b8152600160048201526024015b60405180910390fd5b6040516370a0823160e01b81523360048201819052905f9081906001600160a01b038716906370a08231906024016020604051808303815f875af1158015610748573d5f803e3d5ffd5b505050506040513d601f19601f8201168201806040525081019061076c91906129f5565b1190508061079057604051630f97aaed60e41b8152600260048201526024016106f5565b836001600160a01b0316826001600160a01b0316036107c557604051630f97aaed60e41b8152600360048201526024016106f5565b6001600160a01b038481165f90815260cc602052604090205416156107ff57604051630f97aaed60e41b81526004818101526024016106f5565b6040805180820182526001600160a01b0384811680835288821660208085018281528a85165f81815260cc8452889020965187549087166001600160a01b03199182161788559151600190970180549790961696909116959095179093559351938452927f35ffbc061b07d6db6bbeaa77e8f6d55c84df847b91a72350195b7cc9f1068693910160405180910390a35050505050565b61089d611b0b565b6108a681611b65565b50565b6108b1611b0b565b60405147905f90339083908381818185875af1925050503d805f81146108f2576040519150601f19603f3d011682016040523d82523d5f602084013e6108f7565b606091505b505090508061091957604051631f90846b60e21b815260040160405180910390fd5b6040518281527f36d87f67b5609def24de3917d6e2b3c0ddd29370bd33cc2eb5821e814dbc77299060200160405180910390a15050565b610958611b0b565b6001600160a01b03851661097f5760405163167bdd6760e01b815260040160405180910390fd5b6040518060e00160405280876001600160a01b03168152602001866001600160a01b031681526020018561ffff1681526020018461ffff1681526020018361ffff1681526020015f6001600160481b031681526020018261ffff16620151806109e89190612a20565b6109f79062ffffff1642612a47565b64ffffffffff9081169091526001600160a01b038881165f81815260cd6020908152604091829020865181546001600160a01b031916908616178155868201516001820180548986015160608b015160808c0151948a166001600160b01b031990931692909217600160a01b61ffff928316021763ffffffff60b01b1916600160b01b9282169290920261ffff60c01b191691909117600160c01b9382169390930292909217905560a08801516002909201805460c0909901516001600160481b039093166001600160701b031990991698909817600160481b92909716919091029590951790955551928516835292908816917fd15d14723ef437ff41a8a33dd8e672905c30cf3f26a7d05b15460619992fb77391015b60405180910390a3505050505050565b6001600160a01b038181165f90815260cd6020908152604091829020825160e0810184528154851681526001820154948516928101839052600160a01b850461ffff90811694820194909452600160b01b850484166060820152600160c01b90940490921660808401526002909101546001600160481b03811660a08401819052600160481b90910464ffffffffff1660c08401529033908114610bd9576040516327bc636d60e01b8152600160048201526024016106f5565b5f8211610bfc576040516327bc636d60e01b8152600260048201526024016106f5565b5f60a084018181526001600160a01b03868116835260cd60209081526040808520885181546001600160a01b03191690851617815591880151600183018054838b015160608c015160808d01519488166001600160b01b031990931692909217600160a01b61ffff928316021763ffffffff60b01b1916600160b01b9282169290920261ffff60c01b191691909117600160c01b919093160291909117905592516002909101805460c08901516001600160481b039093166001600160701b031990911617600160481b64ffffffffff9093169290920291909117905590519083169084905f6040518083038185875af1925050503d805f8114610d1b576040519150601f19603f3d011682016040523d82523d5f602084013e610d20565b606091505b5050905080610d45576040516327bc636d60e01b8152600360048201526024016106f5565b82856001600160a01b0316836001600160a01b03167f3cebcff4b474dd1638e05b88c97b76249ed7a5b06775d18fa6f9f978ced7eccf60405160405180910390a45050505050565b6001600160a01b037f0000000000000000000000000000000000000000000000000000000000000000163003610dd55760405162461bcd60e51b81526004016106f590612a5a565b7f00000000000000000000000000000000000000000000000000000000000000006001600160a01b0316610e1d5f80516020612f46833981519152546001600160a01b031690565b6001600160a01b031614610e435760405162461bcd60e51b81526004016106f590612aa6565b610e4c82611c3f565b610e5882826001611c47565b5050565b5f306001600160a01b037f00000000000000000000000000000000000000000000000000000000000000001614610efb5760405162461bcd60e51b815260206004820152603860248201527f555550535570677261646561626c653a206d757374206e6f742062652063616c60448201527f6c6564207468726f7567682064656c656761746563616c6c000000000000000060648201526084016106f5565b505f80516020612f4683398151915290565b610f15611b0b565b6040516301ffc9a760e01b815263184371e560e31b60048201526001600160a01b038216906301ffc9a7906024016020604051808303815f875af1158015610f5f573d5f803e3d5ffd5b505050506040513d601f19601f82011682018060405250810190610f839190612aff565b15610fa85760c980546001600160a01b0319166001600160a01b038316179055610fc1565b60405163109fc08560e21b815260040160405180910390fd5b60c9546040516001600160a01b03909116907f1f429f4905add3396291cd5fed632430e672564b59710524a74bff513cc99f07905f90a250565b611003611b0b565b6001600160a01b03861661102d5760405163cbb282d960e01b8152600160048201526024016106f5565b6127108361ffff1611801561104757506127108261ffff16115b156110685760405163cbb282d960e01b8152600260048201526024016106f5565b6040518060a00160405280866001600160a01b03168152602001856001600160481b031681526020018461ffff1681526020018361ffff1681526020018261ffff16620151806110b89190612a20565b6110c79062ffffff1642612a47565b64ffffffffff9081169091526001600160a01b038089165f81815260ce602090815260409182902086518154928801518885015161ffff908116600160e81b0261ffff60e81b196001600160481b03909316600160a01b026001600160e81b0319909616938916939093179490941716178155606087015160019091018054608090980151909616620100000266ffffffffffffff19909716911617949094179092559151918716917ff43dea6ce4f10c385ba08e446878b2f4d2927c6da3e45cbfeabef439925347e690610b0f90859061ffff91909116815260200190565b6111af611b0b565b6111b85f611db6565b565b5f54610100900460ff16158080156111d857505f54600160ff909116105b806111f15750303b1580156111f157505f5460ff166001145b6112545760405162461bcd60e51b815260206004820152602e60248201527f496e697469616c697a61626c653a20636f6e747261637420697320616c72656160448201526d191e481a5b9a5d1a585b1a5e995960921b60648201526084016106f5565b5f805460ff191660011790558015611275575f805461ff0019166101001790555b61127d611e07565b80156108a6575f805461ff0019169055604051600181527f7f26b83ff96e1f2b6a682f133852f6798a09c465da95921460cefb38474024989060200160405180910390a150565b335f81815260cf60205260409020546001600160481b0316806112fd57604051633ea2be3f60e21b8152600160048201526024016106f5565b6001600160a01b0382165f81815260cf6020526040808220805468ffffffffffffffffff191690555190919083908381818185875af1925050503d805f8114611361576040519150601f19603f3d011682016040523d82523d5f602084013e611366565b606091505b505090508061138b57604051633ea2be3f60e21b8152600260048201526024016106f5565b60405182906001600160a01b038516907ff8987342fdec6708e94f07fc67551499227dc2ac486faabd9e328d7eb71b613d905f90a3505050565b5f6113d86033546001600160a01b031690565b6001600160a01b0316336001600160a01b031614806114155750335f90815260ce6020526040902060010154426201000090910464ffffffffff16115b61144a5760405162461bcd60e51b81526004016106f590602080825260049082015263082eae8d60e31b604082015260600190565b335f81815260cc602090815260408083208151808301835281546001600160a01b03908116825260019283015481168286015286865260ce855294839020835160a08101855281549687168152600160a01b87046001600160481b0316958101869052600160e81b90960461ffff9081169487019490945290910154918216606085018190526201000090920464ffffffffff16608085015234939092909115611595575f61150a826001600160481b0316846060015161ffff16611e35565b905061151f816001600160481b038416612b1a565b851015611542576040516355ac148b60e11b8152600160048201526024016106f5565b604080516001600160481b0384168152602081018390526001600160a01b038816917f121699eaf121520009b74151fd58375119e44c6e46e8f5f80e5247fd0bc06da1910160405180910390a25061172f565b82516001600160a01b031615611702576020838101516001600160a01b039081165f90815260cd83526040808220815160e081018352815485168152600182015494851695810195909552600160a01b840461ffff90811692860192909252600160b01b840482166060860152600160c01b90930416608084018190526002909201546001600160481b0380821660a0860152600160481b90910464ffffffffff1660c0850152909161164a91851690611e35565b905061165f816001600160481b038516612b1a565b861015611682576040516355ac148b60e11b8152600260048201526024016106f5565b611698858389866001600160481b031685611e5a565b604080518082019091525f8082526020820152604080516001600160481b0386168152602081018490529196506001600160a01b038916917f511dc57e9bf57b19763d6dc6d82c3efa05c35beb63ab037676fb7c52bde314a3910160405180910390a2505061172f565b806001600160481b031684101561172f576040516355ac148b60e11b8152600360048201526024016106f5565b60cb546040838101518151606089901b6bffffffffffffffffffffffff1916602082015260f884901b6001600160f81b031916603482015260f09190911b6001600160f01b0319166035820152610100830460b81b6001600160b81b0319166037820152600160501b90920460d81b6001600160d81b031916908201525f9060450160408051601f1981840301815291905260c9549091506117da906001600160a01b03168261224f565b96506001600160a01b038716611805576040516355ac148b60e11b81526004818101526024016106f5565b5f836080019064ffffffffff16908164ffffffffff168152505086835f01906001600160a01b031690816001600160a01b0316815250508260ce5f886001600160a01b03166001600160a01b031681526020019081526020015f205f820151815f015f6101000a8154816001600160a01b0302191690836001600160a01b031602179055506020820151815f0160146101000a8154816001600160481b0302191690836001600160481b031602179055506040820151815f01601d6101000a81548161ffff021916908361ffff1602179055506060820151816001015f6101000a81548161ffff021916908361ffff16021790555060808201518160010160026101000a81548164ffffffffff021916908364ffffffffff16021790555090505060ca5460010160ca81905550866001600160a01b0316634464f7778e8e8e8e8e8e6040518763ffffffff1660e01b815260040161196896959493929190612d38565b5f604051808303815f87803b15801561197f575f80fd5b505af1158015611991573d5f803e3d5ffd5b505060c954604080516001600160a01b0392831681528b83166020820152918a1693507f3260bb218255e98a3f5731b9cd14cede49bbf1988ccd323b4a4912568739823192500160405180910390a25050505050509695505050505050565b6119f8611b0b565b60cb805460ff85166effffffffff000000000000000000ff199091168117600160501b64ffffffffff86169081029190911769ffffffffffffffffff0019166101006001600160481b038616908102919091179093556040805192835260208301919091528101919091527fa2c2926e19aea4c121d34a19d450da2b53728b4412e78bea1749620d652fed2e9060600160405180910390a1505050565b611a9d611b0b565b6001600160a01b038116611b025760405162461bcd60e51b815260206004820152602660248201527f4f776e61626c653a206e6577206f776e657220697320746865207a65726f206160448201526564647265737360d01b60648201526084016106f5565b6108a681611db6565b6033546001600160a01b031633146111b85760405162461bcd60e51b815260206004820181905260248201527f4f776e61626c653a2063616c6c6572206973206e6f7420746865206f776e657260448201526064016106f5565b6001600160a01b037f0000000000000000000000000000000000000000000000000000000000000000163003611bad5760405162461bcd60e51b81526004016106f590612a5a565b7f00000000000000000000000000000000000000000000000000000000000000006001600160a01b0316611bf55f80516020612f46833981519152546001600160a01b031690565b6001600160a01b031614611c1b5760405162461bcd60e51b81526004016106f590612aa6565b611c2481611c3f565b604080515f808252602082019092526108a691839190611c47565b6108a6611b0b565b7f4910fdfa16fed3260ed0e7147f7cc6da11a60208b5b9406d12a635614ffd91435460ff1615611c7f57611c7a83612338565b505050565b826001600160a01b03166352d1902d6040518163ffffffff1660e01b8152600401602060405180830381865afa925050508015611cd9575060408051601f3d908101601f19168201909252611cd6918101906129f5565b60015b611d3c5760405162461bcd60e51b815260206004820152602e60248201527f45524331393637557067726164653a206e657720696d706c656d656e7461746960448201526d6f6e206973206e6f74205555505360901b60648201526084016106f5565b5f80516020612f468339815191528114611daa5760405162461bcd60e51b815260206004820152602960248201527f45524331393637557067726164653a20756e737570706f727465642070726f786044820152681a58589b195555525160ba1b60648201526084016106f5565b50611c7a8383836123d3565b603380546001600160a01b038381166001600160a01b0319831681179093556040519116919082907f8be0079c531659141344cd1fd0a4f28419497f9722a3daafe3b4186f6b6457e0905f90a35050565b5f54610100900460ff16611e2d5760405162461bcd60e51b81526004016106f590612e77565b6111b86123fd565b5f611e51836bffffffffffffffffffffffff841661271061242c565b90505b92915050565b5f611e658284612b1a565b90505f8190505f611e7e83886060015161ffff16611e35565b9050611e8a8183612b1a565b88516001600160a01b03165f90815260cf6020526040902054909250611eba9082906001600160481b0316612a47565b60cf5f8a5f01516001600160a01b03166001600160a01b031681526020019081526020015f205f6101000a8154816001600160481b0302191690836001600160481b031602179055508760cc5f886001600160a01b03166001600160a01b031681526020019081526020015f205f820151815f015f6101000a8154816001600160a01b0302191690836001600160a01b031602179055506020820151816001015f6101000a8154816001600160a01b0302191690836001600160a01b0316021790555090505060cf5f895f01516001600160a01b03166001600160a01b031681526020019081526020015f205f9054906101000a90046001600160481b03166001600160481b0316885f01516001600160a01b03167f5638fe1d59cbaff19a53ea05820ebcfe8d70bd87ba73873ceeea44c20714973160405160405180910390a35f61200e84896040015161ffff16611e35565b905061201a8184612b1a565b9250808860a001516001600160481b03166120359190612a47565b8860a001906001600160481b031690816001600160481b0316815250508760cd5f8b602001516001600160a01b03166001600160a01b031681526020019081526020015f205f820151815f015f6101000a8154816001600160a01b0302191690836001600160a01b031602179055506020820151816001015f6101000a8154816001600160a01b0302191690836001600160a01b0316021790555060408201518160010160146101000a81548161ffff021916908361ffff16021790555060608201518160010160166101000a81548161ffff021916908361ffff16021790555060808201518160010160186101000a81548161ffff021916908361ffff16021790555060a0820151816002015f6101000a8154816001600160481b0302191690836001600160481b0316021790555060c08201518160020160096101000a81548164ffffffffff021916908364ffffffffff1602179055509050508760a001516001600160481b031688602001516001600160a01b03167fffba746bd7819bccbdb2aa674c014ebacac05d280ba6f9f5912dadf6a9e3a22b60405160405180910390a383826121e58386612a47565b6121ef9190612a47565b10156122115760405163ee3231cb60e01b8152600260048201526024016106f5565b6040518381527f91582d1b5b6cbe42046740d0377969b6922857f4fae81ba3a7dce5023a607fa99060200160405180910390a1505050505050505050565b5f60608203516040830351602084035184518060208701018051600283016c5af43d3d93803e606057fd5bf3895289600d8a035278593da1005b363d3d373d3d3d3d610000806062363936013d738160481b1760218a03527f9e4ac34f21c619cefc926c8bd93b54bf5a39c7ab2127a895af1cc0691d7e3dff603a8a035272fd6100003d81600a3d39f336602c57343d527f6062820160781b1761ff9e82106059018a03528060f01b8352606c8101604c8a035ff0975050866123195763301164255f526004601cfd5b90528552601f19850152603f19840152605f1990920191909152919050565b6001600160a01b0381163b6123a55760405162461bcd60e51b815260206004820152602d60248201527f455243313936373a206e657720696d706c656d656e746174696f6e206973206e60448201526c1bdd08184818dbdb9d1c9858dd609a1b60648201526084016106f5565b5f80516020612f4683398151915280546001600160a01b0319166001600160a01b0392909216919091179055565b6123dc83612517565b5f825111806123e85750805b15611c7a576123f78383612556565b50505050565b5f54610100900460ff166124235760405162461bcd60e51b81526004016106f590612e77565b6111b833611db6565b5f80805f19858709858702925082811083820303915050805f036124635783828161245957612459612ec2565b0492505050612510565b8084116124aa5760405162461bcd60e51b81526020600482015260156024820152744d6174683a206d756c446976206f766572666c6f7760581b60448201526064016106f5565b5f848688098519600190810187169687900496828603819004959092119093035f82900391909104909201919091029190911760038402600290811880860282030280860282030280860282030280860282030280860282030280860290910302029150505b9392505050565b61252081612338565b6040516001600160a01b038216907fbc7cd75a20ee27fd9adebab32041f755214dbc6bffa90cc0225b39da2e5c2d3b905f90a250565b6060611e518383604051806060016040528060278152602001612f666027913960605f80856001600160a01b0316856040516125929190612ef8565b5f60405180830381855af49150503d805f81146125ca576040519150601f19603f3d011682016040523d82523d5f602084013e6125cf565b606091505b50915091506125e0868383876125ea565b9695505050505050565b606083156126585782515f03612651576001600160a01b0385163b6126515760405162461bcd60e51b815260206004820152601d60248201527f416464726573733a2063616c6c20746f206e6f6e2d636f6e747261637400000060448201526064016106f5565b5081612662565b612662838361266a565b949350505050565b81511561267a5781518083602001fd5b8060405162461bcd60e51b81526004016106f59190612f13565b80356001600160a01b03811681146126aa575f80fd5b919050565b5f602082840312156126bf575f80fd5b611e5182612694565b5f80604083850312156126d9575f80fd5b6126e283612694565b91506126f060208401612694565b90509250929050565b803561ffff811681146126aa575f80fd5b5f805f805f8060c0878903121561271f575f80fd5b61272887612694565b955061273660208801612694565b9450612744604088016126f9565b9350612752606088016126f9565b9250612760608088016126f9565b915061276e60a088016126f9565b90509295509295509295565b634e487b7160e01b5f52604160045260245ffd5b5f806040838503121561279f575f80fd5b6127a883612694565b9150602083013567ffffffffffffffff808211156127c4575f80fd5b818501915085601f8301126127d7575f80fd5b8135818111156127e9576127e961277a565b604051601f8201601f19908116603f011681019083821181831017156128115761281161277a565b81604052828152886020848701011115612829575f80fd5b826020860160208301375f6020848301015280955050505050509250929050565b80356001600160481b03811681146126aa575f80fd5b5f805f805f8060c08789031215612875575f80fd5b61287e87612694565b955061288c60208801612694565b94506127446040880161284a565b5f8083601f8401126128aa575f80fd5b50813567ffffffffffffffff8111156128c1575f80fd5b6020830191508360208260051b85010111156128db575f80fd5b9250929050565b5f805f805f808688036102008112156128f9575f80fd5b873567ffffffffffffffff80821115612910575f80fd5b9089019060e0828c031215612923575f80fd5b8198506101a0601f1984011215612938575f80fd5b60208a0197506101c08a0135925080831115612952575f80fd5b61295e8b848c0161289a565b90975095506101e08a013592508691508083111561297a575f80fd5b505061298889828a0161289a565b979a9699509497509295939492505050565b803564ffffffffff811681146126aa575f80fd5b5f805f606084860312156129c0575f80fd5b833560ff811681146129d0575f80fd5b92506129de6020850161299a565b91506129ec6040850161284a565b90509250925092565b5f60208284031215612a05575f80fd5b5051919050565b634e487b7160e01b5f52601160045260245ffd5b62ffffff818116838216028082169190828114612a3f57612a3f612a0c565b505092915050565b80820180821115611e5457611e54612a0c565b6020808252602c908201527f46756e6374696f6e206d7573742062652063616c6c6564207468726f7567682060408201526b19195b1959d85d1958d85b1b60a21b606082015260800190565b6020808252602c908201527f46756e6374696f6e206d7573742062652063616c6c6564207468726f7567682060408201526b6163746976652070726f787960a01b606082015260800190565b80151581146108a6575f80fd5b5f60208284031215612b0f575f80fd5b815161251081612af2565b81810381811115611e5457611e54612a0c565b5f808335601e19843603018112612b42575f80fd5b830160208101925035905067ffffffffffffffff811115612b61575f80fd5b8036038213156128db575f80fd5b81835281816020850137505f828201602090810191909152601f909101601f19169091010190565b80356001600160801b03811681146126aa575f80fd5b80356126aa81612af2565b612bcb82612bc583612bad565b15159052565b612bd76020820161284a565b6001600160481b03166020830152612bf16040820161284a565b6001600160481b03166040830152612c0b6060820161284a565b6001600160481b03166060830152612c25608082016126f9565b61ffff166080830152612c3a60a082016126f9565b61ffff1660a0830152612c4f60c0820161299a565b64ffffffffff1660c0830152612c6760e0820161299a565b64ffffffffff1660e0830152610100612c8182820161299a565b64ffffffffff1690830152610120612c9a82820161299a565b64ffffffffff1690830152610140612cb382820161299a565b64ffffffffff1690830152610160612ccc82820161299a565b64ffffffffff1690830152610180612ce58282016126f9565b61ffff8116848301526123f7565b8183525f60208085019450825f5b85811015612d2d576001600160a01b03612d1a83612694565b1687529582019590820190600101612d01565b509495945050505050565b5f610200808352612d49898a612b2d565b60e083860152612d5e6102e086018284612b6f565b92505050612d6f60208a018a612b2d565b6101ff198086850301610220870152612d89848385612b6f565b9350612d9860408d018d612b2d565b935091508086850301610240870152612db2848484612b6f565b9350612dc160608d018d612b2d565b93509150808685030161026087015250612ddc838383612b6f565b92506001600160a01b039150612df6905060808b01612694565b16610280840152612e0960a08a01612b97565b6001600160801b03166102a0840152612e2460c08a01612b97565b6001600160801b03166102c0840152612e406020840189612bb8565b8281036101c0840152612e54818789612cf3565b90508281036101e0840152612e6a818587612cf3565b9998505050505050505050565b6020808252602b908201527f496e697469616c697a61626c653a20636f6e7472616374206973206e6f74206960408201526a6e697469616c697a696e6760a81b606082015260800190565b634e487b7160e01b5f52601260045260245ffd5b5f5b83811015612ef0578181015183820152602001612ed8565b50505f910152565b5f8251612f09818460208701612ed6565b9190910192915050565b602081525f8251806020840152612f31816040850160208701612ed6565b601f01601f1916919091016040019291505056fe360894a13ba1a3210667c828492db98dca3e2076cc3735a920a3ca505d382bbc416464726573733a206c6f772d6c6576656c2064656c65676174652063616c6c206661696c6564a2646970667358221220ae84ef23b2b076bd6fe8f9023d8ae3aea2d8fd6fccec03ec80be5d5d879ac5ee64736f6c63430008140033",
  "linkReferences": {},
  "deployedLinkReferences": {}
}