{
  "_format": "hh-sol-artifact-1",
  "contractName": "MvxFactory",
  "sourceName": "src/MvxFactory.sol",
  "abi": [
    {
      "inputs": [],
      "name": "AdminWithdrawError",
      "type": "error"
    },
    {
      "inputs": [
        {
          "internalType": "uint8",
          "name": "",
          "type": "uint8"
        }
      ],
      "name": "CreateError",
      "type": "error"
    },
    {
      "inputs": [
        {
          "internalType": "uint8",
          "name": "",
          "type": "uint8"
        }
      ],
      "name": "DiscountError",
      "type": "error"
    },
    {
      "inputs": [
        {
          "internalType": "uint8",
          "name": "",
          "type": "uint8"
        }
      ],
      "name": "GrantReferralError",
      "type": "error"
    },
    {
      "inputs": [],
      "name": "InvalidColletion",
      "type": "error"
    },
    {
      "inputs": [],
      "name": "Unathorized",
      "type": "error"
    },
    {
      "inputs": [
        {
          "internalType": "uint8",
          "name": "",
          "type": "uint8"
        }
      ],
      "name": "UpdateMemberError",
      "type": "error"
    },
    {
      "inputs": [],
      "name": "UpdatePartnerError",
      "type": "error"
    },
    {
      "inputs": [
        {
          "internalType": "uint8",
          "name": "",
          "type": "uint8"
        }
      ],
      "name": "WithdrawPartnerError",
      "type": "error"
    },
    {
      "inputs": [
        {
          "internalType": "uint8",
          "name": "",
          "type": "uint8"
        }
      ],
      "name": "WithdrawReferralError",
      "type": "error"
    },
    {
      "anonymous": false,
      "inputs": [
        {
          "indexed": false,
          "internalType": "address",
          "name": "previousAdmin",
          "type": "address"
        },
        {
          "indexed": false,
          "internalType": "address",
          "name": "newAdmin",
          "type": "address"
        }
      ],
      "name": "AdminChanged",
      "type": "event"
    },
    {
      "anonymous": false,
      "inputs": [
        {
          "indexed": true,
          "internalType": "address",
          "name": "_sender",
          "type": "address"
        },
        {
          "indexed": false,
          "internalType": "uint256",
          "name": "_deployFee",
          "type": "uint256"
        },
        {
          "indexed": false,
          "internalType": "uint256",
          "name": "_discountAmt",
          "type": "uint256"
        }
      ],
      "name": "ArtistDiscount",
      "type": "event"
    },
    {
      "anonymous": false,
      "inputs": [
        {
          "indexed": true,
          "internalType": "address",
          "name": "beacon",
          "type": "address"
        }
      ],
      "name": "BeaconUpgraded",
      "type": "event"
    },
    {
      "anonymous": false,
      "inputs": [
        {
          "indexed": true,
          "internalType": "address",
          "name": "_sender",
          "type": "address"
        },
        {
          "indexed": false,
          "internalType": "address",
          "name": "_impl",
          "type": "address"
        },
        {
          "indexed": false,
          "internalType": "address",
          "name": "_cloneAddress",
          "type": "address"
        }
      ],
      "name": "CreateEvent",
      "type": "event"
    },
    {
      "anonymous": false,
      "inputs": [
        {
          "indexed": false,
          "internalType": "uint256",
          "name": "",
          "type": "uint256"
        }
      ],
      "name": "FactoryBalanceUpdate",
      "type": "event"
    },
    {
      "anonymous": false,
      "inputs": [
        {
          "indexed": true,
          "internalType": "address",
          "name": "_artist",
          "type": "address"
        },
        {
          "indexed": false,
          "internalType": "address",
          "name": "_sender",
          "type": "address"
        },
        {
          "indexed": false,
          "internalType": "address",
          "name": "_collection",
          "type": "address"
        }
      ],
      "name": "GrantReferralDiscount",
      "type": "event"
    },
    {
      "anonymous": false,
      "inputs": [
        {
          "indexed": false,
          "internalType": "uint8",
          "name": "version",
          "type": "uint8"
        }
      ],
      "name": "Initialized",
      "type": "event"
    },
    {
      "anonymous": false,
      "inputs": [
        {
          "indexed": false,
          "internalType": "string",
          "name": "",
          "type": "string"
        },
        {
          "indexed": false,
          "internalType": "address",
          "name": "",
          "type": "address"
        }
      ],
      "name": "Log",
      "type": "event"
    },
    {
      "anonymous": false,
      "inputs": [
        {
          "indexed": false,
          "internalType": "string",
          "name": "",
          "type": "string"
        },
        {
          "indexed": false,
          "internalType": "uint256",
          "name": "",
          "type": "uint256"
        }
      ],
      "name": "Log",
      "type": "event"
    },
    {
      "anonymous": false,
      "inputs": [
        {
          "indexed": false,
          "internalType": "string",
          "name": "",
          "type": "string"
        }
      ],
      "name": "Log",
      "type": "event"
    },
    {
      "anonymous": false,
      "inputs": [
        {
          "indexed": true,
          "internalType": "address",
          "name": "_sender",
          "type": "address"
        },
        {
          "indexed": false,
          "internalType": "uint256",
          "name": "_deployFee",
          "type": "uint256"
        },
        {
          "indexed": false,
          "internalType": "uint256",
          "name": "_discountAmt",
          "type": "uint256"
        }
      ],
      "name": "MemberDiscount",
      "type": "event"
    },
    {
      "anonymous": false,
      "inputs": [
        {
          "indexed": true,
          "internalType": "address",
          "name": "previousOwner",
          "type": "address"
        },
        {
          "indexed": true,
          "internalType": "address",
          "name": "newOwner",
          "type": "address"
        }
      ],
      "name": "OwnershipTransferred",
      "type": "event"
    },
    {
      "anonymous": false,
      "inputs": [
        {
          "indexed": true,
          "internalType": "address",
          "name": "_partner",
          "type": "address"
        },
        {
          "indexed": false,
          "internalType": "uint256",
          "name": "_balance",
          "type": "uint256"
        }
      ],
      "name": "PartnerBalanceUpdate",
      "type": "event"
    },
    {
      "anonymous": false,
      "inputs": [
        {
          "indexed": false,
          "internalType": "address",
          "name": "account",
          "type": "address"
        }
      ],
      "name": "Paused",
      "type": "event"
    },
    {
      "anonymous": false,
      "inputs": [
        {
          "indexed": true,
          "internalType": "address",
          "name": "_referral",
          "type": "address"
        },
        {
          "indexed": false,
          "internalType": "uint256",
          "name": "_amount",
          "type": "uint256"
        }
      ],
      "name": "ReferralBalanceUpdate",
      "type": "event"
    },
    {
      "anonymous": false,
      "inputs": [
        {
          "indexed": false,
          "internalType": "address",
          "name": "account",
          "type": "address"
        }
      ],
      "name": "Unpaused",
      "type": "event"
    },
    {
      "anonymous": false,
      "inputs": [
        {
          "indexed": false,
          "internalType": "address",
          "name": "_newImpl",
          "type": "address"
        }
      ],
      "name": "UpdateCollectionImpl",
      "type": "event"
    },
    {
      "anonymous": false,
      "inputs": [
        {
          "components": [
            {
              "internalType": "address",
              "name": "collection",
              "type": "address"
            },
            {
              "internalType": "uint256",
              "name": "deployFee",
              "type": "uint256"
            },
            {
              "internalType": "uint256",
              "name": "platformFee",
              "type": "uint256"
            },
            {
              "internalType": "uint96",
              "name": "discount",
              "type": "uint96"
            },
            {
              "internalType": "uint256",
              "name": "expiration",
              "type": "uint256"
            }
          ],
          "indexed": false,
          "internalType": "struct Member",
          "name": "",
          "type": "tuple"
        }
      ],
      "name": "UpdateMember",
      "type": "event"
    },
    {
      "anonymous": false,
      "inputs": [
        {
          "components": [
            {
              "internalType": "address",
              "name": "admin",
              "type": "address"
            },
            {
              "internalType": "uint96",
              "name": "adminOwnPercent",
              "type": "uint96"
            },
            {
              "internalType": "uint96",
              "name": "referralOwnPercent",
              "type": "uint96"
            },
            {
              "internalType": "uint256",
              "name": "balance",
              "type": "uint256"
            },
            {
              "internalType": "uint96",
              "name": "discount",
              "type": "uint96"
            },
            {
              "internalType": "uint256",
              "name": "expiration",
              "type": "uint256"
            }
          ],
          "indexed": false,
          "internalType": "struct Partner",
          "name": "",
          "type": "tuple"
        }
      ],
      "name": "UpdatePartner",
      "type": "event"
    },
    {
      "anonymous": false,
      "inputs": [
        {
          "indexed": true,
          "internalType": "address",
          "name": "implementation",
          "type": "address"
        }
      ],
      "name": "Upgraded",
      "type": "event"
    },
    {
      "anonymous": false,
      "inputs": [
        {
          "indexed": false,
          "internalType": "uint256",
          "name": "amount",
          "type": "uint256"
        }
      ],
      "name": "WithdrawAdmin",
      "type": "event"
    },
    {
      "anonymous": false,
      "inputs": [
        {
          "indexed": true,
          "internalType": "address",
          "name": "_sender",
          "type": "address"
        },
        {
          "indexed": false,
          "internalType": "address",
          "name": "_collection",
          "type": "address"
        },
        {
          "indexed": false,
          "internalType": "uint256",
          "name": "_balance",
          "type": "uint256"
        }
      ],
      "name": "WithdrawPartner",
      "type": "event"
    },
    {
      "anonymous": false,
      "inputs": [
        {
          "indexed": true,
          "internalType": "address",
          "name": "_sender",
          "type": "address"
        },
        {
          "indexed": false,
          "internalType": "address",
          "name": "_artist",
          "type": "address"
        },
        {
          "indexed": false,
          "internalType": "uint256",
          "name": "_referralBalance",
          "type": "uint256"
        }
      ],
      "name": "WithdrawReferral",
      "type": "event"
    },
    {
      "stateMutability": "payable",
      "type": "fallback"
    },
    {
      "inputs": [
        {
          "internalType": "address",
          "name": "",
          "type": "address"
        }
      ],
      "name": "artists",
      "outputs": [
        {
          "internalType": "address",
          "name": "referral",
          "type": "address"
        },
        {
          "internalType": "uint256",
          "name": "referralBalance",
          "type": "uint256"
        },
        {
          "internalType": "address",
          "name": "collection",
          "type": "address"
        }
      ],
      "stateMutability": "view",
      "type": "function"
    },
    {
      "inputs": [],
      "name": "collectionCount",
      "outputs": [
        {
          "internalType": "uint256",
          "name": "",
          "type": "uint256"
        }
      ],
      "stateMutability": "view",
      "type": "function"
    },
    {
      "inputs": [],
      "name": "collectionImpl",
      "outputs": [
        {
          "internalType": "address",
          "name": "",
          "type": "address"
        }
      ],
      "stateMutability": "view",
      "type": "function"
    },
    {
      "inputs": [
        {
          "components": [
            {
              "internalType": "string",
              "name": "name",
              "type": "string"
            },
            {
              "internalType": "string",
              "name": "symbol",
              "type": "string"
            },
            {
              "internalType": "string",
              "name": "baseURI",
              "type": "string"
            },
            {
              "internalType": "string",
              "name": "baseExt",
              "type": "string"
            },
            {
              "internalType": "uint256",
              "name": "maxSupply",
              "type": "uint256"
            },
            {
              "internalType": "uint96",
              "name": "royaltyFee",
              "type": "uint96"
            },
            {
              "internalType": "address",
              "name": "royaltyReceiver",
              "type": "address"
            },
            {
              "internalType": "bool",
              "name": "isMaxSupplyUpdatable",
              "type": "bool"
            }
          ],
          "internalType": "struct Collection",
          "name": "_nftsData",
          "type": "tuple"
        },
        {
          "components": [
            {
              "internalType": "uint256",
              "name": "ogMintPrice",
              "type": "uint256"
            },
            {
              "internalType": "uint256",
              "name": "whitelistMintPrice",
              "type": "uint256"
            },
            {
              "internalType": "uint256",
              "name": "mintPrice",
              "type": "uint256"
            },
            {
              "internalType": "uint256",
              "name": "mintMaxPerUser",
              "type": "uint256"
            },
            {
              "internalType": "uint256",
              "name": "ogMintMaxPerUser",
              "type": "uint256"
            },
            {
              "internalType": "uint256",
              "name": "whitelistMintMaxPerUser",
              "type": "uint256"
            },
            {
              "internalType": "uint256",
              "name": "mintStart",
              "type": "uint256"
            },
            {
              "internalType": "uint256",
              "name": "mintEnd",
              "type": "uint256"
            },
            {
              "internalType": "uint256",
              "name": "ogMintStart",
              "type": "uint256"
            },
            {
              "internalType": "uint256",
              "name": "ogMintEnd",
              "type": "uint256"
            },
            {
              "internalType": "uint256",
              "name": "whitelistMintStart",
              "type": "uint256"
            },
            {
              "internalType": "uint256",
              "name": "whitelistMintEnd",
              "type": "uint256"
            }
          ],
          "internalType": "struct Stages",
          "name": "_mintingStages",
          "type": "tuple"
        },
        {
          "internalType": "address[]",
          "name": "_ogs",
          "type": "address[]"
        },
        {
          "internalType": "address[]",
          "name": "_wls",
          "type": "address[]"
        }
      ],
      "name": "createCollection",
      "outputs": [
        {
          "internalType": "address",
          "name": "_clone",
          "type": "address"
        }
      ],
      "stateMutability": "payable",
      "type": "function"
    },
    {
      "inputs": [
        {
          "internalType": "address",
          "name": "_artist",
          "type": "address"
        }
      ],
      "name": "deleteArtist",
      "outputs": [],
      "stateMutability": "nonpayable",
      "type": "function"
    },
    {
      "inputs": [
        {
          "internalType": "address",
          "name": "_member",
          "type": "address"
        }
      ],
      "name": "deleteMember",
      "outputs": [],
      "stateMutability": "nonpayable",
      "type": "function"
    },
    {
      "inputs": [
        {
          "internalType": "address",
          "name": "_collection",
          "type": "address"
        }
      ],
      "name": "deletePartnership",
      "outputs": [],
      "stateMutability": "nonpayable",
      "type": "function"
    },
    {
      "inputs": [
        {
          "internalType": "address",
          "name": "_collection",
          "type": "address"
        }
      ],
      "name": "getPartnerBalance",
      "outputs": [
        {
          "internalType": "uint256",
          "name": "_balance",
          "type": "uint256"
        }
      ],
      "stateMutability": "view",
      "type": "function"
    },
    {
      "inputs": [
        {
          "internalType": "address",
          "name": "_artist",
          "type": "address"
        }
      ],
      "name": "getReferralBalance",
      "outputs": [
        {
          "internalType": "uint256",
          "name": "_balance",
          "type": "uint256"
        }
      ],
      "stateMutability": "view",
      "type": "function"
    },
    {
      "inputs": [],
      "name": "getTime",
      "outputs": [
        {
          "internalType": "uint256",
          "name": "_time",
          "type": "uint256"
        }
      ],
      "stateMutability": "view",
      "type": "function"
    },
    {
      "inputs": [
        {
          "internalType": "uint256",
          "name": "_daysFromNow",
          "type": "uint256"
        }
      ],
      "name": "getTime",
      "outputs": [
        {
          "internalType": "uint256",
          "name": "_time",
          "type": "uint256"
        }
      ],
      "stateMutability": "view",
      "type": "function"
    },
    {
      "inputs": [
        {
          "internalType": "address",
          "name": "_extCollection",
          "type": "address"
        },
        {
          "internalType": "address",
          "name": "_artist",
          "type": "address"
        }
      ],
      "name": "grantReferral",
      "outputs": [],
      "stateMutability": "nonpayable",
      "type": "function"
    },
    {
      "inputs": [],
      "name": "initialize",
      "outputs": [],
      "stateMutability": "nonpayable",
      "type": "function"
    },
    {
      "inputs": [
        {
          "internalType": "address",
          "name": "",
          "type": "address"
        }
      ],
      "name": "members",
      "outputs": [
        {
          "internalType": "address",
          "name": "collection",
          "type": "address"
        },
        {
          "internalType": "uint256",
          "name": "deployFee",
          "type": "uint256"
        },
        {
          "internalType": "uint256",
          "name": "platformFee",
          "type": "uint256"
        },
        {
          "internalType": "uint96",
          "name": "discount",
          "type": "uint96"
        },
        {
          "internalType": "uint256",
          "name": "expiration",
          "type": "uint256"
        }
      ],
      "stateMutability": "view",
      "type": "function"
    },
    {
      "inputs": [],
      "name": "owner",
      "outputs": [
        {
          "internalType": "address",
          "name": "",
          "type": "address"
        }
      ],
      "stateMutability": "view",
      "type": "function"
    },
    {
      "inputs": [
        {
          "internalType": "address",
          "name": "",
          "type": "address"
        }
      ],
      "name": "partners",
      "outputs": [
        {
          "internalType": "address",
          "name": "admin",
          "type": "address"
        },
        {
          "internalType": "uint96",
          "name": "adminOwnPercent",
          "type": "uint96"
        },
        {
          "internalType": "uint96",
          "name": "referralOwnPercent",
          "type": "uint96"
        },
        {
          "internalType": "uint256",
          "name": "balance",
          "type": "uint256"
        },
        {
          "internalType": "uint96",
          "name": "discount",
          "type": "uint96"
        },
        {
          "internalType": "uint256",
          "name": "expiration",
          "type": "uint256"
        }
      ],
      "stateMutability": "view",
      "type": "function"
    },
    {
      "inputs": [],
      "name": "pause",
      "outputs": [],
      "stateMutability": "nonpayable",
      "type": "function"
    },
    {
      "inputs": [],
      "name": "paused",
      "outputs": [
        {
          "internalType": "bool",
          "name": "",
          "type": "bool"
        }
      ],
      "stateMutability": "view",
      "type": "function"
    },
    {
      "inputs": [],
      "name": "proxiableUUID",
      "outputs": [
        {
          "internalType": "bytes32",
          "name": "",
          "type": "bytes32"
        }
      ],
      "stateMutability": "view",
      "type": "function"
    },
    {
      "inputs": [],
      "name": "renounceOwnership",
      "outputs": [],
      "stateMutability": "nonpayable",
      "type": "function"
    },
    {
      "inputs": [
        {
          "internalType": "address",
          "name": "newOwner",
          "type": "address"
        }
      ],
      "name": "transferOwnership",
      "outputs": [],
      "stateMutability": "nonpayable",
      "type": "function"
    },
    {
      "inputs": [],
      "name": "unpause",
      "outputs": [],
      "stateMutability": "nonpayable",
      "type": "function"
    },
    {
      "inputs": [
        {
          "internalType": "address",
          "name": "_impl",
          "type": "address"
        }
      ],
      "name": "updateCollectionImpl",
      "outputs": [],
      "stateMutability": "payable",
      "type": "function"
    },
    {
      "inputs": [
        {
          "internalType": "address",
          "name": "_newMember",
          "type": "address"
        },
        {
          "internalType": "address",
          "name": "_collection",
          "type": "address"
        },
        {
          "internalType": "uint256",
          "name": "_deployFee",
          "type": "uint256"
        },
        {
          "internalType": "uint96",
          "name": "_platformFee",
          "type": "uint96"
        },
        {
          "internalType": "uint96",
          "name": "_discount",
          "type": "uint96"
        },
        {
          "internalType": "uint256",
          "name": "_expirationDays",
          "type": "uint256"
        }
      ],
      "name": "updateMember",
      "outputs": [],
      "stateMutability": "payable",
      "type": "function"
    },
    {
      "inputs": [
        {
          "internalType": "address",
          "name": "_collection",
          "type": "address"
        },
        {
          "internalType": "address",
          "name": "_admin",
          "type": "address"
        },
        {
          "internalType": "uint96",
          "name": "_adminOwnPercent",
          "type": "uint96"
        },
        {
          "internalType": "uint96",
          "name": "_referralOwnPercent",
          "type": "uint96"
        },
        {
          "internalType": "uint96",
          "name": "_discountPercent",
          "type": "uint96"
        },
        {
          "internalType": "uint40",
          "name": "_expireDaysFromNow",
          "type": "uint40"
        }
      ],
      "name": "updatePartnership",
      "outputs": [],
      "stateMutability": "nonpayable",
      "type": "function"
    },
    {
      "inputs": [
        {
          "internalType": "address",
          "name": "_newImplementation",
          "type": "address"
        }
      ],
      "name": "upgradeTo",
      "outputs": [],
      "stateMutability": "nonpayable",
      "type": "function"
    },
    {
      "inputs": [
        {
          "internalType": "address",
          "name": "newImplementation",
          "type": "address"
        },
        {
          "internalType": "bytes",
          "name": "data",
          "type": "bytes"
        }
      ],
      "name": "upgradeToAndCall",
      "outputs": [],
      "stateMutability": "payable",
      "type": "function"
    },
    {
      "inputs": [],
      "name": "withdraw",
      "outputs": [],
      "stateMutability": "payable",
      "type": "function"
    },
    {
      "inputs": [
        {
          "internalType": "address",
          "name": "_collection",
          "type": "address"
        }
      ],
      "name": "withdrawPartner",
      "outputs": [],
      "stateMutability": "nonpayable",
      "type": "function"
    },
    {
      "inputs": [
        {
          "internalType": "address",
          "name": "artist_",
          "type": "address"
        }
      ],
      "name": "withdrawReferral",
      "outputs": [],
      "stateMutability": "nonpayable",
      "type": "function"
    },
    {
      "stateMutability": "payable",
      "type": "receive"
    }
  ],
  "bytecode": "0x60a060405230608052348015610013575f80fd5b50608051613d0f6100485f395f81816117b101528181611861015281816119a90152818161280a01526128ba0152613d0f5ff3fe6080604052600436106101d0575f3560e01c8063557ed1ba116100f65780638da5cb5b11610094578063d57f966b11610063578063d57f966b1461070c578063f2fde38b14610721578063f705ca7514610740578063f9a432f81461075f576101d7565b80638da5cb5b1461059c57806395c33652146105c6578063b5b86a51146106a9578063b8d96c2e146106ed576101d7565b8063715018a6116100d0578063715018a61461054157806373627826146105555780638129fc1c146105745780638456cb5914610588576101d7565b8063557ed1ba146104fa5780635c975abb1461050c578063686ff5511461052e576101d7565b80632be7d54b1161016e5780633f4ba83a1161013d5780633f4ba83a146104a05780634a6798e8146104b45780634f1ef286146104d357806352d1902d146104e6576101d7565b80632be7d54b1461042e5780633166ef011461044d5780633659cfe6146104795780633ccfd60b14610498576101d7565b80630b819db2116101aa5780630b819db2146103a357806311ffb1d4146103db5780631c8ebc1e146103fc5780631e66345b1461040f576101d7565b8063016fa01814610209578063069dab8f1461026057806308ae4b0c146102e9576101d7565b366101d757005b6040517f28c3794a00000000000000000000000000000000000000000000000000000000815260040160405180910390fd5b348015610214575f80fd5b5061024d6102233660046134ae565b73ffffffffffffffffffffffffffffffffffffffff165f90815260fe602052604090206002015490565b6040519081526020015b60405180910390f35b34801561026b575f80fd5b506102b261027a3660046134ae565b60fd6020525f908152604090208054600182015460029092015473ffffffffffffffffffffffffffffffffffffffff91821692911683565b6040805173ffffffffffffffffffffffffffffffffffffffff94851681526020810193909352921691810191909152606001610257565b3480156102f4575f80fd5b506103566103033660046134ae565b60ff6020525f90815260409020805460018201546002830154600384015460049094015473ffffffffffffffffffffffffffffffffffffffff90931693919290916bffffffffffffffffffffffff169085565b6040805173ffffffffffffffffffffffffffffffffffffffff90961686526020860194909452928401919091526bffffffffffffffffffffffff166060830152608082015260a001610257565b6103b66103b136600461350f565b61077e565b60405173ffffffffffffffffffffffffffffffffffffffff9091168152602001610257565b3480156103e6575f80fd5b506103fa6103f53660046134ae565b610e21565b005b6103fa61040a366004613601565b610eb0565b34801561041a575f80fd5b506103fa6104293660046134ae565b6110d3565b348015610439575f80fd5b506103fa610448366004613663565b611146565b348015610458575f80fd5b5060fb546103b69073ffffffffffffffffffffffffffffffffffffffff1681565b348015610484575f80fd5b506103fa6104933660046134ae565b6114a1565b6103fa6114b5565b3480156104ab575f80fd5b506103fa611575565b3480156104bf575f80fd5b506103fa6104ce3660046134ae565b611587565b6103fa6104e13660046136c1565b61179a565b3480156104f1575f80fd5b5061024d611990565b348015610505575f80fd5b504261024d565b348015610517575f80fd5b5060c95460ff166040519015158152602001610257565b6103fa61053c3660046134ae565b611a7b565b34801561054c575f80fd5b506103fa611bfd565b348015610560575f80fd5b5061024d61056f36600461379b565b611c0e565b34801561057f575f80fd5b506103fa611c40565b348015610593575f80fd5b506103fa611dcd565b3480156105a7575f80fd5b5060335473ffffffffffffffffffffffffffffffffffffffff166103b6565b3480156105d1575f80fd5b5061064e6105e03660046134ae565b60fe6020525f90815260409020805460018201546002830154600384015460049094015473ffffffffffffffffffffffffffffffffffffffff8416946bffffffffffffffffffffffff7401000000000000000000000000000000000000000090950485169493841693169086565b6040805173ffffffffffffffffffffffffffffffffffffffff90971687526bffffffffffffffffffffffff958616602088015293851693860193909352606085019190915291909116608083015260a082015260c001610257565b3480156106b4575f80fd5b5061024d6106c33660046134ae565b73ffffffffffffffffffffffffffffffffffffffff165f90815260fd602052604090206001015490565b3480156106f8575f80fd5b506103fa6107073660046134ae565b611ddd565b348015610717575f80fd5b5061024d60fc5481565b34801561072c575f80fd5b506103fa61073b3660046134ae565b611e44565b34801561074b575f80fd5b506103fa61075a3660046134ae565b611ef8565b34801561076a575f80fd5b506103fa6107793660046137b2565b612106565b5f61079e60335473ffffffffffffffffffffffffffffffffffffffff1690565b73ffffffffffffffffffffffffffffffffffffffff163373ffffffffffffffffffffffffffffffffffffffff1614806107e75750335f90815260ff602052604090206004015442105b610858576040517f08c379a000000000000000000000000000000000000000000000000000000000815260040161084f9060208082526004908201527f4175746800000000000000000000000000000000000000000000000000000000604082015260600190565b60405180910390fd5b610860612305565b335f81815260fd60209081526040808320815160608082018452825473ffffffffffffffffffffffffffffffffffffffff90811683526001808501548488015260029485015482168487015288885260ff875296859020855160a0810187528154909216825296870154958101869052928601549383019390935260038501546bffffffffffffffffffffffff1692820183905260049094015460808201523493929091156109b7575f610918828460600151612372565b9050610924818361385c565b851015610960576040517fab5829160000000000000000000000000000000000000000000000000000000081526001600482015260240161084f565b604080518381526020810183905273ffffffffffffffffffffffffffffffffffffffff8816917f121699eaf121520009b74151fd58375119e44c6e46e8f5f80e5247fd0bc06da1910160405180910390a250610b67565b825173ffffffffffffffffffffffffffffffffffffffff1615610b2a5760408381015173ffffffffffffffffffffffffffffffffffffffff9081165f90815260fe6020908152838220845160c08101865281549485168152740100000000000000000000000000000000000000009094046bffffffffffffffffffffffff908116928501929092526001810154821694840194909452600284015460608401526003840154166080830181905260049093015460a08301529091610a7c908490612372565b9050610a88818461385c565b861015610ac4576040517fab5829160000000000000000000000000000000000000000000000000000000081526002600482015260240161084f565b610ad2858389898786612395565b604080518481526020810183905273ffffffffffffffffffffffffffffffffffffffff8916917f511dc57e9bf57b19763d6dc6d82c3efa05c35beb63ab037676fb7c52bde314a3910160405180910390a25050610b67565b80841015610b67576040517fab5829160000000000000000000000000000000000000000000000000000000081526003600482015260240161084f565b60408051606087901b7fffffffffffffffffffffffffffffffffffffffff00000000000000000000000016602082015281516014818303018152603490910190915260fb54610bcc9073ffffffffffffffffffffffffffffffffffffffff168261262f565b965073ffffffffffffffffffffffffffffffffffffffff8716610c1d576040517fab58291600000000000000000000000000000000000000000000000000000000815260048181015260240161084f565b5f83608001818152505086835f019073ffffffffffffffffffffffffffffffffffffffff16908173ffffffffffffffffffffffffffffffffffffffff16815250508260ff5f8873ffffffffffffffffffffffffffffffffffffffff1673ffffffffffffffffffffffffffffffffffffffff1681526020019081526020015f205f820151815f015f6101000a81548173ffffffffffffffffffffffffffffffffffffffff021916908373ffffffffffffffffffffffffffffffffffffffff16021790555060208201518160010155604082015181600201556060820151816003015f6101000a8154816bffffffffffffffffffffffff02191690836bffffffffffffffffffffffff1602179055506080820151816004015590505060fc5460010160fc819055508673ffffffffffffffffffffffffffffffffffffffff166360ff870e84604001518f8f8f8f8f8f6040518863ffffffff1660e01b8152600401610d8c9796959493929190613980565b5f604051808303815f87803b158015610da3575f80fd5b505af1158015610db5573d5f803e3d5ffd5b505060fb546040805173ffffffffffffffffffffffffffffffffffffffff92831681528b83166020820152918a1693507f3260bb218255e98a3f5731b9cd14cede49bbf1988ccd323b4a4912568739823192500160405180910390a25050505050509695505050505050565b610e29612772565b73ffffffffffffffffffffffffffffffffffffffff165f90815260ff6020526040812080547fffffffffffffffffffffffff000000000000000000000000000000000000000016815560018101829055600281018290556003810180547fffffffffffffffffffffffffffffffffffffffff00000000000000000000000016905560040155565b610eb8612772565b73ffffffffffffffffffffffffffffffffffffffff8616610f08576040517fcbb282d90000000000000000000000000000000000000000000000000000000081526001600482015260240161084f565b612710836bffffffffffffffffffffffff16108015610f365750612710826bffffffffffffffffffffffff16105b610f3e575f80fd5b6040518060a001604052808673ffffffffffffffffffffffffffffffffffffffff168152602001858152602001846bffffffffffffffffffffffff168152602001836bffffffffffffffffffffffff16815260200182603c610fa09190613b73565b610fab90603c613b73565b610fb6906018613b73565b610fc09042613b8a565b905273ffffffffffffffffffffffffffffffffffffffff8781165f90815260ff6020908152604091829020845181547fffffffffffffffffffffffff00000000000000000000000000000000000000001694169384178155848201516001820181905585840151600283018190556060808801516003850180547fffffffffffffffffffffffffffffffffffffffff000000000000000000000000166bffffffffffffffffffffffff909216918217905560809889015160049095018590558651978852948701929092529385019390935291830152918101919091527f7636fe15e140a62efb12e8fe33159c54b3c83c42313d40966642f8bbe6bf608d9060a0015b60405180910390a1505050505050565b6110db612772565b73ffffffffffffffffffffffffffffffffffffffff165f90815260fe602052604081208181556001810180547fffffffffffffffffffffffffffffffffffffffff00000000000000000000000090811690915560028201839055600382018054909116905560040155565b61114e612305565b73ffffffffffffffffffffffffffffffffffffffff8083165f90815260fe60209081526040808320815160c081018352815495861681526bffffffffffffffffffffffff7401000000000000000000000000000000000000000090960486169381019390935260018101548516918301919091526002810154606083015260038101549093166080820181905260049093015460a08201523392909190158015906111fc5750428260a00151115b905080611238576040517ff97aaed00000000000000000000000000000000000000000000000000000000081526001600482015260240161084f565b6040517f70a0823100000000000000000000000000000000000000000000000000000000815273ffffffffffffffffffffffffffffffffffffffff84811660048301525f9182918816906370a08231906024016020604051808303815f875af11580156112a7573d5f803e3d5ffd5b505050506040513d601f19601f820116820180604052508101906112cb9190613b9d565b11905080611308576040517ff97aaed00000000000000000000000000000000000000000000000000000000081526002600482015260240161084f565b8473ffffffffffffffffffffffffffffffffffffffff168473ffffffffffffffffffffffffffffffffffffffff1603611370576040517ff97aaed00000000000000000000000000000000000000000000000000000000081526003600482015260240161084f565b73ffffffffffffffffffffffffffffffffffffffff8581165f90815260fd602052604090205416156113d0576040517ff97aaed000000000000000000000000000000000000000000000000000000000815260048181015260240161084f565b6040805160608101825273ffffffffffffffffffffffffffffffffffffffff8681168083525f60208085018281528c85168688018181528d871680865260fd855294899020975188549088167fffffffffffffffffffffffff0000000000000000000000000000000000000000918216178955925160018901555160029097018054979096169690911695909517909355845191825291810192909252917f35ffbc061b07d6db6bbeaa77e8f6d55c84df847b91a72350195b7cc9f1068693910160405180910390a2505050505050565b6114a9612772565b6114b2816127f3565b50565b6114bd612772565b60405147905f90339083908381818185875af1925050503d805f81146114fe576040519150601f19603f3d011682016040523d82523d5f602084013e611503565b606091505b505090508061153e576040517f7e4211ac00000000000000000000000000000000000000000000000000000000815260040160405180910390fd5b6040518281527f36d87f67b5609def24de3917d6e2b3c0ddd29370bd33cc2eb5821e814dbc77299060200160405180910390a15050565b61157d612772565b6115856129f4565b565b61158f612305565b73ffffffffffffffffffffffffffffffffffffffff8082165f90815260fe6020908152604091829020825160c08101845281549485168082526bffffffffffffffffffffffff740100000000000000000000000000000000000000009096048616938201939093526001820154851693810193909352600281015460608401819052600382015490941660808401526004015460a08301523392908314611665576040517f27bc636d0000000000000000000000000000000000000000000000000000000081526001600482015260240161084f565b5f81116116a1576040517f27bc636d0000000000000000000000000000000000000000000000000000000081526002600482015260240161084f565b5f6060830181905260405173ffffffffffffffffffffffffffffffffffffffff85169083908381818185875af1925050503d805f81146116fc576040519150601f19603f3d011682016040523d82523d5f602084013e611701565b606091505b505090508061173f576040517f27bc636d0000000000000000000000000000000000000000000000000000000081526003600482015260240161084f565b6040805173ffffffffffffffffffffffffffffffffffffffff8781168252602082018590528616917f3cebcff4b474dd1638e05b88c97b76249ed7a5b06775d18fa6f9f978ced7eccf91015b60405180910390a25050505050565b73ffffffffffffffffffffffffffffffffffffffff7f000000000000000000000000000000000000000000000000000000000000000016300361185f576040517f08c379a000000000000000000000000000000000000000000000000000000000815260206004820152602c60248201527f46756e6374696f6e206d7573742062652063616c6c6564207468726f7567682060448201527f64656c656761746563616c6c0000000000000000000000000000000000000000606482015260840161084f565b7f000000000000000000000000000000000000000000000000000000000000000073ffffffffffffffffffffffffffffffffffffffff166118d47f360894a13ba1a3210667c828492db98dca3e2076cc3735a920a3ca505d382bbc5473ffffffffffffffffffffffffffffffffffffffff1690565b73ffffffffffffffffffffffffffffffffffffffff1614611977576040517f08c379a000000000000000000000000000000000000000000000000000000000815260206004820152602c60248201527f46756e6374696f6e206d7573742062652063616c6c6564207468726f7567682060448201527f6163746976652070726f78790000000000000000000000000000000000000000606482015260840161084f565b61198082612a71565b61198c82826001612a79565b5050565b5f3073ffffffffffffffffffffffffffffffffffffffff7f00000000000000000000000000000000000000000000000000000000000000001614611a56576040517f08c379a000000000000000000000000000000000000000000000000000000000815260206004820152603860248201527f555550535570677261646561626c653a206d757374206e6f742062652063616c60448201527f6c6564207468726f7567682064656c656761746563616c6c0000000000000000606482015260840161084f565b507f360894a13ba1a3210667c828492db98dca3e2076cc3735a920a3ca505d382bbc90565b611a83612772565b6040517f01ffc9a70000000000000000000000000000000000000000000000000000000081527fc21b8f2800000000000000000000000000000000000000000000000000000000600482015273ffffffffffffffffffffffffffffffffffffffff8216906301ffc9a7906024016020604051808303815f875af1158015611b0c573d5f803e3d5ffd5b505050506040513d601f19601f82011682018060405250810190611b309190613bb4565b15611b7a5760fb80547fffffffffffffffffffffffff00000000000000000000000000000000000000001673ffffffffffffffffffffffffffffffffffffffff8316179055611bac565b6040517f427f021400000000000000000000000000000000000000000000000000000000815260040160405180910390fd5b60fb5460405173ffffffffffffffffffffffffffffffffffffffff90911681527f1f429f4905add3396291cd5fed632430e672564b59710524a74bff513cc99f07906020015b60405180910390a150565b611c05612772565b6115855f612c7d565b5f611c1a82603c613b73565b611c2590603c613b73565b611c30906018613b73565b611c3a9042613b8a565b92915050565b5f54610100900460ff1615808015611c5e57505f54600160ff909116105b80611c775750303b158015611c7757505f5460ff166001145b611d03576040517f08c379a000000000000000000000000000000000000000000000000000000000815260206004820152602e60248201527f496e697469616c697a61626c653a20636f6e747261637420697320616c72656160448201527f647920696e697469616c697a6564000000000000000000000000000000000000606482015260840161084f565b5f80547fffffffffffffffffffffffffffffffffffffffffffffffffffffffffffffff001660011790558015611d5f575f80547fffffffffffffffffffffffffffffffffffffffffffffffffffffffffffff00ff166101001790555b611d67612cf3565b611d6f612d91565b80156114b2575f80547fffffffffffffffffffffffffffffffffffffffffffffffffffffffffffff00ff169055604051600181527f7f26b83ff96e1f2b6a682f133852f6798a09c465da95921460cefb384740249890602001611bf2565b611dd5612772565b611585612e2f565b611de5612772565b73ffffffffffffffffffffffffffffffffffffffff165f90815260fd6020526040812080547fffffffffffffffffffffffff00000000000000000000000000000000000000009081168255600182019290925560020180549091169055565b611e4c612772565b73ffffffffffffffffffffffffffffffffffffffff8116611eef576040517f08c379a000000000000000000000000000000000000000000000000000000000815260206004820152602660248201527f4f776e61626c653a206e6577206f776e657220697320746865207a65726f206160448201527f6464726573730000000000000000000000000000000000000000000000000000606482015260840161084f565b6114b281612c7d565b611f00612305565b73ffffffffffffffffffffffffffffffffffffffff8082165f90815260fd6020908152604091829020825160608101845281548516808252600183015493820193909352600290910154909316918301919091523391908214611f92576040517ffa8af8fc0000000000000000000000000000000000000000000000000000000081526001600482015260240161084f565b60208101515f819003611fd4576040517ffa8af8fc0000000000000000000000000000000000000000000000000000000081526002600482015260240161084f565b73ffffffffffffffffffffffffffffffffffffffff8481165f90815260fd602052604080822080547fffffffffffffffffffffffff000000000000000000000000000000000000000090811682556001820184905560029091018054909116905551909185169083908381818185875af1925050503d805f8114612073576040519150601f19603f3d011682016040523d82523d5f602084013e612078565b606091505b50509050806120b6576040517ffa8af8fc0000000000000000000000000000000000000000000000000000000081526003600482015260240161084f565b6040805173ffffffffffffffffffffffffffffffffffffffff8781168252602082018590528616917fc359f3a607928e86ec723fa39ad9790fcdf5b68416b174b0c7f9334cdda3b2f9910161178b565b61210e612772565b73ffffffffffffffffffffffffffffffffffffffff851661215b576040517f167bdd6700000000000000000000000000000000000000000000000000000000815260040160405180910390fd5b6040518060c001604052808673ffffffffffffffffffffffffffffffffffffffff168152602001856bffffffffffffffffffffffff168152602001846bffffffffffffffffffffffff1681526020015f8152602001836bffffffffffffffffffffffff16815260200182620151806121d39190613bcf565b6121e49064ffffffffff1642613b8a565b905273ffffffffffffffffffffffffffffffffffffffff8781165f90815260fe60209081526040918290208451858301516bffffffffffffffffffffffff9081167401000000000000000000000000000000000000000002918616828117808555888701516001860180549185167fffffffffffffffffffffffffffffffffffffffff00000000000000000000000092831681179091556060808c0151600289018190556080808e015160038b018054919099169516851790975560a09c8d015160049099018990558a5197909b169094178652918a1c96850196909652958301959095529381019490945291830152918101919091527fd88f6e4fff9497ce302d5f0a740974eb62cc6c8e794cc970c5206cb5018936a39060c0016110c3565b60c95460ff1615611585576040517f08c379a000000000000000000000000000000000000000000000000000000000815260206004820152601060248201527f5061757361626c653a2070617573656400000000000000000000000000000000604482015260640161084f565b5f61238e836bffffffffffffffffffffffff8416612710612e8a565b9392505050565b5f6123a0828461385c565b90505f8190505f6123b5838960400151612372565b90506123c1818361385c565b6020808b0183815273ffffffffffffffffffffffffffffffffffffffff808b165f90815260fd9093526040928390208d5181549083167fffffffffffffffffffffffff00000000000000000000000000000000000000009182168117835593516001830155848f0151600290920180549290931691161790559051919350907f5638fe1d59cbaff19a53ea05820ebcfe8d70bd87ba73873ceeea44c2071497319061246f9084815260200190565b60405180910390a25f612486848a60200151612372565b9050612492818461385c565b92508089606001516124a49190613b8a565b60608a0190815260408b81015173ffffffffffffffffffffffffffffffffffffffff9081165f90815260fe6020908152908390208d51828f01516bffffffffffffffffffffffff9081167401000000000000000000000000000000000000000002919094169081178255848f01516001830180549186167fffffffffffffffffffffffffffffffffffffffff0000000000000000000000009283161790559551600283015560808f01516003830180549190951696169590951790925560a08d015160049092019190915590518381527fffba746bd7819bccbdb2aa674c014ebacac05d280ba6f9f5912dadf6a9e3a22b910160405180910390a283826125ab8386613b8a565b6125b59190613b8a565b10156125f0576040517fee3231cb0000000000000000000000000000000000000000000000000000000081526002600482015260240161084f565b6040518381527f91582d1b5b6cbe42046740d0377969b6922857f4fae81ba3a7dce5023a607fa99060200160405180910390a150505050505050505050565b5f60608203516040830351602084035184518060208701018051600283016c5af43d3d93803e606057fd5bf3895289600d8a035278593da1005b363d3d373d3d3d3d610000806062363936013d738160481b1760218a03527f9e4ac34f21c619cefc926c8bd93b54bf5a39c7ab2127a895af1cc0691d7e3dff603a8a035272fd6100003d81600a3d39f336602c57343d527f6062820160781b1761ff9e82106059018a03528060f01b8352606c8101604c8a035ff0975050866126f95763301164255f526004601cfd5b905285527fffffffffffffffffffffffffffffffffffffffffffffffffffffffffffffffe08501527fffffffffffffffffffffffffffffffffffffffffffffffffffffffffffffffc08401527fffffffffffffffffffffffffffffffffffffffffffffffffffffffffffffffa090920191909152919050565b60335473ffffffffffffffffffffffffffffffffffffffff163314611585576040517f08c379a000000000000000000000000000000000000000000000000000000000815260206004820181905260248201527f4f776e61626c653a2063616c6c6572206973206e6f7420746865206f776e6572604482015260640161084f565b73ffffffffffffffffffffffffffffffffffffffff7f00000000000000000000000000000000000000000000000000000000000000001630036128b8576040517f08c379a000000000000000000000000000000000000000000000000000000000815260206004820152602c60248201527f46756e6374696f6e206d7573742062652063616c6c6564207468726f7567682060448201527f64656c656761746563616c6c0000000000000000000000000000000000000000606482015260840161084f565b7f000000000000000000000000000000000000000000000000000000000000000073ffffffffffffffffffffffffffffffffffffffff1661292d7f360894a13ba1a3210667c828492db98dca3e2076cc3735a920a3ca505d382bbc5473ffffffffffffffffffffffffffffffffffffffff1690565b73ffffffffffffffffffffffffffffffffffffffff16146129d0576040517f08c379a000000000000000000000000000000000000000000000000000000000815260206004820152602c60248201527f46756e6374696f6e206d7573742062652063616c6c6564207468726f7567682060448201527f6163746976652070726f78790000000000000000000000000000000000000000606482015260840161084f565b6129d981612a71565b604080515f808252602082019092526114b291839190612a79565b6129fc612faf565b60c980547fffffffffffffffffffffffffffffffffffffffffffffffffffffffffffffff001690557f5db9ee0a495bf2e6ff9c91a7834c1ba4fdd244a5e8aa4e537bd38aeae4b073aa335b60405173ffffffffffffffffffffffffffffffffffffffff909116815260200160405180910390a1565b6114b2612772565b7f4910fdfa16fed3260ed0e7147f7cc6da11a60208b5b9406d12a635614ffd91435460ff1615612ab157612aac8361301b565b505050565b8273ffffffffffffffffffffffffffffffffffffffff166352d1902d6040518163ffffffff1660e01b8152600401602060405180830381865afa925050508015612b36575060408051601f3d9081017fffffffffffffffffffffffffffffffffffffffffffffffffffffffffffffffe0168201909252612b3391810190613b9d565b60015b612bc2576040517f08c379a000000000000000000000000000000000000000000000000000000000815260206004820152602e60248201527f45524331393637557067726164653a206e657720696d706c656d656e7461746960448201527f6f6e206973206e6f742055555053000000000000000000000000000000000000606482015260840161084f565b7f360894a13ba1a3210667c828492db98dca3e2076cc3735a920a3ca505d382bbc8114612c71576040517f08c379a000000000000000000000000000000000000000000000000000000000815260206004820152602960248201527f45524331393637557067726164653a20756e737570706f727465642070726f7860448201527f6961626c65555549440000000000000000000000000000000000000000000000606482015260840161084f565b50612aac838383613125565b6033805473ffffffffffffffffffffffffffffffffffffffff8381167fffffffffffffffffffffffff0000000000000000000000000000000000000000831681179093556040519116919082907f8be0079c531659141344cd1fd0a4f28419497f9722a3daafe3b4186f6b6457e0905f90a35050565b5f54610100900460ff16612d89576040517f08c379a000000000000000000000000000000000000000000000000000000000815260206004820152602b60248201527f496e697469616c697a61626c653a20636f6e7472616374206973206e6f74206960448201527f6e697469616c697a696e67000000000000000000000000000000000000000000606482015260840161084f565b61158561314f565b5f54610100900460ff16612e27576040517f08c379a000000000000000000000000000000000000000000000000000000000815260206004820152602b60248201527f496e697469616c697a61626c653a20636f6e7472616374206973206e6f74206960448201527f6e697469616c697a696e67000000000000000000000000000000000000000000606482015260840161084f565b6115856131ee565b612e37612305565b60c980547fffffffffffffffffffffffffffffffffffffffffffffffffffffffffffffff001660011790557f62e78cea01bee320cd4e420270b5ea74000d11b0c9f74754ebdbfc544b05a258612a473390565b5f80807fffffffffffffffffffffffffffffffffffffffffffffffffffffffffffffffff858709858702925082811083820303915050805f03612ee057838281612ed657612ed6613bf8565b049250505061238e565b808411612f49576040517f08c379a000000000000000000000000000000000000000000000000000000000815260206004820152601560248201527f4d6174683a206d756c446976206f766572666c6f770000000000000000000000604482015260640161084f565b5f84868809600260036001881981018916988990049182028318808302840302808302840302808302840302808302840302808302840302918202909203025f889003889004909101858311909403939093029303949094049190911702949350505050565b60c95460ff16611585576040517f08c379a000000000000000000000000000000000000000000000000000000000815260206004820152601460248201527f5061757361626c653a206e6f7420706175736564000000000000000000000000604482015260640161084f565b73ffffffffffffffffffffffffffffffffffffffff81163b6130bf576040517f08c379a000000000000000000000000000000000000000000000000000000000815260206004820152602d60248201527f455243313936373a206e657720696d706c656d656e746174696f6e206973206e60448201527f6f74206120636f6e747261637400000000000000000000000000000000000000606482015260840161084f565b7f360894a13ba1a3210667c828492db98dca3e2076cc3735a920a3ca505d382bbc80547fffffffffffffffffffffffff00000000000000000000000000000000000000001673ffffffffffffffffffffffffffffffffffffffff92909216919091179055565b61312e836132ae565b5f8251118061313a5750805b15612aac5761314983836132fa565b50505050565b5f54610100900460ff166131e5576040517f08c379a000000000000000000000000000000000000000000000000000000000815260206004820152602b60248201527f496e697469616c697a61626c653a20636f6e7472616374206973206e6f74206960448201527f6e697469616c697a696e67000000000000000000000000000000000000000000606482015260840161084f565b61158533612c7d565b5f54610100900460ff16613284576040517f08c379a000000000000000000000000000000000000000000000000000000000815260206004820152602b60248201527f496e697469616c697a61626c653a20636f6e7472616374206973206e6f74206960448201527f6e697469616c697a696e67000000000000000000000000000000000000000000606482015260840161084f565b60c980547fffffffffffffffffffffffffffffffffffffffffffffffffffffffffffffff00169055565b6132b78161301b565b60405173ffffffffffffffffffffffffffffffffffffffff8216907fbc7cd75a20ee27fd9adebab32041f755214dbc6bffa90cc0225b39da2e5c2d3b905f90a250565b606061238e8383604051806060016040528060278152602001613cb36027913960605f808573ffffffffffffffffffffffffffffffffffffffff16856040516133439190613c47565b5f60405180830381855af49150503d805f811461337b576040519150601f19603f3d011682016040523d82523d5f602084013e613380565b606091505b50915091506133918683838761339b565b9695505050505050565b606083156134305782515f036134295773ffffffffffffffffffffffffffffffffffffffff85163b613429576040517f08c379a000000000000000000000000000000000000000000000000000000000815260206004820152601d60248201527f416464726573733a2063616c6c20746f206e6f6e2d636f6e7472616374000000604482015260640161084f565b508161343a565b61343a8383613442565b949350505050565b8151156134525781518083602001fd5b806040517f08c379a000000000000000000000000000000000000000000000000000000000815260040161084f9190613c62565b803573ffffffffffffffffffffffffffffffffffffffff811681146134a9575f80fd5b919050565b5f602082840312156134be575f80fd5b61238e82613486565b5f8083601f8401126134d7575f80fd5b50813567ffffffffffffffff8111156134ee575f80fd5b6020830191508360208260051b8501011115613508575f80fd5b9250929050565b5f805f805f808688036101e0811215613526575f80fd5b873567ffffffffffffffff8082111561353d575f80fd5b90890190610100828c031215613551575f80fd5b8198506101807fffffffffffffffffffffffffffffffffffffffffffffffffffffffffffffffe084011215613584575f80fd5b60208a0197506101a08a013592508083111561359e575f80fd5b6135aa8b848c016134c7565b90975095506101c08a01359250869150808311156135c6575f80fd5b50506135d489828a016134c7565b979a9699509497509295939492505050565b80356bffffffffffffffffffffffff811681146134a9575f80fd5b5f805f805f8060c08789031215613616575f80fd5b61361f87613486565b955061362d60208801613486565b945060408701359350613642606088016135e6565b9250613650608088016135e6565b915060a087013590509295509295509295565b5f8060408385031215613674575f80fd5b61367d83613486565b915061368b60208401613486565b90509250929050565b7f4e487b71000000000000000000000000000000000000000000000000000000005f52604160045260245ffd5b5f80604083850312156136d2575f80fd5b6136db83613486565b9150602083013567ffffffffffffffff808211156136f7575f80fd5b818501915085601f83011261370a575f80fd5b81358181111561371c5761371c613694565b604051601f82017fffffffffffffffffffffffffffffffffffffffffffffffffffffffffffffffe0908116603f0116810190838211818310171561376257613762613694565b8160405282815288602084870101111561377a575f80fd5b826020860160208301375f6020848301015280955050505050509250929050565b5f602082840312156137ab575f80fd5b5035919050565b5f805f805f8060c087890312156137c7575f80fd5b6137d087613486565b95506137de60208801613486565b94506137ec604088016135e6565b93506137fa606088016135e6565b9250613808608088016135e6565b915060a087013564ffffffffff81168114613821575f80fd5b809150509295509295509295565b7f4e487b71000000000000000000000000000000000000000000000000000000005f52601160045260245ffd5b81810381811115611c3a57611c3a61382f565b5f8083357fffffffffffffffffffffffffffffffffffffffffffffffffffffffffffffffe18436030181126138a2575f80fd5b830160208101925035905067ffffffffffffffff8111156138c1575f80fd5b803603821315613508575f80fd5b81835281816020850137505f602082840101525f60207fffffffffffffffffffffffffffffffffffffffffffffffffffffffffffffffe0601f840116840101905092915050565b80151581146114b2575f80fd5b80356134a981613916565b8183525f60208085019450825f5b858110156139755773ffffffffffffffffffffffffffffffffffffffff61396283613486565b168752958201959082019060010161393c565b509495945050505050565b5f610200898352806020840152613997898a61386f565b610100838601526139ad610300860182846138cf565b925050506139be60208a018a61386f565b7ffffffffffffffffffffffffffffffffffffffffffffffffffffffffffffffe0080868503016102208701526139f58483856138cf565b9350613a0460408d018d61386f565b935091508086850301610240870152613a1e8484846138cf565b9350613a2d60608d018d61386f565b93509150808685030161026087015250613a488383836138cf565b925050506080890135610280840152613a6360a08a016135e6565b6bffffffffffffffffffffffff166102a0840152613a8360c08a01613486565b73ffffffffffffffffffffffffffffffffffffffff166102c0840152613aab60e08a01613923565b8015156102e085015250613b3b6040840189803582526020810135602083015260408101356040830152606081013560608301526080810135608083015260a081013560a083015260c081013560c083015260e081013560e08301526101008082013581840152506101208082013581840152506101408082013581840152506101608082013581840152505050565b8281036101c0840152613b4f81878961392e565b90508281036101e0840152613b6581858761392e565b9a9950505050505050505050565b8082028115828204841417611c3a57611c3a61382f565b80820180821115611c3a57611c3a61382f565b5f60208284031215613bad575f80fd5b5051919050565b5f60208284031215613bc4575f80fd5b815161238e81613916565b64ffffffffff818116838216028082169190828114613bf057613bf061382f565b505092915050565b7f4e487b71000000000000000000000000000000000000000000000000000000005f52601260045260245ffd5b5f5b83811015613c3f578181015183820152602001613c27565b50505f910152565b5f8251613c58818460208701613c25565b9190910192915050565b602081525f8251806020840152613c80816040850160208701613c25565b601f017fffffffffffffffffffffffffffffffffffffffffffffffffffffffffffffffe016919091016040019291505056fe416464726573733a206c6f772d6c6576656c2064656c65676174652063616c6c206661696c6564a264697066735822122066fe789ca688a7c5842f49777b12b4739240489728acf07fc0b18bf20c35344664736f6c63430008140033",
  "linkReferences": {},
  "deployedLinkReferences": {}
}