{
  "_format": "hh-sol-artifact-1",
  "contractName": "MvxFactory",
  "sourceName": "src/MvxFactory.sol",
  "abi": [
    {
      "inputs": [
        {
          "internalType": "uint256",
          "name": "freeOnMint",
          "type": "uint256"
        }
      ],
      "stateMutability": "nonpayable",
      "type": "constructor"
    },
    {
      "inputs": [],
      "name": "CreateCloneError",
      "type": "error"
    },
    {
      "inputs": [
        {
          "internalType": "uint8",
          "name": "",
          "type": "uint8"
        }
      ],
      "name": "InvalidColletion",
      "type": "error"
    },
    {
      "anonymous": false,
      "inputs": [
        {
          "indexed": true,
          "internalType": "address",
          "name": "sender",
          "type": "address"
        },
        {
          "indexed": false,
          "internalType": "address",
          "name": "impl",
          "type": "address"
        },
        {
          "indexed": false,
          "internalType": "address",
          "name": "cloneAddress",
          "type": "address"
        }
      ],
      "name": "CreateCloneEvent",
      "type": "event"
    },
    {
      "anonymous": false,
      "inputs": [
        {
          "indexed": false,
          "internalType": "address",
          "name": "sender",
          "type": "address"
        },
        {
          "indexed": false,
          "internalType": "address",
          "name": "template",
          "type": "address"
        },
        {
          "indexed": false,
          "internalType": "address",
          "name": "clone",
          "type": "address"
        }
      ],
      "name": "CreateCollectionEvent",
      "type": "event"
    },
    {
      "anonymous": false,
      "inputs": [
        {
          "indexed": false,
          "internalType": "address",
          "name": "sender",
          "type": "address"
        },
        {
          "indexed": false,
          "internalType": "address",
          "name": "collection",
          "type": "address"
        }
      ],
      "name": "InitCollectionEvent",
      "type": "event"
    },
    {
      "anonymous": false,
      "inputs": [
        {
          "indexed": false,
          "internalType": "address",
          "name": "sender",
          "type": "address"
        }
      ],
      "name": "InitOwnerEvent",
      "type": "event"
    },
    {
      "stateMutability": "payable",
      "type": "fallback"
    },
    {
      "inputs": [],
      "name": "_collectionImpl",
      "outputs": [
        {
          "internalType": "address",
          "name": "",
          "type": "address"
        }
      ],
      "stateMutability": "view",
      "type": "function"
    },
    {
      "inputs": [],
      "name": "_deployFee",
      "outputs": [
        {
          "internalType": "uint256",
          "name": "",
          "type": "uint256"
        }
      ],
      "stateMutability": "view",
      "type": "function"
    },
    {
      "inputs": [],
      "name": "_mintFee",
      "outputs": [
        {
          "internalType": "uint256",
          "name": "",
          "type": "uint256"
        }
      ],
      "stateMutability": "view",
      "type": "function"
    },
    {
      "inputs": [],
      "name": "_owner",
      "outputs": [
        {
          "internalType": "address",
          "name": "",
          "type": "address"
        }
      ],
      "stateMutability": "view",
      "type": "function"
    },
    {
      "inputs": [
        {
          "internalType": "address",
          "name": "",
          "type": "address"
        }
      ],
      "name": "collections",
      "outputs": [
        {
          "internalType": "address",
          "name": "",
          "type": "address"
        }
      ],
      "stateMutability": "view",
      "type": "function"
    },
    {
      "inputs": [
        {
          "internalType": "bytes",
          "name": "nftsData",
          "type": "bytes"
        },
        {
          "internalType": "address[]",
          "name": "initialOGMinters",
          "type": "address[]"
        },
        {
          "internalType": "address[]",
          "name": "initialWLMinters",
          "type": "address[]"
        },
        {
          "internalType": "uint256[]",
          "name": "mintingStages",
          "type": "uint256[]"
        }
      ],
      "name": "createCollection",
      "outputs": [
        {
          "internalType": "address",
          "name": "_clone",
          "type": "address"
        }
      ],
      "stateMutability": "payable",
      "type": "function"
    },
    {
      "inputs": [],
      "name": "getTime",
      "outputs": [
        {
          "internalType": "uint256",
          "name": "_time",
          "type": "uint256"
        }
      ],
      "stateMutability": "view",
      "type": "function"
    },
    {
      "inputs": [
        {
          "internalType": "uint256",
          "name": "_daysFromNow",
          "type": "uint256"
        }
      ],
      "name": "getTime",
      "outputs": [
        {
          "internalType": "uint256",
          "name": "_time",
          "type": "uint256"
        }
      ],
      "stateMutability": "view",
      "type": "function"
    },
    {
      "inputs": [
        {
          "internalType": "address",
          "name": "",
          "type": "address"
        }
      ],
      "name": "members",
      "outputs": [
        {
          "internalType": "uint256",
          "name": "",
          "type": "uint256"
        }
      ],
      "stateMutability": "view",
      "type": "function"
    },
    {
      "inputs": [
        {
          "internalType": "address",
          "name": "impl",
          "type": "address"
        }
      ],
      "name": "setCollectionImpl",
      "outputs": [],
      "stateMutability": "payable",
      "type": "function"
    },
    {
      "inputs": [],
      "name": "totalCollections",
      "outputs": [
        {
          "internalType": "uint256",
          "name": "_total",
          "type": "uint256"
        }
      ],
      "stateMutability": "view",
      "type": "function"
    },
    {
      "inputs": [
        {
          "internalType": "address",
          "name": "newOner",
          "type": "address"
        }
      ],
      "name": "transferOwnerShip",
      "outputs": [],
      "stateMutability": "payable",
      "type": "function"
    },
    {
      "inputs": [
        {
          "internalType": "uint256",
          "name": "_newFee",
          "type": "uint256"
        }
      ],
      "name": "updateDeployFee",
      "outputs": [],
      "stateMutability": "payable",
      "type": "function"
    },
    {
      "inputs": [
        {
          "internalType": "address",
          "name": "user",
          "type": "address"
        },
        {
          "internalType": "uint256",
          "name": "expire",
          "type": "uint256"
        }
      ],
      "name": "updateMember",
      "outputs": [],
      "stateMutability": "payable",
      "type": "function"
    },
    {
      "inputs": [
        {
          "internalType": "uint256",
          "name": "fee",
          "type": "uint256"
        }
      ],
      "name": "updateMintFee",
      "outputs": [],
      "stateMutability": "payable",
      "type": "function"
    },
    {
      "inputs": [],
      "name": "withdraw",
      "outputs": [],
      "stateMutability": "payable",
      "type": "function"
    },
    {
      "stateMutability": "payable",
      "type": "receive"
    }
  ],
  "bytecode": "0x608060405234801561001057600080fd5b50604051610dff380380610dff83398101604081905261002f91610082565b600380546001600160a01b0319163390811790915560058290556040519081527fe2055b4a17156dbca92ef540b83891300ae11bef4c8a16e4dc4c836616bbbc5e9060200160405180910390a15061009b565b60006020828403121561009457600080fd5b5051919050565b610d55806100aa6000396000f3fe6080604052600436106100f75760003560e01c80637ed6f6a61161008a578063a760d1a911610059578063a760d1a91461028e578063b2bdfa7b146102a1578063be2a4aaa146102c1578063f2a08abb146102e1576100fe565b80637ed6f6a61461023f57806384017e52146102525780638863dd1a1461026557806399d3aef814610278576100fe565b806343add2e6116100c657806343add2e6146101c1578063557ed1ba146101f757806361d9db2d1461020a578063736278261461021f576100fe565b806308ae4b0c14610139578063336137c8146101795780633aaabfe81461018e5780633ccfd60b146101b9576100fe565b366100fe57005b60405162461bcd60e51b815260206004820152600b60248201526a155b9cdd5c1c1bdc9d195960aa1b60448201526064015b60405180910390fd5b34801561014557600080fd5b50610166610154366004610a06565b60016020526000908152604090205481565b6040519081526020015b60405180910390f35b61018c610187366004610a28565b6102f7565b005b6101a161019c366004610a9e565b6103b5565b6040516001600160a01b039091168152602001610170565b61018c61066a565b3480156101cd57600080fd5b506101a16101dc366004610a06565b6000602081905290815260409020546001600160a01b031681565b34801561020357600080fd5b5042610166565b34801561021657600080fd5b50600654610166565b34801561022b57600080fd5b5061016661023a366004610b8d565b6106c3565b61018c61024d366004610b8d565b6106f6565b61018c610260366004610b8d565b610763565b61018c610273366004610a06565b610792565b34801561028457600080fd5b5061016660045481565b61018c61029c366004610a06565b610823565b3480156102ad57600080fd5b506003546101a1906001600160a01b031681565b3480156102cd57600080fd5b506002546101a1906001600160a01b031681565b3480156102ed57600080fd5b5061016660055481565b6003546001600160a01b031633146103215760405162461bcd60e51b815260040161013090610ba6565b600061032e82603c610be0565b61033990603c610be0565b610344906018610be0565b61034e9042610bf7565b90508042106103955760405162461bcd60e51b8152602060048201526013602482015272125b9d985b1a59081d985b1a59081d5b9d1a5b606a1b6044820152606401610130565b6001600160a01b0390921660009081526001602052604090209190915550565b6003546000906001600160a01b03163314806103e05750336000908152600160205260409020544211155b6104185760405162461bcd60e51b815260206004820152600960248201526809edcd8f24082eae8d60bb1b6044820152606401610130565b60045434101561045f5760405162461bcd60e51b81526020600482015260126024820152714d697373696e67206465706c6f792066656560701b6044820152606401610130565b604080513360601b6bffffffffffffffffffffffff191660208201528151601481830301815260349091019091526002546104a3906001600160a01b0316826108fe565b91506001600160a01b0382166104cc57604051633d80716b60e11b815260040160405180910390fd5b336000818152602081815260409182902080546001600160a01b0319166001600160a01b03878116918217909255600254845195865290911691840191909152908201527f3139cdb0cb014c974ebe32298933f6d15740acf85d0c96c06622349626c081a19060600160405180910390a160006004543461054d9190610c0a565b11156105905760045433906108fc906105669034610c0a565b6040518115909202916000818181858888f1935050505015801561058e573d6000803e3d6000fd5b505b33600090815260016020526040808220919091556005549051630187a3dd60e41b81526001600160a01b0384169163187a3dd0916105e191908e908e908e908e908e908e908e908e90600401610c64565b600060405180830381600087803b1580156105fb57600080fd5b505af115801561060f573d6000803e3d6000fd5b50506006805460010190555050604080513381526001600160a01b03841660208201527f341d20911b8c9f75aff046f835ead78f73dfa120c3bdc66f8a852831f83e6a70910160405180910390a15098975050505050505050565b6003546001600160a01b031633146106945760405162461bcd60e51b815260040161013090610ba6565b60405133904780156108fc02916000818181858888f193505050501580156106c0573d6000803e3d6000fd5b50565b60006106d082603c610be0565b6106db90603c610be0565b6106e6906018610be0565b6106f09042610bf7565b92915050565b6003546001600160a01b031633146107205760405162461bcd60e51b815260040161013090610ba6565b6000811161075e5760405162461bcd60e51b815260206004820152600b60248201526a496e76616c69642046656560a81b6044820152606401610130565b600455565b6003546001600160a01b0316331461078d5760405162461bcd60e51b815260040161013090610ba6565b600555565b6003546001600160a01b031633146107bc5760405162461bcd60e51b815260040161013090610ba6565b6001600160a01b0381166108015760405162461bcd60e51b815260206004820152600c60248201526b5a65726f206164647265737360a01b6044820152606401610130565b600380546001600160a01b0319166001600160a01b0392909216919091179055565b6003546001600160a01b0316331461084d5760405162461bcd60e51b815260040161013090610ba6565b6040516301ffc9a760e01b815263184371e560e31b60048201526001600160a01b038216906301ffc9a790602401602060405180830381865afa158015610898573d6000803e3d6000fd5b505050506040513d601f19601f820116820180604052508101906108bc9190610cfd565b6108dc576040516304cb937960e01b815260026004820152602401610130565b600280546001600160a01b0319166001600160a01b0392909216919091179055565b600060608203516040830351602084035184518060208701018051600283016c5af43d3d93803e606057fd5bf3895289600d8a035278593da1005b363d3d373d3d3d3d610000806062363936013d738160481b1760218a03527f9e4ac34f21c619cefc926c8bd93b54bf5a39c7ab2127a895af1cc0691d7e3dff603a8a035272fd6100003d81600a3d39f336602c57343d527f6062820160781b1761ff9e82106059018a03528060f01b8352606c8101604c8a036000f0975050866109cb5763301164256000526004601cfd5b90528552601f19850152603f19840152605f1990920191909152919050565b80356001600160a01b0381168114610a0157600080fd5b919050565b600060208284031215610a1857600080fd5b610a21826109ea565b9392505050565b60008060408385031215610a3b57600080fd5b610a44836109ea565b946020939093013593505050565b60008083601f840112610a6457600080fd5b50813567ffffffffffffffff811115610a7c57600080fd5b6020830191508360208260051b8501011115610a9757600080fd5b9250929050565b6000806000806000806000806080898b031215610aba57600080fd5b883567ffffffffffffffff80821115610ad257600080fd5b818b0191508b601f830112610ae657600080fd5b813581811115610af557600080fd5b8c6020828501011115610b0757600080fd5b60209283019a509850908a01359080821115610b2257600080fd5b610b2e8c838d01610a52565b909850965060408b0135915080821115610b4757600080fd5b610b538c838d01610a52565b909650945060608b0135915080821115610b6c57600080fd5b50610b798b828c01610a52565b999c989b5096995094979396929594505050565b600060208284031215610b9f57600080fd5b5035919050565b6020808252600a908201526927b7363c9037bbb732b960b11b604082015260600190565b634e487b7160e01b600052601160045260246000fd5b80820281158282048414176106f0576106f0610bca565b808201808211156106f0576106f0610bca565b818103818111156106f0576106f0610bca565b8183526000602080850194508260005b85811015610c59576001600160a01b03610c46836109ea565b1687529582019590820190600101610c2d565b509495945050505050565b89815260a060208201528760a0820152878960c0830137600060c089830101526000601f19601f8a0116820160c0838203016040840152610ca960c08201898b610c1d565b90508281036060840152610cbe818789610c1d565b838103608085015284815290506001600160fb1b03841115610cdf57600080fd5b8360051b80866020840137016020019b9a5050505050505050505050565b600060208284031215610d0f57600080fd5b81518015158114610a2157600080fdfea2646970667358221220b293dbc1a5ce6fe5a002528d7c0a3231868f374dfb77901f449029c5e272c85b64736f6c63430008140033",
  "linkReferences": {},
  "deployedLinkReferences": {}
}