{
  "_format": "hh-sol-artifact-1",
  "contractName": "MvxFactory",
  "sourceName": "src/MvxFactory.sol",
  "abi": [
    {
      "inputs": [
        {
          "internalType": "uint8",
          "name": "",
          "type": "uint8"
        }
      ],
      "name": "CreateError",
      "type": "error"
    },
    {
      "inputs": [
        {
          "internalType": "uint8",
          "name": "",
          "type": "uint8"
        }
      ],
      "name": "DiscountError",
      "type": "error"
    },
    {
      "inputs": [
        {
          "internalType": "uint8",
          "name": "",
          "type": "uint8"
        }
      ],
      "name": "GrantReferralError",
      "type": "error"
    },
    {
      "inputs": [
        {
          "internalType": "uint8",
          "name": "",
          "type": "uint8"
        }
      ],
      "name": "InvalidColletion",
      "type": "error"
    },
    {
      "inputs": [
        {
          "internalType": "uint8",
          "name": "",
          "type": "uint8"
        }
      ],
      "name": "Unathorized",
      "type": "error"
    },
    {
      "inputs": [
        {
          "internalType": "uint8",
          "name": "",
          "type": "uint8"
        }
      ],
      "name": "UpdateMemberError",
      "type": "error"
    },
    {
      "inputs": [
        {
          "internalType": "uint8",
          "name": "",
          "type": "uint8"
        }
      ],
      "name": "WithdrawPartnerError",
      "type": "error"
    },
    {
      "inputs": [
        {
          "internalType": "uint8",
          "name": "",
          "type": "uint8"
        }
      ],
      "name": "WithdrawReferralError",
      "type": "error"
    },
    {
      "anonymous": false,
      "inputs": [
        {
          "indexed": false,
          "internalType": "address",
          "name": "previousAdmin",
          "type": "address"
        },
        {
          "indexed": false,
          "internalType": "address",
          "name": "newAdmin",
          "type": "address"
        }
      ],
      "name": "AdminChanged",
      "type": "event"
    },
    {
      "anonymous": false,
      "inputs": [
        {
          "indexed": true,
          "internalType": "address",
          "name": "beacon",
          "type": "address"
        }
      ],
      "name": "BeaconUpgraded",
      "type": "event"
    },
    {
      "anonymous": false,
      "inputs": [
        {
          "indexed": true,
          "internalType": "address",
          "name": "_collection",
          "type": "address"
        },
        {
          "indexed": true,
          "internalType": "uint96",
          "name": "_discount",
          "type": "uint96"
        }
      ],
      "name": "CollectionDiscount",
      "type": "event"
    },
    {
      "anonymous": false,
      "inputs": [
        {
          "indexed": false,
          "internalType": "address",
          "name": "sender",
          "type": "address"
        },
        {
          "indexed": false,
          "internalType": "address",
          "name": "template",
          "type": "address"
        },
        {
          "indexed": false,
          "internalType": "address",
          "name": "clone",
          "type": "address"
        }
      ],
      "name": "CreateCollectionEvent",
      "type": "event"
    },
    {
      "anonymous": false,
      "inputs": [
        {
          "indexed": true,
          "internalType": "address",
          "name": "sender",
          "type": "address"
        },
        {
          "indexed": false,
          "internalType": "address",
          "name": "impl",
          "type": "address"
        },
        {
          "indexed": false,
          "internalType": "address",
          "name": "cloneAddress",
          "type": "address"
        }
      ],
      "name": "CreateEvent",
      "type": "event"
    },
    {
      "anonymous": false,
      "inputs": [
        {
          "indexed": false,
          "internalType": "address",
          "name": "sender",
          "type": "address"
        },
        {
          "indexed": false,
          "internalType": "address",
          "name": "collection",
          "type": "address"
        }
      ],
      "name": "InitCollectionEvent",
      "type": "event"
    },
    {
      "anonymous": false,
      "inputs": [
        {
          "indexed": false,
          "internalType": "uint8",
          "name": "version",
          "type": "uint8"
        }
      ],
      "name": "Initialized",
      "type": "event"
    },
    {
      "anonymous": false,
      "inputs": [
        {
          "indexed": false,
          "internalType": "string",
          "name": "",
          "type": "string"
        },
        {
          "indexed": false,
          "internalType": "uint256",
          "name": "",
          "type": "uint256"
        }
      ],
      "name": "Log",
      "type": "event"
    },
    {
      "anonymous": false,
      "inputs": [
        {
          "indexed": false,
          "internalType": "string",
          "name": "",
          "type": "string"
        },
        {
          "indexed": false,
          "internalType": "bool",
          "name": "",
          "type": "bool"
        }
      ],
      "name": "Log",
      "type": "event"
    },
    {
      "anonymous": false,
      "inputs": [
        {
          "indexed": true,
          "internalType": "address",
          "name": "previousOwner",
          "type": "address"
        },
        {
          "indexed": true,
          "internalType": "address",
          "name": "newOwner",
          "type": "address"
        }
      ],
      "name": "OwnershipTransferred",
      "type": "event"
    },
    {
      "anonymous": false,
      "inputs": [
        {
          "indexed": false,
          "internalType": "address",
          "name": "",
          "type": "address"
        },
        {
          "indexed": false,
          "internalType": "uint256",
          "name": "",
          "type": "uint256"
        }
      ],
      "name": "PartnerBalanceUpdate",
      "type": "event"
    },
    {
      "anonymous": false,
      "inputs": [
        {
          "indexed": false,
          "internalType": "address",
          "name": "",
          "type": "address"
        },
        {
          "indexed": false,
          "internalType": "uint256",
          "name": "",
          "type": "uint256"
        }
      ],
      "name": "ReferralBalanceUpdate",
      "type": "event"
    },
    {
      "anonymous": false,
      "inputs": [
        {
          "indexed": true,
          "internalType": "address",
          "name": "_artist",
          "type": "address"
        },
        {
          "indexed": true,
          "internalType": "address",
          "name": "_sender",
          "type": "address"
        },
        {
          "indexed": true,
          "internalType": "address",
          "name": "_collection",
          "type": "address"
        }
      ],
      "name": "ReferralDiscount",
      "type": "event"
    },
    {
      "anonymous": false,
      "inputs": [
        {
          "components": [
            {
              "internalType": "address",
              "name": "admin",
              "type": "address"
            },
            {
              "internalType": "uint96",
              "name": "adminOwnPercent",
              "type": "uint96"
            },
            {
              "internalType": "uint96",
              "name": "referralOwnPercent",
              "type": "uint96"
            },
            {
              "internalType": "uint256",
              "name": "balance",
              "type": "uint256"
            },
            {
              "internalType": "uint96",
              "name": "discount",
              "type": "uint96"
            },
            {
              "internalType": "uint40",
              "name": "expiration",
              "type": "uint40"
            }
          ],
          "indexed": false,
          "internalType": "struct Partner",
          "name": "",
          "type": "tuple"
        }
      ],
      "name": "UpdatePartnerEvent",
      "type": "event"
    },
    {
      "anonymous": false,
      "inputs": [
        {
          "indexed": true,
          "internalType": "address",
          "name": "implementation",
          "type": "address"
        }
      ],
      "name": "Upgraded",
      "type": "event"
    },
    {
      "anonymous": false,
      "inputs": [
        {
          "indexed": true,
          "internalType": "address",
          "name": "_sender",
          "type": "address"
        },
        {
          "indexed": true,
          "internalType": "address",
          "name": "_collection",
          "type": "address"
        },
        {
          "indexed": false,
          "internalType": "uint256",
          "name": "_balance",
          "type": "uint256"
        }
      ],
      "name": "WithdrawPartner",
      "type": "event"
    },
    {
      "anonymous": false,
      "inputs": [
        {
          "indexed": true,
          "internalType": "address",
          "name": "_sender",
          "type": "address"
        },
        {
          "indexed": true,
          "internalType": "address",
          "name": "_artist",
          "type": "address"
        },
        {
          "indexed": false,
          "internalType": "uint256",
          "name": "_referralBalance",
          "type": "uint256"
        }
      ],
      "name": "WithdrawReferral",
      "type": "event"
    },
    {
      "stateMutability": "payable",
      "type": "fallback"
    },
    {
      "inputs": [
        {
          "internalType": "uint256",
          "name": "a",
          "type": "uint256"
        },
        {
          "internalType": "uint96",
          "name": "b",
          "type": "uint96"
        }
      ],
      "name": "_percent",
      "outputs": [
        {
          "internalType": "uint256",
          "name": "",
          "type": "uint256"
        }
      ],
      "stateMutability": "pure",
      "type": "function"
    },
    {
      "inputs": [
        {
          "internalType": "address",
          "name": "",
          "type": "address"
        }
      ],
      "name": "artists",
      "outputs": [
        {
          "internalType": "address",
          "name": "referral",
          "type": "address"
        },
        {
          "internalType": "uint256",
          "name": "referralBalance",
          "type": "uint256"
        },
        {
          "internalType": "address",
          "name": "collection",
          "type": "address"
        }
      ],
      "stateMutability": "view",
      "type": "function"
    },
    {
      "inputs": [],
      "name": "collectionCount",
      "outputs": [
        {
          "internalType": "uint256",
          "name": "",
          "type": "uint256"
        }
      ],
      "stateMutability": "view",
      "type": "function"
    },
    {
      "inputs": [],
      "name": "collectionImpl",
      "outputs": [
        {
          "internalType": "address",
          "name": "",
          "type": "address"
        }
      ],
      "stateMutability": "view",
      "type": "function"
    },
    {
      "inputs": [
        {
          "components": [
            {
              "internalType": "string",
              "name": "name",
              "type": "string"
            },
            {
              "internalType": "string",
              "name": "symbol",
              "type": "string"
            },
            {
              "internalType": "string",
              "name": "baseURI",
              "type": "string"
            },
            {
              "internalType": "string",
              "name": "baseExt",
              "type": "string"
            },
            {
              "internalType": "uint256",
              "name": "maxSupply",
              "type": "uint256"
            },
            {
              "internalType": "uint96",
              "name": "royaltyFee",
              "type": "uint96"
            },
            {
              "internalType": "address",
              "name": "royaltyReceiver",
              "type": "address"
            }
          ],
          "internalType": "struct Collection",
          "name": "_nftsData",
          "type": "tuple"
        },
        {
          "components": [
            {
              "internalType": "uint256",
              "name": "ogMintPrice",
              "type": "uint256"
            },
            {
              "internalType": "uint256",
              "name": "whitelistMintPrice",
              "type": "uint256"
            },
            {
              "internalType": "uint256",
              "name": "mintPrice",
              "type": "uint256"
            },
            {
              "internalType": "uint256",
              "name": "mintMaxPerUser",
              "type": "uint256"
            },
            {
              "internalType": "uint256",
              "name": "ogMintMaxPerUser",
              "type": "uint256"
            },
            {
              "internalType": "uint256",
              "name": "whitelistMintMaxPerUser",
              "type": "uint256"
            },
            {
              "internalType": "uint256",
              "name": "mintStart",
              "type": "uint256"
            },
            {
              "internalType": "uint256",
              "name": "mintEnd",
              "type": "uint256"
            },
            {
              "internalType": "uint256",
              "name": "ogMintStart",
              "type": "uint256"
            },
            {
              "internalType": "uint256",
              "name": "ogMintEnd",
              "type": "uint256"
            },
            {
              "internalType": "uint256",
              "name": "whitelistMintStart",
              "type": "uint256"
            },
            {
              "internalType": "uint256",
              "name": "whitelistMintEnd",
              "type": "uint256"
            }
          ],
          "internalType": "struct Stages",
          "name": "_mintingStages",
          "type": "tuple"
        },
        {
          "internalType": "address[]",
          "name": "_ogs",
          "type": "address[]"
        },
        {
          "internalType": "address[]",
          "name": "_wls",
          "type": "address[]"
        }
      ],
      "name": "createCollection",
      "outputs": [
        {
          "internalType": "address",
          "name": "_clone",
          "type": "address"
        }
      ],
      "stateMutability": "payable",
      "type": "function"
    },
    {
      "inputs": [
        {
          "internalType": "address",
          "name": "_artist",
          "type": "address"
        }
      ],
      "name": "deleteArtist",
      "outputs": [],
      "stateMutability": "nonpayable",
      "type": "function"
    },
    {
      "inputs": [
        {
          "internalType": "address",
          "name": "_member",
          "type": "address"
        }
      ],
      "name": "deleteMember",
      "outputs": [],
      "stateMutability": "nonpayable",
      "type": "function"
    },
    {
      "inputs": [
        {
          "internalType": "address",
          "name": "_collection",
          "type": "address"
        }
      ],
      "name": "getPartnerBalance",
      "outputs": [
        {
          "internalType": "uint256",
          "name": "_balance",
          "type": "uint256"
        }
      ],
      "stateMutability": "view",
      "type": "function"
    },
    {
      "inputs": [
        {
          "internalType": "address",
          "name": "_artist",
          "type": "address"
        }
      ],
      "name": "getReferralBalance",
      "outputs": [
        {
          "internalType": "uint256",
          "name": "_balance",
          "type": "uint256"
        }
      ],
      "stateMutability": "view",
      "type": "function"
    },
    {
      "inputs": [],
      "name": "getTime",
      "outputs": [
        {
          "internalType": "uint256",
          "name": "_time",
          "type": "uint256"
        }
      ],
      "stateMutability": "view",
      "type": "function"
    },
    {
      "inputs": [
        {
          "internalType": "uint256",
          "name": "_daysFromNow",
          "type": "uint256"
        }
      ],
      "name": "getTime",
      "outputs": [
        {
          "internalType": "uint256",
          "name": "_time",
          "type": "uint256"
        }
      ],
      "stateMutability": "view",
      "type": "function"
    },
    {
      "inputs": [
        {
          "internalType": "address",
          "name": "_extCollection",
          "type": "address"
        },
        {
          "internalType": "address",
          "name": "_artist",
          "type": "address"
        }
      ],
      "name": "grantReferral",
      "outputs": [],
      "stateMutability": "nonpayable",
      "type": "function"
    },
    {
      "inputs": [],
      "name": "initialize",
      "outputs": [],
      "stateMutability": "nonpayable",
      "type": "function"
    },
    {
      "inputs": [
        {
          "internalType": "address",
          "name": "",
          "type": "address"
        }
      ],
      "name": "members",
      "outputs": [
        {
          "internalType": "address",
          "name": "collection",
          "type": "address"
        },
        {
          "internalType": "uint256",
          "name": "deployFee",
          "type": "uint256"
        },
        {
          "internalType": "uint256",
          "name": "platformFee",
          "type": "uint256"
        },
        {
          "internalType": "uint96",
          "name": "discount",
          "type": "uint96"
        },
        {
          "internalType": "uint256",
          "name": "expiration",
          "type": "uint256"
        }
      ],
      "stateMutability": "view",
      "type": "function"
    },
    {
      "inputs": [],
      "name": "owner",
      "outputs": [
        {
          "internalType": "address",
          "name": "",
          "type": "address"
        }
      ],
      "stateMutability": "view",
      "type": "function"
    },
    {
      "inputs": [
        {
          "internalType": "address",
          "name": "",
          "type": "address"
        }
      ],
      "name": "partners",
      "outputs": [
        {
          "internalType": "address",
          "name": "admin",
          "type": "address"
        },
        {
          "internalType": "uint96",
          "name": "adminOwnPercent",
          "type": "uint96"
        },
        {
          "internalType": "uint96",
          "name": "referralOwnPercent",
          "type": "uint96"
        },
        {
          "internalType": "uint256",
          "name": "balance",
          "type": "uint256"
        },
        {
          "internalType": "uint96",
          "name": "discount",
          "type": "uint96"
        },
        {
          "internalType": "uint40",
          "name": "expiration",
          "type": "uint40"
        }
      ],
      "stateMutability": "view",
      "type": "function"
    },
    {
      "inputs": [],
      "name": "proxiableUUID",
      "outputs": [
        {
          "internalType": "bytes32",
          "name": "",
          "type": "bytes32"
        }
      ],
      "stateMutability": "view",
      "type": "function"
    },
    {
      "inputs": [],
      "name": "renounceOwnership",
      "outputs": [],
      "stateMutability": "nonpayable",
      "type": "function"
    },
    {
      "inputs": [],
      "name": "totalCollections",
      "outputs": [
        {
          "internalType": "uint256",
          "name": "_total",
          "type": "uint256"
        }
      ],
      "stateMutability": "view",
      "type": "function"
    },
    {
      "inputs": [
        {
          "internalType": "address",
          "name": "newOwner",
          "type": "address"
        }
      ],
      "name": "transferOwnership",
      "outputs": [],
      "stateMutability": "nonpayable",
      "type": "function"
    },
    {
      "inputs": [
        {
          "internalType": "address",
          "name": "_impl",
          "type": "address"
        }
      ],
      "name": "updateCollectionImpl",
      "outputs": [],
      "stateMutability": "payable",
      "type": "function"
    },
    {
      "inputs": [
        {
          "internalType": "address",
          "name": "_newMember",
          "type": "address"
        },
        {
          "internalType": "address",
          "name": "_collection",
          "type": "address"
        },
        {
          "internalType": "uint256",
          "name": "_deployFee",
          "type": "uint256"
        },
        {
          "internalType": "uint96",
          "name": "_platformFee",
          "type": "uint96"
        },
        {
          "internalType": "uint96",
          "name": "_discount",
          "type": "uint96"
        },
        {
          "internalType": "uint256",
          "name": "_expirationDays",
          "type": "uint256"
        }
      ],
      "name": "updateMember",
      "outputs": [],
      "stateMutability": "payable",
      "type": "function"
    },
    {
      "inputs": [
        {
          "internalType": "address",
          "name": "_collection",
          "type": "address"
        },
        {
          "internalType": "address",
          "name": "_admin",
          "type": "address"
        },
        {
          "internalType": "uint96",
          "name": "_adminOwnPercent",
          "type": "uint96"
        },
        {
          "internalType": "uint96",
          "name": "_referralOwnPercent",
          "type": "uint96"
        },
        {
          "internalType": "uint96",
          "name": "_discountPercent",
          "type": "uint96"
        },
        {
          "internalType": "uint40",
          "name": "_expireDaysFromNow",
          "type": "uint40"
        }
      ],
      "name": "updatePartnership",
      "outputs": [],
      "stateMutability": "nonpayable",
      "type": "function"
    },
    {
      "inputs": [
        {
          "internalType": "address",
          "name": "_newImplementation",
          "type": "address"
        }
      ],
      "name": "upgradeTo",
      "outputs": [],
      "stateMutability": "nonpayable",
      "type": "function"
    },
    {
      "inputs": [
        {
          "internalType": "address",
          "name": "newImplementation",
          "type": "address"
        },
        {
          "internalType": "bytes",
          "name": "data",
          "type": "bytes"
        }
      ],
      "name": "upgradeToAndCall",
      "outputs": [],
      "stateMutability": "payable",
      "type": "function"
    },
    {
      "inputs": [],
      "name": "withdraw",
      "outputs": [],
      "stateMutability": "payable",
      "type": "function"
    },
    {
      "inputs": [
        {
          "internalType": "address",
          "name": "_collection",
          "type": "address"
        }
      ],
      "name": "withdrawPartner",
      "outputs": [],
      "stateMutability": "nonpayable",
      "type": "function"
    },
    {
      "inputs": [
        {
          "internalType": "address",
          "name": "artist_",
          "type": "address"
        }
      ],
      "name": "withdrawReferral",
      "outputs": [],
      "stateMutability": "nonpayable",
      "type": "function"
    },
    {
      "stateMutability": "payable",
      "type": "receive"
    }
  ],
  "bytecode": "0x60a060405230608052348015610013575f80fd5b506080516136bb6100485f395f8181610fba0152818161106a015281816111b20152818161204501526120f501526136bb5ff3fe6080604052600436106101ba575f3560e01c806361d9db2d116100eb578063b5b86a5111610089578063e636541b11610063578063e636541b146106e6578063f2fde38b146106f9578063f705ca7514610718578063f9a432f814610737576101c1565b8063b5b86a511461066e578063b8d96c2e146106b2578063d57f966b146106d1576101c1565b806373627826116100c557806373627826146105115780638129fc1c146105305780638da5cb5b1461054457806395c336521461056e576101c1565b806361d9db2d146104d6578063686ff551146104ea578063715018a6146104fd576101c1565b80633659cfe6116101585780634a6798e8116101325780634a6798e81461047e5780634f1ef2861461049d57806352d1902d146104b0578063557ed1ba146104c4576101c1565b80633659cfe6146104385780633ccfd60b14610457578063480999271461045f576101c1565b806311ffb1d41161019457806311ffb1d4146103945780631c8ebc1e146103b55780632be7d54b146103c85780633166ef01146103e7576101c1565b8063016fa018146101fa578063069dab8f1461025157806308ae4b0c146102da576101c1565b366101c157005b6040517feee6a80f0000000000000000000000000000000000000000000000000000000081525f60048201526024015b60405180910390fd5b348015610205575f80fd5b5061023e610214366004612e63565b73ffffffffffffffffffffffffffffffffffffffff165f90815260cc602052604090206002015490565b6040519081526020015b60405180910390f35b34801561025c575f80fd5b506102a361026b366004612e63565b60cb6020525f908152604090208054600182015460029092015473ffffffffffffffffffffffffffffffffffffffff91821692911683565b6040805173ffffffffffffffffffffffffffffffffffffffff94851681526020810193909352921691810191909152606001610248565b3480156102e5575f80fd5b506103476102f4366004612e63565b60cd6020525f90815260409020805460018201546002830154600384015460049094015473ffffffffffffffffffffffffffffffffffffffff90931693919290916bffffffffffffffffffffffff169085565b6040805173ffffffffffffffffffffffffffffffffffffffff90961686526020860194909452928401919091526bffffffffffffffffffffffff166060830152608082015260a001610248565b34801561039f575f80fd5b506103b36103ae366004612e63565b610756565b005b6103b36103c3366004612e97565b6107e5565b3480156103d3575f80fd5b506103b36103e2366004612ef9565b6109b5565b3480156103f2575f80fd5b5060c9546104139073ffffffffffffffffffffffffffffffffffffffff1681565b60405173ffffffffffffffffffffffffffffffffffffffff9091168152602001610248565b348015610443575f80fd5b506103b3610452366004612e63565b610ca8565b6103b3610cbc565b34801561046a575f80fd5b5061023e610479366004612f2a565b610d4b565b348015610489575f80fd5b506103b3610498366004612e63565b610d70565b6103b36104ab366004612f78565b610fa3565b3480156104bb575f80fd5b5061023e611199565b3480156104cf575f80fd5b504261023e565b3480156104e1575f80fd5b5060ca5461023e565b6103b36104f8366004612e63565b611284565b348015610508575f80fd5b506103b36113b9565b34801561051c575f80fd5b5061023e61052b366004613052565b6113cc565b34801561053b575f80fd5b506103b36113f8565b34801561054f575f80fd5b5060335473ffffffffffffffffffffffffffffffffffffffff16610413565b348015610579575f80fd5b5061060c610588366004612e63565b60cc6020525f9081526040902080546001820154600283015460039093015473ffffffffffffffffffffffffffffffffffffffff831693740100000000000000000000000000000000000000009093046bffffffffffffffffffffffff908116939281169291908116906c01000000000000000000000000900464ffffffffff1686565b6040805173ffffffffffffffffffffffffffffffffffffffff90971687526bffffffffffffffffffffffff958616602088015293851693860193909352606085019190915291909116608083015264ffffffffff1660a082015260c001610248565b348015610679575f80fd5b5061023e610688366004612e63565b73ffffffffffffffffffffffffffffffffffffffff165f90815260cb602052604090206001015490565b3480156106bd575f80fd5b506103b36106cc366004612e63565b611583565b3480156106dc575f80fd5b5061023e60ca5481565b6104136106f43660046130b1565b6115ea565b348015610704575f80fd5b506103b3610713366004612e63565b6119f8565b348015610723575f80fd5b506103b3610732366004612e63565b611aac565b348015610742575f80fd5b506103b3610751366004613187565b611d20565b61075e611fad565b73ffffffffffffffffffffffffffffffffffffffff165f90815260cd6020526040812080547fffffffffffffffffffffffff000000000000000000000000000000000000000016815560018101829055600281018290556003810180547fffffffffffffffffffffffffffffffffffffffff00000000000000000000000016905560040155565b6107ed611fad565b73ffffffffffffffffffffffffffffffffffffffff861661083d576040517fcbb282d9000000000000000000000000000000000000000000000000000000008152600160048201526024016101f1565b612710836bffffffffffffffffffffffff1610801561086b5750612710826bffffffffffffffffffffffff16105b610873575f80fd5b6040518060a001604052808673ffffffffffffffffffffffffffffffffffffffff168152602001858152602001846bffffffffffffffffffffffff168152602001836bffffffffffffffffffffffff16815260200182603c6108d59190613231565b6108e090603c613231565b6108eb906018613231565b6108f59042613248565b905273ffffffffffffffffffffffffffffffffffffffff9687165f90815260cd6020908152604091829020835181547fffffffffffffffffffffffff0000000000000000000000000000000000000000169a169990991789558201516001890155810151600288015560608101516003880180547fffffffffffffffffffffffffffffffffffffffff000000000000000000000000166bffffffffffffffffffffffff909216919091179055608001516004909601959095555050505050565b6040517f70a082310000000000000000000000000000000000000000000000000000000081523360048201819052905f90819073ffffffffffffffffffffffffffffffffffffffff8616906370a08231906024016020604051808303815f875af1158015610a25573d5f803e3d5ffd5b505050506040513d601f19601f82011682018060405250810190610a49919061325b565b11905080610a86576040517ff97aaed0000000000000000000000000000000000000000000000000000000008152600160048201526024016101f1565b73ffffffffffffffffffffffffffffffffffffffff8481165f90815260cc60209081526040808320815160c08101835281549586168152740100000000000000000000000000000000000000009095046bffffffffffffffffffffffff9081169386019390935260018101548316918501919091526002810154606085015260030154908116608084018190526c0100000000000000000000000090910464ffffffffff1660a084015215801590610b485750428260a0015164ffffffffff16115b905080610b84576040517ff97aaed0000000000000000000000000000000000000000000000000000000008152600260048201526024016101f1565b73ffffffffffffffffffffffffffffffffffffffff8581165f90815260cb60205260409020541615610be5576040517ff97aaed0000000000000000000000000000000000000000000000000000000008152600360048201526024016101f1565b6040805160608101825273ffffffffffffffffffffffffffffffffffffffff8087168083525f60208085018281528c85168688018181528d871680865260cb909452888520975188549088167fffffffffffffffffffffffff00000000000000000000000000000000000000009182161789559251600189015551600290970180549790961696909116959095179093559351929390927f66abdd2619de838dbdd466748a5769d636daec3a3dc9350ee9d5e884832729329190a4505050505050565b610cb0611fad565b610cb98161202e565b50565b610cc4611fad565b5f610ce460335473ffffffffffffffffffffffffffffffffffffffff1690565b73ffffffffffffffffffffffffffffffffffffffff16476040515f6040518083038185875af1925050503d805f8114610d38576040519150601f19603f3d011682016040523d82523d5f602084013e610d3d565b606091505b505090508015610cb9575f80fd5b5f610d67836bffffffffffffffffffffffff841661271061222f565b90505b92915050565b73ffffffffffffffffffffffffffffffffffffffff8181165f90815260cc6020908152604091829020825160c0810184528154948516808252740100000000000000000000000000000000000000009095046bffffffffffffffffffffffff90811693820193909352600182015483169381019390935260028101546060840181905260039091015491821660808401526c0100000000000000000000000090910464ffffffffff1660a083015233928314610e5b576040517f27bc636d000000000000000000000000000000000000000000000000000000008152600160048201526024016101f1565b5f8111610e97576040517f27bc636d000000000000000000000000000000000000000000000000000000008152600260048201526024016101f1565b5f6060830181905260405173ffffffffffffffffffffffffffffffffffffffff85169083908381818185875af1925050503d805f8114610ef2576040519150601f19603f3d011682016040523d82523d5f602084013e610ef7565b606091505b5050905080610f35576040517f27bc636d000000000000000000000000000000000000000000000000000000008152600360048201526024016101f1565b8473ffffffffffffffffffffffffffffffffffffffff168473ffffffffffffffffffffffffffffffffffffffff167f3cebcff4b474dd1638e05b88c97b76249ed7a5b06775d18fa6f9f978ced7eccf84604051610f9491815260200190565b60405180910390a35050505050565b73ffffffffffffffffffffffffffffffffffffffff7f0000000000000000000000000000000000000000000000000000000000000000163003611068576040517f08c379a000000000000000000000000000000000000000000000000000000000815260206004820152602c60248201527f46756e6374696f6e206d7573742062652063616c6c6564207468726f7567682060448201527f64656c656761746563616c6c000000000000000000000000000000000000000060648201526084016101f1565b7f000000000000000000000000000000000000000000000000000000000000000073ffffffffffffffffffffffffffffffffffffffff166110dd7f360894a13ba1a3210667c828492db98dca3e2076cc3735a920a3ca505d382bbc5473ffffffffffffffffffffffffffffffffffffffff1690565b73ffffffffffffffffffffffffffffffffffffffff1614611180576040517f08c379a000000000000000000000000000000000000000000000000000000000815260206004820152602c60248201527f46756e6374696f6e206d7573742062652063616c6c6564207468726f7567682060448201527f6163746976652070726f7879000000000000000000000000000000000000000060648201526084016101f1565b6111898261235b565b61119582826001612363565b5050565b5f3073ffffffffffffffffffffffffffffffffffffffff7f0000000000000000000000000000000000000000000000000000000000000000161461125f576040517f08c379a000000000000000000000000000000000000000000000000000000000815260206004820152603860248201527f555550535570677261646561626c653a206d757374206e6f742062652063616c60448201527f6c6564207468726f7567682064656c656761746563616c6c000000000000000060648201526084016101f1565b507f360894a13ba1a3210667c828492db98dca3e2076cc3735a920a3ca505d382bbc90565b61128c611fad565b6040517f01ffc9a70000000000000000000000000000000000000000000000000000000081527fc21b8f2800000000000000000000000000000000000000000000000000000000600482015273ffffffffffffffffffffffffffffffffffffffff8216906301ffc9a7906024016020604051808303815f875af1158015611315573d5f803e3d5ffd5b505050506040513d601f19601f820116820180604052508101906113399190613272565b611372576040517f04cb9379000000000000000000000000000000000000000000000000000000008152600160048201526024016101f1565b60c980547fffffffffffffffffffffffff00000000000000000000000000000000000000001673ffffffffffffffffffffffffffffffffffffffff92909216919091179055565b6113c1611fad565b6113ca5f612567565b565b5f6113d882603c613231565b6113e390603c613231565b6113ee906018613231565b610d6a9042613248565b5f54610100900460ff161580801561141657505f54600160ff909116105b8061142f5750303b15801561142f57505f5460ff166001145b6114bb576040517f08c379a000000000000000000000000000000000000000000000000000000000815260206004820152602e60248201527f496e697469616c697a61626c653a20636f6e747261637420697320616c72656160448201527f647920696e697469616c697a656400000000000000000000000000000000000060648201526084016101f1565b5f80547fffffffffffffffffffffffffffffffffffffffffffffffffffffffffffffff001660011790558015611517575f80547fffffffffffffffffffffffffffffffffffffffffffffffffffffffffffff00ff166101001790555b61151f6125dd565b8015610cb9575f80547fffffffffffffffffffffffffffffffffffffffffffffffffffffffffffff00ff169055604051600181527f7f26b83ff96e1f2b6a682f133852f6798a09c465da95921460cefb38474024989060200160405180910390a150565b61158b611fad565b73ffffffffffffffffffffffffffffffffffffffff165f90815260cb6020526040812080547fffffffffffffffffffffffff00000000000000000000000000000000000000009081168255600182019290925560020180549091169055565b5f61160a60335473ffffffffffffffffffffffffffffffffffffffff1690565b73ffffffffffffffffffffffffffffffffffffffff163373ffffffffffffffffffffffffffffffffffffffff1614806116535750335f90815260cd602052604090206004015442105b6116bb576040517f08c379a00000000000000000000000000000000000000000000000000000000081526004016101f19060208082526004908201527f4175746800000000000000000000000000000000000000000000000000000000604082015260600190565b335f81815260cb60209081526040808320815160608082018452825473ffffffffffffffffffffffffffffffffffffffff90811683526001808501548488015260029485015482168487015288885260cd875296859020855160a08101875281548316815297810154968801879052938401549487019490945260038301546bffffffffffffffffffffffff1690860152600490910154608085015280513494919391921615611777576117718386868461267c565b506117b4565b808410156117b4576040517fab582916000000000000000000000000000000000000000000000000000000008152600160048201526024016101f1565b60408051606087901b7fffffffffffffffffffffffffffffffffffffffff00000000000000000000000016602082015281516014818303018152603490910190915260c9546118199073ffffffffffffffffffffffffffffffffffffffff16826129f9565b965073ffffffffffffffffffffffffffffffffffffffff871661186b576040517fab582916000000000000000000000000000000000000000000000000000000008152600160048201526024016101f1565b8673ffffffffffffffffffffffffffffffffffffffff16632caa9dec84604001518f8f8f8f8f8f6040518863ffffffff1660e01b81526004016118b4979695949392919061338a565b5f604051808303815f87803b1580156118cb575f80fd5b505af11580156118dd573d5f803e3d5ffd5b50505f6080860181815273ffffffffffffffffffffffffffffffffffffffff8b81168089528b821680855260cd60209081526040958690208b5181547fffffffffffffffffffffffff000000000000000000000000000000000000000016908616178155818c0151600180830191909155878d0151600283015560608d01516003830180547fffffffffffffffffffffffffffffffffffffffff000000000000000000000000166bffffffffffffffffffffffff909216919091179055955160049091015560ca805490950190945560c954855193168352928201529093507f3260bb218255e98a3f5731b9cd14cede49bbf1988ccd323b4a4912568739823192500160405180910390a25050505050509695505050505050565b611a00611fad565b73ffffffffffffffffffffffffffffffffffffffff8116611aa3576040517f08c379a000000000000000000000000000000000000000000000000000000000815260206004820152602660248201527f4f776e61626c653a206e6577206f776e657220697320746865207a65726f206160448201527f646472657373000000000000000000000000000000000000000000000000000060648201526084016101f1565b610cb981612567565b73ffffffffffffffffffffffffffffffffffffffff8082165f90815260cb60209081526040918290208251606081018452815485168082526001830154938201849052600290920154909416928401929092523392918314611b3d576040517ffa8af8fc000000000000000000000000000000000000000000000000000000008152600160048201526024016101f1565b604080518181526010818301527f5f726566657272616c42616c616e63650000000000000000000000000000000060608201526020810183905290517fdd970dd9b5bfe707922155b058a407655cb18288b807e2216442bca8ad83d6b59181900360800190a15f8111611bdf576040517ffa8af8fc000000000000000000000000000000000000000000000000000000008152600260048201526024016101f1565b73ffffffffffffffffffffffffffffffffffffffff8481165f90815260cb602052604080822080547fffffffffffffffffffffffff000000000000000000000000000000000000000090811682556001820184905560029091018054909116905551909185169083908381818185875af1925050503d805f8114611c7e576040519150601f19603f3d011682016040523d82523d5f602084013e611c83565b606091505b5050905080611cc1576040517ffa8af8fc000000000000000000000000000000000000000000000000000000008152600360048201526024016101f1565b8473ffffffffffffffffffffffffffffffffffffffff168473ffffffffffffffffffffffffffffffffffffffff167fc359f3a607928e86ec723fa39ad9790fcdf5b68416b174b0c7f9334cdda3b2f984604051610f9491815260200190565b611d28611fad565b73ffffffffffffffffffffffffffffffffffffffff8516611d47575f80fd5b73ffffffffffffffffffffffffffffffffffffffff8681165f90815260cc60205260409020541615611d77575f80fd5b6040518060c001604052808673ffffffffffffffffffffffffffffffffffffffff168152602001856bffffffffffffffffffffffff168152602001846bffffffffffffffffffffffff1681526020015f8152602001836bffffffffffffffffffffffff1681526020018262015180611def9190613568565b611e009064ffffffffff1642613248565b64ffffffffff90811690915273ffffffffffffffffffffffffffffffffffffffff8089165f90815260cc60209081526040918290208551918601516bffffffffffffffffffffffff908116740100000000000000000000000000000000000000000292909416919091178155848201516001820180549185167fffffffffffffffffffffffffffffffffffffffff00000000000000000000000090921691909117905560608501516002820155608085015160038201805460a0909701519095166c01000000000000000000000000027fffffffffffffffffffffffffffffff00000000000000000000000000000000009096169316929092179390931790915590517f3f9e4fccb5e41b1db8b3976650537d5cbbeeea7fa827838c1ed10374211f27e891611f9d915f60c082019050825473ffffffffffffffffffffffffffffffffffffffff811683528060a01c6020840152506bffffffffffffffffffffffff806001850154166040840152600284015460608401526003840154818116608085015264ffffffffff8160601c1660a0850152505092915050565b60405180910390a1505050505050565b60335473ffffffffffffffffffffffffffffffffffffffff1633146113ca576040517f08c379a000000000000000000000000000000000000000000000000000000000815260206004820181905260248201527f4f776e61626c653a2063616c6c6572206973206e6f7420746865206f776e657260448201526064016101f1565b73ffffffffffffffffffffffffffffffffffffffff7f00000000000000000000000000000000000000000000000000000000000000001630036120f3576040517f08c379a000000000000000000000000000000000000000000000000000000000815260206004820152602c60248201527f46756e6374696f6e206d7573742062652063616c6c6564207468726f7567682060448201527f64656c656761746563616c6c000000000000000000000000000000000000000060648201526084016101f1565b7f000000000000000000000000000000000000000000000000000000000000000073ffffffffffffffffffffffffffffffffffffffff166121687f360894a13ba1a3210667c828492db98dca3e2076cc3735a920a3ca505d382bbc5473ffffffffffffffffffffffffffffffffffffffff1690565b73ffffffffffffffffffffffffffffffffffffffff161461220b576040517f08c379a000000000000000000000000000000000000000000000000000000000815260206004820152602c60248201527f46756e6374696f6e206d7573742062652063616c6c6564207468726f7567682060448201527f6163746976652070726f7879000000000000000000000000000000000000000060648201526084016101f1565b6122148161235b565b604080515f80825260208201909252610cb991839190612363565b5f80807fffffffffffffffffffffffffffffffffffffffffffffffffffffffffffffffff858709858702925082811083820303915050805f036122855783828161227b5761227b613591565b0492505050612354565b8084116122ee576040517f08c379a000000000000000000000000000000000000000000000000000000000815260206004820152601560248201527f4d6174683a206d756c446976206f766572666c6f77000000000000000000000060448201526064016101f1565b5f848688098519600190810187169687900496828603819004959092119093035f82900391909104909201919091029190911760038402600290811880860282030280860282030280860282030280860282030280860282030280860290910302029150505b9392505050565b610cb9611fad565b7f4910fdfa16fed3260ed0e7147f7cc6da11a60208b5b9406d12a635614ffd91435460ff161561239b5761239683612b3c565b505050565b8273ffffffffffffffffffffffffffffffffffffffff166352d1902d6040518163ffffffff1660e01b8152600401602060405180830381865afa925050508015612420575060408051601f3d9081017fffffffffffffffffffffffffffffffffffffffffffffffffffffffffffffffe016820190925261241d9181019061325b565b60015b6124ac576040517f08c379a000000000000000000000000000000000000000000000000000000000815260206004820152602e60248201527f45524331393637557067726164653a206e657720696d706c656d656e7461746960448201527f6f6e206973206e6f74205555505300000000000000000000000000000000000060648201526084016101f1565b7f360894a13ba1a3210667c828492db98dca3e2076cc3735a920a3ca505d382bbc811461255b576040517f08c379a000000000000000000000000000000000000000000000000000000000815260206004820152602960248201527f45524331393637557067726164653a20756e737570706f727465642070726f7860448201527f6961626c6555554944000000000000000000000000000000000000000000000060648201526084016101f1565b50612396838383612c46565b6033805473ffffffffffffffffffffffffffffffffffffffff8381167fffffffffffffffffffffffff0000000000000000000000000000000000000000831681179093556040519116919082907f8be0079c531659141344cd1fd0a4f28419497f9722a3daafe3b4186f6b6457e0905f90a35050565b5f54610100900460ff16612673576040517f08c379a000000000000000000000000000000000000000000000000000000000815260206004820152602b60248201527f496e697469616c697a61626c653a20636f6e7472616374206973206e6f74206960448201527f6e697469616c697a696e6700000000000000000000000000000000000000000060648201526084016101f1565b6113ca33612567565b60408481015173ffffffffffffffffffffffffffffffffffffffff9081165f90815260cc6020908152838220845160c08101865281549485168152740100000000000000000000000000000000000000009094046bffffffffffffffffffffffff90811692850192909252600181015482169484019490945260028401546060840152600390930154928316608083018190526c0100000000000000000000000090930464ffffffffff1660a083015291829061273a908590610d4b565b905061274681856135be565b851015612782576040517fee3231cb000000000000000000000000000000000000000000000000000000008152606460048201526024016101f1565b5f612791858460400151610d4b565b602089810182815273ffffffffffffffffffffffffffffffffffffffff8a81165f90815260cb84526040908190208d5181549084167fffffffffffffffffffffffff00000000000000000000000000000000000000009182168117835594516001830155828f0151600290920180549290941691161790915580519182529181018390529192507f5638fe1d59cbaff19a53ea05820ebcfe8d70bd87ba73873ceeea44c207149731910160405180910390a15f612852868560200151610d4b565b90508084606001516128649190613248565b6060850190815260408a81015173ffffffffffffffffffffffffffffffffffffffff9081165f90815260cc6020908152908390208851828a01519316740100000000000000000000000000000000000000006bffffffffffffffffffffffff9485160281178255848a01516001830180547fffffffffffffffffffffffffffffffffffffffff000000000000000000000000169186169190911790559451600282015560808901516003909101805460a08b0151929094167fffffffffffffffffffffffffffffff0000000000000000000000000000000000909416939093176c0100000000000000000000000064ffffffffff9092169190910217909155815192835282018390527fffba746bd7819bccbdb2aa674c014ebacac05d280ba6f9f5912dadf6a9e3a22b910160405180910390a16129a28282613248565b6129ac90346135be565b4710156129e8576040517fee3231cb000000000000000000000000000000000000000000000000000000008152600360048201526024016101f1565b60019450505050505b949350505050565b5f60608203516040830351602084035184518060208701018051600283016c5af43d3d93803e606057fd5bf3895289600d8a035278593da1005b363d3d373d3d3d3d610000806062363936013d738160481b1760218a03527f9e4ac34f21c619cefc926c8bd93b54bf5a39c7ab2127a895af1cc0691d7e3dff603a8a035272fd6100003d81600a3d39f336602c57343d527f6062820160781b1761ff9e82106059018a03528060f01b8352606c8101604c8a035ff097505086612ac35763301164255f526004601cfd5b905285527fffffffffffffffffffffffffffffffffffffffffffffffffffffffffffffffe08501527fffffffffffffffffffffffffffffffffffffffffffffffffffffffffffffffc08401527fffffffffffffffffffffffffffffffffffffffffffffffffffffffffffffffa090920191909152919050565b73ffffffffffffffffffffffffffffffffffffffff81163b612be0576040517f08c379a000000000000000000000000000000000000000000000000000000000815260206004820152602d60248201527f455243313936373a206e657720696d706c656d656e746174696f6e206973206e60448201527f6f74206120636f6e74726163740000000000000000000000000000000000000060648201526084016101f1565b7f360894a13ba1a3210667c828492db98dca3e2076cc3735a920a3ca505d382bbc80547fffffffffffffffffffffffff00000000000000000000000000000000000000001673ffffffffffffffffffffffffffffffffffffffff92909216919091179055565b612c4f83612c70565b5f82511180612c5b5750805b1561239657612c6a8383612cbc565b50505050565b612c7981612b3c565b60405173ffffffffffffffffffffffffffffffffffffffff8216907fbc7cd75a20ee27fd9adebab32041f755214dbc6bffa90cc0225b39da2e5c2d3b905f90a250565b6060610d67838360405180606001604052806027815260200161365f6027913960605f808573ffffffffffffffffffffffffffffffffffffffff1685604051612d0591906135f3565b5f60405180830381855af49150503d805f8114612d3d576040519150601f19603f3d011682016040523d82523d5f602084013e612d42565b606091505b5091509150612d5386838387612d5d565b9695505050505050565b60608315612df25782515f03612deb5773ffffffffffffffffffffffffffffffffffffffff85163b612deb576040517f08c379a000000000000000000000000000000000000000000000000000000000815260206004820152601d60248201527f416464726573733a2063616c6c20746f206e6f6e2d636f6e747261637400000060448201526064016101f1565b50816129f1565b6129f18383815115612e075781518083602001fd5b806040517f08c379a00000000000000000000000000000000000000000000000000000000081526004016101f1919061360e565b803573ffffffffffffffffffffffffffffffffffffffff81168114612e5e575f80fd5b919050565b5f60208284031215612e73575f80fd5b610d6782612e3b565b80356bffffffffffffffffffffffff81168114612e5e575f80fd5b5f805f805f8060c08789031215612eac575f80fd5b612eb587612e3b565b9550612ec360208801612e3b565b945060408701359350612ed860608801612e7c565b9250612ee660808801612e7c565b915060a087013590509295509295509295565b5f8060408385031215612f0a575f80fd5b612f1383612e3b565b9150612f2160208401612e3b565b90509250929050565b5f8060408385031215612f3b575f80fd5b82359150612f2160208401612e7c565b7f4e487b71000000000000000000000000000000000000000000000000000000005f52604160045260245ffd5b5f8060408385031215612f89575f80fd5b612f9283612e3b565b9150602083013567ffffffffffffffff80821115612fae575f80fd5b818501915085601f830112612fc1575f80fd5b813581811115612fd357612fd3612f4b565b604051601f82017fffffffffffffffffffffffffffffffffffffffffffffffffffffffffffffffe0908116603f0116810190838211818310171561301957613019612f4b565b81604052828152886020848701011115613031575f80fd5b826020860160208301375f6020848301015280955050505050509250929050565b5f60208284031215613062575f80fd5b5035919050565b5f8083601f840112613079575f80fd5b50813567ffffffffffffffff811115613090575f80fd5b6020830191508360208260051b85010111156130aa575f80fd5b9250929050565b5f805f805f808688036101e08112156130c8575f80fd5b873567ffffffffffffffff808211156130df575f80fd5b9089019060e0828c0312156130f2575f80fd5b8198506101807fffffffffffffffffffffffffffffffffffffffffffffffffffffffffffffffe084011215613125575f80fd5b60208a0197506101a08a013592508083111561313f575f80fd5b61314b8b848c01613069565b90975095506101c08a0135925086915080831115613167575f80fd5b505061317589828a01613069565b979a9699509497509295939492505050565b5f805f805f8060c0878903121561319c575f80fd5b6131a587612e3b565b95506131b360208801612e3b565b94506131c160408801612e7c565b93506131cf60608801612e7c565b92506131dd60808801612e7c565b915060a087013564ffffffffff811681146131f6575f80fd5b809150509295509295509295565b7f4e487b71000000000000000000000000000000000000000000000000000000005f52601160045260245ffd5b8082028115828204841417610d6a57610d6a613204565b80820180821115610d6a57610d6a613204565b5f6020828403121561326b575f80fd5b5051919050565b5f60208284031215613282575f80fd5b81518015158114612354575f80fd5b5f8083357fffffffffffffffffffffffffffffffffffffffffffffffffffffffffffffffe18436030181126132c4575f80fd5b830160208101925035905067ffffffffffffffff8111156132e3575f80fd5b8036038213156130aa575f80fd5b81835281816020850137505f602082840101525f60207fffffffffffffffffffffffffffffffffffffffffffffffffffffffffffffffe0601f840116840101905092915050565b8183525f60208085019450825f5b8581101561337f5773ffffffffffffffffffffffffffffffffffffffff61336c83612e3b565b1687529582019590820190600101613346565b509495945050505050565b5f6102008983528060208401526133a1898a613291565b60e0838601526133b66102e0860182846132f1565b925050506133c760208a018a613291565b7ffffffffffffffffffffffffffffffffffffffffffffffffffffffffffffffe0080868503016102208701526133fe8483856132f1565b935061340d60408d018d613291565b9350915080868503016102408701526134278484846132f1565b935061343660608d018d613291565b935091508086850301610260870152506134518383836132f1565b9250505060808901356102808401526bffffffffffffffffffffffff61347960a08b01612e7c565b166102a084015261348c60c08a01612e3b565b73ffffffffffffffffffffffffffffffffffffffff81166102c0850152506135306040840189803582526020810135602083015260408101356040830152606081013560608301526080810135608083015260a081013560a083015260c081013560c083015260e081013560e08301526101008082013581840152506101208082013581840152506101408082013581840152506101608082013581840152505050565b8281036101c0840152613544818789613338565b90508281036101e084015261355a818587613338565b9a9950505050505050505050565b64ffffffffff81811683821602808216919082811461358957613589613204565b505092915050565b7f4e487b71000000000000000000000000000000000000000000000000000000005f52601260045260245ffd5b81810381811115610d6a57610d6a613204565b5f5b838110156135eb5781810151838201526020016135d3565b50505f910152565b5f82516136048184602087016135d1565b9190910192915050565b602081525f825180602084015261362c8160408501602087016135d1565b601f017fffffffffffffffffffffffffffffffffffffffffffffffffffffffffffffffe016919091016040019291505056fe416464726573733a206c6f772d6c6576656c2064656c65676174652063616c6c206661696c6564a264697066735822122059fbe45afbc2f1cee606a2df591a38cdb7ce6320b2a0bdbb1072dec045c64c6d64736f6c63430008140033",
  "linkReferences": {},
  "deployedLinkReferences": {}
}