{
  "_format": "hh-sol-artifact-1",
  "contractName": "MvxFactory",
  "sourceName": "src/MvxFactory.sol",
  "abi": [
    {
      "inputs": [],
      "name": "AdminWithdrawError",
      "type": "error"
    },
    {
      "inputs": [
        {
          "internalType": "uint8",
          "name": "",
          "type": "uint8"
        }
      ],
      "name": "CreateError",
      "type": "error"
    },
    {
      "inputs": [
        {
          "internalType": "uint8",
          "name": "",
          "type": "uint8"
        }
      ],
      "name": "DiscountError",
      "type": "error"
    },
    {
      "inputs": [
        {
          "internalType": "uint8",
          "name": "",
          "type": "uint8"
        }
      ],
      "name": "GrantReferralError",
      "type": "error"
    },
    {
      "inputs": [],
      "name": "InvalidColletion",
      "type": "error"
    },
    {
      "inputs": [],
      "name": "Unathorized",
      "type": "error"
    },
    {
      "inputs": [
        {
          "internalType": "uint8",
          "name": "",
          "type": "uint8"
        }
      ],
      "name": "UpdateMemberError",
      "type": "error"
    },
    {
      "inputs": [],
      "name": "UpdatePartnerError",
      "type": "error"
    },
    {
      "inputs": [
        {
          "internalType": "uint8",
          "name": "",
          "type": "uint8"
        }
      ],
      "name": "WithdrawPartnerError",
      "type": "error"
    },
    {
      "inputs": [
        {
          "internalType": "uint8",
          "name": "",
          "type": "uint8"
        }
      ],
      "name": "WithdrawReferralError",
      "type": "error"
    },
    {
      "anonymous": false,
      "inputs": [
        {
          "indexed": false,
          "internalType": "address",
          "name": "previousAdmin",
          "type": "address"
        },
        {
          "indexed": false,
          "internalType": "address",
          "name": "newAdmin",
          "type": "address"
        }
      ],
      "name": "AdminChanged",
      "type": "event"
    },
    {
      "anonymous": false,
      "inputs": [
        {
          "indexed": true,
          "internalType": "address",
          "name": "_sender",
          "type": "address"
        },
        {
          "indexed": false,
          "internalType": "uint256",
          "name": "_deployFee",
          "type": "uint256"
        },
        {
          "indexed": false,
          "internalType": "uint256",
          "name": "_discountAmt",
          "type": "uint256"
        }
      ],
      "name": "ArtistDiscount",
      "type": "event"
    },
    {
      "anonymous": false,
      "inputs": [
        {
          "indexed": true,
          "internalType": "address",
          "name": "beacon",
          "type": "address"
        }
      ],
      "name": "BeaconUpgraded",
      "type": "event"
    },
    {
      "anonymous": false,
      "inputs": [
        {
          "indexed": true,
          "internalType": "address",
          "name": "_sender",
          "type": "address"
        },
        {
          "indexed": false,
          "internalType": "address",
          "name": "_impl",
          "type": "address"
        },
        {
          "indexed": false,
          "internalType": "address",
          "name": "_cloneAddress",
          "type": "address"
        }
      ],
      "name": "CreateEvent",
      "type": "event"
    },
    {
      "anonymous": false,
      "inputs": [
        {
          "indexed": false,
          "internalType": "uint256",
          "name": "",
          "type": "uint256"
        }
      ],
      "name": "FactoryBalanceUpdate",
      "type": "event"
    },
    {
      "anonymous": false,
      "inputs": [
        {
          "indexed": true,
          "internalType": "address",
          "name": "_artist",
          "type": "address"
        },
        {
          "indexed": true,
          "internalType": "address",
          "name": "_sender",
          "type": "address"
        },
        {
          "indexed": false,
          "internalType": "address",
          "name": "_collection",
          "type": "address"
        }
      ],
      "name": "GrantReferralDiscount",
      "type": "event"
    },
    {
      "anonymous": false,
      "inputs": [
        {
          "indexed": false,
          "internalType": "uint8",
          "name": "version",
          "type": "uint8"
        }
      ],
      "name": "Initialized",
      "type": "event"
    },
    {
      "anonymous": false,
      "inputs": [
        {
          "indexed": false,
          "internalType": "string",
          "name": "",
          "type": "string"
        },
        {
          "indexed": false,
          "internalType": "uint256",
          "name": "",
          "type": "uint256"
        }
      ],
      "name": "Log",
      "type": "event"
    },
    {
      "anonymous": false,
      "inputs": [
        {
          "indexed": false,
          "internalType": "string",
          "name": "",
          "type": "string"
        },
        {
          "indexed": false,
          "internalType": "address",
          "name": "",
          "type": "address"
        }
      ],
      "name": "Log",
      "type": "event"
    },
    {
      "anonymous": false,
      "inputs": [
        {
          "indexed": true,
          "internalType": "address",
          "name": "_sender",
          "type": "address"
        },
        {
          "indexed": false,
          "internalType": "uint256",
          "name": "_deployFee",
          "type": "uint256"
        },
        {
          "indexed": false,
          "internalType": "uint256",
          "name": "_discountAmt",
          "type": "uint256"
        }
      ],
      "name": "MemberDiscount",
      "type": "event"
    },
    {
      "anonymous": false,
      "inputs": [
        {
          "indexed": true,
          "internalType": "address",
          "name": "previousOwner",
          "type": "address"
        },
        {
          "indexed": true,
          "internalType": "address",
          "name": "newOwner",
          "type": "address"
        }
      ],
      "name": "OwnershipTransferred",
      "type": "event"
    },
    {
      "anonymous": false,
      "inputs": [
        {
          "indexed": true,
          "internalType": "address",
          "name": "_partner",
          "type": "address"
        },
        {
          "indexed": true,
          "internalType": "uint256",
          "name": "_balance",
          "type": "uint256"
        }
      ],
      "name": "PartnerBalanceUpdate",
      "type": "event"
    },
    {
      "anonymous": false,
      "inputs": [
        {
          "indexed": true,
          "internalType": "address",
          "name": "_referral",
          "type": "address"
        },
        {
          "indexed": true,
          "internalType": "uint256",
          "name": "_amount",
          "type": "uint256"
        }
      ],
      "name": "ReferralBalanceUpdate",
      "type": "event"
    },
    {
      "anonymous": false,
      "inputs": [
        {
          "indexed": true,
          "internalType": "address",
          "name": "_newImpl",
          "type": "address"
        }
      ],
      "name": "UpdateCollectionImpl",
      "type": "event"
    },
    {
      "anonymous": false,
      "inputs": [
        {
          "indexed": true,
          "internalType": "address",
          "name": "_member",
          "type": "address"
        },
        {
          "indexed": true,
          "internalType": "address",
          "name": "_collection",
          "type": "address"
        },
        {
          "indexed": false,
          "internalType": "uint16",
          "name": "_expirationDays",
          "type": "uint16"
        }
      ],
      "name": "UpdateMemberEvent",
      "type": "event"
    },
    {
      "anonymous": false,
      "inputs": [
        {
          "indexed": true,
          "internalType": "address",
          "name": "_admin",
          "type": "address"
        },
        {
          "indexed": true,
          "internalType": "address",
          "name": "_collection",
          "type": "address"
        },
        {
          "indexed": false,
          "internalType": "uint16",
          "name": "_expirationDays",
          "type": "uint16"
        }
      ],
      "name": "UpdatePartnerEvent",
      "type": "event"
    },
    {
      "anonymous": false,
      "inputs": [
        {
          "indexed": false,
          "internalType": "uint8",
          "name": "_publicStageWeeks",
          "type": "uint8"
        },
        {
          "indexed": false,
          "internalType": "uint40",
          "name": "_stageTimeCapInDays",
          "type": "uint40"
        },
        {
          "indexed": false,
          "internalType": "uint72",
          "name": "_updateStageFee",
          "type": "uint72"
        }
      ],
      "name": "UpdateStageConfigEvent",
      "type": "event"
    },
    {
      "anonymous": false,
      "inputs": [
        {
          "indexed": true,
          "internalType": "address",
          "name": "implementation",
          "type": "address"
        }
      ],
      "name": "Upgraded",
      "type": "event"
    },
    {
      "anonymous": false,
      "inputs": [
        {
          "indexed": false,
          "internalType": "uint256",
          "name": "amount",
          "type": "uint256"
        }
      ],
      "name": "WithdrawAdmin",
      "type": "event"
    },
    {
      "anonymous": false,
      "inputs": [
        {
          "indexed": true,
          "internalType": "address",
          "name": "_sender",
          "type": "address"
        },
        {
          "indexed": true,
          "internalType": "address",
          "name": "_collection",
          "type": "address"
        },
        {
          "indexed": true,
          "internalType": "uint256",
          "name": "_balance",
          "type": "uint256"
        }
      ],
      "name": "WithdrawPartner",
      "type": "event"
    },
    {
      "anonymous": false,
      "inputs": [
        {
          "indexed": true,
          "internalType": "address",
          "name": "_sender",
          "type": "address"
        },
        {
          "indexed": true,
          "internalType": "uint256",
          "name": "_referralBalance",
          "type": "uint256"
        }
      ],
      "name": "WithdrawReferral",
      "type": "event"
    },
    {
      "stateMutability": "payable",
      "type": "fallback"
    },
    {
      "inputs": [
        {
          "internalType": "address",
          "name": "",
          "type": "address"
        }
      ],
      "name": "artists",
      "outputs": [
        {
          "internalType": "address",
          "name": "referral",
          "type": "address"
        },
        {
          "internalType": "address",
          "name": "collection",
          "type": "address"
        }
      ],
      "stateMutability": "view",
      "type": "function"
    },
    {
      "inputs": [],
      "name": "collectionCount",
      "outputs": [
        {
          "internalType": "uint256",
          "name": "",
          "type": "uint256"
        }
      ],
      "stateMutability": "view",
      "type": "function"
    },
    {
      "inputs": [],
      "name": "collectionImpl",
      "outputs": [
        {
          "internalType": "address",
          "name": "",
          "type": "address"
        }
      ],
      "stateMutability": "view",
      "type": "function"
    },
    {
      "inputs": [
        {
          "components": [
            {
              "internalType": "string",
              "name": "name",
              "type": "string"
            },
            {
              "internalType": "string",
              "name": "symbol",
              "type": "string"
            },
            {
              "internalType": "string",
              "name": "baseURI",
              "type": "string"
            },
            {
              "internalType": "string",
              "name": "baseExt",
              "type": "string"
            },
            {
              "internalType": "address",
              "name": "royaltyReceiver",
              "type": "address"
            },
            {
              "internalType": "uint128",
              "name": "maxSupply",
              "type": "uint128"
            },
            {
              "internalType": "uint128",
              "name": "royaltyFee",
              "type": "uint128"
            }
          ],
          "internalType": "struct Collection",
          "name": "_nftsData",
          "type": "tuple"
        },
        {
          "components": [
            {
              "internalType": "bool",
              "name": "isMaxSupplyUpdatable",
              "type": "bool"
            },
            {
              "internalType": "uint72",
              "name": "ogMintPrice",
              "type": "uint72"
            },
            {
              "internalType": "uint72",
              "name": "whitelistMintPrice",
              "type": "uint72"
            },
            {
              "internalType": "uint72",
              "name": "mintPrice",
              "type": "uint72"
            },
            {
              "internalType": "uint16",
              "name": "mintMaxPerUser",
              "type": "uint16"
            },
            {
              "internalType": "uint16",
              "name": "ogMintMaxPerUser",
              "type": "uint16"
            },
            {
              "internalType": "uint40",
              "name": "mintStart",
              "type": "uint40"
            },
            {
              "internalType": "uint40",
              "name": "mintEnd",
              "type": "uint40"
            },
            {
              "internalType": "uint40",
              "name": "ogMintStart",
              "type": "uint40"
            },
            {
              "internalType": "uint40",
              "name": "ogMintEnd",
              "type": "uint40"
            },
            {
              "internalType": "uint40",
              "name": "whitelistMintStart",
              "type": "uint40"
            },
            {
              "internalType": "uint40",
              "name": "whitelistMintEnd",
              "type": "uint40"
            },
            {
              "internalType": "uint16",
              "name": "whitelistMintMaxPerUser",
              "type": "uint16"
            }
          ],
          "internalType": "struct Stages",
          "name": "_mintingStages",
          "type": "tuple"
        },
        {
          "internalType": "address[]",
          "name": "_ogs",
          "type": "address[]"
        },
        {
          "internalType": "address[]",
          "name": "_wls",
          "type": "address[]"
        }
      ],
      "name": "createCollection",
      "outputs": [
        {
          "internalType": "address",
          "name": "_clone",
          "type": "address"
        }
      ],
      "stateMutability": "payable",
      "type": "function"
    },
    {
      "inputs": [],
      "name": "getTime",
      "outputs": [
        {
          "internalType": "uint256",
          "name": "",
          "type": "uint256"
        }
      ],
      "stateMutability": "view",
      "type": "function"
    },
    {
      "inputs": [
        {
          "internalType": "uint16",
          "name": "_days",
          "type": "uint16"
        }
      ],
      "name": "getTime",
      "outputs": [
        {
          "internalType": "uint256",
          "name": "",
          "type": "uint256"
        }
      ],
      "stateMutability": "view",
      "type": "function"
    },
    {
      "inputs": [
        {
          "internalType": "address",
          "name": "_extCollection",
          "type": "address"
        },
        {
          "internalType": "address",
          "name": "_artist",
          "type": "address"
        }
      ],
      "name": "grantReferral",
      "outputs": [],
      "stateMutability": "nonpayable",
      "type": "function"
    },
    {
      "inputs": [],
      "name": "initialize",
      "outputs": [],
      "stateMutability": "nonpayable",
      "type": "function"
    },
    {
      "inputs": [
        {
          "internalType": "address",
          "name": "",
          "type": "address"
        }
      ],
      "name": "members",
      "outputs": [
        {
          "internalType": "address",
          "name": "collection",
          "type": "address"
        },
        {
          "internalType": "uint72",
          "name": "deployFee",
          "type": "uint72"
        },
        {
          "internalType": "uint16",
          "name": "platformFee",
          "type": "uint16"
        },
        {
          "internalType": "uint16",
          "name": "discount",
          "type": "uint16"
        },
        {
          "internalType": "uint40",
          "name": "expiration",
          "type": "uint40"
        }
      ],
      "stateMutability": "view",
      "type": "function"
    },
    {
      "inputs": [],
      "name": "owner",
      "outputs": [
        {
          "internalType": "address",
          "name": "",
          "type": "address"
        }
      ],
      "stateMutability": "view",
      "type": "function"
    },
    {
      "inputs": [
        {
          "internalType": "address",
          "name": "",
          "type": "address"
        }
      ],
      "name": "partners",
      "outputs": [
        {
          "internalType": "address",
          "name": "collection",
          "type": "address"
        },
        {
          "internalType": "address",
          "name": "admin",
          "type": "address"
        },
        {
          "internalType": "uint16",
          "name": "adminOwnPercent",
          "type": "uint16"
        },
        {
          "internalType": "uint16",
          "name": "referralOwnPercent",
          "type": "uint16"
        },
        {
          "internalType": "uint16",
          "name": "discount",
          "type": "uint16"
        },
        {
          "internalType": "uint72",
          "name": "balance",
          "type": "uint72"
        },
        {
          "internalType": "uint40",
          "name": "expiration",
          "type": "uint40"
        }
      ],
      "stateMutability": "view",
      "type": "function"
    },
    {
      "inputs": [],
      "name": "proxiableUUID",
      "outputs": [
        {
          "internalType": "bytes32",
          "name": "",
          "type": "bytes32"
        }
      ],
      "stateMutability": "view",
      "type": "function"
    },
    {
      "inputs": [],
      "name": "publicStageWeeks",
      "outputs": [
        {
          "internalType": "uint8",
          "name": "",
          "type": "uint8"
        }
      ],
      "stateMutability": "view",
      "type": "function"
    },
    {
      "inputs": [
        {
          "internalType": "address",
          "name": "",
          "type": "address"
        }
      ],
      "name": "referralBalances",
      "outputs": [
        {
          "internalType": "uint72",
          "name": "",
          "type": "uint72"
        }
      ],
      "stateMutability": "view",
      "type": "function"
    },
    {
      "inputs": [],
      "name": "renounceOwnership",
      "outputs": [],
      "stateMutability": "nonpayable",
      "type": "function"
    },
    {
      "inputs": [],
      "name": "stageTimeCap",
      "outputs": [
        {
          "internalType": "uint40",
          "name": "",
          "type": "uint40"
        }
      ],
      "stateMutability": "view",
      "type": "function"
    },
    {
      "inputs": [
        {
          "internalType": "address",
          "name": "newOwner",
          "type": "address"
        }
      ],
      "name": "transferOwnership",
      "outputs": [],
      "stateMutability": "nonpayable",
      "type": "function"
    },
    {
      "inputs": [
        {
          "internalType": "address",
          "name": "_impl",
          "type": "address"
        }
      ],
      "name": "updateCollectionImpl",
      "outputs": [],
      "stateMutability": "payable",
      "type": "function"
    },
    {
      "inputs": [
        {
          "internalType": "address",
          "name": "_newMember",
          "type": "address"
        },
        {
          "internalType": "address",
          "name": "_collection",
          "type": "address"
        },
        {
          "internalType": "uint72",
          "name": "_deployFee",
          "type": "uint72"
        },
        {
          "internalType": "uint16",
          "name": "_platformFee",
          "type": "uint16"
        },
        {
          "internalType": "uint16",
          "name": "_discount",
          "type": "uint16"
        },
        {
          "internalType": "uint16",
          "name": "_expirationDays",
          "type": "uint16"
        }
      ],
      "name": "updateMember",
      "outputs": [],
      "stateMutability": "payable",
      "type": "function"
    },
    {
      "inputs": [
        {
          "internalType": "address",
          "name": "_collection",
          "type": "address"
        },
        {
          "internalType": "address",
          "name": "_admin",
          "type": "address"
        },
        {
          "internalType": "uint16",
          "name": "_adminOwnPercent",
          "type": "uint16"
        },
        {
          "internalType": "uint16",
          "name": "_referralOwnPercent",
          "type": "uint16"
        },
        {
          "internalType": "uint16",
          "name": "_discountPercent",
          "type": "uint16"
        },
        {
          "internalType": "uint16",
          "name": "_expirationDays",
          "type": "uint16"
        }
      ],
      "name": "updatePartnership",
      "outputs": [],
      "stateMutability": "nonpayable",
      "type": "function"
    },
    {
      "inputs": [
        {
          "internalType": "uint8",
          "name": "_publicStageWeeks",
          "type": "uint8"
        },
        {
          "internalType": "uint40",
          "name": "_stageTimeCapInDays",
          "type": "uint40"
        },
        {
          "internalType": "uint72",
          "name": "_updateStageFee",
          "type": "uint72"
        }
      ],
      "name": "updateStageConfig",
      "outputs": [],
      "stateMutability": "nonpayable",
      "type": "function"
    },
    {
      "inputs": [],
      "name": "updateStageFee",
      "outputs": [
        {
          "internalType": "uint72",
          "name": "",
          "type": "uint72"
        }
      ],
      "stateMutability": "view",
      "type": "function"
    },
    {
      "inputs": [
        {
          "internalType": "address",
          "name": "_newImplementation",
          "type": "address"
        }
      ],
      "name": "upgradeTo",
      "outputs": [],
      "stateMutability": "nonpayable",
      "type": "function"
    },
    {
      "inputs": [
        {
          "internalType": "address",
          "name": "newImplementation",
          "type": "address"
        },
        {
          "internalType": "bytes",
          "name": "data",
          "type": "bytes"
        }
      ],
      "name": "upgradeToAndCall",
      "outputs": [],
      "stateMutability": "payable",
      "type": "function"
    },
    {
      "inputs": [],
      "name": "withdraw",
      "outputs": [],
      "stateMutability": "payable",
      "type": "function"
    },
    {
      "inputs": [
        {
          "internalType": "address",
          "name": "_collection",
          "type": "address"
        }
      ],
      "name": "withdrawPartner",
      "outputs": [],
      "stateMutability": "nonpayable",
      "type": "function"
    },
    {
      "inputs": [],
      "name": "withdrawReferral",
      "outputs": [],
      "stateMutability": "nonpayable",
      "type": "function"
    },
    {
      "stateMutability": "payable",
      "type": "receive"
    }
  ],
  "bytecode": "0x60a060405230608052348015610013575f80fd5b50608051612fe86100485f395f8181610df401528181610e3401528181610ec501528181611b850152611bc50152612fe85ff3fe60806040526004361061019f575f3560e01c806368c16b22116100eb5780639ea0e07411610089578063d57f966b11610063578063d57f966b14610620578063ec2ae44414610635578063ee30b7dd14610654578063f2fde38b14610673576101a6565b80639ea0e074146105bf578063a9d0a3be146105d3578063be4b1ef9146105e6576101a6565b80638129fc1c116100c55780638129fc1c1461048657806381f4a0b51461049a5780638da5cb5b146104c557806395c33652146104e2576101a6565b806368c16b221461043b5780636f273dd81461045f578063715018a614610472576101a6565b80633ccfd60b116101585780634f1ef286116101325780634f1ef286146103e157806352d1902d146103f4578063557ed1ba14610416578063686ff55114610428576101a6565b80633ccfd60b1461039b5780633e680cd9146103a35780634a6798e8146103c2576101a6565b8063069dab8f146101bf57806308ae4b0c146102235780630e1e763f146102d85780632be7d54b146103245780633166ef01146103455780633659cfe61461037c576101a6565b366101a657005b604051631461bca560e11b815260040160405180910390fd5b3480156101ca575f80fd5b506101fe6101d93660046126bc565b60cc6020525f9081526040902080546001909101546001600160a01b03918216911682565b604080516001600160a01b039384168152929091166020830152015b60405180910390f35b34801561022e575f80fd5b5061029061023d3660046126bc565b60ce6020525f9081526040902080546001909101546001600160a01b038216916001600160481b03600160a01b8204169161ffff600160e81b90920482169181169064ffffffffff620100009091041685565b604080516001600160a01b0390961686526001600160481b03909416602086015261ffff9283169385019390935216606083015264ffffffffff16608082015260a00161021a565b3480156102e3575f80fd5b5061030c6102f23660046126bc565b60cf6020525f90815260409020546001600160481b031681565b6040516001600160481b03909116815260200161021a565b34801561032f575f80fd5b5061034361033e3660046126d5565b610692565b005b348015610350575f80fd5b5060c954610364906001600160a01b031681565b6040516001600160a01b03909116815260200161021a565b348015610387575f80fd5b506103436103963660046126bc565b6108fe565b610343610912565b3480156103ae575f80fd5b506103436103bd366004612717565b6109b9565b3480156103cd575f80fd5b506103436103dc3660046126bc565b610b7c565b6103436103ef36600461279b565b610dea565b3480156103ff575f80fd5b50610408610eb9565b60405190815260200161021a565b348015610421575f80fd5b5042610408565b6103436104363660046126bc565b610f6a565b348015610446575f80fd5b5060cb5461030c9061010090046001600160481b031681565b61034361046d36600461286d565b611058565b34801561047d575f80fd5b50610343611204565b348015610491575f80fd5b50610343611217565b3480156104a5575f80fd5b5060cb546104b39060ff1681565b60405160ff909116815260200161021a565b3480156104d0575f80fd5b506033546001600160a01b0316610364565b3480156104ed575f80fd5b506105656104fc3660046126bc565b60cd6020525f90815260409020805460018201546002909201546001600160a01b03918216929182169161ffff600160a01b8204811692600160b01b8304821692600160c01b9004909116906001600160481b0381169064ffffffffff600160481b9091041687565b604080516001600160a01b03988916815297909616602088015261ffff9485169587019590955291831660608601529190911660808401526001600160481b031660a083015264ffffffffff1660c082015260e00161021a565b3480156105ca575f80fd5b50610343611321565b6103646105e13660046128ef565b6113ef565b3480156105f1575f80fd5b5060cb5461060a90600160501b900464ffffffffff1681565b60405164ffffffffff909116815260200161021a565b34801561062b575f80fd5b5061040860ca5481565b348015610640575f80fd5b5061040861064f3660046129a7565b6119df565b34801561065f575f80fd5b5061034361066e3660046129d4565b611a06565b34801561067e575f80fd5b5061034361068d3660046126bc565b611aab565b6040516370a0823160e01b81523360048201819052905f9081906001600160a01b038616906370a08231906024016020604051808303815f875af11580156106dc573d5f803e3d5ffd5b505050506040513d601f19601f820116820180604052508101906107009190612a1b565b1190508061072957604051630f97aaed60e41b8152600160048201526024015b60405180910390fd5b6001600160a01b038085165f90815260cd60209081526040808320815160e08101835281548616815260018201549586169381019390935261ffff600160a01b8604811692840192909252600160b01b850482166060840152600160c01b90940416608082018190526002909301546001600160481b03811660a083015264ffffffffff600160481b9091041660c082015291158015906107d45750428260c0015164ffffffffff16115b9050806107f757604051630f97aaed60e41b815260026004820152602401610720565b846001600160a01b0316846001600160a01b03160361082c57604051630f97aaed60e41b815260036004820152602401610720565b6001600160a01b038581165f90815260cc6020526040902054161561086657604051630f97aaed60e41b8152600481810152602401610720565b6040805180820182526001600160a01b0386811680835289821660208085018281528b85165f81815260cc8452889020965187549087166001600160a01b03199182161788559151600190970180549790961696909116959095179093559351938452927f35ffbc061b07d6db6bbeaa77e8f6d55c84df847b91a72350195b7cc9f106869391015b60405180910390a3505050505050565b610906611b21565b61090f81611b7b565b50565b61091a611b21565b60405147905f90339083908381818185875af1925050503d805f811461095b576040519150601f19603f3d011682016040523d82523d5f602084013e610960565b606091505b505090508061098257604051631f90846b60e21b815260040160405180910390fd5b6040518281527f36d87f67b5609def24de3917d6e2b3c0ddd29370bd33cc2eb5821e814dbc77299060200160405180910390a15050565b6109c1611b21565b6001600160a01b0385166109e85760405163167bdd6760e01b815260040160405180910390fd5b6040518060e00160405280876001600160a01b03168152602001866001600160a01b031681526020018561ffff1681526020018461ffff1681526020018361ffff1681526020015f6001600160481b031681526020018261ffff1662015180610a519190612a46565b610a609062ffffff1642612a6d565b64ffffffffff9081169091526001600160a01b038881165f81815260cd6020908152604091829020865181546001600160a01b031916908616178155868201516001820180548986015160608b015160808c0151948a166001600160b01b031990931692909217600160a01b61ffff928316021763ffffffff60b01b1916600160b01b9282169290920261ffff60c01b191691909117600160c01b9382169390930292909217905560a08801516002909201805460c0909901516001600160481b039093166001600160701b031990991698909817600160481b92909716919091029590951790955551928516835292908816917fd15d14723ef437ff41a8a33dd8e672905c30cf3f26a7d05b15460619992fb77391016108ee565b6001600160a01b038181165f90815260cd6020908152604091829020825160e0810184528154851681526001820154948516928101839052600160a01b850461ffff90811694820194909452600160b01b850484166060820152600160c01b90940490921660808401526002909101546001600160481b03811660a08401819052600160481b90910464ffffffffff1660c08401529033908114610c36576040516327bc636d60e01b815260016004820152602401610720565b5f8211610c59576040516327bc636d60e01b815260026004820152602401610720565b5f60a084018181526001600160a01b03868116835260cd60209081526040808520885181546001600160a01b03191690851617815591880151600183018054838b015160608c015160808d01519488166001600160b01b031990931692909217600160a01b61ffff928316021763ffffffff60b01b1916600160b01b9282169290920261ffff60c01b191691909117600160c01b919093160291909117905592516002909101805460c08901516001600160481b039093166001600160701b031990911617600160481b64ffffffffff9093169290920291909117905590519083169084905f6040518083038185875af1925050503d805f8114610d78576040519150601f19603f3d011682016040523d82523d5f602084013e610d7d565b606091505b5050905080610da2576040516327bc636d60e01b815260036004820152602401610720565b82856001600160a01b0316836001600160a01b03167f3cebcff4b474dd1638e05b88c97b76249ed7a5b06775d18fa6f9f978ced7eccf60405160405180910390a45050505050565b6001600160a01b037f0000000000000000000000000000000000000000000000000000000000000000163003610e325760405162461bcd60e51b815260040161072090612a80565b7f00000000000000000000000000000000000000000000000000000000000000006001600160a01b0316610e7a5f80516020612f6c833981519152546001600160a01b031690565b6001600160a01b031614610ea05760405162461bcd60e51b815260040161072090612acc565b610ea982611c55565b610eb582826001611c5d565b5050565b5f306001600160a01b037f00000000000000000000000000000000000000000000000000000000000000001614610f585760405162461bcd60e51b815260206004820152603860248201527f555550535570677261646561626c653a206d757374206e6f742062652063616c60448201527f6c6564207468726f7567682064656c656761746563616c6c00000000000000006064820152608401610720565b505f80516020612f6c83398151915290565b610f72611b21565b6040516301ffc9a760e01b815263184371e560e31b60048201526001600160a01b038216906301ffc9a7906024016020604051808303815f875af1158015610fbc573d5f803e3d5ffd5b505050506040513d601f19601f82011682018060405250810190610fe09190612b25565b156110055760c980546001600160a01b0319166001600160a01b03831617905561101e565b60405163109fc08560e21b815260040160405180910390fd5b60c9546040516001600160a01b03909116907f1f429f4905add3396291cd5fed632430e672564b59710524a74bff513cc99f07905f90a250565b611060611b21565b6001600160a01b03861661108a5760405163cbb282d960e01b815260016004820152602401610720565b6127108361ffff161180156110a457506127108261ffff16115b156110c55760405163cbb282d960e01b815260026004820152602401610720565b6040518060a00160405280866001600160a01b03168152602001856001600160481b031681526020018461ffff1681526020018361ffff1681526020018261ffff16620151806111159190612a46565b6111249062ffffff1642612a6d565b64ffffffffff9081169091526001600160a01b038089165f81815260ce602090815260409182902086518154928801518885015161ffff908116600160e81b0261ffff60e81b196001600160481b03909316600160a01b026001600160e81b0319909616938916939093179490941716178155606087015160019091018054608090980151909616620100000266ffffffffffffff19909716911617949094179092559151918716917ff43dea6ce4f10c385ba08e446878b2f4d2927c6da3e45cbfeabef439925347e6906108ee90859061ffff91909116815260200190565b61120c611b21565b6112155f611dcc565b565b5f54610100900460ff161580801561123557505f54600160ff909116105b8061124e5750303b15801561124e57505f5460ff166001145b6112b15760405162461bcd60e51b815260206004820152602e60248201527f496e697469616c697a61626c653a20636f6e747261637420697320616c72656160448201526d191e481a5b9a5d1a585b1a5e995960921b6064820152608401610720565b5f805460ff1916600117905580156112d2575f805461ff0019166101001790555b6112da611e1d565b801561090f575f805461ff0019169055604051600181527f7f26b83ff96e1f2b6a682f133852f6798a09c465da95921460cefb38474024989060200160405180910390a150565b335f81815260cf6020526040808220805468ffffffffffffffffff19811690915590516001600160481b039091169190839083908381818185875af1925050503d805f811461138b576040519150601f19603f3d011682016040523d82523d5f602084013e611390565b606091505b50509050806113b557604051633ea2be3f60e21b815260026004820152602401610720565b60405182906001600160a01b038516907ff8987342fdec6708e94f07fc67551499227dc2ac486faabd9e328d7eb71b613d905f90a3505050565b5f6114026033546001600160a01b031690565b6001600160a01b0316336001600160a01b0316148061143f5750335f90815260ce6020526040902060010154426201000090910464ffffffffff16115b6114745760405162461bcd60e51b815260040161072090602080825260049082015263082eae8d60e31b604082015260600190565b335f81815260cc602090815260408083208151808301835281546001600160a01b03908116825260019283015481168286015286865260ce855294839020835160a08101855281549687168152600160a01b87046001600160481b0316958101869052600160e81b90960461ffff9081169487019490945290910154918216606085018190526201000090920464ffffffffff166080850152349390929091156115bf575f611534826001600160481b0316846060015161ffff16611e4b565b9050611549816001600160481b038416612b40565b85101561156c576040516355ac148b60e11b815260016004820152602401610720565b604080516001600160481b0384168152602081018390526001600160a01b038816917f121699eaf121520009b74151fd58375119e44c6e46e8f5f80e5247fd0bc06da1910160405180910390a250611759565b82516001600160a01b03161561172c576020838101516001600160a01b039081165f90815260cd83526040808220815160e081018352815485168152600182015494851695810195909552600160a01b840461ffff90811692860192909252600160b01b840482166060860152600160c01b90930416608084018190526002909201546001600160481b0380821660a0860152600160481b90910464ffffffffff1660c0850152909161167491851690611e4b565b9050611689816001600160481b038516612b40565b8610156116ac576040516355ac148b60e11b815260026004820152602401610720565b6116c2858389866001600160481b031685611e6e565b604080518082019091525f8082526020820152604080516001600160481b0386168152602081018490529196506001600160a01b038916917f511dc57e9bf57b19763d6dc6d82c3efa05c35beb63ab037676fb7c52bde314a3910160405180910390a25050611759565b806001600160481b0316841015611759576040516355ac148b60e11b815260036004820152602401610720565b60408051606087901b6bffffffffffffffffffffffff19166020820152600160f91b6034820152601960f31b6035820152642386f26fc160c81b6037820152600760d81b8183015281516025818303018152604590910190915260c9546117c9906001600160a01b031682612263565b96506001600160a01b0387166117f4576040516355ac148b60e11b8152600481810152602401610720565b5f836080019064ffffffffff16908164ffffffffff168152505086835f01906001600160a01b031690816001600160a01b0316815250508260ce5f886001600160a01b03166001600160a01b031681526020019081526020015f205f820151815f015f6101000a8154816001600160a01b0302191690836001600160a01b031602179055506020820151815f0160146101000a8154816001600160481b0302191690836001600160481b031602179055506040820151815f01601d6101000a81548161ffff021916908361ffff1602179055506060820151816001015f6101000a81548161ffff021916908361ffff16021790555060808201518160010160026101000a81548164ffffffffff021916908364ffffffffff16021790555090505060ca5460010160ca81905550866001600160a01b0316634464f7778e8e8e8e8e8e6040518763ffffffff1660e01b815260040161195796959493929190612d5e565b5f604051808303815f87803b15801561196e575f80fd5b505af1158015611980573d5f803e3d5ffd5b505060c954604080516001600160a01b0392831681528b83166020820152918a1693507f3260bb218255e98a3f5731b9cd14cede49bbf1988ccd323b4a4912568739823192500160405180910390a25050505050509695505050505050565b5f6119f161ffff831662015180612a46565b611a009062ffffff1642612a6d565b92915050565b611a0e611b21565b60cb805460ff85166effffffffff000000000000000000ff199091168117600160501b64ffffffffff86169081029190911769ffffffffffffffffff0019166101006001600160481b038616908102919091179093556040805192835260208301919091528101919091527fa2c2926e19aea4c121d34a19d450da2b53728b4412e78bea1749620d652fed2e9060600160405180910390a1505050565b611ab3611b21565b6001600160a01b038116611b185760405162461bcd60e51b815260206004820152602660248201527f4f776e61626c653a206e6577206f776e657220697320746865207a65726f206160448201526564647265737360d01b6064820152608401610720565b61090f81611dcc565b6033546001600160a01b031633146112155760405162461bcd60e51b815260206004820181905260248201527f4f776e61626c653a2063616c6c6572206973206e6f7420746865206f776e65726044820152606401610720565b6001600160a01b037f0000000000000000000000000000000000000000000000000000000000000000163003611bc35760405162461bcd60e51b815260040161072090612a80565b7f00000000000000000000000000000000000000000000000000000000000000006001600160a01b0316611c0b5f80516020612f6c833981519152546001600160a01b031690565b6001600160a01b031614611c315760405162461bcd60e51b815260040161072090612acc565b611c3a81611c55565b604080515f8082526020820190925261090f91839190611c5d565b61090f611b21565b7f4910fdfa16fed3260ed0e7147f7cc6da11a60208b5b9406d12a635614ffd91435460ff1615611c9557611c908361234c565b505050565b826001600160a01b03166352d1902d6040518163ffffffff1660e01b8152600401602060405180830381865afa925050508015611cef575060408051601f3d908101601f19168201909252611cec91810190612a1b565b60015b611d525760405162461bcd60e51b815260206004820152602e60248201527f45524331393637557067726164653a206e657720696d706c656d656e7461746960448201526d6f6e206973206e6f74205555505360901b6064820152608401610720565b5f80516020612f6c8339815191528114611dc05760405162461bcd60e51b815260206004820152602960248201527f45524331393637557067726164653a20756e737570706f727465642070726f786044820152681a58589b195555525160ba1b6064820152608401610720565b50611c908383836123e7565b603380546001600160a01b038381166001600160a01b0319831681179093556040519116919082907f8be0079c531659141344cd1fd0a4f28419497f9722a3daafe3b4186f6b6457e0905f90a35050565b5f54610100900460ff16611e435760405162461bcd60e51b815260040161072090612e9d565b611215612411565b5f611e67836bffffffffffffffffffffffff8416612710612440565b9392505050565b5f611e798284612b40565b90505f8190505f611e9283886060015161ffff16611e4b565b9050611e9e8183612b40565b88516001600160a01b03165f90815260cf6020526040902054909250611ece9082906001600160481b0316612a6d565b60cf5f8a5f01516001600160a01b03166001600160a01b031681526020019081526020015f205f6101000a8154816001600160481b0302191690836001600160481b031602179055508760cc5f886001600160a01b03166001600160a01b031681526020019081526020015f205f820151815f015f6101000a8154816001600160a01b0302191690836001600160a01b031602179055506020820151816001015f6101000a8154816001600160a01b0302191690836001600160a01b0316021790555090505060cf5f895f01516001600160a01b03166001600160a01b031681526020019081526020015f205f9054906101000a90046001600160481b03166001600160481b0316885f01516001600160a01b03167f5638fe1d59cbaff19a53ea05820ebcfe8d70bd87ba73873ceeea44c20714973160405160405180910390a35f61202284896040015161ffff16611e4b565b905061202e8184612b40565b9250808860a001516001600160481b03166120499190612a6d565b8860a001906001600160481b031690816001600160481b0316815250508760cd5f8b602001516001600160a01b03166001600160a01b031681526020019081526020015f205f820151815f015f6101000a8154816001600160a01b0302191690836001600160a01b031602179055506020820151816001015f6101000a8154816001600160a01b0302191690836001600160a01b0316021790555060408201518160010160146101000a81548161ffff021916908361ffff16021790555060608201518160010160166101000a81548161ffff021916908361ffff16021790555060808201518160010160186101000a81548161ffff021916908361ffff16021790555060a0820151816002015f6101000a8154816001600160481b0302191690836001600160481b0316021790555060c08201518160020160096101000a81548164ffffffffff021916908364ffffffffff1602179055509050508760a001516001600160481b031688602001516001600160a01b03167fffba746bd7819bccbdb2aa674c014ebacac05d280ba6f9f5912dadf6a9e3a22b60405160405180910390a383826121f98386612a6d565b6122039190612a6d565b10156122255760405163ee3231cb60e01b815260026004820152602401610720565b6040518381527f91582d1b5b6cbe42046740d0377969b6922857f4fae81ba3a7dce5023a607fa99060200160405180910390a1505050505050505050565b5f60608203516040830351602084035184518060208701018051600283016c5af43d3d93803e606057fd5bf3895289600d8a035278593da1005b363d3d373d3d3d3d610000806062363936013d738160481b1760218a03527f9e4ac34f21c619cefc926c8bd93b54bf5a39c7ab2127a895af1cc0691d7e3dff603a8a035272fd6100003d81600a3d39f336602c57343d527f6062820160781b1761ff9e82106059018a03528060f01b8352606c8101604c8a035ff09750508661232d5763301164255f526004601cfd5b90528552601f19850152603f19840152605f1990920191909152919050565b6001600160a01b0381163b6123b95760405162461bcd60e51b815260206004820152602d60248201527f455243313936373a206e657720696d706c656d656e746174696f6e206973206e60448201526c1bdd08184818dbdb9d1c9858dd609a1b6064820152608401610720565b5f80516020612f6c83398151915280546001600160a01b0319166001600160a01b0392909216919091179055565b6123f083612524565b5f825111806123fc5750805b15611c905761240b8383612563565b50505050565b5f54610100900460ff166124375760405162461bcd60e51b815260040161072090612e9d565b61121533611dcc565b5f80805f19858709858702925082811083820303915050805f036124775783828161246d5761246d612ee8565b0492505050611e67565b8084116124be5760405162461bcd60e51b81526020600482015260156024820152744d6174683a206d756c446976206f766572666c6f7760581b6044820152606401610720565b5f84868809600260036001881981018916988990049182028318808302840302808302840302808302840302808302840302808302840302918202909203025f889003889004909101858311909403939093029303949094049190911702949350505050565b61252d8161234c565b6040516001600160a01b038216907fbc7cd75a20ee27fd9adebab32041f755214dbc6bffa90cc0225b39da2e5c2d3b905f90a250565b6060611e678383604051806060016040528060278152602001612f8c6027913960605f80856001600160a01b03168560405161259f9190612f1e565b5f60405180830381855af49150503d805f81146125d7576040519150601f19603f3d011682016040523d82523d5f602084013e6125dc565b606091505b50915091506125ed868383876125f7565b9695505050505050565b606083156126655782515f0361265e576001600160a01b0385163b61265e5760405162461bcd60e51b815260206004820152601d60248201527f416464726573733a2063616c6c20746f206e6f6e2d636f6e74726163740000006044820152606401610720565b508161266f565b61266f8383612677565b949350505050565b8151156126875781518083602001fd5b8060405162461bcd60e51b81526004016107209190612f39565b80356001600160a01b03811681146126b7575f80fd5b919050565b5f602082840312156126cc575f80fd5b611e67826126a1565b5f80604083850312156126e6575f80fd5b6126ef836126a1565b91506126fd602084016126a1565b90509250929050565b803561ffff811681146126b7575f80fd5b5f805f805f8060c0878903121561272c575f80fd5b612735876126a1565b9550612743602088016126a1565b945061275160408801612706565b935061275f60608801612706565b925061276d60808801612706565b915061277b60a08801612706565b90509295509295509295565b634e487b7160e01b5f52604160045260245ffd5b5f80604083850312156127ac575f80fd5b6127b5836126a1565b9150602083013567ffffffffffffffff808211156127d1575f80fd5b818501915085601f8301126127e4575f80fd5b8135818111156127f6576127f6612787565b604051601f8201601f19908116603f0116810190838211818310171561281e5761281e612787565b81604052828152886020848701011115612836575f80fd5b826020860160208301375f6020848301015280955050505050509250929050565b80356001600160481b03811681146126b7575f80fd5b5f805f805f8060c08789031215612882575f80fd5b61288b876126a1565b9550612899602088016126a1565b945061275160408801612857565b5f8083601f8401126128b7575f80fd5b50813567ffffffffffffffff8111156128ce575f80fd5b6020830191508360208260051b85010111156128e8575f80fd5b9250929050565b5f805f805f80868803610200811215612906575f80fd5b873567ffffffffffffffff8082111561291d575f80fd5b9089019060e0828c031215612930575f80fd5b8198506101a0601f1984011215612945575f80fd5b60208a0197506101c08a013592508083111561295f575f80fd5b61296b8b848c016128a7565b90975095506101e08a0135925086915080831115612987575f80fd5b505061299589828a016128a7565b979a9699509497509295939492505050565b5f602082840312156129b7575f80fd5b611e6782612706565b803564ffffffffff811681146126b7575f80fd5b5f805f606084860312156129e6575f80fd5b833560ff811681146129f6575f80fd5b9250612a04602085016129c0565b9150612a1260408501612857565b90509250925092565b5f60208284031215612a2b575f80fd5b5051919050565b634e487b7160e01b5f52601160045260245ffd5b62ffffff818116838216028082169190828114612a6557612a65612a32565b505092915050565b80820180821115611a0057611a00612a32565b6020808252602c908201527f46756e6374696f6e206d7573742062652063616c6c6564207468726f7567682060408201526b19195b1959d85d1958d85b1b60a21b606082015260800190565b6020808252602c908201527f46756e6374696f6e206d7573742062652063616c6c6564207468726f7567682060408201526b6163746976652070726f787960a01b606082015260800190565b801515811461090f575f80fd5b5f60208284031215612b35575f80fd5b8151611e6781612b18565b81810381811115611a0057611a00612a32565b5f808335601e19843603018112612b68575f80fd5b830160208101925035905067ffffffffffffffff811115612b87575f80fd5b8036038213156128e8575f80fd5b81835281816020850137505f828201602090810191909152601f909101601f19169091010190565b80356001600160801b03811681146126b7575f80fd5b80356126b781612b18565b612bf182612beb83612bd3565b15159052565b612bfd60208201612857565b6001600160481b03166020830152612c1760408201612857565b6001600160481b03166040830152612c3160608201612857565b6001600160481b03166060830152612c4b60808201612706565b61ffff166080830152612c6060a08201612706565b61ffff1660a0830152612c7560c082016129c0565b64ffffffffff1660c0830152612c8d60e082016129c0565b64ffffffffff1660e0830152610100612ca78282016129c0565b64ffffffffff1690830152610120612cc08282016129c0565b64ffffffffff1690830152610140612cd98282016129c0565b64ffffffffff1690830152610160612cf28282016129c0565b64ffffffffff1690830152610180612d0b828201612706565b61ffff81168483015261240b565b8183525f60208085019450825f5b85811015612d53576001600160a01b03612d40836126a1565b1687529582019590820190600101612d27565b509495945050505050565b5f610200808352612d6f898a612b53565b60e083860152612d846102e086018284612b95565b92505050612d9560208a018a612b53565b6101ff198086850301610220870152612daf848385612b95565b9350612dbe60408d018d612b53565b935091508086850301610240870152612dd8848484612b95565b9350612de760608d018d612b53565b93509150808685030161026087015250612e02838383612b95565b92506001600160a01b039150612e1c905060808b016126a1565b16610280840152612e2f60a08a01612bbd565b6001600160801b03166102a0840152612e4a60c08a01612bbd565b6001600160801b03166102c0840152612e666020840189612bde565b8281036101c0840152612e7a818789612d19565b90508281036101e0840152612e90818587612d19565b9998505050505050505050565b6020808252602b908201527f496e697469616c697a61626c653a20636f6e7472616374206973206e6f74206960408201526a6e697469616c697a696e6760a81b606082015260800190565b634e487b7160e01b5f52601260045260245ffd5b5f5b83811015612f16578181015183820152602001612efe565b50505f910152565b5f8251612f2f818460208701612efc565b9190910192915050565b602081525f8251806020840152612f57816040850160208701612efc565b601f01601f1916919091016040019291505056fe360894a13ba1a3210667c828492db98dca3e2076cc3735a920a3ca505d382bbc416464726573733a206c6f772d6c6576656c2064656c65676174652063616c6c206661696c6564a2646970667358221220205c491f8defd934941f79e238d32e3456d380cb2748ae38501b859c51cd24be64736f6c63430008140033",
  "linkReferences": {},
  "deployedLinkReferences": {}
}