{
  "_format": "hh-sol-artifact-1",
  "contractName": "MvxFactory",
  "sourceName": "src/MvxFactory.sol",
  "abi": [
    {
      "inputs": [
        {
          "internalType": "uint256",
          "name": "freeOnMint",
          "type": "uint256"
        }
      ],
      "stateMutability": "nonpayable",
      "type": "constructor"
    },
    {
      "inputs": [],
      "name": "CreateCloneError",
      "type": "error"
    },
    {
      "inputs": [
        {
          "internalType": "uint8",
          "name": "",
          "type": "uint8"
        }
      ],
      "name": "InvalidColletion",
      "type": "error"
    },
    {
      "anonymous": false,
      "inputs": [
        {
          "indexed": true,
          "internalType": "address",
          "name": "sender",
          "type": "address"
        },
        {
          "indexed": false,
          "internalType": "address",
          "name": "impl",
          "type": "address"
        },
        {
          "indexed": false,
          "internalType": "address",
          "name": "cloneAddress",
          "type": "address"
        }
      ],
      "name": "CreateCloneEvent",
      "type": "event"
    },
    {
      "anonymous": false,
      "inputs": [
        {
          "indexed": false,
          "internalType": "address",
          "name": "sender",
          "type": "address"
        },
        {
          "indexed": false,
          "internalType": "address",
          "name": "template",
          "type": "address"
        },
        {
          "indexed": false,
          "internalType": "address",
          "name": "clone",
          "type": "address"
        }
      ],
      "name": "CreateCollectionEvent",
      "type": "event"
    },
    {
      "anonymous": false,
      "inputs": [
        {
          "indexed": false,
          "internalType": "address",
          "name": "sender",
          "type": "address"
        },
        {
          "indexed": false,
          "internalType": "address",
          "name": "collection",
          "type": "address"
        }
      ],
      "name": "InitCollectionEvent",
      "type": "event"
    },
    {
      "anonymous": false,
      "inputs": [
        {
          "indexed": false,
          "internalType": "address",
          "name": "sender",
          "type": "address"
        }
      ],
      "name": "InitOwnerEvent",
      "type": "event"
    },
    {
      "stateMutability": "payable",
      "type": "fallback"
    },
    {
      "inputs": [],
      "name": "_collectionImpl",
      "outputs": [
        {
          "internalType": "address",
          "name": "",
          "type": "address"
        }
      ],
      "stateMutability": "view",
      "type": "function"
    },
    {
      "inputs": [],
      "name": "_deployFee",
      "outputs": [
        {
          "internalType": "uint256",
          "name": "",
          "type": "uint256"
        }
      ],
      "stateMutability": "view",
      "type": "function"
    },
    {
      "inputs": [],
      "name": "_mintFee",
      "outputs": [
        {
          "internalType": "uint256",
          "name": "",
          "type": "uint256"
        }
      ],
      "stateMutability": "view",
      "type": "function"
    },
    {
      "inputs": [],
      "name": "_owner",
      "outputs": [
        {
          "internalType": "address",
          "name": "",
          "type": "address"
        }
      ],
      "stateMutability": "view",
      "type": "function"
    },
    {
      "inputs": [
        {
          "internalType": "address",
          "name": "",
          "type": "address"
        }
      ],
      "name": "collections",
      "outputs": [
        {
          "internalType": "address",
          "name": "",
          "type": "address"
        }
      ],
      "stateMutability": "view",
      "type": "function"
    },
    {
      "inputs": [
        {
          "internalType": "bytes",
          "name": "nftsData",
          "type": "bytes"
        },
        {
          "internalType": "address[]",
          "name": "initialOGMinters",
          "type": "address[]"
        },
        {
          "internalType": "address[]",
          "name": "initialWLMinters",
          "type": "address[]"
        },
        {
          "internalType": "uint256[]",
          "name": "mintingStages",
          "type": "uint256[]"
        }
      ],
      "name": "createCollection",
      "outputs": [
        {
          "internalType": "address",
          "name": "_clone",
          "type": "address"
        }
      ],
      "stateMutability": "payable",
      "type": "function"
    },
    {
      "inputs": [],
      "name": "getTime",
      "outputs": [
        {
          "internalType": "uint256",
          "name": "_time",
          "type": "uint256"
        }
      ],
      "stateMutability": "view",
      "type": "function"
    },
    {
      "inputs": [
        {
          "internalType": "uint256",
          "name": "_daysFromNow",
          "type": "uint256"
        }
      ],
      "name": "getTime",
      "outputs": [
        {
          "internalType": "uint256",
          "name": "_time",
          "type": "uint256"
        }
      ],
      "stateMutability": "view",
      "type": "function"
    },
    {
      "inputs": [
        {
          "internalType": "address",
          "name": "",
          "type": "address"
        }
      ],
      "name": "members",
      "outputs": [
        {
          "internalType": "uint256",
          "name": "",
          "type": "uint256"
        }
      ],
      "stateMutability": "view",
      "type": "function"
    },
    {
      "inputs": [
        {
          "internalType": "address",
          "name": "impl",
          "type": "address"
        }
      ],
      "name": "setCollectionImpl",
      "outputs": [],
      "stateMutability": "payable",
      "type": "function"
    },
    {
      "inputs": [],
      "name": "totalCollections",
      "outputs": [
        {
          "internalType": "uint256",
          "name": "_total",
          "type": "uint256"
        }
      ],
      "stateMutability": "view",
      "type": "function"
    },
    {
      "inputs": [
        {
          "internalType": "address",
          "name": "newOner",
          "type": "address"
        }
      ],
      "name": "transferOwnerShip",
      "outputs": [],
      "stateMutability": "payable",
      "type": "function"
    },
    {
      "inputs": [
        {
          "internalType": "uint256",
          "name": "_newFee",
          "type": "uint256"
        }
      ],
      "name": "updateDeployFee",
      "outputs": [],
      "stateMutability": "payable",
      "type": "function"
    },
    {
      "inputs": [
        {
          "internalType": "address",
          "name": "user",
          "type": "address"
        },
        {
          "internalType": "uint256",
          "name": "expire",
          "type": "uint256"
        }
      ],
      "name": "updateMember",
      "outputs": [],
      "stateMutability": "payable",
      "type": "function"
    },
    {
      "inputs": [
        {
          "internalType": "uint256",
          "name": "fee",
          "type": "uint256"
        }
      ],
      "name": "updateMintFee",
      "outputs": [],
      "stateMutability": "payable",
      "type": "function"
    },
    {
      "inputs": [],
      "name": "withdraw",
      "outputs": [],
      "stateMutability": "payable",
      "type": "function"
    },
    {
      "stateMutability": "payable",
      "type": "receive"
    }
  ],
  "bytecode": "0x608060405234801561001057600080fd5b5060405161133e38038061133e83398101604081905261002f91610082565b600380546001600160a01b0319163390811790915560058290556040519081527fe2055b4a17156dbca92ef540b83891300ae11bef4c8a16e4dc4c836616bbbc5e9060200160405180910390a15061009b565b60006020828403121561009457600080fd5b5051919050565b611294806100aa6000396000f3fe6080604052600436106100f75760003560e01c80637ed6f6a61161008a578063a760d1a911610059578063a760d1a9146102d4578063b2bdfa7b146102e7578063be2a4aaa14610314578063f2a08abb14610341576100fe565b80637ed6f6a61461028557806384017e52146102985780638863dd1a146102ab57806399d3aef8146102be576100fe565b806343add2e6116100c657806343add2e6146101fa578063557ed1ba1461023d57806361d9db2d146102505780637362782614610265576100fe565b806308ae4b0c14610165578063336137c8146101a55780633aaabfe8146101ba5780633ccfd60b146101f2576100fe565b366100fe57005b6040517f08c379a000000000000000000000000000000000000000000000000000000000815260206004820152600b60248201527f556e737570706f7274656400000000000000000000000000000000000000000060448201526064015b60405180910390fd5b34801561017157600080fd5b50610192610180366004610f0c565b60016020526000908152604090205481565b6040519081526020015b60405180910390f35b6101b86101b3366004610f2e565b610357565b005b6101cd6101c8366004610fa4565b61049d565b60405173ffffffffffffffffffffffffffffffffffffffff909116815260200161019c565b6101b8610850565b34801561020657600080fd5b506101cd610215366004610f0c565b60006020819052908152604090205473ffffffffffffffffffffffffffffffffffffffff1681565b34801561024957600080fd5b5042610192565b34801561025c57600080fd5b50600654610192565b34801561027157600080fd5b50610192610280366004611093565b610900565b6101b8610293366004611093565b610933565b6101b86102a6366004611093565b610a23565b6101b86102b9366004610f0c565b610aa9565b3480156102ca57600080fd5b5061019260045481565b6101b86102e2366004610f0c565b610bee565b3480156102f357600080fd5b506003546101cd9073ffffffffffffffffffffffffffffffffffffffff1681565b34801561032057600080fd5b506002546101cd9073ffffffffffffffffffffffffffffffffffffffff1681565b34801561034d57600080fd5b5061019260055481565b60035473ffffffffffffffffffffffffffffffffffffffff1633146103d8576040517f08c379a000000000000000000000000000000000000000000000000000000000815260206004820152600a60248201527f4f6e6c79206f776e657200000000000000000000000000000000000000000000604482015260640161015c565b60006103e582603c6110db565b6103f090603c6110db565b6103fb9060186110db565b61040590426110f2565b9050804210610470576040517f08c379a000000000000000000000000000000000000000000000000000000000815260206004820152601360248201527f496e76616c69642076616c696420756e74696c00000000000000000000000000604482015260640161015c565b73ffffffffffffffffffffffffffffffffffffffff90921660009081526001602052604090209190915550565b60035460009073ffffffffffffffffffffffffffffffffffffffff163314806104d55750336000908152600160205260409020544211155b61053b576040517f08c379a000000000000000000000000000000000000000000000000000000000815260206004820152600960248201527f4f6e6c7920417574680000000000000000000000000000000000000000000000604482015260640161015c565b6004543410156105a7576040517f08c379a000000000000000000000000000000000000000000000000000000000815260206004820152601260248201527f4d697373696e67206465706c6f79206665650000000000000000000000000000604482015260640161015c565b604080513360601b7fffffffffffffffffffffffffffffffffffffffff00000000000000000000000016602082015281516014818303018152603490910190915260025461060b9073ffffffffffffffffffffffffffffffffffffffff1682610d9d565b915073ffffffffffffffffffffffffffffffffffffffff821661065a576040517f7b00e2d600000000000000000000000000000000000000000000000000000000815260040160405180910390fd5b336000818152602081815260409182902080547fffffffffffffffffffffffff00000000000000000000000000000000000000001673ffffffffffffffffffffffffffffffffffffffff878116918217909255600254845195865290911691840191909152908201527f3139cdb0cb014c974ebe32298933f6d15740acf85d0c96c06622349626c081a19060600160405180910390a16000600454346107009190611105565b11156107435760045433906108fc906107199034611105565b6040518115909202916000818181858888f19350505050158015610741573d6000803e3d6000fd5b505b336000908152600160205260408082209190915560055490517f187a3dd000000000000000000000000000000000000000000000000000000000815273ffffffffffffffffffffffffffffffffffffffff84169163187a3dd0916107ba91908e908e908e908e908e908e908e908e9060040161116c565b600060405180830381600087803b1580156107d457600080fd5b505af11580156107e8573d6000803e3d6000fd5b505060068054600101905550506040805133815273ffffffffffffffffffffffffffffffffffffffff841660208201527f341d20911b8c9f75aff046f835ead78f73dfa120c3bdc66f8a852831f83e6a70910160405180910390a15098975050505050505050565b60035473ffffffffffffffffffffffffffffffffffffffff1633146108d1576040517f08c379a000000000000000000000000000000000000000000000000000000000815260206004820152600a60248201527f4f6e6c79206f776e657200000000000000000000000000000000000000000000604482015260640161015c565b60405133904780156108fc02916000818181858888f193505050501580156108fd573d6000803e3d6000fd5b50565b600061090d82603c6110db565b61091890603c6110db565b6109239060186110db565b61092d90426110f2565b92915050565b60035473ffffffffffffffffffffffffffffffffffffffff1633146109b4576040517f08c379a000000000000000000000000000000000000000000000000000000000815260206004820152600a60248201527f4f6e6c79206f776e657200000000000000000000000000000000000000000000604482015260640161015c565b60008111610a1e576040517f08c379a000000000000000000000000000000000000000000000000000000000815260206004820152600b60248201527f496e76616c696420466565000000000000000000000000000000000000000000604482015260640161015c565b600455565b60035473ffffffffffffffffffffffffffffffffffffffff163314610aa4576040517f08c379a000000000000000000000000000000000000000000000000000000000815260206004820152600a60248201527f4f6e6c79206f776e657200000000000000000000000000000000000000000000604482015260640161015c565b600555565b60035473ffffffffffffffffffffffffffffffffffffffff163314610b2a576040517f08c379a000000000000000000000000000000000000000000000000000000000815260206004820152600a60248201527f4f6e6c79206f776e657200000000000000000000000000000000000000000000604482015260640161015c565b73ffffffffffffffffffffffffffffffffffffffff8116610ba7576040517f08c379a000000000000000000000000000000000000000000000000000000000815260206004820152600c60248201527f5a65726f20616464726573730000000000000000000000000000000000000000604482015260640161015c565b600380547fffffffffffffffffffffffff00000000000000000000000000000000000000001673ffffffffffffffffffffffffffffffffffffffff92909216919091179055565b60035473ffffffffffffffffffffffffffffffffffffffff163314610c6f576040517f08c379a000000000000000000000000000000000000000000000000000000000815260206004820152600a60248201527f4f6e6c79206f776e657200000000000000000000000000000000000000000000604482015260640161015c565b6040517f01ffc9a70000000000000000000000000000000000000000000000000000000081527fc21b8f2800000000000000000000000000000000000000000000000000000000600482015273ffffffffffffffffffffffffffffffffffffffff8216906301ffc9a790602401602060405180830381865afa158015610cf9573d6000803e3d6000fd5b505050506040513d601f19601f82011682018060405250810190610d1d919061123c565b610d56576040517f04cb93790000000000000000000000000000000000000000000000000000000081526002600482015260240161015c565b600280547fffffffffffffffffffffffff00000000000000000000000000000000000000001673ffffffffffffffffffffffffffffffffffffffff92909216919091179055565b600060608203516040830351602084035184518060208701018051600283016c5af43d3d93803e606057fd5bf3895289600d8a035278593da1005b363d3d373d3d3d3d610000806062363936013d738160481b1760218a03527f9e4ac34f21c619cefc926c8bd93b54bf5a39c7ab2127a895af1cc0691d7e3dff603a8a035272fd6100003d81600a3d39f336602c57343d527f6062820160781b1761ff9e82106059018a03528060f01b8352606c8101604c8a036000f097505086610e6a5763301164256000526004601cfd5b905285527fffffffffffffffffffffffffffffffffffffffffffffffffffffffffffffffe08501527fffffffffffffffffffffffffffffffffffffffffffffffffffffffffffffffc08401527fffffffffffffffffffffffffffffffffffffffffffffffffffffffffffffffa090920191909152919050565b803573ffffffffffffffffffffffffffffffffffffffff81168114610f0757600080fd5b919050565b600060208284031215610f1e57600080fd5b610f2782610ee3565b9392505050565b60008060408385031215610f4157600080fd5b610f4a83610ee3565b946020939093013593505050565b60008083601f840112610f6a57600080fd5b50813567ffffffffffffffff811115610f8257600080fd5b6020830191508360208260051b8501011115610f9d57600080fd5b9250929050565b6000806000806000806000806080898b031215610fc057600080fd5b883567ffffffffffffffff80821115610fd857600080fd5b818b0191508b601f830112610fec57600080fd5b813581811115610ffb57600080fd5b8c602082850101111561100d57600080fd5b60209283019a509850908a0135908082111561102857600080fd5b6110348c838d01610f58565b909850965060408b013591508082111561104d57600080fd5b6110598c838d01610f58565b909650945060608b013591508082111561107257600080fd5b5061107f8b828c01610f58565b999c989b5096995094979396929594505050565b6000602082840312156110a557600080fd5b5035919050565b7f4e487b7100000000000000000000000000000000000000000000000000000000600052601160045260246000fd5b808202811582820484141761092d5761092d6110ac565b8082018082111561092d5761092d6110ac565b8181038181111561092d5761092d6110ac565b8183526000602080850194508260005b858110156111615773ffffffffffffffffffffffffffffffffffffffff61114e83610ee3565b1687529582019590820190600101611128565b509495945050505050565b89815260a060208201528760a0820152878960c0830137600060c0898301015260007fffffffffffffffffffffffffffffffffffffffffffffffffffffffffffffffe0601f8a0116820160c08382030160408401526111cf60c08201898b611118565b905082810360608401526111e4818789611118565b905082810360808401528381527f07ffffffffffffffffffffffffffffffffffffffffffffffffffffffffffffff84111561121e57600080fd5b8360051b80866020840137016020019b9a5050505050505050505050565b60006020828403121561124e57600080fd5b81518015158114610f2757600080fdfea264697066735822122083d778c85639dc6d2c31ab380a4ac4bd1d61b1245bcc235f60ca8f770614ecbe64736f6c63430008140033",
  "linkReferences": {},
  "deployedLinkReferences": {}
}