{
  "_format": "hh-sol-artifact-1",
  "contractName": "MvxFactory",
  "sourceName": "src/MvxFactory.sol",
  "abi": [
    {
      "inputs": [
        {
          "internalType": "uint8",
          "name": "",
          "type": "uint8"
        }
      ],
      "name": "CreateError",
      "type": "error"
    },
    {
      "inputs": [
        {
          "internalType": "uint8",
          "name": "",
          "type": "uint8"
        }
      ],
      "name": "DiscountError",
      "type": "error"
    },
    {
      "inputs": [
        {
          "internalType": "uint8",
          "name": "",
          "type": "uint8"
        }
      ],
      "name": "GrantReferralError",
      "type": "error"
    },
    {
      "inputs": [
        {
          "internalType": "uint8",
          "name": "",
          "type": "uint8"
        }
      ],
      "name": "InvalidColletion",
      "type": "error"
    },
    {
      "inputs": [
        {
          "internalType": "uint8",
          "name": "",
          "type": "uint8"
        }
      ],
      "name": "Unathorized",
      "type": "error"
    },
    {
      "inputs": [
        {
          "internalType": "uint8",
          "name": "",
          "type": "uint8"
        }
      ],
      "name": "UpdateMemberError",
      "type": "error"
    },
    {
      "inputs": [
        {
          "internalType": "uint8",
          "name": "",
          "type": "uint8"
        }
      ],
      "name": "WithdrawPartnerError",
      "type": "error"
    },
    {
      "inputs": [
        {
          "internalType": "uint8",
          "name": "",
          "type": "uint8"
        }
      ],
      "name": "WithdrawReferralError",
      "type": "error"
    },
    {
      "anonymous": false,
      "inputs": [
        {
          "indexed": false,
          "internalType": "address",
          "name": "previousAdmin",
          "type": "address"
        },
        {
          "indexed": false,
          "internalType": "address",
          "name": "newAdmin",
          "type": "address"
        }
      ],
      "name": "AdminChanged",
      "type": "event"
    },
    {
      "anonymous": false,
      "inputs": [
        {
          "indexed": true,
          "internalType": "address",
          "name": "beacon",
          "type": "address"
        }
      ],
      "name": "BeaconUpgraded",
      "type": "event"
    },
    {
      "anonymous": false,
      "inputs": [
        {
          "indexed": true,
          "internalType": "address",
          "name": "_collection",
          "type": "address"
        },
        {
          "indexed": true,
          "internalType": "uint96",
          "name": "_discount",
          "type": "uint96"
        }
      ],
      "name": "CollectionDiscount",
      "type": "event"
    },
    {
      "anonymous": false,
      "inputs": [
        {
          "indexed": false,
          "internalType": "address",
          "name": "sender",
          "type": "address"
        },
        {
          "indexed": false,
          "internalType": "address",
          "name": "template",
          "type": "address"
        },
        {
          "indexed": false,
          "internalType": "address",
          "name": "clone",
          "type": "address"
        }
      ],
      "name": "CreateCollectionEvent",
      "type": "event"
    },
    {
      "anonymous": false,
      "inputs": [
        {
          "indexed": true,
          "internalType": "address",
          "name": "sender",
          "type": "address"
        },
        {
          "indexed": false,
          "internalType": "address",
          "name": "impl",
          "type": "address"
        },
        {
          "indexed": false,
          "internalType": "address",
          "name": "cloneAddress",
          "type": "address"
        }
      ],
      "name": "CreateEvent",
      "type": "event"
    },
    {
      "anonymous": false,
      "inputs": [
        {
          "indexed": false,
          "internalType": "address",
          "name": "sender",
          "type": "address"
        },
        {
          "indexed": false,
          "internalType": "address",
          "name": "collection",
          "type": "address"
        }
      ],
      "name": "InitCollectionEvent",
      "type": "event"
    },
    {
      "anonymous": false,
      "inputs": [
        {
          "indexed": false,
          "internalType": "uint8",
          "name": "version",
          "type": "uint8"
        }
      ],
      "name": "Initialized",
      "type": "event"
    },
    {
      "anonymous": false,
      "inputs": [
        {
          "indexed": false,
          "internalType": "string",
          "name": "",
          "type": "string"
        },
        {
          "indexed": false,
          "internalType": "uint256",
          "name": "",
          "type": "uint256"
        }
      ],
      "name": "Log",
      "type": "event"
    },
    {
      "anonymous": false,
      "inputs": [
        {
          "indexed": false,
          "internalType": "string",
          "name": "",
          "type": "string"
        },
        {
          "indexed": false,
          "internalType": "bool",
          "name": "",
          "type": "bool"
        }
      ],
      "name": "Log",
      "type": "event"
    },
    {
      "anonymous": false,
      "inputs": [
        {
          "indexed": true,
          "internalType": "address",
          "name": "previousOwner",
          "type": "address"
        },
        {
          "indexed": true,
          "internalType": "address",
          "name": "newOwner",
          "type": "address"
        }
      ],
      "name": "OwnershipTransferred",
      "type": "event"
    },
    {
      "anonymous": false,
      "inputs": [
        {
          "indexed": false,
          "internalType": "address",
          "name": "",
          "type": "address"
        },
        {
          "indexed": false,
          "internalType": "uint256",
          "name": "",
          "type": "uint256"
        }
      ],
      "name": "PartnerBalanceUpdate",
      "type": "event"
    },
    {
      "anonymous": false,
      "inputs": [
        {
          "indexed": false,
          "internalType": "address",
          "name": "",
          "type": "address"
        },
        {
          "indexed": false,
          "internalType": "uint256",
          "name": "",
          "type": "uint256"
        }
      ],
      "name": "ReferralBalanceUpdate",
      "type": "event"
    },
    {
      "anonymous": false,
      "inputs": [
        {
          "indexed": true,
          "internalType": "address",
          "name": "_artist",
          "type": "address"
        },
        {
          "indexed": true,
          "internalType": "address",
          "name": "_sender",
          "type": "address"
        },
        {
          "indexed": true,
          "internalType": "address",
          "name": "_collection",
          "type": "address"
        }
      ],
      "name": "ReferralDiscount",
      "type": "event"
    },
    {
      "anonymous": false,
      "inputs": [
        {
          "indexed": true,
          "internalType": "address",
          "name": "implementation",
          "type": "address"
        }
      ],
      "name": "Upgraded",
      "type": "event"
    },
    {
      "anonymous": false,
      "inputs": [
        {
          "indexed": true,
          "internalType": "address",
          "name": "_sender",
          "type": "address"
        },
        {
          "indexed": true,
          "internalType": "address",
          "name": "_collection",
          "type": "address"
        },
        {
          "indexed": false,
          "internalType": "uint256",
          "name": "_balance",
          "type": "uint256"
        }
      ],
      "name": "WithdrawPartner",
      "type": "event"
    },
    {
      "anonymous": false,
      "inputs": [
        {
          "indexed": true,
          "internalType": "address",
          "name": "_sender",
          "type": "address"
        },
        {
          "indexed": true,
          "internalType": "address",
          "name": "_artist",
          "type": "address"
        },
        {
          "indexed": false,
          "internalType": "uint256",
          "name": "_referralBalance",
          "type": "uint256"
        }
      ],
      "name": "WithdrawReferral",
      "type": "event"
    },
    {
      "stateMutability": "payable",
      "type": "fallback"
    },
    {
      "inputs": [
        {
          "internalType": "uint256",
          "name": "a",
          "type": "uint256"
        },
        {
          "internalType": "uint96",
          "name": "b",
          "type": "uint96"
        }
      ],
      "name": "_percent",
      "outputs": [
        {
          "internalType": "uint256",
          "name": "",
          "type": "uint256"
        }
      ],
      "stateMutability": "pure",
      "type": "function"
    },
    {
      "inputs": [
        {
          "internalType": "address",
          "name": "",
          "type": "address"
        }
      ],
      "name": "artists",
      "outputs": [
        {
          "internalType": "address",
          "name": "referral",
          "type": "address"
        },
        {
          "internalType": "uint256",
          "name": "referralBalance",
          "type": "uint256"
        },
        {
          "internalType": "address",
          "name": "collection",
          "type": "address"
        },
        {
          "internalType": "uint256",
          "name": "expiration",
          "type": "uint256"
        }
      ],
      "stateMutability": "view",
      "type": "function"
    },
    {
      "inputs": [],
      "name": "collectionCount",
      "outputs": [
        {
          "internalType": "uint256",
          "name": "",
          "type": "uint256"
        }
      ],
      "stateMutability": "view",
      "type": "function"
    },
    {
      "inputs": [],
      "name": "collectionImpl",
      "outputs": [
        {
          "internalType": "address",
          "name": "",
          "type": "address"
        }
      ],
      "stateMutability": "view",
      "type": "function"
    },
    {
      "inputs": [
        {
          "components": [
            {
              "internalType": "string",
              "name": "name",
              "type": "string"
            },
            {
              "internalType": "string",
              "name": "symbol",
              "type": "string"
            },
            {
              "internalType": "string",
              "name": "baseURI",
              "type": "string"
            },
            {
              "internalType": "string",
              "name": "baseExt",
              "type": "string"
            },
            {
              "internalType": "uint256",
              "name": "maxSupply",
              "type": "uint256"
            },
            {
              "internalType": "uint96",
              "name": "royaltyFee",
              "type": "uint96"
            },
            {
              "internalType": "address",
              "name": "royaltyReceiver",
              "type": "address"
            }
          ],
          "internalType": "struct Collection",
          "name": "_nftsData",
          "type": "tuple"
        },
        {
          "components": [
            {
              "internalType": "uint256",
              "name": "ogMintPrice",
              "type": "uint256"
            },
            {
              "internalType": "uint256",
              "name": "whitelistMintPrice",
              "type": "uint256"
            },
            {
              "internalType": "uint256",
              "name": "mintPrice",
              "type": "uint256"
            },
            {
              "internalType": "uint256",
              "name": "mintMaxPerUser",
              "type": "uint256"
            },
            {
              "internalType": "uint256",
              "name": "ogMintMaxPerUser",
              "type": "uint256"
            },
            {
              "internalType": "uint256",
              "name": "whitelistMintMaxPerUser",
              "type": "uint256"
            },
            {
              "internalType": "uint256",
              "name": "mintStart",
              "type": "uint256"
            },
            {
              "internalType": "uint256",
              "name": "mintEnd",
              "type": "uint256"
            },
            {
              "internalType": "uint256",
              "name": "ogMintStart",
              "type": "uint256"
            },
            {
              "internalType": "uint256",
              "name": "ogMintEnd",
              "type": "uint256"
            },
            {
              "internalType": "uint256",
              "name": "whitelistMintStart",
              "type": "uint256"
            },
            {
              "internalType": "uint256",
              "name": "whitelistMintEnd",
              "type": "uint256"
            }
          ],
          "internalType": "struct Stages",
          "name": "_mintingStages",
          "type": "tuple"
        },
        {
          "internalType": "address[]",
          "name": "_ogs",
          "type": "address[]"
        },
        {
          "internalType": "address[]",
          "name": "_wls",
          "type": "address[]"
        }
      ],
      "name": "createCollection",
      "outputs": [
        {
          "internalType": "address",
          "name": "_clone",
          "type": "address"
        }
      ],
      "stateMutability": "payable",
      "type": "function"
    },
    {
      "inputs": [
        {
          "internalType": "address",
          "name": "_artist",
          "type": "address"
        }
      ],
      "name": "deleteArtist",
      "outputs": [],
      "stateMutability": "nonpayable",
      "type": "function"
    },
    {
      "inputs": [
        {
          "internalType": "address",
          "name": "_member",
          "type": "address"
        }
      ],
      "name": "deleteMember",
      "outputs": [],
      "stateMutability": "nonpayable",
      "type": "function"
    },
    {
      "inputs": [
        {
          "internalType": "address",
          "name": "_collection",
          "type": "address"
        }
      ],
      "name": "getPartnerBalance",
      "outputs": [
        {
          "internalType": "uint256",
          "name": "_balance",
          "type": "uint256"
        }
      ],
      "stateMutability": "view",
      "type": "function"
    },
    {
      "inputs": [
        {
          "internalType": "address",
          "name": "_artist",
          "type": "address"
        }
      ],
      "name": "getReferralBalance",
      "outputs": [
        {
          "internalType": "uint256",
          "name": "_balance",
          "type": "uint256"
        }
      ],
      "stateMutability": "view",
      "type": "function"
    },
    {
      "inputs": [],
      "name": "getTime",
      "outputs": [
        {
          "internalType": "uint256",
          "name": "_time",
          "type": "uint256"
        }
      ],
      "stateMutability": "view",
      "type": "function"
    },
    {
      "inputs": [
        {
          "internalType": "uint256",
          "name": "_daysFromNow",
          "type": "uint256"
        }
      ],
      "name": "getTime",
      "outputs": [
        {
          "internalType": "uint256",
          "name": "_time",
          "type": "uint256"
        }
      ],
      "stateMutability": "view",
      "type": "function"
    },
    {
      "inputs": [
        {
          "internalType": "address",
          "name": "_extCollection",
          "type": "address"
        },
        {
          "internalType": "address",
          "name": "_artist",
          "type": "address"
        }
      ],
      "name": "grantReferral",
      "outputs": [],
      "stateMutability": "nonpayable",
      "type": "function"
    },
    {
      "inputs": [],
      "name": "initialize",
      "outputs": [],
      "stateMutability": "nonpayable",
      "type": "function"
    },
    {
      "inputs": [
        {
          "internalType": "address",
          "name": "",
          "type": "address"
        }
      ],
      "name": "members",
      "outputs": [
        {
          "internalType": "address",
          "name": "collection",
          "type": "address"
        },
        {
          "internalType": "uint256",
          "name": "deployFee",
          "type": "uint256"
        },
        {
          "internalType": "uint256",
          "name": "platformFee",
          "type": "uint256"
        },
        {
          "internalType": "uint96",
          "name": "discount",
          "type": "uint96"
        },
        {
          "internalType": "uint256",
          "name": "expiration",
          "type": "uint256"
        }
      ],
      "stateMutability": "view",
      "type": "function"
    },
    {
      "inputs": [],
      "name": "owner",
      "outputs": [
        {
          "internalType": "address",
          "name": "",
          "type": "address"
        }
      ],
      "stateMutability": "view",
      "type": "function"
    },
    {
      "inputs": [
        {
          "internalType": "address",
          "name": "",
          "type": "address"
        }
      ],
      "name": "partners",
      "outputs": [
        {
          "internalType": "address",
          "name": "admin",
          "type": "address"
        },
        {
          "internalType": "uint96",
          "name": "adminOwnPercent",
          "type": "uint96"
        },
        {
          "internalType": "uint96",
          "name": "referralOwnPercent",
          "type": "uint96"
        },
        {
          "internalType": "uint256",
          "name": "balance",
          "type": "uint256"
        },
        {
          "internalType": "uint96",
          "name": "discount",
          "type": "uint96"
        },
        {
          "internalType": "uint40",
          "name": "expiration",
          "type": "uint40"
        }
      ],
      "stateMutability": "view",
      "type": "function"
    },
    {
      "inputs": [],
      "name": "proxiableUUID",
      "outputs": [
        {
          "internalType": "bytes32",
          "name": "",
          "type": "bytes32"
        }
      ],
      "stateMutability": "view",
      "type": "function"
    },
    {
      "inputs": [],
      "name": "renounceOwnership",
      "outputs": [],
      "stateMutability": "nonpayable",
      "type": "function"
    },
    {
      "inputs": [],
      "name": "totalCollections",
      "outputs": [
        {
          "internalType": "uint256",
          "name": "_total",
          "type": "uint256"
        }
      ],
      "stateMutability": "view",
      "type": "function"
    },
    {
      "inputs": [
        {
          "internalType": "address",
          "name": "newOwner",
          "type": "address"
        }
      ],
      "name": "transferOwnership",
      "outputs": [],
      "stateMutability": "nonpayable",
      "type": "function"
    },
    {
      "inputs": [
        {
          "internalType": "address",
          "name": "_impl",
          "type": "address"
        }
      ],
      "name": "updateCollectionImpl",
      "outputs": [],
      "stateMutability": "payable",
      "type": "function"
    },
    {
      "inputs": [
        {
          "internalType": "address",
          "name": "_newMember",
          "type": "address"
        },
        {
          "internalType": "address",
          "name": "_collection",
          "type": "address"
        },
        {
          "internalType": "uint256",
          "name": "_deployFee",
          "type": "uint256"
        },
        {
          "internalType": "uint96",
          "name": "_platformFee",
          "type": "uint96"
        },
        {
          "internalType": "uint96",
          "name": "_discount",
          "type": "uint96"
        },
        {
          "internalType": "uint256",
          "name": "_expirationDays",
          "type": "uint256"
        }
      ],
      "name": "updateMember",
      "outputs": [],
      "stateMutability": "payable",
      "type": "function"
    },
    {
      "inputs": [
        {
          "internalType": "address",
          "name": "_collection",
          "type": "address"
        },
        {
          "internalType": "address",
          "name": "_admin",
          "type": "address"
        },
        {
          "internalType": "uint96",
          "name": "_adminOwnPercent",
          "type": "uint96"
        },
        {
          "internalType": "uint96",
          "name": "_referralOwnPercent",
          "type": "uint96"
        },
        {
          "internalType": "uint96",
          "name": "_discountPercent",
          "type": "uint96"
        },
        {
          "internalType": "uint40",
          "name": "_expireDaysFromNow",
          "type": "uint40"
        }
      ],
      "name": "updatePartnership",
      "outputs": [],
      "stateMutability": "nonpayable",
      "type": "function"
    },
    {
      "inputs": [
        {
          "internalType": "uint256",
          "name": "_expirationInDays",
          "type": "uint256"
        }
      ],
      "name": "updateReferralExpiration",
      "outputs": [],
      "stateMutability": "payable",
      "type": "function"
    },
    {
      "inputs": [
        {
          "internalType": "address",
          "name": "_newImplementation",
          "type": "address"
        }
      ],
      "name": "upgradeTo",
      "outputs": [],
      "stateMutability": "nonpayable",
      "type": "function"
    },
    {
      "inputs": [
        {
          "internalType": "address",
          "name": "newImplementation",
          "type": "address"
        },
        {
          "internalType": "bytes",
          "name": "data",
          "type": "bytes"
        }
      ],
      "name": "upgradeToAndCall",
      "outputs": [],
      "stateMutability": "payable",
      "type": "function"
    },
    {
      "inputs": [],
      "name": "withdraw",
      "outputs": [],
      "stateMutability": "payable",
      "type": "function"
    },
    {
      "inputs": [
        {
          "internalType": "address",
          "name": "_collection",
          "type": "address"
        }
      ],
      "name": "withdrawPartner",
      "outputs": [],
      "stateMutability": "nonpayable",
      "type": "function"
    },
    {
      "inputs": [
        {
          "internalType": "address",
          "name": "artist_",
          "type": "address"
        }
      ],
      "name": "withdrawReferral",
      "outputs": [],
      "stateMutability": "nonpayable",
      "type": "function"
    },
    {
      "stateMutability": "payable",
      "type": "receive"
    }
  ],
  "bytecode": "0x60a060405230608052348015610013575f80fd5b506080516137576100485f395f8181611020015281816110d0015281816112180152818161204101526120f101526137575ff3fe6080604052600436106101c5575f3560e01c806361d9db2d116100f6578063b5b86a5111610094578063e636541b11610063578063e636541b14610718578063f2fde38b1461072b578063f705ca751461074a578063f9a432f814610769576101cc565b8063b5b86a511461068d578063b8d96c2e146106d1578063d2e5575c146106f0578063d57f966b14610703576101cc565b806373627826116100d057806373627826146105305780638129fc1c1461054f5780638da5cb5b1461056357806395c336521461058d576101cc565b806361d9db2d146104f5578063686ff55114610509578063715018a61461051c576101cc565b80633659cfe6116101635780634a6798e81161013d5780634a6798e81461049d5780634f1ef286146104bc57806352d1902d146104cf578063557ed1ba146104e3576101cc565b80633659cfe6146104575780633ccfd60b14610476578063480999271461047e576101cc565b806311ffb1d41161019f57806311ffb1d4146103b35780631c8ebc1e146103d45780632be7d54b146103e75780633166ef0114610406576101cc565b8063016fa01814610205578063069dab8f1461025c57806308ae4b0c146102f9576101cc565b366101cc57005b6040517feee6a80f0000000000000000000000000000000000000000000000000000000081525f60048201526024015b60405180910390fd5b348015610210575f80fd5b5061024961021f366004612eff565b73ffffffffffffffffffffffffffffffffffffffff165f90815260cd602052604090206002015490565b6040519081526020015b60405180910390f35b348015610267575f80fd5b506102b7610276366004612eff565b60cc6020525f9081526040902080546001820154600283015460039093015473ffffffffffffffffffffffffffffffffffffffff9283169391929091169084565b604051610253949392919073ffffffffffffffffffffffffffffffffffffffff9485168152602081019390935292166040820152606081019190915260800190565b348015610304575f80fd5b50610366610313366004612eff565b60ce6020525f90815260409020805460018201546002830154600384015460049094015473ffffffffffffffffffffffffffffffffffffffff90931693919290916bffffffffffffffffffffffff169085565b6040805173ffffffffffffffffffffffffffffffffffffffff90961686526020860194909452928401919091526bffffffffffffffffffffffff166060830152608082015260a001610253565b3480156103be575f80fd5b506103d26103cd366004612eff565b610788565b005b6103d26103e2366004612f33565b610817565b3480156103f2575f80fd5b506103d2610401366004612f95565b610a49565b348015610411575f80fd5b5060c9546104329073ffffffffffffffffffffffffffffffffffffffff1681565b60405173ffffffffffffffffffffffffffffffffffffffff9091168152602001610253565b348015610462575f80fd5b506103d2610471366004612eff565b610d0e565b6103d2610d22565b348015610489575f80fd5b50610249610498366004612fc6565b610db1565b3480156104a8575f80fd5b506103d26104b7366004612eff565b610dd6565b6103d26104ca366004613014565b611009565b3480156104da575f80fd5b506102496111ff565b3480156104ee575f80fd5b5042610249565b348015610500575f80fd5b5060ca54610249565b6103d2610517366004612eff565b6112ea565b348015610527575f80fd5b506103d261141f565b34801561053b575f80fd5b5061024961054a3660046130ee565b611432565b34801561055a575f80fd5b506103d261145e565b34801561056e575f80fd5b5060335473ffffffffffffffffffffffffffffffffffffffff16610432565b348015610598575f80fd5b5061062b6105a7366004612eff565b60cd6020525f9081526040902080546001820154600283015460039093015473ffffffffffffffffffffffffffffffffffffffff831693740100000000000000000000000000000000000000009093046bffffffffffffffffffffffff908116939281169291908116906c01000000000000000000000000900464ffffffffff1686565b6040805173ffffffffffffffffffffffffffffffffffffffff90971687526bffffffffffffffffffffffff958616602088015293851693860193909352606085019190915291909116608083015264ffffffffff1660a082015260c001610253565b348015610698575f80fd5b506102496106a7366004612eff565b73ffffffffffffffffffffffffffffffffffffffff165f90815260cc602052604090206001015490565b3480156106dc575f80fd5b506103d26106eb366004612eff565b6115e9565b6103d26106fe3660046130ee565b611654565b34801561070e575f80fd5b5061024960ca5481565b61043261072636600461314d565b61166f565b348015610736575f80fd5b506103d2610745366004612eff565b611a8f565b348015610755575f80fd5b506103d2610764366004612eff565b611b43565b348015610774575f80fd5b506103d2610783366004613223565b611dc3565b610790611fa9565b73ffffffffffffffffffffffffffffffffffffffff165f90815260ce6020526040812080547fffffffffffffffffffffffff000000000000000000000000000000000000000016815560018101829055600281018290556003810180547fffffffffffffffffffffffffffffffffffffffff00000000000000000000000016905560040155565b61081f611fa9565b73ffffffffffffffffffffffffffffffffffffffff861661086f576040517fcbb282d9000000000000000000000000000000000000000000000000000000008152600160048201526024016101fc565b73ffffffffffffffffffffffffffffffffffffffff86165f90815260ce6020526040902060040154156108d1576040517fcbb282d9000000000000000000000000000000000000000000000000000000008152600260048201526024016101fc565b612710836bffffffffffffffffffffffff161080156108ff5750612710826bffffffffffffffffffffffff16105b610907575f80fd5b6040518060a001604052808673ffffffffffffffffffffffffffffffffffffffff168152602001858152602001846bffffffffffffffffffffffff168152602001836bffffffffffffffffffffffff16815260200182603c61096991906132cd565b61097490603c6132cd565b61097f9060186132cd565b61098990426132e4565b905273ffffffffffffffffffffffffffffffffffffffff9687165f90815260ce6020908152604091829020835181547fffffffffffffffffffffffff0000000000000000000000000000000000000000169a169990991789558201516001890155810151600288015560608101516003880180547fffffffffffffffffffffffffffffffffffffffff000000000000000000000000166bffffffffffffffffffffffff909216919091179055608001516004909601959095555050505050565b6040517f70a082310000000000000000000000000000000000000000000000000000000081523360048201819052905f90819073ffffffffffffffffffffffffffffffffffffffff8616906370a08231906024016020604051808303815f875af1158015610ab9573d5f803e3d5ffd5b505050506040513d601f19601f82011682018060405250810190610add91906132f7565b11905080610b1a576040517ff97aaed0000000000000000000000000000000000000000000000000000000008152600160048201526024016101fc565b73ffffffffffffffffffffffffffffffffffffffff84165f90815260cd60205260408120600301546bffffffffffffffffffffffff1615801590610b9c575073ffffffffffffffffffffffffffffffffffffffff85165f90815260cd6020526040902060030154426c0100000000000000000000000090910464ffffffffff16115b905080610bd8576040517ff97aaed0000000000000000000000000000000000000000000000000000000008152600260048201526024016101fc565b73ffffffffffffffffffffffffffffffffffffffff8481165f90815260cc60205260409020541615610c39576040517ff97aaed0000000000000000000000000000000000000000000000000000000008152600360048201526024016101fc565b6040805160808101825273ffffffffffffffffffffffffffffffffffffffff8086168083525f60208085018281528b851686880181815260cb54606089019081528d881680875260cc909552898620985189549089167fffffffffffffffffffffffff0000000000000000000000000000000000000000918216178a55935160018a015590516002890180549190981693169290921790955551600390950194909455935191939092917f66abdd2619de838dbdd466748a5769d636daec3a3dc9350ee9d5e884832729329190a45050505050565b610d16611fa9565b610d1f8161202a565b50565b610d2a611fa9565b5f610d4a60335473ffffffffffffffffffffffffffffffffffffffff1690565b73ffffffffffffffffffffffffffffffffffffffff16476040515f6040518083038185875af1925050503d805f8114610d9e576040519150601f19603f3d011682016040523d82523d5f602084013e610da3565b606091505b505090508015610d1f575f80fd5b5f610dcd836bffffffffffffffffffffffff841661271061222b565b90505b92915050565b73ffffffffffffffffffffffffffffffffffffffff8181165f90815260cd6020908152604091829020825160c0810184528154948516808252740100000000000000000000000000000000000000009095046bffffffffffffffffffffffff90811693820193909352600182015483169381019390935260028101546060840181905260039091015491821660808401526c0100000000000000000000000090910464ffffffffff1660a083015233928314610ec1576040517f27bc636d000000000000000000000000000000000000000000000000000000008152600160048201526024016101fc565b5f8111610efd576040517f27bc636d000000000000000000000000000000000000000000000000000000008152600260048201526024016101fc565b5f6060830181905260405173ffffffffffffffffffffffffffffffffffffffff85169083908381818185875af1925050503d805f8114610f58576040519150601f19603f3d011682016040523d82523d5f602084013e610f5d565b606091505b5050905080610f9b576040517f27bc636d000000000000000000000000000000000000000000000000000000008152600360048201526024016101fc565b8473ffffffffffffffffffffffffffffffffffffffff168473ffffffffffffffffffffffffffffffffffffffff167f3cebcff4b474dd1638e05b88c97b76249ed7a5b06775d18fa6f9f978ced7eccf84604051610ffa91815260200190565b60405180910390a35050505050565b73ffffffffffffffffffffffffffffffffffffffff7f00000000000000000000000000000000000000000000000000000000000000001630036110ce576040517f08c379a000000000000000000000000000000000000000000000000000000000815260206004820152602c60248201527f46756e6374696f6e206d7573742062652063616c6c6564207468726f7567682060448201527f64656c656761746563616c6c000000000000000000000000000000000000000060648201526084016101fc565b7f000000000000000000000000000000000000000000000000000000000000000073ffffffffffffffffffffffffffffffffffffffff166111437f360894a13ba1a3210667c828492db98dca3e2076cc3735a920a3ca505d382bbc5473ffffffffffffffffffffffffffffffffffffffff1690565b73ffffffffffffffffffffffffffffffffffffffff16146111e6576040517f08c379a000000000000000000000000000000000000000000000000000000000815260206004820152602c60248201527f46756e6374696f6e206d7573742062652063616c6c6564207468726f7567682060448201527f6163746976652070726f7879000000000000000000000000000000000000000060648201526084016101fc565b6111ef82612357565b6111fb8282600161235f565b5050565b5f3073ffffffffffffffffffffffffffffffffffffffff7f000000000000000000000000000000000000000000000000000000000000000016146112c5576040517f08c379a000000000000000000000000000000000000000000000000000000000815260206004820152603860248201527f555550535570677261646561626c653a206d757374206e6f742062652063616c60448201527f6c6564207468726f7567682064656c656761746563616c6c000000000000000060648201526084016101fc565b507f360894a13ba1a3210667c828492db98dca3e2076cc3735a920a3ca505d382bbc90565b6112f2611fa9565b6040517f01ffc9a70000000000000000000000000000000000000000000000000000000081527fc21b8f2800000000000000000000000000000000000000000000000000000000600482015273ffffffffffffffffffffffffffffffffffffffff8216906301ffc9a7906024016020604051808303815f875af115801561137b573d5f803e3d5ffd5b505050506040513d601f19601f8201168201806040525081019061139f919061330e565b6113d8576040517f04cb9379000000000000000000000000000000000000000000000000000000008152600160048201526024016101fc565b60c980547fffffffffffffffffffffffff00000000000000000000000000000000000000001673ffffffffffffffffffffffffffffffffffffffff92909216919091179055565b611427611fa9565b6114305f612563565b565b5f61143e82603c6132cd565b61144990603c6132cd565b6114549060186132cd565b610dd090426132e4565b5f54610100900460ff161580801561147c57505f54600160ff909116105b806114955750303b15801561149557505f5460ff166001145b611521576040517f08c379a000000000000000000000000000000000000000000000000000000000815260206004820152602e60248201527f496e697469616c697a61626c653a20636f6e747261637420697320616c72656160448201527f647920696e697469616c697a656400000000000000000000000000000000000060648201526084016101fc565b5f80547fffffffffffffffffffffffffffffffffffffffffffffffffffffffffffffff00166001179055801561157d575f80547fffffffffffffffffffffffffffffffffffffffffffffffffffffffffffff00ff166101001790555b6115856125d9565b8015610d1f575f80547fffffffffffffffffffffffffffffffffffffffffffffffffffffffffffff00ff169055604051600181527f7f26b83ff96e1f2b6a682f133852f6798a09c465da95921460cefb38474024989060200160405180910390a150565b6115f1611fa9565b73ffffffffffffffffffffffffffffffffffffffff165f90815260cc6020526040812080547fffffffffffffffffffffffff0000000000000000000000000000000000000000908116825560018201839055600282018054909116905560030155565b61165c611fa9565b61166981620151806132cd565b60cb5550565b5f61168f60335473ffffffffffffffffffffffffffffffffffffffff1690565b73ffffffffffffffffffffffffffffffffffffffff163373ffffffffffffffffffffffffffffffffffffffff1614806116d85750335f90815260ce602052604090206004015442105b611740576040517f08c379a00000000000000000000000000000000000000000000000000000000081526004016101fc9060208082526004908201527f4175746800000000000000000000000000000000000000000000000000000000604082015260600190565b335f81815260cc60209081526040808320815160808082018452825473ffffffffffffffffffffffffffffffffffffffff90811683526001808501548488015260028086015483168588015260039586015460608087019182528b8b5260ce8a5299889020885160a081018a5281549095168552928301549884018990529082015496830196909652938401546bffffffffffffffffffffffff16968101969096526004909201549185019190915290513493919290421161180e5761180883868684612678565b5061184b565b8084101561184b576040517fab582916000000000000000000000000000000000000000000000000000000008152600160048201526024016101fc565b60408051606087901b7fffffffffffffffffffffffffffffffffffffffff00000000000000000000000016602082015281516014818303018152603490910190915260c9546118b09073ffffffffffffffffffffffffffffffffffffffff1682612a95565b965073ffffffffffffffffffffffffffffffffffffffff8716611902576040517fab582916000000000000000000000000000000000000000000000000000000008152600160048201526024016101fc565b8673ffffffffffffffffffffffffffffffffffffffff16632caa9dec84604001518f8f8f8f8f8f6040518863ffffffff1660e01b815260040161194b9796959493929190613426565b5f604051808303815f87803b158015611962575f80fd5b505af1158015611974573d5f803e3d5ffd5b50505f6080860181815273ffffffffffffffffffffffffffffffffffffffff8b81168089528b821680855260ce60209081526040958690208b5181547fffffffffffffffffffffffff000000000000000000000000000000000000000016908616178155818c0151600180830191909155878d0151600283015560608d01516003830180547fffffffffffffffffffffffffffffffffffffffff000000000000000000000000166bffffffffffffffffffffffff909216919091179055955160049091015560ca805490950190945560c954855193168352928201529093507f3260bb218255e98a3f5731b9cd14cede49bbf1988ccd323b4a4912568739823192500160405180910390a25050505050509695505050505050565b611a97611fa9565b73ffffffffffffffffffffffffffffffffffffffff8116611b3a576040517f08c379a000000000000000000000000000000000000000000000000000000000815260206004820152602660248201527f4f776e61626c653a206e6577206f776e657220697320746865207a65726f206160448201527f646472657373000000000000000000000000000000000000000000000000000060648201526084016101fc565b610d1f81612563565b73ffffffffffffffffffffffffffffffffffffffff8082165f90815260cc6020908152604091829020825160808101845281548516808252600183015493820184905260028301549095169381019390935260030154606083015233928314611bdb576040517ffa8af8fc000000000000000000000000000000000000000000000000000000008152600160048201526024016101fc565b604080518181526010818301527f5f726566657272616c42616c616e63650000000000000000000000000000000060608201526020810183905290517fdd970dd9b5bfe707922155b058a407655cb18288b807e2216442bca8ad83d6b59181900360800190a15f8111611c7d576040517ffa8af8fc000000000000000000000000000000000000000000000000000000008152600260048201526024016101fc565b73ffffffffffffffffffffffffffffffffffffffff8481165f90815260cc602052604080822080547fffffffffffffffffffffffff0000000000000000000000000000000000000000908116825560018201849055600282018054909116905560030182905551909185169083908381818185875af1925050503d805f8114611d21576040519150601f19603f3d011682016040523d82523d5f602084013e611d26565b606091505b5050905080611d64576040517ffa8af8fc000000000000000000000000000000000000000000000000000000008152600360048201526024016101fc565b8473ffffffffffffffffffffffffffffffffffffffff168473ffffffffffffffffffffffffffffffffffffffff167fc359f3a607928e86ec723fa39ad9790fcdf5b68416b174b0c7f9334cdda3b2f984604051610ffa91815260200190565b611dcb611fa9565b73ffffffffffffffffffffffffffffffffffffffff8516611dea575f80fd5b73ffffffffffffffffffffffffffffffffffffffff8681165f90815260cd60205260409020541615611e1a575f80fd5b6040518060c001604052808673ffffffffffffffffffffffffffffffffffffffff168152602001856bffffffffffffffffffffffff168152602001846bffffffffffffffffffffffff1681526020015f8152602001836bffffffffffffffffffffffff1681526020018262015180611e929190613604565b611ea39064ffffffffff16426132e4565b64ffffffffff90811690915273ffffffffffffffffffffffffffffffffffffffff9788165f90815260cd60209081526040918290208451918501516bffffffffffffffffffffffff908116740100000000000000000000000000000000000000000292909b1691909117815590830151600182018054918b167fffffffffffffffffffffffffffffffffffffffff0000000000000000000000009092169190911790556060830151600282015560808301516003909101805460a0909401519092166c01000000000000000000000000027fffffffffffffffffffffffffffffff0000000000000000000000000000000000909316981697909717179095555050505050565b60335473ffffffffffffffffffffffffffffffffffffffff163314611430576040517f08c379a000000000000000000000000000000000000000000000000000000000815260206004820181905260248201527f4f776e61626c653a2063616c6c6572206973206e6f7420746865206f776e657260448201526064016101fc565b73ffffffffffffffffffffffffffffffffffffffff7f00000000000000000000000000000000000000000000000000000000000000001630036120ef576040517f08c379a000000000000000000000000000000000000000000000000000000000815260206004820152602c60248201527f46756e6374696f6e206d7573742062652063616c6c6564207468726f7567682060448201527f64656c656761746563616c6c000000000000000000000000000000000000000060648201526084016101fc565b7f000000000000000000000000000000000000000000000000000000000000000073ffffffffffffffffffffffffffffffffffffffff166121647f360894a13ba1a3210667c828492db98dca3e2076cc3735a920a3ca505d382bbc5473ffffffffffffffffffffffffffffffffffffffff1690565b73ffffffffffffffffffffffffffffffffffffffff1614612207576040517f08c379a000000000000000000000000000000000000000000000000000000000815260206004820152602c60248201527f46756e6374696f6e206d7573742062652063616c6c6564207468726f7567682060448201527f6163746976652070726f7879000000000000000000000000000000000000000060648201526084016101fc565b61221081612357565b604080515f80825260208201909252610d1f9183919061235f565b5f80807fffffffffffffffffffffffffffffffffffffffffffffffffffffffffffffffff858709858702925082811083820303915050805f03612281578382816122775761227761362d565b0492505050612350565b8084116122ea576040517f08c379a000000000000000000000000000000000000000000000000000000000815260206004820152601560248201527f4d6174683a206d756c446976206f766572666c6f77000000000000000000000060448201526064016101fc565b5f848688098519600190810187169687900496828603819004959092119093035f82900391909104909201919091029190911760038402600290811880860282030280860282030280860282030280860282030280860282030280860290910302029150505b9392505050565b610d1f611fa9565b7f4910fdfa16fed3260ed0e7147f7cc6da11a60208b5b9406d12a635614ffd91435460ff16156123975761239283612bd8565b505050565b8273ffffffffffffffffffffffffffffffffffffffff166352d1902d6040518163ffffffff1660e01b8152600401602060405180830381865afa92505050801561241c575060408051601f3d9081017fffffffffffffffffffffffffffffffffffffffffffffffffffffffffffffffe0168201909252612419918101906132f7565b60015b6124a8576040517f08c379a000000000000000000000000000000000000000000000000000000000815260206004820152602e60248201527f45524331393637557067726164653a206e657720696d706c656d656e7461746960448201527f6f6e206973206e6f74205555505300000000000000000000000000000000000060648201526084016101fc565b7f360894a13ba1a3210667c828492db98dca3e2076cc3735a920a3ca505d382bbc8114612557576040517f08c379a000000000000000000000000000000000000000000000000000000000815260206004820152602960248201527f45524331393637557067726164653a20756e737570706f727465642070726f7860448201527f6961626c6555554944000000000000000000000000000000000000000000000060648201526084016101fc565b50612392838383612ce2565b6033805473ffffffffffffffffffffffffffffffffffffffff8381167fffffffffffffffffffffffff0000000000000000000000000000000000000000831681179093556040519116919082907f8be0079c531659141344cd1fd0a4f28419497f9722a3daafe3b4186f6b6457e0905f90a35050565b5f54610100900460ff1661266f576040517f08c379a000000000000000000000000000000000000000000000000000000000815260206004820152602b60248201527f496e697469616c697a61626c653a20636f6e7472616374206973206e6f74206960448201527f6e697469616c697a696e6700000000000000000000000000000000000000000060648201526084016101fc565b61143033612563565b60408481015173ffffffffffffffffffffffffffffffffffffffff9081165f90815260cd6020908152838220845160c08101865281549485168152740100000000000000000000000000000000000000009094046bffffffffffffffffffffffff90811692850192909252600181015482169484019490945260028401546060840152600390930154928316608083018190526c0100000000000000000000000090930464ffffffffff1660a0830152918290612736908590610db1565b9050612742818561365a565b85101561277e576040517fee3231cb000000000000000000000000000000000000000000000000000000008152600160048201526024016101fc565b5f61278d858460400151610db1565b9050612799818761365a565b602089810183905289516040805173ffffffffffffffffffffffffffffffffffffffff90921682529181018490529197507f5638fe1d59cbaff19a53ea05820ebcfe8d70bd87ba73873ceeea44c207149731910160405180910390a15f6060890181815273ffffffffffffffffffffffffffffffffffffffff808a16835260cc602090815260408085208d5181549085167fffffffffffffffffffffffff0000000000000000000000000000000000000000918216178255838f01516001830155918e0151600282018054919095169216919091179092559151600390910155840151612887908790610db1565b9050808710156128c6576040517fee3231cb000000000000000000000000000000000000000000000000000000008152600260048201526024016101fc565b6128d0818861365a565b96508084606001516128e291906132e4565b606085015283516040805173ffffffffffffffffffffffffffffffffffffffff9092168252602082018390527fffba746bd7819bccbdb2aa674c014ebacac05d280ba6f9f5912dadf6a9e3a22b910160405180910390a16040808a015173ffffffffffffffffffffffffffffffffffffffff9081165f90815260cd6020908152908390208751918801516bffffffffffffffffffffffff908116740100000000000000000000000000000000000000000292909316919091178155918601516001830180549183167fffffffffffffffffffffffffffffffffffffffff0000000000000000000000009092169190911790556060860151600283015560808601516003909201805460a088015164ffffffffff166c01000000000000000000000000027fffffffffffffffffffffffffffffff00000000000000000000000000000000009091169390921692909217179055612a3e82826132e4565b612a48903461365a565b471015612a84576040517fee3231cb000000000000000000000000000000000000000000000000000000008152600360048201526024016101fc565b60019450505050505b949350505050565b5f60608203516040830351602084035184518060208701018051600283016c5af43d3d93803e606057fd5bf3895289600d8a035278593da1005b363d3d373d3d3d3d610000806062363936013d738160481b1760218a03527f9e4ac34f21c619cefc926c8bd93b54bf5a39c7ab2127a895af1cc0691d7e3dff603a8a035272fd6100003d81600a3d39f336602c57343d527f6062820160781b1761ff9e82106059018a03528060f01b8352606c8101604c8a035ff097505086612b5f5763301164255f526004601cfd5b905285527fffffffffffffffffffffffffffffffffffffffffffffffffffffffffffffffe08501527fffffffffffffffffffffffffffffffffffffffffffffffffffffffffffffffc08401527fffffffffffffffffffffffffffffffffffffffffffffffffffffffffffffffa090920191909152919050565b73ffffffffffffffffffffffffffffffffffffffff81163b612c7c576040517f08c379a000000000000000000000000000000000000000000000000000000000815260206004820152602d60248201527f455243313936373a206e657720696d706c656d656e746174696f6e206973206e60448201527f6f74206120636f6e74726163740000000000000000000000000000000000000060648201526084016101fc565b7f360894a13ba1a3210667c828492db98dca3e2076cc3735a920a3ca505d382bbc80547fffffffffffffffffffffffff00000000000000000000000000000000000000001673ffffffffffffffffffffffffffffffffffffffff92909216919091179055565b612ceb83612d0c565b5f82511180612cf75750805b1561239257612d068383612d58565b50505050565b612d1581612bd8565b60405173ffffffffffffffffffffffffffffffffffffffff8216907fbc7cd75a20ee27fd9adebab32041f755214dbc6bffa90cc0225b39da2e5c2d3b905f90a250565b6060610dcd83836040518060600160405280602781526020016136fb6027913960605f808573ffffffffffffffffffffffffffffffffffffffff1685604051612da1919061368f565b5f60405180830381855af49150503d805f8114612dd9576040519150601f19603f3d011682016040523d82523d5f602084013e612dde565b606091505b5091509150612def86838387612df9565b9695505050505050565b60608315612e8e5782515f03612e875773ffffffffffffffffffffffffffffffffffffffff85163b612e87576040517f08c379a000000000000000000000000000000000000000000000000000000000815260206004820152601d60248201527f416464726573733a2063616c6c20746f206e6f6e2d636f6e747261637400000060448201526064016101fc565b5081612a8d565b612a8d8383815115612ea35781518083602001fd5b806040517f08c379a00000000000000000000000000000000000000000000000000000000081526004016101fc91906136aa565b803573ffffffffffffffffffffffffffffffffffffffff81168114612efa575f80fd5b919050565b5f60208284031215612f0f575f80fd5b610dcd82612ed7565b80356bffffffffffffffffffffffff81168114612efa575f80fd5b5f805f805f8060c08789031215612f48575f80fd5b612f5187612ed7565b9550612f5f60208801612ed7565b945060408701359350612f7460608801612f18565b9250612f8260808801612f18565b915060a087013590509295509295509295565b5f8060408385031215612fa6575f80fd5b612faf83612ed7565b9150612fbd60208401612ed7565b90509250929050565b5f8060408385031215612fd7575f80fd5b82359150612fbd60208401612f18565b7f4e487b71000000000000000000000000000000000000000000000000000000005f52604160045260245ffd5b5f8060408385031215613025575f80fd5b61302e83612ed7565b9150602083013567ffffffffffffffff8082111561304a575f80fd5b818501915085601f83011261305d575f80fd5b81358181111561306f5761306f612fe7565b604051601f82017fffffffffffffffffffffffffffffffffffffffffffffffffffffffffffffffe0908116603f011681019083821181831017156130b5576130b5612fe7565b816040528281528860208487010111156130cd575f80fd5b826020860160208301375f6020848301015280955050505050509250929050565b5f602082840312156130fe575f80fd5b5035919050565b5f8083601f840112613115575f80fd5b50813567ffffffffffffffff81111561312c575f80fd5b6020830191508360208260051b8501011115613146575f80fd5b9250929050565b5f805f805f808688036101e0811215613164575f80fd5b873567ffffffffffffffff8082111561317b575f80fd5b9089019060e0828c03121561318e575f80fd5b8198506101807fffffffffffffffffffffffffffffffffffffffffffffffffffffffffffffffe0840112156131c1575f80fd5b60208a0197506101a08a01359250808311156131db575f80fd5b6131e78b848c01613105565b90975095506101c08a0135925086915080831115613203575f80fd5b505061321189828a01613105565b979a9699509497509295939492505050565b5f805f805f8060c08789031215613238575f80fd5b61324187612ed7565b955061324f60208801612ed7565b945061325d60408801612f18565b935061326b60608801612f18565b925061327960808801612f18565b915060a087013564ffffffffff81168114613292575f80fd5b809150509295509295509295565b7f4e487b71000000000000000000000000000000000000000000000000000000005f52601160045260245ffd5b8082028115828204841417610dd057610dd06132a0565b80820180821115610dd057610dd06132a0565b5f60208284031215613307575f80fd5b5051919050565b5f6020828403121561331e575f80fd5b81518015158114612350575f80fd5b5f8083357fffffffffffffffffffffffffffffffffffffffffffffffffffffffffffffffe1843603018112613360575f80fd5b830160208101925035905067ffffffffffffffff81111561337f575f80fd5b803603821315613146575f80fd5b81835281816020850137505f602082840101525f60207fffffffffffffffffffffffffffffffffffffffffffffffffffffffffffffffe0601f840116840101905092915050565b8183525f60208085019450825f5b8581101561341b5773ffffffffffffffffffffffffffffffffffffffff61340883612ed7565b16875295820195908201906001016133e2565b509495945050505050565b5f61020089835280602084015261343d898a61332d565b60e0838601526134526102e08601828461338d565b9250505061346360208a018a61332d565b7ffffffffffffffffffffffffffffffffffffffffffffffffffffffffffffffe00808685030161022087015261349a84838561338d565b93506134a960408d018d61332d565b9350915080868503016102408701526134c384848461338d565b93506134d260608d018d61332d565b935091508086850301610260870152506134ed83838361338d565b9250505060808901356102808401526bffffffffffffffffffffffff61351560a08b01612f18565b166102a084015261352860c08a01612ed7565b73ffffffffffffffffffffffffffffffffffffffff81166102c0850152506135cc6040840189803582526020810135602083015260408101356040830152606081013560608301526080810135608083015260a081013560a083015260c081013560c083015260e081013560e08301526101008082013581840152506101208082013581840152506101408082013581840152506101608082013581840152505050565b8281036101c08401526135e08187896133d4565b90508281036101e08401526135f68185876133d4565b9a9950505050505050505050565b64ffffffffff818116838216028082169190828114613625576136256132a0565b505092915050565b7f4e487b71000000000000000000000000000000000000000000000000000000005f52601260045260245ffd5b81810381811115610dd057610dd06132a0565b5f5b8381101561368757818101518382015260200161366f565b50505f910152565b5f82516136a081846020870161366d565b9190910192915050565b602081525f82518060208401526136c881604085016020870161366d565b601f017fffffffffffffffffffffffffffffffffffffffffffffffffffffffffffffffe016919091016040019291505056fe416464726573733a206c6f772d6c6576656c2064656c65676174652063616c6c206661696c6564a26469706673582212206a27f527b47423c9b25d1a3dd1d7178e29020e60aadb5f5f9824f32b2c43c46464736f6c63430008140033",
  "linkReferences": {},
  "deployedLinkReferences": {}
}