{
  "_format": "hh-sol-artifact-1",
  "contractName": "MvxCollection",
  "sourceName": "src/MvxCollection.sol",
  "abi": [
    {
      "inputs": [],
      "name": "ApprovalCallerNotOwnerNorApproved",
      "type": "error"
    },
    {
      "inputs": [],
      "name": "ApprovalQueryForNonexistentToken",
      "type": "error"
    },
    {
      "inputs": [],
      "name": "BalanceQueryForZeroAddress",
      "type": "error"
    },
    {
      "inputs": [],
      "name": "FixedMaxSupply",
      "type": "error"
    },
    {
      "inputs": [
        {
          "internalType": "uint8",
          "name": "",
          "type": "uint8"
        }
      ],
      "name": "InvalidCollectionData",
      "type": "error"
    },
    {
      "inputs": [],
      "name": "MintERC2309QuantityExceedsLimit",
      "type": "error"
    },
    {
      "inputs": [
        {
          "internalType": "bytes4",
          "name": "",
          "type": "bytes4"
        },
        {
          "internalType": "uint8",
          "name": "",
          "type": "uint8"
        }
      ],
      "name": "MintError",
      "type": "error"
    },
    {
      "inputs": [
        {
          "internalType": "uint8",
          "name": "",
          "type": "uint8"
        }
      ],
      "name": "MintForOwnerError",
      "type": "error"
    },
    {
      "inputs": [],
      "name": "MintToZeroAddress",
      "type": "error"
    },
    {
      "inputs": [],
      "name": "MintZeroQuantity",
      "type": "error"
    },
    {
      "inputs": [],
      "name": "OwnerQueryForNonexistentToken",
      "type": "error"
    },
    {
      "inputs": [],
      "name": "OwnershipNotInitializedForExtraData",
      "type": "error"
    },
    {
      "inputs": [
        {
          "internalType": "uint8",
          "name": "",
          "type": "uint8"
        }
      ],
      "name": "PublicStageUpdateError",
      "type": "error"
    },
    {
      "inputs": [
        {
          "internalType": "uint8",
          "name": "",
          "type": "uint8"
        }
      ],
      "name": "RoyaltyFeeError",
      "type": "error"
    },
    {
      "inputs": [],
      "name": "TokenNotExistsError",
      "type": "error"
    },
    {
      "inputs": [],
      "name": "TransferCallerNotOwnerNorApproved",
      "type": "error"
    },
    {
      "inputs": [],
      "name": "TransferFromIncorrectOwner",
      "type": "error"
    },
    {
      "inputs": [],
      "name": "TransferToNonERC721ReceiverImplementer",
      "type": "error"
    },
    {
      "inputs": [],
      "name": "TransferToZeroAddress",
      "type": "error"
    },
    {
      "inputs": [],
      "name": "URIQueryForNonexistentToken",
      "type": "error"
    },
    {
      "inputs": [
        {
          "internalType": "uint8",
          "name": "",
          "type": "uint8"
        }
      ],
      "name": "UpdateMaxSupplyError",
      "type": "error"
    },
    {
      "inputs": [
        {
          "internalType": "uint8",
          "name": "isPlaformCall",
          "type": "uint8"
        }
      ],
      "name": "WithdrawError",
      "type": "error"
    },
    {
      "anonymous": false,
      "inputs": [
        {
          "indexed": true,
          "internalType": "address",
          "name": "owner",
          "type": "address"
        },
        {
          "indexed": true,
          "internalType": "address",
          "name": "approved",
          "type": "address"
        },
        {
          "indexed": true,
          "internalType": "uint256",
          "name": "tokenId",
          "type": "uint256"
        }
      ],
      "name": "Approval",
      "type": "event"
    },
    {
      "anonymous": false,
      "inputs": [
        {
          "indexed": true,
          "internalType": "address",
          "name": "owner",
          "type": "address"
        },
        {
          "indexed": true,
          "internalType": "address",
          "name": "operator",
          "type": "address"
        },
        {
          "indexed": false,
          "internalType": "bool",
          "name": "approved",
          "type": "bool"
        }
      ],
      "name": "ApprovalForAll",
      "type": "event"
    },
    {
      "anonymous": false,
      "inputs": [
        {
          "indexed": true,
          "internalType": "address",
          "name": "sender",
          "type": "address"
        },
        {
          "indexed": false,
          "internalType": "uint256",
          "name": "tokenId",
          "type": "uint256"
        }
      ],
      "name": "BurnEvent",
      "type": "event"
    },
    {
      "anonymous": false,
      "inputs": [
        {
          "indexed": true,
          "internalType": "uint256",
          "name": "fromTokenId",
          "type": "uint256"
        },
        {
          "indexed": false,
          "internalType": "uint256",
          "name": "toTokenId",
          "type": "uint256"
        },
        {
          "indexed": true,
          "internalType": "address",
          "name": "from",
          "type": "address"
        },
        {
          "indexed": true,
          "internalType": "address",
          "name": "to",
          "type": "address"
        }
      ],
      "name": "ConsecutiveTransfer",
      "type": "event"
    },
    {
      "anonymous": false,
      "inputs": [
        {
          "indexed": false,
          "internalType": "string",
          "name": "",
          "type": "string"
        },
        {
          "indexed": false,
          "internalType": "address",
          "name": "",
          "type": "address"
        }
      ],
      "name": "Log",
      "type": "event"
    },
    {
      "anonymous": false,
      "inputs": [
        {
          "indexed": false,
          "internalType": "string",
          "name": "",
          "type": "string"
        },
        {
          "indexed": false,
          "internalType": "uint256",
          "name": "",
          "type": "uint256"
        }
      ],
      "name": "Log",
      "type": "event"
    },
    {
      "anonymous": false,
      "inputs": [
        {
          "indexed": true,
          "internalType": "address",
          "name": "sender",
          "type": "address"
        },
        {
          "indexed": false,
          "internalType": "uint256",
          "name": "value",
          "type": "uint256"
        },
        {
          "indexed": false,
          "internalType": "address",
          "name": "to",
          "type": "address"
        },
        {
          "indexed": false,
          "internalType": "uint256",
          "name": "amount",
          "type": "uint256"
        },
        {
          "indexed": false,
          "internalType": "uint256",
          "name": "mintPrice",
          "type": "uint256"
        }
      ],
      "name": "MintEvent",
      "type": "event"
    },
    {
      "anonymous": false,
      "inputs": [
        {
          "indexed": false,
          "internalType": "uint256",
          "name": "",
          "type": "uint256"
        }
      ],
      "name": "NewMaxSupply",
      "type": "event"
    },
    {
      "anonymous": false,
      "inputs": [
        {
          "indexed": true,
          "internalType": "address",
          "name": "sender",
          "type": "address"
        },
        {
          "indexed": false,
          "internalType": "uint256",
          "name": "value",
          "type": "uint256"
        },
        {
          "indexed": false,
          "internalType": "address",
          "name": "to",
          "type": "address"
        },
        {
          "indexed": false,
          "internalType": "uint256",
          "name": "amount",
          "type": "uint256"
        },
        {
          "indexed": false,
          "internalType": "uint256",
          "name": "_ogMintPrice",
          "type": "uint256"
        }
      ],
      "name": "OGmintEvent",
      "type": "event"
    },
    {
      "anonymous": false,
      "inputs": [
        {
          "indexed": true,
          "internalType": "address",
          "name": "sender",
          "type": "address"
        },
        {
          "indexed": false,
          "internalType": "address",
          "name": "to",
          "type": "address"
        },
        {
          "indexed": false,
          "internalType": "uint256",
          "name": "amount",
          "type": "uint256"
        }
      ],
      "name": "OwnerMintEvent",
      "type": "event"
    },
    {
      "anonymous": false,
      "inputs": [],
      "name": "PublicStageUpdate",
      "type": "event"
    },
    {
      "anonymous": false,
      "inputs": [
        {
          "indexed": true,
          "internalType": "bytes32",
          "name": "role",
          "type": "bytes32"
        },
        {
          "indexed": true,
          "internalType": "bytes32",
          "name": "previousAdminRole",
          "type": "bytes32"
        },
        {
          "indexed": true,
          "internalType": "bytes32",
          "name": "newAdminRole",
          "type": "bytes32"
        }
      ],
      "name": "RoleAdminChanged",
      "type": "event"
    },
    {
      "anonymous": false,
      "inputs": [
        {
          "indexed": true,
          "internalType": "bytes32",
          "name": "role",
          "type": "bytes32"
        },
        {
          "indexed": true,
          "internalType": "address",
          "name": "account",
          "type": "address"
        },
        {
          "indexed": true,
          "internalType": "address",
          "name": "sender",
          "type": "address"
        }
      ],
      "name": "RoleGranted",
      "type": "event"
    },
    {
      "anonymous": false,
      "inputs": [
        {
          "indexed": true,
          "internalType": "bytes32",
          "name": "role",
          "type": "bytes32"
        },
        {
          "indexed": true,
          "internalType": "address",
          "name": "account",
          "type": "address"
        },
        {
          "indexed": true,
          "internalType": "address",
          "name": "sender",
          "type": "address"
        }
      ],
      "name": "RoleRevoked",
      "type": "event"
    },
    {
      "anonymous": false,
      "inputs": [
        {
          "indexed": true,
          "internalType": "address",
          "name": "sender",
          "type": "address"
        },
        {
          "indexed": false,
          "internalType": "address",
          "name": "receiver",
          "type": "address"
        },
        {
          "indexed": false,
          "internalType": "uint96",
          "name": "royaltyFee",
          "type": "uint96"
        }
      ],
      "name": "RoyaltyFeeUpdate",
      "type": "event"
    },
    {
      "anonymous": false,
      "inputs": [
        {
          "indexed": true,
          "internalType": "address",
          "name": "from",
          "type": "address"
        },
        {
          "indexed": true,
          "internalType": "address",
          "name": "to",
          "type": "address"
        },
        {
          "indexed": true,
          "internalType": "uint256",
          "name": "tokenId",
          "type": "uint256"
        }
      ],
      "name": "Transfer",
      "type": "event"
    },
    {
      "anonymous": false,
      "inputs": [
        {
          "indexed": true,
          "internalType": "address",
          "name": "sender",
          "type": "address"
        },
        {
          "indexed": false,
          "internalType": "uint256",
          "name": "listLength",
          "type": "uint256"
        }
      ],
      "name": "UpdateOgEvent",
      "type": "event"
    },
    {
      "anonymous": false,
      "inputs": [
        {
          "indexed": true,
          "internalType": "address",
          "name": "sender",
          "type": "address"
        },
        {
          "indexed": false,
          "internalType": "uint256",
          "name": "listLength",
          "type": "uint256"
        }
      ],
      "name": "UpdateWLevent",
      "type": "event"
    },
    {
      "anonymous": false,
      "inputs": [],
      "name": "ValidStages",
      "type": "event"
    },
    {
      "anonymous": false,
      "inputs": [
        {
          "indexed": true,
          "internalType": "address",
          "name": "sender",
          "type": "address"
        },
        {
          "indexed": false,
          "internalType": "uint256",
          "name": "value",
          "type": "uint256"
        },
        {
          "indexed": false,
          "internalType": "address",
          "name": "to",
          "type": "address"
        },
        {
          "indexed": false,
          "internalType": "uint256",
          "name": "amount",
          "type": "uint256"
        },
        {
          "indexed": false,
          "internalType": "uint256",
          "name": "wlMintPrice",
          "type": "uint256"
        }
      ],
      "name": "WLmintEvent",
      "type": "event"
    },
    {
      "anonymous": false,
      "inputs": [
        {
          "indexed": false,
          "internalType": "address",
          "name": "sender",
          "type": "address"
        },
        {
          "indexed": false,
          "internalType": "uint256",
          "name": "balance",
          "type": "uint256"
        },
        {
          "indexed": false,
          "internalType": "address",
          "name": "feeReceiver",
          "type": "address"
        },
        {
          "indexed": false,
          "internalType": "uint256",
          "name": "fee",
          "type": "uint256"
        }
      ],
      "name": "WithdrawEvent",
      "type": "event"
    },
    {
      "inputs": [],
      "name": "ADMIN_ROLE",
      "outputs": [
        {
          "internalType": "bytes32",
          "name": "",
          "type": "bytes32"
        }
      ],
      "stateMutability": "view",
      "type": "function"
    },
    {
      "inputs": [],
      "name": "DEFAULT_ADMIN_ROLE",
      "outputs": [
        {
          "internalType": "bytes32",
          "name": "",
          "type": "bytes32"
        }
      ],
      "stateMutability": "view",
      "type": "function"
    },
    {
      "inputs": [],
      "name": "OG_MINTER_ROLE",
      "outputs": [
        {
          "internalType": "bytes32",
          "name": "",
          "type": "bytes32"
        }
      ],
      "stateMutability": "view",
      "type": "function"
    },
    {
      "inputs": [],
      "name": "OPERATOR_ROLE",
      "outputs": [
        {
          "internalType": "bytes32",
          "name": "",
          "type": "bytes32"
        }
      ],
      "stateMutability": "view",
      "type": "function"
    },
    {
      "inputs": [],
      "name": "WL_MINTER_ROLE",
      "outputs": [
        {
          "internalType": "bytes32",
          "name": "",
          "type": "bytes32"
        }
      ],
      "stateMutability": "view",
      "type": "function"
    },
    {
      "inputs": [
        {
          "internalType": "address",
          "name": "to",
          "type": "address"
        },
        {
          "internalType": "uint256",
          "name": "tokenId",
          "type": "uint256"
        }
      ],
      "name": "approve",
      "outputs": [],
      "stateMutability": "payable",
      "type": "function"
    },
    {
      "inputs": [
        {
          "internalType": "address",
          "name": "owner",
          "type": "address"
        }
      ],
      "name": "balanceOf",
      "outputs": [
        {
          "internalType": "uint256",
          "name": "",
          "type": "uint256"
        }
      ],
      "stateMutability": "view",
      "type": "function"
    },
    {
      "inputs": [],
      "name": "baseURI",
      "outputs": [
        {
          "internalType": "string",
          "name": "",
          "type": "string"
        }
      ],
      "stateMutability": "view",
      "type": "function"
    },
    {
      "inputs": [
        {
          "internalType": "uint256",
          "name": "_tokenId",
          "type": "uint256"
        }
      ],
      "name": "burn",
      "outputs": [],
      "stateMutability": "nonpayable",
      "type": "function"
    },
    {
      "inputs": [],
      "name": "collectionData",
      "outputs": [
        {
          "internalType": "string",
          "name": "name",
          "type": "string"
        },
        {
          "internalType": "string",
          "name": "symbol",
          "type": "string"
        },
        {
          "internalType": "string",
          "name": "baseURI",
          "type": "string"
        },
        {
          "internalType": "string",
          "name": "baseExt",
          "type": "string"
        },
        {
          "internalType": "address",
          "name": "royaltyReceiver",
          "type": "address"
        },
        {
          "internalType": "uint128",
          "name": "maxSupply",
          "type": "uint128"
        },
        {
          "internalType": "uint128",
          "name": "royaltyFee",
          "type": "uint128"
        }
      ],
      "stateMutability": "view",
      "type": "function"
    },
    {
      "inputs": [
        {
          "internalType": "uint256",
          "name": "tokenId",
          "type": "uint256"
        }
      ],
      "name": "getApproved",
      "outputs": [
        {
          "internalType": "address",
          "name": "",
          "type": "address"
        }
      ],
      "stateMutability": "view",
      "type": "function"
    },
    {
      "inputs": [
        {
          "internalType": "bytes4",
          "name": "mintType",
          "type": "bytes4"
        },
        {
          "internalType": "address",
          "name": "_user",
          "type": "address"
        }
      ],
      "name": "getMintCountOf",
      "outputs": [
        {
          "internalType": "uint256",
          "name": "",
          "type": "uint256"
        }
      ],
      "stateMutability": "view",
      "type": "function"
    },
    {
      "inputs": [
        {
          "internalType": "bytes32",
          "name": "role",
          "type": "bytes32"
        }
      ],
      "name": "getRoleAdmin",
      "outputs": [
        {
          "internalType": "bytes32",
          "name": "",
          "type": "bytes32"
        }
      ],
      "stateMutability": "view",
      "type": "function"
    },
    {
      "inputs": [
        {
          "internalType": "bytes32",
          "name": "role",
          "type": "bytes32"
        },
        {
          "internalType": "address",
          "name": "account",
          "type": "address"
        }
      ],
      "name": "grantRole",
      "outputs": [],
      "stateMutability": "nonpayable",
      "type": "function"
    },
    {
      "inputs": [
        {
          "internalType": "bytes32",
          "name": "role",
          "type": "bytes32"
        },
        {
          "internalType": "address",
          "name": "account",
          "type": "address"
        }
      ],
      "name": "hasRole",
      "outputs": [
        {
          "internalType": "bool",
          "name": "",
          "type": "bool"
        }
      ],
      "stateMutability": "view",
      "type": "function"
    },
    {
      "inputs": [],
      "name": "initalized",
      "outputs": [
        {
          "internalType": "bool",
          "name": "",
          "type": "bool"
        }
      ],
      "stateMutability": "view",
      "type": "function"
    },
    {
      "inputs": [
        {
          "components": [
            {
              "internalType": "string",
              "name": "name",
              "type": "string"
            },
            {
              "internalType": "string",
              "name": "symbol",
              "type": "string"
            },
            {
              "internalType": "string",
              "name": "baseURI",
              "type": "string"
            },
            {
              "internalType": "string",
              "name": "baseExt",
              "type": "string"
            },
            {
              "internalType": "address",
              "name": "royaltyReceiver",
              "type": "address"
            },
            {
              "internalType": "uint128",
              "name": "maxSupply",
              "type": "uint128"
            },
            {
              "internalType": "uint128",
              "name": "royaltyFee",
              "type": "uint128"
            }
          ],
          "internalType": "struct Collection",
          "name": "_nftData",
          "type": "tuple"
        },
        {
          "components": [
            {
              "internalType": "bool",
              "name": "isMaxSupplyUpdatable",
              "type": "bool"
            },
            {
              "internalType": "uint72",
              "name": "ogMintPrice",
              "type": "uint72"
            },
            {
              "internalType": "uint72",
              "name": "whitelistMintPrice",
              "type": "uint72"
            },
            {
              "internalType": "uint72",
              "name": "mintPrice",
              "type": "uint72"
            },
            {
              "internalType": "uint16",
              "name": "mintMaxPerUser",
              "type": "uint16"
            },
            {
              "internalType": "uint16",
              "name": "ogMintMaxPerUser",
              "type": "uint16"
            },
            {
              "internalType": "uint40",
              "name": "mintStart",
              "type": "uint40"
            },
            {
              "internalType": "uint40",
              "name": "mintEnd",
              "type": "uint40"
            },
            {
              "internalType": "uint40",
              "name": "ogMintStart",
              "type": "uint40"
            },
            {
              "internalType": "uint40",
              "name": "ogMintEnd",
              "type": "uint40"
            },
            {
              "internalType": "uint40",
              "name": "whitelistMintStart",
              "type": "uint40"
            },
            {
              "internalType": "uint40",
              "name": "whitelistMintEnd",
              "type": "uint40"
            },
            {
              "internalType": "uint16",
              "name": "whitelistMintMaxPerUser",
              "type": "uint16"
            }
          ],
          "internalType": "struct Stages",
          "name": "_mintingStages",
          "type": "tuple"
        },
        {
          "internalType": "address[]",
          "name": "_ogs",
          "type": "address[]"
        },
        {
          "internalType": "address[]",
          "name": "_wls",
          "type": "address[]"
        }
      ],
      "name": "initialize",
      "outputs": [],
      "stateMutability": "nonpayable",
      "type": "function"
    },
    {
      "inputs": [
        {
          "internalType": "address",
          "name": "owner",
          "type": "address"
        },
        {
          "internalType": "address",
          "name": "operator",
          "type": "address"
        }
      ],
      "name": "isApprovedForAll",
      "outputs": [
        {
          "internalType": "bool",
          "name": "",
          "type": "bool"
        }
      ],
      "stateMutability": "view",
      "type": "function"
    },
    {
      "inputs": [
        {
          "internalType": "address",
          "name": "_to",
          "type": "address"
        },
        {
          "internalType": "uint256",
          "name": "_amount",
          "type": "uint256"
        }
      ],
      "name": "mintForOG",
      "outputs": [],
      "stateMutability": "payable",
      "type": "function"
    },
    {
      "inputs": [
        {
          "internalType": "address",
          "name": "_to",
          "type": "address"
        },
        {
          "internalType": "uint256",
          "name": "_amount",
          "type": "uint256"
        }
      ],
      "name": "mintForOwner",
      "outputs": [],
      "stateMutability": "payable",
      "type": "function"
    },
    {
      "inputs": [
        {
          "internalType": "address",
          "name": "_to",
          "type": "address"
        },
        {
          "internalType": "uint256",
          "name": "_amount",
          "type": "uint256"
        }
      ],
      "name": "mintForRegular",
      "outputs": [],
      "stateMutability": "payable",
      "type": "function"
    },
    {
      "inputs": [
        {
          "internalType": "address",
          "name": "_to",
          "type": "address"
        },
        {
          "internalType": "uint256",
          "name": "_amount",
          "type": "uint256"
        }
      ],
      "name": "mintForWhitelist",
      "outputs": [],
      "stateMutability": "payable",
      "type": "function"
    },
    {
      "inputs": [],
      "name": "mintingStages",
      "outputs": [
        {
          "internalType": "bool",
          "name": "isMaxSupplyUpdatable",
          "type": "bool"
        },
        {
          "internalType": "uint72",
          "name": "ogMintPrice",
          "type": "uint72"
        },
        {
          "internalType": "uint72",
          "name": "whitelistMintPrice",
          "type": "uint72"
        },
        {
          "internalType": "uint72",
          "name": "mintPrice",
          "type": "uint72"
        },
        {
          "internalType": "uint16",
          "name": "mintMaxPerUser",
          "type": "uint16"
        },
        {
          "internalType": "uint16",
          "name": "ogMintMaxPerUser",
          "type": "uint16"
        },
        {
          "internalType": "uint40",
          "name": "mintStart",
          "type": "uint40"
        },
        {
          "internalType": "uint40",
          "name": "mintEnd",
          "type": "uint40"
        },
        {
          "internalType": "uint40",
          "name": "ogMintStart",
          "type": "uint40"
        },
        {
          "internalType": "uint40",
          "name": "ogMintEnd",
          "type": "uint40"
        },
        {
          "internalType": "uint40",
          "name": "whitelistMintStart",
          "type": "uint40"
        },
        {
          "internalType": "uint40",
          "name": "whitelistMintEnd",
          "type": "uint40"
        },
        {
          "internalType": "uint16",
          "name": "whitelistMintMaxPerUser",
          "type": "uint16"
        }
      ],
      "stateMutability": "view",
      "type": "function"
    },
    {
      "inputs": [
        {
          "internalType": "address",
          "name": "",
          "type": "address"
        },
        {
          "internalType": "bytes4",
          "name": "",
          "type": "bytes4"
        }
      ],
      "name": "mintsPerWallet",
      "outputs": [
        {
          "internalType": "uint256",
          "name": "",
          "type": "uint256"
        }
      ],
      "stateMutability": "view",
      "type": "function"
    },
    {
      "inputs": [],
      "name": "name",
      "outputs": [
        {
          "internalType": "string",
          "name": "",
          "type": "string"
        }
      ],
      "stateMutability": "view",
      "type": "function"
    },
    {
      "inputs": [
        {
          "internalType": "uint256",
          "name": "tokenId",
          "type": "uint256"
        }
      ],
      "name": "ownerOf",
      "outputs": [
        {
          "internalType": "address",
          "name": "",
          "type": "address"
        }
      ],
      "stateMutability": "view",
      "type": "function"
    },
    {
      "inputs": [],
      "name": "platformFee",
      "outputs": [
        {
          "internalType": "uint16",
          "name": "",
          "type": "uint16"
        }
      ],
      "stateMutability": "view",
      "type": "function"
    },
    {
      "inputs": [],
      "name": "platformFeeReceiver",
      "outputs": [
        {
          "internalType": "address",
          "name": "",
          "type": "address"
        }
      ],
      "stateMutability": "view",
      "type": "function"
    },
    {
      "inputs": [],
      "name": "publicStageWeeks",
      "outputs": [
        {
          "internalType": "uint8",
          "name": "",
          "type": "uint8"
        }
      ],
      "stateMutability": "view",
      "type": "function"
    },
    {
      "inputs": [],
      "name": "receive",
      "outputs": [],
      "stateMutability": "payable",
      "type": "function"
    },
    {
      "inputs": [
        {
          "internalType": "bytes32",
          "name": "role",
          "type": "bytes32"
        },
        {
          "internalType": "address",
          "name": "account",
          "type": "address"
        }
      ],
      "name": "renounceRole",
      "outputs": [],
      "stateMutability": "nonpayable",
      "type": "function"
    },
    {
      "inputs": [
        {
          "internalType": "bytes32",
          "name": "role",
          "type": "bytes32"
        },
        {
          "internalType": "address",
          "name": "account",
          "type": "address"
        }
      ],
      "name": "revokeRole",
      "outputs": [],
      "stateMutability": "nonpayable",
      "type": "function"
    },
    {
      "inputs": [
        {
          "internalType": "uint256",
          "name": "tokenId",
          "type": "uint256"
        },
        {
          "internalType": "uint256",
          "name": "_salePrice",
          "type": "uint256"
        }
      ],
      "name": "royaltyInfo",
      "outputs": [
        {
          "internalType": "address",
          "name": "",
          "type": "address"
        },
        {
          "internalType": "uint256",
          "name": "",
          "type": "uint256"
        }
      ],
      "stateMutability": "view",
      "type": "function"
    },
    {
      "inputs": [
        {
          "internalType": "address",
          "name": "from",
          "type": "address"
        },
        {
          "internalType": "address",
          "name": "to",
          "type": "address"
        },
        {
          "internalType": "uint256",
          "name": "tokenId",
          "type": "uint256"
        }
      ],
      "name": "safeTransferFrom",
      "outputs": [],
      "stateMutability": "payable",
      "type": "function"
    },
    {
      "inputs": [
        {
          "internalType": "address",
          "name": "from",
          "type": "address"
        },
        {
          "internalType": "address",
          "name": "to",
          "type": "address"
        },
        {
          "internalType": "uint256",
          "name": "tokenId",
          "type": "uint256"
        },
        {
          "internalType": "bytes",
          "name": "_data",
          "type": "bytes"
        }
      ],
      "name": "safeTransferFrom",
      "outputs": [],
      "stateMutability": "payable",
      "type": "function"
    },
    {
      "inputs": [
        {
          "internalType": "address",
          "name": "operator",
          "type": "address"
        },
        {
          "internalType": "bool",
          "name": "approved",
          "type": "bool"
        }
      ],
      "name": "setApprovalForAll",
      "outputs": [],
      "stateMutability": "nonpayable",
      "type": "function"
    },
    {
      "inputs": [
        {
          "internalType": "string",
          "name": "_newBaseExtension",
          "type": "string"
        }
      ],
      "name": "setBaseExtension",
      "outputs": [],
      "stateMutability": "nonpayable",
      "type": "function"
    },
    {
      "inputs": [
        {
          "internalType": "string",
          "name": "_newBaseURI",
          "type": "string"
        }
      ],
      "name": "setBaseURI",
      "outputs": [],
      "stateMutability": "nonpayable",
      "type": "function"
    },
    {
      "inputs": [],
      "name": "stageTimeCap",
      "outputs": [
        {
          "internalType": "uint40",
          "name": "",
          "type": "uint40"
        }
      ],
      "stateMutability": "view",
      "type": "function"
    },
    {
      "inputs": [
        {
          "internalType": "bytes4",
          "name": "_interfaceId",
          "type": "bytes4"
        }
      ],
      "name": "supportsInterface",
      "outputs": [
        {
          "internalType": "bool",
          "name": "",
          "type": "bool"
        }
      ],
      "stateMutability": "view",
      "type": "function"
    },
    {
      "inputs": [],
      "name": "symbol",
      "outputs": [
        {
          "internalType": "string",
          "name": "",
          "type": "string"
        }
      ],
      "stateMutability": "view",
      "type": "function"
    },
    {
      "inputs": [
        {
          "internalType": "uint256",
          "name": "_tokenId",
          "type": "uint256"
        }
      ],
      "name": "tokenURI",
      "outputs": [
        {
          "internalType": "string",
          "name": "",
          "type": "string"
        }
      ],
      "stateMutability": "view",
      "type": "function"
    },
    {
      "inputs": [],
      "name": "totalSupply",
      "outputs": [
        {
          "internalType": "uint256",
          "name": "",
          "type": "uint256"
        }
      ],
      "stateMutability": "view",
      "type": "function"
    },
    {
      "inputs": [
        {
          "internalType": "address",
          "name": "from",
          "type": "address"
        },
        {
          "internalType": "address",
          "name": "to",
          "type": "address"
        },
        {
          "internalType": "uint256",
          "name": "tokenId",
          "type": "uint256"
        }
      ],
      "name": "transferFrom",
      "outputs": [],
      "stateMutability": "payable",
      "type": "function"
    },
    {
      "inputs": [
        {
          "internalType": "uint128",
          "name": "_newMax",
          "type": "uint128"
        }
      ],
      "name": "updateMaxSupply",
      "outputs": [],
      "stateMutability": "nonpayable",
      "type": "function"
    },
    {
      "inputs": [
        {
          "internalType": "uint16",
          "name": "_mintMax",
          "type": "uint16"
        }
      ],
      "name": "updateMintMax",
      "outputs": [],
      "stateMutability": "nonpayable",
      "type": "function"
    },
    {
      "inputs": [
        {
          "internalType": "uint72",
          "name": "_mintPrice",
          "type": "uint72"
        }
      ],
      "name": "updateMintPrice",
      "outputs": [],
      "stateMutability": "nonpayable",
      "type": "function"
    },
    {
      "inputs": [
        {
          "internalType": "address[]",
          "name": "_minterList",
          "type": "address[]"
        },
        {
          "internalType": "uint8",
          "name": "_mintRole",
          "type": "uint8"
        }
      ],
      "name": "updateMinterRoles",
      "outputs": [],
      "stateMutability": "nonpayable",
      "type": "function"
    },
    {
      "inputs": [
        {
          "internalType": "uint16",
          "name": "_ogMintMax",
          "type": "uint16"
        }
      ],
      "name": "updateOGMintMax",
      "outputs": [],
      "stateMutability": "nonpayable",
      "type": "function"
    },
    {
      "inputs": [
        {
          "internalType": "uint72",
          "name": "_price",
          "type": "uint72"
        }
      ],
      "name": "updateOGMintPrice",
      "outputs": [],
      "stateMutability": "nonpayable",
      "type": "function"
    },
    {
      "inputs": [
        {
          "internalType": "uint8",
          "name": "_weeks",
          "type": "uint8"
        }
      ],
      "name": "updatePublicEndTime",
      "outputs": [],
      "stateMutability": "payable",
      "type": "function"
    },
    {
      "inputs": [
        {
          "internalType": "address",
          "name": "_receiver",
          "type": "address"
        },
        {
          "internalType": "uint96",
          "name": "_royaltyFee",
          "type": "uint96"
        }
      ],
      "name": "updateRoyaltyInfo",
      "outputs": [],
      "stateMutability": "nonpayable",
      "type": "function"
    },
    {
      "inputs": [],
      "name": "updateStageFee",
      "outputs": [
        {
          "internalType": "uint72",
          "name": "",
          "type": "uint72"
        }
      ],
      "stateMutability": "view",
      "type": "function"
    },
    {
      "inputs": [
        {
          "internalType": "uint16",
          "name": "_whitelistMintMax",
          "type": "uint16"
        }
      ],
      "name": "updateWLMintMax",
      "outputs": [],
      "stateMutability": "nonpayable",
      "type": "function"
    },
    {
      "inputs": [
        {
          "internalType": "uint72",
          "name": "_whitelistMintPrice",
          "type": "uint72"
        }
      ],
      "name": "updateWhitelistMintPrice",
      "outputs": [],
      "stateMutability": "nonpayable",
      "type": "function"
    },
    {
      "inputs": [],
      "name": "version",
      "outputs": [
        {
          "internalType": "uint8",
          "name": "_version",
          "type": "uint8"
        }
      ],
      "stateMutability": "pure",
      "type": "function"
    },
    {
      "inputs": [],
      "name": "withdraw",
      "outputs": [],
      "stateMutability": "payable",
      "type": "function"
    }
  ],
  "bytecode": "0x60806040526013805460ff60281b1916905534801561001c575f80fd5b506145b68061002a5f395ff3fe608060405260043610610366575f3560e01c80635be1a091116101c8578063a3e76c0f116100fd578063c712bcff1161009d578063da3ef23f1161006d578063da3ef23f14610b1d578063e985e9c514610b3c578063f2cca28f14610b83578063f5b541a614610ba2575f80fd5b8063c712bcff14610a76578063c87b56dd14610a95578063cf15a37c14610ab4578063d547741f14610afe575f80fd5b8063b0338f2e116100d8578063b0338f2e146109f1578063b4091aca14610a11578063b88d4fde14610a30578063be4b1ef914610a43575f80fd5b8063a3e76c0f146109a0578063a8c3182b146109a8578063abc56713146109bb575f80fd5b80637faf476d1161016857806395d89b411161014357806395d89b41146109335780639c89a7b314610947578063a217fddf1461096e578063a22cb46514610981575f80fd5b80637faf476d146108d557806381f4a0b5146108f457806391d1485414610914575f80fd5b80636c0360eb116101a35780636c0360eb1461086f57806370a082311461088357806375b238fc146108a25780637ab06c12146108c2575f80fd5b80635be1a091146107f25780636352211e1461081257806368c16b2214610831575f80fd5b80632d656ad71161029e57806342966c681161023e578063515571a211610219578063515571a21461078057806353b859df1461079f57806354fd4d50146107b257806355f804b3146107d3575f80fd5b806342966c68146107235780634464f777146107425780634695b37b14610761575f80fd5b80633808267e116102795780633808267e146106ca5780633ccfd60b146106e9578063411c4442146106f157806342842e0e14610710575f80fd5b80632d656ad71461066d5780632f2ff15d1461068c57806336568abe146106ab575f80fd5b8063172cf75f1161030957806323b872dd116102e457806323b872dd146105ba578063248a9ca3146105cd57806326232a2e146105fb5780632a55205a1461062f575f80fd5b8063172cf75f1461045057806318160ddd1461047e5780631a8f41931461049a575f80fd5b806306fdde031161034457806306fdde03146103c6578063081812fc146103e7578063095ea7b31461041e5780630e208d0814610431575f80fd5b80630107e23e1461036a5780630167f3c51461037f57806301ffc9a714610392575b5f80fd5b61037d61037836600461363f565b610bc2565b005b61037d61038d36600461366c565b610d92565b34801561039d575f80fd5b506103b16103ac3660046136ab565b610e7f565b60405190151581526020015b60405180910390f35b3480156103d1575f80fd5b506103da610ec4565b6040516103bd9190613713565b3480156103f2575f80fd5b50610406610401366004613725565b610f54565b6040516001600160a01b0390911681526020016103bd565b61037d61042c36600461366c565b610f8d565b34801561043c575f80fd5b5061037d61044b366004613750565b610f9d565b34801561045b575f80fd5b506104705f8051602061456183398151915281565b6040519081526020016103bd565b348015610489575f80fd5b50610470600254600154035f190190565b3480156104a5575f80fd5b50600a54600b546105339160ff8116916001600160481b036101008304811692600160501b808204831693600160981b83049093169261ffff600160e01b8404811693600160f01b9081900482169364ffffffffff80851694600160281b8104821694928104821693600160781b8204831693600160a01b8304841693600160c81b8404169291909104168d565b604080519d15158e526001600160481b039c8d1660208f01529a8c169a8d019a909a529990971660608b015261ffff95861660808b015293851660a08a015264ffffffffff92831660c08a015290821660e089015281166101008801529081166101208701529182166101408601529216610160840152166101808201526101a0016103bd565b61037d6105c836600461376b565b61109e565b3480156105d8575f80fd5b506104706105e7366004613725565b5f9081526020819052604090206001015490565b348015610606575f80fd5b5060125461061c90600160e81b900461ffff1681565b60405161ffff90911681526020016103bd565b34801561063a575f80fd5b5061064e6106493660046137a9565b611203565b604080516001600160a01b0390931683526020830191909152016103bd565b348015610678575f80fd5b50601254610406906001600160a01b031681565b348015610697575f80fd5b5061037d6106a63660046137c9565b61124d565b3480156106b6575f80fd5b5061037d6106c53660046137c9565b611276565b3480156106d5575f80fd5b5061037d6106e4366004613808565b6112f0565b61037d6113ab565b3480156106fc575f80fd5b5061037d61070b366004613821565b6115fc565b61037d61071e36600461376b565b611678565b34801561072e575f80fd5b5061037d61073d366004613725565b611692565b34801561074d575f80fd5b5061037d61075c366004613898565b61171f565b34801561076c575f80fd5b5061037d61077b366004613808565b611cca565b34801561078b575f80fd5b5061037d61079a366004613965565b611d85565b61037d6107ad36600461366c565b611e27565b3480156107bd575f80fd5b5060025b60405160ff90911681526020016103bd565b3480156107de575f80fd5b5061037d6107ed366004613a2d565b611f12565b3480156107fd575f80fd5b506013546103b190600160281b900460ff1681565b34801561081d575f80fd5b5061040661082c366004613725565b611f1e565b34801561083c575f80fd5b5060125461085790600160a01b90046001600160481b031681565b6040516001600160481b0390911681526020016103bd565b34801561087a575f80fd5b506103da611f28565b34801561088e575f80fd5b5061047061089d366004613a71565b611f37565b3480156108ad575f80fd5b506104705f8051602061454183398151915281565b61037d6108d036600461366c565b611f7a565b3480156108e0575f80fd5b5061037d6108ef366004613965565b61203f565b3480156108ff575f80fd5b506012546107c190600160f81b900460ff1681565b34801561091f575f80fd5b506103b161092e3660046137c9565b6120e5565b34801561093e575f80fd5b506103da61210d565b348015610952575f80fd5b5061095b61211c565b6040516103bd9796959493929190613a8c565b348015610979575f80fd5b506104705f81565b34801561098c575f80fd5b5061037d61099b366004613b1a565b61237a565b61037d6123e5565b61037d6109b636600461366c565b612425565b3480156109c6575f80fd5b506104706109d5366004613b4d565b600960209081525f928352604080842090915290825290205481565b3480156109fc575f80fd5b506104705f805160206144e183398151915281565b348015610a1c575f80fd5b5061037d610a2b366004613965565b612504565b61037d610a3e366004613b79565b6125aa565b348015610a4e575f80fd5b50601354610a609064ffffffffff1681565b60405164ffffffffff90911681526020016103bd565b348015610a81575f80fd5b5061037d610a90366004613808565b6125e5565b348015610aa0575f80fd5b506103da610aaf366004613725565b6126a0565b348015610abf575f80fd5b50610470610ace366004613bf3565b6001600160a01b03165f9081526009602090815260408083206001600160e01b0319949094168352929052205490565b348015610b09575f80fd5b5061037d610b183660046137c9565b612724565b348015610b28575f80fd5b5061037d610b37366004613a2d565b612748565b348015610b47575f80fd5b506103b1610b56366004613c1f565b6001600160a01b039182165f90815260086020908152604080832093909416825291909152205460ff1690565b348015610b8e575f80fd5b5061037d610b9d366004613c3b565b612754565b348015610bad575f80fd5b506104705f8051602061452183398151915281565b610bd95f80516020614541833981519152336120e5565b80610bf65750610bf65f80516020614521833981519152336120e5565b610c1b5760405162461bcd60e51b8152600401610c1290613c8a565b60405180910390fd5b60125460ff600160f81b9091048116908216811015610c505760405163b78065e960e01b815260016004820152602401610c12565b6012543490600160a01b90046001600160481b0316811015610c885760405163b78065e960e01b815260026004820152602401610c12565b6012546040515f916001600160a01b03169083908381818185875af1925050503d805f8114610cd2576040519150601f19603f3d011682016040523d82523d5f602084013e610cd7565b606091505b5050905080610cfc5760405163b78065e960e01b815260036004820152602401610c12565b600b8054601280546001600160f81b0316600160f81b60ff8989038116919091029190911790915569ffffffffff000000000019821660078802909116620151800262ffffff16600160281b9283900464ffffffffff90811691909101908116909202179091556040517f364e225418b7ee601cf610faa00843fb274c2648cc61ab3c3752cdb78a6b11a6905f90a15050505050565b5f805160206144e1833981519152610da9816128f8565b600a54614f4760f01b90610dcb9061010090046001600160481b031684613cce565b341015610def57805f604051632dadc8a160e01b8152600401610c12929190613ce5565b600a54600b54610e28918691869161ffff600160f01b909104169064ffffffffff600160501b8204811691600160781b90041686612905565b600a5460405133917f12868c3639cc6f45bf88ecdaf9a5a315a966c89339b502a13c32758761b8149491610e71913491899189916101009091046001600160481b031690613d02565b60405180910390a250505050565b5f6001600160e01b0319821663184371e560e31b1480610eaf57506001600160e01b0319821663152a902d60e11b145b80610ebe5750610ebe82612a25565b92915050565b606060038054610ed390613d2f565b80601f0160208091040260200160405190810160405280929190818152602001828054610eff90613d2f565b8015610f4a5780601f10610f2157610100808354040283529160200191610f4a565b820191905f5260205f20905b815481529060010190602001808311610f2d57829003601f168201915b5050505050905090565b5f610f5e82612a72565b610f7257610f726333d1c03960e21b612abd565b505f908152600760205260409020546001600160a01b031690565b610f9982826001612ac5565b5050565b5f80516020614541833981519152610fb4816128f8565b600a5460ff16610fda57604051632a755e6760e11b815260016004820152602401610c12565b6011546001600160801b03908116908316101561100d57604051632a755e6760e11b815260026004820152602401610c12565b61101d600254600154035f190190565b826001600160801b0316101561104957604051632a755e6760e11b815260036004820152602401610c12565b601180546001600160801b0319166001600160801b0384169081179091556040519081527f870e95cc902be0a1f894ff08bb13ab98999fdb581790629f18dd80eb4da06cca9060200160405180910390a15050565b5f6110a882612b66565b6001600160a01b0394851694909150811684146110ce576110ce62a1148160e81b612abd565b5f82815260076020526040902080546110f98187335b6001600160a01b039081169116811491141790565b61111b576111078633610b56565b61111b5761111b632ce44b5f60e11b612abd565b8015611125575f82555b6001600160a01b038681165f9081526006602052604080822080545f19019055918716808252919020805460010190554260a01b17600160e11b175f85815260056020526040812091909155600160e11b841690036111b257600184015f8181526005602052604081205490036111b05760015481146111b0575f8181526005602052604090208490555b505b6001600160a01b0385168481887fddf252ad1be2c89b69c2b068fc378daa952ba7f163c4a11628f55a4df523b3ef5f80a4805f036111fa576111fa633a954ecd60e21b612abd565b50505050505050565b6010546011545f9182916001600160a01b03909116906127109061123790600160801b90046001600160801b031686613cce565b6112419190613d67565b915091505b9250929050565b5f82815260208190526040902060010154611267816128f8565b6112718383612c01565b505050565b6001600160a01b03811633146112e65760405162461bcd60e51b815260206004820152602f60248201527f416363657373436f6e74726f6c3a2063616e206f6e6c792072656e6f756e636560448201526e103937b632b9903337b91039b2b63360891b6064820152608401610c12565b610f998282612c67565b6113075f80516020614541833981519152336120e5565b8061132457506113245f80516020614521833981519152336120e5565b6113405760405162461bcd60e51b8152600401610c1290613c8a565b5f8161ffff16116113885760405162461bcd60e51b8152602060048201526012602482015271125b9d985b1a59081b585e08185b5bdd5b9d60721b6044820152606401610c12565b600b805461ffff909216600160f01b026001600160f01b03909216919091179055565b5f805160206145418339815191526113c2816128f8565b60125433906001600160a01b03811690600160e81b900461ffff168015611542576012545f906127109061140190600160e81b900461ffff1647613cce565b61140b9190613d67565b90505f836001600160a01b0316826040515f6040518083038185875af1925050503d805f8114611456576040519150601f19603f3d011682016040523d82523d5f602084013e61145b565b606091505b505090508061147f57604051631d22aaa960e31b81525f6004820152602401610c12565b60405147905f906001600160a01b0388169083908381818185875af1925050503d805f81146114c9576040519150601f19603f3d011682016040523d82523d5f602084013e6114ce565b606091505b50509050806114f357604051631d22aaa960e31b815260016004820152602401610c12565b7f7e27a75faf6b8f74ec66364c1d23167ad5a538473e8bb4986ac2a26c30dbbbe68761151f8685613d86565b88886040516115319493929190613d99565b60405180910390a1505050506115f6565b60405147905f906001600160a01b0386169083908381818185875af1925050503d805f811461158c576040519150601f19603f3d011682016040523d82523d5f602084013e611591565b606091505b50509050806115b657604051631d22aaa960e31b815260026004820152602401610c12565b7f7e27a75faf6b8f74ec66364c1d23167ad5a538473e8bb4986ac2a26c30dbbbe6858386866040516115eb9493929190613d99565b60405180910390a150505b50505050565b5f80516020614541833981519152611613816128f8565b61162683836001600160601b0316612ccb565b604080516001600160a01b03851681526001600160601b038416602082015233917f0d68bfdb860b47ebf04e76cebf91e412a17ee7ccf960b3dd8720471b090b2ea891015b60405180910390a2505050565b61127183838360405180602001604052805f8152506125aa565b3361169c82611f1e565b6001600160a01b0316146116de5760405162461bcd60e51b81526020600482015260096024820152682737ba1027bbb732b960b91b6044820152606401610c12565b6116e781612d65565b60405181815233907f512586160ebd4dc6945ba9ec5d21a1f723f26f3c7aa36cdffb6818d4e7b880309060200160405180910390a250565b601354600160281b900460ff161561176f5760405162461bcd60e51b8152602060048201526013602482015272105b1c9958591e481a5b9a5d1a585b1a5e9959606a1b6044820152606401610c12565b5f6117795f612d6f565b90506117856014612d87565b6012601f6101000a81548160ff021916908360ff1602179055506117a96015612d9f565b6012601d6101000a81548161ffff021916908361ffff1602179055506117cf6017612db7565b601260146101000a8154816001600160481b0302191690836001600160481b031602179055506117ff6020612dcf565b6013805464ffffffffff191664ffffffffff92909216919091179055601254604080518181526010918101919091526f7075626c696353746167655765656b7360801b6060820152600160f81b90910460ff1660208201525f805160206145018339815191529060800160405180910390a160125460408051818152600b818301526a706c6174666f726d46656560a81b6060820152600160e81b90920461ffff166020830152515f80516020614501833981519152916080908290030190a160125460408051818152600e818301526d757064617465537461676546656560901b6060820152600160a01b9092046001600160481b03166020830152515f80516020614501833981519152916080908290030190a160135460408051818152600c818301526b0737461676554696d654361760a41b606082015264ffffffffff9092166020830152515f805160206145018339815191529181900360800190a1336119e861196e8980613dcb565b8080601f0160208091040260200160405190810160405280939291908181526020018383808284375f920191909152506119af9250505060208b018b613dcb565b8080601f0160208091040260200160405190810160405280939291908181526020018383808284375f92019190915250612de792505050565b6119ff5f8051602061454183398151915280612e09565b611a235f805160206145218339815191525f80516020614541833981519152612e09565b611a475f805160206144e18339815191525f80516020614541833981519152612e09565b611a6b5f805160206145618339815191525f80516020614541833981519152612e09565b611a825f8051602061454183398151915282612c01565b611a995f8051602061454183398151915283612c01565b611aa486865f612754565b611ab084846001612754565b611ac982611ac460e08b0160c08c01613750565b612ccb565b87600c611ad68282613f3b565b50506011546001600160801b0316611aee8189612e53565b8051600a8054602084015160408501516060860151608087015160a088015169ffffffffffffffffffff1995861697151569ffffffffffffffffff001916979097176101006001600160481b0395861681029190911771ffffffffffffffffffffffffffffffffffff60501b1916600160501b948616850268ffffffffffffffffff60981b191617600160981b9590931694909402919091176001600160e01b0316600160e01b61ffff928316026001600160f01b0390811691909117600160f01b97831688021790955560c0870151600b805460e08a0151958a01516101208b01516101408c01516101608d0151610180909d015164ffffffffff96871694909a1693909317600160281b98861689021769ffffffffffffffffffff60501b191691851690960264ffffffffff60781b191617600160781b958416959095029490941769ffffffffffffffffffff60a01b1916600160a01b9483169490940264ffffffffff60c81b191693909317600160c81b91909816029690961790931691909416909202919091179055601280546001600160a01b0319166001600160a01b0385161790556013805465ff000000000019169091179055611cbf5f8051602061454183398151915283612724565b505050505050505050565b611ce15f80516020614541833981519152336120e5565b80611cfe5750611cfe5f80516020614521833981519152336120e5565b611d1a5760405162461bcd60e51b8152600401610c1290613c8a565b5f8161ffff1611611d625760405162461bcd60e51b8152602060048201526012602482015271125b9d985b1a59081b585e08185b5bdd5b9d60721b6044820152606401610c12565b600a805461ffff909216600160f01b026001600160f01b03909216919091179055565b611d9c5f80516020614541833981519152336120e5565b80611db95750611db95f80516020614521833981519152336120e5565b611dd55760405162461bcd60e51b8152600401610c1290613c8a565b5f816001600160481b031611611dfd5760405162461bcd60e51b8152600401610c12906140e1565b600a80546001600160481b039092166101000269ffffffffffffffffff0019909216919091179055565b611e3e5f80516020614541833981519152336120e5565b80611e5b5750611e5b5f80516020614521833981519152336120e5565b611e775760405162461bcd60e51b8152600401610c1290613c8a565b6011546001600160801b031681611e94600254600154035f190190565b611e9e919061410f565b1115611ec0576040516364f5742160e11b815260016004820152602401610c12565b611eca8282613044565b604080516001600160a01b03841681526020810183905233917f1a3e625d40ebf494638afa2b07e6a62f9fbfa2060469d5bfc998ce32d7c91b90910160405180910390a25050565b600e610f998282614122565b5f610ebe82612b66565b6060611f3261305d565b905090565b5f6001600160a01b038216611f5657611f566323d3ad8160e21b612abd565b506001600160a01b03165f908152600660205260409020546001600160401b031690565b600a5461524760f01b90611f9e90600160981b90046001600160481b031683613cce565b341015611fc257805f604051632dadc8a160e01b8152600401610c12929190613ce5565b600a54600b54611ff49185918591600160e01b900461ffff169064ffffffffff80821691600160281b90041686612905565b600a5460405133917f4b39a2b601e18792cafbb9db818cbd30b9cd45ad108161d616484ec3b3cc1def9161166b91349188918891600160981b9091046001600160481b031690613d02565b6120565f80516020614541833981519152336120e5565b8061207357506120735f80516020614521833981519152336120e5565b61208f5760405162461bcd60e51b8152600401610c1290613c8a565b5f816001600160481b0316116120b75760405162461bcd60e51b8152600401610c12906140e1565b600a80546001600160481b03909216600160981b0268ffffffffffffffffff60981b19909216919091179055565b5f918252602082815260408084206001600160a01b0393909316845291905290205460ff1690565b606060048054610ed390613d2f565b600c8054819061212b90613d2f565b80601f016020809104026020016040519081016040528092919081815260200182805461215790613d2f565b80156121a25780601f10612179576101008083540402835291602001916121a2565b820191905f5260205f20905b81548152906001019060200180831161218557829003601f168201915b5050505050908060010180546121b790613d2f565b80601f01602080910402602001604051908101604052809291908181526020018280546121e390613d2f565b801561222e5780601f106122055761010080835404028352916020019161222e565b820191905f5260205f20905b81548152906001019060200180831161221157829003601f168201915b50505050509080600201805461224390613d2f565b80601f016020809104026020016040519081016040528092919081815260200182805461226f90613d2f565b80156122ba5780601f10612291576101008083540402835291602001916122ba565b820191905f5260205f20905b81548152906001019060200180831161229d57829003601f168201915b5050505050908060030180546122cf90613d2f565b80601f01602080910402602001604051908101604052809291908181526020018280546122fb90613d2f565b80156123465780601f1061231d57610100808354040283529160200191612346565b820191905f5260205f20905b81548152906001019060200180831161232957829003601f168201915b50505050600483015460059093015491926001600160a01b0316916001600160801b038082169250600160801b9091041687565b335f8181526008602090815260408083206001600160a01b03871680855290835292819020805460ff191686151590811790915590519081529192917f17307eab39ab6107e8899845ad3d59bd9653f200f220920489ca2b5937696c31910160405180910390a35050565b6040805181815260098183015268034b731b7b6b4b733960bd1b606082015234602082015290515f805160206145018339815191529181900360800190a1565b5f8051602061456183398151915261243c816128f8565b600a546115d360f21b9061246090600160501b90046001600160481b031684613cce565b34101561248457805f604051632dadc8a160e01b8152600401610c12929190613ce5565b600b546124b9908590859061ffff600160f01b8204169064ffffffffff600160a01b8204811691600160c81b90041686612905565b600a5460405133917f2803fcf0a236d2815d9e6b3ef81ad6014f08139d44906d7d3cfc5302331e81e091610e7191349189918991600160501b9091046001600160481b031690613d02565b61251b5f80516020614541833981519152336120e5565b8061253857506125385f80516020614521833981519152336120e5565b6125545760405162461bcd60e51b8152600401610c1290613c8a565b5f816001600160481b03161161257c5760405162461bcd60e51b8152600401610c12906140e1565b600a80546001600160481b03909216600160501b0268ffffffffffffffffff60501b19909216919091179055565b6125b584848461109e565b6001600160a01b0383163b156115f6576125d18484848461306f565b6115f6576115f66368d2bf6b60e11b612abd565b6125fc5f80516020614541833981519152336120e5565b8061261957506126195f80516020614521833981519152336120e5565b6126355760405162461bcd60e51b8152600401610c1290613c8a565b5f8161ffff161161267e5760405162461bcd60e51b8152602060048201526013602482015272125b9d985b1a59081b5a5b9d08185b5bdd5b9d606a1b6044820152606401610c12565b600a805461ffff909216600160e01b0261ffff60e01b19909216919091179055565b60606126ab82612a72565b6126c857604051635a13bba960e01b815260040160405180910390fd5b5f6126d1611f28565b90505f8151116126ef5760405180602001604052805f81525061271d565b806126f98461314e565b60405161270d929190600f906020016141d8565b6040516020818303038152906040525b9392505050565b5f8281526020819052604090206001015461273e816128f8565b6112718383612c67565b600f610f998282614122565b61276b5f80516020614541833981519152336120e5565b8061278857506127885f80516020614521833981519152336120e5565b6127a45760405162461bcd60e51b8152600401610c1290613c8a565b60ff811615806127b757508060ff166001145b6127fa5760405162461bcd60e51b81526020600482015260146024820152734572726f72206f6e6c79204f473d302c574c3d3160601b6044820152606401610c12565b8180156115f6575f5b818110156128f1575f85858381811061281e5761281e614273565b90506020020160208101906128339190613a71565b6001600160a01b03160361287b5760405162461bcd60e51b815260206004820152600f60248201526e496e76616c6964204164647265737360881b6044820152606401610c12565b60ff8316156128c6576128c15f805160206145618339815191528686848181106128a7576128a7614273565b90506020020160208101906128bc9190613a71565b612c01565b6128e9565b6128e95f805160206144e18339815191528686848181106128a7576128a7614273565b600101612803565b5050505050565b6129028133613191565b50565b335f9081526009602090815260408083206001600160e01b031985168452909152902054849061293690879061410f565b111561295a57806001604051632dadc8a160e01b8152600401610c12929190613ce5565b428381101561298157816002604051632dadc8a160e01b8152600401610c12929190613ce5565b828111156129a757816003604051632dadc8a160e01b8152600401610c12929190613ce5565b6011546001600160801b0316866129c4600254600154035f190190565b6129ce919061410f565b11156129f257816004604051632dadc8a160e01b8152600401610c12929190613ce5565b335f9081526009602090815260408083206001600160e01b03198616845290915290208054870190556111fa87876131ea565b5f6301ffc9a760e01b6001600160e01b031983161480612a5557506380ac58cd60e01b6001600160e01b03198316145b80610ebe5750506001600160e01b031916635b5e139f60e01b1490565b5f81600111612ab857600154821015612ab8575f5b505f8281526005602052604081205490819003612aae57612aa783614287565b9250612a87565b600160e01b161590505b919050565b805f5260045ffd5b5f612acf83611f1e565b9050818015612ae75750336001600160a01b03821614155b15612b0a57612af68133610b56565b612b0a57612b0a6367d9dca160e11b612abd565b5f8381526007602052604080822080546001600160a01b0319166001600160a01b0388811691821790925591518693918516917f8c5be1e5ebec7d5bd14f71427d1e84f3dd0314c0f7b2291e5b200ac8c7c3b92591a450505050565b5f81600111612bf157505f8181526005602052604081205490819003612bdf576001548210612b9f57612b9f636f96cda160e11b612abd565b5b505f19015f818152600560205260409020548015612ba057600160e01b81165f03612bca57919050565b612bda636f96cda160e11b612abd565b612ba0565b600160e01b81165f03612bf157919050565b612ab8636f96cda160e11b612abd565b612c0b82826120e5565b610f99575f828152602081815260408083206001600160a01b0385168085529252808320805460ff1916600117905551339285917f2f8788117e7eff1d82e926ec794901d17c78024a50270940304540a733656f0d9190a45050565b612c7182826120e5565b15610f99575f828152602081815260408083206001600160a01b0385168085529252808320805460ff1916905551339285917ff6391f5c32d9c69d2a47ea670b442974b53935d1edc7fd64eb21e047a839171b9190a45050565b612710816001600160801b03161115612cfa5760405163095a14db60e11b815260016004820152602401610c12565b6001600160a01b038216612d245760405163095a14db60e11b815260026004820152602401610c12565b601080546001600160a01b039093166001600160a01b031990931692909217909155601180546001600160801b03928316600160801b029216919091179055565b612902815f6132a5565b5f80612d796133d5565b929092013560601c92915050565b5f80612d916133d5565b929092013560f81c92915050565b5f80612da96133d5565b929092013560f01c92915050565b5f80612dc16133d5565b929092013560b81c92915050565b5f80612dd96133d5565b929092013560d81c92915050565b6003612df38382614122565b506004612e008282614122565b50600180555050565b5f82815260208190526040808220600101805490849055905190918391839186917fbd79b86ffe0ab8e8776151514217cd7cacd52c909f66475c3af44e129f0b00ff9190a4505050565b604080516101a0810182525f80825260208201819052918101829052606081018290526080810182905260a0810182905260c0810182905260e081018290526101008101829052610120810182905261014081018290526101608101829052610180810191909152612eca368390038301836142b0565b9050826001600160801b03168161018001518260a001518360800151612ef091906143ac565b612efa91906143ac565b61ffff161115612f20576040516336fe104360e01b815260026004820152602401610c12565b5f8082610100015164ffffffffff1611612f3a575f612f4e565b612f4e8261010001518361012001516133e4565b64ffffffffff1690505f8083610140015164ffffffffff1611612f71575f612f85565b612f858361014001518461016001516133e4565b64ffffffffff1690505f808460c0015164ffffffffff1611612fa7575f612fb9565b612fb98460c001518560e001516133e4565b60135464ffffffffff9182169250612fd59116620151806143ce565b64ffffffffff1681612fe7848661410f565b612ff1919061410f565b1115613013576040516336fe104360e01b815260036004820152602401610c12565b6040517f86b038b0c0dafb1643b89a98d4e5baec6d8b0b306b23e695a428bc614daf09e0905f90a150505092915050565b610f99828260405180602001604052805f815250613428565b6060600c6002018054610ed390613d2f565b604051630a85bd0160e11b81525f906001600160a01b0385169063150b7a02906130a39033908990889088906004016143f7565b6020604051808303815f875af19250505080156130dd575060408051601f3d908101601f191682019092526130da91810190614433565b60015b613130573d80801561310a576040519150601f19603f3d011682016040523d82523d5f602084013e61310f565b606091505b5080515f03613128576131286368d2bf6b60e11b612abd565b805181602001fd5b6001600160e01b031916630a85bd0160e11b1490505b949350505050565b606060a06040510180604052602081039150505f815280825b600183039250600a81066030018353600a9004806131675750819003601f19909101908152919050565b61319b82826120e5565b610f99576131a881613488565b6131b383602061349a565b6040516020016131c492919061444e565b60408051601f198184030181529082905262461bcd60e51b8252610c1291600401613713565b6001545f8290036132055761320563b562e8dd60e01b612abd565b5f8181526005602090815260408083206001600160a01b0387164260a01b6001881460e11b1781179091558084526006909252822080546801000000000000000186020190559081900361326257613262622e076360e81b612abd565b818301825b80835f7fddf252ad1be2c89b69c2b068fc378daa952ba7f163c4a11628f55a4df523b3ef5f80a4818160010191508103613267575060015550505050565b5f6132af83612b66565b9050805f806132cb865f90815260076020526040902080549091565b915091508415613302576132e08184336110e4565b613302576132ee8333610b56565b61330257613302632ce44b5f60e11b612abd565b801561330c575f82555b6001600160a01b0383165f81815260066020526040902080546001600160801b030190554260a01b17600360e01b175f87815260056020526040812091909155600160e11b8516900361338d57600186015f81815260056020526040812054900361338b57600154811461338b575f8181526005602052604090208590555b505b60405186905f906001600160a01b038616907fddf252ad1be2c89b69c2b068fc378daa952ba7f163c4a11628f55a4df523b3ef908390a4505060028054600101905550505050565b3660011981013560f01c900390565b5f8264ffffffffff168264ffffffffff16111561340c5761340583836144c2565b9050610ebe565b6040516336fe104360e01b815260016004820152602401610c12565b61343283836131ea565b6001600160a01b0383163b15611271576001548281035b61345b5f86838060010194508661306f565b61346f5761346f6368d2bf6b60e11b612abd565b8181106134495781600154146128f1576128f15f612abd565b6060610ebe6001600160a01b03831660145b60605f6134a8836002613cce565b6134b390600261410f565b6001600160401b038111156134ca576134ca61397e565b6040519080825280601f01601f1916602001820160405280156134f4576020820181803683370190505b509050600360fc1b815f8151811061350e5761350e614273565b60200101906001600160f81b03191690815f1a905350600f60fb1b8160018151811061353c5761353c614273565b60200101906001600160f81b03191690815f1a9053505f61355e846002613cce565b61356990600161410f565b90505b60018111156135e0576f181899199a1a9b1b9c1cb0b131b232b360811b85600f166010811061359d5761359d614273565b1a60f81b8282815181106135b3576135b3614273565b60200101906001600160f81b03191690815f1a90535060049490941c936135d981614287565b905061356c565b50831561271d5760405162461bcd60e51b815260206004820181905260248201527f537472696e67733a20686578206c656e67746820696e73756666696369656e746044820152606401610c12565b803560ff81168114612ab8575f80fd5b5f6020828403121561364f575f80fd5b61271d8261362f565b6001600160a01b0381168114612902575f80fd5b5f806040838503121561367d575f80fd5b823561368881613658565b946020939093013593505050565b6001600160e01b031981168114612902575f80fd5b5f602082840312156136bb575f80fd5b813561271d81613696565b5f5b838110156136e05781810151838201526020016136c8565b50505f910152565b5f81518084526136ff8160208601602086016136c6565b601f01601f19169290920160200192915050565b602081525f61271d60208301846136e8565b5f60208284031215613735575f80fd5b5035919050565b6001600160801b0381168114612902575f80fd5b5f60208284031215613760575f80fd5b813561271d8161373c565b5f805f6060848603121561377d575f80fd5b833561378881613658565b9250602084013561379881613658565b929592945050506040919091013590565b5f80604083850312156137ba575f80fd5b50508035926020909101359150565b5f80604083850312156137da575f80fd5b8235915060208301356137ec81613658565b809150509250929050565b803561ffff81168114612ab8575f80fd5b5f60208284031215613818575f80fd5b61271d826137f7565b5f8060408385031215613832575f80fd5b823561383d81613658565b915060208301356001600160601b03811681146137ec575f80fd5b5f8083601f840112613868575f80fd5b5081356001600160401b0381111561387e575f80fd5b6020830191508360208260051b8501011115611246575f80fd5b5f805f805f808688036102008112156138af575f80fd5b87356001600160401b03808211156138c5575f80fd5b9089019060e0828c0312156138d8575f80fd5b8198506101a0601f19840112156138ed575f80fd5b60208a0197506101c08a0135925080831115613907575f80fd5b6139138b848c01613858565b90975095506101e08a013592508691508083111561392f575f80fd5b505061393d89828a01613858565b979a9699509497509295939492505050565b80356001600160481b0381168114612ab8575f80fd5b5f60208284031215613975575f80fd5b61271d8261394f565b634e487b7160e01b5f52604160045260245ffd5b6040516101a081016001600160401b03811182821017156139b5576139b561397e565b60405290565b5f6001600160401b03808411156139d4576139d461397e565b604051601f8501601f19908116603f011681019082821181831017156139fc576139fc61397e565b81604052809350858152868686011115613a14575f80fd5b858560208301375f602087830101525050509392505050565b5f60208284031215613a3d575f80fd5b81356001600160401b03811115613a52575f80fd5b8201601f81018413613a62575f80fd5b613146848235602084016139bb565b5f60208284031215613a81575f80fd5b813561271d81613658565b60e081525f613a9e60e083018a6136e8565b8281036020840152613ab0818a6136e8565b90508281036040840152613ac481896136e8565b90508281036060840152613ad881886136e8565b6001600160a01b0396909616608084015250506001600160801b0392831660a0820152911660c090910152949350505050565b80358015158114612ab8575f80fd5b5f8060408385031215613b2b575f80fd5b8235613b3681613658565b9150613b4460208401613b0b565b90509250929050565b5f8060408385031215613b5e575f80fd5b8235613b6981613658565b915060208301356137ec81613696565b5f805f8060808587031215613b8c575f80fd5b8435613b9781613658565b93506020850135613ba781613658565b92506040850135915060608501356001600160401b03811115613bc8575f80fd5b8501601f81018713613bd8575f80fd5b613be7878235602084016139bb565b91505092959194509250565b5f8060408385031215613c04575f80fd5b8235613c0f81613696565b915060208301356137ec81613658565b5f8060408385031215613c30575f80fd5b8235613c0f81613658565b5f805f60408486031215613c4d575f80fd5b83356001600160401b03811115613c62575f80fd5b613c6e86828701613858565b9094509250613c8190506020850161362f565b90509250925092565b60208082526016908201527527b7363c9020b236b4b71037b91027b832b930ba37b960511b604082015260600190565b634e487b7160e01b5f52601160045260245ffd5b8082028115828204841417610ebe57610ebe613cba565b6001600160e01b031992909216825260ff16602082015260400190565b9384526001600160a01b0392909216602084015260408301526001600160481b0316606082015260800190565b600181811c90821680613d4357607f821691505b602082108103613d6157634e487b7160e01b5f52602260045260245ffd5b50919050565b5f82613d8157634e487b7160e01b5f52601260045260245ffd5b500490565b81810381811115610ebe57610ebe613cba565b6001600160a01b0394851681526020810193909352921660408201526001600160601b03909116606082015260800190565b5f808335601e19843603018112613de0575f80fd5b8301803591506001600160401b03821115613df9575f80fd5b602001915036819003821315611246575f80fd5b601f821115611271575f81815260208120601f850160051c81016020861015613e335750805b601f850160051c820191505b81811015613e5257828155600101613e3f565b505050505050565b5f19600383901b1c191660019190911b1790565b6001600160401b03831115613e8557613e8561397e565b613e9983613e938354613d2f565b83613e0d565b5f601f841160018114613ec5575f8515613eb35750838201355b613ebd8682613e5a565b8455506128f1565b5f83815260209020601f19861690835b82811015613ef55786850135825560209485019460019092019101613ed5565b5086821015613f11575f1960f88860031b161c19848701351681555b505060018560011b0183555050505050565b5f8135610ebe81613658565b5f8135610ebe8161373c565b613f458283613dcb565b6001600160401b03811115613f5c57613f5c61397e565b613f7081613f6a8554613d2f565b85613e0d565b5f601f821160018114613f9c575f8315613f8a5750838201355b613f948482613e5a565b865550613ff4565b5f85815260209020601f19841690835b82811015613fcc5786850135825560209485019460019092019101613fac565b5084821015613fe8575f1960f88660031b161c19848701351681555b505060018360011b0185555b505050506140056020830183613dcb565b614013818360018601613e6e565b50506140226040830183613dcb565b614030818360028601613e6e565b505061403f6060830183613dcb565b61404d818360038601613e6e565b505061408261405e60808401613f23565b6004830180546001600160a01b0319166001600160a01b0392909216919091179055565b600581016140b261409560a08501613f2f565b82546001600160801b0319166001600160801b0391909116178255565b6112716140c160c08501613f2f565b82546001600160801b031660809190911b6001600160801b031916178255565b602080825260149082015273125b9d985b1a59081c1c9a58d948185b5bdd5b9d60621b604082015260600190565b80820180821115610ebe57610ebe613cba565b81516001600160401b0381111561413b5761413b61397e565b61414f816141498454613d2f565b84613e0d565b602080601f83116001811461417d575f841561416b5750858301515b6141758582613e5a565b865550613e52565b5f85815260208120601f198616915b828110156141ab5788860151825594840194600190910190840161418c565b50858210156141c857878501515f19600388901b60f8161c191681555b5050505050600190811b01905550565b5f845160206141ea8285838a016136c6565b8551918401916141fd8184848a016136c6565b85549201915f9061420d81613d2f565b60018281168015614225576001811461423a57614263565b60ff1984168752821515830287019450614263565b895f52855f205f5b8481101561425b57815489820152908301908701614242565b505082870194505b50929a9950505050505050505050565b634e487b7160e01b5f52603260045260245ffd5b5f8161429557614295613cba565b505f190190565b803564ffffffffff81168114612ab8575f80fd5b5f6101a082840312156142c1575f80fd5b6142c9613992565b6142d283613b0b565b81526142e06020840161394f565b60208201526142f16040840161394f565b60408201526143026060840161394f565b6060820152614313608084016137f7565b608082015261432460a084016137f7565b60a082015261433560c0840161429c565b60c082015261434660e0840161429c565b60e082015261010061435981850161429c565b9082015261012061436b84820161429c565b9082015261014061437d84820161429c565b9082015261016061438f84820161429c565b908201526101806143a18482016137f7565b908201529392505050565b61ffff8181168382160190808211156143c7576143c7613cba565b5092915050565b64ffffffffff8181168382160280821691908281146143ef576143ef613cba565b505092915050565b6001600160a01b03858116825284166020820152604081018390526080606082018190525f90614429908301846136e8565b9695505050505050565b5f60208284031215614443575f80fd5b815161271d81613696565b7f416363657373436f6e74726f6c3a206163636f756e742000000000000000000081525f83516144858160178501602088016136c6565b7001034b99036b4b9b9b4b733903937b6329607d1b60179184019182015283516144b68160288401602088016136c6565b01602801949350505050565b64ffffffffff8281168282160390808211156143c7576143c7613cba56fecb7e89b7eed8294d41c0215e2f4fe023e2166afcfa3d1f479c394274afe5f019dd970dd9b5bfe707922155b058a407655cb18288b807e2216442bca8ad83d6b597667070c54ef182b0f5858b034beac1b6f3089aa2d3188bb1e8929f4fa9b929a49807205ce4d355092ef5a8a18f56e8913cf4a201fbe287825b095693c217759eb10b7eab35fabb5491c526a3cf39c3bb7ce2ee5d483e1558635d2c96c2085ca2646970667358221220c690f5b5206421e3ac1696e3891c9c09a06d32491bba1484dd8c6c28119944c264736f6c63430008140033",
  "linkReferences": {},
  "deployedLinkReferences": {}
}