{
  "_format": "hh-sol-artifact-1",
  "contractName": "MvxCollection",
  "sourceName": "src/MvxCollection.sol",
  "abi": [
    {
      "inputs": [],
      "name": "ApprovalCallerNotOwnerNorApproved",
      "type": "error"
    },
    {
      "inputs": [],
      "name": "ApprovalQueryForNonexistentToken",
      "type": "error"
    },
    {
      "inputs": [],
      "name": "BalanceQueryForZeroAddress",
      "type": "error"
    },
    {
      "inputs": [],
      "name": "FixedMaxSupply",
      "type": "error"
    },
    {
      "inputs": [],
      "name": "MintERC2309QuantityExceedsLimit",
      "type": "error"
    },
    {
      "inputs": [
        {
          "internalType": "string",
          "name": "",
          "type": "string"
        },
        {
          "internalType": "uint8",
          "name": "",
          "type": "uint8"
        }
      ],
      "name": "MintError",
      "type": "error"
    },
    {
      "inputs": [
        {
          "internalType": "uint8",
          "name": "",
          "type": "uint8"
        }
      ],
      "name": "MintForOwnerError",
      "type": "error"
    },
    {
      "inputs": [],
      "name": "MintToZeroAddress",
      "type": "error"
    },
    {
      "inputs": [],
      "name": "MintZeroQuantity",
      "type": "error"
    },
    {
      "inputs": [],
      "name": "OwnerQueryForNonexistentToken",
      "type": "error"
    },
    {
      "inputs": [],
      "name": "OwnershipNotInitializedForExtraData",
      "type": "error"
    },
    {
      "inputs": [],
      "name": "TokenNotExistsError",
      "type": "error"
    },
    {
      "inputs": [],
      "name": "TransferCallerNotOwnerNorApproved",
      "type": "error"
    },
    {
      "inputs": [],
      "name": "TransferFromIncorrectOwner",
      "type": "error"
    },
    {
      "inputs": [],
      "name": "TransferToNonERC721ReceiverImplementer",
      "type": "error"
    },
    {
      "inputs": [],
      "name": "TransferToZeroAddress",
      "type": "error"
    },
    {
      "inputs": [],
      "name": "URIQueryForNonexistentToken",
      "type": "error"
    },
    {
      "inputs": [
        {
          "internalType": "uint8",
          "name": "isPlaformCall",
          "type": "uint8"
        }
      ],
      "name": "WithdrawError",
      "type": "error"
    },
    {
      "anonymous": false,
      "inputs": [
        {
          "indexed": true,
          "internalType": "address",
          "name": "owner",
          "type": "address"
        },
        {
          "indexed": true,
          "internalType": "address",
          "name": "approved",
          "type": "address"
        },
        {
          "indexed": true,
          "internalType": "uint256",
          "name": "tokenId",
          "type": "uint256"
        }
      ],
      "name": "Approval",
      "type": "event"
    },
    {
      "anonymous": false,
      "inputs": [
        {
          "indexed": true,
          "internalType": "address",
          "name": "owner",
          "type": "address"
        },
        {
          "indexed": true,
          "internalType": "address",
          "name": "operator",
          "type": "address"
        },
        {
          "indexed": false,
          "internalType": "bool",
          "name": "approved",
          "type": "bool"
        }
      ],
      "name": "ApprovalForAll",
      "type": "event"
    },
    {
      "anonymous": false,
      "inputs": [
        {
          "indexed": true,
          "internalType": "address",
          "name": "sender",
          "type": "address"
        },
        {
          "indexed": false,
          "internalType": "uint256",
          "name": "tokenId",
          "type": "uint256"
        }
      ],
      "name": "BurnEvent",
      "type": "event"
    },
    {
      "anonymous": false,
      "inputs": [
        {
          "indexed": true,
          "internalType": "uint256",
          "name": "fromTokenId",
          "type": "uint256"
        },
        {
          "indexed": false,
          "internalType": "uint256",
          "name": "toTokenId",
          "type": "uint256"
        },
        {
          "indexed": true,
          "internalType": "address",
          "name": "from",
          "type": "address"
        },
        {
          "indexed": true,
          "internalType": "address",
          "name": "to",
          "type": "address"
        }
      ],
      "name": "ConsecutiveTransfer",
      "type": "event"
    },
    {
      "anonymous": false,
      "inputs": [
        {
          "indexed": false,
          "internalType": "string",
          "name": "",
          "type": "string"
        },
        {
          "indexed": false,
          "internalType": "uint256",
          "name": "",
          "type": "uint256"
        }
      ],
      "name": "Log",
      "type": "event"
    },
    {
      "anonymous": false,
      "inputs": [
        {
          "indexed": false,
          "internalType": "string",
          "name": "",
          "type": "string"
        },
        {
          "indexed": false,
          "internalType": "address",
          "name": "",
          "type": "address"
        }
      ],
      "name": "Log",
      "type": "event"
    },
    {
      "anonymous": false,
      "inputs": [
        {
          "indexed": true,
          "internalType": "address",
          "name": "sender",
          "type": "address"
        },
        {
          "indexed": false,
          "internalType": "uint256",
          "name": "value",
          "type": "uint256"
        },
        {
          "indexed": false,
          "internalType": "address",
          "name": "to",
          "type": "address"
        },
        {
          "indexed": false,
          "internalType": "uint256",
          "name": "amount",
          "type": "uint256"
        },
        {
          "indexed": false,
          "internalType": "uint256",
          "name": "mintPrice",
          "type": "uint256"
        }
      ],
      "name": "MintEvent",
      "type": "event"
    },
    {
      "anonymous": false,
      "inputs": [
        {
          "indexed": false,
          "internalType": "uint256",
          "name": "",
          "type": "uint256"
        }
      ],
      "name": "NewMaxSupply",
      "type": "event"
    },
    {
      "anonymous": false,
      "inputs": [
        {
          "indexed": true,
          "internalType": "address",
          "name": "sender",
          "type": "address"
        },
        {
          "indexed": false,
          "internalType": "uint256",
          "name": "value",
          "type": "uint256"
        },
        {
          "indexed": false,
          "internalType": "address",
          "name": "to",
          "type": "address"
        },
        {
          "indexed": false,
          "internalType": "uint256",
          "name": "amount",
          "type": "uint256"
        },
        {
          "indexed": false,
          "internalType": "uint256",
          "name": "_ogMintPrice",
          "type": "uint256"
        }
      ],
      "name": "OGmintEvent",
      "type": "event"
    },
    {
      "anonymous": false,
      "inputs": [
        {
          "indexed": true,
          "internalType": "address",
          "name": "sender",
          "type": "address"
        },
        {
          "indexed": false,
          "internalType": "address",
          "name": "to",
          "type": "address"
        },
        {
          "indexed": false,
          "internalType": "uint256",
          "name": "amount",
          "type": "uint256"
        }
      ],
      "name": "OwnerMintEvent",
      "type": "event"
    },
    {
      "anonymous": false,
      "inputs": [
        {
          "indexed": true,
          "internalType": "bytes32",
          "name": "role",
          "type": "bytes32"
        },
        {
          "indexed": true,
          "internalType": "bytes32",
          "name": "previousAdminRole",
          "type": "bytes32"
        },
        {
          "indexed": true,
          "internalType": "bytes32",
          "name": "newAdminRole",
          "type": "bytes32"
        }
      ],
      "name": "RoleAdminChanged",
      "type": "event"
    },
    {
      "anonymous": false,
      "inputs": [
        {
          "indexed": true,
          "internalType": "bytes32",
          "name": "role",
          "type": "bytes32"
        },
        {
          "indexed": true,
          "internalType": "address",
          "name": "account",
          "type": "address"
        },
        {
          "indexed": true,
          "internalType": "address",
          "name": "sender",
          "type": "address"
        }
      ],
      "name": "RoleGranted",
      "type": "event"
    },
    {
      "anonymous": false,
      "inputs": [
        {
          "indexed": true,
          "internalType": "bytes32",
          "name": "role",
          "type": "bytes32"
        },
        {
          "indexed": true,
          "internalType": "address",
          "name": "account",
          "type": "address"
        },
        {
          "indexed": true,
          "internalType": "address",
          "name": "sender",
          "type": "address"
        }
      ],
      "name": "RoleRevoked",
      "type": "event"
    },
    {
      "anonymous": false,
      "inputs": [
        {
          "indexed": true,
          "internalType": "address",
          "name": "sender",
          "type": "address"
        },
        {
          "indexed": false,
          "internalType": "address",
          "name": "receiver",
          "type": "address"
        },
        {
          "indexed": false,
          "internalType": "uint96",
          "name": "royaltyFee",
          "type": "uint96"
        }
      ],
      "name": "RoyaltyFeeUpdate",
      "type": "event"
    },
    {
      "anonymous": false,
      "inputs": [
        {
          "indexed": true,
          "internalType": "address",
          "name": "from",
          "type": "address"
        },
        {
          "indexed": true,
          "internalType": "address",
          "name": "to",
          "type": "address"
        },
        {
          "indexed": true,
          "internalType": "uint256",
          "name": "tokenId",
          "type": "uint256"
        }
      ],
      "name": "Transfer",
      "type": "event"
    },
    {
      "anonymous": false,
      "inputs": [
        {
          "indexed": true,
          "internalType": "address",
          "name": "sender",
          "type": "address"
        },
        {
          "indexed": false,
          "internalType": "uint256",
          "name": "listLength",
          "type": "uint256"
        }
      ],
      "name": "UpdateOgEvent",
      "type": "event"
    },
    {
      "anonymous": false,
      "inputs": [
        {
          "indexed": true,
          "internalType": "address",
          "name": "sender",
          "type": "address"
        },
        {
          "indexed": false,
          "internalType": "uint256",
          "name": "listLength",
          "type": "uint256"
        }
      ],
      "name": "UpdateWLevent",
      "type": "event"
    },
    {
      "anonymous": false,
      "inputs": [
        {
          "indexed": true,
          "internalType": "address",
          "name": "sender",
          "type": "address"
        },
        {
          "indexed": false,
          "internalType": "uint256",
          "name": "value",
          "type": "uint256"
        },
        {
          "indexed": false,
          "internalType": "address",
          "name": "to",
          "type": "address"
        },
        {
          "indexed": false,
          "internalType": "uint256",
          "name": "amount",
          "type": "uint256"
        },
        {
          "indexed": false,
          "internalType": "uint256",
          "name": "wlMintPrice",
          "type": "uint256"
        }
      ],
      "name": "WLmintEvent",
      "type": "event"
    },
    {
      "anonymous": false,
      "inputs": [
        {
          "indexed": false,
          "internalType": "address",
          "name": "sender",
          "type": "address"
        },
        {
          "indexed": false,
          "internalType": "uint256",
          "name": "balance",
          "type": "uint256"
        },
        {
          "indexed": false,
          "internalType": "address",
          "name": "feeReceiver",
          "type": "address"
        },
        {
          "indexed": false,
          "internalType": "uint256",
          "name": "fee",
          "type": "uint256"
        }
      ],
      "name": "WithdrawEvent",
      "type": "event"
    },
    {
      "inputs": [],
      "name": "ADMIN_ROLE",
      "outputs": [
        {
          "internalType": "bytes32",
          "name": "",
          "type": "bytes32"
        }
      ],
      "stateMutability": "view",
      "type": "function"
    },
    {
      "inputs": [],
      "name": "DEFAULT_ADMIN_ROLE",
      "outputs": [
        {
          "internalType": "bytes32",
          "name": "",
          "type": "bytes32"
        }
      ],
      "stateMutability": "view",
      "type": "function"
    },
    {
      "inputs": [],
      "name": "OG_MINTER_ROLE",
      "outputs": [
        {
          "internalType": "bytes32",
          "name": "",
          "type": "bytes32"
        }
      ],
      "stateMutability": "view",
      "type": "function"
    },
    {
      "inputs": [],
      "name": "OPERATOR_ROLE",
      "outputs": [
        {
          "internalType": "bytes32",
          "name": "",
          "type": "bytes32"
        }
      ],
      "stateMutability": "view",
      "type": "function"
    },
    {
      "inputs": [],
      "name": "WL_MINTER_ROLE",
      "outputs": [
        {
          "internalType": "bytes32",
          "name": "",
          "type": "bytes32"
        }
      ],
      "stateMutability": "view",
      "type": "function"
    },
    {
      "inputs": [
        {
          "internalType": "address",
          "name": "to",
          "type": "address"
        },
        {
          "internalType": "uint256",
          "name": "tokenId",
          "type": "uint256"
        }
      ],
      "name": "approve",
      "outputs": [],
      "stateMutability": "payable",
      "type": "function"
    },
    {
      "inputs": [
        {
          "internalType": "address",
          "name": "owner",
          "type": "address"
        }
      ],
      "name": "balanceOf",
      "outputs": [
        {
          "internalType": "uint256",
          "name": "",
          "type": "uint256"
        }
      ],
      "stateMutability": "view",
      "type": "function"
    },
    {
      "inputs": [],
      "name": "baseURI",
      "outputs": [
        {
          "internalType": "string",
          "name": "",
          "type": "string"
        }
      ],
      "stateMutability": "view",
      "type": "function"
    },
    {
      "inputs": [
        {
          "internalType": "uint256",
          "name": "_tokenId",
          "type": "uint256"
        }
      ],
      "name": "burn",
      "outputs": [],
      "stateMutability": "nonpayable",
      "type": "function"
    },
    {
      "inputs": [],
      "name": "collectionData",
      "outputs": [
        {
          "internalType": "string",
          "name": "name",
          "type": "string"
        },
        {
          "internalType": "string",
          "name": "symbol",
          "type": "string"
        },
        {
          "internalType": "string",
          "name": "baseURI",
          "type": "string"
        },
        {
          "internalType": "string",
          "name": "baseExt",
          "type": "string"
        },
        {
          "internalType": "uint256",
          "name": "maxSupply",
          "type": "uint256"
        },
        {
          "internalType": "uint96",
          "name": "royaltyFee",
          "type": "uint96"
        },
        {
          "internalType": "address",
          "name": "royaltyReceiver",
          "type": "address"
        },
        {
          "internalType": "bool",
          "name": "isMaxSupplyUpdatable",
          "type": "bool"
        }
      ],
      "stateMutability": "view",
      "type": "function"
    },
    {
      "inputs": [
        {
          "internalType": "uint256",
          "name": "tokenId",
          "type": "uint256"
        }
      ],
      "name": "getApproved",
      "outputs": [
        {
          "internalType": "address",
          "name": "",
          "type": "address"
        }
      ],
      "stateMutability": "view",
      "type": "function"
    },
    {
      "inputs": [
        {
          "internalType": "string",
          "name": "mintType",
          "type": "string"
        },
        {
          "internalType": "address",
          "name": "_user",
          "type": "address"
        }
      ],
      "name": "getMintCountOf",
      "outputs": [
        {
          "internalType": "uint256",
          "name": "",
          "type": "uint256"
        }
      ],
      "stateMutability": "view",
      "type": "function"
    },
    {
      "inputs": [
        {
          "internalType": "bytes32",
          "name": "role",
          "type": "bytes32"
        }
      ],
      "name": "getRoleAdmin",
      "outputs": [
        {
          "internalType": "bytes32",
          "name": "",
          "type": "bytes32"
        }
      ],
      "stateMutability": "view",
      "type": "function"
    },
    {
      "inputs": [
        {
          "internalType": "bytes32",
          "name": "role",
          "type": "bytes32"
        },
        {
          "internalType": "address",
          "name": "account",
          "type": "address"
        }
      ],
      "name": "grantRole",
      "outputs": [],
      "stateMutability": "nonpayable",
      "type": "function"
    },
    {
      "inputs": [
        {
          "internalType": "bytes32",
          "name": "role",
          "type": "bytes32"
        },
        {
          "internalType": "address",
          "name": "account",
          "type": "address"
        }
      ],
      "name": "hasRole",
      "outputs": [
        {
          "internalType": "bool",
          "name": "",
          "type": "bool"
        }
      ],
      "stateMutability": "view",
      "type": "function"
    },
    {
      "inputs": [],
      "name": "initalized",
      "outputs": [
        {
          "internalType": "bool",
          "name": "",
          "type": "bool"
        }
      ],
      "stateMutability": "view",
      "type": "function"
    },
    {
      "inputs": [
        {
          "internalType": "uint256",
          "name": "_platformFee",
          "type": "uint256"
        },
        {
          "components": [
            {
              "internalType": "string",
              "name": "name",
              "type": "string"
            },
            {
              "internalType": "string",
              "name": "symbol",
              "type": "string"
            },
            {
              "internalType": "string",
              "name": "baseURI",
              "type": "string"
            },
            {
              "internalType": "string",
              "name": "baseExt",
              "type": "string"
            },
            {
              "internalType": "uint256",
              "name": "maxSupply",
              "type": "uint256"
            },
            {
              "internalType": "uint96",
              "name": "royaltyFee",
              "type": "uint96"
            },
            {
              "internalType": "address",
              "name": "royaltyReceiver",
              "type": "address"
            },
            {
              "internalType": "bool",
              "name": "isMaxSupplyUpdatable",
              "type": "bool"
            }
          ],
          "internalType": "struct Collection",
          "name": "_nftData",
          "type": "tuple"
        },
        {
          "components": [
            {
              "internalType": "uint256",
              "name": "ogMintPrice",
              "type": "uint256"
            },
            {
              "internalType": "uint256",
              "name": "whitelistMintPrice",
              "type": "uint256"
            },
            {
              "internalType": "uint256",
              "name": "mintPrice",
              "type": "uint256"
            },
            {
              "internalType": "uint256",
              "name": "mintMaxPerUser",
              "type": "uint256"
            },
            {
              "internalType": "uint256",
              "name": "ogMintMaxPerUser",
              "type": "uint256"
            },
            {
              "internalType": "uint256",
              "name": "whitelistMintMaxPerUser",
              "type": "uint256"
            },
            {
              "internalType": "uint256",
              "name": "mintStart",
              "type": "uint256"
            },
            {
              "internalType": "uint256",
              "name": "mintEnd",
              "type": "uint256"
            },
            {
              "internalType": "uint256",
              "name": "ogMintStart",
              "type": "uint256"
            },
            {
              "internalType": "uint256",
              "name": "ogMintEnd",
              "type": "uint256"
            },
            {
              "internalType": "uint256",
              "name": "whitelistMintStart",
              "type": "uint256"
            },
            {
              "internalType": "uint256",
              "name": "whitelistMintEnd",
              "type": "uint256"
            }
          ],
          "internalType": "struct Stages",
          "name": "_mintingStages",
          "type": "tuple"
        },
        {
          "internalType": "address[]",
          "name": "_ogs",
          "type": "address[]"
        },
        {
          "internalType": "address[]",
          "name": "_wls",
          "type": "address[]"
        }
      ],
      "name": "initialize",
      "outputs": [],
      "stateMutability": "nonpayable",
      "type": "function"
    },
    {
      "inputs": [
        {
          "internalType": "address",
          "name": "owner",
          "type": "address"
        },
        {
          "internalType": "address",
          "name": "operator",
          "type": "address"
        }
      ],
      "name": "isApprovedForAll",
      "outputs": [
        {
          "internalType": "bool",
          "name": "",
          "type": "bool"
        }
      ],
      "stateMutability": "view",
      "type": "function"
    },
    {
      "inputs": [
        {
          "internalType": "address",
          "name": "_to",
          "type": "address"
        },
        {
          "internalType": "uint256",
          "name": "_amount",
          "type": "uint256"
        }
      ],
      "name": "mintForOG",
      "outputs": [],
      "stateMutability": "payable",
      "type": "function"
    },
    {
      "inputs": [
        {
          "internalType": "address",
          "name": "_to",
          "type": "address"
        },
        {
          "internalType": "uint256",
          "name": "_amount",
          "type": "uint256"
        }
      ],
      "name": "mintForOwner",
      "outputs": [],
      "stateMutability": "payable",
      "type": "function"
    },
    {
      "inputs": [
        {
          "internalType": "address",
          "name": "_to",
          "type": "address"
        },
        {
          "internalType": "uint256",
          "name": "_amount",
          "type": "uint256"
        }
      ],
      "name": "mintForRegular",
      "outputs": [],
      "stateMutability": "payable",
      "type": "function"
    },
    {
      "inputs": [
        {
          "internalType": "address",
          "name": "_to",
          "type": "address"
        },
        {
          "internalType": "uint256",
          "name": "_amount",
          "type": "uint256"
        }
      ],
      "name": "mintForWhitelist",
      "outputs": [],
      "stateMutability": "payable",
      "type": "function"
    },
    {
      "inputs": [],
      "name": "mintingStages",
      "outputs": [
        {
          "internalType": "uint256",
          "name": "ogMintPrice",
          "type": "uint256"
        },
        {
          "internalType": "uint256",
          "name": "whitelistMintPrice",
          "type": "uint256"
        },
        {
          "internalType": "uint256",
          "name": "mintPrice",
          "type": "uint256"
        },
        {
          "internalType": "uint256",
          "name": "mintMaxPerUser",
          "type": "uint256"
        },
        {
          "internalType": "uint256",
          "name": "ogMintMaxPerUser",
          "type": "uint256"
        },
        {
          "internalType": "uint256",
          "name": "whitelistMintMaxPerUser",
          "type": "uint256"
        },
        {
          "internalType": "uint256",
          "name": "mintStart",
          "type": "uint256"
        },
        {
          "internalType": "uint256",
          "name": "mintEnd",
          "type": "uint256"
        },
        {
          "internalType": "uint256",
          "name": "ogMintStart",
          "type": "uint256"
        },
        {
          "internalType": "uint256",
          "name": "ogMintEnd",
          "type": "uint256"
        },
        {
          "internalType": "uint256",
          "name": "whitelistMintStart",
          "type": "uint256"
        },
        {
          "internalType": "uint256",
          "name": "whitelistMintEnd",
          "type": "uint256"
        }
      ],
      "stateMutability": "view",
      "type": "function"
    },
    {
      "inputs": [
        {
          "internalType": "address",
          "name": "",
          "type": "address"
        },
        {
          "internalType": "string",
          "name": "",
          "type": "string"
        }
      ],
      "name": "mintsPerWallet",
      "outputs": [
        {
          "internalType": "uint256",
          "name": "",
          "type": "uint256"
        }
      ],
      "stateMutability": "view",
      "type": "function"
    },
    {
      "inputs": [],
      "name": "name",
      "outputs": [
        {
          "internalType": "string",
          "name": "",
          "type": "string"
        }
      ],
      "stateMutability": "view",
      "type": "function"
    },
    {
      "inputs": [
        {
          "internalType": "uint256",
          "name": "tokenId",
          "type": "uint256"
        }
      ],
      "name": "ownerOf",
      "outputs": [
        {
          "internalType": "address",
          "name": "",
          "type": "address"
        }
      ],
      "stateMutability": "view",
      "type": "function"
    },
    {
      "inputs": [],
      "name": "platformFee",
      "outputs": [
        {
          "internalType": "uint256",
          "name": "",
          "type": "uint256"
        }
      ],
      "stateMutability": "view",
      "type": "function"
    },
    {
      "inputs": [],
      "name": "platformFeeReceiver",
      "outputs": [
        {
          "internalType": "address",
          "name": "",
          "type": "address"
        }
      ],
      "stateMutability": "view",
      "type": "function"
    },
    {
      "inputs": [
        {
          "internalType": "bytes32",
          "name": "role",
          "type": "bytes32"
        },
        {
          "internalType": "address",
          "name": "account",
          "type": "address"
        }
      ],
      "name": "renounceRole",
      "outputs": [],
      "stateMutability": "nonpayable",
      "type": "function"
    },
    {
      "inputs": [
        {
          "internalType": "bytes32",
          "name": "role",
          "type": "bytes32"
        },
        {
          "internalType": "address",
          "name": "account",
          "type": "address"
        }
      ],
      "name": "revokeRole",
      "outputs": [],
      "stateMutability": "nonpayable",
      "type": "function"
    },
    {
      "inputs": [
        {
          "internalType": "uint256",
          "name": "tokenId",
          "type": "uint256"
        },
        {
          "internalType": "uint256",
          "name": "_salePrice",
          "type": "uint256"
        }
      ],
      "name": "royaltyInfo",
      "outputs": [
        {
          "internalType": "address",
          "name": "",
          "type": "address"
        },
        {
          "internalType": "uint256",
          "name": "",
          "type": "uint256"
        }
      ],
      "stateMutability": "view",
      "type": "function"
    },
    {
      "inputs": [
        {
          "internalType": "address",
          "name": "from",
          "type": "address"
        },
        {
          "internalType": "address",
          "name": "to",
          "type": "address"
        },
        {
          "internalType": "uint256",
          "name": "tokenId",
          "type": "uint256"
        }
      ],
      "name": "safeTransferFrom",
      "outputs": [],
      "stateMutability": "payable",
      "type": "function"
    },
    {
      "inputs": [
        {
          "internalType": "address",
          "name": "from",
          "type": "address"
        },
        {
          "internalType": "address",
          "name": "to",
          "type": "address"
        },
        {
          "internalType": "uint256",
          "name": "tokenId",
          "type": "uint256"
        },
        {
          "internalType": "bytes",
          "name": "_data",
          "type": "bytes"
        }
      ],
      "name": "safeTransferFrom",
      "outputs": [],
      "stateMutability": "payable",
      "type": "function"
    },
    {
      "inputs": [
        {
          "internalType": "address",
          "name": "operator",
          "type": "address"
        },
        {
          "internalType": "bool",
          "name": "approved",
          "type": "bool"
        }
      ],
      "name": "setApprovalForAll",
      "outputs": [],
      "stateMutability": "nonpayable",
      "type": "function"
    },
    {
      "inputs": [
        {
          "internalType": "string",
          "name": "_newBaseExtension",
          "type": "string"
        }
      ],
      "name": "setBaseExtension",
      "outputs": [],
      "stateMutability": "nonpayable",
      "type": "function"
    },
    {
      "inputs": [
        {
          "internalType": "string",
          "name": "_newBaseURI",
          "type": "string"
        }
      ],
      "name": "setBaseURI",
      "outputs": [],
      "stateMutability": "nonpayable",
      "type": "function"
    },
    {
      "inputs": [
        {
          "internalType": "bytes4",
          "name": "_interfaceId",
          "type": "bytes4"
        }
      ],
      "name": "supportsInterface",
      "outputs": [
        {
          "internalType": "bool",
          "name": "",
          "type": "bool"
        }
      ],
      "stateMutability": "view",
      "type": "function"
    },
    {
      "inputs": [],
      "name": "symbol",
      "outputs": [
        {
          "internalType": "string",
          "name": "",
          "type": "string"
        }
      ],
      "stateMutability": "view",
      "type": "function"
    },
    {
      "inputs": [
        {
          "internalType": "uint256",
          "name": "_tokenId",
          "type": "uint256"
        }
      ],
      "name": "tokenURI",
      "outputs": [
        {
          "internalType": "string",
          "name": "",
          "type": "string"
        }
      ],
      "stateMutability": "view",
      "type": "function"
    },
    {
      "inputs": [],
      "name": "totalSupply",
      "outputs": [
        {
          "internalType": "uint256",
          "name": "",
          "type": "uint256"
        }
      ],
      "stateMutability": "view",
      "type": "function"
    },
    {
      "inputs": [
        {
          "internalType": "address",
          "name": "from",
          "type": "address"
        },
        {
          "internalType": "address",
          "name": "to",
          "type": "address"
        },
        {
          "internalType": "uint256",
          "name": "tokenId",
          "type": "uint256"
        }
      ],
      "name": "transferFrom",
      "outputs": [],
      "stateMutability": "payable",
      "type": "function"
    },
    {
      "inputs": [
        {
          "internalType": "uint256",
          "name": "_newMax",
          "type": "uint256"
        }
      ],
      "name": "updateMaxSupply",
      "outputs": [],
      "stateMutability": "nonpayable",
      "type": "function"
    },
    {
      "inputs": [
        {
          "internalType": "uint256",
          "name": "_mintMax",
          "type": "uint256"
        }
      ],
      "name": "updateMintMax",
      "outputs": [],
      "stateMutability": "nonpayable",
      "type": "function"
    },
    {
      "inputs": [
        {
          "internalType": "uint256",
          "name": "_mintPrice",
          "type": "uint256"
        }
      ],
      "name": "updateMintPrice",
      "outputs": [],
      "stateMutability": "nonpayable",
      "type": "function"
    },
    {
      "inputs": [
        {
          "internalType": "address[]",
          "name": "_minterList",
          "type": "address[]"
        },
        {
          "internalType": "uint8",
          "name": "_mintRole",
          "type": "uint8"
        }
      ],
      "name": "updateMinterRoles",
      "outputs": [],
      "stateMutability": "nonpayable",
      "type": "function"
    },
    {
      "inputs": [
        {
          "internalType": "uint256",
          "name": "_ogMintMax",
          "type": "uint256"
        }
      ],
      "name": "updateOGMintMax",
      "outputs": [],
      "stateMutability": "nonpayable",
      "type": "function"
    },
    {
      "inputs": [
        {
          "internalType": "uint256",
          "name": "_price",
          "type": "uint256"
        }
      ],
      "name": "updateOGMintPrice",
      "outputs": [],
      "stateMutability": "nonpayable",
      "type": "function"
    },
    {
      "inputs": [
        {
          "internalType": "address",
          "name": "_receiver",
          "type": "address"
        },
        {
          "internalType": "uint96",
          "name": "_royaltyFee",
          "type": "uint96"
        }
      ],
      "name": "updateRoyaltyInfo",
      "outputs": [],
      "stateMutability": "nonpayable",
      "type": "function"
    },
    {
      "inputs": [
        {
          "internalType": "uint256",
          "name": "_start",
          "type": "uint256"
        },
        {
          "internalType": "uint256",
          "name": "_end",
          "type": "uint256"
        }
      ],
      "name": "updateTime",
      "outputs": [],
      "stateMutability": "nonpayable",
      "type": "function"
    },
    {
      "inputs": [
        {
          "internalType": "uint256",
          "name": "_whitelistMintMax",
          "type": "uint256"
        }
      ],
      "name": "updateWLMintMax",
      "outputs": [],
      "stateMutability": "nonpayable",
      "type": "function"
    },
    {
      "inputs": [
        {
          "internalType": "uint256",
          "name": "_whitelistMintPrice",
          "type": "uint256"
        }
      ],
      "name": "updateWhitelistMintPrice",
      "outputs": [],
      "stateMutability": "nonpayable",
      "type": "function"
    },
    {
      "inputs": [],
      "name": "version",
      "outputs": [
        {
          "internalType": "uint8",
          "name": "_version",
          "type": "uint8"
        }
      ],
      "stateMutability": "pure",
      "type": "function"
    },
    {
      "inputs": [],
      "name": "withdraw",
      "outputs": [],
      "stateMutability": "payable",
      "type": "function"
    }
  ],
  "bytecode": "0x6080604052601f805460ff19169055348015610019575f80fd5b50614fee806100275f395ff3fe608060405260043610610339575f3560e01c806360ff870e116101b2578063a217fddf116100f2578063d547741f11610092578063eb980abf1161006d578063eb980abf14610a7c578063f103b43314610a9b578063f2cca28f14610aba578063f5b541a614610ad9575f80fd5b8063d547741f146109ea578063da3ef23f14610a09578063e985e9c514610a28575f80fd5b8063b0338f2e116100cd578063b0338f2e14610966578063b88d4fde14610999578063c87b56dd146109ac578063d05ec0a8146109cb575f80fd5b8063a217fddf14610921578063a22cb46514610934578063a8c3182b14610953575f80fd5b80637ab06c121161015d57806391d148541161013857806391d148541461087757806393890851146108c657806395d89b41146108e55780639c89a7b3146108f9575f80fd5b80637ab06c12146108265780638577c1fa14610839578063912fb69014610858575f80fd5b806370a082311161018d57806370a08231146107b557806375b238fc146107d45780637a3bc32f14610807575f80fd5b806360ff870e146107635780636352211e146107825780636c0360eb146107a1575f80fd5b806326232a2e1161027d578063411c44421161022857806353b859df1161020357806353b859df146106fd57806354fd4d501461071057806355f804b31461072b5780635be1a0911461074a575f80fd5b8063411c4442146106ac57806342842e0e146106cb57806342966c68146106de575f80fd5b80632f2ff15d116102585780632f2ff15d1461066657806336568abe146106855780633ccfd60b146106a4575f80fd5b806326232a2e146105da5780632a55205a146105ef5780632d656ad71461063a575f80fd5b8063172cf75f116102e8578063207a2090116102c3578063207a20901461053357806321f1b6771461057a57806323b872dd14610599578063248a9ca3146105ac575f80fd5b8063172cf75f1461041d57806318160ddd1461045e5780631a8f419314610498575f80fd5b806306fdde031161031857806306fdde03146103a5578063081812fc146103c6578063095ea7b31461040a575f80fd5b8062728e461461033d5780630167f3c51461035e57806301ffc9a714610371575b5f80fd5b348015610348575f80fd5b5061035c610357366004614029565b610b0c565b005b61035c61036c366004614061565b610c4e565b34801561037c575f80fd5b5061039061038b3660046140b8565b610d77565b60405190151581526020015b60405180910390f35b3480156103b0575f80fd5b506103b9610e1e565b60405161039c919061413e565b3480156103d1575f80fd5b506103e56103e0366004614029565b610eae565b60405173ffffffffffffffffffffffffffffffffffffffff909116815260200161039c565b61035c610418366004614061565b610f0d565b348015610428575f80fd5b506104507f9eb10b7eab35fabb5491c526a3cf39c3bb7ce2ee5d483e1558635d2c96c2085c81565b60405190815260200161039c565b348015610469575f80fd5b50600254600154037fffffffffffffffffffffffffffffffffffffffffffffffffffffffffffffffff01610450565b3480156104a3575f80fd5b50600a54600b54600c54600d54600e54600f546010546011546012546013546014546015546104da9b9a999897969594939291908c565b604080519c8d5260208d019b909b52998b019890985260608a0196909652608089019490945260a088019290925260c087015260e08601526101008501526101208401526101408301526101608201526101800161039c565b34801561053e575f80fd5b5061045061054d36600461422c565b600960209081525f9283526040909220815180830184018051928152908401929093019190912091525481565b348015610585575f80fd5b5061035c610594366004614279565b610f1d565b61035c6105a7366004614299565b611060565b3480156105b7575f80fd5b506104506105c6366004614029565b5f9081526020819052604090206001015490565b3480156105e5575f80fd5b50610450601e5481565b3480156105fa575f80fd5b5061060e610609366004614279565b611296565b6040805173ffffffffffffffffffffffffffffffffffffffff909316835260208301919091520161039c565b348015610645575f80fd5b50601d546103e59073ffffffffffffffffffffffffffffffffffffffff1681565b348015610671575f80fd5b5061035c6106803660046142d7565b6112f6565b348015610690575f80fd5b5061035c61069f3660046142d7565b61131f565b61035c6113ce565b3480156106b7575f80fd5b5061035c6106c636600461431e565b6116e8565b61035c6106d9366004614299565b611780565b3480156106e9575f80fd5b5061035c6106f8366004614029565b61179a565b61035c61070b366004614061565b611862565b34801561071b575f80fd5b506040516002815260200161039c565b348015610736575f80fd5b5061035c61074536600461434a565b611a04565b348015610755575f80fd5b50601f546103909060ff1681565b34801561076e575f80fd5b5061035c61077d3660046143bd565b611a10565b34801561078d575f80fd5b506103e561079c366004614029565b611de6565b3480156107ac575f80fd5b506103b9611df0565b3480156107c0575f80fd5b506104506107cf36600461449d565b611dff565b3480156107df575f80fd5b506104507fa49807205ce4d355092ef5a8a18f56e8913cf4a201fbe287825b095693c2177581565b348015610812575f80fd5b506104506108213660046144b8565b611e76565b61035c610834366004614061565b611ec2565b348015610844575f80fd5b5061035c610853366004614029565b611fb7565b348015610863575f80fd5b5061035c610872366004614029565b6120f4565b348015610882575f80fd5b506103906108913660046142d7565b5f9182526020828152604080842073ffffffffffffffffffffffffffffffffffffffff93909316845291905290205460ff1690565b3480156108d1575f80fd5b5061035c6108e0366004614029565b612231565b3480156108f0575f80fd5b506103b961236e565b348015610904575f80fd5b5061090d61237d565b60405161039c989796959493929190614534565b34801561092c575f80fd5b506104505f81565b34801561093f575f80fd5b5061035c61094e3660046145de565b6125fe565b61035c610961366004614061565b612694565b348015610971575f80fd5b506104507fcb7e89b7eed8294d41c0215e2f4fe023e2166afcfa3d1f479c394274afe5f01981565b61035c6109a736600461460a565b6127b3565b3480156109b7575f80fd5b506103b96109c6366004614029565b61281a565b3480156109d6575f80fd5b5061035c6109e5366004614029565b6128b7565b3480156109f5575f80fd5b5061035c610a043660046142d7565b6129f4565b348015610a14575f80fd5b5061035c610a2336600461434a565b612a18565b348015610a33575f80fd5b50610390610a42366004614685565b73ffffffffffffffffffffffffffffffffffffffff9182165f90815260086020908152604080832093909416825291909152205460ff1690565b348015610a87575f80fd5b5061035c610a96366004614029565b612a24565b348015610aa6575f80fd5b5061035c610ab5366004614029565b612b61565b348015610ac5575f80fd5b5061035c610ad43660046146b1565b612d00565b348015610ae4575f80fd5b506104507f97667070c54ef182b0f5858b034beac1b6f3089aa2d3188bb1e8929f4fa9b92981565b335f9081527f7d7ffb7a348e1c6a02869081a26547b49160dd3df72d1d75a570eb9b698292ec602052604090205460ff1680610b755750335f9081527fee57cd81e84075558e8fcc182a1f4393f91fc97f963a136e66b7f949a62f319f602052604090205460ff165b610be0576040517f08c379a000000000000000000000000000000000000000000000000000000000815260206004820152601660248201527f4f6e6c792041646d696e206f72204f70657261746f720000000000000000000060448201526064015b60405180910390fd5b5f8111610c49576040517f08c379a000000000000000000000000000000000000000000000000000000000815260206004820152601460248201527f496e76616c696420707269636520616d6f756e740000000000000000000000006044820152606401610bd7565b600c55565b7fcb7e89b7eed8294d41c0215e2f4fe023e2166afcfa3d1f479c394274afe5f019610c7881612fa1565b60408051808201909152600281527f4f470000000000000000000000000000000000000000000000000000000000006020820152600a54610cb9908461472b565b341015610cf657805f6040517f422e6598000000000000000000000000000000000000000000000000000000008152600401610bd7929190614742565b600e54601254601354610d0d928792879286612fae565b600a546040805134815273ffffffffffffffffffffffffffffffffffffffff87166020820152908101859052606081019190915233907f12868c3639cc6f45bf88ecdaf9a5a315a966c89339b502a13c32758761b81494906080015b60405180910390a250505050565b5f7fffffffff0000000000000000000000000000000000000000000000000000000082167fc21b8f28000000000000000000000000000000000000000000000000000000001480610e0957507fffffffff0000000000000000000000000000000000000000000000000000000082167f2a55205a00000000000000000000000000000000000000000000000000000000145b80610e185750610e188261315a565b92915050565b606060038054610e2d90614766565b80601f0160208091040260200160405190810160405280929190818152602001828054610e5990614766565b8015610ea45780601f10610e7b57610100808354040283529160200191610ea4565b820191905f5260205f20905b815481529060010190602001808311610e8757829003601f168201915b5050505050905090565b5f610eb88261323a565b610ee557610ee57fcf4700e40000000000000000000000000000000000000000000000000000000061329e565b505f9081526007602052604090205473ffffffffffffffffffffffffffffffffffffffff1690565b610f19828260016132a6565b5050565b335f9081527f7d7ffb7a348e1c6a02869081a26547b49160dd3df72d1d75a570eb9b698292ec602052604090205460ff1680610f865750335f9081527fee57cd81e84075558e8fcc182a1f4393f91fc97f963a136e66b7f949a62f319f602052604090205460ff165b610fec576040517f08c379a000000000000000000000000000000000000000000000000000000000815260206004820152601660248201527f4f6e6c792041646d696e206f72204f70657261746f72000000000000000000006044820152606401610bd7565b818111611055576040517f08c379a000000000000000000000000000000000000000000000000000000000815260206004820152600f60248201527f456e64206e6f74203e20737461727400000000000000000000000000000000006044820152606401610bd7565b601091909155601155565b5f61106a82613392565b73ffffffffffffffffffffffffffffffffffffffff94851694909150811684146110b7576110b77fa11481000000000000000000000000000000000000000000000000000000000061329e565b5f82815260076020526040902080546110ef8187335b73ffffffffffffffffffffffffffffffffffffffff9081169116811491141790565b61112a576110fd8633610a42565b61112a5761112a7f59c896be0000000000000000000000000000000000000000000000000000000061329e565b8015611134575f82555b73ffffffffffffffffffffffffffffffffffffffff8681165f9081526006602052604080822080547fffffffffffffffffffffffffffffffffffffffffffffffffffffffffffffffff019055918716808252919020805460010190554260a01b177c0200000000000000000000000000000000000000000000000000000000175f858152600560205260408120919091557c02000000000000000000000000000000000000000000000000000000008416900361121f57600184015f81815260056020526040812054900361121d57600154811461121d575f8181526005602052604090208490555b505b73ffffffffffffffffffffffffffffffffffffffff85168481887fddf252ad1be2c89b69c2b068fc378daa952ba7f163c4a11628f55a4df523b3ef5f80a4805f0361128d5761128d7fea553b340000000000000000000000000000000000000000000000000000000061329e565b50505050505050565b601b545f90819073ffffffffffffffffffffffffffffffffffffffff6c0100000000000000000000000082041690612710906112e0906bffffffffffffffffffffffff168661472b565b6112ea91906147b7565b915091505b9250929050565b5f8281526020819052604090206001015461131081612fa1565b61131a83836134c9565b505050565b73ffffffffffffffffffffffffffffffffffffffff811633146113c4576040517f08c379a000000000000000000000000000000000000000000000000000000000815260206004820152602f60248201527f416363657373436f6e74726f6c3a2063616e206f6e6c792072656e6f756e636560448201527f20726f6c657320666f722073656c6600000000000000000000000000000000006064820152608401610bd7565b610f198282613580565b7fa49807205ce4d355092ef5a8a18f56e8913cf4a201fbe287825b095693c217756113f881612fa1565b601d54339073ffffffffffffffffffffffffffffffffffffffff16156115e4575f612710601e544761142a919061472b565b61143491906147b7565b601d546040519192505f9173ffffffffffffffffffffffffffffffffffffffff9091169083908381818185875af1925050503d805f8114611490576040519150601f19603f3d011682016040523d82523d5f602084013e611495565b606091505b50509050806114d2576040517fe91555480000000000000000000000000000000000000000000000000000000081525f6004820152602401610bd7565b60405147905f9073ffffffffffffffffffffffffffffffffffffffff86169083908381818185875af1925050503d805f8114611529576040519150601f19603f3d011682016040523d82523d5f602084013e61152e565b606091505b505090508061156c576040517fe915554800000000000000000000000000000000000000000000000000000000815260016004820152602401610bd7565b7f7e27a75faf6b8f74ec66364c1d23167ad5a538473e8bb4986ac2a26c30dbbbe68561159886856147ef565b601d54601e546040805173ffffffffffffffffffffffffffffffffffffffff958616815260208101949094529390911682840152606082015290519081900360800190a1505050505050565b60405147905f9073ffffffffffffffffffffffffffffffffffffffff84169083908381818185875af1925050503d805f811461163b576040519150601f19603f3d011682016040523d82523d5f602084013e611640565b606091505b505090508061167e576040517fe915554800000000000000000000000000000000000000000000000000000000815260026004820152602401610bd7565b601d54601e546040805173ffffffffffffffffffffffffffffffffffffffff8088168252602082018790529093169083015260608201527f7e27a75faf6b8f74ec66364c1d23167ad5a538473e8bb4986ac2a26c30dbbbe69060800160405180910390a150505050565b7fa49807205ce4d355092ef5a8a18f56e8913cf4a201fbe287825b095693c2177561171281612fa1565b61171c8383613635565b6040805173ffffffffffffffffffffffffffffffffffffffff851681526bffffffffffffffffffffffff8416602082015233917f0d68bfdb860b47ebf04e76cebf91e412a17ee7ccf960b3dd8720471b090b2ea891015b60405180910390a2505050565b61131a83838360405180602001604052805f8152506127b3565b336117a482611de6565b73ffffffffffffffffffffffffffffffffffffffff1614611821576040517f08c379a000000000000000000000000000000000000000000000000000000000815260206004820152600960248201527f4e6f74204f776e657200000000000000000000000000000000000000000000006044820152606401610bd7565b61182a81613788565b60405181815233907f512586160ebd4dc6945ba9ec5d21a1f723f26f3c7aa36cdffb6818d4e7b880309060200160405180910390a250565b335f9081527f7d7ffb7a348e1c6a02869081a26547b49160dd3df72d1d75a570eb9b698292ec602052604090205460ff16806118cb5750335f9081527fee57cd81e84075558e8fcc182a1f4393f91fc97f963a136e66b7f949a62f319f602052604090205460ff165b611931576040517f08c379a000000000000000000000000000000000000000000000000000000000815260206004820152601660248201527f4f6e6c792041646d696e206f72204f70657261746f72000000000000000000006044820152606401610bd7565b601a54600254600154839190037fffffffffffffffffffffffffffffffffffffffffffffffffffffffffffffffff0161196a9190614802565b11156119a5576040517fc9eae84200000000000000000000000000000000000000000000000000000000815260016004820152602401610bd7565b6119af8282613792565b6040805173ffffffffffffffffffffffffffffffffffffffff841681526020810183905233917f1a3e625d40ebf494638afa2b07e6a62f9fbfa2060469d5bfc998ce32d7c91b90910160405180910390a25050565b6018610f198282614862565b601f5460ff1615611a7d576040517f08c379a000000000000000000000000000000000000000000000000000000000815260206004820152601360248201527f416c726561647920696e697469616c697a6564000000000000000000000000006044820152606401610bd7565b367ffffffffffffffffffffffffffffffffffffffffffffffffffffffffffffffffe81013560f01c90033560601c33611b33611ab9898061497a565b8080601f0160208091040260200160405190810160405280939291908181526020018383808284375f92019190915250611afa9250505060208b018b61497a565b8080601f0160208091040260200160405190810160405280939291908181526020018383808284375f920191909152506137ab92505050565b611b5d7fa49807205ce4d355092ef5a8a18f56e8913cf4a201fbe287825b095693c21775806137cd565b611ba77f97667070c54ef182b0f5858b034beac1b6f3089aa2d3188bb1e8929f4fa9b9297fa49807205ce4d355092ef5a8a18f56e8913cf4a201fbe287825b095693c217756137cd565b611bf17fcb7e89b7eed8294d41c0215e2f4fe023e2166afcfa3d1f479c394274afe5f0197fa49807205ce4d355092ef5a8a18f56e8913cf4a201fbe287825b095693c217756137cd565b611c3b7f9eb10b7eab35fabb5491c526a3cf39c3bb7ce2ee5d483e1558635d2c96c2085c7fa49807205ce4d355092ef5a8a18f56e8913cf4a201fbe287825b095693c217756137cd565b611c657fa49807205ce4d355092ef5a8a18f56e8913cf4a201fbe287825b095693c21775826134c9565b611c8f7fa49807205ce4d355092ef5a8a18f56e8913cf4a201fbe287825b095693c21775836134c9565b611c9a86865f612d00565b611ca684846001612d00565b611cbf82611cba60c08b0160a08c016149db565b613635565b876016611ccc8282614b31565b50508635600a556020870135600b556040870135600c556060870135600d556080870135600e5560a0870135600f5560c087013560105560e0870135601155610100870135601255610120870135601355610140870135601455610160870135601555601e89905588611d3f575f611d41565b805b601d80547fffffffffffffffffffffffff00000000000000000000000000000000000000001673ffffffffffffffffffffffffffffffffffffffff92909216919091179055611db07fa49807205ce4d355092ef5a8a18f56e8913cf4a201fbe287825b095693c21775826129f4565b5050601f80547fffffffffffffffffffffffffffffffffffffffffffffffffffffffffffffff0016600117905550505050505050565b5f610e1882613392565b6060611dfa613817565b905090565b5f73ffffffffffffffffffffffffffffffffffffffff8216611e4457611e447f8f4eb6040000000000000000000000000000000000000000000000000000000061329e565b5073ffffffffffffffffffffffffffffffffffffffff165f9081526006602052604090205467ffffffffffffffff1690565b73ffffffffffffffffffffffffffffffffffffffff81165f908152600960205260408082209051611eaa9086908690614d91565b90815260200160405180910390205490509392505050565b60408051808201909152600781527f526567756c6172000000000000000000000000000000000000000000000000006020820152600c54611f03908361472b565b341015611f4057805f6040517f422e6598000000000000000000000000000000000000000000000000000000008152600401610bd7929190614742565b600d54601054601154611f57928692869286612fae565b600c546040805134815273ffffffffffffffffffffffffffffffffffffffff86166020820152908101849052606081019190915233907f4b39a2b601e18792cafbb9db818cbd30b9cd45ad108161d616484ec3b3cc1def90608001611773565b335f9081527f7d7ffb7a348e1c6a02869081a26547b49160dd3df72d1d75a570eb9b698292ec602052604090205460ff16806120205750335f9081527fee57cd81e84075558e8fcc182a1f4393f91fc97f963a136e66b7f949a62f319f602052604090205460ff165b612086576040517f08c379a000000000000000000000000000000000000000000000000000000000815260206004820152601660248201527f4f6e6c792041646d696e206f72204f70657261746f72000000000000000000006044820152606401610bd7565b5f81116120ef576040517f08c379a000000000000000000000000000000000000000000000000000000000815260206004820152601460248201527f496e76616c696420707269636520616d6f756e740000000000000000000000006044820152606401610bd7565b600a55565b335f9081527f7d7ffb7a348e1c6a02869081a26547b49160dd3df72d1d75a570eb9b698292ec602052604090205460ff168061215d5750335f9081527fee57cd81e84075558e8fcc182a1f4393f91fc97f963a136e66b7f949a62f319f602052604090205460ff165b6121c3576040517f08c379a000000000000000000000000000000000000000000000000000000000815260206004820152601660248201527f4f6e6c792041646d696e206f72204f70657261746f72000000000000000000006044820152606401610bd7565b5f811161222c576040517f08c379a000000000000000000000000000000000000000000000000000000000815260206004820152601260248201527f496e76616c6964206d617820616d6f756e7400000000000000000000000000006044820152606401610bd7565b600e55565b335f9081527f7d7ffb7a348e1c6a02869081a26547b49160dd3df72d1d75a570eb9b698292ec602052604090205460ff168061229a5750335f9081527fee57cd81e84075558e8fcc182a1f4393f91fc97f963a136e66b7f949a62f319f602052604090205460ff165b612300576040517f08c379a000000000000000000000000000000000000000000000000000000000815260206004820152601660248201527f4f6e6c792041646d696e206f72204f70657261746f72000000000000000000006044820152606401610bd7565b5f8111612369576040517f08c379a000000000000000000000000000000000000000000000000000000000815260206004820152601360248201527f496e76616c6964206d696e7420616d6f756e74000000000000000000000000006044820152606401610bd7565b600d55565b606060048054610e2d90614766565b60168054819061238c90614766565b80601f01602080910402602001604051908101604052809291908181526020018280546123b890614766565b80156124035780601f106123da57610100808354040283529160200191612403565b820191905f5260205f20905b8154815290600101906020018083116123e657829003601f168201915b50505050509080600101805461241890614766565b80601f016020809104026020016040519081016040528092919081815260200182805461244490614766565b801561248f5780601f106124665761010080835404028352916020019161248f565b820191905f5260205f20905b81548152906001019060200180831161247257829003601f168201915b5050505050908060020180546124a490614766565b80601f01602080910402602001604051908101604052809291908181526020018280546124d090614766565b801561251b5780601f106124f25761010080835404028352916020019161251b565b820191905f5260205f20905b8154815290600101906020018083116124fe57829003601f168201915b50505050509080600301805461253090614766565b80601f016020809104026020016040519081016040528092919081815260200182805461255c90614766565b80156125a75780601f1061257e576101008083540402835291602001916125a7565b820191905f5260205f20905b81548152906001019060200180831161258a57829003601f168201915b5050505060048301546005840154600690940154929390926bffffffffffffffffffffffff821692506c0100000000000000000000000090910473ffffffffffffffffffffffffffffffffffffffff169060ff1688565b335f81815260086020908152604080832073ffffffffffffffffffffffffffffffffffffffff87168085529083529281902080547fffffffffffffffffffffffffffffffffffffffffffffffffffffffffffffff001686151590811790915590519081529192917f17307eab39ab6107e8899845ad3d59bd9653f200f220920489ca2b5937696c31910160405180910390a35050565b7f9eb10b7eab35fabb5491c526a3cf39c3bb7ce2ee5d483e1558635d2c96c2085c6126be81612fa1565b60408051808201909152600281527f574c0000000000000000000000000000000000000000000000000000000000006020820152600b546126ff908461472b565b34101561273c57805f6040517f422e6598000000000000000000000000000000000000000000000000000000008152600401610bd7929190614742565b600f54601454601554612753928792879286612fae565b600b546040805134815273ffffffffffffffffffffffffffffffffffffffff87166020820152908101859052606081019190915233907f2803fcf0a236d2815d9e6b3ef81ad6014f08139d44906d7d3cfc5302331e81e090608001610d69565b6127be848484611060565b73ffffffffffffffffffffffffffffffffffffffff83163b15612814576127e784848484613829565b612814576128147fd1a57ed60000000000000000000000000000000000000000000000000000000061329e565b50505050565b60606128258261323a565b61285b576040517f5a13bba900000000000000000000000000000000000000000000000000000000815260040160405180910390fd5b5f612864611df0565b90505f8151116128825760405180602001604052805f8152506128b0565b8061288c84613996565b6040516128a0929190601990602001614da0565b6040516020818303038152906040525b9392505050565b335f9081527f7d7ffb7a348e1c6a02869081a26547b49160dd3df72d1d75a570eb9b698292ec602052604090205460ff16806129205750335f9081527fee57cd81e84075558e8fcc182a1f4393f91fc97f963a136e66b7f949a62f319f602052604090205460ff165b612986576040517f08c379a000000000000000000000000000000000000000000000000000000000815260206004820152601660248201527f4f6e6c792041646d696e206f72204f70657261746f72000000000000000000006044820152606401610bd7565b5f81116129ef576040517f08c379a000000000000000000000000000000000000000000000000000000000815260206004820152601260248201527f496e76616c6964206d617820616d6f756e7400000000000000000000000000006044820152606401610bd7565b600f55565b5f82815260208190526040902060010154612a0e81612fa1565b61131a8383613580565b6019610f198282614862565b335f9081527f7d7ffb7a348e1c6a02869081a26547b49160dd3df72d1d75a570eb9b698292ec602052604090205460ff1680612a8d5750335f9081527fee57cd81e84075558e8fcc182a1f4393f91fc97f963a136e66b7f949a62f319f602052604090205460ff165b612af3576040517f08c379a000000000000000000000000000000000000000000000000000000000815260206004820152601660248201527f4f6e6c792041646d696e206f72204f70657261746f72000000000000000000006044820152606401610bd7565b5f8111612b5c576040517f08c379a000000000000000000000000000000000000000000000000000000000815260206004820152601460248201527f496e76616c696420707269636520616d6f756e740000000000000000000000006044820152606401610bd7565b600b55565b7fa49807205ce4d355092ef5a8a18f56e8913cf4a201fbe287825b095693c21775612b8b81612fa1565b601c5460ff16612bc7576040517ff8a99e0400000000000000000000000000000000000000000000000000000000815260040160405180910390fd5b600254600154037fffffffffffffffffffffffffffffffffffffffffffffffffffffffffffffffff01821015612c59576040517f08c379a000000000000000000000000000000000000000000000000000000000815260206004820152601d60248201527f4e657720737570706c79206e6f74203e3d20746f74616c537570706c790000006044820152606401610bd7565b601a548210612cc4576040517f08c379a000000000000000000000000000000000000000000000000000000000815260206004820152601260248201527f496e76616c6964206e657720737570706c7900000000000000000000000000006044820152606401610bd7565b601a8290556040518281527f870e95cc902be0a1f894ff08bb13ab98999fdb581790629f18dd80eb4da06cca9060200160405180910390a15050565b335f9081527f7d7ffb7a348e1c6a02869081a26547b49160dd3df72d1d75a570eb9b698292ec602052604090205460ff1680612d695750335f9081527fee57cd81e84075558e8fcc182a1f4393f91fc97f963a136e66b7f949a62f319f602052604090205460ff165b612dcf576040517f08c379a000000000000000000000000000000000000000000000000000000000815260206004820152601660248201527f4f6e6c792041646d696e206f72204f70657261746f72000000000000000000006044820152606401610bd7565b60ff81161580612de257508060ff166001145b612e48576040517f08c379a000000000000000000000000000000000000000000000000000000000815260206004820152601460248201527f4572726f72206f6e6c79204f473d302c574c3d310000000000000000000000006044820152606401610bd7565b818015612814575f5b81811015612f9a575f858583818110612e6c57612e6c614e59565b9050602002016020810190612e81919061449d565b73ffffffffffffffffffffffffffffffffffffffff1603612efe576040517f08c379a000000000000000000000000000000000000000000000000000000000815260206004820152600f60248201527f496e76616c6964204164647265737300000000000000000000000000000000006044820152606401610bd7565b60ff831615612f5c57612f577f9eb10b7eab35fabb5491c526a3cf39c3bb7ce2ee5d483e1558635d2c96c2085c868684818110612f3d57612f3d614e59565b9050602002016020810190612f52919061449d565b6134c9565b612f92565b612f927fcb7e89b7eed8294d41c0215e2f4fe023e2166afcfa3d1f479c394274afe5f019868684818110612f3d57612f3d614e59565b600101612e51565b5050505050565b612fab81336139f7565b50565b335f9081526009602052604090819020905185918791612fcf908590614e86565b908152602001604051809103902054612fe89190614802565b1115613025578060016040517f422e6598000000000000000000000000000000000000000000000000000000008152600401610bd7929190614742565b4283811015613065578160026040517f422e6598000000000000000000000000000000000000000000000000000000008152600401610bd7929190614742565b828111156130a4578160036040517f422e6598000000000000000000000000000000000000000000000000000000008152600401610bd7929190614742565b601a54600254600154889190037fffffffffffffffffffffffffffffffffffffffffffffffffffffffffffffffff016130dd9190614802565b111561311a578160046040517f422e6598000000000000000000000000000000000000000000000000000000008152600401610bd7929190614742565b335f9081526009602052604090819020905187919061313a908590614e86565b9081526040519081900360200190208054909101905561128d8787613aae565b5f7f01ffc9a7000000000000000000000000000000000000000000000000000000007fffffffff00000000000000000000000000000000000000000000000000000000831614806131ec57507f80ac58cd000000000000000000000000000000000000000000000000000000007fffffffff000000000000000000000000000000000000000000000000000000008316145b80610e185750507fffffffff00000000000000000000000000000000000000000000000000000000167f5b5e139f000000000000000000000000000000000000000000000000000000001490565b5f8160011161329957600154821015613299575f5b505f82815260056020526040812054908190036132765761326f83614ea1565b925061324f565b7c0100000000000000000000000000000000000000000000000000000000161590505b919050565b805f5260045ffd5b5f6132b083611de6565b90508180156132d557503373ffffffffffffffffffffffffffffffffffffffff821614155b15613311576132e48133610a42565b613311576133117fcfb3b9420000000000000000000000000000000000000000000000000000000061329e565b5f8381526007602052604080822080547fffffffffffffffffffffffff00000000000000000000000000000000000000001673ffffffffffffffffffffffffffffffffffffffff88811691821790925591518693918516917f8c5be1e5ebec7d5bd14f71427d1e84f3dd0314c0f7b2291e5b200ac8c7c3b92591a450505050565b5f816001116134a057505f81815260056020526040812054908190036134755760015482106133e4576133e47fdf2d9b420000000000000000000000000000000000000000000000000000000061329e565b5b507fffffffffffffffffffffffffffffffffffffffffffffffffffffffffffffffff015f8181526005602052604090205480156133e5577c010000000000000000000000000000000000000000000000000000000081165f0361344757919050565b6134707fdf2d9b420000000000000000000000000000000000000000000000000000000061329e565b6133e5565b7c010000000000000000000000000000000000000000000000000000000081165f036134a057919050565b6132997fdf2d9b420000000000000000000000000000000000000000000000000000000061329e565b5f8281526020818152604080832073ffffffffffffffffffffffffffffffffffffffff8516845290915290205460ff16610f19575f8281526020818152604080832073ffffffffffffffffffffffffffffffffffffffff8516808552925280832080547fffffffffffffffffffffffffffffffffffffffffffffffffffffffffffffff0016600117905551339285917f2f8788117e7eff1d82e926ec794901d17c78024a50270940304540a733656f0d9190a45050565b5f8281526020818152604080832073ffffffffffffffffffffffffffffffffffffffff8516845290915290205460ff1615610f19575f8281526020818152604080832073ffffffffffffffffffffffffffffffffffffffff8516808552925280832080547fffffffffffffffffffffffffffffffffffffffffffffffffffffffffffffff0016905551339285917ff6391f5c32d9c69d2a47ea670b442974b53935d1edc7fd64eb21e047a839171b9190a45050565b612710816bffffffffffffffffffffffff16106136ae576040517f08c379a000000000000000000000000000000000000000000000000000000000815260206004820152601d60248201527f455243323938313a20666565206578636565642073616c6550726963650000006044820152606401610bd7565b73ffffffffffffffffffffffffffffffffffffffff821661372b576040517f08c379a000000000000000000000000000000000000000000000000000000000815260206004820152601960248201527f455243323938313a20696e76616c6964207265636569766572000000000000006044820152606401610bd7565b6bffffffffffffffffffffffff1673ffffffffffffffffffffffffffffffffffffffff9091166c01000000000000000000000000027fffffffffffffffffffffffffffffffffffffffff0000000000000000000000001617601b55565b612fab815f613ba9565b610f19828260405180602001604052805f815250613d47565b60036137b78382614862565b5060046137c48282614862565b50600180555050565b5f82815260208190526040808220600101805490849055905190918391839186917fbd79b86ffe0ab8e8776151514217cd7cacd52c909f66475c3af44e129f0b00ff9190a4505050565b606060166002018054610e2d90614766565b6040517f150b7a020000000000000000000000000000000000000000000000000000000081525f9073ffffffffffffffffffffffffffffffffffffffff85169063150b7a0290613883903390899088908890600401614ed5565b6020604051808303815f875af19250505080156138db575060408051601f3d9081017fffffffffffffffffffffffffffffffffffffffffffffffffffffffffffffffe01682019092526138d891810190614f1d565b60015b613947573d808015613908576040519150601f19603f3d011682016040523d82523d5f602084013e61390d565b606091505b5080515f0361393f5761393f7fd1a57ed60000000000000000000000000000000000000000000000000000000061329e565b805181602001fd5b7fffffffff00000000000000000000000000000000000000000000000000000000167f150b7a02000000000000000000000000000000000000000000000000000000001490505b949350505050565b606060a06040510180604052602081039150505f815280825b600183039250600a81066030018353600a9004806139af57508190037fffffffffffffffffffffffffffffffffffffffffffffffffffffffffffffffe0909101908152919050565b5f8281526020818152604080832073ffffffffffffffffffffffffffffffffffffffff8516845290915290205460ff16610f1957613a3481613dcd565b613a3f836020613dec565b604051602001613a50929190614f38565b604080517fffffffffffffffffffffffffffffffffffffffffffffffffffffffffffffffe0818403018152908290527f08c379a0000000000000000000000000000000000000000000000000000000008252610bd79160040161413e565b6001545f829003613ae257613ae27fb562e8dd0000000000000000000000000000000000000000000000000000000061329e565b5f81815260056020908152604080832073ffffffffffffffffffffffffffffffffffffffff87164260a01b6001881460e11b17811790915580845260069092528220805468010000000000000001860201905590819003613b6657613b667f2e0763000000000000000000000000000000000000000000000000000000000061329e565b818301825b80835f7fddf252ad1be2c89b69c2b068fc378daa952ba7f163c4a11628f55a4df523b3ef5f80a4818160010191508103613b6b575060015550505050565b5f613bb383613392565b9050805f80613bcf865f90815260076020526040902080549091565b915091508415613c1f57613be48184336110cd565b613c1f57613bf28333610a42565b613c1f57613c1f7f59c896be0000000000000000000000000000000000000000000000000000000061329e565b8015613c29575f82555b73ffffffffffffffffffffffffffffffffffffffff83165f81815260066020526040902080546fffffffffffffffffffffffffffffffff0190554260a01b177c0300000000000000000000000000000000000000000000000000000000175f878152600560205260408120919091557c020000000000000000000000000000000000000000000000000000000085169003613cf257600186015f818152600560205260408120549003613cf0576001548114613cf0575f8181526005602052604090208590555b505b60405186905f9073ffffffffffffffffffffffffffffffffffffffff8616907fddf252ad1be2c89b69c2b068fc378daa952ba7f163c4a11628f55a4df523b3ef908390a4505060028054600101905550505050565b613d518383613aae565b73ffffffffffffffffffffffffffffffffffffffff83163b1561131a576001548281035b613d875f868380600101945086613829565b613db457613db47fd1a57ed60000000000000000000000000000000000000000000000000000000061329e565b818110613d75578160015414612f9a57612f9a5f61329e565b6060610e1873ffffffffffffffffffffffffffffffffffffffff831660145b60605f613dfa83600261472b565b613e05906002614802565b67ffffffffffffffff811115613e1d57613e1d614150565b6040519080825280601f01601f191660200182016040528015613e47576020820181803683370190505b5090507f3000000000000000000000000000000000000000000000000000000000000000815f81518110613e7d57613e7d614e59565b60200101907effffffffffffffffffffffffffffffffffffffffffffffffffffffffffffff191690815f1a9053507f780000000000000000000000000000000000000000000000000000000000000081600181518110613edf57613edf614e59565b60200101907effffffffffffffffffffffffffffffffffffffffffffffffffffffffffffff191690815f1a9053505f613f1984600261472b565b613f24906001614802565b90505b6001811115613fc0577f303132333435363738396162636465660000000000000000000000000000000085600f1660108110613f6557613f65614e59565b1a60f81b828281518110613f7b57613f7b614e59565b60200101907effffffffffffffffffffffffffffffffffffffffffffffffffffffffffffff191690815f1a90535060049490941c93613fb981614ea1565b9050613f27565b5083156128b0576040517f08c379a000000000000000000000000000000000000000000000000000000000815260206004820181905260248201527f537472696e67733a20686578206c656e67746820696e73756666696369656e746044820152606401610bd7565b5f60208284031215614039575f80fd5b5035919050565b73ffffffffffffffffffffffffffffffffffffffff81168114612fab575f80fd5b5f8060408385031215614072575f80fd5b823561407d81614040565b946020939093013593505050565b7fffffffff0000000000000000000000000000000000000000000000000000000081168114612fab575f80fd5b5f602082840312156140c8575f80fd5b81356128b08161408b565b5f5b838110156140ed5781810151838201526020016140d5565b50505f910152565b5f815180845261410c8160208601602086016140d3565b601f017fffffffffffffffffffffffffffffffffffffffffffffffffffffffffffffffe0169290920160200192915050565b602081525f6128b060208301846140f5565b7f4e487b71000000000000000000000000000000000000000000000000000000005f52604160045260245ffd5b5f67ffffffffffffffff8084111561419757614197614150565b604051601f85017fffffffffffffffffffffffffffffffffffffffffffffffffffffffffffffffe0908116603f011681019082821181831017156141dd576141dd614150565b816040528093508581528686860111156141f5575f80fd5b858560208301375f602087830101525050509392505050565b5f82601f83011261421d575f80fd5b6128b08383356020850161417d565b5f806040838503121561423d575f80fd5b823561424881614040565b9150602083013567ffffffffffffffff811115614263575f80fd5b61426f8582860161420e565b9150509250929050565b5f806040838503121561428a575f80fd5b50508035926020909101359150565b5f805f606084860312156142ab575f80fd5b83356142b681614040565b925060208401356142c681614040565b929592945050506040919091013590565b5f80604083850312156142e8575f80fd5b8235915060208301356142fa81614040565b809150509250929050565b6bffffffffffffffffffffffff81168114612fab575f80fd5b5f806040838503121561432f575f80fd5b823561433a81614040565b915060208301356142fa81614305565b5f6020828403121561435a575f80fd5b813567ffffffffffffffff811115614370575f80fd5b61398e8482850161420e565b5f8083601f84011261438c575f80fd5b50813567ffffffffffffffff8111156143a3575f80fd5b6020830191508360208260051b85010111156112ef575f80fd5b5f805f805f805f8789036102008112156143d5575f80fd5b88359750602089013567ffffffffffffffff808211156143f3575f80fd5b908a0190610100828d031215614407575f80fd5b8198506101807fffffffffffffffffffffffffffffffffffffffffffffffffffffffffffffffc08401121561443a575f80fd5b60408b0197506101c08b0135925080831115614454575f80fd5b6144608c848d0161437c565b90975095506101e08b013592508691508083111561447c575f80fd5b505061448a8a828b0161437c565b989b979a50959850939692959293505050565b5f602082840312156144ad575f80fd5b81356128b081614040565b5f805f604084860312156144ca575f80fd5b833567ffffffffffffffff808211156144e1575f80fd5b818601915086601f8301126144f4575f80fd5b813581811115614502575f80fd5b876020828501011115614513575f80fd5b6020928301955093505084013561452981614040565b809150509250925092565b5f6101008083526145478184018c6140f5565b9050828103602084015261455b818b6140f5565b9050828103604084015261456f818a6140f5565b9050828103606084015261458381896140f5565b9150508560808301526bffffffffffffffffffffffff851660a083015273ffffffffffffffffffffffffffffffffffffffff841660c083015282151560e08301529998505050505050505050565b8015158114612fab575f80fd5b5f80604083850312156145ef575f80fd5b82356145fa81614040565b915060208301356142fa816145d1565b5f805f806080858703121561461d575f80fd5b843561462881614040565b9350602085013561463881614040565b925060408501359150606085013567ffffffffffffffff81111561465a575f80fd5b8501601f8101871361466a575f80fd5b6146798782356020840161417d565b91505092959194509250565b5f8060408385031215614696575f80fd5b82356146a181614040565b915060208301356142fa81614040565b5f805f604084860312156146c3575f80fd5b833567ffffffffffffffff8111156146d9575f80fd5b6146e58682870161437c565b909450925050602084013560ff81168114614529575f80fd5b7f4e487b71000000000000000000000000000000000000000000000000000000005f52601160045260245ffd5b8082028115828204841417610e1857610e186146fe565b604081525f61475460408301856140f5565b905060ff831660208301529392505050565b600181811c9082168061477a57607f821691505b6020821081036147b1577f4e487b71000000000000000000000000000000000000000000000000000000005f52602260045260245ffd5b50919050565b5f826147ea577f4e487b71000000000000000000000000000000000000000000000000000000005f52601260045260245ffd5b500490565b81810381811115610e1857610e186146fe565b80820180821115610e1857610e186146fe565b601f82111561131a575f81815260208120601f850160051c8101602086101561483b5750805b601f850160051c820191505b8181101561485a57828155600101614847565b505050505050565b815167ffffffffffffffff81111561487c5761487c614150565b6148908161488a8454614766565b84614815565b602080601f8311600181146148e2575f84156148ac5750858301515b7fffffffffffffffffffffffffffffffffffffffffffffffffffffffffffffffff600386901b1c1916600185901b17855561485a565b5f858152602081207fffffffffffffffffffffffffffffffffffffffffffffffffffffffffffffffe08616915b8281101561492e5788860151825594840194600190910190840161490f565b508582101561496a57878501517fffffffffffffffffffffffffffffffffffffffffffffffffffffffffffffffff600388901b60f8161c191681555b5050505050600190811b01905550565b5f8083357fffffffffffffffffffffffffffffffffffffffffffffffffffffffffffffffe18436030181126149ad575f80fd5b83018035915067ffffffffffffffff8211156149c7575f80fd5b6020019150368190038213156112ef575f80fd5b5f602082840312156149eb575f80fd5b81356128b081614305565b67ffffffffffffffff831115614a0e57614a0e614150565b614a2283614a1c8354614766565b83614815565b5f601f841160018114614a72575f8515614a3c5750838201355b7fffffffffffffffffffffffffffffffffffffffffffffffffffffffffffffffff600387901b1c1916600186901b178355612f9a565b5f838152602090207fffffffffffffffffffffffffffffffffffffffffffffffffffffffffffffffe0861690835b82811015614ac05786850135825560209485019460019092019101614aa0565b5086821015614afb577fffffffffffffffffffffffffffffffffffffffffffffffffffffffffffffffff60f88860031b161c19848701351681555b505060018560011b0183555050505050565b5f8135610e1881614305565b5f8135610e1881614040565b5f8135610e18816145d1565b614b3b828361497a565b67ffffffffffffffff811115614b5357614b53614150565b614b6781614b618554614766565b85614815565b5f601f821160018114614bb7575f8315614b815750838201355b7fffffffffffffffffffffffffffffffffffffffffffffffffffffffffffffffff600385901b1c1916600184901b178555614c4c565b5f858152602090207fffffffffffffffffffffffffffffffffffffffffffffffffffffffffffffffe0841690835b82811015614c055786850135825560209485019460019092019101614be5565b5084821015614c40577fffffffffffffffffffffffffffffffffffffffffffffffffffffffffffffffff60f88660031b161c19848701351681555b505060018360011b0185555b50505050614c5d602083018361497a565b614c6b8183600186016149f6565b5050614c7a604083018361497a565b614c888183600286016149f6565b5050614c97606083018361497a565b614ca58183600386016149f6565b50506080820135600482015560058101614cfe614cc460a08501614b0d565b82547fffffffffffffffffffffffffffffffffffffffff000000000000000000000000166bffffffffffffffffffffffff91909116178255565b614d4a614d0d60c08501614b19565b82546bffffffffffffffffffffffff1660609190911b7fffffffffffffffffffffffffffffffffffffffff00000000000000000000000016178255565b50610f19614d5a60e08401614b25565b600683017fffffffffffffffffffffffffffffffffffffffffffffffffffffffffffffff0081541660ff8315151681178255505050565b818382375f9101908152919050565b5f84516020614db28285838a016140d3565b855191840191614dc58184848a016140d3565b85549201915f90614dd581614766565b60018281168015614ded5760018114614e2057614e49565b7fffffffffffffffffffffffffffffffffffffffffffffffffffffffffffffff0084168752821515830287019450614e49565b895f52855f205f5b84811015614e4157815489820152908301908701614e28565b505082870194505b50929a9950505050505050505050565b7f4e487b71000000000000000000000000000000000000000000000000000000005f52603260045260245ffd5b5f8251614e978184602087016140d3565b9190910192915050565b5f81614eaf57614eaf6146fe565b507fffffffffffffffffffffffffffffffffffffffffffffffffffffffffffffffff0190565b5f73ffffffffffffffffffffffffffffffffffffffff808716835280861660208401525083604083015260806060830152614f1360808301846140f5565b9695505050505050565b5f60208284031215614f2d575f80fd5b81516128b08161408b565b7f416363657373436f6e74726f6c3a206163636f756e742000000000000000000081525f8351614f6f8160178501602088016140d3565b7f206973206d697373696e6720726f6c65200000000000000000000000000000006017918401918201528351614fac8160288401602088016140d3565b0160280194935050505056fea2646970667358221220f4626658b4273d152c75b18e0cc8add943c3165b8374a17118ceb5164b0f818764736f6c63430008140033",
  "linkReferences": {},
  "deployedLinkReferences": {}
}