{
  "_format": "hh-sol-artifact-1",
  "contractName": "MvxCollection",
  "sourceName": "src/MvxCollection.sol",
  "abi": [
    {
      "inputs": [],
      "name": "ApprovalCallerNotOwnerNorApproved",
      "type": "error"
    },
    {
      "inputs": [],
      "name": "ApprovalQueryForNonexistentToken",
      "type": "error"
    },
    {
      "inputs": [],
      "name": "BalanceQueryForZeroAddress",
      "type": "error"
    },
    {
      "inputs": [],
      "name": "FixedMaxSupply",
      "type": "error"
    },
    {
      "inputs": [
        {
          "internalType": "uint8",
          "name": "",
          "type": "uint8"
        }
      ],
      "name": "InvalidStageError",
      "type": "error"
    },
    {
      "inputs": [],
      "name": "MintERC2309QuantityExceedsLimit",
      "type": "error"
    },
    {
      "inputs": [
        {
          "internalType": "bytes4",
          "name": "",
          "type": "bytes4"
        },
        {
          "internalType": "uint8",
          "name": "",
          "type": "uint8"
        }
      ],
      "name": "MintError",
      "type": "error"
    },
    {
      "inputs": [
        {
          "internalType": "uint8",
          "name": "",
          "type": "uint8"
        }
      ],
      "name": "MintForOwnerError",
      "type": "error"
    },
    {
      "inputs": [],
      "name": "MintToZeroAddress",
      "type": "error"
    },
    {
      "inputs": [],
      "name": "MintZeroQuantity",
      "type": "error"
    },
    {
      "inputs": [],
      "name": "OwnerQueryForNonexistentToken",
      "type": "error"
    },
    {
      "inputs": [],
      "name": "OwnershipNotInitializedForExtraData",
      "type": "error"
    },
    {
      "inputs": [
        {
          "internalType": "uint8",
          "name": "",
          "type": "uint8"
        }
      ],
      "name": "PublicStageUpdateError",
      "type": "error"
    },
    {
      "inputs": [
        {
          "internalType": "uint8",
          "name": "",
          "type": "uint8"
        }
      ],
      "name": "RoyaltyFeeError",
      "type": "error"
    },
    {
      "inputs": [],
      "name": "TokenNotExistsError",
      "type": "error"
    },
    {
      "inputs": [],
      "name": "TransferCallerNotOwnerNorApproved",
      "type": "error"
    },
    {
      "inputs": [],
      "name": "TransferFromIncorrectOwner",
      "type": "error"
    },
    {
      "inputs": [],
      "name": "TransferToNonERC721ReceiverImplementer",
      "type": "error"
    },
    {
      "inputs": [],
      "name": "TransferToZeroAddress",
      "type": "error"
    },
    {
      "inputs": [],
      "name": "URIQueryForNonexistentToken",
      "type": "error"
    },
    {
      "inputs": [
        {
          "internalType": "uint8",
          "name": "",
          "type": "uint8"
        }
      ],
      "name": "UpdateMaxSupplyError",
      "type": "error"
    },
    {
      "inputs": [
        {
          "internalType": "uint8",
          "name": "isPlaformCall",
          "type": "uint8"
        }
      ],
      "name": "WithdrawError",
      "type": "error"
    },
    {
      "anonymous": false,
      "inputs": [
        {
          "indexed": true,
          "internalType": "address",
          "name": "owner",
          "type": "address"
        },
        {
          "indexed": true,
          "internalType": "address",
          "name": "approved",
          "type": "address"
        },
        {
          "indexed": true,
          "internalType": "uint256",
          "name": "tokenId",
          "type": "uint256"
        }
      ],
      "name": "Approval",
      "type": "event"
    },
    {
      "anonymous": false,
      "inputs": [
        {
          "indexed": true,
          "internalType": "address",
          "name": "owner",
          "type": "address"
        },
        {
          "indexed": true,
          "internalType": "address",
          "name": "operator",
          "type": "address"
        },
        {
          "indexed": false,
          "internalType": "bool",
          "name": "approved",
          "type": "bool"
        }
      ],
      "name": "ApprovalForAll",
      "type": "event"
    },
    {
      "anonymous": false,
      "inputs": [
        {
          "indexed": true,
          "internalType": "address",
          "name": "sender",
          "type": "address"
        },
        {
          "indexed": false,
          "internalType": "uint256",
          "name": "tokenId",
          "type": "uint256"
        }
      ],
      "name": "BurnEvent",
      "type": "event"
    },
    {
      "anonymous": false,
      "inputs": [
        {
          "indexed": true,
          "internalType": "uint256",
          "name": "fromTokenId",
          "type": "uint256"
        },
        {
          "indexed": false,
          "internalType": "uint256",
          "name": "toTokenId",
          "type": "uint256"
        },
        {
          "indexed": true,
          "internalType": "address",
          "name": "from",
          "type": "address"
        },
        {
          "indexed": true,
          "internalType": "address",
          "name": "to",
          "type": "address"
        }
      ],
      "name": "ConsecutiveTransfer",
      "type": "event"
    },
    {
      "anonymous": false,
      "inputs": [
        {
          "indexed": false,
          "internalType": "string",
          "name": "",
          "type": "string"
        },
        {
          "indexed": false,
          "internalType": "address",
          "name": "",
          "type": "address"
        }
      ],
      "name": "Log",
      "type": "event"
    },
    {
      "anonymous": false,
      "inputs": [
        {
          "indexed": false,
          "internalType": "string",
          "name": "",
          "type": "string"
        },
        {
          "indexed": false,
          "internalType": "uint256",
          "name": "",
          "type": "uint256"
        }
      ],
      "name": "Log",
      "type": "event"
    },
    {
      "anonymous": false,
      "inputs": [
        {
          "indexed": true,
          "internalType": "address",
          "name": "sender",
          "type": "address"
        },
        {
          "indexed": false,
          "internalType": "uint256",
          "name": "value",
          "type": "uint256"
        },
        {
          "indexed": false,
          "internalType": "address",
          "name": "to",
          "type": "address"
        },
        {
          "indexed": false,
          "internalType": "uint256",
          "name": "amount",
          "type": "uint256"
        },
        {
          "indexed": false,
          "internalType": "uint256",
          "name": "mintPrice",
          "type": "uint256"
        }
      ],
      "name": "MintEvent",
      "type": "event"
    },
    {
      "anonymous": false,
      "inputs": [
        {
          "indexed": false,
          "internalType": "uint256",
          "name": "",
          "type": "uint256"
        }
      ],
      "name": "NewMaxSupply",
      "type": "event"
    },
    {
      "anonymous": false,
      "inputs": [
        {
          "indexed": true,
          "internalType": "address",
          "name": "sender",
          "type": "address"
        },
        {
          "indexed": false,
          "internalType": "uint256",
          "name": "value",
          "type": "uint256"
        },
        {
          "indexed": false,
          "internalType": "address",
          "name": "to",
          "type": "address"
        },
        {
          "indexed": false,
          "internalType": "uint256",
          "name": "amount",
          "type": "uint256"
        },
        {
          "indexed": false,
          "internalType": "uint256",
          "name": "_ogMintPrice",
          "type": "uint256"
        }
      ],
      "name": "OGmintEvent",
      "type": "event"
    },
    {
      "anonymous": false,
      "inputs": [
        {
          "indexed": true,
          "internalType": "address",
          "name": "sender",
          "type": "address"
        },
        {
          "indexed": false,
          "internalType": "address",
          "name": "to",
          "type": "address"
        },
        {
          "indexed": false,
          "internalType": "uint256",
          "name": "amount",
          "type": "uint256"
        }
      ],
      "name": "OwnerMintEvent",
      "type": "event"
    },
    {
      "anonymous": false,
      "inputs": [],
      "name": "PublicStageUpdate",
      "type": "event"
    },
    {
      "anonymous": false,
      "inputs": [
        {
          "indexed": true,
          "internalType": "bytes32",
          "name": "role",
          "type": "bytes32"
        },
        {
          "indexed": true,
          "internalType": "bytes32",
          "name": "previousAdminRole",
          "type": "bytes32"
        },
        {
          "indexed": true,
          "internalType": "bytes32",
          "name": "newAdminRole",
          "type": "bytes32"
        }
      ],
      "name": "RoleAdminChanged",
      "type": "event"
    },
    {
      "anonymous": false,
      "inputs": [
        {
          "indexed": true,
          "internalType": "bytes32",
          "name": "role",
          "type": "bytes32"
        },
        {
          "indexed": true,
          "internalType": "address",
          "name": "account",
          "type": "address"
        },
        {
          "indexed": true,
          "internalType": "address",
          "name": "sender",
          "type": "address"
        }
      ],
      "name": "RoleGranted",
      "type": "event"
    },
    {
      "anonymous": false,
      "inputs": [
        {
          "indexed": true,
          "internalType": "bytes32",
          "name": "role",
          "type": "bytes32"
        },
        {
          "indexed": true,
          "internalType": "address",
          "name": "account",
          "type": "address"
        },
        {
          "indexed": true,
          "internalType": "address",
          "name": "sender",
          "type": "address"
        }
      ],
      "name": "RoleRevoked",
      "type": "event"
    },
    {
      "anonymous": false,
      "inputs": [
        {
          "indexed": true,
          "internalType": "address",
          "name": "sender",
          "type": "address"
        },
        {
          "indexed": false,
          "internalType": "address",
          "name": "receiver",
          "type": "address"
        },
        {
          "indexed": false,
          "internalType": "uint96",
          "name": "royaltyFee",
          "type": "uint96"
        }
      ],
      "name": "RoyaltyFeeUpdate",
      "type": "event"
    },
    {
      "anonymous": false,
      "inputs": [
        {
          "indexed": true,
          "internalType": "address",
          "name": "from",
          "type": "address"
        },
        {
          "indexed": true,
          "internalType": "address",
          "name": "to",
          "type": "address"
        },
        {
          "indexed": true,
          "internalType": "uint256",
          "name": "tokenId",
          "type": "uint256"
        }
      ],
      "name": "Transfer",
      "type": "event"
    },
    {
      "anonymous": false,
      "inputs": [
        {
          "indexed": true,
          "internalType": "address",
          "name": "sender",
          "type": "address"
        },
        {
          "indexed": false,
          "internalType": "uint256",
          "name": "listLength",
          "type": "uint256"
        }
      ],
      "name": "UpdateOgEvent",
      "type": "event"
    },
    {
      "anonymous": false,
      "inputs": [
        {
          "indexed": true,
          "internalType": "address",
          "name": "sender",
          "type": "address"
        },
        {
          "indexed": false,
          "internalType": "uint256",
          "name": "listLength",
          "type": "uint256"
        }
      ],
      "name": "UpdateWLevent",
      "type": "event"
    },
    {
      "anonymous": false,
      "inputs": [
        {
          "indexed": true,
          "internalType": "address",
          "name": "sender",
          "type": "address"
        },
        {
          "indexed": false,
          "internalType": "uint256",
          "name": "value",
          "type": "uint256"
        },
        {
          "indexed": false,
          "internalType": "address",
          "name": "to",
          "type": "address"
        },
        {
          "indexed": false,
          "internalType": "uint256",
          "name": "amount",
          "type": "uint256"
        },
        {
          "indexed": false,
          "internalType": "uint256",
          "name": "wlMintPrice",
          "type": "uint256"
        }
      ],
      "name": "WLmintEvent",
      "type": "event"
    },
    {
      "anonymous": false,
      "inputs": [
        {
          "indexed": false,
          "internalType": "address",
          "name": "sender",
          "type": "address"
        },
        {
          "indexed": false,
          "internalType": "uint256",
          "name": "balance",
          "type": "uint256"
        },
        {
          "indexed": false,
          "internalType": "address",
          "name": "feeReceiver",
          "type": "address"
        },
        {
          "indexed": false,
          "internalType": "uint256",
          "name": "fee",
          "type": "uint256"
        }
      ],
      "name": "WithdrawEvent",
      "type": "event"
    },
    {
      "inputs": [],
      "name": "ADMIN_ROLE",
      "outputs": [
        {
          "internalType": "bytes32",
          "name": "",
          "type": "bytes32"
        }
      ],
      "stateMutability": "view",
      "type": "function"
    },
    {
      "inputs": [],
      "name": "DEFAULT_ADMIN_ROLE",
      "outputs": [
        {
          "internalType": "bytes32",
          "name": "",
          "type": "bytes32"
        }
      ],
      "stateMutability": "view",
      "type": "function"
    },
    {
      "inputs": [],
      "name": "OG_MINTER_ROLE",
      "outputs": [
        {
          "internalType": "bytes32",
          "name": "",
          "type": "bytes32"
        }
      ],
      "stateMutability": "view",
      "type": "function"
    },
    {
      "inputs": [],
      "name": "OPERATOR_ROLE",
      "outputs": [
        {
          "internalType": "bytes32",
          "name": "",
          "type": "bytes32"
        }
      ],
      "stateMutability": "view",
      "type": "function"
    },
    {
      "inputs": [],
      "name": "WL_MINTER_ROLE",
      "outputs": [
        {
          "internalType": "bytes32",
          "name": "",
          "type": "bytes32"
        }
      ],
      "stateMutability": "view",
      "type": "function"
    },
    {
      "inputs": [
        {
          "internalType": "address",
          "name": "to",
          "type": "address"
        },
        {
          "internalType": "uint256",
          "name": "tokenId",
          "type": "uint256"
        }
      ],
      "name": "approve",
      "outputs": [],
      "stateMutability": "payable",
      "type": "function"
    },
    {
      "inputs": [
        {
          "internalType": "address",
          "name": "owner",
          "type": "address"
        }
      ],
      "name": "balanceOf",
      "outputs": [
        {
          "internalType": "uint256",
          "name": "",
          "type": "uint256"
        }
      ],
      "stateMutability": "view",
      "type": "function"
    },
    {
      "inputs": [],
      "name": "baseURI",
      "outputs": [
        {
          "internalType": "string",
          "name": "",
          "type": "string"
        }
      ],
      "stateMutability": "view",
      "type": "function"
    },
    {
      "inputs": [
        {
          "internalType": "uint256",
          "name": "_tokenId",
          "type": "uint256"
        }
      ],
      "name": "burn",
      "outputs": [],
      "stateMutability": "nonpayable",
      "type": "function"
    },
    {
      "inputs": [],
      "name": "collectionData",
      "outputs": [
        {
          "internalType": "string",
          "name": "name",
          "type": "string"
        },
        {
          "internalType": "string",
          "name": "symbol",
          "type": "string"
        },
        {
          "internalType": "string",
          "name": "baseURI",
          "type": "string"
        },
        {
          "internalType": "string",
          "name": "baseExt",
          "type": "string"
        },
        {
          "internalType": "address",
          "name": "royaltyReceiver",
          "type": "address"
        },
        {
          "internalType": "uint128",
          "name": "maxSupply",
          "type": "uint128"
        },
        {
          "internalType": "uint128",
          "name": "royaltyFee",
          "type": "uint128"
        }
      ],
      "stateMutability": "view",
      "type": "function"
    },
    {
      "inputs": [
        {
          "internalType": "uint256",
          "name": "tokenId",
          "type": "uint256"
        }
      ],
      "name": "getApproved",
      "outputs": [
        {
          "internalType": "address",
          "name": "",
          "type": "address"
        }
      ],
      "stateMutability": "view",
      "type": "function"
    },
    {
      "inputs": [
        {
          "internalType": "bytes4",
          "name": "mintType",
          "type": "bytes4"
        },
        {
          "internalType": "address",
          "name": "_user",
          "type": "address"
        }
      ],
      "name": "getMintCountOf",
      "outputs": [
        {
          "internalType": "uint256",
          "name": "",
          "type": "uint256"
        }
      ],
      "stateMutability": "view",
      "type": "function"
    },
    {
      "inputs": [
        {
          "internalType": "bytes32",
          "name": "role",
          "type": "bytes32"
        }
      ],
      "name": "getRoleAdmin",
      "outputs": [
        {
          "internalType": "bytes32",
          "name": "",
          "type": "bytes32"
        }
      ],
      "stateMutability": "view",
      "type": "function"
    },
    {
      "inputs": [
        {
          "internalType": "bytes32",
          "name": "role",
          "type": "bytes32"
        },
        {
          "internalType": "address",
          "name": "account",
          "type": "address"
        }
      ],
      "name": "grantRole",
      "outputs": [],
      "stateMutability": "nonpayable",
      "type": "function"
    },
    {
      "inputs": [
        {
          "internalType": "bytes32",
          "name": "role",
          "type": "bytes32"
        },
        {
          "internalType": "address",
          "name": "account",
          "type": "address"
        }
      ],
      "name": "hasRole",
      "outputs": [
        {
          "internalType": "bool",
          "name": "",
          "type": "bool"
        }
      ],
      "stateMutability": "view",
      "type": "function"
    },
    {
      "inputs": [],
      "name": "initalized",
      "outputs": [
        {
          "internalType": "bool",
          "name": "",
          "type": "bool"
        }
      ],
      "stateMutability": "view",
      "type": "function"
    },
    {
      "inputs": [
        {
          "components": [
            {
              "internalType": "string",
              "name": "name",
              "type": "string"
            },
            {
              "internalType": "string",
              "name": "symbol",
              "type": "string"
            },
            {
              "internalType": "string",
              "name": "baseURI",
              "type": "string"
            },
            {
              "internalType": "string",
              "name": "baseExt",
              "type": "string"
            },
            {
              "internalType": "address",
              "name": "royaltyReceiver",
              "type": "address"
            },
            {
              "internalType": "uint128",
              "name": "maxSupply",
              "type": "uint128"
            },
            {
              "internalType": "uint128",
              "name": "royaltyFee",
              "type": "uint128"
            }
          ],
          "internalType": "struct Collection",
          "name": "_nftData",
          "type": "tuple"
        },
        {
          "components": [
            {
              "internalType": "bool",
              "name": "isMaxSupplyUpdatable",
              "type": "bool"
            },
            {
              "internalType": "uint72",
              "name": "ogMintPrice",
              "type": "uint72"
            },
            {
              "internalType": "uint72",
              "name": "whitelistMintPrice",
              "type": "uint72"
            },
            {
              "internalType": "uint72",
              "name": "mintPrice",
              "type": "uint72"
            },
            {
              "internalType": "uint16",
              "name": "mintMaxPerUser",
              "type": "uint16"
            },
            {
              "internalType": "uint16",
              "name": "ogMintMaxPerUser",
              "type": "uint16"
            },
            {
              "internalType": "uint40",
              "name": "mintStart",
              "type": "uint40"
            },
            {
              "internalType": "uint40",
              "name": "mintEnd",
              "type": "uint40"
            },
            {
              "internalType": "uint40",
              "name": "ogMintStart",
              "type": "uint40"
            },
            {
              "internalType": "uint40",
              "name": "ogMintEnd",
              "type": "uint40"
            },
            {
              "internalType": "uint40",
              "name": "whitelistMintStart",
              "type": "uint40"
            },
            {
              "internalType": "uint40",
              "name": "whitelistMintEnd",
              "type": "uint40"
            },
            {
              "internalType": "uint16",
              "name": "whitelistMintMaxPerUser",
              "type": "uint16"
            }
          ],
          "internalType": "struct Stages",
          "name": "_mintingStages",
          "type": "tuple"
        },
        {
          "internalType": "address[]",
          "name": "_ogs",
          "type": "address[]"
        },
        {
          "internalType": "address[]",
          "name": "_wls",
          "type": "address[]"
        }
      ],
      "name": "initialize",
      "outputs": [],
      "stateMutability": "nonpayable",
      "type": "function"
    },
    {
      "inputs": [
        {
          "internalType": "address",
          "name": "owner",
          "type": "address"
        },
        {
          "internalType": "address",
          "name": "operator",
          "type": "address"
        }
      ],
      "name": "isApprovedForAll",
      "outputs": [
        {
          "internalType": "bool",
          "name": "",
          "type": "bool"
        }
      ],
      "stateMutability": "view",
      "type": "function"
    },
    {
      "inputs": [
        {
          "internalType": "address",
          "name": "_to",
          "type": "address"
        },
        {
          "internalType": "uint256",
          "name": "_amount",
          "type": "uint256"
        }
      ],
      "name": "mintForOG",
      "outputs": [],
      "stateMutability": "payable",
      "type": "function"
    },
    {
      "inputs": [
        {
          "internalType": "address",
          "name": "_to",
          "type": "address"
        },
        {
          "internalType": "uint256",
          "name": "_amount",
          "type": "uint256"
        }
      ],
      "name": "mintForOwner",
      "outputs": [],
      "stateMutability": "payable",
      "type": "function"
    },
    {
      "inputs": [
        {
          "internalType": "address",
          "name": "_to",
          "type": "address"
        },
        {
          "internalType": "uint256",
          "name": "_amount",
          "type": "uint256"
        }
      ],
      "name": "mintForRegular",
      "outputs": [],
      "stateMutability": "payable",
      "type": "function"
    },
    {
      "inputs": [
        {
          "internalType": "address",
          "name": "_to",
          "type": "address"
        },
        {
          "internalType": "uint256",
          "name": "_amount",
          "type": "uint256"
        }
      ],
      "name": "mintForWhitelist",
      "outputs": [],
      "stateMutability": "payable",
      "type": "function"
    },
    {
      "inputs": [],
      "name": "mintingStages",
      "outputs": [
        {
          "internalType": "bool",
          "name": "isMaxSupplyUpdatable",
          "type": "bool"
        },
        {
          "internalType": "uint72",
          "name": "ogMintPrice",
          "type": "uint72"
        },
        {
          "internalType": "uint72",
          "name": "whitelistMintPrice",
          "type": "uint72"
        },
        {
          "internalType": "uint72",
          "name": "mintPrice",
          "type": "uint72"
        },
        {
          "internalType": "uint16",
          "name": "mintMaxPerUser",
          "type": "uint16"
        },
        {
          "internalType": "uint16",
          "name": "ogMintMaxPerUser",
          "type": "uint16"
        },
        {
          "internalType": "uint40",
          "name": "mintStart",
          "type": "uint40"
        },
        {
          "internalType": "uint40",
          "name": "mintEnd",
          "type": "uint40"
        },
        {
          "internalType": "uint40",
          "name": "ogMintStart",
          "type": "uint40"
        },
        {
          "internalType": "uint40",
          "name": "ogMintEnd",
          "type": "uint40"
        },
        {
          "internalType": "uint40",
          "name": "whitelistMintStart",
          "type": "uint40"
        },
        {
          "internalType": "uint40",
          "name": "whitelistMintEnd",
          "type": "uint40"
        },
        {
          "internalType": "uint16",
          "name": "whitelistMintMaxPerUser",
          "type": "uint16"
        }
      ],
      "stateMutability": "view",
      "type": "function"
    },
    {
      "inputs": [
        {
          "internalType": "address",
          "name": "",
          "type": "address"
        },
        {
          "internalType": "bytes4",
          "name": "",
          "type": "bytes4"
        }
      ],
      "name": "mintsPerWallet",
      "outputs": [
        {
          "internalType": "uint256",
          "name": "",
          "type": "uint256"
        }
      ],
      "stateMutability": "view",
      "type": "function"
    },
    {
      "inputs": [],
      "name": "name",
      "outputs": [
        {
          "internalType": "string",
          "name": "",
          "type": "string"
        }
      ],
      "stateMutability": "view",
      "type": "function"
    },
    {
      "inputs": [
        {
          "internalType": "uint256",
          "name": "tokenId",
          "type": "uint256"
        }
      ],
      "name": "ownerOf",
      "outputs": [
        {
          "internalType": "address",
          "name": "",
          "type": "address"
        }
      ],
      "stateMutability": "view",
      "type": "function"
    },
    {
      "inputs": [],
      "name": "platformFee",
      "outputs": [
        {
          "internalType": "uint16",
          "name": "",
          "type": "uint16"
        }
      ],
      "stateMutability": "view",
      "type": "function"
    },
    {
      "inputs": [],
      "name": "platformFeeReceiver",
      "outputs": [
        {
          "internalType": "address",
          "name": "",
          "type": "address"
        }
      ],
      "stateMutability": "view",
      "type": "function"
    },
    {
      "inputs": [],
      "name": "publicStageWeeks",
      "outputs": [
        {
          "internalType": "uint8",
          "name": "",
          "type": "uint8"
        }
      ],
      "stateMutability": "view",
      "type": "function"
    },
    {
      "inputs": [
        {
          "internalType": "bytes32",
          "name": "role",
          "type": "bytes32"
        },
        {
          "internalType": "address",
          "name": "account",
          "type": "address"
        }
      ],
      "name": "renounceRole",
      "outputs": [],
      "stateMutability": "nonpayable",
      "type": "function"
    },
    {
      "inputs": [
        {
          "internalType": "bytes32",
          "name": "role",
          "type": "bytes32"
        },
        {
          "internalType": "address",
          "name": "account",
          "type": "address"
        }
      ],
      "name": "revokeRole",
      "outputs": [],
      "stateMutability": "nonpayable",
      "type": "function"
    },
    {
      "inputs": [
        {
          "internalType": "uint256",
          "name": "tokenId",
          "type": "uint256"
        },
        {
          "internalType": "uint256",
          "name": "_salePrice",
          "type": "uint256"
        }
      ],
      "name": "royaltyInfo",
      "outputs": [
        {
          "internalType": "address",
          "name": "",
          "type": "address"
        },
        {
          "internalType": "uint256",
          "name": "",
          "type": "uint256"
        }
      ],
      "stateMutability": "view",
      "type": "function"
    },
    {
      "inputs": [
        {
          "internalType": "address",
          "name": "from",
          "type": "address"
        },
        {
          "internalType": "address",
          "name": "to",
          "type": "address"
        },
        {
          "internalType": "uint256",
          "name": "tokenId",
          "type": "uint256"
        }
      ],
      "name": "safeTransferFrom",
      "outputs": [],
      "stateMutability": "payable",
      "type": "function"
    },
    {
      "inputs": [
        {
          "internalType": "address",
          "name": "from",
          "type": "address"
        },
        {
          "internalType": "address",
          "name": "to",
          "type": "address"
        },
        {
          "internalType": "uint256",
          "name": "tokenId",
          "type": "uint256"
        },
        {
          "internalType": "bytes",
          "name": "_data",
          "type": "bytes"
        }
      ],
      "name": "safeTransferFrom",
      "outputs": [],
      "stateMutability": "payable",
      "type": "function"
    },
    {
      "inputs": [
        {
          "internalType": "address",
          "name": "operator",
          "type": "address"
        },
        {
          "internalType": "bool",
          "name": "approved",
          "type": "bool"
        }
      ],
      "name": "setApprovalForAll",
      "outputs": [],
      "stateMutability": "nonpayable",
      "type": "function"
    },
    {
      "inputs": [
        {
          "internalType": "string",
          "name": "_newBaseExtension",
          "type": "string"
        }
      ],
      "name": "setBaseExtension",
      "outputs": [],
      "stateMutability": "nonpayable",
      "type": "function"
    },
    {
      "inputs": [
        {
          "internalType": "string",
          "name": "_newBaseURI",
          "type": "string"
        }
      ],
      "name": "setBaseURI",
      "outputs": [],
      "stateMutability": "nonpayable",
      "type": "function"
    },
    {
      "inputs": [
        {
          "internalType": "bytes4",
          "name": "_interfaceId",
          "type": "bytes4"
        }
      ],
      "name": "supportsInterface",
      "outputs": [
        {
          "internalType": "bool",
          "name": "",
          "type": "bool"
        }
      ],
      "stateMutability": "view",
      "type": "function"
    },
    {
      "inputs": [],
      "name": "symbol",
      "outputs": [
        {
          "internalType": "string",
          "name": "",
          "type": "string"
        }
      ],
      "stateMutability": "view",
      "type": "function"
    },
    {
      "inputs": [
        {
          "internalType": "uint256",
          "name": "_tokenId",
          "type": "uint256"
        }
      ],
      "name": "tokenURI",
      "outputs": [
        {
          "internalType": "string",
          "name": "",
          "type": "string"
        }
      ],
      "stateMutability": "view",
      "type": "function"
    },
    {
      "inputs": [],
      "name": "totalSupply",
      "outputs": [
        {
          "internalType": "uint256",
          "name": "",
          "type": "uint256"
        }
      ],
      "stateMutability": "view",
      "type": "function"
    },
    {
      "inputs": [
        {
          "internalType": "address",
          "name": "from",
          "type": "address"
        },
        {
          "internalType": "address",
          "name": "to",
          "type": "address"
        },
        {
          "internalType": "uint256",
          "name": "tokenId",
          "type": "uint256"
        }
      ],
      "name": "transferFrom",
      "outputs": [],
      "stateMutability": "payable",
      "type": "function"
    },
    {
      "inputs": [
        {
          "internalType": "uint128",
          "name": "_newMax",
          "type": "uint128"
        }
      ],
      "name": "updateMaxSupply",
      "outputs": [],
      "stateMutability": "nonpayable",
      "type": "function"
    },
    {
      "inputs": [
        {
          "internalType": "uint16",
          "name": "_mintMax",
          "type": "uint16"
        }
      ],
      "name": "updateMintMax",
      "outputs": [],
      "stateMutability": "nonpayable",
      "type": "function"
    },
    {
      "inputs": [
        {
          "internalType": "uint72",
          "name": "_mintPrice",
          "type": "uint72"
        }
      ],
      "name": "updateMintPrice",
      "outputs": [],
      "stateMutability": "nonpayable",
      "type": "function"
    },
    {
      "inputs": [
        {
          "internalType": "address[]",
          "name": "_minterList",
          "type": "address[]"
        },
        {
          "internalType": "uint8",
          "name": "_mintRole",
          "type": "uint8"
        }
      ],
      "name": "updateMinterRoles",
      "outputs": [],
      "stateMutability": "nonpayable",
      "type": "function"
    },
    {
      "inputs": [
        {
          "internalType": "uint16",
          "name": "_ogMintMax",
          "type": "uint16"
        }
      ],
      "name": "updateOGMintMax",
      "outputs": [],
      "stateMutability": "nonpayable",
      "type": "function"
    },
    {
      "inputs": [
        {
          "internalType": "uint72",
          "name": "_price",
          "type": "uint72"
        }
      ],
      "name": "updateOGMintPrice",
      "outputs": [],
      "stateMutability": "nonpayable",
      "type": "function"
    },
    {
      "inputs": [
        {
          "internalType": "uint8",
          "name": "_weeks",
          "type": "uint8"
        }
      ],
      "name": "updatePublicEndTime",
      "outputs": [],
      "stateMutability": "payable",
      "type": "function"
    },
    {
      "inputs": [
        {
          "internalType": "address",
          "name": "_receiver",
          "type": "address"
        },
        {
          "internalType": "uint96",
          "name": "_royaltyFee",
          "type": "uint96"
        }
      ],
      "name": "updateRoyaltyInfo",
      "outputs": [],
      "stateMutability": "nonpayable",
      "type": "function"
    },
    {
      "inputs": [],
      "name": "updateStageFee",
      "outputs": [
        {
          "internalType": "uint72",
          "name": "",
          "type": "uint72"
        }
      ],
      "stateMutability": "view",
      "type": "function"
    },
    {
      "inputs": [
        {
          "internalType": "uint16",
          "name": "_whitelistMintMax",
          "type": "uint16"
        }
      ],
      "name": "updateWLMintMax",
      "outputs": [],
      "stateMutability": "nonpayable",
      "type": "function"
    },
    {
      "inputs": [
        {
          "internalType": "uint72",
          "name": "_whitelistMintPrice",
          "type": "uint72"
        }
      ],
      "name": "updateWhitelistMintPrice",
      "outputs": [],
      "stateMutability": "nonpayable",
      "type": "function"
    },
    {
      "inputs": [],
      "name": "version",
      "outputs": [
        {
          "internalType": "uint8",
          "name": "_version",
          "type": "uint8"
        }
      ],
      "stateMutability": "pure",
      "type": "function"
    },
    {
      "inputs": [],
      "name": "withdraw",
      "outputs": [],
      "stateMutability": "payable",
      "type": "function"
    }
  ],
  "bytecode": "0x60806040526013805460ff19169055348015610019575f80fd5b50614395806100275f395ff3fe608060405260043610610341575f3560e01c806355f804b3116101bd578063a22cb465116100f2578063c87b56dd11610092578063da3ef23f1161006d578063da3ef23f14610ab6578063e985e9c514610ad5578063f2cca28f14610b1c578063f5b541a614610b3b575f80fd5b8063c87b56dd14610a2e578063cf15a37c14610a4d578063d547741f14610a97575f80fd5b8063b0338f2e116100cd578063b0338f2e146109bd578063b4091aca146109dd578063b88d4fde146109fc578063c712bcff14610a0f575f80fd5b8063a22cb46514610955578063a8c3182b14610974578063abc5671314610987575f80fd5b80637ab06c121161015d57806391d148541161013857806391d14854146108e857806395d89b41146109075780639c89a7b31461091b578063a217fddf14610942575f80fd5b80637ab06c12146108965780637faf476d146108a957806381f4a0b5146108c8575f80fd5b806368c16b221161019857806368c16b22146108055780636c0360eb1461084357806370a082311461085757806375b238fc14610876575f80fd5b806355f804b3146107ae5780635be1a091146107cd5780636352211e146107e6575f80fd5b80632a55205a1161029357806342842e0e116102335780634695b37b1161020e5780634695b37b1461073c578063515571a21461075b57806353b859df1461077a57806354fd4d501461078d575f80fd5b806342842e0e146106eb57806342966c68146106fe5780634464f7771461071d575f80fd5b806336568abe1161026e57806336568abe146106865780633808267e146106a55780633ccfd60b146106c4578063411c4442146106cc575f80fd5b80632a55205a1461060a5780632d656ad7146106485780632f2ff15d14610667575f80fd5b80630e208d08116102fe5780631a8f4193116102d95780631a8f41931461047557806323b872dd14610595578063248a9ca3146105a857806326232a2e146105d6575f80fd5b80630e208d081461040c578063172cf75f1461042b57806318160ddd14610459575f80fd5b80630107e23e146103455780630167f3c51461035a57806301ffc9a71461036d57806306fdde03146103a1578063081812fc146103c2578063095ea7b3146103f9575b5f80fd5b610358610353366004613482565b610b5b565b005b6103586103683660046134af565b610d2b565b348015610378575f80fd5b5061038c6103873660046134ee565b610e18565b60405190151581526020015b60405180910390f35b3480156103ac575f80fd5b506103b5610e5d565b6040516103989190613556565b3480156103cd575f80fd5b506103e16103dc366004613568565b610eed565b6040516001600160a01b039091168152602001610398565b6103586104073660046134af565b610f26565b348015610417575f80fd5b50610358610426366004613593565b610f36565b348015610436575f80fd5b5061044b5f8051602061434083398151915281565b604051908152602001610398565b348015610464575f80fd5b5061044b600254600154035f190190565b348015610480575f80fd5b50600a54600b5461050e9160ff8116916001600160481b036101008304811692600160501b808204831693600160981b83049093169261ffff600160e01b8404811693600160f01b9081900482169364ffffffffff80851694600160281b8104821694928104821693600160781b8204831693600160a01b8304841693600160c81b8404169291909104168d565b604080519d15158e526001600160481b039c8d1660208f01529a8c169a8d019a909a529990971660608b015261ffff95861660808b015293851660a08a015264ffffffffff92831660c08a015290821660e089015281166101008801529081166101208701529182166101408601529216610160840152166101808201526101a001610398565b6103586105a33660046135ae565b611037565b3480156105b3575f80fd5b5061044b6105c2366004613568565b5f9081526020819052604090206001015490565b3480156105e1575f80fd5b506012546105f790600160e81b900461ffff1681565b60405161ffff9091168152602001610398565b348015610615575f80fd5b506106296106243660046135ec565b61119c565b604080516001600160a01b039093168352602083019190915201610398565b348015610653575f80fd5b506012546103e1906001600160a01b031681565b348015610672575f80fd5b5061035861068136600461360c565b6111e6565b348015610691575f80fd5b506103586106a036600461360c565b61120f565b3480156106b0575f80fd5b506103586106bf36600461364b565b611289565b610358611344565b3480156106d7575f80fd5b506103586106e6366004613664565b611595565b6103586106f93660046135ae565b611611565b348015610709575f80fd5b50610358610718366004613568565b61162b565b348015610728575f80fd5b506103586107373660046136db565b6116b8565b348015610747575f80fd5b5061035861075636600461364b565b611b1b565b348015610766575f80fd5b506103586107753660046137a8565b611bd6565b6103586107883660046134af565b611c78565b348015610798575f80fd5b5060025b60405160ff9091168152602001610398565b3480156107b9575f80fd5b506103586107c8366004613870565b611d63565b3480156107d8575f80fd5b5060135461038c9060ff1681565b3480156107f1575f80fd5b506103e1610800366004613568565b611d6f565b348015610810575f80fd5b5060125461082b90600160a01b90046001600160481b031681565b6040516001600160481b039091168152602001610398565b34801561084e575f80fd5b506103b5611d79565b348015610862575f80fd5b5061044b6108713660046138b4565b611d88565b348015610881575f80fd5b5061044b5f8051602061432083398151915281565b6103586108a43660046134af565b611dcb565b3480156108b4575f80fd5b506103586108c33660046137a8565b611e90565b3480156108d3575f80fd5b5060125461079c90600160f81b900460ff1681565b3480156108f3575f80fd5b5061038c61090236600461360c565b611f36565b348015610912575f80fd5b506103b5611f5e565b348015610926575f80fd5b5061092f611f6d565b60405161039897969594939291906138cf565b34801561094d575f80fd5b5061044b5f81565b348015610960575f80fd5b5061035861096f36600461395d565b6121cb565b6103586109823660046134af565b612236565b348015610992575f80fd5b5061044b6109a1366004613990565b600960209081525f928352604080842090915290825290205481565b3480156109c8575f80fd5b5061044b5f805160206142e083398151915281565b3480156109e8575f80fd5b506103586109f73660046137a8565b612315565b610358610a0a3660046139bc565b6123bb565b348015610a1a575f80fd5b50610358610a2936600461364b565b6123f6565b348015610a39575f80fd5b506103b5610a48366004613568565b6124b1565b348015610a58575f80fd5b5061044b610a67366004613a36565b6001600160a01b03165f9081526009602090815260408083206001600160e01b0319949094168352929052205490565b348015610aa2575f80fd5b50610358610ab136600461360c565b612535565b348015610ac1575f80fd5b50610358610ad0366004613870565b612559565b348015610ae0575f80fd5b5061038c610aef366004613a62565b6001600160a01b039182165f90815260086020908152604080832093909416825291909152205460ff1690565b348015610b27575f80fd5b50610358610b36366004613a7e565b612565565b348015610b46575f80fd5b5061044b5f8051602061430083398151915281565b610b725f8051602061432083398151915233611f36565b80610b8f5750610b8f5f8051602061430083398151915233611f36565b610bb45760405162461bcd60e51b8152600401610bab90613acd565b60405180910390fd5b60125460ff600160f81b9091048116908216811015610be95760405163b78065e960e01b815260016004820152602401610bab565b6012543490600160a01b90046001600160481b0316811015610c215760405163b78065e960e01b815260026004820152602401610bab565b6012546040515f916001600160a01b03169083908381818185875af1925050503d805f8114610c6b576040519150601f19603f3d011682016040523d82523d5f602084013e610c70565b606091505b5050905080610c955760405163b78065e960e01b815260036004820152602401610bab565b600b8054601280546001600160f81b0316600160f81b60ff8989038116919091029190911790915569ffffffffff000000000019821660078802909116620151800262ffffff16600160281b9283900464ffffffffff90811691909101908116909202179091556040517f364e225418b7ee601cf610faa00843fb274c2648cc61ab3c3752cdb78a6b11a6905f90a15050505050565b5f805160206142e0833981519152610d4281612709565b600a54614f4760f01b90610d649061010090046001600160481b031684613b11565b341015610d8857805f604051632dadc8a160e01b8152600401610bab929190613b28565b600a54600b54610dc1918691869161ffff600160f01b909104169064ffffffffff600160501b8204811691600160781b90041686612716565b600a5460405133917f12868c3639cc6f45bf88ecdaf9a5a315a966c89339b502a13c32758761b8149491610e0a913491899189916101009091046001600160481b031690613b45565b60405180910390a250505050565b5f6001600160e01b0319821663184371e560e31b1480610e4857506001600160e01b0319821663152a902d60e11b145b80610e575750610e57826128ea565b92915050565b606060038054610e6c90613b72565b80601f0160208091040260200160405190810160405280929190818152602001828054610e9890613b72565b8015610ee35780601f10610eba57610100808354040283529160200191610ee3565b820191905f5260205f20905b815481529060010190602001808311610ec657829003601f168201915b5050505050905090565b5f610ef782612937565b610f0b57610f0b6333d1c03960e21b612982565b505f908152600760205260409020546001600160a01b031690565b610f328282600161298a565b5050565b5f80516020614320833981519152610f4d81612709565b600a5460ff16610f7357604051632a755e6760e11b815260016004820152602401610bab565b6011546001600160801b039081169083161015610fa657604051632a755e6760e11b815260026004820152602401610bab565b610fb6600254600154035f190190565b826001600160801b03161015610fe257604051632a755e6760e11b815260036004820152602401610bab565b601180546001600160801b0319166001600160801b0384169081179091556040519081527f870e95cc902be0a1f894ff08bb13ab98999fdb581790629f18dd80eb4da06cca9060200160405180910390a15050565b5f61104182612a2b565b6001600160a01b0394851694909150811684146110675761106762a1148160e81b612982565b5f82815260076020526040902080546110928187335b6001600160a01b039081169116811491141790565b6110b4576110a08633610aef565b6110b4576110b4632ce44b5f60e11b612982565b80156110be575f82555b6001600160a01b038681165f9081526006602052604080822080545f19019055918716808252919020805460010190554260a01b17600160e11b175f85815260056020526040812091909155600160e11b8416900361114b57600184015f818152600560205260408120549003611149576001548114611149575f8181526005602052604090208490555b505b6001600160a01b0385168481887fddf252ad1be2c89b69c2b068fc378daa952ba7f163c4a11628f55a4df523b3ef5f80a4805f0361119357611193633a954ecd60e21b612982565b50505050505050565b6010546011545f9182916001600160a01b0390911690612710906111d090600160801b90046001600160801b031686613b11565b6111da9190613baa565b915091505b9250929050565b5f8281526020819052604090206001015461120081612709565b61120a8383612ac6565b505050565b6001600160a01b038116331461127f5760405162461bcd60e51b815260206004820152602f60248201527f416363657373436f6e74726f6c3a2063616e206f6e6c792072656e6f756e636560448201526e103937b632b9903337b91039b2b63360891b6064820152608401610bab565b610f328282612b2c565b6112a05f8051602061432083398151915233611f36565b806112bd57506112bd5f8051602061430083398151915233611f36565b6112d95760405162461bcd60e51b8152600401610bab90613acd565b5f8161ffff16116113215760405162461bcd60e51b8152602060048201526012602482015271125b9d985b1a59081b585e08185b5bdd5b9d60721b6044820152606401610bab565b600b805461ffff909216600160f01b026001600160f01b03909216919091179055565b5f8051602061432083398151915261135b81612709565b60125433906001600160a01b03811690600160e81b900461ffff1680156114db576012545f906127109061139a90600160e81b900461ffff1647613b11565b6113a49190613baa565b90505f836001600160a01b0316826040515f6040518083038185875af1925050503d805f81146113ef576040519150601f19603f3d011682016040523d82523d5f602084013e6113f4565b606091505b505090508061141857604051631d22aaa960e31b81525f6004820152602401610bab565b60405147905f906001600160a01b0388169083908381818185875af1925050503d805f8114611462576040519150601f19603f3d011682016040523d82523d5f602084013e611467565b606091505b505090508061148c57604051631d22aaa960e31b815260016004820152602401610bab565b7f7e27a75faf6b8f74ec66364c1d23167ad5a538473e8bb4986ac2a26c30dbbbe6876114b88685613bc9565b88886040516114ca9493929190613bdc565b60405180910390a15050505061158f565b60405147905f906001600160a01b0386169083908381818185875af1925050503d805f8114611525576040519150601f19603f3d011682016040523d82523d5f602084013e61152a565b606091505b505090508061154f57604051631d22aaa960e31b815260026004820152602401610bab565b7f7e27a75faf6b8f74ec66364c1d23167ad5a538473e8bb4986ac2a26c30dbbbe6858386866040516115849493929190613bdc565b60405180910390a150505b50505050565b5f805160206143208339815191526115ac81612709565b6115bf83836001600160601b0316612b90565b604080516001600160a01b03851681526001600160601b038416602082015233917f0d68bfdb860b47ebf04e76cebf91e412a17ee7ccf960b3dd8720471b090b2ea891015b60405180910390a2505050565b61120a83838360405180602001604052805f8152506123bb565b3361163582611d6f565b6001600160a01b0316146116775760405162461bcd60e51b81526020600482015260096024820152682737ba1027bbb732b960b91b6044820152606401610bab565b61168081612c2a565b60405181815233907f512586160ebd4dc6945ba9ec5d21a1f723f26f3c7aa36cdffb6818d4e7b880309060200160405180910390a250565b60135460ff16156117015760405162461bcd60e51b8152602060048201526013602482015272105b1c9958591e481a5b9a5d1a585b1a5e9959606a1b6044820152606401610bab565b5f61170b5f612c34565b90506117176014612c4c565b6012601f6101000a81548160ff021916908360ff16021790555061173b6015612c64565b6012601d6101000a81548161ffff021916908361ffff160217905550611761601e612c7c565b601260146101000a8154816001600160481b0302191690836001600160481b031602179055506117916023612c94565b6012805468ffffffffffffffffff60a01b191664ffffffffff92909216600160a01b02919091179055336118426117c88980613c0e565b8080601f0160208091040260200160405190810160405280939291908181526020018383808284375f920191909152506118099250505060208b018b613c0e565b8080601f0160208091040260200160405190810160405280939291908181526020018383808284375f92019190915250612cac92505050565b6118595f8051602061432083398151915280612cce565b61187d5f805160206143008339815191525f80516020614320833981519152612cce565b6118a15f805160206142e08339815191525f80516020614320833981519152612cce565b6118c55f805160206143408339815191525f80516020614320833981519152612cce565b6118dc5f8051602061432083398151915282612ac6565b6118f35f8051602061432083398151915283612ac6565b6118fe86865f612565565b61190a84846001612565565b6119238261191e60e08b0160c08c01613593565b612b90565b87600c6119308282613d7e565b90505061193c87612d18565b8051600a8054602084015160408501516060860151608087015160a088015169ffffffffffffffffffff1995861697151569ffffffffffffffffff001916979097176101006001600160481b0395861681029190911771ffffffffffffffffffffffffffffffffffff60501b1916600160501b948616850268ffffffffffffffffff60981b191617600160981b9590931694909402919091176001600160e01b0316600160e01b61ffff928316026001600160f01b0390811691909117600160f01b97831688021790955560c0870151600b805460e08a0151958a01516101208b01516101408c01516101608d0151610180909d015164ffffffffff96871694909a1693909317600160281b988616989098029790971769ffffffffffffffffffff60501b191690841690950264ffffffffff60781b191694909417600160781b958316959095029490941769ffffffffffffffffffff60a01b1916600160a01b9382169390930264ffffffffff60c81b191692909217600160c81b9290971691909102959095179092169316909102919091179055601280546001600160a01b0319166001600160a01b0383161790556013805460ff19166001179055611b115f8051602061432083398151915282612535565b5050505050505050565b611b325f8051602061432083398151915233611f36565b80611b4f5750611b4f5f8051602061430083398151915233611f36565b611b6b5760405162461bcd60e51b8152600401610bab90613acd565b5f8161ffff1611611bb35760405162461bcd60e51b8152602060048201526012602482015271125b9d985b1a59081b585e08185b5bdd5b9d60721b6044820152606401610bab565b600a805461ffff909216600160f01b026001600160f01b03909216919091179055565b611bed5f8051602061432083398151915233611f36565b80611c0a5750611c0a5f8051602061430083398151915233611f36565b611c265760405162461bcd60e51b8152600401610bab90613acd565b5f816001600160481b031611611c4e5760405162461bcd60e51b8152600401610bab90613f24565b600a80546001600160481b039092166101000269ffffffffffffffffff0019909216919091179055565b611c8f5f8051602061432083398151915233611f36565b80611cac5750611cac5f8051602061430083398151915233611f36565b611cc85760405162461bcd60e51b8152600401610bab90613acd565b6011546001600160801b031681611ce5600254600154035f190190565b611cef9190613f52565b1115611d11576040516364f5742160e11b815260016004820152602401610bab565b611d1b8282612e87565b604080516001600160a01b03841681526020810183905233917f1a3e625d40ebf494638afa2b07e6a62f9fbfa2060469d5bfc998ce32d7c91b90910160405180910390a25050565b600e610f328282613f65565b5f610e5782612a2b565b6060611d83612ea0565b905090565b5f6001600160a01b038216611da757611da76323d3ad8160e21b612982565b506001600160a01b03165f908152600660205260409020546001600160401b031690565b600a5461524760f01b90611def90600160981b90046001600160481b031683613b11565b341015611e1357805f604051632dadc8a160e01b8152600401610bab929190613b28565b600a54600b54611e459185918591600160e01b900461ffff169064ffffffffff80821691600160281b90041686612716565b600a5460405133917f4b39a2b601e18792cafbb9db818cbd30b9cd45ad108161d616484ec3b3cc1def9161160491349188918891600160981b9091046001600160481b031690613b45565b611ea75f8051602061432083398151915233611f36565b80611ec45750611ec45f8051602061430083398151915233611f36565b611ee05760405162461bcd60e51b8152600401610bab90613acd565b5f816001600160481b031611611f085760405162461bcd60e51b8152600401610bab90613f24565b600a80546001600160481b03909216600160981b0268ffffffffffffffffff60981b19909216919091179055565b5f918252602082815260408084206001600160a01b0393909316845291905290205460ff1690565b606060048054610e6c90613b72565b600c80548190611f7c90613b72565b80601f0160208091040260200160405190810160405280929190818152602001828054611fa890613b72565b8015611ff35780601f10611fca57610100808354040283529160200191611ff3565b820191905f5260205f20905b815481529060010190602001808311611fd657829003601f168201915b50505050509080600101805461200890613b72565b80601f016020809104026020016040519081016040528092919081815260200182805461203490613b72565b801561207f5780601f106120565761010080835404028352916020019161207f565b820191905f5260205f20905b81548152906001019060200180831161206257829003601f168201915b50505050509080600201805461209490613b72565b80601f01602080910402602001604051908101604052809291908181526020018280546120c090613b72565b801561210b5780601f106120e25761010080835404028352916020019161210b565b820191905f5260205f20905b8154815290600101906020018083116120ee57829003601f168201915b50505050509080600301805461212090613b72565b80601f016020809104026020016040519081016040528092919081815260200182805461214c90613b72565b80156121975780601f1061216e57610100808354040283529160200191612197565b820191905f5260205f20905b81548152906001019060200180831161217a57829003601f168201915b50505050600483015460059093015491926001600160a01b0316916001600160801b038082169250600160801b9091041687565b335f8181526008602090815260408083206001600160a01b03871680855290835292819020805460ff191686151590811790915590519081529192917f17307eab39ab6107e8899845ad3d59bd9653f200f220920489ca2b5937696c31910160405180910390a35050565b5f8051602061434083398151915261224d81612709565b600a546115d360f21b9061227190600160501b90046001600160481b031684613b11565b34101561229557805f604051632dadc8a160e01b8152600401610bab929190613b28565b600b546122ca908590859061ffff600160f01b8204169064ffffffffff600160a01b8204811691600160c81b90041686612716565b600a5460405133917f2803fcf0a236d2815d9e6b3ef81ad6014f08139d44906d7d3cfc5302331e81e091610e0a91349189918991600160501b9091046001600160481b031690613b45565b61232c5f8051602061432083398151915233611f36565b8061234957506123495f8051602061430083398151915233611f36565b6123655760405162461bcd60e51b8152600401610bab90613acd565b5f816001600160481b03161161238d5760405162461bcd60e51b8152600401610bab90613f24565b600a80546001600160481b03909216600160501b0268ffffffffffffffffff60501b19909216919091179055565b6123c6848484611037565b6001600160a01b0383163b1561158f576123e284848484612eb2565b61158f5761158f6368d2bf6b60e11b612982565b61240d5f8051602061432083398151915233611f36565b8061242a575061242a5f8051602061430083398151915233611f36565b6124465760405162461bcd60e51b8152600401610bab90613acd565b5f8161ffff161161248f5760405162461bcd60e51b8152602060048201526013602482015272125b9d985b1a59081b5a5b9d08185b5bdd5b9d606a1b6044820152606401610bab565b600a805461ffff909216600160e01b0261ffff60e01b19909216919091179055565b60606124bc82612937565b6124d957604051635a13bba960e01b815260040160405180910390fd5b5f6124e2611d79565b90505f8151116125005760405180602001604052805f81525061252e565b8061250a84612f91565b60405161251e929190600f9060200161401b565b6040516020818303038152906040525b9392505050565b5f8281526020819052604090206001015461254f81612709565b61120a8383612b2c565b600f610f328282613f65565b61257c5f8051602061432083398151915233611f36565b8061259957506125995f8051602061430083398151915233611f36565b6125b55760405162461bcd60e51b8152600401610bab90613acd565b60ff811615806125c857508060ff166001145b61260b5760405162461bcd60e51b81526020600482015260146024820152734572726f72206f6e6c79204f473d302c574c3d3160601b6044820152606401610bab565b81801561158f575f5b81811015612702575f85858381811061262f5761262f6140b6565b905060200201602081019061264491906138b4565b6001600160a01b03160361268c5760405162461bcd60e51b815260206004820152600f60248201526e496e76616c6964204164647265737360881b6044820152606401610bab565b60ff8316156126d7576126d25f805160206143408339815191528686848181106126b8576126b86140b6565b90506020020160208101906126cd91906138b4565b612ac6565b6126fa565b6126fa5f805160206142e08339815191528686848181106126b8576126b86140b6565b600101612614565b5050505050565b6127138133612fd4565b50565b335f9081526009602090815260408083206001600160e01b0319851684529091529020548490612747908790613f52565b111561276b57806001604051632dadc8a160e01b8152600401610bab929190613b28565b60408051818152600e818301526d02fb1bab93932b73a2a34b6b29d160951b6060820152426020820181905291517fdd970dd9b5bfe707922155b058a407655cb18288b807e2216442bca8ad83d6b59181900360800190a1604080518181526014818301527302fb6b4b73a29ba30b3b2a9ba30b93a39a0ba1d160651b60608201526020810186905290517fdd970dd9b5bfe707922155b058a407655cb18288b807e2216442bca8ad83d6b59181900360800190a18381101561284657816002604051632dadc8a160e01b8152600401610bab929190613b28565b8281111561286c57816003604051632dadc8a160e01b8152600401610bab929190613b28565b6011546001600160801b031686612889600254600154035f190190565b6128939190613f52565b11156128b757816004604051632dadc8a160e01b8152600401610bab929190613b28565b335f9081526009602090815260408083206001600160e01b0319861684529091529020805487019055611193878761302d565b5f6301ffc9a760e01b6001600160e01b03198316148061291a57506380ac58cd60e01b6001600160e01b03198316145b80610e575750506001600160e01b031916635b5e139f60e01b1490565b5f8160011161297d5760015482101561297d575f5b505f82815260056020526040812054908190036129735761296c836140ca565b925061294c565b600160e01b161590505b919050565b805f5260045ffd5b5f61299483611d6f565b90508180156129ac5750336001600160a01b03821614155b156129cf576129bb8133610aef565b6129cf576129cf6367d9dca160e11b612982565b5f8381526007602052604080822080546001600160a01b0319166001600160a01b0388811691821790925591518693918516917f8c5be1e5ebec7d5bd14f71427d1e84f3dd0314c0f7b2291e5b200ac8c7c3b92591a450505050565b5f81600111612ab657505f8181526005602052604081205490819003612aa4576001548210612a6457612a64636f96cda160e11b612982565b5b505f19015f818152600560205260409020548015612a6557600160e01b81165f03612a8f57919050565b612a9f636f96cda160e11b612982565b612a65565b600160e01b81165f03612ab657919050565b61297d636f96cda160e11b612982565b612ad08282611f36565b610f32575f828152602081815260408083206001600160a01b0385168085529252808320805460ff1916600117905551339285917f2f8788117e7eff1d82e926ec794901d17c78024a50270940304540a733656f0d9190a45050565b612b368282611f36565b15610f32575f828152602081815260408083206001600160a01b0385168085529252808320805460ff1916905551339285917ff6391f5c32d9c69d2a47ea670b442974b53935d1edc7fd64eb21e047a839171b9190a45050565b612710816001600160801b03161115612bbf5760405163095a14db60e11b815260016004820152602401610bab565b6001600160a01b038216612be95760405163095a14db60e11b815260026004820152602401610bab565b601080546001600160a01b039093166001600160a01b031990931692909217909155601180546001600160801b03928316600160801b029216919091179055565b612713815f6130e8565b5f80612c3e613218565b929092013560601c92915050565b5f80612c56613218565b929092013560f81c92915050565b5f80612c6e613218565b929092013560f01c92915050565b5f80612c86613218565b929092013560b81c92915050565b5f80612c9e613218565b929092013560d81c92915050565b6003612cb88382613f65565b506004612cc58282613f65565b50600180555050565b5f82815260208190526040808220600101805490849055905190918391839186917fbd79b86ffe0ab8e8776151514217cd7cacd52c909f66475c3af44e129f0b00ff9190a4505050565b604080516101a0810182525f80825260208201819052918101829052606081018290526080810182905260a0810182905260c0810182905260e081018290526101008101829052610120810182905261014081018290526101608101829052610180810191909152612d8f368390038301836140f3565b90505f8082610100015164ffffffffff1611612dab575f612dbf565b612dbf826101000151836101200151613227565b64ffffffffff1690505f8083610140015164ffffffffff1611612de2575f612df6565b612df6836101400151846101600151613227565b64ffffffffff1690505f808460c0015164ffffffffff1611612e18575f612e2a565b612e2a8460c001518560e00151613227565b60125464ffffffffff919091169150600160a01b90046001600160481b031681612e548486613f52565b612e5e9190613f52565b1115612e7f576040516316c9b17760e31b8152600481810152602401610bab565b505050919050565b610f32828260405180602001604052805f81525061326b565b6060600c6002018054610e6c90613b72565b604051630a85bd0160e11b81525f906001600160a01b0385169063150b7a0290612ee69033908990889088906004016141ef565b6020604051808303815f875af1925050508015612f20575060408051601f3d908101601f19168201909252612f1d9181019061422b565b60015b612f73573d808015612f4d576040519150601f19603f3d011682016040523d82523d5f602084013e612f52565b606091505b5080515f03612f6b57612f6b6368d2bf6b60e11b612982565b805181602001fd5b6001600160e01b031916630a85bd0160e11b1490505b949350505050565b606060a06040510180604052602081039150505f815280825b600183039250600a81066030018353600a900480612faa5750819003601f19909101908152919050565b612fde8282611f36565b610f3257612feb816132cb565b612ff68360206132dd565b604051602001613007929190614246565b60408051601f198184030181529082905262461bcd60e51b8252610bab91600401613556565b6001545f8290036130485761304863b562e8dd60e01b612982565b5f8181526005602090815260408083206001600160a01b0387164260a01b6001881460e11b178117909155808452600690925282208054680100000000000000018602019055908190036130a5576130a5622e076360e81b612982565b818301825b80835f7fddf252ad1be2c89b69c2b068fc378daa952ba7f163c4a11628f55a4df523b3ef5f80a48181600101915081036130aa575060015550505050565b5f6130f283612a2b565b9050805f8061310e865f90815260076020526040902080549091565b9150915084156131455761312381843361107d565b613145576131318333610aef565b61314557613145632ce44b5f60e11b612982565b801561314f575f82555b6001600160a01b0383165f81815260066020526040902080546001600160801b030190554260a01b17600360e01b175f87815260056020526040812091909155600160e11b851690036131d057600186015f8181526005602052604081205490036131ce5760015481146131ce575f8181526005602052604090208590555b505b60405186905f906001600160a01b038616907fddf252ad1be2c89b69c2b068fc378daa952ba7f163c4a11628f55a4df523b3ef908390a4505060028054600101905550505050565b3660011981013560f01c900390565b5f8264ffffffffff168264ffffffffff16111561324f5761324883836142ba565b9050610e57565b6040516316c9b17760e31b815260016004820152602401610bab565b613275838361302d565b6001600160a01b0383163b1561120a576001548281035b61329e5f868380600101945086612eb2565b6132b2576132b26368d2bf6b60e11b612982565b81811061328c578160015414612702576127025f612982565b6060610e576001600160a01b03831660145b60605f6132eb836002613b11565b6132f6906002613f52565b6001600160401b0381111561330d5761330d6137c1565b6040519080825280601f01601f191660200182016040528015613337576020820181803683370190505b509050600360fc1b815f81518110613351576133516140b6565b60200101906001600160f81b03191690815f1a905350600f60fb1b8160018151811061337f5761337f6140b6565b60200101906001600160f81b03191690815f1a9053505f6133a1846002613b11565b6133ac906001613f52565b90505b6001811115613423576f181899199a1a9b1b9c1cb0b131b232b360811b85600f16601081106133e0576133e06140b6565b1a60f81b8282815181106133f6576133f66140b6565b60200101906001600160f81b03191690815f1a90535060049490941c9361341c816140ca565b90506133af565b50831561252e5760405162461bcd60e51b815260206004820181905260248201527f537472696e67733a20686578206c656e67746820696e73756666696369656e746044820152606401610bab565b803560ff8116811461297d575f80fd5b5f60208284031215613492575f80fd5b61252e82613472565b6001600160a01b0381168114612713575f80fd5b5f80604083850312156134c0575f80fd5b82356134cb8161349b565b946020939093013593505050565b6001600160e01b031981168114612713575f80fd5b5f602082840312156134fe575f80fd5b813561252e816134d9565b5f5b8381101561352357818101518382015260200161350b565b50505f910152565b5f8151808452613542816020860160208601613509565b601f01601f19169290920160200192915050565b602081525f61252e602083018461352b565b5f60208284031215613578575f80fd5b5035919050565b6001600160801b0381168114612713575f80fd5b5f602082840312156135a3575f80fd5b813561252e8161357f565b5f805f606084860312156135c0575f80fd5b83356135cb8161349b565b925060208401356135db8161349b565b929592945050506040919091013590565b5f80604083850312156135fd575f80fd5b50508035926020909101359150565b5f806040838503121561361d575f80fd5b82359150602083013561362f8161349b565b809150509250929050565b803561ffff8116811461297d575f80fd5b5f6020828403121561365b575f80fd5b61252e8261363a565b5f8060408385031215613675575f80fd5b82356136808161349b565b915060208301356001600160601b038116811461362f575f80fd5b5f8083601f8401126136ab575f80fd5b5081356001600160401b038111156136c1575f80fd5b6020830191508360208260051b85010111156111df575f80fd5b5f805f805f808688036102008112156136f2575f80fd5b87356001600160401b0380821115613708575f80fd5b9089019060e0828c03121561371b575f80fd5b8198506101a0601f1984011215613730575f80fd5b60208a0197506101c08a013592508083111561374a575f80fd5b6137568b848c0161369b565b90975095506101e08a0135925086915080831115613772575f80fd5b505061378089828a0161369b565b979a9699509497509295939492505050565b80356001600160481b038116811461297d575f80fd5b5f602082840312156137b8575f80fd5b61252e82613792565b634e487b7160e01b5f52604160045260245ffd5b6040516101a081016001600160401b03811182821017156137f8576137f86137c1565b60405290565b5f6001600160401b0380841115613817576138176137c1565b604051601f8501601f19908116603f0116810190828211818310171561383f5761383f6137c1565b81604052809350858152868686011115613857575f80fd5b858560208301375f602087830101525050509392505050565b5f60208284031215613880575f80fd5b81356001600160401b03811115613895575f80fd5b8201601f810184136138a5575f80fd5b612f89848235602084016137fe565b5f602082840312156138c4575f80fd5b813561252e8161349b565b60e081525f6138e160e083018a61352b565b82810360208401526138f3818a61352b565b90508281036040840152613907818961352b565b9050828103606084015261391b818861352b565b6001600160a01b0396909616608084015250506001600160801b0392831660a0820152911660c090910152949350505050565b8035801515811461297d575f80fd5b5f806040838503121561396e575f80fd5b82356139798161349b565b91506139876020840161394e565b90509250929050565b5f80604083850312156139a1575f80fd5b82356139ac8161349b565b9150602083013561362f816134d9565b5f805f80608085870312156139cf575f80fd5b84356139da8161349b565b935060208501356139ea8161349b565b92506040850135915060608501356001600160401b03811115613a0b575f80fd5b8501601f81018713613a1b575f80fd5b613a2a878235602084016137fe565b91505092959194509250565b5f8060408385031215613a47575f80fd5b8235613a52816134d9565b9150602083013561362f8161349b565b5f8060408385031215613a73575f80fd5b8235613a528161349b565b5f805f60408486031215613a90575f80fd5b83356001600160401b03811115613aa5575f80fd5b613ab18682870161369b565b9094509250613ac4905060208501613472565b90509250925092565b60208082526016908201527527b7363c9020b236b4b71037b91027b832b930ba37b960511b604082015260600190565b634e487b7160e01b5f52601160045260245ffd5b8082028115828204841417610e5757610e57613afd565b6001600160e01b031992909216825260ff16602082015260400190565b9384526001600160a01b0392909216602084015260408301526001600160481b0316606082015260800190565b600181811c90821680613b8657607f821691505b602082108103613ba457634e487b7160e01b5f52602260045260245ffd5b50919050565b5f82613bc457634e487b7160e01b5f52601260045260245ffd5b500490565b81810381811115610e5757610e57613afd565b6001600160a01b0394851681526020810193909352921660408201526001600160601b03909116606082015260800190565b5f808335601e19843603018112613c23575f80fd5b8301803591506001600160401b03821115613c3c575f80fd5b6020019150368190038213156111df575f80fd5b601f82111561120a575f81815260208120601f850160051c81016020861015613c765750805b601f850160051c820191505b81811015613c9557828155600101613c82565b505050505050565b5f19600383901b1c191660019190911b1790565b6001600160401b03831115613cc857613cc86137c1565b613cdc83613cd68354613b72565b83613c50565b5f601f841160018114613d08575f8515613cf65750838201355b613d008682613c9d565b845550612702565b5f83815260209020601f19861690835b82811015613d385786850135825560209485019460019092019101613d18565b5086821015613d54575f1960f88860031b161c19848701351681555b505060018560011b0183555050505050565b5f8135610e578161349b565b5f8135610e578161357f565b613d888283613c0e565b6001600160401b03811115613d9f57613d9f6137c1565b613db381613dad8554613b72565b85613c50565b5f601f821160018114613ddf575f8315613dcd5750838201355b613dd78482613c9d565b865550613e37565b5f85815260209020601f19841690835b82811015613e0f5786850135825560209485019460019092019101613def565b5084821015613e2b575f1960f88660031b161c19848701351681555b505060018360011b0185555b50505050613e486020830183613c0e565b613e56818360018601613cb1565b5050613e656040830183613c0e565b613e73818360028601613cb1565b5050613e826060830183613c0e565b613e90818360038601613cb1565b5050613ec5613ea160808401613d66565b6004830180546001600160a01b0319166001600160a01b0392909216919091179055565b60058101613ef5613ed860a08501613d72565b82546001600160801b0319166001600160801b0391909116178255565b61120a613f0460c08501613d72565b82546001600160801b031660809190911b6001600160801b031916178255565b602080825260149082015273125b9d985b1a59081c1c9a58d948185b5bdd5b9d60621b604082015260600190565b80820180821115610e5757610e57613afd565b81516001600160401b03811115613f7e57613f7e6137c1565b613f9281613f8c8454613b72565b84613c50565b602080601f831160018114613fc0575f8415613fae5750858301515b613fb88582613c9d565b865550613c95565b5f85815260208120601f198616915b82811015613fee57888601518255948401946001909101908401613fcf565b508582101561400b57878501515f19600388901b60f8161c191681555b5050505050600190811b01905550565b5f8451602061402d8285838a01613509565b8551918401916140408184848a01613509565b85549201915f9061405081613b72565b60018281168015614068576001811461407d576140a6565b60ff19841687528215158302870194506140a6565b895f52855f205f5b8481101561409e57815489820152908301908701614085565b505082870194505b50929a9950505050505050505050565b634e487b7160e01b5f52603260045260245ffd5b5f816140d8576140d8613afd565b505f190190565b803564ffffffffff8116811461297d575f80fd5b5f6101a08284031215614104575f80fd5b61410c6137d5565b6141158361394e565b815261412360208401613792565b602082015261413460408401613792565b604082015261414560608401613792565b60608201526141566080840161363a565b608082015261416760a0840161363a565b60a082015261417860c084016140df565b60c082015261418960e084016140df565b60e082015261010061419c8185016140df565b908201526101206141ae8482016140df565b908201526101406141c08482016140df565b908201526101606141d28482016140df565b908201526101806141e484820161363a565b908201529392505050565b6001600160a01b03858116825284166020820152604081018390526080606082018190525f906142219083018461352b565b9695505050505050565b5f6020828403121561423b575f80fd5b815161252e816134d9565b7f416363657373436f6e74726f6c3a206163636f756e742000000000000000000081525f835161427d816017850160208801613509565b7001034b99036b4b9b9b4b733903937b6329607d1b60179184019182015283516142ae816028840160208801613509565b01602801949350505050565b64ffffffffff8281168282160390808211156142d8576142d8613afd565b509291505056fecb7e89b7eed8294d41c0215e2f4fe023e2166afcfa3d1f479c394274afe5f01997667070c54ef182b0f5858b034beac1b6f3089aa2d3188bb1e8929f4fa9b929a49807205ce4d355092ef5a8a18f56e8913cf4a201fbe287825b095693c217759eb10b7eab35fabb5491c526a3cf39c3bb7ce2ee5d483e1558635d2c96c2085ca26469706673582212204711aec3295b54ac2f804a8820e9b027a8a70ace73cd9497e7aa163c2bbf43d064736f6c63430008140033",
  "linkReferences": {},
  "deployedLinkReferences": {}
}