{
  "_format": "hh-sol-artifact-1",
  "contractName": "MvxCollection",
  "sourceName": "src/MvxCollection.sol",
  "abi": [
    {
      "inputs": [],
      "name": "ApprovalCallerNotOwnerNorApproved",
      "type": "error"
    },
    {
      "inputs": [],
      "name": "ApprovalQueryForNonexistentToken",
      "type": "error"
    },
    {
      "inputs": [],
      "name": "BalanceQueryForZeroAddress",
      "type": "error"
    },
    {
      "inputs": [],
      "name": "MintERC2309QuantityExceedsLimit",
      "type": "error"
    },
    {
      "inputs": [],
      "name": "MintToZeroAddress",
      "type": "error"
    },
    {
      "inputs": [],
      "name": "MintZeroQuantity",
      "type": "error"
    },
    {
      "inputs": [],
      "name": "OwnerQueryForNonexistentToken",
      "type": "error"
    },
    {
      "inputs": [],
      "name": "OwnershipNotInitializedForExtraData",
      "type": "error"
    },
    {
      "inputs": [],
      "name": "TransferCallerNotOwnerNorApproved",
      "type": "error"
    },
    {
      "inputs": [],
      "name": "TransferFromIncorrectOwner",
      "type": "error"
    },
    {
      "inputs": [],
      "name": "TransferToNonERC721ReceiverImplementer",
      "type": "error"
    },
    {
      "inputs": [],
      "name": "TransferToZeroAddress",
      "type": "error"
    },
    {
      "inputs": [],
      "name": "URIQueryForNonexistentToken",
      "type": "error"
    },
    {
      "anonymous": false,
      "inputs": [
        {
          "indexed": true,
          "internalType": "address",
          "name": "owner",
          "type": "address"
        },
        {
          "indexed": true,
          "internalType": "address",
          "name": "approved",
          "type": "address"
        },
        {
          "indexed": true,
          "internalType": "uint256",
          "name": "tokenId",
          "type": "uint256"
        }
      ],
      "name": "Approval",
      "type": "event"
    },
    {
      "anonymous": false,
      "inputs": [
        {
          "indexed": true,
          "internalType": "address",
          "name": "owner",
          "type": "address"
        },
        {
          "indexed": true,
          "internalType": "address",
          "name": "operator",
          "type": "address"
        },
        {
          "indexed": false,
          "internalType": "bool",
          "name": "approved",
          "type": "bool"
        }
      ],
      "name": "ApprovalForAll",
      "type": "event"
    },
    {
      "anonymous": false,
      "inputs": [
        {
          "indexed": true,
          "internalType": "address",
          "name": "sender",
          "type": "address"
        },
        {
          "indexed": false,
          "internalType": "uint256",
          "name": "tokenId",
          "type": "uint256"
        }
      ],
      "name": "BurnEvent",
      "type": "event"
    },
    {
      "anonymous": false,
      "inputs": [
        {
          "indexed": true,
          "internalType": "uint256",
          "name": "fromTokenId",
          "type": "uint256"
        },
        {
          "indexed": false,
          "internalType": "uint256",
          "name": "toTokenId",
          "type": "uint256"
        },
        {
          "indexed": true,
          "internalType": "address",
          "name": "from",
          "type": "address"
        },
        {
          "indexed": true,
          "internalType": "address",
          "name": "to",
          "type": "address"
        }
      ],
      "name": "ConsecutiveTransfer",
      "type": "event"
    },
    {
      "anonymous": false,
      "inputs": [
        {
          "indexed": false,
          "internalType": "uint8",
          "name": "version",
          "type": "uint8"
        }
      ],
      "name": "Initialized",
      "type": "event"
    },
    {
      "anonymous": false,
      "inputs": [
        {
          "indexed": true,
          "internalType": "address",
          "name": "sender",
          "type": "address"
        },
        {
          "indexed": false,
          "internalType": "uint256",
          "name": "value",
          "type": "uint256"
        },
        {
          "indexed": false,
          "internalType": "address",
          "name": "to",
          "type": "address"
        },
        {
          "indexed": false,
          "internalType": "uint256",
          "name": "amount",
          "type": "uint256"
        },
        {
          "indexed": false,
          "internalType": "uint256",
          "name": "mintPrice",
          "type": "uint256"
        }
      ],
      "name": "MintEvent",
      "type": "event"
    },
    {
      "anonymous": false,
      "inputs": [
        {
          "indexed": true,
          "internalType": "address",
          "name": "sender",
          "type": "address"
        },
        {
          "indexed": false,
          "internalType": "uint256",
          "name": "value",
          "type": "uint256"
        },
        {
          "indexed": false,
          "internalType": "address",
          "name": "to",
          "type": "address"
        },
        {
          "indexed": false,
          "internalType": "uint256",
          "name": "amount",
          "type": "uint256"
        },
        {
          "indexed": false,
          "internalType": "uint256",
          "name": "_ogMintPrice",
          "type": "uint256"
        }
      ],
      "name": "OGmintEvent",
      "type": "event"
    },
    {
      "anonymous": false,
      "inputs": [
        {
          "indexed": true,
          "internalType": "address",
          "name": "sender",
          "type": "address"
        },
        {
          "indexed": false,
          "internalType": "address",
          "name": "to",
          "type": "address"
        },
        {
          "indexed": false,
          "internalType": "uint256",
          "name": "amount",
          "type": "uint256"
        }
      ],
      "name": "OwnerMintEvent",
      "type": "event"
    },
    {
      "anonymous": false,
      "inputs": [
        {
          "indexed": true,
          "internalType": "bytes32",
          "name": "role",
          "type": "bytes32"
        },
        {
          "indexed": true,
          "internalType": "bytes32",
          "name": "previousAdminRole",
          "type": "bytes32"
        },
        {
          "indexed": true,
          "internalType": "bytes32",
          "name": "newAdminRole",
          "type": "bytes32"
        }
      ],
      "name": "RoleAdminChanged",
      "type": "event"
    },
    {
      "anonymous": false,
      "inputs": [
        {
          "indexed": true,
          "internalType": "bytes32",
          "name": "role",
          "type": "bytes32"
        },
        {
          "indexed": true,
          "internalType": "address",
          "name": "account",
          "type": "address"
        },
        {
          "indexed": true,
          "internalType": "address",
          "name": "sender",
          "type": "address"
        }
      ],
      "name": "RoleGranted",
      "type": "event"
    },
    {
      "anonymous": false,
      "inputs": [
        {
          "indexed": true,
          "internalType": "bytes32",
          "name": "role",
          "type": "bytes32"
        },
        {
          "indexed": true,
          "internalType": "address",
          "name": "account",
          "type": "address"
        },
        {
          "indexed": true,
          "internalType": "address",
          "name": "sender",
          "type": "address"
        }
      ],
      "name": "RoleRevoked",
      "type": "event"
    },
    {
      "anonymous": false,
      "inputs": [
        {
          "indexed": true,
          "internalType": "address",
          "name": "from",
          "type": "address"
        },
        {
          "indexed": true,
          "internalType": "address",
          "name": "to",
          "type": "address"
        },
        {
          "indexed": true,
          "internalType": "uint256",
          "name": "tokenId",
          "type": "uint256"
        }
      ],
      "name": "Transfer",
      "type": "event"
    },
    {
      "anonymous": false,
      "inputs": [
        {
          "indexed": true,
          "internalType": "address",
          "name": "sender",
          "type": "address"
        },
        {
          "indexed": false,
          "internalType": "uint256",
          "name": "listLength",
          "type": "uint256"
        }
      ],
      "name": "UpdateOgEvent",
      "type": "event"
    },
    {
      "anonymous": false,
      "inputs": [
        {
          "indexed": true,
          "internalType": "address",
          "name": "sender",
          "type": "address"
        },
        {
          "indexed": false,
          "internalType": "uint256",
          "name": "listLength",
          "type": "uint256"
        }
      ],
      "name": "UpdateWLevent",
      "type": "event"
    },
    {
      "anonymous": false,
      "inputs": [
        {
          "indexed": true,
          "internalType": "address",
          "name": "sender",
          "type": "address"
        },
        {
          "indexed": false,
          "internalType": "uint256",
          "name": "value",
          "type": "uint256"
        },
        {
          "indexed": false,
          "internalType": "address",
          "name": "to",
          "type": "address"
        },
        {
          "indexed": false,
          "internalType": "uint256",
          "name": "amount",
          "type": "uint256"
        },
        {
          "indexed": false,
          "internalType": "uint256",
          "name": "wlMintPrice",
          "type": "uint256"
        }
      ],
      "name": "WLmintEvent",
      "type": "event"
    },
    {
      "inputs": [],
      "name": "ADMIN_ROLE",
      "outputs": [
        {
          "internalType": "bytes32",
          "name": "",
          "type": "bytes32"
        }
      ],
      "stateMutability": "view",
      "type": "function"
    },
    {
      "inputs": [],
      "name": "DEFAULT_ADMIN_ROLE",
      "outputs": [
        {
          "internalType": "bytes32",
          "name": "",
          "type": "bytes32"
        }
      ],
      "stateMutability": "view",
      "type": "function"
    },
    {
      "inputs": [],
      "name": "OG_MINTER_ROLE",
      "outputs": [
        {
          "internalType": "bytes32",
          "name": "",
          "type": "bytes32"
        }
      ],
      "stateMutability": "view",
      "type": "function"
    },
    {
      "inputs": [],
      "name": "OPERATOR_ROLE",
      "outputs": [
        {
          "internalType": "bytes32",
          "name": "",
          "type": "bytes32"
        }
      ],
      "stateMutability": "view",
      "type": "function"
    },
    {
      "inputs": [],
      "name": "WL_MINTER_ROLE",
      "outputs": [
        {
          "internalType": "bytes32",
          "name": "",
          "type": "bytes32"
        }
      ],
      "stateMutability": "view",
      "type": "function"
    },
    {
      "inputs": [],
      "name": "_baseExtension",
      "outputs": [
        {
          "internalType": "string",
          "name": "",
          "type": "string"
        }
      ],
      "stateMutability": "view",
      "type": "function"
    },
    {
      "inputs": [],
      "name": "_maxSupply",
      "outputs": [
        {
          "internalType": "uint256",
          "name": "",
          "type": "uint256"
        }
      ],
      "stateMutability": "view",
      "type": "function"
    },
    {
      "inputs": [],
      "name": "_mintEnd",
      "outputs": [
        {
          "internalType": "uint256",
          "name": "",
          "type": "uint256"
        }
      ],
      "stateMutability": "view",
      "type": "function"
    },
    {
      "inputs": [],
      "name": "_mintFee",
      "outputs": [
        {
          "internalType": "uint256",
          "name": "",
          "type": "uint256"
        }
      ],
      "stateMutability": "view",
      "type": "function"
    },
    {
      "inputs": [],
      "name": "_mintMaxPerUser",
      "outputs": [
        {
          "internalType": "uint256",
          "name": "",
          "type": "uint256"
        }
      ],
      "stateMutability": "view",
      "type": "function"
    },
    {
      "inputs": [],
      "name": "_mintPrice",
      "outputs": [
        {
          "internalType": "uint256",
          "name": "",
          "type": "uint256"
        }
      ],
      "stateMutability": "view",
      "type": "function"
    },
    {
      "inputs": [],
      "name": "_mintStart",
      "outputs": [
        {
          "internalType": "uint256",
          "name": "",
          "type": "uint256"
        }
      ],
      "stateMutability": "view",
      "type": "function"
    },
    {
      "inputs": [
        {
          "internalType": "address",
          "name": "",
          "type": "address"
        }
      ],
      "name": "_mintsPerWallet",
      "outputs": [
        {
          "internalType": "uint256",
          "name": "",
          "type": "uint256"
        }
      ],
      "stateMutability": "view",
      "type": "function"
    },
    {
      "inputs": [],
      "name": "_ogMintEnd",
      "outputs": [
        {
          "internalType": "uint256",
          "name": "",
          "type": "uint256"
        }
      ],
      "stateMutability": "view",
      "type": "function"
    },
    {
      "inputs": [],
      "name": "_ogMintMaxPerUser",
      "outputs": [
        {
          "internalType": "uint256",
          "name": "",
          "type": "uint256"
        }
      ],
      "stateMutability": "view",
      "type": "function"
    },
    {
      "inputs": [],
      "name": "_ogMintPrice",
      "outputs": [
        {
          "internalType": "uint256",
          "name": "",
          "type": "uint256"
        }
      ],
      "stateMutability": "view",
      "type": "function"
    },
    {
      "inputs": [],
      "name": "_ogMintStart",
      "outputs": [
        {
          "internalType": "uint256",
          "name": "",
          "type": "uint256"
        }
      ],
      "stateMutability": "view",
      "type": "function"
    },
    {
      "inputs": [],
      "name": "_royaltyFee",
      "outputs": [
        {
          "internalType": "uint256",
          "name": "",
          "type": "uint256"
        }
      ],
      "stateMutability": "view",
      "type": "function"
    },
    {
      "inputs": [],
      "name": "_whitelistMintEnd",
      "outputs": [
        {
          "internalType": "uint256",
          "name": "",
          "type": "uint256"
        }
      ],
      "stateMutability": "view",
      "type": "function"
    },
    {
      "inputs": [],
      "name": "_whitelistMintMaxPerUser",
      "outputs": [
        {
          "internalType": "uint256",
          "name": "",
          "type": "uint256"
        }
      ],
      "stateMutability": "view",
      "type": "function"
    },
    {
      "inputs": [],
      "name": "_whitelistMintPrice",
      "outputs": [
        {
          "internalType": "uint256",
          "name": "",
          "type": "uint256"
        }
      ],
      "stateMutability": "view",
      "type": "function"
    },
    {
      "inputs": [],
      "name": "_whitelistMintStart",
      "outputs": [
        {
          "internalType": "uint256",
          "name": "",
          "type": "uint256"
        }
      ],
      "stateMutability": "view",
      "type": "function"
    },
    {
      "inputs": [
        {
          "internalType": "address",
          "name": "to",
          "type": "address"
        },
        {
          "internalType": "uint256",
          "name": "tokenId",
          "type": "uint256"
        }
      ],
      "name": "approve",
      "outputs": [],
      "stateMutability": "payable",
      "type": "function"
    },
    {
      "inputs": [
        {
          "internalType": "address",
          "name": "owner",
          "type": "address"
        }
      ],
      "name": "balanceOf",
      "outputs": [
        {
          "internalType": "uint256",
          "name": "",
          "type": "uint256"
        }
      ],
      "stateMutability": "view",
      "type": "function"
    },
    {
      "inputs": [],
      "name": "baseURI",
      "outputs": [
        {
          "internalType": "string",
          "name": "",
          "type": "string"
        }
      ],
      "stateMutability": "view",
      "type": "function"
    },
    {
      "inputs": [
        {
          "internalType": "uint256",
          "name": "tokenId",
          "type": "uint256"
        }
      ],
      "name": "burn",
      "outputs": [],
      "stateMutability": "nonpayable",
      "type": "function"
    },
    {
      "inputs": [
        {
          "internalType": "uint256",
          "name": "maxSupply",
          "type": "uint256"
        },
        {
          "internalType": "uint256",
          "name": "royaltyFee",
          "type": "uint256"
        },
        {
          "internalType": "string",
          "name": "name",
          "type": "string"
        },
        {
          "internalType": "string",
          "name": "symbol",
          "type": "string"
        },
        {
          "internalType": "string",
          "name": "initBaseURI",
          "type": "string"
        }
      ],
      "name": "encodeNftParams",
      "outputs": [
        {
          "internalType": "bytes",
          "name": "_data",
          "type": "bytes"
        }
      ],
      "stateMutability": "pure",
      "type": "function"
    },
    {
      "inputs": [
        {
          "internalType": "uint256",
          "name": "tokenId",
          "type": "uint256"
        }
      ],
      "name": "getApproved",
      "outputs": [
        {
          "internalType": "address",
          "name": "",
          "type": "address"
        }
      ],
      "stateMutability": "view",
      "type": "function"
    },
    {
      "inputs": [
        {
          "internalType": "address",
          "name": "user",
          "type": "address"
        }
      ],
      "name": "getMintCountOf",
      "outputs": [
        {
          "internalType": "uint256",
          "name": "",
          "type": "uint256"
        }
      ],
      "stateMutability": "view",
      "type": "function"
    },
    {
      "inputs": [
        {
          "internalType": "bytes32",
          "name": "role",
          "type": "bytes32"
        }
      ],
      "name": "getRoleAdmin",
      "outputs": [
        {
          "internalType": "bytes32",
          "name": "",
          "type": "bytes32"
        }
      ],
      "stateMutability": "view",
      "type": "function"
    },
    {
      "inputs": [
        {
          "internalType": "bytes32",
          "name": "role",
          "type": "bytes32"
        },
        {
          "internalType": "address",
          "name": "account",
          "type": "address"
        }
      ],
      "name": "grantRole",
      "outputs": [],
      "stateMutability": "nonpayable",
      "type": "function"
    },
    {
      "inputs": [
        {
          "internalType": "bytes32",
          "name": "role",
          "type": "bytes32"
        },
        {
          "internalType": "address",
          "name": "account",
          "type": "address"
        }
      ],
      "name": "hasRole",
      "outputs": [
        {
          "internalType": "bool",
          "name": "",
          "type": "bool"
        }
      ],
      "stateMutability": "view",
      "type": "function"
    },
    {
      "inputs": [
        {
          "internalType": "uint256",
          "name": "mintFee",
          "type": "uint256"
        },
        {
          "internalType": "bytes",
          "name": "nftData",
          "type": "bytes"
        },
        {
          "internalType": "address[]",
          "name": "initialOGMinters",
          "type": "address[]"
        },
        {
          "internalType": "address[]",
          "name": "initialWLMinters",
          "type": "address[]"
        },
        {
          "internalType": "uint256[]",
          "name": "mintingStages",
          "type": "uint256[]"
        }
      ],
      "name": "initialize",
      "outputs": [],
      "stateMutability": "nonpayable",
      "type": "function"
    },
    {
      "inputs": [
        {
          "internalType": "address",
          "name": "owner",
          "type": "address"
        },
        {
          "internalType": "address",
          "name": "operator",
          "type": "address"
        }
      ],
      "name": "isApprovedForAll",
      "outputs": [
        {
          "internalType": "bool",
          "name": "",
          "type": "bool"
        }
      ],
      "stateMutability": "view",
      "type": "function"
    },
    {
      "inputs": [
        {
          "internalType": "address",
          "name": "to",
          "type": "address"
        },
        {
          "internalType": "uint256",
          "name": "amount",
          "type": "uint256"
        }
      ],
      "name": "mintForOG",
      "outputs": [],
      "stateMutability": "payable",
      "type": "function"
    },
    {
      "inputs": [
        {
          "internalType": "address",
          "name": "to",
          "type": "address"
        },
        {
          "internalType": "uint256",
          "name": "amount",
          "type": "uint256"
        }
      ],
      "name": "mintForOwner",
      "outputs": [],
      "stateMutability": "payable",
      "type": "function"
    },
    {
      "inputs": [
        {
          "internalType": "address",
          "name": "to",
          "type": "address"
        },
        {
          "internalType": "uint256",
          "name": "amount",
          "type": "uint256"
        }
      ],
      "name": "mintForRegular",
      "outputs": [],
      "stateMutability": "payable",
      "type": "function"
    },
    {
      "inputs": [
        {
          "internalType": "address",
          "name": "to",
          "type": "address"
        },
        {
          "internalType": "uint256",
          "name": "amount",
          "type": "uint256"
        }
      ],
      "name": "mintForWhitelist",
      "outputs": [],
      "stateMutability": "payable",
      "type": "function"
    },
    {
      "inputs": [],
      "name": "name",
      "outputs": [
        {
          "internalType": "string",
          "name": "",
          "type": "string"
        }
      ],
      "stateMutability": "view",
      "type": "function"
    },
    {
      "inputs": [
        {
          "internalType": "uint256",
          "name": "tokenId",
          "type": "uint256"
        }
      ],
      "name": "ownerOf",
      "outputs": [
        {
          "internalType": "address",
          "name": "",
          "type": "address"
        }
      ],
      "stateMutability": "view",
      "type": "function"
    },
    {
      "inputs": [
        {
          "internalType": "uint256",
          "name": "amount",
          "type": "uint256"
        }
      ],
      "name": "quoteMints",
      "outputs": [
        {
          "internalType": "uint256",
          "name": "quote",
          "type": "uint256"
        }
      ],
      "stateMutability": "view",
      "type": "function"
    },
    {
      "inputs": [
        {
          "internalType": "uint256",
          "name": "amount",
          "type": "uint256"
        }
      ],
      "name": "quoteOgMints",
      "outputs": [
        {
          "internalType": "uint256",
          "name": "quote",
          "type": "uint256"
        }
      ],
      "stateMutability": "view",
      "type": "function"
    },
    {
      "inputs": [
        {
          "internalType": "uint256",
          "name": "amount",
          "type": "uint256"
        }
      ],
      "name": "quoteWLMints",
      "outputs": [
        {
          "internalType": "uint256",
          "name": "quote",
          "type": "uint256"
        }
      ],
      "stateMutability": "view",
      "type": "function"
    },
    {
      "inputs": [
        {
          "internalType": "bytes32",
          "name": "role",
          "type": "bytes32"
        },
        {
          "internalType": "address",
          "name": "account",
          "type": "address"
        }
      ],
      "name": "renounceRole",
      "outputs": [],
      "stateMutability": "nonpayable",
      "type": "function"
    },
    {
      "inputs": [
        {
          "internalType": "bytes32",
          "name": "role",
          "type": "bytes32"
        },
        {
          "internalType": "address",
          "name": "account",
          "type": "address"
        }
      ],
      "name": "revokeRole",
      "outputs": [],
      "stateMutability": "nonpayable",
      "type": "function"
    },
    {
      "inputs": [
        {
          "internalType": "uint256",
          "name": "tokenId",
          "type": "uint256"
        },
        {
          "internalType": "uint256",
          "name": "salePrice",
          "type": "uint256"
        }
      ],
      "name": "royaltyInfo",
      "outputs": [
        {
          "internalType": "address",
          "name": "receiver",
          "type": "address"
        },
        {
          "internalType": "uint256",
          "name": "royaltyAmount",
          "type": "uint256"
        }
      ],
      "stateMutability": "view",
      "type": "function"
    },
    {
      "inputs": [
        {
          "internalType": "address",
          "name": "from",
          "type": "address"
        },
        {
          "internalType": "address",
          "name": "to",
          "type": "address"
        },
        {
          "internalType": "uint256",
          "name": "tokenId",
          "type": "uint256"
        }
      ],
      "name": "safeTransferFrom",
      "outputs": [],
      "stateMutability": "payable",
      "type": "function"
    },
    {
      "inputs": [
        {
          "internalType": "address",
          "name": "from",
          "type": "address"
        },
        {
          "internalType": "address",
          "name": "to",
          "type": "address"
        },
        {
          "internalType": "uint256",
          "name": "tokenId",
          "type": "uint256"
        },
        {
          "internalType": "bytes",
          "name": "_data",
          "type": "bytes"
        }
      ],
      "name": "safeTransferFrom",
      "outputs": [],
      "stateMutability": "payable",
      "type": "function"
    },
    {
      "inputs": [
        {
          "internalType": "address",
          "name": "operator",
          "type": "address"
        },
        {
          "internalType": "bool",
          "name": "approved",
          "type": "bool"
        }
      ],
      "name": "setApprovalForAll",
      "outputs": [],
      "stateMutability": "nonpayable",
      "type": "function"
    },
    {
      "inputs": [
        {
          "internalType": "string",
          "name": "newBaseExtension",
          "type": "string"
        }
      ],
      "name": "setBaseExtension",
      "outputs": [],
      "stateMutability": "nonpayable",
      "type": "function"
    },
    {
      "inputs": [
        {
          "internalType": "string",
          "name": "newBaseURI",
          "type": "string"
        }
      ],
      "name": "setBaseURI",
      "outputs": [],
      "stateMutability": "nonpayable",
      "type": "function"
    },
    {
      "inputs": [
        {
          "internalType": "bytes4",
          "name": "interfaceId",
          "type": "bytes4"
        }
      ],
      "name": "supportsInterface",
      "outputs": [
        {
          "internalType": "bool",
          "name": "",
          "type": "bool"
        }
      ],
      "stateMutability": "view",
      "type": "function"
    },
    {
      "inputs": [],
      "name": "symbol",
      "outputs": [
        {
          "internalType": "string",
          "name": "",
          "type": "string"
        }
      ],
      "stateMutability": "view",
      "type": "function"
    },
    {
      "inputs": [
        {
          "internalType": "uint256",
          "name": "tokenId",
          "type": "uint256"
        }
      ],
      "name": "tokenURI",
      "outputs": [
        {
          "internalType": "string",
          "name": "",
          "type": "string"
        }
      ],
      "stateMutability": "view",
      "type": "function"
    },
    {
      "inputs": [],
      "name": "totalSupply",
      "outputs": [
        {
          "internalType": "uint256",
          "name": "",
          "type": "uint256"
        }
      ],
      "stateMutability": "view",
      "type": "function"
    },
    {
      "inputs": [
        {
          "internalType": "address",
          "name": "from",
          "type": "address"
        },
        {
          "internalType": "address",
          "name": "to",
          "type": "address"
        },
        {
          "internalType": "uint256",
          "name": "tokenId",
          "type": "uint256"
        }
      ],
      "name": "transferFrom",
      "outputs": [],
      "stateMutability": "payable",
      "type": "function"
    },
    {
      "inputs": [
        {
          "internalType": "uint256",
          "name": "mintMax",
          "type": "uint256"
        }
      ],
      "name": "updateMintMax",
      "outputs": [],
      "stateMutability": "nonpayable",
      "type": "function"
    },
    {
      "inputs": [
        {
          "internalType": "uint256",
          "name": "mintPrice",
          "type": "uint256"
        }
      ],
      "name": "updateMintPrice",
      "outputs": [],
      "stateMutability": "nonpayable",
      "type": "function"
    },
    {
      "inputs": [
        {
          "internalType": "address[]",
          "name": "_minterList",
          "type": "address[]"
        },
        {
          "internalType": "uint8",
          "name": "_mintRole",
          "type": "uint8"
        }
      ],
      "name": "updateMinterRoles",
      "outputs": [],
      "stateMutability": "nonpayable",
      "type": "function"
    },
    {
      "inputs": [
        {
          "internalType": "uint256",
          "name": "ogMintMax",
          "type": "uint256"
        }
      ],
      "name": "updateOGMintMax",
      "outputs": [],
      "stateMutability": "nonpayable",
      "type": "function"
    },
    {
      "inputs": [
        {
          "internalType": "uint256",
          "name": "price",
          "type": "uint256"
        }
      ],
      "name": "updateOGMintPrice",
      "outputs": [],
      "stateMutability": "nonpayable",
      "type": "function"
    },
    {
      "inputs": [
        {
          "internalType": "uint256",
          "name": "start",
          "type": "uint256"
        },
        {
          "internalType": "uint256",
          "name": "end",
          "type": "uint256"
        }
      ],
      "name": "updateTime",
      "outputs": [],
      "stateMutability": "nonpayable",
      "type": "function"
    },
    {
      "inputs": [
        {
          "internalType": "uint256",
          "name": "whitelistMintMax",
          "type": "uint256"
        }
      ],
      "name": "updateWLMintMax",
      "outputs": [],
      "stateMutability": "nonpayable",
      "type": "function"
    },
    {
      "inputs": [
        {
          "internalType": "uint256",
          "name": "whitelistMintPrice",
          "type": "uint256"
        }
      ],
      "name": "updateWhitelistMintPrice",
      "outputs": [],
      "stateMutability": "nonpayable",
      "type": "function"
    },
    {
      "inputs": [],
      "name": "version",
      "outputs": [
        {
          "internalType": "bytes16",
          "name": "",
          "type": "bytes16"
        }
      ],
      "stateMutability": "pure",
      "type": "function"
    },
    {
      "inputs": [],
      "name": "withdraw",
      "outputs": [],
      "stateMutability": "payable",
      "type": "function"
    }
  ],
  "bytecode": "0x608060405234801561001057600080fd5b50614b5c806100206000396000f3fe6080604052600436106103f85760003560e01c806367faf4dd1161020d578063a22cb46511610128578063e455fd71116100bb578063f2a08abb1161008a578063f5b541a61161006f578063f5b541a614610c42578063fd23be4e14610c76578063fe6f9d2614610c8c57600080fd5b8063f2a08abb14610c0c578063f2cca28f14610c2257600080fd5b8063e455fd7114610b33578063e4bce01614610b53578063e985e9c514610b96578063eb980abf14610bec57600080fd5b8063c87b56dd116100f7578063c87b56dd14610ab3578063d05ec0a814610ad3578063d547741f14610af3578063da3ef23f14610b1357600080fd5b8063a22cb46514610a39578063a8c3182b14610a59578063b0338f2e14610a6c578063b88d4fde14610aa057600080fd5b80638c36908c116101a057806395d89b411161016f57806395d89b41146109cc5780639a8160ec146109e15780639c5e3dd314610a0e578063a217fddf14610a2457600080fd5b80638c36908c14610923578063912fb6901461093957806391d148541461095957806393890851146109ac57600080fd5b8063769da943116101dc578063769da943146108c45780637ab06c12146108da5780637fb4197d146108ed5780638577c1fa1461090357600080fd5b806367faf4dd146108455780636c0360eb1461085b57806370a082311461087057806375b238fc1461089057600080fd5b8063248a9ca31161031857806342842e0e116102ab57806353b859df1161027a57806355f804b31161025f57806355f804b3146107ef5780635f8def441461080f5780636352211e1461082557600080fd5b806353b859df146107a157806354fd4d50146107b457600080fd5b806342842e0e1461074257806342966c68146107555780634a7a52d5146107755780634bcd87721461078b57600080fd5b80632f2ff15d116102e75780632f2ff15d146106da57806333726c58146106fa57806336568abe1461071a5780633ccfd60b1461073a57600080fd5b8063248a9ca3146106335780632672c902146106635780632a55205a146106785780632b892c80146106c457600080fd5b8063095ea7b311610390578063187a3dd01161035f578063187a3dd0146105ca57806321f1b677146105ea57806322f4596f1461060a57806323b872dd1461062057600080fd5b8063095ea7b31461052857806309fd6fd21461053b578063172cf75f1461055b57806318160ddd1461058f57600080fd5b80630387da42116103cc5780630387da42146104955780630425c278146104ab57806306fdde03146104c1578063081812fc146104e357600080fd5b8062728e46146103fd5780630167f3c51461041f57806301ffc9a714610432578063029cf2f714610467575b600080fd5b34801561040957600080fd5b5061041d610418366004614061565b610ca2565b005b61041d61042d36600461409e565b610de7565b34801561043e57600080fd5b5061045261044d3660046140f6565b610fba565b60405190151581526020015b60405180910390f35b34801561047357600080fd5b50610487610482366004614061565b611062565b60405190815260200161045e565b3480156104a157600080fd5b5061048760d95481565b3480156104b757600080fd5b5061048760d85481565b3480156104cd57600080fd5b506104d66110a3565b60405161045e9190614181565b3480156104ef57600080fd5b506105036104fe366004614061565b611135565b60405173ffffffffffffffffffffffffffffffffffffffff909116815260200161045e565b61041d61053636600461409e565b611196565b34801561054757600080fd5b50610487610556366004614061565b6111a2565b34801561056757600080fd5b506104877f9eb10b7eab35fabb5491c526a3cf39c3bb7ce2ee5d483e1558635d2c96c2085c81565b34801561059b57600080fd5b50600154600054037fffffffffffffffffffffffffffffffffffffffffffffffffffffffffffffffff01610487565b3480156105d657600080fd5b5061041d6105e53660046141e0565b6111b3565b3480156105f657600080fd5b5061041d6106053660046142de565b6116f9565b34801561061657600080fd5b5061048760df5481565b61041d61062e366004614300565b61183e565b34801561063f57600080fd5b5061048761064e366004614061565b6000908152606d602052604090206001015490565b34801561066f57600080fd5b506104d6611a7d565b34801561068457600080fd5b506106986106933660046142de565b611b0b565b6040805173ffffffffffffffffffffffffffffffffffffffff909316835260208301919091520161045e565b3480156106d057600080fd5b5061048760d15481565b3480156106e657600080fd5b5061041d6106f536600461433c565b611b65565b34801561070657600080fd5b506104d6610715366004614442565b611b8f565b34801561072657600080fd5b5061041d61073536600461433c565b611bc4565b61041d611c73565b61041d610750366004614300565b611cc9565b34801561076157600080fd5b5061041d610770366004614061565b611ce4565b34801561078157600080fd5b5061048760d75481565b34801561079757600080fd5b5061048760dc5481565b61041d6107af36600461409e565b611dac565b3480156107c057600080fd5b506040517f302e310000000000000000000000000000000000000000000000000000000000815260200161045e565b3480156107fb57600080fd5b5061041d61080a3660046144de565b611f8b565b34801561081b57600080fd5b5061048760db5481565b34801561083157600080fd5b50610503610840366004614061565b611f97565b34801561085157600080fd5b5061048760d65481565b34801561086757600080fd5b506104d6611fa2565b34801561087c57600080fd5b5061048761088b366004614513565b611faf565b34801561089c57600080fd5b506104877fa49807205ce4d355092ef5a8a18f56e8913cf4a201fbe287825b095693c2177581565b3480156108d057600080fd5b5061048760e15481565b61041d6108e836600461409e565b612028565b3480156108f957600080fd5b5061048760d45481565b34801561090f57600080fd5b5061041d61091e366004614061565b6121cc565b34801561092f57600080fd5b5061048760da5481565b34801561094557600080fd5b5061041d610954366004614061565b61230c565b34801561096557600080fd5b5061045261097436600461433c565b6000918252606d6020908152604080842073ffffffffffffffffffffffffffffffffffffffff93909316845291905290205460ff1690565b3480156109b857600080fd5b5061041d6109c7366004614061565b61244c565b3480156109d857600080fd5b506104d661258c565b3480156109ed57600080fd5b506104876109fc366004614513565b60e26020526000908152604090205481565b348015610a1a57600080fd5b5061048760d55481565b348015610a3057600080fd5b50610487600081565b348015610a4557600080fd5b5061041d610a5436600461452e565b61259b565b61041d610a6736600461409e565b612632565b348015610a7857600080fd5b506104877fcb7e89b7eed8294d41c0215e2f4fe023e2166afcfa3d1f479c394274afe5f01981565b61041d610aae36600461456a565b612800565b348015610abf57600080fd5b506104d6610ace366004614061565b612867565b348015610adf57600080fd5b5061041d610aee366004614061565b612969565b348015610aff57600080fd5b5061041d610b0e36600461433c565b612aa9565b348015610b1f57600080fd5b5061041d610b2e3660046144de565b612ace565b348015610b3f57600080fd5b50610487610b4e366004614061565b612ada565b348015610b5f57600080fd5b50610487610b6e366004614513565b73ffffffffffffffffffffffffffffffffffffffff16600090815260e2602052604090205490565b348015610ba257600080fd5b50610452610bb13660046145e6565b73ffffffffffffffffffffffffffffffffffffffff918216600090815260076020908152604080832093909416825291909152205460ff1690565b348015610bf857600080fd5b5061041d610c07366004614061565b612aeb565b348015610c1857600080fd5b5061048760e05481565b348015610c2e57600080fd5b5061041d610c3d366004614610565b612c2b565b348015610c4e57600080fd5b506104877f97667070c54ef182b0f5858b034beac1b6f3089aa2d3188bb1e8929f4fa9b92981565b348015610c8257600080fd5b5061048760d25481565b348015610c9857600080fd5b5061048760d35481565b3360009081527f9deef4832b18b62adaf7ce030da5f06e20ee9867097fb4884ce69b9f78341c42602052604090205460ff1680610d0d57503360009081527f1e6a3de0d48b74115044b871eacee36727a72e27f7906b5d35017cf5f4a3a042602052604090205460ff165b610d78576040517f08c379a000000000000000000000000000000000000000000000000000000000815260206004820152601660248201527f4f6e6c792041646d696e206f72204f70657261746f720000000000000000000060448201526064015b60405180910390fd5b60008111610de2576040517f08c379a000000000000000000000000000000000000000000000000000000000815260206004820152601460248201527f496e76616c696420707269636520616d6f756e740000000000000000000000006044820152606401610d6f565b60d955565b610def612ecb565b7fcb7e89b7eed8294d41c0215e2f4fe023e2166afcfa3d1f479c394274afe5f019610e1981612f3e565b60d45442908111801590610e2f575060d3548110155b610e95576040517f08c379a000000000000000000000000000000000000000000000000000000000815260206004820152601060248201527f4e6f74204f47206d696e742074696d65000000000000000000000000000000006044820152606401610d6f565b60df54600154600054859190037fffffffffffffffffffffffffffffffffffffffffffffffffffffffffffffffff01610ece919061469c565b1115610f36576040517f08c379a000000000000000000000000000000000000000000000000000000000815260206004820152601260248201527f4f766572206d696e744d6178206572726f7200000000000000000000000000006044820152606401610d6f565b610f47348560d1548660d254612f4b565b60d1546040805134815273ffffffffffffffffffffffffffffffffffffffff87166020820152908101859052606081019190915233907f12868c3639cc6f45bf88ecdaf9a5a315a966c89339b502a13c32758761b814949060800160405180910390a25050610fb66001609f55565b5050565b60007fffffffff0000000000000000000000000000000000000000000000000000000082167fc21b8f2800000000000000000000000000000000000000000000000000000000148061104d57507fffffffff0000000000000000000000000000000000000000000000000000000082167f2a55205a00000000000000000000000000000000000000000000000000000000145b8061105c575061105c82613091565b92915050565b6000808260d15461107391906146af565b905060e054600003611086576000611092565b6110928160e054613128565b61109c908261469c565b9392505050565b6060600280546110b2906146c6565b80601f01602080910402602001604051908101604052809291908181526020018280546110de906146c6565b801561112b5780601f106111005761010080835404028352916020019161112b565b820191906000526020600020905b81548152906001019060200180831161110e57829003601f168201915b5050505050905090565b60006111408261313b565b61116d5761116d7fcf4700e4000000000000000000000000000000000000000000000000000000006131a2565b5060009081526006602052604090205473ffffffffffffffffffffffffffffffffffffffff1690565b610fb6828260016131ac565b6000808260d95461107391906146af565b600854610100900460ff16158080156111d35750600854600160ff909116105b806111ed5750303b1580156111ed575060085460ff166001145b611279576040517f08c379a000000000000000000000000000000000000000000000000000000000815260206004820152602e60248201527f496e697469616c697a61626c653a20636f6e747261637420697320616c72656160448201527f647920696e697469616c697a65640000000000000000000000000000000000006064820152608401610d6f565b600880547fffffffffffffffffffffffffffffffffffffffffffffffffffffffffffffff0016600117905580156112d757600880547fffffffffffffffffffffffffffffffffffffffffffffffffffffffffffff00ff166101001790555b6000808080806112e98d8f018f614442565b945094509450945094506112fd838361329a565b6113056132bd565b61132f7fa49807205ce4d355092ef5a8a18f56e8913cf4a201fbe287825b095693c2177580613356565b6113597fa49807205ce4d355092ef5a8a18f56e8913cf4a201fbe287825b095693c21775336133a1565b6113837fa49807205ce4d355092ef5a8a18f56e8913cf4a201fbe287825b095693c2177580613356565b6113df7fa49807205ce4d355092ef5a8a18f56e8913cf4a201fbe287825b095693c21775367ffffffffffffffffffffffffffffffffffffffffffffffffffffffffffffffffe81013560f01c90033560601c6133a1565b6133a1565b6114297fcb7e89b7eed8294d41c0215e2f4fe023e2166afcfa3d1f479c394274afe5f0197fa49807205ce4d355092ef5a8a18f56e8913cf4a201fbe287825b095693c21775613356565b6114737f9eb10b7eab35fabb5491c526a3cf39c3bb7ce2ee5d483e1558635d2c96c2085c7fa49807205ce4d355092ef5a8a18f56e8913cf4a201fbe287825b095693c21775613356565b60dd61147f8282614767565b5060408051808201909152600581527f2e6a736f6e000000000000000000000000000000000000000000000000000000602082015260de906114c19082614767565b5060df85905560e184905587876000816114dd576114dd614881565b602002919091013560d15550878760018181106114fc576114fc614881565b602002919091013560d255508787600281811061151b5761151b614881565b602002919091013560d355508787600381811061153a5761153a614881565b602002919091013560d455508787600481811061155957611559614881565b602002919091013560d555508787600581811061157857611578614881565b602002919091013560d655508787600681811061159757611597614881565b602002919091013560d75550878760078181106115b6576115b6614881565b602002919091013560d85550878760088181106115d5576115d5614881565b602002919091013560d95550878760098181106115f4576115f4614881565b602002919091013560da55508787600a81811061161357611613614881565b602002919091013560db55508787600b81811061163257611632614881565b602002919091013560dc555061164a8c8c6000612c2b565b6116568a8a6001612c2b565b60e08f90556116857fa49807205ce4d355092ef5a8a18f56e8913cf4a201fbe287825b095693c2177533612aa9565b505050505080156116ed57600880547fffffffffffffffffffffffffffffffffffffffffffffffffffffffffffff00ff169055604051600181527f7f26b83ff96e1f2b6a682f133852f6798a09c465da95921460cefb38474024989060200160405180910390a15b50505050505050505050565b3360009081527f9deef4832b18b62adaf7ce030da5f06e20ee9867097fb4884ce69b9f78341c42602052604090205460ff168061176457503360009081527f1e6a3de0d48b74115044b871eacee36727a72e27f7906b5d35017cf5f4a3a042602052604090205460ff165b6117ca576040517f08c379a000000000000000000000000000000000000000000000000000000000815260206004820152601660248201527f4f6e6c792041646d696e206f72204f70657261746f72000000000000000000006044820152606401610d6f565b818111611833576040517f08c379a000000000000000000000000000000000000000000000000000000000815260206004820152600f60248201527f456e64206e6f74203e20737461727400000000000000000000000000000000006044820152606401610d6f565b60db9190915560dc55565b600061184982613495565b73ffffffffffffffffffffffffffffffffffffffff9485169490915081168414611896576118967fa1148100000000000000000000000000000000000000000000000000000000006131a2565b600082815260066020526040902080546118cf8187335b73ffffffffffffffffffffffffffffffffffffffff9081169116811491141790565b61190a576118dd8633610bb1565b61190a5761190a7f59c896be000000000000000000000000000000000000000000000000000000006131a2565b801561191557600082555b73ffffffffffffffffffffffffffffffffffffffff86811660009081526005602052604080822080547fffffffffffffffffffffffffffffffffffffffffffffffffffffffffffffffff019055918716808252919020805460010190554260a01b177c0200000000000000000000000000000000000000000000000000000000176000858152600460205260408120919091557c020000000000000000000000000000000000000000000000000000000084169003611a0457600184016000818152600460205260408120549003611a02576000548114611a025760008181526004602052604090208490555b505b73ffffffffffffffffffffffffffffffffffffffff85168481887fddf252ad1be2c89b69c2b068fc378daa952ba7f163c4a11628f55a4df523b3ef600080a480600003611a7457611a747fea553b34000000000000000000000000000000000000000000000000000000006131a2565b50505050505050565b60de8054611a8a906146c6565b80601f0160208091040260200160405190810160405280929190818152602001828054611ab6906146c6565b8015611b035780601f10611ad857610100808354040283529160200191611b03565b820191906000526020600020905b815481529060010190602001808311611ae657829003601f168201915b505050505081565b600080367ffffffffffffffffffffffffffffffffffffffffffffffffffffffffffffffffe81013560f01c90033560601c9150611b5c8360e154620f4240611b5391906148b0565b620f42406135d1565b90509250929050565b6000828152606d6020526040902060010154611b8081612f3e565b611b8a83836133a1565b505050565b60608585858585604051602001611baa9594939291906148c3565b604051602081830303815290604052905095945050505050565b73ffffffffffffffffffffffffffffffffffffffff81163314611c69576040517f08c379a000000000000000000000000000000000000000000000000000000000815260206004820152602f60248201527f416363657373436f6e74726f6c3a2063616e206f6e6c792072656e6f756e636560448201527f20726f6c657320666f722073656c6600000000000000000000000000000000006064820152608401610d6f565b610fb68282613765565b7fa49807205ce4d355092ef5a8a18f56e8913cf4a201fbe287825b095693c21775611c9d81612f3e565b60405133904780156108fc02916000818181858888f19350505050158015610fb6573d6000803e3d6000fd5b611b8a83838360405180602001604052806000815250612800565b33611cee82611f97565b73ffffffffffffffffffffffffffffffffffffffff1614611d6b576040517f08c379a000000000000000000000000000000000000000000000000000000000815260206004820152600960248201527f4e6f74204f776e657200000000000000000000000000000000000000000000006044820152606401610d6f565b611d7481613820565b60405181815233907f512586160ebd4dc6945ba9ec5d21a1f723f26f3c7aa36cdffb6818d4e7b880309060200160405180910390a250565b611db4612ecb565b3360009081527f9deef4832b18b62adaf7ce030da5f06e20ee9867097fb4884ce69b9f78341c42602052604090205460ff1680611e1f57503360009081527f1e6a3de0d48b74115044b871eacee36727a72e27f7906b5d35017cf5f4a3a042602052604090205460ff165b611e85576040517f08c379a000000000000000000000000000000000000000000000000000000000815260206004820152601660248201527f4f6e6c792041646d696e206f72204f70657261746f72000000000000000000006044820152606401610d6f565b60df54600154600054839190037fffffffffffffffffffffffffffffffffffffffffffffffffffffffffffffffff01611ebe919061469c565b1115611f26576040517f08c379a000000000000000000000000000000000000000000000000000000000815260206004820152601260248201527f4f766572206d696e744d6178206572726f7200000000000000000000000000006044820152606401610d6f565b611f30828261382b565b6040805173ffffffffffffffffffffffffffffffffffffffff841681526020810183905233917f1a3e625d40ebf494638afa2b07e6a62f9fbfa2060469d5bfc998ce32d7c91b90910160405180910390a2610fb66001609f55565b60dd610fb68282614767565b600061105c82613495565b60dd8054611a8a906146c6565b600073ffffffffffffffffffffffffffffffffffffffff8216611ff557611ff57f8f4eb604000000000000000000000000000000000000000000000000000000006131a2565b5073ffffffffffffffffffffffffffffffffffffffff1660009081526005602052604090205467ffffffffffffffff1690565b612030612ecb565b60dc5442908111801590612046575060db548110155b6120ac576040517f08c379a000000000000000000000000000000000000000000000000000000000815260206004820152601360248201527f4e6f7420526567756c6172206d696e54696d65000000000000000000000000006044820152606401610d6f565b60df54600154600054849190037fffffffffffffffffffffffffffffffffffffffffffffffffffffffffffffffff016120e5919061469c565b111561214d576040517f08c379a000000000000000000000000000000000000000000000000000000000815260206004820152601260248201527f4f766572206d696e744d6178206572726f7200000000000000000000000000006044820152606401610d6f565b61215e348460d9548560da54612f4b565b60d9546040805134815273ffffffffffffffffffffffffffffffffffffffff86166020820152908101849052606081019190915233907f4b39a2b601e18792cafbb9db818cbd30b9cd45ad108161d616484ec3b3cc1def9060800160405180910390a250610fb66001609f55565b3360009081527f9deef4832b18b62adaf7ce030da5f06e20ee9867097fb4884ce69b9f78341c42602052604090205460ff168061223757503360009081527f1e6a3de0d48b74115044b871eacee36727a72e27f7906b5d35017cf5f4a3a042602052604090205460ff165b61229d576040517f08c379a000000000000000000000000000000000000000000000000000000000815260206004820152601660248201527f4f6e6c792041646d696e206f72204f70657261746f72000000000000000000006044820152606401610d6f565b60008111612307576040517f08c379a000000000000000000000000000000000000000000000000000000000815260206004820152601460248201527f496e76616c696420707269636520616d6f756e740000000000000000000000006044820152606401610d6f565b60d155565b3360009081527f9deef4832b18b62adaf7ce030da5f06e20ee9867097fb4884ce69b9f78341c42602052604090205460ff168061237757503360009081527f1e6a3de0d48b74115044b871eacee36727a72e27f7906b5d35017cf5f4a3a042602052604090205460ff165b6123dd576040517f08c379a000000000000000000000000000000000000000000000000000000000815260206004820152601660248201527f4f6e6c792041646d696e206f72204f70657261746f72000000000000000000006044820152606401610d6f565b60008111612447576040517f08c379a000000000000000000000000000000000000000000000000000000000815260206004820152601260248201527f496e76616c6964206d617820616d6f756e7400000000000000000000000000006044820152606401610d6f565b60d255565b3360009081527f9deef4832b18b62adaf7ce030da5f06e20ee9867097fb4884ce69b9f78341c42602052604090205460ff16806124b757503360009081527f1e6a3de0d48b74115044b871eacee36727a72e27f7906b5d35017cf5f4a3a042602052604090205460ff165b61251d576040517f08c379a000000000000000000000000000000000000000000000000000000000815260206004820152601660248201527f4f6e6c792041646d696e206f72204f70657261746f72000000000000000000006044820152606401610d6f565b60008111612587576040517f08c379a000000000000000000000000000000000000000000000000000000000815260206004820152601360248201527f496e76616c6964206d696e7420616d6f756e74000000000000000000000000006044820152606401610d6f565b60da55565b6060600380546110b2906146c6565b33600081815260076020908152604080832073ffffffffffffffffffffffffffffffffffffffff87168085529083529281902080547fffffffffffffffffffffffffffffffffffffffffffffffffffffffffffffff001686151590811790915590519081529192917f17307eab39ab6107e8899845ad3d59bd9653f200f220920489ca2b5937696c31910160405180910390a35050565b7f9eb10b7eab35fabb5491c526a3cf39c3bb7ce2ee5d483e1558635d2c96c2085c61265c81612f3e565b612664612ecb565b60d8544290811180159061267a575060d7548110155b6126e0576040517f08c379a000000000000000000000000000000000000000000000000000000000815260206004820152601060248201527f4e6f74204f47206d696e742074696d65000000000000000000000000000000006044820152606401610d6f565b60df54600154600054859190037fffffffffffffffffffffffffffffffffffffffffffffffffffffffffffffffff01612719919061469c565b1115612781576040517f08c379a000000000000000000000000000000000000000000000000000000000815260206004820152601260248201527f4f766572206d696e744d6178206572726f7200000000000000000000000000006044820152606401610d6f565b612792348560d5548660d654612f4b565b60d5546040805134815273ffffffffffffffffffffffffffffffffffffffff87166020820152908101859052606081019190915233907f2803fcf0a236d2815d9e6b3ef81ad6014f08139d44906d7d3cfc5302331e81e09060800160405180910390a250611b8a6001609f55565b61280b84848461183e565b73ffffffffffffffffffffffffffffffffffffffff83163b156128615761283484848484613845565b612861576128617fd1a57ed6000000000000000000000000000000000000000000000000000000006131a2565b50505050565b60606128728261313b565b6128fe576040517f08c379a000000000000000000000000000000000000000000000000000000000815260206004820152602f60248201527f4552433732314d657461646174613a2055524920717565727920666f72206e6f60448201527f6e6578697374656e7420746f6b656e00000000000000000000000000000000006064820152608401610d6f565b600061291560408051602081019091526000815290565b90506000815111612935576040518060200160405280600081525061109c565b8061293f846139b6565b60de60405160200161295393929190614914565b6040516020818303038152906040529392505050565b3360009081527f9deef4832b18b62adaf7ce030da5f06e20ee9867097fb4884ce69b9f78341c42602052604090205460ff16806129d457503360009081527f1e6a3de0d48b74115044b871eacee36727a72e27f7906b5d35017cf5f4a3a042602052604090205460ff165b612a3a576040517f08c379a000000000000000000000000000000000000000000000000000000000815260206004820152601660248201527f4f6e6c792041646d696e206f72204f70657261746f72000000000000000000006044820152606401610d6f565b60008111612aa4576040517f08c379a000000000000000000000000000000000000000000000000000000000815260206004820152601260248201527f496e76616c6964206d617820616d6f756e7400000000000000000000000000006044820152606401610d6f565b60d655565b6000828152606d6020526040902060010154612ac481612f3e565b611b8a8383613765565b60de610fb68282614767565b6000808260d55461107391906146af565b3360009081527f9deef4832b18b62adaf7ce030da5f06e20ee9867097fb4884ce69b9f78341c42602052604090205460ff1680612b5657503360009081527f1e6a3de0d48b74115044b871eacee36727a72e27f7906b5d35017cf5f4a3a042602052604090205460ff165b612bbc576040517f08c379a000000000000000000000000000000000000000000000000000000000815260206004820152601660248201527f4f6e6c792041646d696e206f72204f70657261746f72000000000000000000006044820152606401610d6f565b60008111612c26576040517f08c379a000000000000000000000000000000000000000000000000000000000815260206004820152601460248201527f496e76616c696420707269636520616d6f756e740000000000000000000000006044820152606401610d6f565b60d555565b3360009081527f9deef4832b18b62adaf7ce030da5f06e20ee9867097fb4884ce69b9f78341c42602052604090205460ff1680612c9657503360009081527f1e6a3de0d48b74115044b871eacee36727a72e27f7906b5d35017cf5f4a3a042602052604090205460ff165b612cfc576040517f08c379a000000000000000000000000000000000000000000000000000000000815260206004820152601660248201527f4f6e6c792041646d696e206f72204f70657261746f72000000000000000000006044820152606401610d6f565b60ff81161580612d0f57508060ff166001145b612d75576040517f08c379a000000000000000000000000000000000000000000000000000000000815260206004820152601460248201527f4572726f72206f6e6c79204f473d302c574c3d310000000000000000000000006044820152606401610d6f565b8180156128615760005b81811015612ec4576000858583818110612d9b57612d9b614881565b9050602002016020810190612db09190614513565b73ffffffffffffffffffffffffffffffffffffffff1603612e2d576040517f08c379a000000000000000000000000000000000000000000000000000000000815260206004820152600f60248201527f496e76616c6964204164647265737300000000000000000000000000000000006044820152606401610d6f565b60ff831615612e8657612e817f9eb10b7eab35fabb5491c526a3cf39c3bb7ce2ee5d483e1558635d2c96c2085c868684818110612e6c57612e6c614881565b90506020020160208101906113da9190614513565b612ebc565b612ebc7fcb7e89b7eed8294d41c0215e2f4fe023e2166afcfa3d1f479c394274afe5f019868684818110612e6c57612e6c614881565b600101612d7f565b5050505050565b6002609f5403612f37576040517f08c379a000000000000000000000000000000000000000000000000000000000815260206004820152601f60248201527f5265656e7472616e637947756172643a207265656e7472616e742063616c6c006044820152606401610d6f565b6002609f55565b612f488133613a18565b50565b33600090815260e260205260409020548190612f6890849061469c565b1115612fd0576040517f08c379a000000000000000000000000000000000000000000000000000000000815260206004820152600f60248201527f45786365656473206d61784d696e7400000000000000000000000000000000006044820152606401610d6f565b6000612fdc84846146af565b9050600060e054600003612ff1576000612ffd565b612ffd8260e054613128565b9050613009818361469c565b871015613072576040517f08c379a000000000000000000000000000000000000000000000000000000000815260206004820152601960248201527f496e73756666696369656e74206d696e74207061796d656e74000000000000006044820152606401610d6f565b33600090815260e260205260409020805485019055611a74868561382b565b60007fffffffff0000000000000000000000000000000000000000000000000000000082167f7965db0b00000000000000000000000000000000000000000000000000000000148061105c57507f01ffc9a7000000000000000000000000000000000000000000000000000000007fffffffff0000000000000000000000000000000000000000000000000000000083161461105c565b600061109c83611b5384620f42406148b0565b60008160011161319d5760005482101561319d5760005b506000828152600460205260408120549081900361317a57613173836149d2565b9250613152565b7c0100000000000000000000000000000000000000000000000000000000161590505b919050565b8060005260046000fd5b60006131b783611f97565b90508180156131dc57503373ffffffffffffffffffffffffffffffffffffffff821614155b15613218576131eb8133610bb1565b613218576132187fcfb3b942000000000000000000000000000000000000000000000000000000006131a2565b60008381526006602052604080822080547fffffffffffffffffffffffff00000000000000000000000000000000000000001673ffffffffffffffffffffffffffffffffffffffff88811691821790925591518693918516917f8c5be1e5ebec7d5bd14f71427d1e84f3dd0314c0f7b2291e5b200ac8c7c3b92591a450505050565b60026132a68382614767565b5060036132b38282614767565b5060016000555050565b600854610100900460ff16613354576040517f08c379a000000000000000000000000000000000000000000000000000000000815260206004820152602b60248201527f496e697469616c697a61626c653a20636f6e7472616374206973206e6f74206960448201527f6e697469616c697a696e670000000000000000000000000000000000000000006064820152608401610d6f565b565b6000828152606d6020526040808220600101805490849055905190918391839186917fbd79b86ffe0ab8e8776151514217cd7cacd52c909f66475c3af44e129f0b00ff9190a4505050565b6000828152606d6020908152604080832073ffffffffffffffffffffffffffffffffffffffff8516845290915290205460ff16610fb6576000828152606d6020908152604080832073ffffffffffffffffffffffffffffffffffffffff85168452909152902080547fffffffffffffffffffffffffffffffffffffffffffffffffffffffffffffff001660011790556134373390565b73ffffffffffffffffffffffffffffffffffffffff168173ffffffffffffffffffffffffffffffffffffffff16837f2f8788117e7eff1d82e926ec794901d17c78024a50270940304540a733656f0d60405160405180910390a45050565b6000816001116135a857506000818152600460205260408120549081900361357c5760005482106134e9576134e97fdf2d9b42000000000000000000000000000000000000000000000000000000006131a2565b5b507fffffffffffffffffffffffffffffffffffffffffffffffffffffffffffffffff0160008181526004602052604090205480156134ea577c0100000000000000000000000000000000000000000000000000000000811660000361354e57919050565b6135777fdf2d9b42000000000000000000000000000000000000000000000000000000006131a2565b6134ea565b7c010000000000000000000000000000000000000000000000000000000081166000036135a857919050565b61319d7fdf2d9b42000000000000000000000000000000000000000000000000000000006131a2565b600080807fffffffffffffffffffffffffffffffffffffffffffffffffffffffffffffffff85870985870292508281108382030391505080600003613628576000841161361d57600080fd5b50829004905061109c565b80841161363457600080fd5b60008486880980840393811190920391905060008561365281614a07565b1695869004959384900493600081900304600101905061367281846146af565b9093179260006136838760036146af565b600218905061369281886146af565b61369d9060026148b0565b6136a790826146af565b90506136b381886146af565b6136be9060026148b0565b6136c890826146af565b90506136d481886146af565b6136df9060026148b0565b6136e990826146af565b90506136f581886146af565b6137009060026148b0565b61370a90826146af565b905061371681886146af565b6137219060026148b0565b61372b90826146af565b905061373781886146af565b6137429060026148b0565b61374c90826146af565b905061375881866146af565b9998505050505050505050565b6000828152606d6020908152604080832073ffffffffffffffffffffffffffffffffffffffff8516845290915290205460ff1615610fb6576000828152606d6020908152604080832073ffffffffffffffffffffffffffffffffffffffff8516808552925280832080547fffffffffffffffffffffffffffffffffffffffffffffffffffffffffffffff0016905551339285917ff6391f5c32d9c69d2a47ea670b442974b53935d1edc7fd64eb21e047a839171b9190a45050565b612f48816000613ad2565b610fb6828260405180602001604052806000815250613c78565b6040517f150b7a0200000000000000000000000000000000000000000000000000000000815260009073ffffffffffffffffffffffffffffffffffffffff85169063150b7a02906138a0903390899088908890600401614a3f565b6020604051808303816000875af19250505080156138f9575060408051601f3d9081017fffffffffffffffffffffffffffffffffffffffffffffffffffffffffffffffe01682019092526138f691810190614a88565b60015b613967573d808015613927576040519150601f19603f3d011682016040523d82523d6000602084013e61392c565b606091505b50805160000361395f5761395f7fd1a57ed6000000000000000000000000000000000000000000000000000000006131a2565b805181602001fd5b7fffffffff00000000000000000000000000000000000000000000000000000000167f150b7a02000000000000000000000000000000000000000000000000000000001490505b949350505050565b606060a06040510180604052602081039150506000815280825b600183039250600a81066030018353600a9004806139d057508190037fffffffffffffffffffffffffffffffffffffffffffffffffffffffffffffffe0909101908152919050565b6000828152606d6020908152604080832073ffffffffffffffffffffffffffffffffffffffff8516845290915290205460ff16610fb657613a5881613d00565b613a63836020613d1f565b604051602001613a74929190614aa5565b604080517fffffffffffffffffffffffffffffffffffffffffffffffffffffffffffffffe0818403018152908290527f08c379a0000000000000000000000000000000000000000000000000000000008252610d6f91600401614181565b6000613add83613495565b905080600080613afb86600090815260066020526040902080549091565b915091508415613b4b57613b108184336118ad565b613b4b57613b1e8333610bb1565b613b4b57613b4b7f59c896be000000000000000000000000000000000000000000000000000000006131a2565b8015613b5657600082555b73ffffffffffffffffffffffffffffffffffffffff8316600081815260056020526040902080546fffffffffffffffffffffffffffffffff0190554260a01b177c0300000000000000000000000000000000000000000000000000000000176000878152600460205260408120919091557c020000000000000000000000000000000000000000000000000000000085169003613c2357600186016000818152600460205260408120549003613c21576000548114613c215760008181526004602052604090208590555b505b604051869060009073ffffffffffffffffffffffffffffffffffffffff8616907fddf252ad1be2c89b69c2b068fc378daa952ba7f163c4a11628f55a4df523b3ef908390a45050600180548101905550505050565b613c828383613f62565b73ffffffffffffffffffffffffffffffffffffffff83163b15611b8a576000548281035b613cb96000868380600101945086613845565b613ce657613ce67fd1a57ed6000000000000000000000000000000000000000000000000000000006131a2565b818110613ca6578160005414612ec457612ec460006131a2565b606061105c73ffffffffffffffffffffffffffffffffffffffff831660145b60606000613d2e8360026146af565b613d3990600261469c565b67ffffffffffffffff811115613d5157613d5161435f565b6040519080825280601f01601f191660200182016040528015613d7b576020820181803683370190505b5090507f300000000000000000000000000000000000000000000000000000000000000081600081518110613db257613db2614881565b60200101907effffffffffffffffffffffffffffffffffffffffffffffffffffffffffffff1916908160001a9053507f780000000000000000000000000000000000000000000000000000000000000081600181518110613e1557613e15614881565b60200101907effffffffffffffffffffffffffffffffffffffffffffffffffffffffffffff1916908160001a9053506000613e518460026146af565b613e5c90600161469c565b90505b6001811115613ef9577f303132333435363738396162636465660000000000000000000000000000000085600f1660108110613e9d57613e9d614881565b1a60f81b828281518110613eb357613eb3614881565b60200101907effffffffffffffffffffffffffffffffffffffffffffffffffffffffffffff1916908160001a90535060049490941c93613ef2816149d2565b9050613e5f565b50831561109c576040517f08c379a000000000000000000000000000000000000000000000000000000000815260206004820181905260248201527f537472696e67733a20686578206c656e67746820696e73756666696369656e746044820152606401610d6f565b6000805490829003613f9757613f977fb562e8dd000000000000000000000000000000000000000000000000000000006131a2565b600081815260046020908152604080832073ffffffffffffffffffffffffffffffffffffffff87164260a01b6001881460e11b1781179091558084526005909252822080546801000000000000000186020190559081900361401c5761401c7f2e076300000000000000000000000000000000000000000000000000000000006131a2565b818301825b808360007fddf252ad1be2c89b69c2b068fc378daa952ba7f163c4a11628f55a4df523b3ef600080a4818160010191508103614021575060005550505050565b60006020828403121561407357600080fd5b5035919050565b803573ffffffffffffffffffffffffffffffffffffffff8116811461319d57600080fd5b600080604083850312156140b157600080fd5b6140ba8361407a565b946020939093013593505050565b7fffffffff0000000000000000000000000000000000000000000000000000000081168114612f4857600080fd5b60006020828403121561410857600080fd5b813561109c816140c8565b60005b8381101561412e578181015183820152602001614116565b50506000910152565b6000815180845261414f816020860160208601614113565b601f017fffffffffffffffffffffffffffffffffffffffffffffffffffffffffffffffe0169290920160200192915050565b60208152600061109c6020830184614137565b60008083601f8401126141a657600080fd5b50813567ffffffffffffffff8111156141be57600080fd5b6020830191508360208260051b85010111156141d957600080fd5b9250929050565b600080600080600080600080600060a08a8c0312156141fe57600080fd5b8935985060208a013567ffffffffffffffff8082111561421d57600080fd5b818c0191508c601f83011261423157600080fd5b81358181111561424057600080fd5b8d602082850101111561425257600080fd5b602083019a508099505060408c013591508082111561427057600080fd5b61427c8d838e01614194565b909850965060608c013591508082111561429557600080fd5b6142a18d838e01614194565b909650945060808c01359150808211156142ba57600080fd5b506142c78c828d01614194565b915080935050809150509295985092959850929598565b600080604083850312156142f157600080fd5b50508035926020909101359150565b60008060006060848603121561431557600080fd5b61431e8461407a565b925061432c6020850161407a565b9150604084013590509250925092565b6000806040838503121561434f57600080fd5b82359150611b5c6020840161407a565b7f4e487b7100000000000000000000000000000000000000000000000000000000600052604160045260246000fd5b600067ffffffffffffffff808411156143a9576143a961435f565b604051601f85017fffffffffffffffffffffffffffffffffffffffffffffffffffffffffffffffe0908116603f011681019082821181831017156143ef576143ef61435f565b8160405280935085815286868601111561440857600080fd5b858560208301376000602087830101525050509392505050565b600082601f83011261443357600080fd5b61109c8383356020850161438e565b600080600080600060a0868803121561445a57600080fd5b8535945060208601359350604086013567ffffffffffffffff8082111561448057600080fd5b61448c89838a01614422565b945060608801359150808211156144a257600080fd5b6144ae89838a01614422565b935060808801359150808211156144c457600080fd5b506144d188828901614422565b9150509295509295909350565b6000602082840312156144f057600080fd5b813567ffffffffffffffff81111561450757600080fd5b6139ae84828501614422565b60006020828403121561452557600080fd5b61109c8261407a565b6000806040838503121561454157600080fd5b61454a8361407a565b91506020830135801515811461455f57600080fd5b809150509250929050565b6000806000806080858703121561458057600080fd5b6145898561407a565b93506145976020860161407a565b925060408501359150606085013567ffffffffffffffff8111156145ba57600080fd5b8501601f810187136145cb57600080fd5b6145da8782356020840161438e565b91505092959194509250565b600080604083850312156145f957600080fd5b6146028361407a565b9150611b5c6020840161407a565b60008060006040848603121561462557600080fd5b833567ffffffffffffffff81111561463c57600080fd5b61464886828701614194565b909450925050602084013560ff8116811461466257600080fd5b809150509250925092565b7f4e487b7100000000000000000000000000000000000000000000000000000000600052601160045260246000fd5b8082018082111561105c5761105c61466d565b808202811582820484141761105c5761105c61466d565b600181811c908216806146da57607f821691505b602082108103614713577f4e487b7100000000000000000000000000000000000000000000000000000000600052602260045260246000fd5b50919050565b601f821115611b8a57600081815260208120601f850160051c810160208610156147405750805b601f850160051c820191505b8181101561475f5782815560010161474c565b505050505050565b815167ffffffffffffffff8111156147815761478161435f565b6147958161478f84546146c6565b84614719565b602080601f8311600181146147e857600084156147b25750858301515b7fffffffffffffffffffffffffffffffffffffffffffffffffffffffffffffffff600386901b1c1916600185901b17855561475f565b6000858152602081207fffffffffffffffffffffffffffffffffffffffffffffffffffffffffffffffe08616915b8281101561483557888601518255948401946001909101908401614816565b508582101561487157878501517fffffffffffffffffffffffffffffffffffffffffffffffffffffffffffffffff600388901b60f8161c191681555b5050505050600190811b01905550565b7f4e487b7100000000000000000000000000000000000000000000000000000000600052603260045260246000fd5b8181038181111561105c5761105c61466d565b85815284602082015260a0604082015260006148e260a0830186614137565b82810360608401526148f48186614137565b905082810360808401526149088185614137565b98975050505050505050565b6000845160206149278285838a01614113565b85519184019161493a8184848a01614113565b855492019160009061494b816146c6565b600182811680156149635760018114614996576149c2565b7fffffffffffffffffffffffffffffffffffffffffffffffffffffffffffffff00841687528215158302870194506149c2565b896000528560002060005b848110156149ba578154898201529083019087016149a1565b505082870194505b50929a9950505050505050505050565b6000816149e1576149e161466d565b507fffffffffffffffffffffffffffffffffffffffffffffffffffffffffffffffff0190565b60007f80000000000000000000000000000000000000000000000000000000000000008203614a3857614a3861466d565b5060000390565b600073ffffffffffffffffffffffffffffffffffffffff808716835280861660208401525083604083015260806060830152614a7e6080830184614137565b9695505050505050565b600060208284031215614a9a57600080fd5b815161109c816140c8565b7f416363657373436f6e74726f6c3a206163636f756e7420000000000000000000815260008351614add816017850160208801614113565b7f206973206d697373696e6720726f6c65200000000000000000000000000000006017918401918201528351614b1a816028840160208801614113565b0160280194935050505056fea2646970667358221220a97e7fa933d953bb0ba36f177d961fa8cbbc4497b8f7cbf2c458f0abe5e103ee64736f6c63430008140033",
  "linkReferences": {},
  "deployedLinkReferences": {}
}