{
  "_format": "hh-sol-artifact-1",
  "contractName": "MvxCollection",
  "sourceName": "src/MvxCollection.sol",
  "abi": [
    {
      "inputs": [],
      "name": "ApprovalCallerNotOwnerNorApproved",
      "type": "error"
    },
    {
      "inputs": [],
      "name": "ApprovalQueryForNonexistentToken",
      "type": "error"
    },
    {
      "inputs": [],
      "name": "BalanceQueryForZeroAddress",
      "type": "error"
    },
    {
      "inputs": [],
      "name": "FixedMaxSupply",
      "type": "error"
    },
    {
      "inputs": [
        {
          "internalType": "uint8",
          "name": "",
          "type": "uint8"
        }
      ],
      "name": "InvalidCollectionData",
      "type": "error"
    },
    {
      "inputs": [],
      "name": "MintERC2309QuantityExceedsLimit",
      "type": "error"
    },
    {
      "inputs": [
        {
          "internalType": "bytes4",
          "name": "",
          "type": "bytes4"
        },
        {
          "internalType": "uint8",
          "name": "",
          "type": "uint8"
        }
      ],
      "name": "MintError",
      "type": "error"
    },
    {
      "inputs": [
        {
          "internalType": "uint8",
          "name": "",
          "type": "uint8"
        }
      ],
      "name": "MintForOwnerError",
      "type": "error"
    },
    {
      "inputs": [],
      "name": "MintToZeroAddress",
      "type": "error"
    },
    {
      "inputs": [],
      "name": "MintZeroQuantity",
      "type": "error"
    },
    {
      "inputs": [],
      "name": "OwnerQueryForNonexistentToken",
      "type": "error"
    },
    {
      "inputs": [],
      "name": "OwnershipNotInitializedForExtraData",
      "type": "error"
    },
    {
      "inputs": [
        {
          "internalType": "uint8",
          "name": "",
          "type": "uint8"
        }
      ],
      "name": "PublicStageUpdateError",
      "type": "error"
    },
    {
      "inputs": [
        {
          "internalType": "uint8",
          "name": "",
          "type": "uint8"
        }
      ],
      "name": "RoyaltyFeeError",
      "type": "error"
    },
    {
      "inputs": [],
      "name": "TokenNotExistsError",
      "type": "error"
    },
    {
      "inputs": [],
      "name": "TransferCallerNotOwnerNorApproved",
      "type": "error"
    },
    {
      "inputs": [],
      "name": "TransferFromIncorrectOwner",
      "type": "error"
    },
    {
      "inputs": [],
      "name": "TransferToNonERC721ReceiverImplementer",
      "type": "error"
    },
    {
      "inputs": [],
      "name": "TransferToZeroAddress",
      "type": "error"
    },
    {
      "inputs": [],
      "name": "URIQueryForNonexistentToken",
      "type": "error"
    },
    {
      "inputs": [
        {
          "internalType": "uint8",
          "name": "",
          "type": "uint8"
        }
      ],
      "name": "UpdateMaxSupplyError",
      "type": "error"
    },
    {
      "inputs": [
        {
          "internalType": "uint8",
          "name": "isPlaformCall",
          "type": "uint8"
        }
      ],
      "name": "WithdrawError",
      "type": "error"
    },
    {
      "anonymous": false,
      "inputs": [
        {
          "indexed": true,
          "internalType": "address",
          "name": "owner",
          "type": "address"
        },
        {
          "indexed": true,
          "internalType": "address",
          "name": "approved",
          "type": "address"
        },
        {
          "indexed": true,
          "internalType": "uint256",
          "name": "tokenId",
          "type": "uint256"
        }
      ],
      "name": "Approval",
      "type": "event"
    },
    {
      "anonymous": false,
      "inputs": [
        {
          "indexed": true,
          "internalType": "address",
          "name": "owner",
          "type": "address"
        },
        {
          "indexed": true,
          "internalType": "address",
          "name": "operator",
          "type": "address"
        },
        {
          "indexed": false,
          "internalType": "bool",
          "name": "approved",
          "type": "bool"
        }
      ],
      "name": "ApprovalForAll",
      "type": "event"
    },
    {
      "anonymous": false,
      "inputs": [
        {
          "indexed": true,
          "internalType": "address",
          "name": "sender",
          "type": "address"
        },
        {
          "indexed": false,
          "internalType": "uint256",
          "name": "tokenId",
          "type": "uint256"
        }
      ],
      "name": "BurnEvent",
      "type": "event"
    },
    {
      "anonymous": false,
      "inputs": [
        {
          "indexed": true,
          "internalType": "uint256",
          "name": "fromTokenId",
          "type": "uint256"
        },
        {
          "indexed": false,
          "internalType": "uint256",
          "name": "toTokenId",
          "type": "uint256"
        },
        {
          "indexed": true,
          "internalType": "address",
          "name": "from",
          "type": "address"
        },
        {
          "indexed": true,
          "internalType": "address",
          "name": "to",
          "type": "address"
        }
      ],
      "name": "ConsecutiveTransfer",
      "type": "event"
    },
    {
      "anonymous": false,
      "inputs": [
        {
          "indexed": false,
          "internalType": "string",
          "name": "",
          "type": "string"
        },
        {
          "indexed": false,
          "internalType": "address",
          "name": "",
          "type": "address"
        }
      ],
      "name": "Log",
      "type": "event"
    },
    {
      "anonymous": false,
      "inputs": [
        {
          "indexed": false,
          "internalType": "string",
          "name": "",
          "type": "string"
        },
        {
          "indexed": false,
          "internalType": "uint256",
          "name": "",
          "type": "uint256"
        }
      ],
      "name": "Log",
      "type": "event"
    },
    {
      "anonymous": false,
      "inputs": [
        {
          "indexed": true,
          "internalType": "address",
          "name": "sender",
          "type": "address"
        },
        {
          "indexed": false,
          "internalType": "uint256",
          "name": "value",
          "type": "uint256"
        },
        {
          "indexed": false,
          "internalType": "address",
          "name": "to",
          "type": "address"
        },
        {
          "indexed": false,
          "internalType": "uint256",
          "name": "amount",
          "type": "uint256"
        },
        {
          "indexed": false,
          "internalType": "uint256",
          "name": "mintPrice",
          "type": "uint256"
        }
      ],
      "name": "MintEvent",
      "type": "event"
    },
    {
      "anonymous": false,
      "inputs": [
        {
          "indexed": false,
          "internalType": "uint256",
          "name": "",
          "type": "uint256"
        }
      ],
      "name": "NewMaxSupply",
      "type": "event"
    },
    {
      "anonymous": false,
      "inputs": [
        {
          "indexed": true,
          "internalType": "address",
          "name": "sender",
          "type": "address"
        },
        {
          "indexed": false,
          "internalType": "uint256",
          "name": "value",
          "type": "uint256"
        },
        {
          "indexed": false,
          "internalType": "address",
          "name": "to",
          "type": "address"
        },
        {
          "indexed": false,
          "internalType": "uint256",
          "name": "amount",
          "type": "uint256"
        },
        {
          "indexed": false,
          "internalType": "uint256",
          "name": "_ogMintPrice",
          "type": "uint256"
        }
      ],
      "name": "OGmintEvent",
      "type": "event"
    },
    {
      "anonymous": false,
      "inputs": [
        {
          "indexed": true,
          "internalType": "address",
          "name": "sender",
          "type": "address"
        },
        {
          "indexed": false,
          "internalType": "address",
          "name": "to",
          "type": "address"
        },
        {
          "indexed": false,
          "internalType": "uint256",
          "name": "amount",
          "type": "uint256"
        }
      ],
      "name": "OwnerMintEvent",
      "type": "event"
    },
    {
      "anonymous": false,
      "inputs": [],
      "name": "PublicStageUpdate",
      "type": "event"
    },
    {
      "anonymous": false,
      "inputs": [
        {
          "indexed": true,
          "internalType": "bytes32",
          "name": "role",
          "type": "bytes32"
        },
        {
          "indexed": true,
          "internalType": "bytes32",
          "name": "previousAdminRole",
          "type": "bytes32"
        },
        {
          "indexed": true,
          "internalType": "bytes32",
          "name": "newAdminRole",
          "type": "bytes32"
        }
      ],
      "name": "RoleAdminChanged",
      "type": "event"
    },
    {
      "anonymous": false,
      "inputs": [
        {
          "indexed": true,
          "internalType": "bytes32",
          "name": "role",
          "type": "bytes32"
        },
        {
          "indexed": true,
          "internalType": "address",
          "name": "account",
          "type": "address"
        },
        {
          "indexed": true,
          "internalType": "address",
          "name": "sender",
          "type": "address"
        }
      ],
      "name": "RoleGranted",
      "type": "event"
    },
    {
      "anonymous": false,
      "inputs": [
        {
          "indexed": true,
          "internalType": "bytes32",
          "name": "role",
          "type": "bytes32"
        },
        {
          "indexed": true,
          "internalType": "address",
          "name": "account",
          "type": "address"
        },
        {
          "indexed": true,
          "internalType": "address",
          "name": "sender",
          "type": "address"
        }
      ],
      "name": "RoleRevoked",
      "type": "event"
    },
    {
      "anonymous": false,
      "inputs": [
        {
          "indexed": true,
          "internalType": "address",
          "name": "sender",
          "type": "address"
        },
        {
          "indexed": false,
          "internalType": "address",
          "name": "receiver",
          "type": "address"
        },
        {
          "indexed": false,
          "internalType": "uint96",
          "name": "royaltyFee",
          "type": "uint96"
        }
      ],
      "name": "RoyaltyFeeUpdate",
      "type": "event"
    },
    {
      "anonymous": false,
      "inputs": [
        {
          "indexed": true,
          "internalType": "address",
          "name": "from",
          "type": "address"
        },
        {
          "indexed": true,
          "internalType": "address",
          "name": "to",
          "type": "address"
        },
        {
          "indexed": true,
          "internalType": "uint256",
          "name": "tokenId",
          "type": "uint256"
        }
      ],
      "name": "Transfer",
      "type": "event"
    },
    {
      "anonymous": false,
      "inputs": [
        {
          "indexed": true,
          "internalType": "address",
          "name": "sender",
          "type": "address"
        },
        {
          "indexed": false,
          "internalType": "uint256",
          "name": "listLength",
          "type": "uint256"
        }
      ],
      "name": "UpdateOgEvent",
      "type": "event"
    },
    {
      "anonymous": false,
      "inputs": [
        {
          "indexed": true,
          "internalType": "address",
          "name": "sender",
          "type": "address"
        },
        {
          "indexed": false,
          "internalType": "uint256",
          "name": "listLength",
          "type": "uint256"
        }
      ],
      "name": "UpdateWLevent",
      "type": "event"
    },
    {
      "anonymous": false,
      "inputs": [],
      "name": "ValidStages",
      "type": "event"
    },
    {
      "anonymous": false,
      "inputs": [
        {
          "indexed": true,
          "internalType": "address",
          "name": "sender",
          "type": "address"
        },
        {
          "indexed": false,
          "internalType": "uint256",
          "name": "value",
          "type": "uint256"
        },
        {
          "indexed": false,
          "internalType": "address",
          "name": "to",
          "type": "address"
        },
        {
          "indexed": false,
          "internalType": "uint256",
          "name": "amount",
          "type": "uint256"
        },
        {
          "indexed": false,
          "internalType": "uint256",
          "name": "wlMintPrice",
          "type": "uint256"
        }
      ],
      "name": "WLmintEvent",
      "type": "event"
    },
    {
      "anonymous": false,
      "inputs": [
        {
          "indexed": false,
          "internalType": "address",
          "name": "sender",
          "type": "address"
        },
        {
          "indexed": false,
          "internalType": "uint256",
          "name": "balance",
          "type": "uint256"
        },
        {
          "indexed": false,
          "internalType": "address",
          "name": "feeReceiver",
          "type": "address"
        },
        {
          "indexed": false,
          "internalType": "uint256",
          "name": "fee",
          "type": "uint256"
        }
      ],
      "name": "WithdrawEvent",
      "type": "event"
    },
    {
      "inputs": [],
      "name": "ADMIN_ROLE",
      "outputs": [
        {
          "internalType": "bytes32",
          "name": "",
          "type": "bytes32"
        }
      ],
      "stateMutability": "view",
      "type": "function"
    },
    {
      "inputs": [],
      "name": "DEFAULT_ADMIN_ROLE",
      "outputs": [
        {
          "internalType": "bytes32",
          "name": "",
          "type": "bytes32"
        }
      ],
      "stateMutability": "view",
      "type": "function"
    },
    {
      "inputs": [],
      "name": "OG_MINTER_ROLE",
      "outputs": [
        {
          "internalType": "bytes32",
          "name": "",
          "type": "bytes32"
        }
      ],
      "stateMutability": "view",
      "type": "function"
    },
    {
      "inputs": [],
      "name": "OPERATOR_ROLE",
      "outputs": [
        {
          "internalType": "bytes32",
          "name": "",
          "type": "bytes32"
        }
      ],
      "stateMutability": "view",
      "type": "function"
    },
    {
      "inputs": [],
      "name": "WL_MINTER_ROLE",
      "outputs": [
        {
          "internalType": "bytes32",
          "name": "",
          "type": "bytes32"
        }
      ],
      "stateMutability": "view",
      "type": "function"
    },
    {
      "inputs": [
        {
          "internalType": "address",
          "name": "to",
          "type": "address"
        },
        {
          "internalType": "uint256",
          "name": "tokenId",
          "type": "uint256"
        }
      ],
      "name": "approve",
      "outputs": [],
      "stateMutability": "payable",
      "type": "function"
    },
    {
      "inputs": [
        {
          "internalType": "address",
          "name": "owner",
          "type": "address"
        }
      ],
      "name": "balanceOf",
      "outputs": [
        {
          "internalType": "uint256",
          "name": "",
          "type": "uint256"
        }
      ],
      "stateMutability": "view",
      "type": "function"
    },
    {
      "inputs": [],
      "name": "baseURI",
      "outputs": [
        {
          "internalType": "string",
          "name": "",
          "type": "string"
        }
      ],
      "stateMutability": "view",
      "type": "function"
    },
    {
      "inputs": [
        {
          "internalType": "uint256",
          "name": "_tokenId",
          "type": "uint256"
        }
      ],
      "name": "burn",
      "outputs": [],
      "stateMutability": "nonpayable",
      "type": "function"
    },
    {
      "inputs": [],
      "name": "collectionData",
      "outputs": [
        {
          "internalType": "string",
          "name": "name",
          "type": "string"
        },
        {
          "internalType": "string",
          "name": "symbol",
          "type": "string"
        },
        {
          "internalType": "string",
          "name": "baseURI",
          "type": "string"
        },
        {
          "internalType": "string",
          "name": "baseExt",
          "type": "string"
        },
        {
          "internalType": "address",
          "name": "royaltyReceiver",
          "type": "address"
        },
        {
          "internalType": "uint128",
          "name": "maxSupply",
          "type": "uint128"
        },
        {
          "internalType": "uint128",
          "name": "royaltyFee",
          "type": "uint128"
        }
      ],
      "stateMutability": "view",
      "type": "function"
    },
    {
      "inputs": [
        {
          "internalType": "uint256",
          "name": "tokenId",
          "type": "uint256"
        }
      ],
      "name": "getApproved",
      "outputs": [
        {
          "internalType": "address",
          "name": "",
          "type": "address"
        }
      ],
      "stateMutability": "view",
      "type": "function"
    },
    {
      "inputs": [
        {
          "internalType": "bytes4",
          "name": "mintType",
          "type": "bytes4"
        },
        {
          "internalType": "address",
          "name": "_user",
          "type": "address"
        }
      ],
      "name": "getMintCountOf",
      "outputs": [
        {
          "internalType": "uint256",
          "name": "",
          "type": "uint256"
        }
      ],
      "stateMutability": "view",
      "type": "function"
    },
    {
      "inputs": [
        {
          "internalType": "bytes32",
          "name": "role",
          "type": "bytes32"
        }
      ],
      "name": "getRoleAdmin",
      "outputs": [
        {
          "internalType": "bytes32",
          "name": "",
          "type": "bytes32"
        }
      ],
      "stateMutability": "view",
      "type": "function"
    },
    {
      "inputs": [
        {
          "internalType": "bytes32",
          "name": "role",
          "type": "bytes32"
        },
        {
          "internalType": "address",
          "name": "account",
          "type": "address"
        }
      ],
      "name": "grantRole",
      "outputs": [],
      "stateMutability": "nonpayable",
      "type": "function"
    },
    {
      "inputs": [
        {
          "internalType": "bytes32",
          "name": "role",
          "type": "bytes32"
        },
        {
          "internalType": "address",
          "name": "account",
          "type": "address"
        }
      ],
      "name": "hasRole",
      "outputs": [
        {
          "internalType": "bool",
          "name": "",
          "type": "bool"
        }
      ],
      "stateMutability": "view",
      "type": "function"
    },
    {
      "inputs": [],
      "name": "initalized",
      "outputs": [
        {
          "internalType": "bool",
          "name": "",
          "type": "bool"
        }
      ],
      "stateMutability": "view",
      "type": "function"
    },
    {
      "inputs": [
        {
          "components": [
            {
              "internalType": "string",
              "name": "name",
              "type": "string"
            },
            {
              "internalType": "string",
              "name": "symbol",
              "type": "string"
            },
            {
              "internalType": "string",
              "name": "baseURI",
              "type": "string"
            },
            {
              "internalType": "string",
              "name": "baseExt",
              "type": "string"
            },
            {
              "internalType": "address",
              "name": "royaltyReceiver",
              "type": "address"
            },
            {
              "internalType": "uint128",
              "name": "maxSupply",
              "type": "uint128"
            },
            {
              "internalType": "uint128",
              "name": "royaltyFee",
              "type": "uint128"
            }
          ],
          "internalType": "struct Collection",
          "name": "_nftData",
          "type": "tuple"
        },
        {
          "components": [
            {
              "internalType": "bool",
              "name": "isMaxSupplyUpdatable",
              "type": "bool"
            },
            {
              "internalType": "uint72",
              "name": "ogMintPrice",
              "type": "uint72"
            },
            {
              "internalType": "uint72",
              "name": "whitelistMintPrice",
              "type": "uint72"
            },
            {
              "internalType": "uint72",
              "name": "mintPrice",
              "type": "uint72"
            },
            {
              "internalType": "uint16",
              "name": "mintMaxPerUser",
              "type": "uint16"
            },
            {
              "internalType": "uint16",
              "name": "ogMintMaxPerUser",
              "type": "uint16"
            },
            {
              "internalType": "uint40",
              "name": "mintStart",
              "type": "uint40"
            },
            {
              "internalType": "uint40",
              "name": "mintEnd",
              "type": "uint40"
            },
            {
              "internalType": "uint40",
              "name": "ogMintStart",
              "type": "uint40"
            },
            {
              "internalType": "uint40",
              "name": "ogMintEnd",
              "type": "uint40"
            },
            {
              "internalType": "uint40",
              "name": "whitelistMintStart",
              "type": "uint40"
            },
            {
              "internalType": "uint40",
              "name": "whitelistMintEnd",
              "type": "uint40"
            },
            {
              "internalType": "uint16",
              "name": "whitelistMintMaxPerUser",
              "type": "uint16"
            }
          ],
          "internalType": "struct Stages",
          "name": "_mintingStages",
          "type": "tuple"
        },
        {
          "internalType": "address[]",
          "name": "_ogs",
          "type": "address[]"
        },
        {
          "internalType": "address[]",
          "name": "_wls",
          "type": "address[]"
        }
      ],
      "name": "initialize",
      "outputs": [],
      "stateMutability": "nonpayable",
      "type": "function"
    },
    {
      "inputs": [
        {
          "internalType": "address",
          "name": "owner",
          "type": "address"
        },
        {
          "internalType": "address",
          "name": "operator",
          "type": "address"
        }
      ],
      "name": "isApprovedForAll",
      "outputs": [
        {
          "internalType": "bool",
          "name": "",
          "type": "bool"
        }
      ],
      "stateMutability": "view",
      "type": "function"
    },
    {
      "inputs": [
        {
          "internalType": "address",
          "name": "_to",
          "type": "address"
        },
        {
          "internalType": "uint256",
          "name": "_amount",
          "type": "uint256"
        }
      ],
      "name": "mintForOG",
      "outputs": [],
      "stateMutability": "payable",
      "type": "function"
    },
    {
      "inputs": [
        {
          "internalType": "address",
          "name": "_to",
          "type": "address"
        },
        {
          "internalType": "uint256",
          "name": "_amount",
          "type": "uint256"
        }
      ],
      "name": "mintForOwner",
      "outputs": [],
      "stateMutability": "payable",
      "type": "function"
    },
    {
      "inputs": [
        {
          "internalType": "address",
          "name": "_to",
          "type": "address"
        },
        {
          "internalType": "uint256",
          "name": "_amount",
          "type": "uint256"
        }
      ],
      "name": "mintForRegular",
      "outputs": [],
      "stateMutability": "payable",
      "type": "function"
    },
    {
      "inputs": [
        {
          "internalType": "address",
          "name": "_to",
          "type": "address"
        },
        {
          "internalType": "uint256",
          "name": "_amount",
          "type": "uint256"
        }
      ],
      "name": "mintForWhitelist",
      "outputs": [],
      "stateMutability": "payable",
      "type": "function"
    },
    {
      "inputs": [],
      "name": "mintingStages",
      "outputs": [
        {
          "internalType": "bool",
          "name": "isMaxSupplyUpdatable",
          "type": "bool"
        },
        {
          "internalType": "uint72",
          "name": "ogMintPrice",
          "type": "uint72"
        },
        {
          "internalType": "uint72",
          "name": "whitelistMintPrice",
          "type": "uint72"
        },
        {
          "internalType": "uint72",
          "name": "mintPrice",
          "type": "uint72"
        },
        {
          "internalType": "uint16",
          "name": "mintMaxPerUser",
          "type": "uint16"
        },
        {
          "internalType": "uint16",
          "name": "ogMintMaxPerUser",
          "type": "uint16"
        },
        {
          "internalType": "uint40",
          "name": "mintStart",
          "type": "uint40"
        },
        {
          "internalType": "uint40",
          "name": "mintEnd",
          "type": "uint40"
        },
        {
          "internalType": "uint40",
          "name": "ogMintStart",
          "type": "uint40"
        },
        {
          "internalType": "uint40",
          "name": "ogMintEnd",
          "type": "uint40"
        },
        {
          "internalType": "uint40",
          "name": "whitelistMintStart",
          "type": "uint40"
        },
        {
          "internalType": "uint40",
          "name": "whitelistMintEnd",
          "type": "uint40"
        },
        {
          "internalType": "uint16",
          "name": "whitelistMintMaxPerUser",
          "type": "uint16"
        }
      ],
      "stateMutability": "view",
      "type": "function"
    },
    {
      "inputs": [
        {
          "internalType": "address",
          "name": "",
          "type": "address"
        },
        {
          "internalType": "bytes4",
          "name": "",
          "type": "bytes4"
        }
      ],
      "name": "mintsPerWallet",
      "outputs": [
        {
          "internalType": "uint256",
          "name": "",
          "type": "uint256"
        }
      ],
      "stateMutability": "view",
      "type": "function"
    },
    {
      "inputs": [],
      "name": "name",
      "outputs": [
        {
          "internalType": "string",
          "name": "",
          "type": "string"
        }
      ],
      "stateMutability": "view",
      "type": "function"
    },
    {
      "inputs": [
        {
          "internalType": "uint256",
          "name": "tokenId",
          "type": "uint256"
        }
      ],
      "name": "ownerOf",
      "outputs": [
        {
          "internalType": "address",
          "name": "",
          "type": "address"
        }
      ],
      "stateMutability": "view",
      "type": "function"
    },
    {
      "inputs": [],
      "name": "platformFee",
      "outputs": [
        {
          "internalType": "uint16",
          "name": "",
          "type": "uint16"
        }
      ],
      "stateMutability": "view",
      "type": "function"
    },
    {
      "inputs": [],
      "name": "platformFeeReceiver",
      "outputs": [
        {
          "internalType": "address",
          "name": "",
          "type": "address"
        }
      ],
      "stateMutability": "view",
      "type": "function"
    },
    {
      "inputs": [],
      "name": "publicStageWeeks",
      "outputs": [
        {
          "internalType": "uint8",
          "name": "",
          "type": "uint8"
        }
      ],
      "stateMutability": "view",
      "type": "function"
    },
    {
      "inputs": [],
      "name": "receive",
      "outputs": [],
      "stateMutability": "payable",
      "type": "function"
    },
    {
      "inputs": [
        {
          "internalType": "bytes32",
          "name": "role",
          "type": "bytes32"
        },
        {
          "internalType": "address",
          "name": "account",
          "type": "address"
        }
      ],
      "name": "renounceRole",
      "outputs": [],
      "stateMutability": "nonpayable",
      "type": "function"
    },
    {
      "inputs": [
        {
          "internalType": "bytes32",
          "name": "role",
          "type": "bytes32"
        },
        {
          "internalType": "address",
          "name": "account",
          "type": "address"
        }
      ],
      "name": "revokeRole",
      "outputs": [],
      "stateMutability": "nonpayable",
      "type": "function"
    },
    {
      "inputs": [
        {
          "internalType": "uint256",
          "name": "tokenId",
          "type": "uint256"
        },
        {
          "internalType": "uint256",
          "name": "_salePrice",
          "type": "uint256"
        }
      ],
      "name": "royaltyInfo",
      "outputs": [
        {
          "internalType": "address",
          "name": "",
          "type": "address"
        },
        {
          "internalType": "uint256",
          "name": "",
          "type": "uint256"
        }
      ],
      "stateMutability": "view",
      "type": "function"
    },
    {
      "inputs": [
        {
          "internalType": "address",
          "name": "from",
          "type": "address"
        },
        {
          "internalType": "address",
          "name": "to",
          "type": "address"
        },
        {
          "internalType": "uint256",
          "name": "tokenId",
          "type": "uint256"
        }
      ],
      "name": "safeTransferFrom",
      "outputs": [],
      "stateMutability": "payable",
      "type": "function"
    },
    {
      "inputs": [
        {
          "internalType": "address",
          "name": "from",
          "type": "address"
        },
        {
          "internalType": "address",
          "name": "to",
          "type": "address"
        },
        {
          "internalType": "uint256",
          "name": "tokenId",
          "type": "uint256"
        },
        {
          "internalType": "bytes",
          "name": "_data",
          "type": "bytes"
        }
      ],
      "name": "safeTransferFrom",
      "outputs": [],
      "stateMutability": "payable",
      "type": "function"
    },
    {
      "inputs": [
        {
          "internalType": "address",
          "name": "operator",
          "type": "address"
        },
        {
          "internalType": "bool",
          "name": "approved",
          "type": "bool"
        }
      ],
      "name": "setApprovalForAll",
      "outputs": [],
      "stateMutability": "nonpayable",
      "type": "function"
    },
    {
      "inputs": [
        {
          "internalType": "string",
          "name": "_newBaseExtension",
          "type": "string"
        }
      ],
      "name": "setBaseExtension",
      "outputs": [],
      "stateMutability": "nonpayable",
      "type": "function"
    },
    {
      "inputs": [
        {
          "internalType": "string",
          "name": "_newBaseURI",
          "type": "string"
        }
      ],
      "name": "setBaseURI",
      "outputs": [],
      "stateMutability": "nonpayable",
      "type": "function"
    },
    {
      "inputs": [],
      "name": "stageTimeCap",
      "outputs": [
        {
          "internalType": "uint40",
          "name": "",
          "type": "uint40"
        }
      ],
      "stateMutability": "view",
      "type": "function"
    },
    {
      "inputs": [
        {
          "internalType": "bytes4",
          "name": "_interfaceId",
          "type": "bytes4"
        }
      ],
      "name": "supportsInterface",
      "outputs": [
        {
          "internalType": "bool",
          "name": "",
          "type": "bool"
        }
      ],
      "stateMutability": "view",
      "type": "function"
    },
    {
      "inputs": [],
      "name": "symbol",
      "outputs": [
        {
          "internalType": "string",
          "name": "",
          "type": "string"
        }
      ],
      "stateMutability": "view",
      "type": "function"
    },
    {
      "inputs": [
        {
          "internalType": "uint256",
          "name": "_tokenId",
          "type": "uint256"
        }
      ],
      "name": "tokenURI",
      "outputs": [
        {
          "internalType": "string",
          "name": "",
          "type": "string"
        }
      ],
      "stateMutability": "view",
      "type": "function"
    },
    {
      "inputs": [],
      "name": "totalSupply",
      "outputs": [
        {
          "internalType": "uint256",
          "name": "",
          "type": "uint256"
        }
      ],
      "stateMutability": "view",
      "type": "function"
    },
    {
      "inputs": [
        {
          "internalType": "address",
          "name": "from",
          "type": "address"
        },
        {
          "internalType": "address",
          "name": "to",
          "type": "address"
        },
        {
          "internalType": "uint256",
          "name": "tokenId",
          "type": "uint256"
        }
      ],
      "name": "transferFrom",
      "outputs": [],
      "stateMutability": "payable",
      "type": "function"
    },
    {
      "inputs": [
        {
          "internalType": "uint128",
          "name": "_newMax",
          "type": "uint128"
        }
      ],
      "name": "updateMaxSupply",
      "outputs": [],
      "stateMutability": "nonpayable",
      "type": "function"
    },
    {
      "inputs": [
        {
          "internalType": "uint16",
          "name": "_mintMax",
          "type": "uint16"
        }
      ],
      "name": "updateMintMax",
      "outputs": [],
      "stateMutability": "nonpayable",
      "type": "function"
    },
    {
      "inputs": [
        {
          "internalType": "uint72",
          "name": "_mintPrice",
          "type": "uint72"
        }
      ],
      "name": "updateMintPrice",
      "outputs": [],
      "stateMutability": "nonpayable",
      "type": "function"
    },
    {
      "inputs": [
        {
          "internalType": "address[]",
          "name": "_minterList",
          "type": "address[]"
        },
        {
          "internalType": "uint8",
          "name": "_mintRole",
          "type": "uint8"
        }
      ],
      "name": "updateMinterRoles",
      "outputs": [],
      "stateMutability": "nonpayable",
      "type": "function"
    },
    {
      "inputs": [
        {
          "internalType": "uint16",
          "name": "_ogMintMax",
          "type": "uint16"
        }
      ],
      "name": "updateOGMintMax",
      "outputs": [],
      "stateMutability": "nonpayable",
      "type": "function"
    },
    {
      "inputs": [
        {
          "internalType": "uint72",
          "name": "_price",
          "type": "uint72"
        }
      ],
      "name": "updateOGMintPrice",
      "outputs": [],
      "stateMutability": "nonpayable",
      "type": "function"
    },
    {
      "inputs": [
        {
          "internalType": "uint8",
          "name": "_weeks",
          "type": "uint8"
        }
      ],
      "name": "updatePublicEndTime",
      "outputs": [],
      "stateMutability": "payable",
      "type": "function"
    },
    {
      "inputs": [
        {
          "internalType": "address",
          "name": "_receiver",
          "type": "address"
        },
        {
          "internalType": "uint96",
          "name": "_royaltyFee",
          "type": "uint96"
        }
      ],
      "name": "updateRoyaltyInfo",
      "outputs": [],
      "stateMutability": "nonpayable",
      "type": "function"
    },
    {
      "inputs": [],
      "name": "updateStageFee",
      "outputs": [
        {
          "internalType": "uint72",
          "name": "",
          "type": "uint72"
        }
      ],
      "stateMutability": "view",
      "type": "function"
    },
    {
      "inputs": [
        {
          "internalType": "uint16",
          "name": "_whitelistMintMax",
          "type": "uint16"
        }
      ],
      "name": "updateWLMintMax",
      "outputs": [],
      "stateMutability": "nonpayable",
      "type": "function"
    },
    {
      "inputs": [
        {
          "internalType": "uint72",
          "name": "_whitelistMintPrice",
          "type": "uint72"
        }
      ],
      "name": "updateWhitelistMintPrice",
      "outputs": [],
      "stateMutability": "nonpayable",
      "type": "function"
    },
    {
      "inputs": [],
      "name": "version",
      "outputs": [
        {
          "internalType": "uint8",
          "name": "_version",
          "type": "uint8"
        }
      ],
      "stateMutability": "pure",
      "type": "function"
    },
    {
      "inputs": [],
      "name": "withdraw",
      "outputs": [],
      "stateMutability": "payable",
      "type": "function"
    }
  ],
  "bytecode": "0x60806040526013805460ff60281b1916905534801561001c575f80fd5b506144978061002a5f395ff3fe608060405260043610610366575f3560e01c80635be1a091116101c8578063a3e76c0f116100fd578063c712bcff1161009d578063da3ef23f1161006d578063da3ef23f14610b1d578063e985e9c514610b3c578063f2cca28f14610b83578063f5b541a614610ba2575f80fd5b8063c712bcff14610a76578063c87b56dd14610a95578063cf15a37c14610ab4578063d547741f14610afe575f80fd5b8063b0338f2e116100d8578063b0338f2e146109f1578063b4091aca14610a11578063b88d4fde14610a30578063be4b1ef914610a43575f80fd5b8063a3e76c0f146109a0578063a8c3182b146109a8578063abc56713146109bb575f80fd5b80637faf476d1161016857806395d89b411161014357806395d89b41146109335780639c89a7b314610947578063a217fddf1461096e578063a22cb46514610981575f80fd5b80637faf476d146108d557806381f4a0b5146108f457806391d1485414610914575f80fd5b80636c0360eb116101a35780636c0360eb1461086f57806370a082311461088357806375b238fc146108a25780637ab06c12146108c2575f80fd5b80635be1a091146107f25780636352211e1461081257806368c16b2214610831575f80fd5b80632d656ad71161029e57806342966c681161023e578063515571a211610219578063515571a21461078057806353b859df1461079f57806354fd4d50146107b257806355f804b3146107d3575f80fd5b806342966c68146107235780634464f777146107425780634695b37b14610761575f80fd5b80633808267e116102795780633808267e146106ca5780633ccfd60b146106e9578063411c4442146106f157806342842e0e14610710575f80fd5b80632d656ad71461066d5780632f2ff15d1461068c57806336568abe146106ab575f80fd5b8063172cf75f1161030957806323b872dd116102e457806323b872dd146105ba578063248a9ca3146105cd57806326232a2e146105fb5780632a55205a1461062f575f80fd5b8063172cf75f1461045057806318160ddd1461047e5780631a8f41931461049a575f80fd5b806306fdde031161034457806306fdde03146103c6578063081812fc146103e7578063095ea7b31461041e5780630e208d0814610431575f80fd5b80630107e23e1461036a5780630167f3c51461037f57806301ffc9a714610392575b5f80fd5b61037d610378366004613540565b610bc2565b005b61037d61038d36600461356d565b610d9b565b34801561039d575f80fd5b506103b16103ac3660046135ac565b610e88565b60405190151581526020015b60405180910390f35b3480156103d1575f80fd5b506103da610ecd565b6040516103bd9190613614565b3480156103f2575f80fd5b50610406610401366004613626565b610f5d565b6040516001600160a01b0390911681526020016103bd565b61037d61042c36600461356d565b610f96565b34801561043c575f80fd5b5061037d61044b366004613651565b610fa6565b34801561045b575f80fd5b506104705f8051602061444283398151915281565b6040519081526020016103bd565b348015610489575f80fd5b50610470600254600154035f190190565b3480156104a5575f80fd5b50600a54600b546105339160ff8116916001600160481b036101008304811692600160501b808204831693600160981b83049093169261ffff600160e01b8404811693600160f01b9081900482169364ffffffffff80851694600160281b8104821694928104821693600160781b8204831693600160a01b8304841693600160c81b8404169291909104168d565b604080519d15158e526001600160481b039c8d1660208f01529a8c169a8d019a909a529990971660608b015261ffff95861660808b015293851660a08a015264ffffffffff92831660c08a015290821660e089015281166101008801529081166101208701529182166101408601529216610160840152166101808201526101a0016103bd565b61037d6105c836600461366c565b6110a7565b3480156105d8575f80fd5b506104706105e7366004613626565b5f9081526020819052604090206001015490565b348015610606575f80fd5b5060125461061c90600160e81b900461ffff1681565b60405161ffff90911681526020016103bd565b34801561063a575f80fd5b5061064e6106493660046136aa565b61120c565b604080516001600160a01b0390931683526020830191909152016103bd565b348015610678575f80fd5b50601254610406906001600160a01b031681565b348015610697575f80fd5b5061037d6106a63660046136ca565b611256565b3480156106b6575f80fd5b5061037d6106c53660046136ca565b61127f565b3480156106d5575f80fd5b5061037d6106e4366004613709565b6112f9565b61037d6113b4565b3480156106fc575f80fd5b5061037d61070b366004613722565b61162f565b61037d61071e36600461366c565b6116ab565b34801561072e575f80fd5b5061037d61073d366004613626565b6116c5565b34801561074d575f80fd5b5061037d61075c366004613799565b611752565b34801561076c575f80fd5b5061037d61077b366004613709565b611bb8565b34801561078b575f80fd5b5061037d61079a366004613866565b611c73565b61037d6107ad36600461356d565b611d15565b3480156107bd575f80fd5b5060025b60405160ff90911681526020016103bd565b3480156107de575f80fd5b5061037d6107ed36600461392e565b611e00565b3480156107fd575f80fd5b506013546103b190600160281b900460ff1681565b34801561081d575f80fd5b5061040661082c366004613626565b611e0c565b34801561083c575f80fd5b5060125461085790600160a01b90046001600160481b031681565b6040516001600160481b0390911681526020016103bd565b34801561087a575f80fd5b506103da611e16565b34801561088e575f80fd5b5061047061089d366004613972565b611e25565b3480156108ad575f80fd5b506104705f8051602061442283398151915281565b61037d6108d036600461356d565b611e68565b3480156108e0575f80fd5b5061037d6108ef366004613866565b611f2d565b3480156108ff575f80fd5b506012546107c190600160f81b900460ff1681565b34801561091f575f80fd5b506103b161092e3660046136ca565b611fd3565b34801561093e575f80fd5b506103da611ffb565b348015610952575f80fd5b5061095b61200a565b6040516103bd979695949392919061398d565b348015610979575f80fd5b506104705f81565b34801561098c575f80fd5b5061037d61099b366004613a1b565b612268565b61037d6122d3565b61037d6109b636600461356d565b612326565b3480156109c6575f80fd5b506104706109d5366004613a4e565b600960209081525f928352604080842090915290825290205481565b3480156109fc575f80fd5b506104705f805160206143e283398151915281565b348015610a1c575f80fd5b5061037d610a2b366004613866565b612405565b61037d610a3e366004613a7a565b6124ab565b348015610a4e575f80fd5b50601354610a609064ffffffffff1681565b60405164ffffffffff90911681526020016103bd565b348015610a81575f80fd5b5061037d610a90366004613709565b6124e6565b348015610aa0575f80fd5b506103da610aaf366004613626565b6125a1565b348015610abf575f80fd5b50610470610ace366004613af4565b6001600160a01b03165f9081526009602090815260408083206001600160e01b0319949094168352929052205490565b348015610b09575f80fd5b5061037d610b183660046136ca565b612625565b348015610b28575f80fd5b5061037d610b3736600461392e565b612649565b348015610b47575f80fd5b506103b1610b56366004613b20565b6001600160a01b039182165f90815260086020908152604080832093909416825291909152205460ff1690565b348015610b8e575f80fd5b5061037d610b9d366004613b3c565b612655565b348015610bad575f80fd5b506104705f8051602061440283398151915281565b610bd95f8051602061442283398151915233611fd3565b80610bf65750610bf65f8051602061440283398151915233611fd3565b610c1b5760405162461bcd60e51b8152600401610c1290613b8b565b60405180910390fd5b60125460ff600160f81b9091048116908216811015610c505760405163b78065e960e01b815260016004820152602401610c12565b6012543490600160a01b90046001600160481b0316811015610c885760405163b78065e960e01b815260026004820152602401610c12565b600b8054601280546001600160f81b038116600160f81b60ff89890381169190910291821790935569ffffffffff000000000019841660078902909316620151800262ffffff16600160281b9485900464ffffffffff908116919091019081169094029290921790935560405191925f926001600160a01b0391821691909216179084908381818185875af1925050503d805f8114610d42576040519150601f19603f3d011682016040523d82523d5f602084013e610d47565b606091505b5050905080610d6c5760405163b78065e960e01b815260036004820152602401610c12565b6040517f364e225418b7ee601cf610faa00843fb274c2648cc61ab3c3752cdb78a6b11a6905f90a15050505050565b5f805160206143e2833981519152610db2816127f9565b600a54614f4760f01b90610dd49061010090046001600160481b031684613bcf565b341015610df857805f604051632dadc8a160e01b8152600401610c12929190613be6565b600a54600b54610e31918691869161ffff600160f01b909104169064ffffffffff600160501b8204811691600160781b90041686612806565b600a5460405133917f12868c3639cc6f45bf88ecdaf9a5a315a966c89339b502a13c32758761b8149491610e7a913491899189916101009091046001600160481b031690613c03565b60405180910390a250505050565b5f6001600160e01b0319821663184371e560e31b1480610eb857506001600160e01b0319821663152a902d60e11b145b80610ec75750610ec782612926565b92915050565b606060038054610edc90613c30565b80601f0160208091040260200160405190810160405280929190818152602001828054610f0890613c30565b8015610f535780601f10610f2a57610100808354040283529160200191610f53565b820191905f5260205f20905b815481529060010190602001808311610f3657829003601f168201915b5050505050905090565b5f610f6782612973565b610f7b57610f7b6333d1c03960e21b6129be565b505f908152600760205260409020546001600160a01b031690565b610fa2828260016129c6565b5050565b5f80516020614422833981519152610fbd816127f9565b600a5460ff16610fe357604051632a755e6760e11b815260016004820152602401610c12565b6011546001600160801b03908116908316101561101657604051632a755e6760e11b815260026004820152602401610c12565b611026600254600154035f190190565b826001600160801b0316101561105257604051632a755e6760e11b815260036004820152602401610c12565b601180546001600160801b0319166001600160801b0384169081179091556040519081527f870e95cc902be0a1f894ff08bb13ab98999fdb581790629f18dd80eb4da06cca9060200160405180910390a15050565b5f6110b182612a67565b6001600160a01b0394851694909150811684146110d7576110d762a1148160e81b6129be565b5f82815260076020526040902080546111028187335b6001600160a01b039081169116811491141790565b611124576111108633610b56565b61112457611124632ce44b5f60e11b6129be565b801561112e575f82555b6001600160a01b038681165f9081526006602052604080822080545f19019055918716808252919020805460010190554260a01b17600160e11b175f85815260056020526040812091909155600160e11b841690036111bb57600184015f8181526005602052604081205490036111b95760015481146111b9575f8181526005602052604090208490555b505b6001600160a01b0385168481887fddf252ad1be2c89b69c2b068fc378daa952ba7f163c4a11628f55a4df523b3ef5f80a4805f0361120357611203633a954ecd60e21b6129be565b50505050505050565b6010546011545f9182916001600160a01b03909116906127109061124090600160801b90046001600160801b031686613bcf565b61124a9190613c68565b915091505b9250929050565b5f82815260208190526040902060010154611270816127f9565b61127a8383612b02565b505050565b6001600160a01b03811633146112ef5760405162461bcd60e51b815260206004820152602f60248201527f416363657373436f6e74726f6c3a2063616e206f6e6c792072656e6f756e636560448201526e103937b632b9903337b91039b2b63360891b6064820152608401610c12565b610fa28282612b68565b6113105f8051602061442283398151915233611fd3565b8061132d575061132d5f8051602061440283398151915233611fd3565b6113495760405162461bcd60e51b8152600401610c1290613b8b565b5f8161ffff16116113915760405162461bcd60e51b8152602060048201526012602482015271125b9d985b1a59081b585e08185b5bdd5b9d60721b6044820152606401610c12565b600b805461ffff909216600160f01b026001600160f01b03909216919091179055565b5f805160206144228339815191526113cb816127f9565b60125433906001600160a01b03811690600160e81b900461ffff164761140657604051631d22aaa960e31b81525f6004820152602401610c12565b6001600160601b03811615611575576012545f906127109061143390600160e81b900461ffff1647613bcf565b61143d9190613c68565b90505f836001600160a01b0316826040515f6040518083038185875af1925050503d805f8114611488576040519150601f19603f3d011682016040523d82523d5f602084013e61148d565b606091505b50509050806114b257604051631d22aaa960e31b815260016004820152602401610c12565b60405147905f906001600160a01b0388169083908381818185875af1925050503d805f81146114fc576040519150601f19603f3d011682016040523d82523d5f602084013e611501565b606091505b505090508061152657604051631d22aaa960e31b815260026004820152602401610c12565b7f7e27a75faf6b8f74ec66364c1d23167ad5a538473e8bb4986ac2a26c30dbbbe6876115528685613c87565b88886040516115649493929190613c9a565b60405180910390a150505050611629565b60405147905f906001600160a01b0386169083908381818185875af1925050503d805f81146115bf576040519150601f19603f3d011682016040523d82523d5f602084013e6115c4565b606091505b50509050806115e957604051631d22aaa960e31b815260036004820152602401610c12565b7f7e27a75faf6b8f74ec66364c1d23167ad5a538473e8bb4986ac2a26c30dbbbe68583868660405161161e9493929190613c9a565b60405180910390a150505b50505050565b5f80516020614422833981519152611646816127f9565b61165983836001600160601b0316612bcc565b604080516001600160a01b03851681526001600160601b038416602082015233917f0d68bfdb860b47ebf04e76cebf91e412a17ee7ccf960b3dd8720471b090b2ea891015b60405180910390a2505050565b61127a83838360405180602001604052805f8152506124ab565b336116cf82611e0c565b6001600160a01b0316146117115760405162461bcd60e51b81526020600482015260096024820152682737ba1027bbb732b960b91b6044820152606401610c12565b61171a81612c66565b60405181815233907f512586160ebd4dc6945ba9ec5d21a1f723f26f3c7aa36cdffb6818d4e7b880309060200160405180910390a250565b601354600160281b900460ff16156117a25760405162461bcd60e51b8152602060048201526013602482015272105b1c9958591e481a5b9a5d1a585b1a5e9959606a1b6044820152606401610c12565b5f6117ac5f612c70565b90506117b86014612c88565b6012601f6101000a81548160ff021916908360ff1602179055506117dc6015612ca0565b6012601d6101000a81548161ffff021916908361ffff1602179055506118026017612cb8565b601260146101000a8154816001600160481b0302191690836001600160481b031602179055506118326020612cd0565b6013805464ffffffffff191664ffffffffff92909216919091179055336118d661185c8980613ccc565b8080601f0160208091040260200160405190810160405280939291908181526020018383808284375f9201919091525061189d9250505060208b018b613ccc565b8080601f0160208091040260200160405190810160405280939291908181526020018383808284375f92019190915250612ce892505050565b6118ed5f8051602061442283398151915280612d0a565b6119115f805160206144028339815191525f80516020614422833981519152612d0a565b6119355f805160206143e28339815191525f80516020614422833981519152612d0a565b6119595f805160206144428339815191525f80516020614422833981519152612d0a565b6119705f8051602061442283398151915282612b02565b6119875f8051602061442283398151915283612b02565b61199286865f612655565b61199e84846001612655565b6119b7826119b260e08b0160c08c01613651565b612bcc565b87600c6119c48282613e3c565b50506011546001600160801b03166119dc8189612d54565b8051600a8054602084015160408501516060860151608087015160a088015169ffffffffffffffffffff1995861697151569ffffffffffffffffff001916979097176101006001600160481b0395861681029190911771ffffffffffffffffffffffffffffffffffff60501b1916600160501b948616850268ffffffffffffffffff60981b191617600160981b9590931694909402919091176001600160e01b0316600160e01b61ffff928316026001600160f01b0390811691909117600160f01b97831688021790955560c0870151600b805460e08a0151958a01516101208b01516101408c01516101608d0151610180909d015164ffffffffff96871694909a1693909317600160281b98861689021769ffffffffffffffffffff60501b191691851690960264ffffffffff60781b191617600160781b958416959095029490941769ffffffffffffffffffff60a01b1916600160a01b9483169490940264ffffffffff60c81b191693909317600160c81b91909816029690961790931691909416909202919091179055601280546001600160a01b0319166001600160a01b0385161790556013805465ff000000000019169091179055611bad5f8051602061442283398151915283612625565b505050505050505050565b611bcf5f8051602061442283398151915233611fd3565b80611bec5750611bec5f8051602061440283398151915233611fd3565b611c085760405162461bcd60e51b8152600401610c1290613b8b565b5f8161ffff1611611c505760405162461bcd60e51b8152602060048201526012602482015271125b9d985b1a59081b585e08185b5bdd5b9d60721b6044820152606401610c12565b600a805461ffff909216600160f01b026001600160f01b03909216919091179055565b611c8a5f8051602061442283398151915233611fd3565b80611ca75750611ca75f8051602061440283398151915233611fd3565b611cc35760405162461bcd60e51b8152600401610c1290613b8b565b5f816001600160481b031611611ceb5760405162461bcd60e51b8152600401610c1290613fe2565b600a80546001600160481b039092166101000269ffffffffffffffffff0019909216919091179055565b611d2c5f8051602061442283398151915233611fd3565b80611d495750611d495f8051602061440283398151915233611fd3565b611d655760405162461bcd60e51b8152600401610c1290613b8b565b6011546001600160801b031681611d82600254600154035f190190565b611d8c9190614010565b1115611dae576040516364f5742160e11b815260016004820152602401610c12565b611db88282612f45565b604080516001600160a01b03841681526020810183905233917f1a3e625d40ebf494638afa2b07e6a62f9fbfa2060469d5bfc998ce32d7c91b90910160405180910390a25050565b600e610fa28282614023565b5f610ec782612a67565b6060611e20612f5e565b905090565b5f6001600160a01b038216611e4457611e446323d3ad8160e21b6129be565b506001600160a01b03165f908152600660205260409020546001600160401b031690565b600a5461524760f01b90611e8c90600160981b90046001600160481b031683613bcf565b341015611eb057805f604051632dadc8a160e01b8152600401610c12929190613be6565b600a54600b54611ee29185918591600160e01b900461ffff169064ffffffffff80821691600160281b90041686612806565b600a5460405133917f4b39a2b601e18792cafbb9db818cbd30b9cd45ad108161d616484ec3b3cc1def9161169e91349188918891600160981b9091046001600160481b031690613c03565b611f445f8051602061442283398151915233611fd3565b80611f615750611f615f8051602061440283398151915233611fd3565b611f7d5760405162461bcd60e51b8152600401610c1290613b8b565b5f816001600160481b031611611fa55760405162461bcd60e51b8152600401610c1290613fe2565b600a80546001600160481b03909216600160981b0268ffffffffffffffffff60981b19909216919091179055565b5f918252602082815260408084206001600160a01b0393909316845291905290205460ff1690565b606060048054610edc90613c30565b600c8054819061201990613c30565b80601f016020809104026020016040519081016040528092919081815260200182805461204590613c30565b80156120905780601f1061206757610100808354040283529160200191612090565b820191905f5260205f20905b81548152906001019060200180831161207357829003601f168201915b5050505050908060010180546120a590613c30565b80601f01602080910402602001604051908101604052809291908181526020018280546120d190613c30565b801561211c5780601f106120f35761010080835404028352916020019161211c565b820191905f5260205f20905b8154815290600101906020018083116120ff57829003601f168201915b50505050509080600201805461213190613c30565b80601f016020809104026020016040519081016040528092919081815260200182805461215d90613c30565b80156121a85780601f1061217f576101008083540402835291602001916121a8565b820191905f5260205f20905b81548152906001019060200180831161218b57829003601f168201915b5050505050908060030180546121bd90613c30565b80601f01602080910402602001604051908101604052809291908181526020018280546121e990613c30565b80156122345780601f1061220b57610100808354040283529160200191612234565b820191905f5260205f20905b81548152906001019060200180831161221757829003601f168201915b50505050600483015460059093015491926001600160a01b0316916001600160801b038082169250600160801b9091041687565b335f8181526008602090815260408083206001600160a01b03871680855290835292819020805460ff191686151590811790915590519081529192917f17307eab39ab6107e8899845ad3d59bd9653f200f220920489ca2b5937696c31910160405180910390a35050565b6040805181815260098183015268034b731b7b6b4b733960bd1b606082015234602082015290517fdd970dd9b5bfe707922155b058a407655cb18288b807e2216442bca8ad83d6b59181900360800190a1565b5f8051602061444283398151915261233d816127f9565b600a546115d360f21b9061236190600160501b90046001600160481b031684613bcf565b34101561238557805f604051632dadc8a160e01b8152600401610c12929190613be6565b600b546123ba908590859061ffff600160f01b8204169064ffffffffff600160a01b8204811691600160c81b90041686612806565b600a5460405133917f2803fcf0a236d2815d9e6b3ef81ad6014f08139d44906d7d3cfc5302331e81e091610e7a91349189918991600160501b9091046001600160481b031690613c03565b61241c5f8051602061442283398151915233611fd3565b8061243957506124395f8051602061440283398151915233611fd3565b6124555760405162461bcd60e51b8152600401610c1290613b8b565b5f816001600160481b03161161247d5760405162461bcd60e51b8152600401610c1290613fe2565b600a80546001600160481b03909216600160501b0268ffffffffffffffffff60501b19909216919091179055565b6124b68484846110a7565b6001600160a01b0383163b15611629576124d284848484612f70565b611629576116296368d2bf6b60e11b6129be565b6124fd5f8051602061442283398151915233611fd3565b8061251a575061251a5f8051602061440283398151915233611fd3565b6125365760405162461bcd60e51b8152600401610c1290613b8b565b5f8161ffff161161257f5760405162461bcd60e51b8152602060048201526013602482015272125b9d985b1a59081b5a5b9d08185b5bdd5b9d606a1b6044820152606401610c12565b600a805461ffff909216600160e01b0261ffff60e01b19909216919091179055565b60606125ac82612973565b6125c957604051635a13bba960e01b815260040160405180910390fd5b5f6125d2611e16565b90505f8151116125f05760405180602001604052805f81525061261e565b806125fa8461304f565b60405161260e929190600f906020016140d9565b6040516020818303038152906040525b9392505050565b5f8281526020819052604090206001015461263f816127f9565b61127a8383612b68565b600f610fa28282614023565b61266c5f8051602061442283398151915233611fd3565b8061268957506126895f8051602061440283398151915233611fd3565b6126a55760405162461bcd60e51b8152600401610c1290613b8b565b60ff811615806126b857508060ff166001145b6126fb5760405162461bcd60e51b81526020600482015260146024820152734572726f72206f6e6c79204f473d302c574c3d3160601b6044820152606401610c12565b818015611629575f5b818110156127f2575f85858381811061271f5761271f614174565b90506020020160208101906127349190613972565b6001600160a01b03160361277c5760405162461bcd60e51b815260206004820152600f60248201526e496e76616c6964204164647265737360881b6044820152606401610c12565b60ff8316156127c7576127c25f805160206144428339815191528686848181106127a8576127a8614174565b90506020020160208101906127bd9190613972565b612b02565b6127ea565b6127ea5f805160206143e28339815191528686848181106127a8576127a8614174565b600101612704565b5050505050565b6128038133613092565b50565b335f9081526009602090815260408083206001600160e01b0319851684529091529020548490612837908790614010565b111561285b57806001604051632dadc8a160e01b8152600401610c12929190613be6565b428381101561288257816002604051632dadc8a160e01b8152600401610c12929190613be6565b828111156128a857816003604051632dadc8a160e01b8152600401610c12929190613be6565b6011546001600160801b0316866128c5600254600154035f190190565b6128cf9190614010565b11156128f357816004604051632dadc8a160e01b8152600401610c12929190613be6565b335f9081526009602090815260408083206001600160e01b031986168452909152902080548701905561120387876130eb565b5f6301ffc9a760e01b6001600160e01b03198316148061295657506380ac58cd60e01b6001600160e01b03198316145b80610ec75750506001600160e01b031916635b5e139f60e01b1490565b5f816001116129b9576001548210156129b9575f5b505f82815260056020526040812054908190036129af576129a883614188565b9250612988565b600160e01b161590505b919050565b805f5260045ffd5b5f6129d083611e0c565b90508180156129e85750336001600160a01b03821614155b15612a0b576129f78133610b56565b612a0b57612a0b6367d9dca160e11b6129be565b5f8381526007602052604080822080546001600160a01b0319166001600160a01b0388811691821790925591518693918516917f8c5be1e5ebec7d5bd14f71427d1e84f3dd0314c0f7b2291e5b200ac8c7c3b92591a450505050565b5f81600111612af257505f8181526005602052604081205490819003612ae0576001548210612aa057612aa0636f96cda160e11b6129be565b5b505f19015f818152600560205260409020548015612aa157600160e01b81165f03612acb57919050565b612adb636f96cda160e11b6129be565b612aa1565b600160e01b81165f03612af257919050565b6129b9636f96cda160e11b6129be565b612b0c8282611fd3565b610fa2575f828152602081815260408083206001600160a01b0385168085529252808320805460ff1916600117905551339285917f2f8788117e7eff1d82e926ec794901d17c78024a50270940304540a733656f0d9190a45050565b612b728282611fd3565b15610fa2575f828152602081815260408083206001600160a01b0385168085529252808320805460ff1916905551339285917ff6391f5c32d9c69d2a47ea670b442974b53935d1edc7fd64eb21e047a839171b9190a45050565b612710816001600160801b03161115612bfb5760405163095a14db60e11b815260016004820152602401610c12565b6001600160a01b038216612c255760405163095a14db60e11b815260026004820152602401610c12565b601080546001600160a01b039093166001600160a01b031990931692909217909155601180546001600160801b03928316600160801b029216919091179055565b612803815f6131a6565b5f80612c7a6132d6565b929092013560601c92915050565b5f80612c926132d6565b929092013560f81c92915050565b5f80612caa6132d6565b929092013560f01c92915050565b5f80612cc26132d6565b929092013560b81c92915050565b5f80612cda6132d6565b929092013560d81c92915050565b6003612cf48382614023565b506004612d018282614023565b50600180555050565b5f82815260208190526040808220600101805490849055905190918391839186917fbd79b86ffe0ab8e8776151514217cd7cacd52c909f66475c3af44e129f0b00ff9190a4505050565b604080516101a0810182525f80825260208201819052918101829052606081018290526080810182905260a0810182905260c0810182905260e081018290526101008101829052610120810182905261014081018290526101608101829052610180810191909152612dcb368390038301836141b1565b9050826001600160801b03168161018001518260a001518360800151612df191906142ad565b612dfb91906142ad565b61ffff161115612e21576040516336fe104360e01b815260026004820152602401610c12565b5f8082610100015164ffffffffff1611612e3b575f612e4f565b612e4f8261010001518361012001516132e5565b64ffffffffff1690505f8083610140015164ffffffffff1611612e72575f612e86565b612e868361014001518461016001516132e5565b64ffffffffff1690505f808460c0015164ffffffffff1611612ea8575f612eba565b612eba8460c001518560e001516132e5565b60135464ffffffffff9182169250612ed69116620151806142cf565b64ffffffffff1681612ee88486614010565b612ef29190614010565b1115612f14576040516336fe104360e01b815260036004820152602401610c12565b6040517f86b038b0c0dafb1643b89a98d4e5baec6d8b0b306b23e695a428bc614daf09e0905f90a150505092915050565b610fa2828260405180602001604052805f815250613329565b6060600c6002018054610edc90613c30565b604051630a85bd0160e11b81525f906001600160a01b0385169063150b7a0290612fa49033908990889088906004016142f8565b6020604051808303815f875af1925050508015612fde575060408051601f3d908101601f19168201909252612fdb91810190614334565b60015b613031573d80801561300b576040519150601f19603f3d011682016040523d82523d5f602084013e613010565b606091505b5080515f03613029576130296368d2bf6b60e11b6129be565b805181602001fd5b6001600160e01b031916630a85bd0160e11b1490505b949350505050565b606060a06040510180604052602081039150505f815280825b600183039250600a81066030018353600a9004806130685750819003601f19909101908152919050565b61309c8282611fd3565b610fa2576130a981613389565b6130b483602061339b565b6040516020016130c592919061434f565b60408051601f198184030181529082905262461bcd60e51b8252610c1291600401613614565b6001545f8290036131065761310663b562e8dd60e01b6129be565b5f8181526005602090815260408083206001600160a01b0387164260a01b6001881460e11b1781179091558084526006909252822080546801000000000000000186020190559081900361316357613163622e076360e81b6129be565b818301825b80835f7fddf252ad1be2c89b69c2b068fc378daa952ba7f163c4a11628f55a4df523b3ef5f80a4818160010191508103613168575060015550505050565b5f6131b083612a67565b9050805f806131cc865f90815260076020526040902080549091565b915091508415613203576131e18184336110ed565b613203576131ef8333610b56565b61320357613203632ce44b5f60e11b6129be565b801561320d575f82555b6001600160a01b0383165f81815260066020526040902080546001600160801b030190554260a01b17600360e01b175f87815260056020526040812091909155600160e11b8516900361328e57600186015f81815260056020526040812054900361328c57600154811461328c575f8181526005602052604090208590555b505b60405186905f906001600160a01b038616907fddf252ad1be2c89b69c2b068fc378daa952ba7f163c4a11628f55a4df523b3ef908390a4505060028054600101905550505050565b3660011981013560f01c900390565b5f8264ffffffffff168264ffffffffff16111561330d5761330683836143c3565b9050610ec7565b6040516336fe104360e01b815260016004820152602401610c12565b61333383836130eb565b6001600160a01b0383163b1561127a576001548281035b61335c5f868380600101945086612f70565b613370576133706368d2bf6b60e11b6129be565b81811061334a5781600154146127f2576127f25f6129be565b6060610ec76001600160a01b03831660145b60605f6133a9836002613bcf565b6133b4906002614010565b6001600160401b038111156133cb576133cb61387f565b6040519080825280601f01601f1916602001820160405280156133f5576020820181803683370190505b509050600360fc1b815f8151811061340f5761340f614174565b60200101906001600160f81b03191690815f1a905350600f60fb1b8160018151811061343d5761343d614174565b60200101906001600160f81b03191690815f1a9053505f61345f846002613bcf565b61346a906001614010565b90505b60018111156134e1576f181899199a1a9b1b9c1cb0b131b232b360811b85600f166010811061349e5761349e614174565b1a60f81b8282815181106134b4576134b4614174565b60200101906001600160f81b03191690815f1a90535060049490941c936134da81614188565b905061346d565b50831561261e5760405162461bcd60e51b815260206004820181905260248201527f537472696e67733a20686578206c656e67746820696e73756666696369656e746044820152606401610c12565b803560ff811681146129b9575f80fd5b5f60208284031215613550575f80fd5b61261e82613530565b6001600160a01b0381168114612803575f80fd5b5f806040838503121561357e575f80fd5b823561358981613559565b946020939093013593505050565b6001600160e01b031981168114612803575f80fd5b5f602082840312156135bc575f80fd5b813561261e81613597565b5f5b838110156135e15781810151838201526020016135c9565b50505f910152565b5f81518084526136008160208601602086016135c7565b601f01601f19169290920160200192915050565b602081525f61261e60208301846135e9565b5f60208284031215613636575f80fd5b5035919050565b6001600160801b0381168114612803575f80fd5b5f60208284031215613661575f80fd5b813561261e8161363d565b5f805f6060848603121561367e575f80fd5b833561368981613559565b9250602084013561369981613559565b929592945050506040919091013590565b5f80604083850312156136bb575f80fd5b50508035926020909101359150565b5f80604083850312156136db575f80fd5b8235915060208301356136ed81613559565b809150509250929050565b803561ffff811681146129b9575f80fd5b5f60208284031215613719575f80fd5b61261e826136f8565b5f8060408385031215613733575f80fd5b823561373e81613559565b915060208301356001600160601b03811681146136ed575f80fd5b5f8083601f840112613769575f80fd5b5081356001600160401b0381111561377f575f80fd5b6020830191508360208260051b850101111561124f575f80fd5b5f805f805f808688036102008112156137b0575f80fd5b87356001600160401b03808211156137c6575f80fd5b9089019060e0828c0312156137d9575f80fd5b8198506101a0601f19840112156137ee575f80fd5b60208a0197506101c08a0135925080831115613808575f80fd5b6138148b848c01613759565b90975095506101e08a0135925086915080831115613830575f80fd5b505061383e89828a01613759565b979a9699509497509295939492505050565b80356001600160481b03811681146129b9575f80fd5b5f60208284031215613876575f80fd5b61261e82613850565b634e487b7160e01b5f52604160045260245ffd5b6040516101a081016001600160401b03811182821017156138b6576138b661387f565b60405290565b5f6001600160401b03808411156138d5576138d561387f565b604051601f8501601f19908116603f011681019082821181831017156138fd576138fd61387f565b81604052809350858152868686011115613915575f80fd5b858560208301375f602087830101525050509392505050565b5f6020828403121561393e575f80fd5b81356001600160401b03811115613953575f80fd5b8201601f81018413613963575f80fd5b613047848235602084016138bc565b5f60208284031215613982575f80fd5b813561261e81613559565b60e081525f61399f60e083018a6135e9565b82810360208401526139b1818a6135e9565b905082810360408401526139c581896135e9565b905082810360608401526139d981886135e9565b6001600160a01b0396909616608084015250506001600160801b0392831660a0820152911660c090910152949350505050565b803580151581146129b9575f80fd5b5f8060408385031215613a2c575f80fd5b8235613a3781613559565b9150613a4560208401613a0c565b90509250929050565b5f8060408385031215613a5f575f80fd5b8235613a6a81613559565b915060208301356136ed81613597565b5f805f8060808587031215613a8d575f80fd5b8435613a9881613559565b93506020850135613aa881613559565b92506040850135915060608501356001600160401b03811115613ac9575f80fd5b8501601f81018713613ad9575f80fd5b613ae8878235602084016138bc565b91505092959194509250565b5f8060408385031215613b05575f80fd5b8235613b1081613597565b915060208301356136ed81613559565b5f8060408385031215613b31575f80fd5b8235613b1081613559565b5f805f60408486031215613b4e575f80fd5b83356001600160401b03811115613b63575f80fd5b613b6f86828701613759565b9094509250613b82905060208501613530565b90509250925092565b60208082526016908201527527b7363c9020b236b4b71037b91027b832b930ba37b960511b604082015260600190565b634e487b7160e01b5f52601160045260245ffd5b8082028115828204841417610ec757610ec7613bbb565b6001600160e01b031992909216825260ff16602082015260400190565b9384526001600160a01b0392909216602084015260408301526001600160481b0316606082015260800190565b600181811c90821680613c4457607f821691505b602082108103613c6257634e487b7160e01b5f52602260045260245ffd5b50919050565b5f82613c8257634e487b7160e01b5f52601260045260245ffd5b500490565b81810381811115610ec757610ec7613bbb565b6001600160a01b0394851681526020810193909352921660408201526001600160601b03909116606082015260800190565b5f808335601e19843603018112613ce1575f80fd5b8301803591506001600160401b03821115613cfa575f80fd5b60200191503681900382131561124f575f80fd5b601f82111561127a575f81815260208120601f850160051c81016020861015613d345750805b601f850160051c820191505b81811015613d5357828155600101613d40565b505050505050565b5f19600383901b1c191660019190911b1790565b6001600160401b03831115613d8657613d8661387f565b613d9a83613d948354613c30565b83613d0e565b5f601f841160018114613dc6575f8515613db45750838201355b613dbe8682613d5b565b8455506127f2565b5f83815260209020601f19861690835b82811015613df65786850135825560209485019460019092019101613dd6565b5086821015613e12575f1960f88860031b161c19848701351681555b505060018560011b0183555050505050565b5f8135610ec781613559565b5f8135610ec78161363d565b613e468283613ccc565b6001600160401b03811115613e5d57613e5d61387f565b613e7181613e6b8554613c30565b85613d0e565b5f601f821160018114613e9d575f8315613e8b5750838201355b613e958482613d5b565b865550613ef5565b5f85815260209020601f19841690835b82811015613ecd5786850135825560209485019460019092019101613ead565b5084821015613ee9575f1960f88660031b161c19848701351681555b505060018360011b0185555b50505050613f066020830183613ccc565b613f14818360018601613d6f565b5050613f236040830183613ccc565b613f31818360028601613d6f565b5050613f406060830183613ccc565b613f4e818360038601613d6f565b5050613f83613f5f60808401613e24565b6004830180546001600160a01b0319166001600160a01b0392909216919091179055565b60058101613fb3613f9660a08501613e30565b82546001600160801b0319166001600160801b0391909116178255565b61127a613fc260c08501613e30565b82546001600160801b031660809190911b6001600160801b031916178255565b602080825260149082015273125b9d985b1a59081c1c9a58d948185b5bdd5b9d60621b604082015260600190565b80820180821115610ec757610ec7613bbb565b81516001600160401b0381111561403c5761403c61387f565b6140508161404a8454613c30565b84613d0e565b602080601f83116001811461407e575f841561406c5750858301515b6140768582613d5b565b865550613d53565b5f85815260208120601f198616915b828110156140ac5788860151825594840194600190910190840161408d565b50858210156140c957878501515f19600388901b60f8161c191681555b5050505050600190811b01905550565b5f845160206140eb8285838a016135c7565b8551918401916140fe8184848a016135c7565b85549201915f9061410e81613c30565b60018281168015614126576001811461413b57614164565b60ff1984168752821515830287019450614164565b895f52855f205f5b8481101561415c57815489820152908301908701614143565b505082870194505b50929a9950505050505050505050565b634e487b7160e01b5f52603260045260245ffd5b5f8161419657614196613bbb565b505f190190565b803564ffffffffff811681146129b9575f80fd5b5f6101a082840312156141c2575f80fd5b6141ca613893565b6141d383613a0c565b81526141e160208401613850565b60208201526141f260408401613850565b604082015261420360608401613850565b6060820152614214608084016136f8565b608082015261422560a084016136f8565b60a082015261423660c0840161419d565b60c082015261424760e0840161419d565b60e082015261010061425a81850161419d565b9082015261012061426c84820161419d565b9082015261014061427e84820161419d565b9082015261016061429084820161419d565b908201526101806142a28482016136f8565b908201529392505050565b61ffff8181168382160190808211156142c8576142c8613bbb565b5092915050565b64ffffffffff8181168382160280821691908281146142f0576142f0613bbb565b505092915050565b6001600160a01b03858116825284166020820152604081018390526080606082018190525f9061432a908301846135e9565b9695505050505050565b5f60208284031215614344575f80fd5b815161261e81613597565b7f416363657373436f6e74726f6c3a206163636f756e742000000000000000000081525f83516143868160178501602088016135c7565b7001034b99036b4b9b9b4b733903937b6329607d1b60179184019182015283516143b78160288401602088016135c7565b01602801949350505050565b64ffffffffff8281168282160390808211156142c8576142c8613bbb56fecb7e89b7eed8294d41c0215e2f4fe023e2166afcfa3d1f479c394274afe5f01997667070c54ef182b0f5858b034beac1b6f3089aa2d3188bb1e8929f4fa9b929a49807205ce4d355092ef5a8a18f56e8913cf4a201fbe287825b095693c217759eb10b7eab35fabb5491c526a3cf39c3bb7ce2ee5d483e1558635d2c96c2085ca264697066735822122059a91448bc03fa69b696a2a0450c50bb2441e24819c6729393e3a7c031c89bde64736f6c63430008140033",
  "linkReferences": {},
  "deployedLinkReferences": {}
}