{
  "_format": "hh-sol-artifact-1",
  "contractName": "MvxCollection",
  "sourceName": "src/MvxCollection.sol",
  "abi": [
    {
      "inputs": [],
      "name": "ApprovalCallerNotOwnerNorApproved",
      "type": "error"
    },
    {
      "inputs": [],
      "name": "ApprovalQueryForNonexistentToken",
      "type": "error"
    },
    {
      "inputs": [],
      "name": "BalanceQueryForZeroAddress",
      "type": "error"
    },
    {
      "inputs": [],
      "name": "MintERC2309QuantityExceedsLimit",
      "type": "error"
    },
    {
      "inputs": [
        {
          "internalType": "string",
          "name": "",
          "type": "string"
        },
        {
          "internalType": "uint8",
          "name": "",
          "type": "uint8"
        }
      ],
      "name": "MintError",
      "type": "error"
    },
    {
      "inputs": [
        {
          "internalType": "uint8",
          "name": "",
          "type": "uint8"
        }
      ],
      "name": "MintForOwnerError",
      "type": "error"
    },
    {
      "inputs": [],
      "name": "MintToZeroAddress",
      "type": "error"
    },
    {
      "inputs": [],
      "name": "MintZeroQuantity",
      "type": "error"
    },
    {
      "inputs": [],
      "name": "OwnerQueryForNonexistentToken",
      "type": "error"
    },
    {
      "inputs": [],
      "name": "OwnershipNotInitializedForExtraData",
      "type": "error"
    },
    {
      "inputs": [],
      "name": "TokenNotExistsError",
      "type": "error"
    },
    {
      "inputs": [],
      "name": "TransferCallerNotOwnerNorApproved",
      "type": "error"
    },
    {
      "inputs": [],
      "name": "TransferFromIncorrectOwner",
      "type": "error"
    },
    {
      "inputs": [],
      "name": "TransferToNonERC721ReceiverImplementer",
      "type": "error"
    },
    {
      "inputs": [],
      "name": "TransferToZeroAddress",
      "type": "error"
    },
    {
      "inputs": [],
      "name": "URIQueryForNonexistentToken",
      "type": "error"
    },
    {
      "inputs": [
        {
          "internalType": "uint8",
          "name": "isPlaformCall",
          "type": "uint8"
        }
      ],
      "name": "WithdrawError",
      "type": "error"
    },
    {
      "anonymous": false,
      "inputs": [
        {
          "indexed": true,
          "internalType": "address",
          "name": "owner",
          "type": "address"
        },
        {
          "indexed": true,
          "internalType": "address",
          "name": "approved",
          "type": "address"
        },
        {
          "indexed": true,
          "internalType": "uint256",
          "name": "tokenId",
          "type": "uint256"
        }
      ],
      "name": "Approval",
      "type": "event"
    },
    {
      "anonymous": false,
      "inputs": [
        {
          "indexed": true,
          "internalType": "address",
          "name": "owner",
          "type": "address"
        },
        {
          "indexed": true,
          "internalType": "address",
          "name": "operator",
          "type": "address"
        },
        {
          "indexed": false,
          "internalType": "bool",
          "name": "approved",
          "type": "bool"
        }
      ],
      "name": "ApprovalForAll",
      "type": "event"
    },
    {
      "anonymous": false,
      "inputs": [
        {
          "indexed": true,
          "internalType": "address",
          "name": "sender",
          "type": "address"
        },
        {
          "indexed": false,
          "internalType": "uint256",
          "name": "tokenId",
          "type": "uint256"
        }
      ],
      "name": "BurnEvent",
      "type": "event"
    },
    {
      "anonymous": false,
      "inputs": [
        {
          "indexed": true,
          "internalType": "uint256",
          "name": "fromTokenId",
          "type": "uint256"
        },
        {
          "indexed": false,
          "internalType": "uint256",
          "name": "toTokenId",
          "type": "uint256"
        },
        {
          "indexed": true,
          "internalType": "address",
          "name": "from",
          "type": "address"
        },
        {
          "indexed": true,
          "internalType": "address",
          "name": "to",
          "type": "address"
        }
      ],
      "name": "ConsecutiveTransfer",
      "type": "event"
    },
    {
      "anonymous": false,
      "inputs": [
        {
          "indexed": false,
          "internalType": "string",
          "name": "",
          "type": "string"
        },
        {
          "indexed": false,
          "internalType": "uint256",
          "name": "",
          "type": "uint256"
        }
      ],
      "name": "Log",
      "type": "event"
    },
    {
      "anonymous": false,
      "inputs": [
        {
          "indexed": false,
          "internalType": "string",
          "name": "",
          "type": "string"
        },
        {
          "indexed": false,
          "internalType": "address",
          "name": "",
          "type": "address"
        }
      ],
      "name": "Log",
      "type": "event"
    },
    {
      "anonymous": false,
      "inputs": [
        {
          "indexed": true,
          "internalType": "address",
          "name": "sender",
          "type": "address"
        },
        {
          "indexed": false,
          "internalType": "uint256",
          "name": "value",
          "type": "uint256"
        },
        {
          "indexed": false,
          "internalType": "address",
          "name": "to",
          "type": "address"
        },
        {
          "indexed": false,
          "internalType": "uint256",
          "name": "amount",
          "type": "uint256"
        },
        {
          "indexed": false,
          "internalType": "uint256",
          "name": "mintPrice",
          "type": "uint256"
        }
      ],
      "name": "MintEvent",
      "type": "event"
    },
    {
      "anonymous": false,
      "inputs": [
        {
          "indexed": true,
          "internalType": "address",
          "name": "sender",
          "type": "address"
        },
        {
          "indexed": false,
          "internalType": "uint256",
          "name": "value",
          "type": "uint256"
        },
        {
          "indexed": false,
          "internalType": "address",
          "name": "to",
          "type": "address"
        },
        {
          "indexed": false,
          "internalType": "uint256",
          "name": "amount",
          "type": "uint256"
        },
        {
          "indexed": false,
          "internalType": "uint256",
          "name": "_ogMintPrice",
          "type": "uint256"
        }
      ],
      "name": "OGmintEvent",
      "type": "event"
    },
    {
      "anonymous": false,
      "inputs": [
        {
          "indexed": true,
          "internalType": "address",
          "name": "sender",
          "type": "address"
        },
        {
          "indexed": false,
          "internalType": "address",
          "name": "to",
          "type": "address"
        },
        {
          "indexed": false,
          "internalType": "uint256",
          "name": "amount",
          "type": "uint256"
        }
      ],
      "name": "OwnerMintEvent",
      "type": "event"
    },
    {
      "anonymous": false,
      "inputs": [
        {
          "indexed": true,
          "internalType": "bytes32",
          "name": "role",
          "type": "bytes32"
        },
        {
          "indexed": true,
          "internalType": "bytes32",
          "name": "previousAdminRole",
          "type": "bytes32"
        },
        {
          "indexed": true,
          "internalType": "bytes32",
          "name": "newAdminRole",
          "type": "bytes32"
        }
      ],
      "name": "RoleAdminChanged",
      "type": "event"
    },
    {
      "anonymous": false,
      "inputs": [
        {
          "indexed": true,
          "internalType": "bytes32",
          "name": "role",
          "type": "bytes32"
        },
        {
          "indexed": true,
          "internalType": "address",
          "name": "account",
          "type": "address"
        },
        {
          "indexed": true,
          "internalType": "address",
          "name": "sender",
          "type": "address"
        }
      ],
      "name": "RoleGranted",
      "type": "event"
    },
    {
      "anonymous": false,
      "inputs": [
        {
          "indexed": true,
          "internalType": "bytes32",
          "name": "role",
          "type": "bytes32"
        },
        {
          "indexed": true,
          "internalType": "address",
          "name": "account",
          "type": "address"
        },
        {
          "indexed": true,
          "internalType": "address",
          "name": "sender",
          "type": "address"
        }
      ],
      "name": "RoleRevoked",
      "type": "event"
    },
    {
      "anonymous": false,
      "inputs": [
        {
          "indexed": true,
          "internalType": "address",
          "name": "sender",
          "type": "address"
        },
        {
          "indexed": false,
          "internalType": "address",
          "name": "receiver",
          "type": "address"
        },
        {
          "indexed": false,
          "internalType": "uint96",
          "name": "royaltyFee",
          "type": "uint96"
        }
      ],
      "name": "RoyaltyFeeUpdate",
      "type": "event"
    },
    {
      "anonymous": false,
      "inputs": [
        {
          "indexed": true,
          "internalType": "address",
          "name": "from",
          "type": "address"
        },
        {
          "indexed": true,
          "internalType": "address",
          "name": "to",
          "type": "address"
        },
        {
          "indexed": true,
          "internalType": "uint256",
          "name": "tokenId",
          "type": "uint256"
        }
      ],
      "name": "Transfer",
      "type": "event"
    },
    {
      "anonymous": false,
      "inputs": [
        {
          "indexed": true,
          "internalType": "address",
          "name": "sender",
          "type": "address"
        },
        {
          "indexed": false,
          "internalType": "uint256",
          "name": "listLength",
          "type": "uint256"
        }
      ],
      "name": "UpdateOgEvent",
      "type": "event"
    },
    {
      "anonymous": false,
      "inputs": [
        {
          "indexed": true,
          "internalType": "address",
          "name": "sender",
          "type": "address"
        },
        {
          "indexed": false,
          "internalType": "uint256",
          "name": "listLength",
          "type": "uint256"
        }
      ],
      "name": "UpdateWLevent",
      "type": "event"
    },
    {
      "anonymous": false,
      "inputs": [
        {
          "indexed": true,
          "internalType": "address",
          "name": "sender",
          "type": "address"
        },
        {
          "indexed": false,
          "internalType": "uint256",
          "name": "value",
          "type": "uint256"
        },
        {
          "indexed": false,
          "internalType": "address",
          "name": "to",
          "type": "address"
        },
        {
          "indexed": false,
          "internalType": "uint256",
          "name": "amount",
          "type": "uint256"
        },
        {
          "indexed": false,
          "internalType": "uint256",
          "name": "wlMintPrice",
          "type": "uint256"
        }
      ],
      "name": "WLmintEvent",
      "type": "event"
    },
    {
      "anonymous": false,
      "inputs": [
        {
          "indexed": false,
          "internalType": "address",
          "name": "sender",
          "type": "address"
        },
        {
          "indexed": false,
          "internalType": "uint256",
          "name": "balance",
          "type": "uint256"
        },
        {
          "indexed": false,
          "internalType": "address",
          "name": "feeReceiver",
          "type": "address"
        },
        {
          "indexed": false,
          "internalType": "uint256",
          "name": "fee",
          "type": "uint256"
        }
      ],
      "name": "WithdrawEvent",
      "type": "event"
    },
    {
      "inputs": [],
      "name": "ADMIN_ROLE",
      "outputs": [
        {
          "internalType": "bytes32",
          "name": "",
          "type": "bytes32"
        }
      ],
      "stateMutability": "view",
      "type": "function"
    },
    {
      "inputs": [],
      "name": "DEFAULT_ADMIN_ROLE",
      "outputs": [
        {
          "internalType": "bytes32",
          "name": "",
          "type": "bytes32"
        }
      ],
      "stateMutability": "view",
      "type": "function"
    },
    {
      "inputs": [],
      "name": "OG_MINTER_ROLE",
      "outputs": [
        {
          "internalType": "bytes32",
          "name": "",
          "type": "bytes32"
        }
      ],
      "stateMutability": "view",
      "type": "function"
    },
    {
      "inputs": [],
      "name": "OPERATOR_ROLE",
      "outputs": [
        {
          "internalType": "bytes32",
          "name": "",
          "type": "bytes32"
        }
      ],
      "stateMutability": "view",
      "type": "function"
    },
    {
      "inputs": [],
      "name": "WL_MINTER_ROLE",
      "outputs": [
        {
          "internalType": "bytes32",
          "name": "",
          "type": "bytes32"
        }
      ],
      "stateMutability": "view",
      "type": "function"
    },
    {
      "inputs": [
        {
          "internalType": "address",
          "name": "to",
          "type": "address"
        },
        {
          "internalType": "uint256",
          "name": "tokenId",
          "type": "uint256"
        }
      ],
      "name": "approve",
      "outputs": [],
      "stateMutability": "payable",
      "type": "function"
    },
    {
      "inputs": [
        {
          "internalType": "address",
          "name": "owner",
          "type": "address"
        }
      ],
      "name": "balanceOf",
      "outputs": [
        {
          "internalType": "uint256",
          "name": "",
          "type": "uint256"
        }
      ],
      "stateMutability": "view",
      "type": "function"
    },
    {
      "inputs": [],
      "name": "baseURI",
      "outputs": [
        {
          "internalType": "string",
          "name": "",
          "type": "string"
        }
      ],
      "stateMutability": "view",
      "type": "function"
    },
    {
      "inputs": [
        {
          "internalType": "uint256",
          "name": "_tokenId",
          "type": "uint256"
        }
      ],
      "name": "burn",
      "outputs": [],
      "stateMutability": "nonpayable",
      "type": "function"
    },
    {
      "inputs": [],
      "name": "collectionData",
      "outputs": [
        {
          "internalType": "string",
          "name": "name",
          "type": "string"
        },
        {
          "internalType": "string",
          "name": "symbol",
          "type": "string"
        },
        {
          "internalType": "string",
          "name": "baseURI",
          "type": "string"
        },
        {
          "internalType": "string",
          "name": "baseExt",
          "type": "string"
        },
        {
          "internalType": "uint256",
          "name": "maxSupply",
          "type": "uint256"
        },
        {
          "internalType": "uint96",
          "name": "royaltyFee",
          "type": "uint96"
        },
        {
          "internalType": "address",
          "name": "royaltyReceiver",
          "type": "address"
        }
      ],
      "stateMutability": "view",
      "type": "function"
    },
    {
      "inputs": [
        {
          "internalType": "uint256",
          "name": "tokenId",
          "type": "uint256"
        }
      ],
      "name": "getApproved",
      "outputs": [
        {
          "internalType": "address",
          "name": "",
          "type": "address"
        }
      ],
      "stateMutability": "view",
      "type": "function"
    },
    {
      "inputs": [
        {
          "internalType": "string",
          "name": "mintType",
          "type": "string"
        },
        {
          "internalType": "address",
          "name": "_user",
          "type": "address"
        }
      ],
      "name": "getMintCountOf",
      "outputs": [
        {
          "internalType": "uint256",
          "name": "",
          "type": "uint256"
        }
      ],
      "stateMutability": "view",
      "type": "function"
    },
    {
      "inputs": [
        {
          "internalType": "bytes32",
          "name": "role",
          "type": "bytes32"
        }
      ],
      "name": "getRoleAdmin",
      "outputs": [
        {
          "internalType": "bytes32",
          "name": "",
          "type": "bytes32"
        }
      ],
      "stateMutability": "view",
      "type": "function"
    },
    {
      "inputs": [
        {
          "internalType": "bytes32",
          "name": "role",
          "type": "bytes32"
        },
        {
          "internalType": "address",
          "name": "account",
          "type": "address"
        }
      ],
      "name": "grantRole",
      "outputs": [],
      "stateMutability": "nonpayable",
      "type": "function"
    },
    {
      "inputs": [
        {
          "internalType": "bytes32",
          "name": "role",
          "type": "bytes32"
        },
        {
          "internalType": "address",
          "name": "account",
          "type": "address"
        }
      ],
      "name": "hasRole",
      "outputs": [
        {
          "internalType": "bool",
          "name": "",
          "type": "bool"
        }
      ],
      "stateMutability": "view",
      "type": "function"
    },
    {
      "inputs": [],
      "name": "initalized",
      "outputs": [
        {
          "internalType": "bool",
          "name": "",
          "type": "bool"
        }
      ],
      "stateMutability": "view",
      "type": "function"
    },
    {
      "inputs": [
        {
          "internalType": "uint256",
          "name": "_platformFee",
          "type": "uint256"
        },
        {
          "components": [
            {
              "internalType": "string",
              "name": "name",
              "type": "string"
            },
            {
              "internalType": "string",
              "name": "symbol",
              "type": "string"
            },
            {
              "internalType": "string",
              "name": "baseURI",
              "type": "string"
            },
            {
              "internalType": "string",
              "name": "baseExt",
              "type": "string"
            },
            {
              "internalType": "uint256",
              "name": "maxSupply",
              "type": "uint256"
            },
            {
              "internalType": "uint96",
              "name": "royaltyFee",
              "type": "uint96"
            },
            {
              "internalType": "address",
              "name": "royaltyReceiver",
              "type": "address"
            }
          ],
          "internalType": "struct Collection",
          "name": "_nftData",
          "type": "tuple"
        },
        {
          "components": [
            {
              "internalType": "uint256",
              "name": "ogMintPrice",
              "type": "uint256"
            },
            {
              "internalType": "uint256",
              "name": "whitelistMintPrice",
              "type": "uint256"
            },
            {
              "internalType": "uint256",
              "name": "mintPrice",
              "type": "uint256"
            },
            {
              "internalType": "uint256",
              "name": "mintMaxPerUser",
              "type": "uint256"
            },
            {
              "internalType": "uint256",
              "name": "ogMintMaxPerUser",
              "type": "uint256"
            },
            {
              "internalType": "uint256",
              "name": "whitelistMintMaxPerUser",
              "type": "uint256"
            },
            {
              "internalType": "uint256",
              "name": "mintStart",
              "type": "uint256"
            },
            {
              "internalType": "uint256",
              "name": "mintEnd",
              "type": "uint256"
            },
            {
              "internalType": "uint256",
              "name": "ogMintStart",
              "type": "uint256"
            },
            {
              "internalType": "uint256",
              "name": "ogMintEnd",
              "type": "uint256"
            },
            {
              "internalType": "uint256",
              "name": "whitelistMintStart",
              "type": "uint256"
            },
            {
              "internalType": "uint256",
              "name": "whitelistMintEnd",
              "type": "uint256"
            }
          ],
          "internalType": "struct Stages",
          "name": "_mintingStages",
          "type": "tuple"
        },
        {
          "internalType": "address[]",
          "name": "_ogs",
          "type": "address[]"
        },
        {
          "internalType": "address[]",
          "name": "_wls",
          "type": "address[]"
        }
      ],
      "name": "initialize",
      "outputs": [],
      "stateMutability": "nonpayable",
      "type": "function"
    },
    {
      "inputs": [
        {
          "internalType": "address",
          "name": "owner",
          "type": "address"
        },
        {
          "internalType": "address",
          "name": "operator",
          "type": "address"
        }
      ],
      "name": "isApprovedForAll",
      "outputs": [
        {
          "internalType": "bool",
          "name": "",
          "type": "bool"
        }
      ],
      "stateMutability": "view",
      "type": "function"
    },
    {
      "inputs": [
        {
          "internalType": "address",
          "name": "_to",
          "type": "address"
        },
        {
          "internalType": "uint256",
          "name": "_amount",
          "type": "uint256"
        }
      ],
      "name": "mintForOG",
      "outputs": [],
      "stateMutability": "payable",
      "type": "function"
    },
    {
      "inputs": [
        {
          "internalType": "address",
          "name": "_to",
          "type": "address"
        },
        {
          "internalType": "uint256",
          "name": "_amount",
          "type": "uint256"
        }
      ],
      "name": "mintForOwner",
      "outputs": [],
      "stateMutability": "payable",
      "type": "function"
    },
    {
      "inputs": [
        {
          "internalType": "address",
          "name": "_to",
          "type": "address"
        },
        {
          "internalType": "uint256",
          "name": "_amount",
          "type": "uint256"
        }
      ],
      "name": "mintForRegular",
      "outputs": [],
      "stateMutability": "payable",
      "type": "function"
    },
    {
      "inputs": [
        {
          "internalType": "address",
          "name": "_to",
          "type": "address"
        },
        {
          "internalType": "uint256",
          "name": "_amount",
          "type": "uint256"
        }
      ],
      "name": "mintForWhitelist",
      "outputs": [],
      "stateMutability": "payable",
      "type": "function"
    },
    {
      "inputs": [],
      "name": "mintingStages",
      "outputs": [
        {
          "internalType": "uint256",
          "name": "ogMintPrice",
          "type": "uint256"
        },
        {
          "internalType": "uint256",
          "name": "whitelistMintPrice",
          "type": "uint256"
        },
        {
          "internalType": "uint256",
          "name": "mintPrice",
          "type": "uint256"
        },
        {
          "internalType": "uint256",
          "name": "mintMaxPerUser",
          "type": "uint256"
        },
        {
          "internalType": "uint256",
          "name": "ogMintMaxPerUser",
          "type": "uint256"
        },
        {
          "internalType": "uint256",
          "name": "whitelistMintMaxPerUser",
          "type": "uint256"
        },
        {
          "internalType": "uint256",
          "name": "mintStart",
          "type": "uint256"
        },
        {
          "internalType": "uint256",
          "name": "mintEnd",
          "type": "uint256"
        },
        {
          "internalType": "uint256",
          "name": "ogMintStart",
          "type": "uint256"
        },
        {
          "internalType": "uint256",
          "name": "ogMintEnd",
          "type": "uint256"
        },
        {
          "internalType": "uint256",
          "name": "whitelistMintStart",
          "type": "uint256"
        },
        {
          "internalType": "uint256",
          "name": "whitelistMintEnd",
          "type": "uint256"
        }
      ],
      "stateMutability": "view",
      "type": "function"
    },
    {
      "inputs": [
        {
          "internalType": "address",
          "name": "",
          "type": "address"
        },
        {
          "internalType": "string",
          "name": "",
          "type": "string"
        }
      ],
      "name": "mintsPerWallet",
      "outputs": [
        {
          "internalType": "uint256",
          "name": "",
          "type": "uint256"
        }
      ],
      "stateMutability": "view",
      "type": "function"
    },
    {
      "inputs": [],
      "name": "name",
      "outputs": [
        {
          "internalType": "string",
          "name": "",
          "type": "string"
        }
      ],
      "stateMutability": "view",
      "type": "function"
    },
    {
      "inputs": [
        {
          "internalType": "uint256",
          "name": "tokenId",
          "type": "uint256"
        }
      ],
      "name": "ownerOf",
      "outputs": [
        {
          "internalType": "address",
          "name": "",
          "type": "address"
        }
      ],
      "stateMutability": "view",
      "type": "function"
    },
    {
      "inputs": [],
      "name": "platformFee",
      "outputs": [
        {
          "internalType": "uint256",
          "name": "",
          "type": "uint256"
        }
      ],
      "stateMutability": "view",
      "type": "function"
    },
    {
      "inputs": [],
      "name": "platformFeeReceiver",
      "outputs": [
        {
          "internalType": "address",
          "name": "",
          "type": "address"
        }
      ],
      "stateMutability": "view",
      "type": "function"
    },
    {
      "inputs": [
        {
          "internalType": "bytes32",
          "name": "role",
          "type": "bytes32"
        },
        {
          "internalType": "address",
          "name": "account",
          "type": "address"
        }
      ],
      "name": "renounceRole",
      "outputs": [],
      "stateMutability": "nonpayable",
      "type": "function"
    },
    {
      "inputs": [
        {
          "internalType": "bytes32",
          "name": "role",
          "type": "bytes32"
        },
        {
          "internalType": "address",
          "name": "account",
          "type": "address"
        }
      ],
      "name": "revokeRole",
      "outputs": [],
      "stateMutability": "nonpayable",
      "type": "function"
    },
    {
      "inputs": [
        {
          "internalType": "uint256",
          "name": "tokenId",
          "type": "uint256"
        },
        {
          "internalType": "uint256",
          "name": "_salePrice",
          "type": "uint256"
        }
      ],
      "name": "royaltyInfo",
      "outputs": [
        {
          "internalType": "address",
          "name": "",
          "type": "address"
        },
        {
          "internalType": "uint256",
          "name": "",
          "type": "uint256"
        }
      ],
      "stateMutability": "view",
      "type": "function"
    },
    {
      "inputs": [
        {
          "internalType": "address",
          "name": "from",
          "type": "address"
        },
        {
          "internalType": "address",
          "name": "to",
          "type": "address"
        },
        {
          "internalType": "uint256",
          "name": "tokenId",
          "type": "uint256"
        }
      ],
      "name": "safeTransferFrom",
      "outputs": [],
      "stateMutability": "payable",
      "type": "function"
    },
    {
      "inputs": [
        {
          "internalType": "address",
          "name": "from",
          "type": "address"
        },
        {
          "internalType": "address",
          "name": "to",
          "type": "address"
        },
        {
          "internalType": "uint256",
          "name": "tokenId",
          "type": "uint256"
        },
        {
          "internalType": "bytes",
          "name": "_data",
          "type": "bytes"
        }
      ],
      "name": "safeTransferFrom",
      "outputs": [],
      "stateMutability": "payable",
      "type": "function"
    },
    {
      "inputs": [
        {
          "internalType": "address",
          "name": "operator",
          "type": "address"
        },
        {
          "internalType": "bool",
          "name": "approved",
          "type": "bool"
        }
      ],
      "name": "setApprovalForAll",
      "outputs": [],
      "stateMutability": "nonpayable",
      "type": "function"
    },
    {
      "inputs": [
        {
          "internalType": "string",
          "name": "_newBaseExtension",
          "type": "string"
        }
      ],
      "name": "setBaseExtension",
      "outputs": [],
      "stateMutability": "nonpayable",
      "type": "function"
    },
    {
      "inputs": [
        {
          "internalType": "string",
          "name": "_newBaseURI",
          "type": "string"
        }
      ],
      "name": "setBaseURI",
      "outputs": [],
      "stateMutability": "nonpayable",
      "type": "function"
    },
    {
      "inputs": [
        {
          "internalType": "bytes4",
          "name": "_interfaceId",
          "type": "bytes4"
        }
      ],
      "name": "supportsInterface",
      "outputs": [
        {
          "internalType": "bool",
          "name": "",
          "type": "bool"
        }
      ],
      "stateMutability": "view",
      "type": "function"
    },
    {
      "inputs": [],
      "name": "symbol",
      "outputs": [
        {
          "internalType": "string",
          "name": "",
          "type": "string"
        }
      ],
      "stateMutability": "view",
      "type": "function"
    },
    {
      "inputs": [
        {
          "internalType": "uint256",
          "name": "_tokenId",
          "type": "uint256"
        }
      ],
      "name": "tokenURI",
      "outputs": [
        {
          "internalType": "string",
          "name": "",
          "type": "string"
        }
      ],
      "stateMutability": "view",
      "type": "function"
    },
    {
      "inputs": [],
      "name": "totalSupply",
      "outputs": [
        {
          "internalType": "uint256",
          "name": "",
          "type": "uint256"
        }
      ],
      "stateMutability": "view",
      "type": "function"
    },
    {
      "inputs": [
        {
          "internalType": "address",
          "name": "from",
          "type": "address"
        },
        {
          "internalType": "address",
          "name": "to",
          "type": "address"
        },
        {
          "internalType": "uint256",
          "name": "tokenId",
          "type": "uint256"
        }
      ],
      "name": "transferFrom",
      "outputs": [],
      "stateMutability": "payable",
      "type": "function"
    },
    {
      "inputs": [
        {
          "internalType": "uint256",
          "name": "_mintMax",
          "type": "uint256"
        }
      ],
      "name": "updateMintMax",
      "outputs": [],
      "stateMutability": "nonpayable",
      "type": "function"
    },
    {
      "inputs": [
        {
          "internalType": "uint256",
          "name": "_mintPrice",
          "type": "uint256"
        }
      ],
      "name": "updateMintPrice",
      "outputs": [],
      "stateMutability": "nonpayable",
      "type": "function"
    },
    {
      "inputs": [
        {
          "internalType": "address[]",
          "name": "_minterList",
          "type": "address[]"
        },
        {
          "internalType": "uint8",
          "name": "_mintRole",
          "type": "uint8"
        }
      ],
      "name": "updateMinterRoles",
      "outputs": [],
      "stateMutability": "nonpayable",
      "type": "function"
    },
    {
      "inputs": [
        {
          "internalType": "uint256",
          "name": "_ogMintMax",
          "type": "uint256"
        }
      ],
      "name": "updateOGMintMax",
      "outputs": [],
      "stateMutability": "nonpayable",
      "type": "function"
    },
    {
      "inputs": [
        {
          "internalType": "uint256",
          "name": "_price",
          "type": "uint256"
        }
      ],
      "name": "updateOGMintPrice",
      "outputs": [],
      "stateMutability": "nonpayable",
      "type": "function"
    },
    {
      "inputs": [
        {
          "internalType": "address",
          "name": "_receiver",
          "type": "address"
        },
        {
          "internalType": "uint96",
          "name": "_royaltyFee",
          "type": "uint96"
        }
      ],
      "name": "updateRoyaltyInfo",
      "outputs": [],
      "stateMutability": "nonpayable",
      "type": "function"
    },
    {
      "inputs": [
        {
          "internalType": "uint256",
          "name": "_start",
          "type": "uint256"
        },
        {
          "internalType": "uint256",
          "name": "_end",
          "type": "uint256"
        }
      ],
      "name": "updateTime",
      "outputs": [],
      "stateMutability": "nonpayable",
      "type": "function"
    },
    {
      "inputs": [
        {
          "internalType": "uint256",
          "name": "_whitelistMintMax",
          "type": "uint256"
        }
      ],
      "name": "updateWLMintMax",
      "outputs": [],
      "stateMutability": "nonpayable",
      "type": "function"
    },
    {
      "inputs": [
        {
          "internalType": "uint256",
          "name": "_whitelistMintPrice",
          "type": "uint256"
        }
      ],
      "name": "updateWhitelistMintPrice",
      "outputs": [],
      "stateMutability": "nonpayable",
      "type": "function"
    },
    {
      "inputs": [],
      "name": "version",
      "outputs": [
        {
          "internalType": "uint8",
          "name": "_version",
          "type": "uint8"
        }
      ],
      "stateMutability": "pure",
      "type": "function"
    },
    {
      "inputs": [],
      "name": "withdraw",
      "outputs": [],
      "stateMutability": "payable",
      "type": "function"
    }
  ],
  "bytecode": "0x6080604052601e805460ff19169055348015610019575f80fd5b50614daf806100275f395ff3fe60806040526004361061032e575f3560e01c80635be1a091116101a7578063a217fddf116100e7578063d05ec0a811610092578063e985e9c51161006d578063e985e9c514610a1c578063eb980abf14610a70578063f2cca28f14610a8f578063f5b541a614610aae575f80fd5b8063d05ec0a8146109bf578063d547741f146109de578063da3ef23f146109fd575f80fd5b8063b0338f2e116100c2578063b0338f2e1461095a578063b88d4fde1461098d578063c87b56dd146109a0575f80fd5b8063a217fddf14610915578063a22cb46514610928578063a8c3182b14610947575f80fd5b80637ab06c121161015257806391d148541161012d57806391d148541461086c57806393890851146108bb57806395d89b41146108da5780639c89a7b3146108ee575f80fd5b80637ab06c121461081b5780638577c1fa1461082e578063912fb6901461084d575f80fd5b806370a082311161018257806370a08231146107aa57806375b238fc146107c95780637a3bc32f146107fc575f80fd5b80635be1a0911461075e5780636352211e146107775780636c0360eb14610796575f80fd5b806326232a2e116102725780633ccfd60b1161021d57806342966c68116101f857806342966c68146106f257806353b859df1461071157806354fd4d501461072457806355f804b31461073f575f80fd5b80633ccfd60b146106b8578063411c4442146106c057806342842e0e146106df575f80fd5b80632d656ad71161024d5780632d656ad71461064e5780632f2ff15d1461067a57806336568abe14610699575f80fd5b806326232a2e146105cf5780632a55205a146105e45780632caa9dec1461062f575f80fd5b8063172cf75f116102dd578063207a2090116102b8578063207a20901461052857806321f1b6771461056f57806323b872dd1461058e578063248a9ca3146105a1575f80fd5b8063172cf75f1461041257806318160ddd146104535780631a8f41931461048d575f80fd5b806306fdde031161030d57806306fdde031461039a578063081812fc146103bb578063095ea7b3146103ff575f80fd5b8062728e46146103325780630167f3c51461035357806301ffc9a714610366575b5f80fd5b34801561033d575f80fd5b5061035161034c366004613e54565b610ae1565b005b610351610361366004613e8c565b610c23565b348015610371575f80fd5b50610385610380366004613ee3565b610d4c565b60405190151581526020015b60405180910390f35b3480156103a5575f80fd5b506103ae610df3565b6040516103919190613f69565b3480156103c6575f80fd5b506103da6103d5366004613e54565b610e83565b60405173ffffffffffffffffffffffffffffffffffffffff9091168152602001610391565b61035161040d366004613e8c565b610ee2565b34801561041d575f80fd5b506104457f9eb10b7eab35fabb5491c526a3cf39c3bb7ce2ee5d483e1558635d2c96c2085c81565b604051908152602001610391565b34801561045e575f80fd5b50600254600154037fffffffffffffffffffffffffffffffffffffffffffffffffffffffffffffffff01610445565b348015610498575f80fd5b50600a54600b54600c54600d54600e54600f546010546011546012546013546014546015546104cf9b9a999897969594939291908c565b604080519c8d5260208d019b909b52998b019890985260608a0196909652608089019490945260a088019290925260c087015260e086015261010085015261012084015261014083015261016082015261018001610391565b348015610533575f80fd5b50610445610542366004614057565b600960209081525f9283526040909220815180830184018051928152908401929093019190912091525481565b34801561057a575f80fd5b506103516105893660046140a4565b610ef2565b61035161059c3660046140c4565b611035565b3480156105ac575f80fd5b506104456105bb366004613e54565b5f9081526020819052604090206001015490565b3480156105da575f80fd5b50610445601d5481565b3480156105ef575f80fd5b506106036105fe3660046140a4565b61126b565b6040805173ffffffffffffffffffffffffffffffffffffffff9093168352602083019190915201610391565b34801561063a575f80fd5b50610351610649366004614143565b6112cb565b348015610659575f80fd5b50601c546103da9073ffffffffffffffffffffffffffffffffffffffff1681565b348015610685575f80fd5b50610351610694366004614222565b6116a1565b3480156106a4575f80fd5b506103516106b3366004614222565b6116ca565b610351611779565b3480156106cb575f80fd5b506103516106da366004614269565b611a93565b6103516106ed3660046140c4565b611b2b565b3480156106fd575f80fd5b5061035161070c366004613e54565b611b45565b61035161071f366004613e8c565b611c0d565b34801561072f575f80fd5b5060405160028152602001610391565b34801561074a575f80fd5b50610351610759366004614295565b611daf565b348015610769575f80fd5b50601e546103859060ff1681565b348015610782575f80fd5b506103da610791366004613e54565b611dbb565b3480156107a1575f80fd5b506103ae611dc5565b3480156107b5575f80fd5b506104456107c43660046142c7565b611dd4565b3480156107d4575f80fd5b506104457fa49807205ce4d355092ef5a8a18f56e8913cf4a201fbe287825b095693c2177581565b348015610807575f80fd5b506104456108163660046142e2565b611e4b565b610351610829366004613e8c565b611e97565b348015610839575f80fd5b50610351610848366004613e54565b611f8c565b348015610858575f80fd5b50610351610867366004613e54565b6120c9565b348015610877575f80fd5b50610385610886366004614222565b5f9182526020828152604080842073ffffffffffffffffffffffffffffffffffffffff93909316845291905290205460ff1690565b3480156108c6575f80fd5b506103516108d5366004613e54565b612206565b3480156108e5575f80fd5b506103ae612343565b3480156108f9575f80fd5b50610902612352565b604051610391979695949392919061435e565b348015610920575f80fd5b506104455f81565b348015610933575f80fd5b506103516109423660046143ee565b6125c8565b610351610955366004613e8c565b61265e565b348015610965575f80fd5b506104457fcb7e89b7eed8294d41c0215e2f4fe023e2166afcfa3d1f479c394274afe5f01981565b61035161099b36600461441e565b61277d565b3480156109ab575f80fd5b506103ae6109ba366004613e54565b6127e4565b3480156109ca575f80fd5b506103516109d9366004613e54565b612881565b3480156109e9575f80fd5b506103516109f8366004614222565b6129be565b348015610a08575f80fd5b50610351610a17366004614295565b6129e2565b348015610a27575f80fd5b50610385610a36366004614499565b73ffffffffffffffffffffffffffffffffffffffff9182165f90815260086020908152604080832093909416825291909152205460ff1690565b348015610a7b575f80fd5b50610351610a8a366004613e54565b6129ee565b348015610a9a575f80fd5b50610351610aa93660046144c5565b612b2b565b348015610ab9575f80fd5b506104457f97667070c54ef182b0f5858b034beac1b6f3089aa2d3188bb1e8929f4fa9b92981565b335f9081527f7d7ffb7a348e1c6a02869081a26547b49160dd3df72d1d75a570eb9b698292ec602052604090205460ff1680610b4a5750335f9081527fee57cd81e84075558e8fcc182a1f4393f91fc97f963a136e66b7f949a62f319f602052604090205460ff165b610bb5576040517f08c379a000000000000000000000000000000000000000000000000000000000815260206004820152601660248201527f4f6e6c792041646d696e206f72204f70657261746f720000000000000000000060448201526064015b60405180910390fd5b5f8111610c1e576040517f08c379a000000000000000000000000000000000000000000000000000000000815260206004820152601460248201527f496e76616c696420707269636520616d6f756e740000000000000000000000006044820152606401610bac565b600c55565b7fcb7e89b7eed8294d41c0215e2f4fe023e2166afcfa3d1f479c394274afe5f019610c4d81612dcc565b60408051808201909152600281527f4f470000000000000000000000000000000000000000000000000000000000006020820152600a54610c8e908461453f565b341015610ccb57805f6040517f422e6598000000000000000000000000000000000000000000000000000000008152600401610bac929190614556565b600e54601254601354610ce2928792879286612dd9565b600a546040805134815273ffffffffffffffffffffffffffffffffffffffff87166020820152908101859052606081019190915233907f12868c3639cc6f45bf88ecdaf9a5a315a966c89339b502a13c32758761b81494906080015b60405180910390a250505050565b5f7fffffffff0000000000000000000000000000000000000000000000000000000082167fc21b8f28000000000000000000000000000000000000000000000000000000001480610dde57507fffffffff0000000000000000000000000000000000000000000000000000000082167f2a55205a00000000000000000000000000000000000000000000000000000000145b80610ded5750610ded82612f85565b92915050565b606060038054610e029061457a565b80601f0160208091040260200160405190810160405280929190818152602001828054610e2e9061457a565b8015610e795780601f10610e5057610100808354040283529160200191610e79565b820191905f5260205f20905b815481529060010190602001808311610e5c57829003601f168201915b5050505050905090565b5f610e8d82613065565b610eba57610eba7fcf4700e4000000000000000000000000000000000000000000000000000000006130c9565b505f9081526007602052604090205473ffffffffffffffffffffffffffffffffffffffff1690565b610eee828260016130d1565b5050565b335f9081527f7d7ffb7a348e1c6a02869081a26547b49160dd3df72d1d75a570eb9b698292ec602052604090205460ff1680610f5b5750335f9081527fee57cd81e84075558e8fcc182a1f4393f91fc97f963a136e66b7f949a62f319f602052604090205460ff165b610fc1576040517f08c379a000000000000000000000000000000000000000000000000000000000815260206004820152601660248201527f4f6e6c792041646d696e206f72204f70657261746f72000000000000000000006044820152606401610bac565b81811161102a576040517f08c379a000000000000000000000000000000000000000000000000000000000815260206004820152600f60248201527f456e64206e6f74203e20737461727400000000000000000000000000000000006044820152606401610bac565b601091909155601155565b5f61103f826131bd565b73ffffffffffffffffffffffffffffffffffffffff948516949091508116841461108c5761108c7fa1148100000000000000000000000000000000000000000000000000000000006130c9565b5f82815260076020526040902080546110c48187335b73ffffffffffffffffffffffffffffffffffffffff9081169116811491141790565b6110ff576110d28633610a36565b6110ff576110ff7f59c896be000000000000000000000000000000000000000000000000000000006130c9565b8015611109575f82555b73ffffffffffffffffffffffffffffffffffffffff8681165f9081526006602052604080822080547fffffffffffffffffffffffffffffffffffffffffffffffffffffffffffffffff019055918716808252919020805460010190554260a01b177c0200000000000000000000000000000000000000000000000000000000175f858152600560205260408120919091557c0200000000000000000000000000000000000000000000000000000000841690036111f457600184015f8181526005602052604081205490036111f25760015481146111f2575f8181526005602052604090208490555b505b73ffffffffffffffffffffffffffffffffffffffff85168481887fddf252ad1be2c89b69c2b068fc378daa952ba7f163c4a11628f55a4df523b3ef5f80a4805f03611262576112627fea553b34000000000000000000000000000000000000000000000000000000006130c9565b50505050505050565b601b545f90819073ffffffffffffffffffffffffffffffffffffffff6c0100000000000000000000000082041690612710906112b5906bffffffffffffffffffffffff168661453f565b6112bf91906145cb565b915091505b9250929050565b601e5460ff1615611338576040517f08c379a000000000000000000000000000000000000000000000000000000000815260206004820152601360248201527f416c726561647920696e697469616c697a6564000000000000000000000000006044820152606401610bac565b367ffffffffffffffffffffffffffffffffffffffffffffffffffffffffffffffffe81013560f01c90033560601c336113ee6113748980614603565b8080601f0160208091040260200160405190810160405280939291908181526020018383808284375f920191909152506113b59250505060208b018b614603565b8080601f0160208091040260200160405190810160405280939291908181526020018383808284375f920191909152506132f492505050565b6114187fa49807205ce4d355092ef5a8a18f56e8913cf4a201fbe287825b095693c2177580613316565b6114627f97667070c54ef182b0f5858b034beac1b6f3089aa2d3188bb1e8929f4fa9b9297fa49807205ce4d355092ef5a8a18f56e8913cf4a201fbe287825b095693c21775613316565b6114ac7fcb7e89b7eed8294d41c0215e2f4fe023e2166afcfa3d1f479c394274afe5f0197fa49807205ce4d355092ef5a8a18f56e8913cf4a201fbe287825b095693c21775613316565b6114f67f9eb10b7eab35fabb5491c526a3cf39c3bb7ce2ee5d483e1558635d2c96c2085c7fa49807205ce4d355092ef5a8a18f56e8913cf4a201fbe287825b095693c21775613316565b6115207fa49807205ce4d355092ef5a8a18f56e8913cf4a201fbe287825b095693c2177582613360565b61154a7fa49807205ce4d355092ef5a8a18f56e8913cf4a201fbe287825b095693c2177583613360565b61155586865f612b2b565b61156184846001612b2b565b61157a8261157560c08b0160a08c01614664565b613417565b87601661158782826147fb565b50508635600a556020870135600b556040870135600c556060870135600d556080870135600e5560a0870135600f5560c087013560105560e0870135601155610100870135601255610120870135601355610140870135601455610160870135601555601d899055886115fa575f6115fc565b805b601c80547fffffffffffffffffffffffff00000000000000000000000000000000000000001673ffffffffffffffffffffffffffffffffffffffff9290921691909117905561166b7fa49807205ce4d355092ef5a8a18f56e8913cf4a201fbe287825b095693c21775826129be565b5050601e80547fffffffffffffffffffffffffffffffffffffffffffffffffffffffffffffff0016600117905550505050505050565b5f828152602081905260409020600101546116bb81612dcc565b6116c58383613360565b505050565b73ffffffffffffffffffffffffffffffffffffffff8116331461176f576040517f08c379a000000000000000000000000000000000000000000000000000000000815260206004820152602f60248201527f416363657373436f6e74726f6c3a2063616e206f6e6c792072656e6f756e636560448201527f20726f6c657320666f722073656c6600000000000000000000000000000000006064820152608401610bac565b610eee828261356a565b7fa49807205ce4d355092ef5a8a18f56e8913cf4a201fbe287825b095693c217756117a381612dcc565b601c54339073ffffffffffffffffffffffffffffffffffffffff161561198f575f612710601d54476117d5919061453f565b6117df91906145cb565b601c546040519192505f9173ffffffffffffffffffffffffffffffffffffffff9091169083908381818185875af1925050503d805f811461183b576040519150601f19603f3d011682016040523d82523d5f602084013e611840565b606091505b505090508061187d576040517fe91555480000000000000000000000000000000000000000000000000000000081525f6004820152602401610bac565b60405147905f9073ffffffffffffffffffffffffffffffffffffffff86169083908381818185875af1925050503d805f81146118d4576040519150601f19603f3d011682016040523d82523d5f602084013e6118d9565b606091505b5050905080611917576040517fe915554800000000000000000000000000000000000000000000000000000000815260016004820152602401610bac565b7f7e27a75faf6b8f74ec66364c1d23167ad5a538473e8bb4986ac2a26c30dbbbe6856119438685614a14565b601c54601d546040805173ffffffffffffffffffffffffffffffffffffffff958616815260208101949094529390911682840152606082015290519081900360800190a1505050505050565b60405147905f9073ffffffffffffffffffffffffffffffffffffffff84169083908381818185875af1925050503d805f81146119e6576040519150601f19603f3d011682016040523d82523d5f602084013e6119eb565b606091505b5050905080611a29576040517fe915554800000000000000000000000000000000000000000000000000000000815260026004820152602401610bac565b601c54601d546040805173ffffffffffffffffffffffffffffffffffffffff8088168252602082018790529093169083015260608201527f7e27a75faf6b8f74ec66364c1d23167ad5a538473e8bb4986ac2a26c30dbbbe69060800160405180910390a150505050565b7fa49807205ce4d355092ef5a8a18f56e8913cf4a201fbe287825b095693c21775611abd81612dcc565b611ac78383613417565b6040805173ffffffffffffffffffffffffffffffffffffffff851681526bffffffffffffffffffffffff8416602082015233917f0d68bfdb860b47ebf04e76cebf91e412a17ee7ccf960b3dd8720471b090b2ea891015b60405180910390a2505050565b6116c583838360405180602001604052805f81525061277d565b33611b4f82611dbb565b73ffffffffffffffffffffffffffffffffffffffff1614611bcc576040517f08c379a000000000000000000000000000000000000000000000000000000000815260206004820152600960248201527f4e6f74204f776e657200000000000000000000000000000000000000000000006044820152606401610bac565b611bd58161361f565b60405181815233907f512586160ebd4dc6945ba9ec5d21a1f723f26f3c7aa36cdffb6818d4e7b880309060200160405180910390a250565b335f9081527f7d7ffb7a348e1c6a02869081a26547b49160dd3df72d1d75a570eb9b698292ec602052604090205460ff1680611c765750335f9081527fee57cd81e84075558e8fcc182a1f4393f91fc97f963a136e66b7f949a62f319f602052604090205460ff165b611cdc576040517f08c379a000000000000000000000000000000000000000000000000000000000815260206004820152601660248201527f4f6e6c792041646d696e206f72204f70657261746f72000000000000000000006044820152606401610bac565b601a54600254600154839190037fffffffffffffffffffffffffffffffffffffffffffffffffffffffffffffffff01611d159190614a27565b1115611d50576040517fc9eae84200000000000000000000000000000000000000000000000000000000815260016004820152602401610bac565b611d5a8282613629565b6040805173ffffffffffffffffffffffffffffffffffffffff841681526020810183905233917f1a3e625d40ebf494638afa2b07e6a62f9fbfa2060469d5bfc998ce32d7c91b90910160405180910390a25050565b6018610eee8282614a3a565b5f610ded826131bd565b6060611dcf613642565b905090565b5f73ffffffffffffffffffffffffffffffffffffffff8216611e1957611e197f8f4eb604000000000000000000000000000000000000000000000000000000006130c9565b5073ffffffffffffffffffffffffffffffffffffffff165f9081526006602052604090205467ffffffffffffffff1690565b73ffffffffffffffffffffffffffffffffffffffff81165f908152600960205260408082209051611e7f9086908690614b52565b90815260200160405180910390205490509392505050565b60408051808201909152600781527f526567756c6172000000000000000000000000000000000000000000000000006020820152600c54611ed8908361453f565b341015611f1557805f6040517f422e6598000000000000000000000000000000000000000000000000000000008152600401610bac929190614556565b600d54601054601154611f2c928692869286612dd9565b600c546040805134815273ffffffffffffffffffffffffffffffffffffffff86166020820152908101849052606081019190915233907f4b39a2b601e18792cafbb9db818cbd30b9cd45ad108161d616484ec3b3cc1def90608001611b1e565b335f9081527f7d7ffb7a348e1c6a02869081a26547b49160dd3df72d1d75a570eb9b698292ec602052604090205460ff1680611ff55750335f9081527fee57cd81e84075558e8fcc182a1f4393f91fc97f963a136e66b7f949a62f319f602052604090205460ff165b61205b576040517f08c379a000000000000000000000000000000000000000000000000000000000815260206004820152601660248201527f4f6e6c792041646d696e206f72204f70657261746f72000000000000000000006044820152606401610bac565b5f81116120c4576040517f08c379a000000000000000000000000000000000000000000000000000000000815260206004820152601460248201527f496e76616c696420707269636520616d6f756e740000000000000000000000006044820152606401610bac565b600a55565b335f9081527f7d7ffb7a348e1c6a02869081a26547b49160dd3df72d1d75a570eb9b698292ec602052604090205460ff16806121325750335f9081527fee57cd81e84075558e8fcc182a1f4393f91fc97f963a136e66b7f949a62f319f602052604090205460ff165b612198576040517f08c379a000000000000000000000000000000000000000000000000000000000815260206004820152601660248201527f4f6e6c792041646d696e206f72204f70657261746f72000000000000000000006044820152606401610bac565b5f8111612201576040517f08c379a000000000000000000000000000000000000000000000000000000000815260206004820152601260248201527f496e76616c6964206d617820616d6f756e7400000000000000000000000000006044820152606401610bac565b600e55565b335f9081527f7d7ffb7a348e1c6a02869081a26547b49160dd3df72d1d75a570eb9b698292ec602052604090205460ff168061226f5750335f9081527fee57cd81e84075558e8fcc182a1f4393f91fc97f963a136e66b7f949a62f319f602052604090205460ff165b6122d5576040517f08c379a000000000000000000000000000000000000000000000000000000000815260206004820152601660248201527f4f6e6c792041646d696e206f72204f70657261746f72000000000000000000006044820152606401610bac565b5f811161233e576040517f08c379a000000000000000000000000000000000000000000000000000000000815260206004820152601360248201527f496e76616c6964206d696e7420616d6f756e74000000000000000000000000006044820152606401610bac565b600d55565b606060048054610e029061457a565b6016805481906123619061457a565b80601f016020809104026020016040519081016040528092919081815260200182805461238d9061457a565b80156123d85780601f106123af576101008083540402835291602001916123d8565b820191905f5260205f20905b8154815290600101906020018083116123bb57829003601f168201915b5050505050908060010180546123ed9061457a565b80601f01602080910402602001604051908101604052809291908181526020018280546124199061457a565b80156124645780601f1061243b57610100808354040283529160200191612464565b820191905f5260205f20905b81548152906001019060200180831161244757829003601f168201915b5050505050908060020180546124799061457a565b80601f01602080910402602001604051908101604052809291908181526020018280546124a59061457a565b80156124f05780601f106124c7576101008083540402835291602001916124f0565b820191905f5260205f20905b8154815290600101906020018083116124d357829003601f168201915b5050505050908060030180546125059061457a565b80601f01602080910402602001604051908101604052809291908181526020018280546125319061457a565b801561257c5780601f106125535761010080835404028352916020019161257c565b820191905f5260205f20905b81548152906001019060200180831161255f57829003601f168201915b5050505060048301546005909301549192916bffffffffffffffffffffffff811691506c01000000000000000000000000900473ffffffffffffffffffffffffffffffffffffffff1687565b335f81815260086020908152604080832073ffffffffffffffffffffffffffffffffffffffff87168085529083529281902080547fffffffffffffffffffffffffffffffffffffffffffffffffffffffffffffff001686151590811790915590519081529192917f17307eab39ab6107e8899845ad3d59bd9653f200f220920489ca2b5937696c31910160405180910390a35050565b7f9eb10b7eab35fabb5491c526a3cf39c3bb7ce2ee5d483e1558635d2c96c2085c61268881612dcc565b60408051808201909152600281527f574c0000000000000000000000000000000000000000000000000000000000006020820152600b546126c9908461453f565b34101561270657805f6040517f422e6598000000000000000000000000000000000000000000000000000000008152600401610bac929190614556565b600f5460145460155461271d928792879286612dd9565b600b546040805134815273ffffffffffffffffffffffffffffffffffffffff87166020820152908101859052606081019190915233907f2803fcf0a236d2815d9e6b3ef81ad6014f08139d44906d7d3cfc5302331e81e090608001610d3e565b612788848484611035565b73ffffffffffffffffffffffffffffffffffffffff83163b156127de576127b184848484613654565b6127de576127de7fd1a57ed6000000000000000000000000000000000000000000000000000000006130c9565b50505050565b60606127ef82613065565b612825576040517f5a13bba900000000000000000000000000000000000000000000000000000000815260040160405180910390fd5b5f61282e611dc5565b90505f81511161284c5760405180602001604052805f81525061287a565b80612856846137c1565b60405161286a929190601990602001614b61565b6040516020818303038152906040525b9392505050565b335f9081527f7d7ffb7a348e1c6a02869081a26547b49160dd3df72d1d75a570eb9b698292ec602052604090205460ff16806128ea5750335f9081527fee57cd81e84075558e8fcc182a1f4393f91fc97f963a136e66b7f949a62f319f602052604090205460ff165b612950576040517f08c379a000000000000000000000000000000000000000000000000000000000815260206004820152601660248201527f4f6e6c792041646d696e206f72204f70657261746f72000000000000000000006044820152606401610bac565b5f81116129b9576040517f08c379a000000000000000000000000000000000000000000000000000000000815260206004820152601260248201527f496e76616c6964206d617820616d6f756e7400000000000000000000000000006044820152606401610bac565b600f55565b5f828152602081905260409020600101546129d881612dcc565b6116c5838361356a565b6019610eee8282614a3a565b335f9081527f7d7ffb7a348e1c6a02869081a26547b49160dd3df72d1d75a570eb9b698292ec602052604090205460ff1680612a575750335f9081527fee57cd81e84075558e8fcc182a1f4393f91fc97f963a136e66b7f949a62f319f602052604090205460ff165b612abd576040517f08c379a000000000000000000000000000000000000000000000000000000000815260206004820152601660248201527f4f6e6c792041646d696e206f72204f70657261746f72000000000000000000006044820152606401610bac565b5f8111612b26576040517f08c379a000000000000000000000000000000000000000000000000000000000815260206004820152601460248201527f496e76616c696420707269636520616d6f756e740000000000000000000000006044820152606401610bac565b600b55565b335f9081527f7d7ffb7a348e1c6a02869081a26547b49160dd3df72d1d75a570eb9b698292ec602052604090205460ff1680612b945750335f9081527fee57cd81e84075558e8fcc182a1f4393f91fc97f963a136e66b7f949a62f319f602052604090205460ff165b612bfa576040517f08c379a000000000000000000000000000000000000000000000000000000000815260206004820152601660248201527f4f6e6c792041646d696e206f72204f70657261746f72000000000000000000006044820152606401610bac565b60ff81161580612c0d57508060ff166001145b612c73576040517f08c379a000000000000000000000000000000000000000000000000000000000815260206004820152601460248201527f4572726f72206f6e6c79204f473d302c574c3d310000000000000000000000006044820152606401610bac565b8180156127de575f5b81811015612dc5575f858583818110612c9757612c97614c1a565b9050602002016020810190612cac91906142c7565b73ffffffffffffffffffffffffffffffffffffffff1603612d29576040517f08c379a000000000000000000000000000000000000000000000000000000000815260206004820152600f60248201527f496e76616c6964204164647265737300000000000000000000000000000000006044820152606401610bac565b60ff831615612d8757612d827f9eb10b7eab35fabb5491c526a3cf39c3bb7ce2ee5d483e1558635d2c96c2085c868684818110612d6857612d68614c1a565b9050602002016020810190612d7d91906142c7565b613360565b612dbd565b612dbd7fcb7e89b7eed8294d41c0215e2f4fe023e2166afcfa3d1f479c394274afe5f019868684818110612d6857612d68614c1a565b600101612c7c565b5050505050565b612dd68133613822565b50565b335f9081526009602052604090819020905185918791612dfa908590614c47565b908152602001604051809103902054612e139190614a27565b1115612e50578060016040517f422e6598000000000000000000000000000000000000000000000000000000008152600401610bac929190614556565b4283811015612e90578160026040517f422e6598000000000000000000000000000000000000000000000000000000008152600401610bac929190614556565b82811115612ecf578160036040517f422e6598000000000000000000000000000000000000000000000000000000008152600401610bac929190614556565b601a54600254600154889190037fffffffffffffffffffffffffffffffffffffffffffffffffffffffffffffffff01612f089190614a27565b1115612f45578160046040517f422e6598000000000000000000000000000000000000000000000000000000008152600401610bac929190614556565b335f90815260096020526040908190209051879190612f65908590614c47565b908152604051908190036020019020805490910190556112628787613629565b5f7f01ffc9a7000000000000000000000000000000000000000000000000000000007fffffffff000000000000000000000000000000000000000000000000000000008316148061301757507f80ac58cd000000000000000000000000000000000000000000000000000000007fffffffff000000000000000000000000000000000000000000000000000000008316145b80610ded5750507fffffffff00000000000000000000000000000000000000000000000000000000167f5b5e139f000000000000000000000000000000000000000000000000000000001490565b5f816001116130c4576001548210156130c4575f5b505f82815260056020526040812054908190036130a15761309a83614c62565b925061307a565b7c0100000000000000000000000000000000000000000000000000000000161590505b919050565b805f5260045ffd5b5f6130db83611dbb565b905081801561310057503373ffffffffffffffffffffffffffffffffffffffff821614155b1561313c5761310f8133610a36565b61313c5761313c7fcfb3b942000000000000000000000000000000000000000000000000000000006130c9565b5f8381526007602052604080822080547fffffffffffffffffffffffff00000000000000000000000000000000000000001673ffffffffffffffffffffffffffffffffffffffff88811691821790925591518693918516917f8c5be1e5ebec7d5bd14f71427d1e84f3dd0314c0f7b2291e5b200ac8c7c3b92591a450505050565b5f816001116132cb57505f81815260056020526040812054908190036132a057600154821061320f5761320f7fdf2d9b42000000000000000000000000000000000000000000000000000000006130c9565b5b507fffffffffffffffffffffffffffffffffffffffffffffffffffffffffffffffff015f818152600560205260409020548015613210577c010000000000000000000000000000000000000000000000000000000081165f0361327257919050565b61329b7fdf2d9b42000000000000000000000000000000000000000000000000000000006130c9565b613210565b7c010000000000000000000000000000000000000000000000000000000081165f036132cb57919050565b6130c47fdf2d9b42000000000000000000000000000000000000000000000000000000006130c9565b60036133008382614a3a565b50600461330d8282614a3a565b50600180555050565b5f82815260208190526040808220600101805490849055905190918391839186917fbd79b86ffe0ab8e8776151514217cd7cacd52c909f66475c3af44e129f0b00ff9190a4505050565b5f8281526020818152604080832073ffffffffffffffffffffffffffffffffffffffff8516845290915290205460ff16610eee575f8281526020818152604080832073ffffffffffffffffffffffffffffffffffffffff8516808552925280832080547fffffffffffffffffffffffffffffffffffffffffffffffffffffffffffffff0016600117905551339285917f2f8788117e7eff1d82e926ec794901d17c78024a50270940304540a733656f0d9190a45050565b612710816bffffffffffffffffffffffff1610613490576040517f08c379a000000000000000000000000000000000000000000000000000000000815260206004820152601d60248201527f455243323938313a20666565206578636565642073616c6550726963650000006044820152606401610bac565b73ffffffffffffffffffffffffffffffffffffffff821661350d576040517f08c379a000000000000000000000000000000000000000000000000000000000815260206004820152601960248201527f455243323938313a20696e76616c6964207265636569766572000000000000006044820152606401610bac565b6bffffffffffffffffffffffff1673ffffffffffffffffffffffffffffffffffffffff9091166c01000000000000000000000000027fffffffffffffffffffffffffffffffffffffffff0000000000000000000000001617601b55565b5f8281526020818152604080832073ffffffffffffffffffffffffffffffffffffffff8516845290915290205460ff1615610eee575f8281526020818152604080832073ffffffffffffffffffffffffffffffffffffffff8516808552925280832080547fffffffffffffffffffffffffffffffffffffffffffffffffffffffffffffff0016905551339285917ff6391f5c32d9c69d2a47ea670b442974b53935d1edc7fd64eb21e047a839171b9190a45050565b612dd6815f6138d9565b610eee828260405180602001604052805f815250613a77565b606060166002018054610e029061457a565b6040517f150b7a020000000000000000000000000000000000000000000000000000000081525f9073ffffffffffffffffffffffffffffffffffffffff85169063150b7a02906136ae903390899088908890600401614c96565b6020604051808303815f875af1925050508015613706575060408051601f3d9081017fffffffffffffffffffffffffffffffffffffffffffffffffffffffffffffffe016820190925261370391810190614cde565b60015b613772573d808015613733576040519150601f19603f3d011682016040523d82523d5f602084013e613738565b606091505b5080515f0361376a5761376a7fd1a57ed6000000000000000000000000000000000000000000000000000000006130c9565b805181602001fd5b7fffffffff00000000000000000000000000000000000000000000000000000000167f150b7a02000000000000000000000000000000000000000000000000000000001490505b949350505050565b606060a06040510180604052602081039150505f815280825b600183039250600a81066030018353600a9004806137da57508190037fffffffffffffffffffffffffffffffffffffffffffffffffffffffffffffffe0909101908152919050565b5f8281526020818152604080832073ffffffffffffffffffffffffffffffffffffffff8516845290915290205460ff16610eee5761385f81613afd565b61386a836020613b1c565b60405160200161387b929190614cf9565b604080517fffffffffffffffffffffffffffffffffffffffffffffffffffffffffffffffe0818403018152908290527f08c379a0000000000000000000000000000000000000000000000000000000008252610bac91600401613f69565b5f6138e3836131bd565b9050805f806138ff865f90815260076020526040902080549091565b91509150841561394f576139148184336110a2565b61394f576139228333610a36565b61394f5761394f7f59c896be000000000000000000000000000000000000000000000000000000006130c9565b8015613959575f82555b73ffffffffffffffffffffffffffffffffffffffff83165f81815260066020526040902080546fffffffffffffffffffffffffffffffff0190554260a01b177c0300000000000000000000000000000000000000000000000000000000175f878152600560205260408120919091557c020000000000000000000000000000000000000000000000000000000085169003613a2257600186015f818152600560205260408120549003613a20576001548114613a20575f8181526005602052604090208590555b505b60405186905f9073ffffffffffffffffffffffffffffffffffffffff8616907fddf252ad1be2c89b69c2b068fc378daa952ba7f163c4a11628f55a4df523b3ef908390a4505060028054600101905550505050565b613a818383613d59565b73ffffffffffffffffffffffffffffffffffffffff83163b156116c5576001548281035b613ab75f868380600101945086613654565b613ae457613ae47fd1a57ed6000000000000000000000000000000000000000000000000000000006130c9565b818110613aa5578160015414612dc557612dc55f6130c9565b6060610ded73ffffffffffffffffffffffffffffffffffffffff831660145b60605f613b2a83600261453f565b613b35906002614a27565b67ffffffffffffffff811115613b4d57613b4d613f7b565b6040519080825280601f01601f191660200182016040528015613b77576020820181803683370190505b5090507f3000000000000000000000000000000000000000000000000000000000000000815f81518110613bad57613bad614c1a565b60200101907effffffffffffffffffffffffffffffffffffffffffffffffffffffffffffff191690815f1a9053507f780000000000000000000000000000000000000000000000000000000000000081600181518110613c0f57613c0f614c1a565b60200101907effffffffffffffffffffffffffffffffffffffffffffffffffffffffffffff191690815f1a9053505f613c4984600261453f565b613c54906001614a27565b90505b6001811115613cf0577f303132333435363738396162636465660000000000000000000000000000000085600f1660108110613c9557613c95614c1a565b1a60f81b828281518110613cab57613cab614c1a565b60200101907effffffffffffffffffffffffffffffffffffffffffffffffffffffffffffff191690815f1a90535060049490941c93613ce981614c62565b9050613c57565b50831561287a576040517f08c379a000000000000000000000000000000000000000000000000000000000815260206004820181905260248201527f537472696e67733a20686578206c656e67746820696e73756666696369656e746044820152606401610bac565b6001545f829003613d8d57613d8d7fb562e8dd000000000000000000000000000000000000000000000000000000006130c9565b5f81815260056020908152604080832073ffffffffffffffffffffffffffffffffffffffff87164260a01b6001881460e11b17811790915580845260069092528220805468010000000000000001860201905590819003613e1157613e117f2e076300000000000000000000000000000000000000000000000000000000006130c9565b818301825b80835f7fddf252ad1be2c89b69c2b068fc378daa952ba7f163c4a11628f55a4df523b3ef5f80a4818160010191508103613e16575060015550505050565b5f60208284031215613e64575f80fd5b5035919050565b73ffffffffffffffffffffffffffffffffffffffff81168114612dd6575f80fd5b5f8060408385031215613e9d575f80fd5b8235613ea881613e6b565b946020939093013593505050565b7fffffffff0000000000000000000000000000000000000000000000000000000081168114612dd6575f80fd5b5f60208284031215613ef3575f80fd5b813561287a81613eb6565b5f5b83811015613f18578181015183820152602001613f00565b50505f910152565b5f8151808452613f37816020860160208601613efe565b601f017fffffffffffffffffffffffffffffffffffffffffffffffffffffffffffffffe0169290920160200192915050565b602081525f61287a6020830184613f20565b7f4e487b71000000000000000000000000000000000000000000000000000000005f52604160045260245ffd5b5f67ffffffffffffffff80841115613fc257613fc2613f7b565b604051601f85017fffffffffffffffffffffffffffffffffffffffffffffffffffffffffffffffe0908116603f0116810190828211818310171561400857614008613f7b565b81604052809350858152868686011115614020575f80fd5b858560208301375f602087830101525050509392505050565b5f82601f830112614048575f80fd5b61287a83833560208501613fa8565b5f8060408385031215614068575f80fd5b823561407381613e6b565b9150602083013567ffffffffffffffff81111561408e575f80fd5b61409a85828601614039565b9150509250929050565b5f80604083850312156140b5575f80fd5b50508035926020909101359150565b5f805f606084860312156140d6575f80fd5b83356140e181613e6b565b925060208401356140f181613e6b565b929592945050506040919091013590565b5f8083601f840112614112575f80fd5b50813567ffffffffffffffff811115614129575f80fd5b6020830191508360208260051b85010111156112c4575f80fd5b5f805f805f805f87890361020081121561415b575f80fd5b88359750602089013567ffffffffffffffff80821115614179575f80fd5b908a019060e0828d03121561418c575f80fd5b8198506101807fffffffffffffffffffffffffffffffffffffffffffffffffffffffffffffffc0840112156141bf575f80fd5b60408b0197506101c08b01359250808311156141d9575f80fd5b6141e58c848d01614102565b90975095506101e08b0135925086915080831115614201575f80fd5b505061420f8a828b01614102565b989b979a50959850939692959293505050565b5f8060408385031215614233575f80fd5b82359150602083013561424581613e6b565b809150509250929050565b6bffffffffffffffffffffffff81168114612dd6575f80fd5b5f806040838503121561427a575f80fd5b823561428581613e6b565b9150602083013561424581614250565b5f602082840312156142a5575f80fd5b813567ffffffffffffffff8111156142bb575f80fd5b6137b984828501614039565b5f602082840312156142d7575f80fd5b813561287a81613e6b565b5f805f604084860312156142f4575f80fd5b833567ffffffffffffffff8082111561430b575f80fd5b818601915086601f83011261431e575f80fd5b81358181111561432c575f80fd5b87602082850101111561433d575f80fd5b6020928301955093505084013561435381613e6b565b809150509250925092565b60e081525f61437060e083018a613f20565b8281036020840152614382818a613f20565b905082810360408401526143968189613f20565b905082810360608401526143aa8188613f20565b608084019690965250506bffffffffffffffffffffffff9290921660a083015273ffffffffffffffffffffffffffffffffffffffff1660c090910152949350505050565b5f80604083850312156143ff575f80fd5b823561440a81613e6b565b915060208301358015158114614245575f80fd5b5f805f8060808587031215614431575f80fd5b843561443c81613e6b565b9350602085013561444c81613e6b565b925060408501359150606085013567ffffffffffffffff81111561446e575f80fd5b8501601f8101871361447e575f80fd5b61448d87823560208401613fa8565b91505092959194509250565b5f80604083850312156144aa575f80fd5b82356144b581613e6b565b9150602083013561424581613e6b565b5f805f604084860312156144d7575f80fd5b833567ffffffffffffffff8111156144ed575f80fd5b6144f986828701614102565b909450925050602084013560ff81168114614353575f80fd5b7f4e487b71000000000000000000000000000000000000000000000000000000005f52601160045260245ffd5b8082028115828204841417610ded57610ded614512565b604081525f6145686040830185613f20565b905060ff831660208301529392505050565b600181811c9082168061458e57607f821691505b6020821081036145c5577f4e487b71000000000000000000000000000000000000000000000000000000005f52602260045260245ffd5b50919050565b5f826145fe577f4e487b71000000000000000000000000000000000000000000000000000000005f52601260045260245ffd5b500490565b5f8083357fffffffffffffffffffffffffffffffffffffffffffffffffffffffffffffffe1843603018112614636575f80fd5b83018035915067ffffffffffffffff821115614650575f80fd5b6020019150368190038213156112c4575f80fd5b5f60208284031215614674575f80fd5b813561287a81614250565b601f8211156116c5575f81815260208120601f850160051c810160208610156146a55750805b601f850160051c820191505b818110156146c4578281556001016146b1565b505050505050565b67ffffffffffffffff8311156146e4576146e4613f7b565b6146f8836146f2835461457a565b8361467f565b5f601f841160018114614748575f85156147125750838201355b7fffffffffffffffffffffffffffffffffffffffffffffffffffffffffffffffff600387901b1c1916600186901b178355612dc5565b5f838152602090207fffffffffffffffffffffffffffffffffffffffffffffffffffffffffffffffe0861690835b828110156147965786850135825560209485019460019092019101614776565b50868210156147d1577fffffffffffffffffffffffffffffffffffffffffffffffffffffffffffffffff60f88860031b161c19848701351681555b505060018560011b0183555050505050565b5f8135610ded81614250565b5f8135610ded81613e6b565b6148058283614603565b67ffffffffffffffff81111561481d5761481d613f7b565b6148318161482b855461457a565b8561467f565b5f601f821160018114614881575f831561484b5750838201355b7fffffffffffffffffffffffffffffffffffffffffffffffffffffffffffffffff600385901b1c1916600184901b178555614916565b5f858152602090207fffffffffffffffffffffffffffffffffffffffffffffffffffffffffffffffe0841690835b828110156148cf57868501358255602094850194600190920191016148af565b508482101561490a577fffffffffffffffffffffffffffffffffffffffffffffffffffffffffffffffff60f88660031b161c19848701351681555b505060018360011b0185555b505050506149276020830183614603565b6149358183600186016146cc565b50506149446040830183614603565b6149528183600286016146cc565b50506149616060830183614603565b61496f8183600386016146cc565b505060808201356004820155600581016149c861498e60a085016147e3565b82547fffffffffffffffffffffffffffffffffffffffff000000000000000000000000166bffffffffffffffffffffffff91909116178255565b6116c56149d760c085016147ef565b82546bffffffffffffffffffffffff1660609190911b7fffffffffffffffffffffffffffffffffffffffff00000000000000000000000016178255565b81810381811115610ded57610ded614512565b80820180821115610ded57610ded614512565b815167ffffffffffffffff811115614a5457614a54613f7b565b614a6881614a62845461457a565b8461467f565b602080601f831160018114614aba575f8415614a845750858301515b7fffffffffffffffffffffffffffffffffffffffffffffffffffffffffffffffff600386901b1c1916600185901b1785556146c4565b5f858152602081207fffffffffffffffffffffffffffffffffffffffffffffffffffffffffffffffe08616915b82811015614b0657888601518255948401946001909101908401614ae7565b5085821015614b4257878501517fffffffffffffffffffffffffffffffffffffffffffffffffffffffffffffffff600388901b60f8161c191681555b5050505050600190811b01905550565b818382375f9101908152919050565b5f84516020614b738285838a01613efe565b855191840191614b868184848a01613efe565b85549201915f90614b968161457a565b60018281168015614bae5760018114614be157614c0a565b7fffffffffffffffffffffffffffffffffffffffffffffffffffffffffffffff0084168752821515830287019450614c0a565b895f52855f205f5b84811015614c0257815489820152908301908701614be9565b505082870194505b50929a9950505050505050505050565b7f4e487b71000000000000000000000000000000000000000000000000000000005f52603260045260245ffd5b5f8251614c58818460208701613efe565b9190910192915050565b5f81614c7057614c70614512565b507fffffffffffffffffffffffffffffffffffffffffffffffffffffffffffffffff0190565b5f73ffffffffffffffffffffffffffffffffffffffff808716835280861660208401525083604083015260806060830152614cd46080830184613f20565b9695505050505050565b5f60208284031215614cee575f80fd5b815161287a81613eb6565b7f416363657373436f6e74726f6c3a206163636f756e742000000000000000000081525f8351614d30816017850160208801613efe565b7f206973206d697373696e6720726f6c65200000000000000000000000000000006017918401918201528351614d6d816028840160208801613efe565b0160280194935050505056fea2646970667358221220d1cdb78f581282d50dca126ea0be16c9aa3f1b22605fd6287065525ede61b24964736f6c63430008140033",
  "linkReferences": {},
  "deployedLinkReferences": {}
}