{
  "_format": "hh-sol-artifact-1",
  "contractName": "MvxCollection",
  "sourceName": "src/MvxCollection.sol",
  "abi": [
    {
      "inputs": [],
      "name": "ApprovalCallerNotOwnerNorApproved",
      "type": "error"
    },
    {
      "inputs": [],
      "name": "ApprovalQueryForNonexistentToken",
      "type": "error"
    },
    {
      "inputs": [],
      "name": "BalanceQueryForZeroAddress",
      "type": "error"
    },
    {
      "inputs": [],
      "name": "FixedMaxSupply",
      "type": "error"
    },
    {
      "inputs": [],
      "name": "MintERC2309QuantityExceedsLimit",
      "type": "error"
    },
    {
      "inputs": [
        {
          "internalType": "bytes4",
          "name": "",
          "type": "bytes4"
        },
        {
          "internalType": "uint8",
          "name": "",
          "type": "uint8"
        }
      ],
      "name": "MintError",
      "type": "error"
    },
    {
      "inputs": [
        {
          "internalType": "uint8",
          "name": "",
          "type": "uint8"
        }
      ],
      "name": "MintForOwnerError",
      "type": "error"
    },
    {
      "inputs": [],
      "name": "MintToZeroAddress",
      "type": "error"
    },
    {
      "inputs": [],
      "name": "MintZeroQuantity",
      "type": "error"
    },
    {
      "inputs": [],
      "name": "OwnerQueryForNonexistentToken",
      "type": "error"
    },
    {
      "inputs": [],
      "name": "OwnershipNotInitializedForExtraData",
      "type": "error"
    },
    {
      "inputs": [
        {
          "internalType": "uint8",
          "name": "",
          "type": "uint8"
        }
      ],
      "name": "PublicStageUpdateError",
      "type": "error"
    },
    {
      "inputs": [
        {
          "internalType": "uint8",
          "name": "",
          "type": "uint8"
        }
      ],
      "name": "RoyaltyFeeError",
      "type": "error"
    },
    {
      "inputs": [],
      "name": "TokenNotExistsError",
      "type": "error"
    },
    {
      "inputs": [],
      "name": "TransferCallerNotOwnerNorApproved",
      "type": "error"
    },
    {
      "inputs": [],
      "name": "TransferFromIncorrectOwner",
      "type": "error"
    },
    {
      "inputs": [],
      "name": "TransferToNonERC721ReceiverImplementer",
      "type": "error"
    },
    {
      "inputs": [],
      "name": "TransferToZeroAddress",
      "type": "error"
    },
    {
      "inputs": [],
      "name": "URIQueryForNonexistentToken",
      "type": "error"
    },
    {
      "inputs": [
        {
          "internalType": "uint8",
          "name": "",
          "type": "uint8"
        }
      ],
      "name": "UpdateMaxSupplyError",
      "type": "error"
    },
    {
      "inputs": [
        {
          "internalType": "uint8",
          "name": "isPlaformCall",
          "type": "uint8"
        }
      ],
      "name": "WithdrawError",
      "type": "error"
    },
    {
      "anonymous": false,
      "inputs": [
        {
          "indexed": true,
          "internalType": "address",
          "name": "owner",
          "type": "address"
        },
        {
          "indexed": true,
          "internalType": "address",
          "name": "approved",
          "type": "address"
        },
        {
          "indexed": true,
          "internalType": "uint256",
          "name": "tokenId",
          "type": "uint256"
        }
      ],
      "name": "Approval",
      "type": "event"
    },
    {
      "anonymous": false,
      "inputs": [
        {
          "indexed": true,
          "internalType": "address",
          "name": "owner",
          "type": "address"
        },
        {
          "indexed": true,
          "internalType": "address",
          "name": "operator",
          "type": "address"
        },
        {
          "indexed": false,
          "internalType": "bool",
          "name": "approved",
          "type": "bool"
        }
      ],
      "name": "ApprovalForAll",
      "type": "event"
    },
    {
      "anonymous": false,
      "inputs": [
        {
          "indexed": true,
          "internalType": "address",
          "name": "sender",
          "type": "address"
        },
        {
          "indexed": false,
          "internalType": "uint256",
          "name": "tokenId",
          "type": "uint256"
        }
      ],
      "name": "BurnEvent",
      "type": "event"
    },
    {
      "anonymous": false,
      "inputs": [
        {
          "indexed": true,
          "internalType": "uint256",
          "name": "fromTokenId",
          "type": "uint256"
        },
        {
          "indexed": false,
          "internalType": "uint256",
          "name": "toTokenId",
          "type": "uint256"
        },
        {
          "indexed": true,
          "internalType": "address",
          "name": "from",
          "type": "address"
        },
        {
          "indexed": true,
          "internalType": "address",
          "name": "to",
          "type": "address"
        }
      ],
      "name": "ConsecutiveTransfer",
      "type": "event"
    },
    {
      "anonymous": false,
      "inputs": [
        {
          "indexed": false,
          "internalType": "string",
          "name": "",
          "type": "string"
        },
        {
          "indexed": false,
          "internalType": "address",
          "name": "",
          "type": "address"
        }
      ],
      "name": "Log",
      "type": "event"
    },
    {
      "anonymous": false,
      "inputs": [
        {
          "indexed": false,
          "internalType": "string",
          "name": "",
          "type": "string"
        },
        {
          "indexed": false,
          "internalType": "uint256",
          "name": "",
          "type": "uint256"
        }
      ],
      "name": "Log",
      "type": "event"
    },
    {
      "anonymous": false,
      "inputs": [
        {
          "indexed": true,
          "internalType": "address",
          "name": "sender",
          "type": "address"
        },
        {
          "indexed": false,
          "internalType": "uint256",
          "name": "value",
          "type": "uint256"
        },
        {
          "indexed": false,
          "internalType": "address",
          "name": "to",
          "type": "address"
        },
        {
          "indexed": false,
          "internalType": "uint256",
          "name": "amount",
          "type": "uint256"
        },
        {
          "indexed": false,
          "internalType": "uint256",
          "name": "mintPrice",
          "type": "uint256"
        }
      ],
      "name": "MintEvent",
      "type": "event"
    },
    {
      "anonymous": false,
      "inputs": [
        {
          "indexed": false,
          "internalType": "uint256",
          "name": "",
          "type": "uint256"
        }
      ],
      "name": "NewMaxSupply",
      "type": "event"
    },
    {
      "anonymous": false,
      "inputs": [
        {
          "indexed": true,
          "internalType": "address",
          "name": "sender",
          "type": "address"
        },
        {
          "indexed": false,
          "internalType": "uint256",
          "name": "value",
          "type": "uint256"
        },
        {
          "indexed": false,
          "internalType": "address",
          "name": "to",
          "type": "address"
        },
        {
          "indexed": false,
          "internalType": "uint256",
          "name": "amount",
          "type": "uint256"
        },
        {
          "indexed": false,
          "internalType": "uint256",
          "name": "_ogMintPrice",
          "type": "uint256"
        }
      ],
      "name": "OGmintEvent",
      "type": "event"
    },
    {
      "anonymous": false,
      "inputs": [
        {
          "indexed": true,
          "internalType": "address",
          "name": "sender",
          "type": "address"
        },
        {
          "indexed": false,
          "internalType": "address",
          "name": "to",
          "type": "address"
        },
        {
          "indexed": false,
          "internalType": "uint256",
          "name": "amount",
          "type": "uint256"
        }
      ],
      "name": "OwnerMintEvent",
      "type": "event"
    },
    {
      "anonymous": false,
      "inputs": [],
      "name": "PublicStageUpdate",
      "type": "event"
    },
    {
      "anonymous": false,
      "inputs": [
        {
          "indexed": true,
          "internalType": "bytes32",
          "name": "role",
          "type": "bytes32"
        },
        {
          "indexed": true,
          "internalType": "bytes32",
          "name": "previousAdminRole",
          "type": "bytes32"
        },
        {
          "indexed": true,
          "internalType": "bytes32",
          "name": "newAdminRole",
          "type": "bytes32"
        }
      ],
      "name": "RoleAdminChanged",
      "type": "event"
    },
    {
      "anonymous": false,
      "inputs": [
        {
          "indexed": true,
          "internalType": "bytes32",
          "name": "role",
          "type": "bytes32"
        },
        {
          "indexed": true,
          "internalType": "address",
          "name": "account",
          "type": "address"
        },
        {
          "indexed": true,
          "internalType": "address",
          "name": "sender",
          "type": "address"
        }
      ],
      "name": "RoleGranted",
      "type": "event"
    },
    {
      "anonymous": false,
      "inputs": [
        {
          "indexed": true,
          "internalType": "bytes32",
          "name": "role",
          "type": "bytes32"
        },
        {
          "indexed": true,
          "internalType": "address",
          "name": "account",
          "type": "address"
        },
        {
          "indexed": true,
          "internalType": "address",
          "name": "sender",
          "type": "address"
        }
      ],
      "name": "RoleRevoked",
      "type": "event"
    },
    {
      "anonymous": false,
      "inputs": [
        {
          "indexed": true,
          "internalType": "address",
          "name": "sender",
          "type": "address"
        },
        {
          "indexed": false,
          "internalType": "address",
          "name": "receiver",
          "type": "address"
        },
        {
          "indexed": false,
          "internalType": "uint96",
          "name": "royaltyFee",
          "type": "uint96"
        }
      ],
      "name": "RoyaltyFeeUpdate",
      "type": "event"
    },
    {
      "anonymous": false,
      "inputs": [
        {
          "indexed": true,
          "internalType": "address",
          "name": "from",
          "type": "address"
        },
        {
          "indexed": true,
          "internalType": "address",
          "name": "to",
          "type": "address"
        },
        {
          "indexed": true,
          "internalType": "uint256",
          "name": "tokenId",
          "type": "uint256"
        }
      ],
      "name": "Transfer",
      "type": "event"
    },
    {
      "anonymous": false,
      "inputs": [
        {
          "indexed": true,
          "internalType": "address",
          "name": "sender",
          "type": "address"
        },
        {
          "indexed": false,
          "internalType": "uint256",
          "name": "listLength",
          "type": "uint256"
        }
      ],
      "name": "UpdateOgEvent",
      "type": "event"
    },
    {
      "anonymous": false,
      "inputs": [
        {
          "indexed": true,
          "internalType": "address",
          "name": "sender",
          "type": "address"
        },
        {
          "indexed": false,
          "internalType": "uint256",
          "name": "listLength",
          "type": "uint256"
        }
      ],
      "name": "UpdateWLevent",
      "type": "event"
    },
    {
      "anonymous": false,
      "inputs": [
        {
          "indexed": true,
          "internalType": "address",
          "name": "sender",
          "type": "address"
        },
        {
          "indexed": false,
          "internalType": "uint256",
          "name": "value",
          "type": "uint256"
        },
        {
          "indexed": false,
          "internalType": "address",
          "name": "to",
          "type": "address"
        },
        {
          "indexed": false,
          "internalType": "uint256",
          "name": "amount",
          "type": "uint256"
        },
        {
          "indexed": false,
          "internalType": "uint256",
          "name": "wlMintPrice",
          "type": "uint256"
        }
      ],
      "name": "WLmintEvent",
      "type": "event"
    },
    {
      "anonymous": false,
      "inputs": [
        {
          "indexed": false,
          "internalType": "address",
          "name": "sender",
          "type": "address"
        },
        {
          "indexed": false,
          "internalType": "uint256",
          "name": "balance",
          "type": "uint256"
        },
        {
          "indexed": false,
          "internalType": "address",
          "name": "feeReceiver",
          "type": "address"
        },
        {
          "indexed": false,
          "internalType": "uint256",
          "name": "fee",
          "type": "uint256"
        }
      ],
      "name": "WithdrawEvent",
      "type": "event"
    },
    {
      "inputs": [],
      "name": "ADMIN_ROLE",
      "outputs": [
        {
          "internalType": "bytes32",
          "name": "",
          "type": "bytes32"
        }
      ],
      "stateMutability": "view",
      "type": "function"
    },
    {
      "inputs": [],
      "name": "DEFAULT_ADMIN_ROLE",
      "outputs": [
        {
          "internalType": "bytes32",
          "name": "",
          "type": "bytes32"
        }
      ],
      "stateMutability": "view",
      "type": "function"
    },
    {
      "inputs": [],
      "name": "OG_MINTER_ROLE",
      "outputs": [
        {
          "internalType": "bytes32",
          "name": "",
          "type": "bytes32"
        }
      ],
      "stateMutability": "view",
      "type": "function"
    },
    {
      "inputs": [],
      "name": "OPERATOR_ROLE",
      "outputs": [
        {
          "internalType": "bytes32",
          "name": "",
          "type": "bytes32"
        }
      ],
      "stateMutability": "view",
      "type": "function"
    },
    {
      "inputs": [],
      "name": "WL_MINTER_ROLE",
      "outputs": [
        {
          "internalType": "bytes32",
          "name": "",
          "type": "bytes32"
        }
      ],
      "stateMutability": "view",
      "type": "function"
    },
    {
      "inputs": [
        {
          "internalType": "address",
          "name": "to",
          "type": "address"
        },
        {
          "internalType": "uint256",
          "name": "tokenId",
          "type": "uint256"
        }
      ],
      "name": "approve",
      "outputs": [],
      "stateMutability": "payable",
      "type": "function"
    },
    {
      "inputs": [
        {
          "internalType": "address",
          "name": "owner",
          "type": "address"
        }
      ],
      "name": "balanceOf",
      "outputs": [
        {
          "internalType": "uint256",
          "name": "",
          "type": "uint256"
        }
      ],
      "stateMutability": "view",
      "type": "function"
    },
    {
      "inputs": [],
      "name": "baseURI",
      "outputs": [
        {
          "internalType": "string",
          "name": "",
          "type": "string"
        }
      ],
      "stateMutability": "view",
      "type": "function"
    },
    {
      "inputs": [
        {
          "internalType": "uint256",
          "name": "_tokenId",
          "type": "uint256"
        }
      ],
      "name": "burn",
      "outputs": [],
      "stateMutability": "nonpayable",
      "type": "function"
    },
    {
      "inputs": [],
      "name": "collectionData",
      "outputs": [
        {
          "internalType": "string",
          "name": "name",
          "type": "string"
        },
        {
          "internalType": "string",
          "name": "symbol",
          "type": "string"
        },
        {
          "internalType": "string",
          "name": "baseURI",
          "type": "string"
        },
        {
          "internalType": "string",
          "name": "baseExt",
          "type": "string"
        },
        {
          "internalType": "address",
          "name": "royaltyReceiver",
          "type": "address"
        },
        {
          "internalType": "uint128",
          "name": "maxSupply",
          "type": "uint128"
        },
        {
          "internalType": "uint128",
          "name": "royaltyFee",
          "type": "uint128"
        }
      ],
      "stateMutability": "view",
      "type": "function"
    },
    {
      "inputs": [
        {
          "internalType": "uint256",
          "name": "tokenId",
          "type": "uint256"
        }
      ],
      "name": "getApproved",
      "outputs": [
        {
          "internalType": "address",
          "name": "",
          "type": "address"
        }
      ],
      "stateMutability": "view",
      "type": "function"
    },
    {
      "inputs": [
        {
          "internalType": "bytes4",
          "name": "mintType",
          "type": "bytes4"
        },
        {
          "internalType": "address",
          "name": "_user",
          "type": "address"
        }
      ],
      "name": "getMintCountOf",
      "outputs": [
        {
          "internalType": "uint256",
          "name": "",
          "type": "uint256"
        }
      ],
      "stateMutability": "view",
      "type": "function"
    },
    {
      "inputs": [
        {
          "internalType": "bytes32",
          "name": "role",
          "type": "bytes32"
        }
      ],
      "name": "getRoleAdmin",
      "outputs": [
        {
          "internalType": "bytes32",
          "name": "",
          "type": "bytes32"
        }
      ],
      "stateMutability": "view",
      "type": "function"
    },
    {
      "inputs": [
        {
          "internalType": "bytes32",
          "name": "role",
          "type": "bytes32"
        },
        {
          "internalType": "address",
          "name": "account",
          "type": "address"
        }
      ],
      "name": "grantRole",
      "outputs": [],
      "stateMutability": "nonpayable",
      "type": "function"
    },
    {
      "inputs": [
        {
          "internalType": "bytes32",
          "name": "role",
          "type": "bytes32"
        },
        {
          "internalType": "address",
          "name": "account",
          "type": "address"
        }
      ],
      "name": "hasRole",
      "outputs": [
        {
          "internalType": "bool",
          "name": "",
          "type": "bool"
        }
      ],
      "stateMutability": "view",
      "type": "function"
    },
    {
      "inputs": [],
      "name": "initalized",
      "outputs": [
        {
          "internalType": "bool",
          "name": "",
          "type": "bool"
        }
      ],
      "stateMutability": "view",
      "type": "function"
    },
    {
      "inputs": [
        {
          "components": [
            {
              "internalType": "string",
              "name": "name",
              "type": "string"
            },
            {
              "internalType": "string",
              "name": "symbol",
              "type": "string"
            },
            {
              "internalType": "string",
              "name": "baseURI",
              "type": "string"
            },
            {
              "internalType": "string",
              "name": "baseExt",
              "type": "string"
            },
            {
              "internalType": "address",
              "name": "royaltyReceiver",
              "type": "address"
            },
            {
              "internalType": "uint128",
              "name": "maxSupply",
              "type": "uint128"
            },
            {
              "internalType": "uint128",
              "name": "royaltyFee",
              "type": "uint128"
            }
          ],
          "internalType": "struct Collection",
          "name": "_nftData",
          "type": "tuple"
        },
        {
          "components": [
            {
              "internalType": "bool",
              "name": "isMaxSupplyUpdatable",
              "type": "bool"
            },
            {
              "internalType": "uint72",
              "name": "ogMintPrice",
              "type": "uint72"
            },
            {
              "internalType": "uint72",
              "name": "whitelistMintPrice",
              "type": "uint72"
            },
            {
              "internalType": "uint72",
              "name": "mintPrice",
              "type": "uint72"
            },
            {
              "internalType": "uint16",
              "name": "mintMaxPerUser",
              "type": "uint16"
            },
            {
              "internalType": "uint16",
              "name": "ogMintMaxPerUser",
              "type": "uint16"
            },
            {
              "internalType": "uint40",
              "name": "mintStart",
              "type": "uint40"
            },
            {
              "internalType": "uint40",
              "name": "mintEnd",
              "type": "uint40"
            },
            {
              "internalType": "uint40",
              "name": "ogMintStart",
              "type": "uint40"
            },
            {
              "internalType": "uint40",
              "name": "ogMintEnd",
              "type": "uint40"
            },
            {
              "internalType": "uint40",
              "name": "whitelistMintStart",
              "type": "uint40"
            },
            {
              "internalType": "uint40",
              "name": "whitelistMintEnd",
              "type": "uint40"
            },
            {
              "internalType": "uint16",
              "name": "whitelistMintMaxPerUser",
              "type": "uint16"
            }
          ],
          "internalType": "struct Stages",
          "name": "_mintingStages",
          "type": "tuple"
        },
        {
          "internalType": "address[]",
          "name": "_ogs",
          "type": "address[]"
        },
        {
          "internalType": "address[]",
          "name": "_wls",
          "type": "address[]"
        }
      ],
      "name": "initialize",
      "outputs": [],
      "stateMutability": "nonpayable",
      "type": "function"
    },
    {
      "inputs": [
        {
          "internalType": "address",
          "name": "owner",
          "type": "address"
        },
        {
          "internalType": "address",
          "name": "operator",
          "type": "address"
        }
      ],
      "name": "isApprovedForAll",
      "outputs": [
        {
          "internalType": "bool",
          "name": "",
          "type": "bool"
        }
      ],
      "stateMutability": "view",
      "type": "function"
    },
    {
      "inputs": [
        {
          "internalType": "address",
          "name": "_to",
          "type": "address"
        },
        {
          "internalType": "uint256",
          "name": "_amount",
          "type": "uint256"
        }
      ],
      "name": "mintForOG",
      "outputs": [],
      "stateMutability": "payable",
      "type": "function"
    },
    {
      "inputs": [
        {
          "internalType": "address",
          "name": "_to",
          "type": "address"
        },
        {
          "internalType": "uint256",
          "name": "_amount",
          "type": "uint256"
        }
      ],
      "name": "mintForOwner",
      "outputs": [],
      "stateMutability": "payable",
      "type": "function"
    },
    {
      "inputs": [
        {
          "internalType": "address",
          "name": "_to",
          "type": "address"
        },
        {
          "internalType": "uint256",
          "name": "_amount",
          "type": "uint256"
        }
      ],
      "name": "mintForRegular",
      "outputs": [],
      "stateMutability": "payable",
      "type": "function"
    },
    {
      "inputs": [
        {
          "internalType": "address",
          "name": "_to",
          "type": "address"
        },
        {
          "internalType": "uint256",
          "name": "_amount",
          "type": "uint256"
        }
      ],
      "name": "mintForWhitelist",
      "outputs": [],
      "stateMutability": "payable",
      "type": "function"
    },
    {
      "inputs": [],
      "name": "mintingStages",
      "outputs": [
        {
          "internalType": "bool",
          "name": "isMaxSupplyUpdatable",
          "type": "bool"
        },
        {
          "internalType": "uint72",
          "name": "ogMintPrice",
          "type": "uint72"
        },
        {
          "internalType": "uint72",
          "name": "whitelistMintPrice",
          "type": "uint72"
        },
        {
          "internalType": "uint72",
          "name": "mintPrice",
          "type": "uint72"
        },
        {
          "internalType": "uint16",
          "name": "mintMaxPerUser",
          "type": "uint16"
        },
        {
          "internalType": "uint16",
          "name": "ogMintMaxPerUser",
          "type": "uint16"
        },
        {
          "internalType": "uint40",
          "name": "mintStart",
          "type": "uint40"
        },
        {
          "internalType": "uint40",
          "name": "mintEnd",
          "type": "uint40"
        },
        {
          "internalType": "uint40",
          "name": "ogMintStart",
          "type": "uint40"
        },
        {
          "internalType": "uint40",
          "name": "ogMintEnd",
          "type": "uint40"
        },
        {
          "internalType": "uint40",
          "name": "whitelistMintStart",
          "type": "uint40"
        },
        {
          "internalType": "uint40",
          "name": "whitelistMintEnd",
          "type": "uint40"
        },
        {
          "internalType": "uint16",
          "name": "whitelistMintMaxPerUser",
          "type": "uint16"
        }
      ],
      "stateMutability": "view",
      "type": "function"
    },
    {
      "inputs": [
        {
          "internalType": "address",
          "name": "",
          "type": "address"
        },
        {
          "internalType": "bytes4",
          "name": "",
          "type": "bytes4"
        }
      ],
      "name": "mintsPerWallet",
      "outputs": [
        {
          "internalType": "uint256",
          "name": "",
          "type": "uint256"
        }
      ],
      "stateMutability": "view",
      "type": "function"
    },
    {
      "inputs": [],
      "name": "name",
      "outputs": [
        {
          "internalType": "string",
          "name": "",
          "type": "string"
        }
      ],
      "stateMutability": "view",
      "type": "function"
    },
    {
      "inputs": [
        {
          "internalType": "uint256",
          "name": "tokenId",
          "type": "uint256"
        }
      ],
      "name": "ownerOf",
      "outputs": [
        {
          "internalType": "address",
          "name": "",
          "type": "address"
        }
      ],
      "stateMutability": "view",
      "type": "function"
    },
    {
      "inputs": [],
      "name": "platformFee",
      "outputs": [
        {
          "internalType": "uint16",
          "name": "",
          "type": "uint16"
        }
      ],
      "stateMutability": "view",
      "type": "function"
    },
    {
      "inputs": [],
      "name": "platformFeeReceiver",
      "outputs": [
        {
          "internalType": "address",
          "name": "",
          "type": "address"
        }
      ],
      "stateMutability": "view",
      "type": "function"
    },
    {
      "inputs": [],
      "name": "publicStageWeeks",
      "outputs": [
        {
          "internalType": "uint8",
          "name": "",
          "type": "uint8"
        }
      ],
      "stateMutability": "view",
      "type": "function"
    },
    {
      "inputs": [
        {
          "internalType": "bytes32",
          "name": "role",
          "type": "bytes32"
        },
        {
          "internalType": "address",
          "name": "account",
          "type": "address"
        }
      ],
      "name": "renounceRole",
      "outputs": [],
      "stateMutability": "nonpayable",
      "type": "function"
    },
    {
      "inputs": [
        {
          "internalType": "bytes32",
          "name": "role",
          "type": "bytes32"
        },
        {
          "internalType": "address",
          "name": "account",
          "type": "address"
        }
      ],
      "name": "revokeRole",
      "outputs": [],
      "stateMutability": "nonpayable",
      "type": "function"
    },
    {
      "inputs": [
        {
          "internalType": "uint256",
          "name": "tokenId",
          "type": "uint256"
        },
        {
          "internalType": "uint256",
          "name": "_salePrice",
          "type": "uint256"
        }
      ],
      "name": "royaltyInfo",
      "outputs": [
        {
          "internalType": "address",
          "name": "",
          "type": "address"
        },
        {
          "internalType": "uint256",
          "name": "",
          "type": "uint256"
        }
      ],
      "stateMutability": "view",
      "type": "function"
    },
    {
      "inputs": [
        {
          "internalType": "address",
          "name": "from",
          "type": "address"
        },
        {
          "internalType": "address",
          "name": "to",
          "type": "address"
        },
        {
          "internalType": "uint256",
          "name": "tokenId",
          "type": "uint256"
        }
      ],
      "name": "safeTransferFrom",
      "outputs": [],
      "stateMutability": "payable",
      "type": "function"
    },
    {
      "inputs": [
        {
          "internalType": "address",
          "name": "from",
          "type": "address"
        },
        {
          "internalType": "address",
          "name": "to",
          "type": "address"
        },
        {
          "internalType": "uint256",
          "name": "tokenId",
          "type": "uint256"
        },
        {
          "internalType": "bytes",
          "name": "_data",
          "type": "bytes"
        }
      ],
      "name": "safeTransferFrom",
      "outputs": [],
      "stateMutability": "payable",
      "type": "function"
    },
    {
      "inputs": [
        {
          "internalType": "address",
          "name": "operator",
          "type": "address"
        },
        {
          "internalType": "bool",
          "name": "approved",
          "type": "bool"
        }
      ],
      "name": "setApprovalForAll",
      "outputs": [],
      "stateMutability": "nonpayable",
      "type": "function"
    },
    {
      "inputs": [
        {
          "internalType": "string",
          "name": "_newBaseExtension",
          "type": "string"
        }
      ],
      "name": "setBaseExtension",
      "outputs": [],
      "stateMutability": "nonpayable",
      "type": "function"
    },
    {
      "inputs": [
        {
          "internalType": "string",
          "name": "_newBaseURI",
          "type": "string"
        }
      ],
      "name": "setBaseURI",
      "outputs": [],
      "stateMutability": "nonpayable",
      "type": "function"
    },
    {
      "inputs": [
        {
          "internalType": "bytes4",
          "name": "_interfaceId",
          "type": "bytes4"
        }
      ],
      "name": "supportsInterface",
      "outputs": [
        {
          "internalType": "bool",
          "name": "",
          "type": "bool"
        }
      ],
      "stateMutability": "view",
      "type": "function"
    },
    {
      "inputs": [],
      "name": "symbol",
      "outputs": [
        {
          "internalType": "string",
          "name": "",
          "type": "string"
        }
      ],
      "stateMutability": "view",
      "type": "function"
    },
    {
      "inputs": [
        {
          "internalType": "uint256",
          "name": "_tokenId",
          "type": "uint256"
        }
      ],
      "name": "tokenURI",
      "outputs": [
        {
          "internalType": "string",
          "name": "",
          "type": "string"
        }
      ],
      "stateMutability": "view",
      "type": "function"
    },
    {
      "inputs": [],
      "name": "totalSupply",
      "outputs": [
        {
          "internalType": "uint256",
          "name": "",
          "type": "uint256"
        }
      ],
      "stateMutability": "view",
      "type": "function"
    },
    {
      "inputs": [
        {
          "internalType": "address",
          "name": "from",
          "type": "address"
        },
        {
          "internalType": "address",
          "name": "to",
          "type": "address"
        },
        {
          "internalType": "uint256",
          "name": "tokenId",
          "type": "uint256"
        }
      ],
      "name": "transferFrom",
      "outputs": [],
      "stateMutability": "payable",
      "type": "function"
    },
    {
      "inputs": [
        {
          "internalType": "uint128",
          "name": "_newMax",
          "type": "uint128"
        }
      ],
      "name": "updateMaxSupply",
      "outputs": [],
      "stateMutability": "nonpayable",
      "type": "function"
    },
    {
      "inputs": [
        {
          "internalType": "uint16",
          "name": "_mintMax",
          "type": "uint16"
        }
      ],
      "name": "updateMintMax",
      "outputs": [],
      "stateMutability": "nonpayable",
      "type": "function"
    },
    {
      "inputs": [
        {
          "internalType": "uint72",
          "name": "_mintPrice",
          "type": "uint72"
        }
      ],
      "name": "updateMintPrice",
      "outputs": [],
      "stateMutability": "nonpayable",
      "type": "function"
    },
    {
      "inputs": [
        {
          "internalType": "address[]",
          "name": "_minterList",
          "type": "address[]"
        },
        {
          "internalType": "uint8",
          "name": "_mintRole",
          "type": "uint8"
        }
      ],
      "name": "updateMinterRoles",
      "outputs": [],
      "stateMutability": "nonpayable",
      "type": "function"
    },
    {
      "inputs": [
        {
          "internalType": "uint16",
          "name": "_ogMintMax",
          "type": "uint16"
        }
      ],
      "name": "updateOGMintMax",
      "outputs": [],
      "stateMutability": "nonpayable",
      "type": "function"
    },
    {
      "inputs": [
        {
          "internalType": "uint72",
          "name": "_price",
          "type": "uint72"
        }
      ],
      "name": "updateOGMintPrice",
      "outputs": [],
      "stateMutability": "nonpayable",
      "type": "function"
    },
    {
      "inputs": [
        {
          "internalType": "uint8",
          "name": "_weeks",
          "type": "uint8"
        }
      ],
      "name": "updatePublicEndTime",
      "outputs": [],
      "stateMutability": "payable",
      "type": "function"
    },
    {
      "inputs": [
        {
          "internalType": "address",
          "name": "_receiver",
          "type": "address"
        },
        {
          "internalType": "uint96",
          "name": "_royaltyFee",
          "type": "uint96"
        }
      ],
      "name": "updateRoyaltyInfo",
      "outputs": [],
      "stateMutability": "nonpayable",
      "type": "function"
    },
    {
      "inputs": [],
      "name": "updateStageFee",
      "outputs": [
        {
          "internalType": "uint72",
          "name": "",
          "type": "uint72"
        }
      ],
      "stateMutability": "view",
      "type": "function"
    },
    {
      "inputs": [
        {
          "internalType": "uint16",
          "name": "_whitelistMintMax",
          "type": "uint16"
        }
      ],
      "name": "updateWLMintMax",
      "outputs": [],
      "stateMutability": "nonpayable",
      "type": "function"
    },
    {
      "inputs": [
        {
          "internalType": "uint72",
          "name": "_whitelistMintPrice",
          "type": "uint72"
        }
      ],
      "name": "updateWhitelistMintPrice",
      "outputs": [],
      "stateMutability": "nonpayable",
      "type": "function"
    },
    {
      "inputs": [],
      "name": "version",
      "outputs": [
        {
          "internalType": "uint8",
          "name": "_version",
          "type": "uint8"
        }
      ],
      "stateMutability": "pure",
      "type": "function"
    },
    {
      "inputs": [],
      "name": "withdraw",
      "outputs": [],
      "stateMutability": "payable",
      "type": "function"
    }
  ],
  "bytecode": "0x60806040526013805460ff19169055348015610019575f80fd5b50615d2180620000285f395ff3fe608060405260043610610350575f3560e01c806355f804b3116101bd578063a22cb465116100f2578063c87b56dd11610092578063da3ef23f1161006d578063da3ef23f14610c67578063e985e9c514610c86578063f2cca28f14610cda578063f5b541a614610cf9575f80fd5b8063c87b56dd14610bba578063cf15a37c14610bd9578063d547741f14610c48575f80fd5b8063b0338f2e116100cd578063b0338f2e14610b36578063b4091aca14610b69578063b88d4fde14610b88578063c712bcff14610b9b575f80fd5b8063a22cb46514610ace578063a8c3182b14610aed578063abc5671314610b00575f80fd5b80637ab06c121161015d57806391d148541161013857806391d1485414610a3157806395d89b4114610a805780639c89a7b314610a94578063a217fddf14610abb575f80fd5b80637ab06c12146109c35780637faf476d146109d657806381f4a0b5146109f5575f80fd5b806368c16b221161019857806368c16b221461090a5780636c0360eb1461095d57806370a082311461097157806375b238fc14610990575f80fd5b806355f804b3146108b35780635be1a091146108d25780636352211e146108eb575f80fd5b80632a55205a1161029357806342842e0e116102335780634695b37b1161020e5780634695b37b14610841578063515571a21461086057806353b859df1461087f57806354fd4d5014610892575f80fd5b806342842e0e146107f057806342966c68146108035780634464f77714610822575f80fd5b806336568abe1161026e57806336568abe1461078b5780633808267e146107aa5780633ccfd60b146107c9578063411c4442146107d1575f80fd5b80632a55205a146106f55780632d656ad7146107405780632f2ff15d1461076c575f80fd5b80630e208d08116102fe5780631a8f4193116102d95780631a8f4193146104c257806323b872dd14610666578063248a9ca31461067957806326232a2e146106a7575f80fd5b80630e208d0814610428578063172cf75f1461044757806318160ddd14610488575f80fd5b806306fdde031161032e57806306fdde03146103b0578063081812fc146103d1578063095ea7b314610415575f80fd5b80630107e23e146103545780630167f3c51461036957806301ffc9a71461037c575b5f80fd5b610367610362366004614993565b610d2c565b005b6103676103773660046149cd565b611049565b348015610387575f80fd5b5061039b610396366004614a24565b6111f4565b60405190151581526020015b60405180910390f35b3480156103bb575f80fd5b506103c461129b565b6040516103a79190614aaa565b3480156103dc575f80fd5b506103f06103eb366004614abc565b61132b565b60405173ffffffffffffffffffffffffffffffffffffffff90911681526020016103a7565b6103676104233660046149cd565b61138a565b348015610433575f80fd5b50610367610442366004614af0565b61139a565b348015610452575f80fd5b5061047a7f9eb10b7eab35fabb5491c526a3cf39c3bb7ce2ee5d483e1558635d2c96c2085c81565b6040519081526020016103a7565b348015610493575f80fd5b50600254600154037fffffffffffffffffffffffffffffffffffffffffffffffffffffffffffffffff0161047a565b3480156104cd575f80fd5b50600a54600b546105dd9160ff81169168ffffffffffffffffff61010083048116926a010000000000000000000080820483169373010000000000000000000000000000000000000083049093169261ffff7c010000000000000000000000000000000000000000000000000000000084048116937e010000000000000000000000000000000000000000000000000000000000009081900482169364ffffffffff808516946501000000000081048216949281048216936f0100000000000000000000000000000082048316937401000000000000000000000000000000000000000083048416937901000000000000000000000000000000000000000000000000008404169291909104168d565b604080519d15158e5268ffffffffffffffffff9c8d1660208f01529a8c169a8d019a909a529990971660608b015261ffff95861660808b015293851660a08a015264ffffffffff92831660c08a015290821660e089015281166101008801529081166101208701529182166101408601529216610160840152166101808201526101a0016103a7565b610367610674366004614b0b565b611545565b348015610684575f80fd5b5061047a610693366004614abc565b5f9081526020819052604090206001015490565b3480156106b2575f80fd5b506012546106e2907d010000000000000000000000000000000000000000000000000000000000900461ffff1681565b60405161ffff90911681526020016103a7565b348015610700575f80fd5b5061071461070f366004614b49565b61177b565b6040805173ffffffffffffffffffffffffffffffffffffffff90931683526020830191909152016103a7565b34801561074b575f80fd5b506012546103f09073ffffffffffffffffffffffffffffffffffffffff1681565b348015610777575f80fd5b50610367610786366004614b69565b6117e8565b348015610796575f80fd5b506103676107a5366004614b69565b611811565b3480156107b5575f80fd5b506103676107c4366004614ba6565b6118c0565b610367611a51565b3480156107dc575f80fd5b506103676107eb366004614bc1565b611dc8565b6103676107fe366004614b0b565b611e6e565b34801561080e575f80fd5b5061036761081d366004614abc565b611e88565b34801561082d575f80fd5b5061036761083c366004614c3e565b611f50565b34801561084c575f80fd5b5061036761085b366004614ba6565b6123a7565b34801561086b575f80fd5b5061036761087a366004614d2a565b612538565b61036761088d3660046149cd565b6126bc565b34801561089d575f80fd5b5060025b60405160ff90911681526020016103a7565b3480156108be575f80fd5b506103676108cd366004614e03565b612876565b3480156108dd575f80fd5b5060135461039b9060ff1681565b3480156108f6575f80fd5b506103f0610905366004614abc565b612882565b348015610915575f80fd5b506012546109439074010000000000000000000000000000000000000000900468ffffffffffffffffff1681565b60405168ffffffffffffffffff90911681526020016103a7565b348015610968575f80fd5b506103c461288c565b34801561097c575f80fd5b5061047a61098b366004614e48565b61289b565b34801561099b575f80fd5b5061047a7fa49807205ce4d355092ef5a8a18f56e8913cf4a201fbe287825b095693c2177581565b6103676109d13660046149cd565b612912565b3480156109e1575f80fd5b506103676109f0366004614d2a565b612a93565b348015610a00575f80fd5b506012546108a1907f0100000000000000000000000000000000000000000000000000000000000000900460ff1681565b348015610a3c575f80fd5b5061039b610a4b366004614b69565b5f9182526020828152604080842073ffffffffffffffffffffffffffffffffffffffff93909316845291905290205460ff1690565b348015610a8b575f80fd5b506103c4612c29565b348015610a9f575f80fd5b50610aa8612c38565b6040516103a79796959493929190614e63565b348015610ac6575f80fd5b5061047a5f81565b348015610ad9575f80fd5b50610367610ae8366004614f05565b612eb9565b610367610afb3660046149cd565b612f4f565b348015610b0b575f80fd5b5061047a610b1a366004614f31565b600960209081525f928352604080842090915290825290205481565b348015610b41575f80fd5b5061047a7fcb7e89b7eed8294d41c0215e2f4fe023e2166afcfa3d1f479c394274afe5f01981565b348015610b74575f80fd5b50610367610b83366004614d2a565b613112565b610367610b96366004614f5d565b61329f565b348015610ba6575f80fd5b50610367610bb5366004614ba6565b613300565b348015610bc5575f80fd5b506103c4610bd4366004614abc565b613491565b348015610be4575f80fd5b5061047a610bf3366004614fd8565b73ffffffffffffffffffffffffffffffffffffffff165f9081526009602090815260408083207fffffffff00000000000000000000000000000000000000000000000000000000949094168352929052205490565b348015610c53575f80fd5b50610367610c62366004614b69565b61352e565b348015610c72575f80fd5b50610367610c81366004614e03565b613552565b348015610c91575f80fd5b5061039b610ca0366004615004565b73ffffffffffffffffffffffffffffffffffffffff9182165f90815260086020908152604080832093909416825291909152205460ff1690565b348015610ce5575f80fd5b50610367610cf4366004615020565b61355e565b348015610d04575f80fd5b5061047a7f97667070c54ef182b0f5858b034beac1b6f3089aa2d3188bb1e8929f4fa9b92981565b335f9081527f7d7ffb7a348e1c6a02869081a26547b49160dd3df72d1d75a570eb9b698292ec602052604090205460ff1680610d955750335f9081527fee57cd81e84075558e8fcc182a1f4393f91fc97f963a136e66b7f949a62f319f602052604090205460ff165b610e00576040517f08c379a000000000000000000000000000000000000000000000000000000000815260206004820152601660248201527f4f6e6c792041646d696e206f72204f70657261746f720000000000000000000060448201526064015b60405180910390fd5b60125460ff7f01000000000000000000000000000000000000000000000000000000000000009091048116908216811015610e6a576040517fb78065e900000000000000000000000000000000000000000000000000000000815260016004820152602401610df7565b601254349074010000000000000000000000000000000000000000900468ffffffffffffffffff16811015610ece576040517fb78065e900000000000000000000000000000000000000000000000000000000815260026004820152602401610df7565b6012546040515f9173ffffffffffffffffffffffffffffffffffffffff169083908381818185875af1925050503d805f8114610f25576040519150601f19603f3d011682016040523d82523d5f602084013e610f2a565b606091505b5050905080610f68576040517fb78065e900000000000000000000000000000000000000000000000000000000815260036004820152602401610df7565b600b8054601280547effffffffffffffffffffffffffffffffffffffffffffffffffffffffffffff167f010000000000000000000000000000000000000000000000000000000000000060ff898903811691909102919091179091557fffffffffffffffffffffffffffffffffffffffffffff0000000000ffffffffff821660078802909116620151800262ffffff16650100000000009283900464ffffffffff90811691909101908116909202179091556040517f364e225418b7ee601cf610faa00843fb274c2648cc61ab3c3752cdb78a6b11a6905f90a15050505050565b7fcb7e89b7eed8294d41c0215e2f4fe023e2166afcfa3d1f479c394274afe5f019611073816137ff565b600a547f4f47000000000000000000000000000000000000000000000000000000000000906110b290610100900468ffffffffffffffffff168461509d565b341015611115576040517f2dadc8a10000000000000000000000000000000000000000000000000000000081527fffffffff00000000000000000000000000000000000000000000000000000000821660048201525f6024820152604401610df7565b600a54600b5461117c918691869161ffff7e01000000000000000000000000000000000000000000000000000000000000909104169064ffffffffff6a010000000000000000000082048116916f010000000000000000000000000000009004168661380c565b600a546040805134815273ffffffffffffffffffffffffffffffffffffffff8716602082015290810185905261010090910468ffffffffffffffffff16606082015233907f12868c3639cc6f45bf88ecdaf9a5a315a966c89339b502a13c32758761b81494906080015b60405180910390a250505050565b5f7fffffffff0000000000000000000000000000000000000000000000000000000082167fc21b8f2800000000000000000000000000000000000000000000000000000000148061128657507fffffffff0000000000000000000000000000000000000000000000000000000082167f2a55205a00000000000000000000000000000000000000000000000000000000145b80611295575061129582613aea565b92915050565b6060600380546112aa906150b4565b80601f01602080910402602001604051908101604052809291908181526020018280546112d6906150b4565b80156113215780601f106112f857610100808354040283529160200191611321565b820191905f5260205f20905b81548152906001019060200180831161130457829003601f168201915b5050505050905090565b5f61133582613bca565b611362576113627fcf4700e400000000000000000000000000000000000000000000000000000000613c2e565b505f9081526007602052604090205473ffffffffffffffffffffffffffffffffffffffff1690565b61139682826001613c36565b5050565b7fa49807205ce4d355092ef5a8a18f56e8913cf4a201fbe287825b095693c217756113c4816137ff565b600a5460ff16611403576040517f54eabcce00000000000000000000000000000000000000000000000000000000815260016004820152602401610df7565b6011546fffffffffffffffffffffffffffffffff9081169083161015611458576040517f54eabcce00000000000000000000000000000000000000000000000000000000815260026004820152602401610df7565b600254600154037fffffffffffffffffffffffffffffffffffffffffffffffffffffffffffffffff01826fffffffffffffffffffffffffffffffff1610156114cf576040517f54eabcce00000000000000000000000000000000000000000000000000000000815260036004820152602401610df7565b601180547fffffffffffffffffffffffffffffffff00000000000000000000000000000000166fffffffffffffffffffffffffffffffff84169081179091556040519081527f870e95cc902be0a1f894ff08bb13ab98999fdb581790629f18dd80eb4da06cca9060200160405180910390a15050565b5f61154f82613d22565b73ffffffffffffffffffffffffffffffffffffffff948516949091508116841461159c5761159c7fa114810000000000000000000000000000000000000000000000000000000000613c2e565b5f82815260076020526040902080546115d48187335b73ffffffffffffffffffffffffffffffffffffffff9081169116811491141790565b61160f576115e28633610ca0565b61160f5761160f7f59c896be00000000000000000000000000000000000000000000000000000000613c2e565b8015611619575f82555b73ffffffffffffffffffffffffffffffffffffffff8681165f9081526006602052604080822080547fffffffffffffffffffffffffffffffffffffffffffffffffffffffffffffffff019055918716808252919020805460010190554260a01b177c0200000000000000000000000000000000000000000000000000000000175f858152600560205260408120919091557c02000000000000000000000000000000000000000000000000000000008416900361170457600184015f818152600560205260408120549003611702576001548114611702575f8181526005602052604090208490555b505b73ffffffffffffffffffffffffffffffffffffffff85168481887fddf252ad1be2c89b69c2b068fc378daa952ba7f163c4a11628f55a4df523b3ef5f80a4805f03611772576117727fea553b3400000000000000000000000000000000000000000000000000000000613c2e565b50505050505050565b6010546011545f91829173ffffffffffffffffffffffffffffffffffffffff90911690612710906117d29070010000000000000000000000000000000090046fffffffffffffffffffffffffffffffff168661509d565b6117dc9190615105565b915091505b9250929050565b5f82815260208190526040902060010154611802816137ff565b61180c8383613e59565b505050565b73ffffffffffffffffffffffffffffffffffffffff811633146118b6576040517f08c379a000000000000000000000000000000000000000000000000000000000815260206004820152602f60248201527f416363657373436f6e74726f6c3a2063616e206f6e6c792072656e6f756e636560448201527f20726f6c657320666f722073656c6600000000000000000000000000000000006064820152608401610df7565b6113968282613f10565b335f9081527f7d7ffb7a348e1c6a02869081a26547b49160dd3df72d1d75a570eb9b698292ec602052604090205460ff16806119295750335f9081527fee57cd81e84075558e8fcc182a1f4393f91fc97f963a136e66b7f949a62f319f602052604090205460ff165b61198f576040517f08c379a000000000000000000000000000000000000000000000000000000000815260206004820152601660248201527f4f6e6c792041646d696e206f72204f70657261746f72000000000000000000006044820152606401610df7565b5f8161ffff16116119fc576040517f08c379a000000000000000000000000000000000000000000000000000000000815260206004820152601260248201527f496e76616c6964206d617820616d6f756e7400000000000000000000000000006044820152606401610df7565b600b805461ffff9092167e01000000000000000000000000000000000000000000000000000000000000027dffffffffffffffffffffffffffffffffffffffffffffffffffffffffffff909216919091179055565b7fa49807205ce4d355092ef5a8a18f56e8913cf4a201fbe287825b095693c21775611a7b816137ff565b601254339073ffffffffffffffffffffffffffffffffffffffff8116907d010000000000000000000000000000000000000000000000000000000000900461ffff168015611cba576012545f9061271090611afb907d010000000000000000000000000000000000000000000000000000000000900461ffff164761509d565b611b059190615105565b90505f8373ffffffffffffffffffffffffffffffffffffffff16826040515f6040518083038185875af1925050503d805f8114611b5d576040519150601f19603f3d011682016040523d82523d5f602084013e611b62565b606091505b5050905080611b9f576040517fe91555480000000000000000000000000000000000000000000000000000000081525f6004820152602401610df7565b60405147905f9073ffffffffffffffffffffffffffffffffffffffff88169083908381818185875af1925050503d805f8114611bf6576040519150601f19603f3d011682016040523d82523d5f602084013e611bfb565b606091505b5050905080611c39576040517fe915554800000000000000000000000000000000000000000000000000000000815260016004820152602401610df7565b7f7e27a75faf6b8f74ec66364c1d23167ad5a538473e8bb4986ac2a26c30dbbbe687611c65868561513d565b6040805173ffffffffffffffffffffffffffffffffffffffff93841681526020810192909252918916818301526bffffffffffffffffffffffff8816606082015290519081900360800190a150505050611dc2565b60405147905f9073ffffffffffffffffffffffffffffffffffffffff86169083908381818185875af1925050503d805f8114611d11576040519150601f19603f3d011682016040523d82523d5f602084013e611d16565b606091505b5050905080611d54576040517fe915554800000000000000000000000000000000000000000000000000000000815260026004820152602401610df7565b6040805173ffffffffffffffffffffffffffffffffffffffff8781168252602082018590528616818301526bffffffffffffffffffffffff8516606082015290517f7e27a75faf6b8f74ec66364c1d23167ad5a538473e8bb4986ac2a26c30dbbbe69181900360800190a150505b50505050565b7fa49807205ce4d355092ef5a8a18f56e8913cf4a201fbe287825b095693c21775611df2816137ff565b611e0a83836bffffffffffffffffffffffff16613fc5565b6040805173ffffffffffffffffffffffffffffffffffffffff851681526bffffffffffffffffffffffff8416602082015233917f0d68bfdb860b47ebf04e76cebf91e412a17ee7ccf960b3dd8720471b090b2ea891015b60405180910390a2505050565b61180c83838360405180602001604052805f81525061329f565b33611e9282612882565b73ffffffffffffffffffffffffffffffffffffffff1614611f0f576040517f08c379a000000000000000000000000000000000000000000000000000000000815260206004820152600960248201527f4e6f74204f776e657200000000000000000000000000000000000000000000006044820152606401610df7565b611f18816140e2565b60405181815233907f512586160ebd4dc6945ba9ec5d21a1f723f26f3c7aa36cdffb6818d4e7b880309060200160405180910390a250565b60135460ff1615611fbd576040517f08c379a000000000000000000000000000000000000000000000000000000000815260206004820152601360248201527f416c726561647920696e697469616c697a6564000000000000000000000000006044820152606401610df7565b60128054601e367ffffffffffffffffffffffffffffffffffffffffffffffffffffffffffffffffe81013560f090811c9091039182013560b81c7401000000000000000000000000000000000000000002601583013590911c7d010000000000000000000000000000000000000000000000000000000000027cffffffffffffffffffffffffffffffffffffffffffffffffffffffffff909316601483013560f81c7f0100000000000000000000000000000000000000000000000000000000000000027fff0000ffffffffffffffffffffffffffffffffffffffffffffffffffffffffff1617929092177fffffff000000000000000000ffffffffffffffffffffffffffffffffffffffff16919091179091553560601c3361215d6120e38980615150565b8080601f0160208091040260200160405190810160405280939291908181526020018383808284375f920191909152506121249250505060208b018b615150565b8080601f0160208091040260200160405190810160405280939291908181526020018383808284375f920191909152506140ec92505050565b6121877fa49807205ce4d355092ef5a8a18f56e8913cf4a201fbe287825b095693c217758061410e565b6121d17f97667070c54ef182b0f5858b034beac1b6f3089aa2d3188bb1e8929f4fa9b9297fa49807205ce4d355092ef5a8a18f56e8913cf4a201fbe287825b095693c2177561410e565b61221b7fcb7e89b7eed8294d41c0215e2f4fe023e2166afcfa3d1f479c394274afe5f0197fa49807205ce4d355092ef5a8a18f56e8913cf4a201fbe287825b095693c2177561410e565b6122657f9eb10b7eab35fabb5491c526a3cf39c3bb7ce2ee5d483e1558635d2c96c2085c7fa49807205ce4d355092ef5a8a18f56e8913cf4a201fbe287825b095693c2177561410e565b61228f7fa49807205ce4d355092ef5a8a18f56e8913cf4a201fbe287825b095693c2177582613e59565b6122b97fa49807205ce4d355092ef5a8a18f56e8913cf4a201fbe287825b095693c2177583613e59565b6122c486865f61355e565b6122d08484600161355e565b6122e9826122e460e08b0160c08c01614af0565b613fc5565b87600c6122f6828261532d565b50879050600a61230682826155d2565b5050601280547fffffffffffffffffffffffff00000000000000000000000000000000000000001673ffffffffffffffffffffffffffffffffffffffff8316179055601380547fffffffffffffffffffffffffffffffffffffffffffffffffffffffffffffff0016600117905561239d7fa49807205ce4d355092ef5a8a18f56e8913cf4a201fbe287825b095693c217758261352e565b5050505050505050565b335f9081527f7d7ffb7a348e1c6a02869081a26547b49160dd3df72d1d75a570eb9b698292ec602052604090205460ff16806124105750335f9081527fee57cd81e84075558e8fcc182a1f4393f91fc97f963a136e66b7f949a62f319f602052604090205460ff165b612476576040517f08c379a000000000000000000000000000000000000000000000000000000000815260206004820152601660248201527f4f6e6c792041646d696e206f72204f70657261746f72000000000000000000006044820152606401610df7565b5f8161ffff16116124e3576040517f08c379a000000000000000000000000000000000000000000000000000000000815260206004820152601260248201527f496e76616c6964206d617820616d6f756e7400000000000000000000000000006044820152606401610df7565b600a805461ffff9092167e01000000000000000000000000000000000000000000000000000000000000027dffffffffffffffffffffffffffffffffffffffffffffffffffffffffffff909216919091179055565b335f9081527f7d7ffb7a348e1c6a02869081a26547b49160dd3df72d1d75a570eb9b698292ec602052604090205460ff16806125a15750335f9081527fee57cd81e84075558e8fcc182a1f4393f91fc97f963a136e66b7f949a62f319f602052604090205460ff165b612607576040517f08c379a000000000000000000000000000000000000000000000000000000000815260206004820152601660248201527f4f6e6c792041646d696e206f72204f70657261746f72000000000000000000006044820152606401610df7565b5f8168ffffffffffffffffff161161267b576040517f08c379a000000000000000000000000000000000000000000000000000000000815260206004820152601460248201527f496e76616c696420707269636520616d6f756e740000000000000000000000006044820152606401610df7565b600a805468ffffffffffffffffff909216610100027fffffffffffffffffffffffffffffffffffffffffffff000000000000000000ff909216919091179055565b335f9081527f7d7ffb7a348e1c6a02869081a26547b49160dd3df72d1d75a570eb9b698292ec602052604090205460ff16806127255750335f9081527fee57cd81e84075558e8fcc182a1f4393f91fc97f963a136e66b7f949a62f319f602052604090205460ff165b61278b576040517f08c379a000000000000000000000000000000000000000000000000000000000815260206004820152601660248201527f4f6e6c792041646d696e206f72204f70657261746f72000000000000000000006044820152606401610df7565b6011546fffffffffffffffffffffffffffffffff16816127d26002546001547fffffffffffffffffffffffffffffffffffffffffffffffffffffffffffffffff9190030190565b6127dc91906159c3565b1115612817576040517fc9eae84200000000000000000000000000000000000000000000000000000000815260016004820152602401610df7565b6128218282614158565b6040805173ffffffffffffffffffffffffffffffffffffffff841681526020810183905233917f1a3e625d40ebf494638afa2b07e6a62f9fbfa2060469d5bfc998ce32d7c91b90910160405180910390a25050565b600e61139682826159d6565b5f61129582613d22565b6060612896614171565b905090565b5f73ffffffffffffffffffffffffffffffffffffffff82166128e0576128e07f8f4eb60400000000000000000000000000000000000000000000000000000000613c2e565b5073ffffffffffffffffffffffffffffffffffffffff165f9081526006602052604090205467ffffffffffffffff1690565b600a547f52470000000000000000000000000000000000000000000000000000000000009061296390730100000000000000000000000000000000000000900468ffffffffffffffffff168361509d565b3410156129c6576040517f2dadc8a10000000000000000000000000000000000000000000000000000000081527fffffffff00000000000000000000000000000000000000000000000000000000821660048201525f6024820152604401610df7565b600a54600b54612a1391859185917c0100000000000000000000000000000000000000000000000000000000900461ffff169064ffffffffff80821691650100000000009004168661380c565b600a546040805134815273ffffffffffffffffffffffffffffffffffffffff8616602082015290810184905273010000000000000000000000000000000000000090910468ffffffffffffffffff16606082015233907f4b39a2b601e18792cafbb9db818cbd30b9cd45ad108161d616484ec3b3cc1def90608001611e61565b335f9081527f7d7ffb7a348e1c6a02869081a26547b49160dd3df72d1d75a570eb9b698292ec602052604090205460ff1680612afc5750335f9081527fee57cd81e84075558e8fcc182a1f4393f91fc97f963a136e66b7f949a62f319f602052604090205460ff165b612b62576040517f08c379a000000000000000000000000000000000000000000000000000000000815260206004820152601660248201527f4f6e6c792041646d696e206f72204f70657261746f72000000000000000000006044820152606401610df7565b5f8168ffffffffffffffffff1611612bd6576040517f08c379a000000000000000000000000000000000000000000000000000000000815260206004820152601460248201527f496e76616c696420707269636520616d6f756e740000000000000000000000006044820152606401610df7565b600a805468ffffffffffffffffff909216730100000000000000000000000000000000000000027fffffffff000000000000000000ffffffffffffffffffffffffffffffffffffff909216919091179055565b6060600480546112aa906150b4565b600c80548190612c47906150b4565b80601f0160208091040260200160405190810160405280929190818152602001828054612c73906150b4565b8015612cbe5780601f10612c9557610100808354040283529160200191612cbe565b820191905f5260205f20905b815481529060010190602001808311612ca157829003601f168201915b505050505090806001018054612cd3906150b4565b80601f0160208091040260200160405190810160405280929190818152602001828054612cff906150b4565b8015612d4a5780601f10612d2157610100808354040283529160200191612d4a565b820191905f5260205f20905b815481529060010190602001808311612d2d57829003601f168201915b505050505090806002018054612d5f906150b4565b80601f0160208091040260200160405190810160405280929190818152602001828054612d8b906150b4565b8015612dd65780601f10612dad57610100808354040283529160200191612dd6565b820191905f5260205f20905b815481529060010190602001808311612db957829003601f168201915b505050505090806003018054612deb906150b4565b80601f0160208091040260200160405190810160405280929190818152602001828054612e17906150b4565b8015612e625780601f10612e3957610100808354040283529160200191612e62565b820191905f5260205f20905b815481529060010190602001808311612e4557829003601f168201915b505050506004830154600590930154919273ffffffffffffffffffffffffffffffffffffffff16916fffffffffffffffffffffffffffffffff80821692507001000000000000000000000000000000009091041687565b335f81815260086020908152604080832073ffffffffffffffffffffffffffffffffffffffff87168085529083529281902080547fffffffffffffffffffffffffffffffffffffffffffffffffffffffffffffff001686151590811790915590519081529192917f17307eab39ab6107e8899845ad3d59bd9653f200f220920489ca2b5937696c31910160405180910390a35050565b7f9eb10b7eab35fabb5491c526a3cf39c3bb7ce2ee5d483e1558635d2c96c2085c612f79816137ff565b600a547f574c00000000000000000000000000000000000000000000000000000000000090612fc1906a0100000000000000000000900468ffffffffffffffffff168461509d565b341015613024576040517f2dadc8a10000000000000000000000000000000000000000000000000000000081527fffffffff00000000000000000000000000000000000000000000000000000000821660048201525f6024820152604401610df7565b600b5461309b908590859061ffff7e010000000000000000000000000000000000000000000000000000000000008204169064ffffffffff7401000000000000000000000000000000000000000082048116917901000000000000000000000000000000000000000000000000009004168661380c565b600a546040805134815273ffffffffffffffffffffffffffffffffffffffff871660208201529081018590526a010000000000000000000090910468ffffffffffffffffff16606082015233907f2803fcf0a236d2815d9e6b3ef81ad6014f08139d44906d7d3cfc5302331e81e0906080016111e6565b335f9081527f7d7ffb7a348e1c6a02869081a26547b49160dd3df72d1d75a570eb9b698292ec602052604090205460ff168061317b5750335f9081527fee57cd81e84075558e8fcc182a1f4393f91fc97f963a136e66b7f949a62f319f602052604090205460ff165b6131e1576040517f08c379a000000000000000000000000000000000000000000000000000000000815260206004820152601660248201527f4f6e6c792041646d696e206f72204f70657261746f72000000000000000000006044820152606401610df7565b5f8168ffffffffffffffffff1611613255576040517f08c379a000000000000000000000000000000000000000000000000000000000815260206004820152601460248201527f496e76616c696420707269636520616d6f756e740000000000000000000000006044820152606401610df7565b600a805468ffffffffffffffffff9092166a0100000000000000000000027fffffffffffffffffffffffffff000000000000000000ffffffffffffffffffff909216919091179055565b6132aa848484611545565b73ffffffffffffffffffffffffffffffffffffffff83163b15611dc2576132d384848484614183565b611dc257611dc27fd1a57ed600000000000000000000000000000000000000000000000000000000613c2e565b335f9081527f7d7ffb7a348e1c6a02869081a26547b49160dd3df72d1d75a570eb9b698292ec602052604090205460ff16806133695750335f9081527fee57cd81e84075558e8fcc182a1f4393f91fc97f963a136e66b7f949a62f319f602052604090205460ff165b6133cf576040517f08c379a000000000000000000000000000000000000000000000000000000000815260206004820152601660248201527f4f6e6c792041646d696e206f72204f70657261746f72000000000000000000006044820152606401610df7565b5f8161ffff161161343c576040517f08c379a000000000000000000000000000000000000000000000000000000000815260206004820152601360248201527f496e76616c6964206d696e7420616d6f756e74000000000000000000000000006044820152606401610df7565b600a805461ffff9092167c0100000000000000000000000000000000000000000000000000000000027fffff0000ffffffffffffffffffffffffffffffffffffffffffffffffffffffff909216919091179055565b606061349c82613bca565b6134d2576040517f5a13bba900000000000000000000000000000000000000000000000000000000815260040160405180910390fd5b5f6134db61288c565b90505f8151116134f95760405180602001604052805f815250613527565b80613503846142f0565b604051613517929190600f90602001615aee565b6040516020818303038152906040525b9392505050565b5f82815260208190526040902060010154613548816137ff565b61180c8383613f10565b600f61139682826159d6565b335f9081527f7d7ffb7a348e1c6a02869081a26547b49160dd3df72d1d75a570eb9b698292ec602052604090205460ff16806135c75750335f9081527fee57cd81e84075558e8fcc182a1f4393f91fc97f963a136e66b7f949a62f319f602052604090205460ff165b61362d576040517f08c379a000000000000000000000000000000000000000000000000000000000815260206004820152601660248201527f4f6e6c792041646d696e206f72204f70657261746f72000000000000000000006044820152606401610df7565b60ff8116158061364057508060ff166001145b6136a6576040517f08c379a000000000000000000000000000000000000000000000000000000000815260206004820152601460248201527f4572726f72206f6e6c79204f473d302c574c3d310000000000000000000000006044820152606401610df7565b818015611dc2575f5b818110156137f8575f8585838181106136ca576136ca615ba7565b90506020020160208101906136df9190614e48565b73ffffffffffffffffffffffffffffffffffffffff160361375c576040517f08c379a000000000000000000000000000000000000000000000000000000000815260206004820152600f60248201527f496e76616c6964204164647265737300000000000000000000000000000000006044820152606401610df7565b60ff8316156137ba576137b57f9eb10b7eab35fabb5491c526a3cf39c3bb7ce2ee5d483e1558635d2c96c2085c86868481811061379b5761379b615ba7565b90506020020160208101906137b09190614e48565b613e59565b6137f0565b6137f07fcb7e89b7eed8294d41c0215e2f4fe023e2166afcfa3d1f479c394274afe5f01986868481811061379b5761379b615ba7565b6001016136af565b5050505050565b6138098133614351565b50565b604080518181526010818301527f5f6d61784d696e74416d6f756e743a200000000000000000000000000000000060608201526020810186905290517fdd970dd9b5bfe707922155b058a407655cb18288b807e2216442bca8ad83d6b59181900360800190a1335f9081526009602090815260408083207fffffffff000000000000000000000000000000000000000000000000000000008516845290915290205484906138bb9087906159c3565b111561391e576040517f2dadc8a10000000000000000000000000000000000000000000000000000000081527fffffffff000000000000000000000000000000000000000000000000000000008216600482015260016024820152604401610df7565b4283811015613984576040517f2dadc8a10000000000000000000000000000000000000000000000000000000081527fffffffff000000000000000000000000000000000000000000000000000000008316600482015260026024820152604401610df7565b828111156139e9576040517f2dadc8a10000000000000000000000000000000000000000000000000000000081527fffffffff000000000000000000000000000000000000000000000000000000008316600482015260036024820152604401610df7565b6011546fffffffffffffffffffffffffffffffff1686613a306002546001547fffffffffffffffffffffffffffffffffffffffffffffffffffffffffffffffff9190030190565b613a3a91906159c3565b1115613a9f576040517f2dadc8a10000000000000000000000000000000000000000000000000000000081527fffffffff0000000000000000000000000000000000000000000000000000000083166004828101919091526024820152604401610df7565b335f9081526009602090815260408083207fffffffff000000000000000000000000000000000000000000000000000000008616845290915290208054870190556117728787614408565b5f7f01ffc9a7000000000000000000000000000000000000000000000000000000007fffffffff0000000000000000000000000000000000000000000000000000000083161480613b7c57507f80ac58cd000000000000000000000000000000000000000000000000000000007fffffffff000000000000000000000000000000000000000000000000000000008316145b806112955750507fffffffff00000000000000000000000000000000000000000000000000000000167f5b5e139f000000000000000000000000000000000000000000000000000000001490565b5f81600111613c2957600154821015613c29575f5b505f8281526005602052604081205490819003613c0657613bff83615bd4565b9250613bdf565b7c0100000000000000000000000000000000000000000000000000000000161590505b919050565b805f5260045ffd5b5f613c4083612882565b9050818015613c6557503373ffffffffffffffffffffffffffffffffffffffff821614155b15613ca157613c748133610ca0565b613ca157613ca17fcfb3b94200000000000000000000000000000000000000000000000000000000613c2e565b5f8381526007602052604080822080547fffffffffffffffffffffffff00000000000000000000000000000000000000001673ffffffffffffffffffffffffffffffffffffffff88811691821790925591518693918516917f8c5be1e5ebec7d5bd14f71427d1e84f3dd0314c0f7b2291e5b200ac8c7c3b92591a450505050565b5f81600111613e3057505f8181526005602052604081205490819003613e05576001548210613d7457613d747fdf2d9b4200000000000000000000000000000000000000000000000000000000613c2e565b5b507fffffffffffffffffffffffffffffffffffffffffffffffffffffffffffffffff015f818152600560205260409020548015613d75577c010000000000000000000000000000000000000000000000000000000081165f03613dd757919050565b613e007fdf2d9b4200000000000000000000000000000000000000000000000000000000613c2e565b613d75565b7c010000000000000000000000000000000000000000000000000000000081165f03613e3057919050565b613c297fdf2d9b4200000000000000000000000000000000000000000000000000000000613c2e565b5f8281526020818152604080832073ffffffffffffffffffffffffffffffffffffffff8516845290915290205460ff16611396575f8281526020818152604080832073ffffffffffffffffffffffffffffffffffffffff8516808552925280832080547fffffffffffffffffffffffffffffffffffffffffffffffffffffffffffffff0016600117905551339285917f2f8788117e7eff1d82e926ec794901d17c78024a50270940304540a733656f0d9190a45050565b5f8281526020818152604080832073ffffffffffffffffffffffffffffffffffffffff8516845290915290205460ff1615611396575f8281526020818152604080832073ffffffffffffffffffffffffffffffffffffffff8516808552925280832080547fffffffffffffffffffffffffffffffffffffffffffffffffffffffffffffff0016905551339285917ff6391f5c32d9c69d2a47ea670b442974b53935d1edc7fd64eb21e047a839171b9190a45050565b612710816fffffffffffffffffffffffffffffffff161115614016576040517f12b429b600000000000000000000000000000000000000000000000000000000815260016004820152602401610df7565b73ffffffffffffffffffffffffffffffffffffffff8216614066576040517f12b429b600000000000000000000000000000000000000000000000000000000815260026004820152602401610df7565b6010805473ffffffffffffffffffffffffffffffffffffffff9093167fffffffffffffffffffffffff000000000000000000000000000000000000000090931692909217909155601180546fffffffffffffffffffffffffffffffff928316700100000000000000000000000000000000029216919091179055565b613809815f614503565b60036140f883826159d6565b50600461410582826159d6565b50600180555050565b5f82815260208190526040808220600101805490849055905190918391839186917fbd79b86ffe0ab8e8776151514217cd7cacd52c909f66475c3af44e129f0b00ff9190a4505050565b611396828260405180602001604052805f8152506146a1565b6060600c60020180546112aa906150b4565b6040517f150b7a020000000000000000000000000000000000000000000000000000000081525f9073ffffffffffffffffffffffffffffffffffffffff85169063150b7a02906141dd903390899088908890600401615c08565b6020604051808303815f875af1925050508015614235575060408051601f3d9081017fffffffffffffffffffffffffffffffffffffffffffffffffffffffffffffffe016820190925261423291810190615c50565b60015b6142a1573d808015614262576040519150601f19603f3d011682016040523d82523d5f602084013e614267565b606091505b5080515f03614299576142997fd1a57ed600000000000000000000000000000000000000000000000000000000613c2e565b805181602001fd5b7fffffffff00000000000000000000000000000000000000000000000000000000167f150b7a02000000000000000000000000000000000000000000000000000000001490505b949350505050565b606060a06040510180604052602081039150505f815280825b600183039250600a81066030018353600a90048061430957508190037fffffffffffffffffffffffffffffffffffffffffffffffffffffffffffffffe0909101908152919050565b5f8281526020818152604080832073ffffffffffffffffffffffffffffffffffffffff8516845290915290205460ff166113965761438e81614727565b614399836020614746565b6040516020016143aa929190615c6b565b604080517fffffffffffffffffffffffffffffffffffffffffffffffffffffffffffffffe0818403018152908290527f08c379a0000000000000000000000000000000000000000000000000000000008252610df791600401614aaa565b6001545f82900361443c5761443c7fb562e8dd00000000000000000000000000000000000000000000000000000000613c2e565b5f81815260056020908152604080832073ffffffffffffffffffffffffffffffffffffffff87164260a01b6001881460e11b178117909155808452600690925282208054680100000000000000018602019055908190036144c0576144c07f2e07630000000000000000000000000000000000000000000000000000000000613c2e565b818301825b80835f7fddf252ad1be2c89b69c2b068fc378daa952ba7f163c4a11628f55a4df523b3ef5f80a48181600101915081036144c5575060015550505050565b5f61450d83613d22565b9050805f80614529865f90815260076020526040902080549091565b9150915084156145795761453e8184336115b2565b6145795761454c8333610ca0565b614579576145797f59c896be00000000000000000000000000000000000000000000000000000000613c2e565b8015614583575f82555b73ffffffffffffffffffffffffffffffffffffffff83165f81815260066020526040902080546fffffffffffffffffffffffffffffffff0190554260a01b177c0300000000000000000000000000000000000000000000000000000000175f878152600560205260408120919091557c02000000000000000000000000000000000000000000000000000000008516900361464c57600186015f81815260056020526040812054900361464a57600154811461464a575f8181526005602052604090208590555b505b60405186905f9073ffffffffffffffffffffffffffffffffffffffff8616907fddf252ad1be2c89b69c2b068fc378daa952ba7f163c4a11628f55a4df523b3ef908390a4505060028054600101905550505050565b6146ab8383614408565b73ffffffffffffffffffffffffffffffffffffffff83163b1561180c576001548281035b6146e15f868380600101945086614183565b61470e5761470e7fd1a57ed600000000000000000000000000000000000000000000000000000000613c2e565b8181106146cf5781600154146137f8576137f85f613c2e565b606061129573ffffffffffffffffffffffffffffffffffffffff831660145b60605f61475483600261509d565b61475f9060026159c3565b67ffffffffffffffff81111561477757614777614d45565b6040519080825280601f01601f1916602001820160405280156147a1576020820181803683370190505b5090507f3000000000000000000000000000000000000000000000000000000000000000815f815181106147d7576147d7615ba7565b60200101907effffffffffffffffffffffffffffffffffffffffffffffffffffffffffffff191690815f1a9053507f78000000000000000000000000000000000000000000000000000000000000008160018151811061483957614839615ba7565b60200101907effffffffffffffffffffffffffffffffffffffffffffffffffffffffffffff191690815f1a9053505f61487384600261509d565b61487e9060016159c3565b90505b600181111561491a577f303132333435363738396162636465660000000000000000000000000000000085600f16601081106148bf576148bf615ba7565b1a60f81b8282815181106148d5576148d5615ba7565b60200101907effffffffffffffffffffffffffffffffffffffffffffffffffffffffffffff191690815f1a90535060049490941c9361491381615bd4565b9050614881565b508315613527576040517f08c379a000000000000000000000000000000000000000000000000000000000815260206004820181905260248201527f537472696e67733a20686578206c656e67746820696e73756666696369656e746044820152606401610df7565b803560ff81168114613c29575f80fd5b5f602082840312156149a3575f80fd5b61352782614983565b73ffffffffffffffffffffffffffffffffffffffff81168114613809575f80fd5b5f80604083850312156149de575f80fd5b82356149e9816149ac565b946020939093013593505050565b7fffffffff0000000000000000000000000000000000000000000000000000000081168114613809575f80fd5b5f60208284031215614a34575f80fd5b8135613527816149f7565b5f5b83811015614a59578181015183820152602001614a41565b50505f910152565b5f8151808452614a78816020860160208601614a3f565b601f017fffffffffffffffffffffffffffffffffffffffffffffffffffffffffffffffe0169290920160200192915050565b602081525f6135276020830184614a61565b5f60208284031215614acc575f80fd5b5035919050565b6fffffffffffffffffffffffffffffffff81168114613809575f80fd5b5f60208284031215614b00575f80fd5b813561352781614ad3565b5f805f60608486031215614b1d575f80fd5b8335614b28816149ac565b92506020840135614b38816149ac565b929592945050506040919091013590565b5f8060408385031215614b5a575f80fd5b50508035926020909101359150565b5f8060408385031215614b7a575f80fd5b823591506020830135614b8c816149ac565b809150509250929050565b61ffff81168114613809575f80fd5b5f60208284031215614bb6575f80fd5b813561352781614b97565b5f8060408385031215614bd2575f80fd5b8235614bdd816149ac565b915060208301356bffffffffffffffffffffffff81168114614b8c575f80fd5b5f8083601f840112614c0d575f80fd5b50813567ffffffffffffffff811115614c24575f80fd5b6020830191508360208260051b85010111156117e1575f80fd5b5f805f805f80868803610200811215614c55575f80fd5b873567ffffffffffffffff80821115614c6c575f80fd5b9089019060e0828c031215614c7f575f80fd5b8198506101a07fffffffffffffffffffffffffffffffffffffffffffffffffffffffffffffffe084011215614cb2575f80fd5b60208a0197506101c08a0135925080831115614ccc575f80fd5b614cd88b848c01614bfd565b90975095506101e08a0135925086915080831115614cf4575f80fd5b5050614d0289828a01614bfd565b979a9699509497509295939492505050565b68ffffffffffffffffff81168114613809575f80fd5b5f60208284031215614d3a575f80fd5b813561352781614d14565b7f4e487b71000000000000000000000000000000000000000000000000000000005f52604160045260245ffd5b5f67ffffffffffffffff80841115614d8c57614d8c614d45565b604051601f85017fffffffffffffffffffffffffffffffffffffffffffffffffffffffffffffffe0908116603f01168101908282118183101715614dd257614dd2614d45565b81604052809350858152868686011115614dea575f80fd5b858560208301375f602087830101525050509392505050565b5f60208284031215614e13575f80fd5b813567ffffffffffffffff811115614e29575f80fd5b8201601f81018413614e39575f80fd5b6142e884823560208401614d72565b5f60208284031215614e58575f80fd5b8135613527816149ac565b60e081525f614e7560e083018a614a61565b8281036020840152614e87818a614a61565b90508281036040840152614e9b8189614a61565b90508281036060840152614eaf8188614a61565b73ffffffffffffffffffffffffffffffffffffffff96909616608084015250506fffffffffffffffffffffffffffffffff92831660a0820152911660c090910152949350505050565b8015158114613809575f80fd5b5f8060408385031215614f16575f80fd5b8235614f21816149ac565b91506020830135614b8c81614ef8565b5f8060408385031215614f42575f80fd5b8235614f4d816149ac565b91506020830135614b8c816149f7565b5f805f8060808587031215614f70575f80fd5b8435614f7b816149ac565b93506020850135614f8b816149ac565b925060408501359150606085013567ffffffffffffffff811115614fad575f80fd5b8501601f81018713614fbd575f80fd5b614fcc87823560208401614d72565b91505092959194509250565b5f8060408385031215614fe9575f80fd5b8235614ff4816149f7565b91506020830135614b8c816149ac565b5f8060408385031215615015575f80fd5b8235614ff4816149ac565b5f805f60408486031215615032575f80fd5b833567ffffffffffffffff811115615048575f80fd5b61505486828701614bfd565b9094509250615067905060208501614983565b90509250925092565b7f4e487b71000000000000000000000000000000000000000000000000000000005f52601160045260245ffd5b808202811582820484141761129557611295615070565b600181811c908216806150c857607f821691505b6020821081036150ff577f4e487b71000000000000000000000000000000000000000000000000000000005f52602260045260245ffd5b50919050565b5f82615138577f4e487b71000000000000000000000000000000000000000000000000000000005f52601260045260245ffd5b500490565b8181038181111561129557611295615070565b5f8083357fffffffffffffffffffffffffffffffffffffffffffffffffffffffffffffffe1843603018112615183575f80fd5b83018035915067ffffffffffffffff82111561519d575f80fd5b6020019150368190038213156117e1575f80fd5b601f82111561180c575f81815260208120601f850160051c810160208610156151d75750805b601f850160051c820191505b818110156151f6578281556001016151e3565b505050505050565b67ffffffffffffffff83111561521657615216614d45565b61522a8361522483546150b4565b836151b1565b5f601f84116001811461527a575f85156152445750838201355b7fffffffffffffffffffffffffffffffffffffffffffffffffffffffffffffffff600387901b1c1916600186901b1783556137f8565b5f838152602090207fffffffffffffffffffffffffffffffffffffffffffffffffffffffffffffffe0861690835b828110156152c857868501358255602094850194600190920191016152a8565b5086821015615303577fffffffffffffffffffffffffffffffffffffffffffffffffffffffffffffffff60f88860031b161c19848701351681555b505060018560011b0183555050505050565b5f8135611295816149ac565b5f813561129581614ad3565b6153378283615150565b67ffffffffffffffff81111561534f5761534f614d45565b6153638161535d85546150b4565b856151b1565b5f601f8211600181146153b3575f831561537d5750838201355b7fffffffffffffffffffffffffffffffffffffffffffffffffffffffffffffffff600385901b1c1916600184901b178555615448565b5f858152602090207fffffffffffffffffffffffffffffffffffffffffffffffffffffffffffffffe0841690835b8281101561540157868501358255602094850194600190920191016153e1565b508482101561543c577fffffffffffffffffffffffffffffffffffffffffffffffffffffffffffffffff60f88660031b161c19848701351681555b505060018360011b0185555b505050506154596020830183615150565b6154678183600186016151fe565b50506154766040830183615150565b6154848183600286016151fe565b50506154936060830183615150565b6154a18183600386016151fe565b50506154f86154b260808401615315565b6004830173ffffffffffffffffffffffffffffffffffffffff82167fffffffffffffffffffffffff00000000000000000000000000000000000000008254161781555050565b6005810161554961550b60a08501615321565b82547fffffffffffffffffffffffffffffffff00000000000000000000000000000000166fffffffffffffffffffffffffffffffff91909116178255565b61180c61555860c08501615321565b82546fffffffffffffffffffffffffffffffff1660809190911b7fffffffffffffffffffffffffffffffff0000000000000000000000000000000016178255565b5f813561129581614ef8565b5f813561129581614d14565b5f813561129581614b97565b5f813564ffffffffff81168114611295575f80fd5b6156106155de83615599565b825490151560ff167fffffffffffffffffffffffffffffffffffffffffffffffffffffffffffffff0091909116178255565b61565a61561f602084016155a5565b82547fffffffffffffffffffffffffffffffffffffffffffff000000000000000000ff1660089190911b69ffffffffffffffffff0016178255565b6156ad615669604084016155a5565b82547fffffffffffffffffffffffffff000000000000000000ffffffffffffffffffff1660509190911b72ffffffffffffffffff0000000000000000000016178255565b6157096156bc606084016155a5565b82547fffffffff000000000000000000ffffffffffffffffffffffffffffffffffffff1660989190911b7bffffffffffffffffff0000000000000000000000000000000000000016178255565b615767615718608084016155b1565b82547fffff0000ffffffffffffffffffffffffffffffffffffffffffffffffffffffff1660e09190911b7dffff0000000000000000000000000000000000000000000000000000000016178255565b6157c561577660a084016155b1565b82547dffffffffffffffffffffffffffffffffffffffffffffffffffffffffffff1660f09190911b7fffff00000000000000000000000000000000000000000000000000000000000016178255565b6001810161580b6157d860c085016155bd565b82547fffffffffffffffffffffffffffffffffffffffffffffffffffffff00000000001664ffffffffff91909116178255565b61585561581a60e085016155bd565b82547fffffffffffffffffffffffffffffffffffffffffffff0000000000ffffffffff1660289190911b69ffffffffff000000000016178255565b6158a561586561010085016155bd565b82547fffffffffffffffffffffffffffffffffff0000000000ffffffffffffffffffff1660509190911b6effffffffff0000000000000000000016178255565b6158fa6158b561012085016155bd565b82547fffffffffffffffffffffffff0000000000ffffffffffffffffffffffffffffff1660789190911b73ffffffffff00000000000000000000000000000016178255565b61595461590a61014085016155bd565b82547fffffffffffffff0000000000ffffffffffffffffffffffffffffffffffffffff1660a09190911b78ffffffffff000000000000000000000000000000000000000016178255565b6159b361596461016085016155bd565b82547fffff0000000000ffffffffffffffffffffffffffffffffffffffffffffffffff1660c89190911b7dffffffffff0000000000000000000000000000000000000000000000000016178255565b61180c61577661018085016155b1565b8082018082111561129557611295615070565b815167ffffffffffffffff8111156159f0576159f0614d45565b615a04816159fe84546150b4565b846151b1565b602080601f831160018114615a56575f8415615a205750858301515b7fffffffffffffffffffffffffffffffffffffffffffffffffffffffffffffffff600386901b1c1916600185901b1785556151f6565b5f858152602081207fffffffffffffffffffffffffffffffffffffffffffffffffffffffffffffffe08616915b82811015615aa257888601518255948401946001909101908401615a83565b5085821015615ade57878501517fffffffffffffffffffffffffffffffffffffffffffffffffffffffffffffffff600388901b60f8161c191681555b5050505050600190811b01905550565b5f84516020615b008285838a01614a3f565b855191840191615b138184848a01614a3f565b85549201915f90615b23816150b4565b60018281168015615b3b5760018114615b6e57615b97565b7fffffffffffffffffffffffffffffffffffffffffffffffffffffffffffffff0084168752821515830287019450615b97565b895f52855f205f5b84811015615b8f57815489820152908301908701615b76565b505082870194505b50929a9950505050505050505050565b7f4e487b71000000000000000000000000000000000000000000000000000000005f52603260045260245ffd5b5f81615be257615be2615070565b507fffffffffffffffffffffffffffffffffffffffffffffffffffffffffffffffff0190565b5f73ffffffffffffffffffffffffffffffffffffffff808716835280861660208401525083604083015260806060830152615c466080830184614a61565b9695505050505050565b5f60208284031215615c60575f80fd5b8151613527816149f7565b7f416363657373436f6e74726f6c3a206163636f756e742000000000000000000081525f8351615ca2816017850160208801614a3f565b7f206973206d697373696e6720726f6c65200000000000000000000000000000006017918401918201528351615cdf816028840160208801614a3f565b0160280194935050505056fea2646970667358221220ac19e07938b2d13d56896377bb03b52c3fe1a370a4da8a5951ff7615e404cc4064736f6c63430008140033",
  "linkReferences": {},
  "deployedLinkReferences": {}
}