{
  "_format": "hh-sol-artifact-1",
  "contractName": "MvxCollection",
  "sourceName": "src/MvxCollection.sol",
  "abi": [
    {
      "inputs": [],
      "name": "ApprovalCallerNotOwnerNorApproved",
      "type": "error"
    },
    {
      "inputs": [],
      "name": "ApprovalQueryForNonexistentToken",
      "type": "error"
    },
    {
      "inputs": [],
      "name": "BalanceQueryForZeroAddress",
      "type": "error"
    },
    {
      "inputs": [],
      "name": "MintERC2309QuantityExceedsLimit",
      "type": "error"
    },
    {
      "inputs": [],
      "name": "MintToZeroAddress",
      "type": "error"
    },
    {
      "inputs": [],
      "name": "MintZeroQuantity",
      "type": "error"
    },
    {
      "inputs": [],
      "name": "OwnerQueryForNonexistentToken",
      "type": "error"
    },
    {
      "inputs": [],
      "name": "OwnershipNotInitializedForExtraData",
      "type": "error"
    },
    {
      "inputs": [],
      "name": "TokenNotExistsError",
      "type": "error"
    },
    {
      "inputs": [],
      "name": "TransferCallerNotOwnerNorApproved",
      "type": "error"
    },
    {
      "inputs": [],
      "name": "TransferFromIncorrectOwner",
      "type": "error"
    },
    {
      "inputs": [],
      "name": "TransferToNonERC721ReceiverImplementer",
      "type": "error"
    },
    {
      "inputs": [],
      "name": "TransferToZeroAddress",
      "type": "error"
    },
    {
      "inputs": [],
      "name": "URIQueryForNonexistentToken",
      "type": "error"
    },
    {
      "inputs": [
        {
          "internalType": "uint8",
          "name": "isPlaformCall",
          "type": "uint8"
        }
      ],
      "name": "WithdrawFail",
      "type": "error"
    },
    {
      "anonymous": false,
      "inputs": [
        {
          "indexed": true,
          "internalType": "address",
          "name": "owner",
          "type": "address"
        },
        {
          "indexed": true,
          "internalType": "address",
          "name": "approved",
          "type": "address"
        },
        {
          "indexed": true,
          "internalType": "uint256",
          "name": "tokenId",
          "type": "uint256"
        }
      ],
      "name": "Approval",
      "type": "event"
    },
    {
      "anonymous": false,
      "inputs": [
        {
          "indexed": true,
          "internalType": "address",
          "name": "owner",
          "type": "address"
        },
        {
          "indexed": true,
          "internalType": "address",
          "name": "operator",
          "type": "address"
        },
        {
          "indexed": false,
          "internalType": "bool",
          "name": "approved",
          "type": "bool"
        }
      ],
      "name": "ApprovalForAll",
      "type": "event"
    },
    {
      "anonymous": false,
      "inputs": [
        {
          "indexed": true,
          "internalType": "address",
          "name": "sender",
          "type": "address"
        },
        {
          "indexed": false,
          "internalType": "uint256",
          "name": "tokenId",
          "type": "uint256"
        }
      ],
      "name": "BurnEvent",
      "type": "event"
    },
    {
      "anonymous": false,
      "inputs": [
        {
          "indexed": true,
          "internalType": "uint256",
          "name": "fromTokenId",
          "type": "uint256"
        },
        {
          "indexed": false,
          "internalType": "uint256",
          "name": "toTokenId",
          "type": "uint256"
        },
        {
          "indexed": true,
          "internalType": "address",
          "name": "from",
          "type": "address"
        },
        {
          "indexed": true,
          "internalType": "address",
          "name": "to",
          "type": "address"
        }
      ],
      "name": "ConsecutiveTransfer",
      "type": "event"
    },
    {
      "anonymous": false,
      "inputs": [
        {
          "indexed": false,
          "internalType": "uint8",
          "name": "version",
          "type": "uint8"
        }
      ],
      "name": "Initialized",
      "type": "event"
    },
    {
      "anonymous": false,
      "inputs": [
        {
          "indexed": false,
          "internalType": "string",
          "name": "",
          "type": "string"
        },
        {
          "indexed": false,
          "internalType": "uint256",
          "name": "",
          "type": "uint256"
        }
      ],
      "name": "Log",
      "type": "event"
    },
    {
      "anonymous": false,
      "inputs": [
        {
          "indexed": true,
          "internalType": "address",
          "name": "sender",
          "type": "address"
        },
        {
          "indexed": false,
          "internalType": "uint256",
          "name": "value",
          "type": "uint256"
        },
        {
          "indexed": false,
          "internalType": "address",
          "name": "to",
          "type": "address"
        },
        {
          "indexed": false,
          "internalType": "uint256",
          "name": "amount",
          "type": "uint256"
        },
        {
          "indexed": false,
          "internalType": "uint256",
          "name": "mintPrice",
          "type": "uint256"
        }
      ],
      "name": "MintEvent",
      "type": "event"
    },
    {
      "anonymous": false,
      "inputs": [
        {
          "indexed": true,
          "internalType": "address",
          "name": "sender",
          "type": "address"
        },
        {
          "indexed": false,
          "internalType": "uint256",
          "name": "value",
          "type": "uint256"
        },
        {
          "indexed": false,
          "internalType": "address",
          "name": "to",
          "type": "address"
        },
        {
          "indexed": false,
          "internalType": "uint256",
          "name": "amount",
          "type": "uint256"
        },
        {
          "indexed": false,
          "internalType": "uint256",
          "name": "_ogMintPrice",
          "type": "uint256"
        }
      ],
      "name": "OGmintEvent",
      "type": "event"
    },
    {
      "anonymous": false,
      "inputs": [
        {
          "indexed": true,
          "internalType": "address",
          "name": "sender",
          "type": "address"
        },
        {
          "indexed": false,
          "internalType": "address",
          "name": "to",
          "type": "address"
        },
        {
          "indexed": false,
          "internalType": "uint256",
          "name": "amount",
          "type": "uint256"
        }
      ],
      "name": "OwnerMintEvent",
      "type": "event"
    },
    {
      "anonymous": false,
      "inputs": [
        {
          "indexed": true,
          "internalType": "bytes32",
          "name": "role",
          "type": "bytes32"
        },
        {
          "indexed": true,
          "internalType": "bytes32",
          "name": "previousAdminRole",
          "type": "bytes32"
        },
        {
          "indexed": true,
          "internalType": "bytes32",
          "name": "newAdminRole",
          "type": "bytes32"
        }
      ],
      "name": "RoleAdminChanged",
      "type": "event"
    },
    {
      "anonymous": false,
      "inputs": [
        {
          "indexed": true,
          "internalType": "bytes32",
          "name": "role",
          "type": "bytes32"
        },
        {
          "indexed": true,
          "internalType": "address",
          "name": "account",
          "type": "address"
        },
        {
          "indexed": true,
          "internalType": "address",
          "name": "sender",
          "type": "address"
        }
      ],
      "name": "RoleGranted",
      "type": "event"
    },
    {
      "anonymous": false,
      "inputs": [
        {
          "indexed": true,
          "internalType": "bytes32",
          "name": "role",
          "type": "bytes32"
        },
        {
          "indexed": true,
          "internalType": "address",
          "name": "account",
          "type": "address"
        },
        {
          "indexed": true,
          "internalType": "address",
          "name": "sender",
          "type": "address"
        }
      ],
      "name": "RoleRevoked",
      "type": "event"
    },
    {
      "anonymous": false,
      "inputs": [
        {
          "indexed": true,
          "internalType": "address",
          "name": "sender",
          "type": "address"
        },
        {
          "indexed": false,
          "internalType": "address",
          "name": "receiver",
          "type": "address"
        },
        {
          "indexed": false,
          "internalType": "uint96",
          "name": "royaltyFee",
          "type": "uint96"
        }
      ],
      "name": "RoyaltyFeeUpdate",
      "type": "event"
    },
    {
      "anonymous": false,
      "inputs": [
        {
          "indexed": true,
          "internalType": "address",
          "name": "from",
          "type": "address"
        },
        {
          "indexed": true,
          "internalType": "address",
          "name": "to",
          "type": "address"
        },
        {
          "indexed": true,
          "internalType": "uint256",
          "name": "tokenId",
          "type": "uint256"
        }
      ],
      "name": "Transfer",
      "type": "event"
    },
    {
      "anonymous": false,
      "inputs": [
        {
          "indexed": true,
          "internalType": "address",
          "name": "sender",
          "type": "address"
        },
        {
          "indexed": false,
          "internalType": "uint256",
          "name": "listLength",
          "type": "uint256"
        }
      ],
      "name": "UpdateOgEvent",
      "type": "event"
    },
    {
      "anonymous": false,
      "inputs": [
        {
          "indexed": true,
          "internalType": "address",
          "name": "sender",
          "type": "address"
        },
        {
          "indexed": false,
          "internalType": "uint256",
          "name": "listLength",
          "type": "uint256"
        }
      ],
      "name": "UpdateWLevent",
      "type": "event"
    },
    {
      "anonymous": false,
      "inputs": [
        {
          "indexed": true,
          "internalType": "address",
          "name": "sender",
          "type": "address"
        },
        {
          "indexed": false,
          "internalType": "uint256",
          "name": "value",
          "type": "uint256"
        },
        {
          "indexed": false,
          "internalType": "address",
          "name": "to",
          "type": "address"
        },
        {
          "indexed": false,
          "internalType": "uint256",
          "name": "amount",
          "type": "uint256"
        },
        {
          "indexed": false,
          "internalType": "uint256",
          "name": "wlMintPrice",
          "type": "uint256"
        }
      ],
      "name": "WLmintEvent",
      "type": "event"
    },
    {
      "anonymous": false,
      "inputs": [
        {
          "indexed": true,
          "internalType": "address",
          "name": "",
          "type": "address"
        },
        {
          "indexed": false,
          "internalType": "uint256",
          "name": "",
          "type": "uint256"
        },
        {
          "indexed": false,
          "internalType": "address",
          "name": "",
          "type": "address"
        },
        {
          "indexed": false,
          "internalType": "uint256",
          "name": "",
          "type": "uint256"
        }
      ],
      "name": "WithdrawEvent",
      "type": "event"
    },
    {
      "inputs": [],
      "name": "ADMIN_ROLE",
      "outputs": [
        {
          "internalType": "bytes32",
          "name": "",
          "type": "bytes32"
        }
      ],
      "stateMutability": "view",
      "type": "function"
    },
    {
      "inputs": [],
      "name": "DEFAULT_ADMIN_ROLE",
      "outputs": [
        {
          "internalType": "bytes32",
          "name": "",
          "type": "bytes32"
        }
      ],
      "stateMutability": "view",
      "type": "function"
    },
    {
      "inputs": [],
      "name": "OG_MINTER_ROLE",
      "outputs": [
        {
          "internalType": "bytes32",
          "name": "",
          "type": "bytes32"
        }
      ],
      "stateMutability": "view",
      "type": "function"
    },
    {
      "inputs": [],
      "name": "OPERATOR_ROLE",
      "outputs": [
        {
          "internalType": "bytes32",
          "name": "",
          "type": "bytes32"
        }
      ],
      "stateMutability": "view",
      "type": "function"
    },
    {
      "inputs": [],
      "name": "WL_MINTER_ROLE",
      "outputs": [
        {
          "internalType": "bytes32",
          "name": "",
          "type": "bytes32"
        }
      ],
      "stateMutability": "view",
      "type": "function"
    },
    {
      "inputs": [
        {
          "internalType": "address",
          "name": "to",
          "type": "address"
        },
        {
          "internalType": "uint256",
          "name": "tokenId",
          "type": "uint256"
        }
      ],
      "name": "approve",
      "outputs": [],
      "stateMutability": "payable",
      "type": "function"
    },
    {
      "inputs": [
        {
          "internalType": "address",
          "name": "owner",
          "type": "address"
        }
      ],
      "name": "balanceOf",
      "outputs": [
        {
          "internalType": "uint256",
          "name": "",
          "type": "uint256"
        }
      ],
      "stateMutability": "view",
      "type": "function"
    },
    {
      "inputs": [],
      "name": "baseURI",
      "outputs": [
        {
          "internalType": "string",
          "name": "",
          "type": "string"
        }
      ],
      "stateMutability": "view",
      "type": "function"
    },
    {
      "inputs": [
        {
          "internalType": "uint256",
          "name": "_tokenId",
          "type": "uint256"
        }
      ],
      "name": "burn",
      "outputs": [],
      "stateMutability": "nonpayable",
      "type": "function"
    },
    {
      "inputs": [],
      "name": "collectionData",
      "outputs": [
        {
          "internalType": "string",
          "name": "name",
          "type": "string"
        },
        {
          "internalType": "string",
          "name": "symbol",
          "type": "string"
        },
        {
          "internalType": "string",
          "name": "baseURI",
          "type": "string"
        },
        {
          "internalType": "string",
          "name": "baseExt",
          "type": "string"
        },
        {
          "internalType": "uint256",
          "name": "maxSupply",
          "type": "uint256"
        },
        {
          "internalType": "uint96",
          "name": "royaltyFee",
          "type": "uint96"
        },
        {
          "internalType": "address",
          "name": "royaltyReceiver",
          "type": "address"
        }
      ],
      "stateMutability": "view",
      "type": "function"
    },
    {
      "inputs": [
        {
          "internalType": "uint256",
          "name": "tokenId",
          "type": "uint256"
        }
      ],
      "name": "getApproved",
      "outputs": [
        {
          "internalType": "address",
          "name": "",
          "type": "address"
        }
      ],
      "stateMutability": "view",
      "type": "function"
    },
    {
      "inputs": [
        {
          "internalType": "string",
          "name": "mintType",
          "type": "string"
        },
        {
          "internalType": "address",
          "name": "_user",
          "type": "address"
        }
      ],
      "name": "getMintCountOf",
      "outputs": [
        {
          "internalType": "uint256",
          "name": "",
          "type": "uint256"
        }
      ],
      "stateMutability": "view",
      "type": "function"
    },
    {
      "inputs": [
        {
          "internalType": "bytes32",
          "name": "role",
          "type": "bytes32"
        }
      ],
      "name": "getRoleAdmin",
      "outputs": [
        {
          "internalType": "bytes32",
          "name": "",
          "type": "bytes32"
        }
      ],
      "stateMutability": "view",
      "type": "function"
    },
    {
      "inputs": [
        {
          "internalType": "bytes32",
          "name": "role",
          "type": "bytes32"
        },
        {
          "internalType": "address",
          "name": "account",
          "type": "address"
        }
      ],
      "name": "grantRole",
      "outputs": [],
      "stateMutability": "nonpayable",
      "type": "function"
    },
    {
      "inputs": [
        {
          "internalType": "bytes32",
          "name": "role",
          "type": "bytes32"
        },
        {
          "internalType": "address",
          "name": "account",
          "type": "address"
        }
      ],
      "name": "hasRole",
      "outputs": [
        {
          "internalType": "bool",
          "name": "",
          "type": "bool"
        }
      ],
      "stateMutability": "view",
      "type": "function"
    },
    {
      "inputs": [
        {
          "internalType": "uint96",
          "name": "platformFee",
          "type": "uint96"
        },
        {
          "components": [
            {
              "internalType": "string",
              "name": "name",
              "type": "string"
            },
            {
              "internalType": "string",
              "name": "symbol",
              "type": "string"
            },
            {
              "internalType": "string",
              "name": "baseURI",
              "type": "string"
            },
            {
              "internalType": "string",
              "name": "baseExt",
              "type": "string"
            },
            {
              "internalType": "uint256",
              "name": "maxSupply",
              "type": "uint256"
            },
            {
              "internalType": "uint96",
              "name": "royaltyFee",
              "type": "uint96"
            },
            {
              "internalType": "address",
              "name": "royaltyReceiver",
              "type": "address"
            }
          ],
          "internalType": "struct Collection",
          "name": "_nftData",
          "type": "tuple"
        },
        {
          "components": [
            {
              "internalType": "uint256",
              "name": "ogMintPrice",
              "type": "uint256"
            },
            {
              "internalType": "uint256",
              "name": "whitelistMintPrice",
              "type": "uint256"
            },
            {
              "internalType": "uint256",
              "name": "mintPrice",
              "type": "uint256"
            },
            {
              "internalType": "uint256",
              "name": "mintMaxPerUser",
              "type": "uint256"
            },
            {
              "internalType": "uint256",
              "name": "ogMintMaxPerUser",
              "type": "uint256"
            },
            {
              "internalType": "uint256",
              "name": "whitelistMintMaxPerUser",
              "type": "uint256"
            },
            {
              "internalType": "uint256",
              "name": "mintStart",
              "type": "uint256"
            },
            {
              "internalType": "uint256",
              "name": "mintEnd",
              "type": "uint256"
            },
            {
              "internalType": "uint256",
              "name": "ogMintStart",
              "type": "uint256"
            },
            {
              "internalType": "uint256",
              "name": "ogMintEnd",
              "type": "uint256"
            },
            {
              "internalType": "uint256",
              "name": "whitelistMintStart",
              "type": "uint256"
            },
            {
              "internalType": "uint256",
              "name": "whitelistMintEnd",
              "type": "uint256"
            }
          ],
          "internalType": "struct Stages",
          "name": "_mintingStages",
          "type": "tuple"
        },
        {
          "internalType": "address[]",
          "name": "_ogs",
          "type": "address[]"
        },
        {
          "internalType": "address[]",
          "name": "_wls",
          "type": "address[]"
        }
      ],
      "name": "initialize",
      "outputs": [],
      "stateMutability": "nonpayable",
      "type": "function"
    },
    {
      "inputs": [
        {
          "internalType": "address",
          "name": "owner",
          "type": "address"
        },
        {
          "internalType": "address",
          "name": "operator",
          "type": "address"
        }
      ],
      "name": "isApprovedForAll",
      "outputs": [
        {
          "internalType": "bool",
          "name": "",
          "type": "bool"
        }
      ],
      "stateMutability": "view",
      "type": "function"
    },
    {
      "inputs": [
        {
          "internalType": "address",
          "name": "_to",
          "type": "address"
        },
        {
          "internalType": "uint256",
          "name": "_amount",
          "type": "uint256"
        }
      ],
      "name": "mintForOG",
      "outputs": [],
      "stateMutability": "payable",
      "type": "function"
    },
    {
      "inputs": [
        {
          "internalType": "address",
          "name": "_to",
          "type": "address"
        },
        {
          "internalType": "uint256",
          "name": "_amount",
          "type": "uint256"
        }
      ],
      "name": "mintForOwner",
      "outputs": [],
      "stateMutability": "payable",
      "type": "function"
    },
    {
      "inputs": [
        {
          "internalType": "address",
          "name": "_to",
          "type": "address"
        },
        {
          "internalType": "uint256",
          "name": "_amount",
          "type": "uint256"
        }
      ],
      "name": "mintForRegular",
      "outputs": [],
      "stateMutability": "payable",
      "type": "function"
    },
    {
      "inputs": [
        {
          "internalType": "address",
          "name": "_to",
          "type": "address"
        },
        {
          "internalType": "uint256",
          "name": "_amount",
          "type": "uint256"
        }
      ],
      "name": "mintForWhitelist",
      "outputs": [],
      "stateMutability": "payable",
      "type": "function"
    },
    {
      "inputs": [],
      "name": "mintingStages",
      "outputs": [
        {
          "internalType": "uint256",
          "name": "ogMintPrice",
          "type": "uint256"
        },
        {
          "internalType": "uint256",
          "name": "whitelistMintPrice",
          "type": "uint256"
        },
        {
          "internalType": "uint256",
          "name": "mintPrice",
          "type": "uint256"
        },
        {
          "internalType": "uint256",
          "name": "mintMaxPerUser",
          "type": "uint256"
        },
        {
          "internalType": "uint256",
          "name": "ogMintMaxPerUser",
          "type": "uint256"
        },
        {
          "internalType": "uint256",
          "name": "whitelistMintMaxPerUser",
          "type": "uint256"
        },
        {
          "internalType": "uint256",
          "name": "mintStart",
          "type": "uint256"
        },
        {
          "internalType": "uint256",
          "name": "mintEnd",
          "type": "uint256"
        },
        {
          "internalType": "uint256",
          "name": "ogMintStart",
          "type": "uint256"
        },
        {
          "internalType": "uint256",
          "name": "ogMintEnd",
          "type": "uint256"
        },
        {
          "internalType": "uint256",
          "name": "whitelistMintStart",
          "type": "uint256"
        },
        {
          "internalType": "uint256",
          "name": "whitelistMintEnd",
          "type": "uint256"
        }
      ],
      "stateMutability": "view",
      "type": "function"
    },
    {
      "inputs": [
        {
          "internalType": "address",
          "name": "",
          "type": "address"
        },
        {
          "internalType": "string",
          "name": "",
          "type": "string"
        }
      ],
      "name": "mintsPerWallet",
      "outputs": [
        {
          "internalType": "uint256",
          "name": "",
          "type": "uint256"
        }
      ],
      "stateMutability": "view",
      "type": "function"
    },
    {
      "inputs": [],
      "name": "name",
      "outputs": [
        {
          "internalType": "string",
          "name": "",
          "type": "string"
        }
      ],
      "stateMutability": "view",
      "type": "function"
    },
    {
      "inputs": [
        {
          "internalType": "uint256",
          "name": "tokenId",
          "type": "uint256"
        }
      ],
      "name": "ownerOf",
      "outputs": [
        {
          "internalType": "address",
          "name": "",
          "type": "address"
        }
      ],
      "stateMutability": "view",
      "type": "function"
    },
    {
      "inputs": [
        {
          "internalType": "bytes32",
          "name": "role",
          "type": "bytes32"
        },
        {
          "internalType": "address",
          "name": "account",
          "type": "address"
        }
      ],
      "name": "renounceRole",
      "outputs": [],
      "stateMutability": "nonpayable",
      "type": "function"
    },
    {
      "inputs": [
        {
          "internalType": "bytes32",
          "name": "role",
          "type": "bytes32"
        },
        {
          "internalType": "address",
          "name": "account",
          "type": "address"
        }
      ],
      "name": "revokeRole",
      "outputs": [],
      "stateMutability": "nonpayable",
      "type": "function"
    },
    {
      "inputs": [
        {
          "internalType": "uint256",
          "name": "tokenId",
          "type": "uint256"
        },
        {
          "internalType": "uint256",
          "name": "_salePrice",
          "type": "uint256"
        }
      ],
      "name": "royaltyInfo",
      "outputs": [
        {
          "internalType": "address",
          "name": "",
          "type": "address"
        },
        {
          "internalType": "uint256",
          "name": "",
          "type": "uint256"
        }
      ],
      "stateMutability": "view",
      "type": "function"
    },
    {
      "inputs": [
        {
          "internalType": "address",
          "name": "from",
          "type": "address"
        },
        {
          "internalType": "address",
          "name": "to",
          "type": "address"
        },
        {
          "internalType": "uint256",
          "name": "tokenId",
          "type": "uint256"
        }
      ],
      "name": "safeTransferFrom",
      "outputs": [],
      "stateMutability": "payable",
      "type": "function"
    },
    {
      "inputs": [
        {
          "internalType": "address",
          "name": "from",
          "type": "address"
        },
        {
          "internalType": "address",
          "name": "to",
          "type": "address"
        },
        {
          "internalType": "uint256",
          "name": "tokenId",
          "type": "uint256"
        },
        {
          "internalType": "bytes",
          "name": "_data",
          "type": "bytes"
        }
      ],
      "name": "safeTransferFrom",
      "outputs": [],
      "stateMutability": "payable",
      "type": "function"
    },
    {
      "inputs": [
        {
          "internalType": "address",
          "name": "operator",
          "type": "address"
        },
        {
          "internalType": "bool",
          "name": "approved",
          "type": "bool"
        }
      ],
      "name": "setApprovalForAll",
      "outputs": [],
      "stateMutability": "nonpayable",
      "type": "function"
    },
    {
      "inputs": [
        {
          "internalType": "string",
          "name": "_newBaseExtension",
          "type": "string"
        }
      ],
      "name": "setBaseExtension",
      "outputs": [],
      "stateMutability": "nonpayable",
      "type": "function"
    },
    {
      "inputs": [
        {
          "internalType": "string",
          "name": "_newBaseURI",
          "type": "string"
        }
      ],
      "name": "setBaseURI",
      "outputs": [],
      "stateMutability": "nonpayable",
      "type": "function"
    },
    {
      "inputs": [
        {
          "internalType": "bytes4",
          "name": "_interfaceId",
          "type": "bytes4"
        }
      ],
      "name": "supportsInterface",
      "outputs": [
        {
          "internalType": "bool",
          "name": "",
          "type": "bool"
        }
      ],
      "stateMutability": "view",
      "type": "function"
    },
    {
      "inputs": [],
      "name": "symbol",
      "outputs": [
        {
          "internalType": "string",
          "name": "",
          "type": "string"
        }
      ],
      "stateMutability": "view",
      "type": "function"
    },
    {
      "inputs": [
        {
          "internalType": "uint256",
          "name": "_tokenId",
          "type": "uint256"
        }
      ],
      "name": "tokenURI",
      "outputs": [
        {
          "internalType": "string",
          "name": "",
          "type": "string"
        }
      ],
      "stateMutability": "view",
      "type": "function"
    },
    {
      "inputs": [],
      "name": "totalSupply",
      "outputs": [
        {
          "internalType": "uint256",
          "name": "",
          "type": "uint256"
        }
      ],
      "stateMutability": "view",
      "type": "function"
    },
    {
      "inputs": [
        {
          "internalType": "address",
          "name": "from",
          "type": "address"
        },
        {
          "internalType": "address",
          "name": "to",
          "type": "address"
        },
        {
          "internalType": "uint256",
          "name": "tokenId",
          "type": "uint256"
        }
      ],
      "name": "transferFrom",
      "outputs": [],
      "stateMutability": "payable",
      "type": "function"
    },
    {
      "inputs": [
        {
          "internalType": "uint256",
          "name": "_mintMax",
          "type": "uint256"
        }
      ],
      "name": "updateMintMax",
      "outputs": [],
      "stateMutability": "nonpayable",
      "type": "function"
    },
    {
      "inputs": [
        {
          "internalType": "uint256",
          "name": "_mintPrice",
          "type": "uint256"
        }
      ],
      "name": "updateMintPrice",
      "outputs": [],
      "stateMutability": "nonpayable",
      "type": "function"
    },
    {
      "inputs": [
        {
          "internalType": "address[]",
          "name": "_minterList",
          "type": "address[]"
        },
        {
          "internalType": "uint8",
          "name": "_mintRole",
          "type": "uint8"
        }
      ],
      "name": "updateMinterRoles",
      "outputs": [],
      "stateMutability": "nonpayable",
      "type": "function"
    },
    {
      "inputs": [
        {
          "internalType": "uint256",
          "name": "_ogMintMax",
          "type": "uint256"
        }
      ],
      "name": "updateOGMintMax",
      "outputs": [],
      "stateMutability": "nonpayable",
      "type": "function"
    },
    {
      "inputs": [
        {
          "internalType": "uint256",
          "name": "_price",
          "type": "uint256"
        }
      ],
      "name": "updateOGMintPrice",
      "outputs": [],
      "stateMutability": "nonpayable",
      "type": "function"
    },
    {
      "inputs": [
        {
          "internalType": "address",
          "name": "_receiver",
          "type": "address"
        },
        {
          "internalType": "uint96",
          "name": "_royaltyFee",
          "type": "uint96"
        }
      ],
      "name": "updateRoyaltyInfo",
      "outputs": [],
      "stateMutability": "nonpayable",
      "type": "function"
    },
    {
      "inputs": [
        {
          "internalType": "uint256",
          "name": "_start",
          "type": "uint256"
        },
        {
          "internalType": "uint256",
          "name": "_end",
          "type": "uint256"
        }
      ],
      "name": "updateTime",
      "outputs": [],
      "stateMutability": "nonpayable",
      "type": "function"
    },
    {
      "inputs": [
        {
          "internalType": "uint256",
          "name": "_whitelistMintMax",
          "type": "uint256"
        }
      ],
      "name": "updateWLMintMax",
      "outputs": [],
      "stateMutability": "nonpayable",
      "type": "function"
    },
    {
      "inputs": [
        {
          "internalType": "uint256",
          "name": "_whitelistMintPrice",
          "type": "uint256"
        }
      ],
      "name": "updateWhitelistMintPrice",
      "outputs": [],
      "stateMutability": "nonpayable",
      "type": "function"
    },
    {
      "inputs": [],
      "name": "version",
      "outputs": [
        {
          "internalType": "uint8",
          "name": "_version",
          "type": "uint8"
        }
      ],
      "stateMutability": "pure",
      "type": "function"
    },
    {
      "inputs": [],
      "name": "withdraw",
      "outputs": [],
      "stateMutability": "payable",
      "type": "function"
    }
  ],
  "bytecode": "0x608060405234801561001057600080fd5b506152fa806100206000396000f3fe60806040526004361061031d5760003560e01c80636352211e116101a5578063a217fddf116100ec578063d05ec0a811610095578063e985e9c51161006f578063e985e9c5146109dc578063eb980abf14610a32578063f2cca28f14610a52578063f5b541a614610a7257600080fd5b8063d05ec0a81461097c578063d547741f1461099c578063da3ef23f146109bc57600080fd5b8063b0338f2e116100c6578063b0338f2e14610915578063b88d4fde14610949578063c87b56dd1461095c57600080fd5b8063a217fddf146108cd578063a22cb465146108e2578063a8c3182b1461090257600080fd5b80638577c1fa1161014e5780639389085111610128578063938908511461087057806395d89b41146108905780639c89a7b3146108a557600080fd5b80638577c1fa146107dd578063912fb690146107fd57806391d148541461081d57600080fd5b806375b238fc1161017f57806375b238fc146107765780637a3bc32f146107aa5780637ab06c12146107ca57600080fd5b80636352211e146107215780636c0360eb1461074157806370a082311461075657600080fd5b8063248a9ca311610269578063411c44421161021257806353b859df116101ec57806353b859df146106d257806354fd4d50146106e557806355f804b31461070157600080fd5b8063411c44421461067f57806342842e0e1461069f57806342966c68146106b257600080fd5b806336568abe1161024357806336568abe146106375780633693a358146106575780633ccfd60b1461067757600080fd5b8063248a9ca31461059b5780632a55205a146105cb5780632f2ff15d1461061757600080fd5b8063172cf75f116102cb578063207a2090116102a5578063207a20901461051f57806321f1b6771461056857806323b872dd1461058857600080fd5b8063172cf75f1461040657806318160ddd146104485780631a8f41931461048357600080fd5b806306fdde03116102fc57806306fdde031461038c578063081812fc146103ae578063095ea7b3146103f357600080fd5b8062728e46146103225780630167f3c51461034457806301ffc9a714610357575b600080fd5b34801561032e57600080fd5b5061034261033d366004614352565b610aa6565b005b61034261035236600461438d565b610beb565b34801561036357600080fd5b506103776103723660046143e7565b610dfa565b60405190151581526020015b60405180910390f35b34801561039857600080fd5b506103a1610ea2565b6040516103839190614472565b3480156103ba57600080fd5b506103ce6103c9366004614352565b610f34565b60405173ffffffffffffffffffffffffffffffffffffffff9091168152602001610383565b61034261040136600461438d565b610f95565b34801561041257600080fd5b5061043a7f9eb10b7eab35fabb5491c526a3cf39c3bb7ce2ee5d483e1558635d2c96c2085c81565b604051908152602001610383565b34801561045457600080fd5b50600154600054037fffffffffffffffffffffffffffffffffffffffffffffffffffffffffffffffff0161043a565b34801561048f57600080fd5b5060d15460d25460d35460d45460d55460d65460d75460d85460d95460da5460db5460dc546104c69b9a999897969594939291908c565b604080519c8d5260208d019b909b52998b019890985260608a0196909652608089019490945260a088019290925260c087015260e086015261010085015261012084015261014083015261016082015261018001610383565b34801561052b57600080fd5b5061043a61053a366004614568565b60e4602090815260009283526040909220815180830184018051928152908401929093019190912091525481565b34801561057457600080fd5b506103426105833660046145b8565b610fa1565b6103426105963660046145da565b6110e6565b3480156105a757600080fd5b5061043a6105b6366004614352565b6000908152606d602052604090206001015490565b3480156105d757600080fd5b506105eb6105e63660046145b8565b611325565b6040805173ffffffffffffffffffffffffffffffffffffffff9093168352602083019190915201610383565b34801561062357600080fd5b5061034261063236600461461b565b611386565b34801561064357600080fd5b5061034261065236600461461b565b6113b0565b34801561066357600080fd5b506103426106723660046146aa565b61145f565b6103426118fa565b34801561068b57600080fd5b5061034261069a36600461479c565b611b39565b6103426106ad3660046145da565b611bd0565b3480156106be57600080fd5b506103426106cd366004614352565b611beb565b6103426106e036600461438d565b611cb3565b3480156106f157600080fd5b5060405160028152602001610383565b34801561070d57600080fd5b5061034261071c3660046147ca565b611e92565b34801561072d57600080fd5b506103ce61073c366004614352565b611e9e565b34801561074d57600080fd5b506103a1611ea9565b34801561076257600080fd5b5061043a6107713660046147ff565b611eb8565b34801561078257600080fd5b5061043a7fa49807205ce4d355092ef5a8a18f56e8913cf4a201fbe287825b095693c2177581565b3480156107b657600080fd5b5061043a6107c536600461481c565b611f31565b6103426107d836600461438d565b611f7e565b3480156107e957600080fd5b506103426107f8366004614352565b61215e565b34801561080957600080fd5b50610342610818366004614352565b61229e565b34801561082957600080fd5b5061037761083836600461461b565b6000918252606d6020908152604080842073ffffffffffffffffffffffffffffffffffffffff93909316845291905290205460ff1690565b34801561087c57600080fd5b5061034261088b366004614352565b6123de565b34801561089c57600080fd5b506103a161251e565b3480156108b157600080fd5b506108ba61252d565b604051610383979695949392919061489f565b3480156108d957600080fd5b5061043a600081565b3480156108ee57600080fd5b506103426108fd366004614930565b6127ab565b61034261091036600461438d565b612842565b34801561092157600080fd5b5061043a7fcb7e89b7eed8294d41c0215e2f4fe023e2166afcfa3d1f479c394274afe5f01981565b610342610957366004614963565b612a4c565b34801561096857600080fd5b506103a1610977366004614352565b612ab3565b34801561098857600080fd5b50610342610997366004614352565b612b53565b3480156109a857600080fd5b506103426109b736600461461b565b612c93565b3480156109c857600080fd5b506103426109d73660046147ca565b612cb8565b3480156109e857600080fd5b506103776109f73660046149e3565b73ffffffffffffffffffffffffffffffffffffffff918216600090815260076020908152604080832093909416825291909152205460ff1690565b348015610a3e57600080fd5b50610342610a4d366004614352565b612cc4565b348015610a5e57600080fd5b50610342610a6d366004614a11565b612e04565b348015610a7e57600080fd5b5061043a7f97667070c54ef182b0f5858b034beac1b6f3089aa2d3188bb1e8929f4fa9b92981565b3360009081527f9deef4832b18b62adaf7ce030da5f06e20ee9867097fb4884ce69b9f78341c42602052604090205460ff1680610b1157503360009081527f1e6a3de0d48b74115044b871eacee36727a72e27f7906b5d35017cf5f4a3a042602052604090205460ff165b610b7c576040517f08c379a000000000000000000000000000000000000000000000000000000000815260206004820152601660248201527f4f6e6c792041646d696e206f72204f70657261746f720000000000000000000060448201526064015b60405180910390fd5b60008111610be6576040517f08c379a000000000000000000000000000000000000000000000000000000000815260206004820152601460248201527f496e76616c696420707269636520616d6f756e740000000000000000000000006044820152606401610b73565b60d355565b610bf36130a9565b7fcb7e89b7eed8294d41c0215e2f4fe023e2166afcfa3d1f479c394274afe5f019610c1d8161311c565b60da5442908111801590610c33575060d9548110155b610c99576040517f08c379a000000000000000000000000000000000000000000000000000000000815260206004820152601060248201527f4e6f74204f47206d696e742074696d65000000000000000000000000000000006044820152606401610b73565b60e154600154600054859190037fffffffffffffffffffffffffffffffffffffffffffffffffffffffffffffffff01610cd29190614a92565b1115610d3a576040517f08c379a000000000000000000000000000000000000000000000000000000000815260206004820152601260248201527f4f766572206d696e744d6178206572726f7200000000000000000000000000006044820152606401610b73565b610d87348560d1600001548660d1600401546040518060400160405280601081526020017f4f726967696e616c47616e677374657200000000000000000000000000000000815250613129565b60d1546040805134815273ffffffffffffffffffffffffffffffffffffffff87166020820152908101859052606081019190915233907f12868c3639cc6f45bf88ecdaf9a5a315a966c89339b502a13c32758761b814949060800160405180910390a25050610df66001609f55565b5050565b60007fffffffff0000000000000000000000000000000000000000000000000000000082167fc21b8f28000000000000000000000000000000000000000000000000000000001480610e8d57507fffffffff0000000000000000000000000000000000000000000000000000000082167f2a55205a00000000000000000000000000000000000000000000000000000000145b80610e9c5750610e9c8261328f565b92915050565b606060028054610eb190614aa5565b80601f0160208091040260200160405190810160405280929190818152602001828054610edd90614aa5565b8015610f2a5780601f10610eff57610100808354040283529160200191610f2a565b820191906000526020600020905b815481529060010190602001808311610f0d57829003601f168201915b5050505050905090565b6000610f3f82613326565b610f6c57610f6c7fcf4700e40000000000000000000000000000000000000000000000000000000061338d565b5060009081526006602052604090205473ffffffffffffffffffffffffffffffffffffffff1690565b610df682826001613397565b3360009081527f9deef4832b18b62adaf7ce030da5f06e20ee9867097fb4884ce69b9f78341c42602052604090205460ff168061100c57503360009081527f1e6a3de0d48b74115044b871eacee36727a72e27f7906b5d35017cf5f4a3a042602052604090205460ff165b611072576040517f08c379a000000000000000000000000000000000000000000000000000000000815260206004820152601660248201527f4f6e6c792041646d696e206f72204f70657261746f72000000000000000000006044820152606401610b73565b8181116110db576040517f08c379a000000000000000000000000000000000000000000000000000000000815260206004820152600f60248201527f456e64206e6f74203e20737461727400000000000000000000000000000000006044820152606401610b73565b60d79190915560d855565b60006110f182613485565b73ffffffffffffffffffffffffffffffffffffffff948516949091508116841461113e5761113e7fa11481000000000000000000000000000000000000000000000000000000000061338d565b600082815260066020526040902080546111778187335b73ffffffffffffffffffffffffffffffffffffffff9081169116811491141790565b6111b25761118586336109f7565b6111b2576111b27f59c896be0000000000000000000000000000000000000000000000000000000061338d565b80156111bd57600082555b73ffffffffffffffffffffffffffffffffffffffff86811660009081526005602052604080822080547fffffffffffffffffffffffffffffffffffffffffffffffffffffffffffffffff019055918716808252919020805460010190554260a01b177c0200000000000000000000000000000000000000000000000000000000176000858152600460205260408120919091557c0200000000000000000000000000000000000000000000000000000000841690036112ac576001840160008181526004602052604081205490036112aa5760005481146112aa5760008181526004602052604090208490555b505b73ffffffffffffffffffffffffffffffffffffffff85168481887fddf252ad1be2c89b69c2b068fc378daa952ba7f163c4a11628f55a4df523b3ef600080a48060000361131c5761131c7fea553b340000000000000000000000000000000000000000000000000000000061338d565b50505050505050565b60e254600090819073ffffffffffffffffffffffffffffffffffffffff6c010000000000000000000000008204169061271090611370906bffffffffffffffffffffffff1686614af8565b61137a9190614b0f565b915091505b9250929050565b6000828152606d60205260409020600101546113a18161311c565b6113ab83836135c1565b505050565b73ffffffffffffffffffffffffffffffffffffffff81163314611455576040517f08c379a000000000000000000000000000000000000000000000000000000000815260206004820152602f60248201527f416363657373436f6e74726f6c3a2063616e206f6e6c792072656e6f756e636560448201527f20726f6c657320666f722073656c6600000000000000000000000000000000006064820152608401610b73565b610df682826136b5565b600854610100900460ff161580801561147f5750600854600160ff909116105b806114995750303b158015611499575060085460ff166001145b611525576040517f08c379a000000000000000000000000000000000000000000000000000000000815260206004820152602e60248201527f496e697469616c697a61626c653a20636f6e747261637420697320616c72656160448201527f647920696e697469616c697a65640000000000000000000000000000000000006064820152608401610b73565b600880547fffffffffffffffffffffffffffffffffffffffffffffffffffffffffffffff00166001179055801561158357600880547fffffffffffffffffffffffffffffffffffffffffffffffffffffffffffff00ff166101001790555b367ffffffffffffffffffffffffffffffffffffffffffffffffffffffffffffffffe81013560f01c90033560601c3361163b6115bf8a80614b4a565b8080601f0160208091040260200160405190810160405280939291908181526020018383808284376000920191909152506116019250505060208c018c614b4a565b8080601f01602080910402602001604051908101604052809392919081815260200183838082843760009201919091525061377092505050565b611643613793565b61164b61382a565b6116757fa49807205ce4d355092ef5a8a18f56e8913cf4a201fbe287825b095693c21775806138c9565b6116bf7fcb7e89b7eed8294d41c0215e2f4fe023e2166afcfa3d1f479c394274afe5f0197fa49807205ce4d355092ef5a8a18f56e8913cf4a201fbe287825b095693c217756138c9565b6117097f9eb10b7eab35fabb5491c526a3cf39c3bb7ce2ee5d483e1558635d2c96c2085c7fa49807205ce4d355092ef5a8a18f56e8913cf4a201fbe287825b095693c217756138c9565b6117337fa49807205ce4d355092ef5a8a18f56e8913cf4a201fbe287825b095693c21775826135c1565b61175d7fa49807205ce4d355092ef5a8a18f56e8913cf4a201fbe287825b095693c21775836135c1565b61176987876000612e04565b61177585856001612e04565b61178e8261178960c08c0160a08d01614baf565b613914565b8860dd61179b8282614d46565b5050873560d155602088013560d255604088013560d355606088013560d455608088013560d55560a088013560d65560c088013560d75560e088013560d85561010088013560d95561012088013560da5561014088013560db5561016088013560dc557fffffffffffffffffffffffff0000000000000000000000000000000000000000740100000000000000000000000000000000000000006bffffffffffffffffffffffff8c16021673ffffffffffffffffffffffffffffffffffffffff82161760e35561188b7fa49807205ce4d355092ef5a8a18f56e8913cf4a201fbe287825b095693c2177582612c93565b505080156118f057600880547fffffffffffffffffffffffffffffffffffffffffffffffffffffffffffff00ff169055604051600181527f7f26b83ff96e1f2b6a682f133852f6798a09c465da95921460cefb38474024989060200160405180910390a15b5050505050505050565b6119026130a9565b7fa49807205ce4d355092ef5a8a18f56e8913cf4a201fbe287825b095693c2177561192c8161311c565b60e354479060009061271090611968907401000000000000000000000000000000000000000090046bffffffffffffffffffffffff1684614af8565b6119729190614b0f565b905060006119808284614f62565b60e35460405191925060009173ffffffffffffffffffffffffffffffffffffffff9091169084908381818185875af1925050503d80600081146119df576040519150601f19603f3d011682016040523d82523d6000602084013e6119e4565b606091505b5050905080611a22576040517f3f31d3ff00000000000000000000000000000000000000000000000000000000815260006004820152602401610b73565b604051600090339084908381818185875af1925050503d8060008114611a64576040519150601f19603f3d011682016040523d82523d6000602084013e611a69565b606091505b5050905080611aa7576040517f3f31d3ff00000000000000000000000000000000000000000000000000000000815260016004820152602401610b73565b60e3546040805185815273ffffffffffffffffffffffffffffffffffffffff83166020820152740100000000000000000000000000000000000000009092046bffffffffffffffffffffffff169082015233907f7e27a75faf6b8f74ec66364c1d23167ad5a538473e8bb4986ac2a26c30dbbbe69060600160405180910390a2505050505050611b376001609f55565b565b7fa49807205ce4d355092ef5a8a18f56e8913cf4a201fbe287825b095693c21775611b638161311c565b611b6d8383613914565b6040805173ffffffffffffffffffffffffffffffffffffffff851681526bffffffffffffffffffffffff8416602082015233917f0d68bfdb860b47ebf04e76cebf91e412a17ee7ccf960b3dd8720471b090b2ea8910160405180910390a2505050565b6113ab83838360405180602001604052806000815250612a4c565b33611bf582611e9e565b73ffffffffffffffffffffffffffffffffffffffff1614611c72576040517f08c379a000000000000000000000000000000000000000000000000000000000815260206004820152600960248201527f4e6f74204f776e657200000000000000000000000000000000000000000000006044820152606401610b73565b611c7b81613a68565b60405181815233907f512586160ebd4dc6945ba9ec5d21a1f723f26f3c7aa36cdffb6818d4e7b880309060200160405180910390a250565b611cbb6130a9565b3360009081527f9deef4832b18b62adaf7ce030da5f06e20ee9867097fb4884ce69b9f78341c42602052604090205460ff1680611d2657503360009081527f1e6a3de0d48b74115044b871eacee36727a72e27f7906b5d35017cf5f4a3a042602052604090205460ff165b611d8c576040517f08c379a000000000000000000000000000000000000000000000000000000000815260206004820152601660248201527f4f6e6c792041646d696e206f72204f70657261746f72000000000000000000006044820152606401610b73565b60e154600154600054839190037fffffffffffffffffffffffffffffffffffffffffffffffffffffffffffffffff01611dc59190614a92565b1115611e2d576040517f08c379a000000000000000000000000000000000000000000000000000000000815260206004820152601260248201527f4f766572206d696e744d6178206572726f7200000000000000000000000000006044820152606401610b73565b611e378282613a73565b6040805173ffffffffffffffffffffffffffffffffffffffff841681526020810183905233917f1a3e625d40ebf494638afa2b07e6a62f9fbfa2060469d5bfc998ce32d7c91b90910160405180910390a2610df66001609f55565b60df610df68282614f75565b6000610e9c82613485565b6060611eb3613a8d565b905090565b600073ffffffffffffffffffffffffffffffffffffffff8216611efe57611efe7f8f4eb6040000000000000000000000000000000000000000000000000000000061338d565b5073ffffffffffffffffffffffffffffffffffffffff1660009081526005602052604090205467ffffffffffffffff1690565b73ffffffffffffffffffffffffffffffffffffffff8116600090815260e460205260408082209051611f66908690869061508f565b90815260200160405180910390205490509392505050565b611f866130a9565b60d85442908111801590611f9c575060d7548110155b612002576040517f08c379a000000000000000000000000000000000000000000000000000000000815260206004820152601360248201527f4e6f7420526567756c6172206d696e54696d65000000000000000000000000006044820152606401610b73565b60e154600154600054849190037fffffffffffffffffffffffffffffffffffffffffffffffffffffffffffffffff0161203b9190614a92565b11156120a3576040517f08c379a000000000000000000000000000000000000000000000000000000000815260206004820152601260248201527f4f766572206d696e744d6178206572726f7200000000000000000000000000006044820152606401610b73565b6120f0348460d1600201548560d1600301546040518060400160405280600781526020017f526567756c617200000000000000000000000000000000000000000000000000815250613129565b60d3546040805134815273ffffffffffffffffffffffffffffffffffffffff86166020820152908101849052606081019190915233907f4b39a2b601e18792cafbb9db818cbd30b9cd45ad108161d616484ec3b3cc1def9060800160405180910390a250610df66001609f55565b3360009081527f9deef4832b18b62adaf7ce030da5f06e20ee9867097fb4884ce69b9f78341c42602052604090205460ff16806121c957503360009081527f1e6a3de0d48b74115044b871eacee36727a72e27f7906b5d35017cf5f4a3a042602052604090205460ff165b61222f576040517f08c379a000000000000000000000000000000000000000000000000000000000815260206004820152601660248201527f4f6e6c792041646d696e206f72204f70657261746f72000000000000000000006044820152606401610b73565b60008111612299576040517f08c379a000000000000000000000000000000000000000000000000000000000815260206004820152601460248201527f496e76616c696420707269636520616d6f756e740000000000000000000000006044820152606401610b73565b60d155565b3360009081527f9deef4832b18b62adaf7ce030da5f06e20ee9867097fb4884ce69b9f78341c42602052604090205460ff168061230957503360009081527f1e6a3de0d48b74115044b871eacee36727a72e27f7906b5d35017cf5f4a3a042602052604090205460ff165b61236f576040517f08c379a000000000000000000000000000000000000000000000000000000000815260206004820152601660248201527f4f6e6c792041646d696e206f72204f70657261746f72000000000000000000006044820152606401610b73565b600081116123d9576040517f08c379a000000000000000000000000000000000000000000000000000000000815260206004820152601260248201527f496e76616c6964206d617820616d6f756e7400000000000000000000000000006044820152606401610b73565b60d555565b3360009081527f9deef4832b18b62adaf7ce030da5f06e20ee9867097fb4884ce69b9f78341c42602052604090205460ff168061244957503360009081527f1e6a3de0d48b74115044b871eacee36727a72e27f7906b5d35017cf5f4a3a042602052604090205460ff165b6124af576040517f08c379a000000000000000000000000000000000000000000000000000000000815260206004820152601660248201527f4f6e6c792041646d696e206f72204f70657261746f72000000000000000000006044820152606401610b73565b60008111612519576040517f08c379a000000000000000000000000000000000000000000000000000000000815260206004820152601360248201527f496e76616c6964206d696e7420616d6f756e74000000000000000000000000006044820152606401610b73565b60d455565b606060038054610eb190614aa5565b60dd8054819061253c90614aa5565b80601f016020809104026020016040519081016040528092919081815260200182805461256890614aa5565b80156125b55780601f1061258a576101008083540402835291602001916125b5565b820191906000526020600020905b81548152906001019060200180831161259857829003601f168201915b5050505050908060010180546125ca90614aa5565b80601f01602080910402602001604051908101604052809291908181526020018280546125f690614aa5565b80156126435780601f1061261857610100808354040283529160200191612643565b820191906000526020600020905b81548152906001019060200180831161262657829003601f168201915b50505050509080600201805461265890614aa5565b80601f016020809104026020016040519081016040528092919081815260200182805461268490614aa5565b80156126d15780601f106126a6576101008083540402835291602001916126d1565b820191906000526020600020905b8154815290600101906020018083116126b457829003601f168201915b5050505050908060030180546126e690614aa5565b80601f016020809104026020016040519081016040528092919081815260200182805461271290614aa5565b801561275f5780601f106127345761010080835404028352916020019161275f565b820191906000526020600020905b81548152906001019060200180831161274257829003601f168201915b5050505060048301546005909301549192916bffffffffffffffffffffffff811691506c01000000000000000000000000900473ffffffffffffffffffffffffffffffffffffffff1687565b33600081815260076020908152604080832073ffffffffffffffffffffffffffffffffffffffff87168085529083529281902080547fffffffffffffffffffffffffffffffffffffffffffffffffffffffffffffff001686151590811790915590519081529192917f17307eab39ab6107e8899845ad3d59bd9653f200f220920489ca2b5937696c31910160405180910390a35050565b7f9eb10b7eab35fabb5491c526a3cf39c3bb7ce2ee5d483e1558635d2c96c2085c61286c8161311c565b6128746130a9565b60dc544290811180159061288a575060db548110155b6128f0576040517f08c379a000000000000000000000000000000000000000000000000000000000815260206004820152601060248201527f4e6f7420574c206d696e742074696d65000000000000000000000000000000006044820152606401610b73565b60e154600154600054859190037fffffffffffffffffffffffffffffffffffffffffffffffffffffffffffffffff016129299190614a92565b1115612991576040517f08c379a000000000000000000000000000000000000000000000000000000000815260206004820152601260248201527f4f766572206d696e744d6178206572726f7200000000000000000000000000006044820152606401610b73565b6129de348560d1600101548660d1600501546040518060400160405280600981526020017f57686974654c6973740000000000000000000000000000000000000000000000815250613129565b60d2546040805134815273ffffffffffffffffffffffffffffffffffffffff87166020820152908101859052606081019190915233907f2803fcf0a236d2815d9e6b3ef81ad6014f08139d44906d7d3cfc5302331e81e09060800160405180910390a2506113ab6001609f55565b612a578484846110e6565b73ffffffffffffffffffffffffffffffffffffffff83163b15612aad57612a8084848484613a9f565b612aad57612aad7fd1a57ed60000000000000000000000000000000000000000000000000000000061338d565b50505050565b6060612abe82613326565b612af4576040517f5a13bba900000000000000000000000000000000000000000000000000000000815260040160405180910390fd5b6000612afe611ea9565b90506000815111612b1e5760405180602001604052806000815250612b4c565b80612b2884613c10565b604051612b3c92919060e09060200161509f565b6040516020818303038152906040525b9392505050565b3360009081527f9deef4832b18b62adaf7ce030da5f06e20ee9867097fb4884ce69b9f78341c42602052604090205460ff1680612bbe57503360009081527f1e6a3de0d48b74115044b871eacee36727a72e27f7906b5d35017cf5f4a3a042602052604090205460ff165b612c24576040517f08c379a000000000000000000000000000000000000000000000000000000000815260206004820152601660248201527f4f6e6c792041646d696e206f72204f70657261746f72000000000000000000006044820152606401610b73565b60008111612c8e576040517f08c379a000000000000000000000000000000000000000000000000000000000815260206004820152601260248201527f496e76616c6964206d617820616d6f756e7400000000000000000000000000006044820152606401610b73565b60d655565b6000828152606d6020526040902060010154612cae8161311c565b6113ab83836136b5565b60e0610df68282614f75565b3360009081527f9deef4832b18b62adaf7ce030da5f06e20ee9867097fb4884ce69b9f78341c42602052604090205460ff1680612d2f57503360009081527f1e6a3de0d48b74115044b871eacee36727a72e27f7906b5d35017cf5f4a3a042602052604090205460ff165b612d95576040517f08c379a000000000000000000000000000000000000000000000000000000000815260206004820152601660248201527f4f6e6c792041646d696e206f72204f70657261746f72000000000000000000006044820152606401610b73565b60008111612dff576040517f08c379a000000000000000000000000000000000000000000000000000000000815260206004820152601460248201527f496e76616c696420707269636520616d6f756e740000000000000000000000006044820152606401610b73565b60d255565b3360009081527f9deef4832b18b62adaf7ce030da5f06e20ee9867097fb4884ce69b9f78341c42602052604090205460ff1680612e6f57503360009081527f1e6a3de0d48b74115044b871eacee36727a72e27f7906b5d35017cf5f4a3a042602052604090205460ff165b612ed5576040517f08c379a000000000000000000000000000000000000000000000000000000000815260206004820152601660248201527f4f6e6c792041646d696e206f72204f70657261746f72000000000000000000006044820152606401610b73565b60ff81161580612ee857508060ff166001145b612f4e576040517f08c379a000000000000000000000000000000000000000000000000000000000815260206004820152601460248201527f4572726f72206f6e6c79204f473d302c574c3d310000000000000000000000006044820152606401610b73565b818015612aad5760005b818110156130a2576000858583818110612f7457612f7461515d565b9050602002016020810190612f8991906147ff565b73ffffffffffffffffffffffffffffffffffffffff1603613006576040517f08c379a000000000000000000000000000000000000000000000000000000000815260206004820152600f60248201527f496e76616c6964204164647265737300000000000000000000000000000000006044820152606401610b73565b60ff8316156130645761305f7f9eb10b7eab35fabb5491c526a3cf39c3bb7ce2ee5d483e1558635d2c96c2085c8686848181106130455761304561515d565b905060200201602081019061305a91906147ff565b6135c1565b61309a565b61309a7fcb7e89b7eed8294d41c0215e2f4fe023e2166afcfa3d1f479c394274afe5f0198686848181106130455761304561515d565b600101612f58565b5050505050565b6002609f5403613115576040517f08c379a000000000000000000000000000000000000000000000000000000000815260206004820152601f60248201527f5265656e7472616e637947756172643a207265656e7472616e742063616c6c006044820152606401610b73565b6002609f55565b6131268133613c72565b50565b33600090815260e460205260409081902090518391859161314b90859061518c565b9081526020016040518091039020546131649190614a92565b11156131cc576040517f08c379a000000000000000000000000000000000000000000000000000000000815260206004820152600f60248201527f45786365656473206d61784d696e7400000000000000000000000000000000006044820152606401610b73565b6131d68484614af8565b86101561323f576040517f08c379a000000000000000000000000000000000000000000000000000000000815260206004820152601960248201527f496e73756666696369656e74206d696e74207061796d656e74000000000000006044820152606401610b73565b33600090815260e4602052604090819020905184919061326090849061518c565b908152604051908190036020019020805490910190556132808584613a73565b505050505050565b6001609f55565b60007fffffffff0000000000000000000000000000000000000000000000000000000082167f7965db0b000000000000000000000000000000000000000000000000000000001480610e9c57507f01ffc9a7000000000000000000000000000000000000000000000000000000007fffffffff00000000000000000000000000000000000000000000000000000000831614610e9c565b600081600111613388576000548210156133885760005b50600082815260046020526040812054908190036133655761335e836151a8565b925061333d565b7c0100000000000000000000000000000000000000000000000000000000161590505b919050565b8060005260046000fd5b60006133a283611e9e565b90508180156133c757503373ffffffffffffffffffffffffffffffffffffffff821614155b15613403576133d681336109f7565b613403576134037fcfb3b9420000000000000000000000000000000000000000000000000000000061338d565b60008381526006602052604080822080547fffffffffffffffffffffffff00000000000000000000000000000000000000001673ffffffffffffffffffffffffffffffffffffffff88811691821790925591518693918516917f8c5be1e5ebec7d5bd14f71427d1e84f3dd0314c0f7b2291e5b200ac8c7c3b92591a450505050565b60008160011161359857506000818152600460205260408120549081900361356c5760005482106134d9576134d97fdf2d9b420000000000000000000000000000000000000000000000000000000061338d565b5b507fffffffffffffffffffffffffffffffffffffffffffffffffffffffffffffffff0160008181526004602052604090205480156134da577c0100000000000000000000000000000000000000000000000000000000811660000361353e57919050565b6135677fdf2d9b420000000000000000000000000000000000000000000000000000000061338d565b6134da565b7c0100000000000000000000000000000000000000000000000000000000811660000361359857919050565b6133887fdf2d9b420000000000000000000000000000000000000000000000000000000061338d565b6000828152606d6020908152604080832073ffffffffffffffffffffffffffffffffffffffff8516845290915290205460ff16610df6576000828152606d6020908152604080832073ffffffffffffffffffffffffffffffffffffffff85168452909152902080547fffffffffffffffffffffffffffffffffffffffffffffffffffffffffffffff001660011790556136573390565b73ffffffffffffffffffffffffffffffffffffffff168173ffffffffffffffffffffffffffffffffffffffff16837f2f8788117e7eff1d82e926ec794901d17c78024a50270940304540a733656f0d60405160405180910390a45050565b6000828152606d6020908152604080832073ffffffffffffffffffffffffffffffffffffffff8516845290915290205460ff1615610df6576000828152606d6020908152604080832073ffffffffffffffffffffffffffffffffffffffff8516808552925280832080547fffffffffffffffffffffffffffffffffffffffffffffffffffffffffffffff0016905551339285917ff6391f5c32d9c69d2a47ea670b442974b53935d1edc7fd64eb21e047a839171b9190a45050565b600261377c8382614f75565b5060036137898282614f75565b5060016000555050565b600854610100900460ff16611b37576040517f08c379a000000000000000000000000000000000000000000000000000000000815260206004820152602b60248201527f496e697469616c697a61626c653a20636f6e7472616374206973206e6f74206960448201527f6e697469616c697a696e670000000000000000000000000000000000000000006064820152608401610b73565b600854610100900460ff166138c1576040517f08c379a000000000000000000000000000000000000000000000000000000000815260206004820152602b60248201527f496e697469616c697a61626c653a20636f6e7472616374206973206e6f74206960448201527f6e697469616c697a696e670000000000000000000000000000000000000000006064820152608401610b73565b611b37613d2c565b6000828152606d6020526040808220600101805490849055905190918391839186917fbd79b86ffe0ab8e8776151514217cd7cacd52c909f66475c3af44e129f0b00ff9190a4505050565b6127106bffffffffffffffffffffffff8216111561398e576040517f08c379a000000000000000000000000000000000000000000000000000000000815260206004820152601d60248201527f455243323938313a20666565206578636565642073616c6550726963650000006044820152606401610b73565b73ffffffffffffffffffffffffffffffffffffffff8216613a0b576040517f08c379a000000000000000000000000000000000000000000000000000000000815260206004820152601960248201527f455243323938313a20696e76616c6964207265636569766572000000000000006044820152606401610b73565b6bffffffffffffffffffffffff1673ffffffffffffffffffffffffffffffffffffffff9091166c01000000000000000000000000027fffffffffffffffffffffffffffffffffffffffff000000000000000000000000161760e255565b613126816000613dc3565b610df6828260405180602001604052806000815250613f69565b606060dd6002018054610eb190614aa5565b6040517f150b7a0200000000000000000000000000000000000000000000000000000000815260009073ffffffffffffffffffffffffffffffffffffffff85169063150b7a0290613afa9033908990889088906004016151dd565b6020604051808303816000875af1925050508015613b53575060408051601f3d9081017fffffffffffffffffffffffffffffffffffffffffffffffffffffffffffffffe0168201909252613b5091810190615226565b60015b613bc1573d808015613b81576040519150601f19603f3d011682016040523d82523d6000602084013e613b86565b606091505b508051600003613bb957613bb97fd1a57ed60000000000000000000000000000000000000000000000000000000061338d565b805181602001fd5b7fffffffff00000000000000000000000000000000000000000000000000000000167f150b7a02000000000000000000000000000000000000000000000000000000001490505b949350505050565b606060a06040510180604052602081039150506000815280825b600183039250600a81066030018353600a900480613c2a57508190037fffffffffffffffffffffffffffffffffffffffffffffffffffffffffffffffe0909101908152919050565b6000828152606d6020908152604080832073ffffffffffffffffffffffffffffffffffffffff8516845290915290205460ff16610df657613cb281613ff1565b613cbd836020614010565b604051602001613cce929190615243565b604080517fffffffffffffffffffffffffffffffffffffffffffffffffffffffffffffffe0818403018152908290527f08c379a0000000000000000000000000000000000000000000000000000000008252610b7391600401614472565b600854610100900460ff16613288576040517f08c379a000000000000000000000000000000000000000000000000000000000815260206004820152602b60248201527f496e697469616c697a61626c653a20636f6e7472616374206973206e6f74206960448201527f6e697469616c697a696e670000000000000000000000000000000000000000006064820152608401610b73565b6000613dce83613485565b905080600080613dec86600090815260066020526040902080549091565b915091508415613e3c57613e01818433611155565b613e3c57613e0f83336109f7565b613e3c57613e3c7f59c896be0000000000000000000000000000000000000000000000000000000061338d565b8015613e4757600082555b73ffffffffffffffffffffffffffffffffffffffff8316600081815260056020526040902080546fffffffffffffffffffffffffffffffff0190554260a01b177c0300000000000000000000000000000000000000000000000000000000176000878152600460205260408120919091557c020000000000000000000000000000000000000000000000000000000085169003613f1457600186016000818152600460205260408120549003613f12576000548114613f125760008181526004602052604090208590555b505b604051869060009073ffffffffffffffffffffffffffffffffffffffff8616907fddf252ad1be2c89b69c2b068fc378daa952ba7f163c4a11628f55a4df523b3ef908390a45050600180548101905550505050565b613f738383614253565b73ffffffffffffffffffffffffffffffffffffffff83163b156113ab576000548281035b613faa6000868380600101945086613a9f565b613fd757613fd77fd1a57ed60000000000000000000000000000000000000000000000000000000061338d565b818110613f975781600054146130a2576130a2600061338d565b6060610e9c73ffffffffffffffffffffffffffffffffffffffff831660145b6060600061401f836002614af8565b61402a906002614a92565b67ffffffffffffffff81111561404257614042614485565b6040519080825280601f01601f19166020018201604052801561406c576020820181803683370190505b5090507f3000000000000000000000000000000000000000000000000000000000000000816000815181106140a3576140a361515d565b60200101907effffffffffffffffffffffffffffffffffffffffffffffffffffffffffffff1916908160001a9053507f7800000000000000000000000000000000000000000000000000000000000000816001815181106141065761410661515d565b60200101907effffffffffffffffffffffffffffffffffffffffffffffffffffffffffffff1916908160001a9053506000614142846002614af8565b61414d906001614a92565b90505b60018111156141ea577f303132333435363738396162636465660000000000000000000000000000000085600f166010811061418e5761418e61515d565b1a60f81b8282815181106141a4576141a461515d565b60200101907effffffffffffffffffffffffffffffffffffffffffffffffffffffffffffff1916908160001a90535060049490941c936141e3816151a8565b9050614150565b508315612b4c576040517f08c379a000000000000000000000000000000000000000000000000000000000815260206004820181905260248201527f537472696e67733a20686578206c656e67746820696e73756666696369656e746044820152606401610b73565b6000805490829003614288576142887fb562e8dd0000000000000000000000000000000000000000000000000000000061338d565b600081815260046020908152604080832073ffffffffffffffffffffffffffffffffffffffff87164260a01b6001881460e11b1781179091558084526005909252822080546801000000000000000186020190559081900361430d5761430d7f2e0763000000000000000000000000000000000000000000000000000000000061338d565b818301825b808360007fddf252ad1be2c89b69c2b068fc378daa952ba7f163c4a11628f55a4df523b3ef600080a4818160010191508103614312575060005550505050565b60006020828403121561436457600080fd5b5035919050565b73ffffffffffffffffffffffffffffffffffffffff8116811461312657600080fd5b600080604083850312156143a057600080fd5b82356143ab8161436b565b946020939093013593505050565b7fffffffff000000000000000000000000000000000000000000000000000000008116811461312657600080fd5b6000602082840312156143f957600080fd5b8135612b4c816143b9565b60005b8381101561441f578181015183820152602001614407565b50506000910152565b60008151808452614440816020860160208601614404565b601f017fffffffffffffffffffffffffffffffffffffffffffffffffffffffffffffffe0169290920160200192915050565b602081526000612b4c6020830184614428565b7f4e487b7100000000000000000000000000000000000000000000000000000000600052604160045260246000fd5b600067ffffffffffffffff808411156144cf576144cf614485565b604051601f85017fffffffffffffffffffffffffffffffffffffffffffffffffffffffffffffffe0908116603f0116810190828211818310171561451557614515614485565b8160405280935085815286868601111561452e57600080fd5b858560208301376000602087830101525050509392505050565b600082601f83011261455957600080fd5b612b4c838335602085016144b4565b6000806040838503121561457b57600080fd5b82356145868161436b565b9150602083013567ffffffffffffffff8111156145a257600080fd5b6145ae85828601614548565b9150509250929050565b600080604083850312156145cb57600080fd5b50508035926020909101359150565b6000806000606084860312156145ef57600080fd5b83356145fa8161436b565b9250602084013561460a8161436b565b929592945050506040919091013590565b6000806040838503121561462e57600080fd5b8235915060208301356146408161436b565b809150509250929050565b6bffffffffffffffffffffffff8116811461312657600080fd5b60008083601f84011261467757600080fd5b50813567ffffffffffffffff81111561468f57600080fd5b6020830191508360208260051b850101111561137f57600080fd5b60008060008060008060008789036102008112156146c757600080fd5b88356146d28161464b565b9750602089013567ffffffffffffffff808211156146ef57600080fd5b908a019060e0828d03121561470357600080fd5b8198506101807fffffffffffffffffffffffffffffffffffffffffffffffffffffffffffffffc08401121561473757600080fd5b60408b0197506101c08b013592508083111561475257600080fd5b61475e8c848d01614665565b90975095506101e08b013592508691508083111561477b57600080fd5b50506147898a828b01614665565b989b979a50959850939692959293505050565b600080604083850312156147af57600080fd5b82356147ba8161436b565b915060208301356146408161464b565b6000602082840312156147dc57600080fd5b813567ffffffffffffffff8111156147f357600080fd5b613c0884828501614548565b60006020828403121561481157600080fd5b8135612b4c8161436b565b60008060006040848603121561483157600080fd5b833567ffffffffffffffff8082111561484957600080fd5b818601915086601f83011261485d57600080fd5b81358181111561486c57600080fd5b87602082850101111561487e57600080fd5b602092830195509350508401356148948161436b565b809150509250925092565b60e0815260006148b260e083018a614428565b82810360208401526148c4818a614428565b905082810360408401526148d88189614428565b905082810360608401526148ec8188614428565b608084019690965250506bffffffffffffffffffffffff9290921660a083015273ffffffffffffffffffffffffffffffffffffffff1660c090910152949350505050565b6000806040838503121561494357600080fd5b823561494e8161436b565b91506020830135801515811461464057600080fd5b6000806000806080858703121561497957600080fd5b84356149848161436b565b935060208501356149948161436b565b925060408501359150606085013567ffffffffffffffff8111156149b757600080fd5b8501601f810187136149c857600080fd5b6149d7878235602084016144b4565b91505092959194509250565b600080604083850312156149f657600080fd5b8235614a018161436b565b915060208301356146408161436b565b600080600060408486031215614a2657600080fd5b833567ffffffffffffffff811115614a3d57600080fd5b614a4986828701614665565b909450925050602084013560ff8116811461489457600080fd5b7f4e487b7100000000000000000000000000000000000000000000000000000000600052601160045260246000fd5b80820180821115610e9c57610e9c614a63565b600181811c90821680614ab957607f821691505b602082108103614af2577f4e487b7100000000000000000000000000000000000000000000000000000000600052602260045260246000fd5b50919050565b8082028115828204841417610e9c57610e9c614a63565b600082614b45577f4e487b7100000000000000000000000000000000000000000000000000000000600052601260045260246000fd5b500490565b60008083357fffffffffffffffffffffffffffffffffffffffffffffffffffffffffffffffe1843603018112614b7f57600080fd5b83018035915067ffffffffffffffff821115614b9a57600080fd5b60200191503681900382131561137f57600080fd5b600060208284031215614bc157600080fd5b8135612b4c8161464b565b601f8211156113ab57600081815260208120601f850160051c81016020861015614bf35750805b601f850160051c820191505b8181101561328057828155600101614bff565b67ffffffffffffffff831115614c2a57614c2a614485565b614c3e83614c388354614aa5565b83614bcc565b6000601f841160018114614c905760008515614c5a5750838201355b7fffffffffffffffffffffffffffffffffffffffffffffffffffffffffffffffff600387901b1c1916600186901b1783556130a2565b6000838152602090207fffffffffffffffffffffffffffffffffffffffffffffffffffffffffffffffe0861690835b82811015614cdf5786850135825560209485019460019092019101614cbf565b5086821015614d1a577fffffffffffffffffffffffffffffffffffffffffffffffffffffffffffffffff60f88860031b161c19848701351681555b505060018560011b0183555050505050565b60008135610e9c8161464b565b60008135610e9c8161436b565b614d508283614b4a565b67ffffffffffffffff811115614d6857614d68614485565b614d7c81614d768554614aa5565b85614bcc565b6000601f821160018114614dce5760008315614d985750838201355b7fffffffffffffffffffffffffffffffffffffffffffffffffffffffffffffffff600385901b1c1916600184901b178555614e64565b6000858152602090207fffffffffffffffffffffffffffffffffffffffffffffffffffffffffffffffe0841690835b82811015614e1d5786850135825560209485019460019092019101614dfd565b5084821015614e58577fffffffffffffffffffffffffffffffffffffffffffffffffffffffffffffffff60f88660031b161c19848701351681555b505060018360011b0185555b50505050614e756020830183614b4a565b614e83818360018601614c12565b5050614e926040830183614b4a565b614ea0818360028601614c12565b5050614eaf6060830183614b4a565b614ebd818360038601614c12565b50506080820135600482015560058101614f16614edc60a08501614d2c565b82547fffffffffffffffffffffffffffffffffffffffff000000000000000000000000166bffffffffffffffffffffffff91909116178255565b6113ab614f2560c08501614d39565b82546bffffffffffffffffffffffff1660609190911b7fffffffffffffffffffffffffffffffffffffffff00000000000000000000000016178255565b81810381811115610e9c57610e9c614a63565b815167ffffffffffffffff811115614f8f57614f8f614485565b614fa381614f9d8454614aa5565b84614bcc565b602080601f831160018114614ff65760008415614fc05750858301515b7fffffffffffffffffffffffffffffffffffffffffffffffffffffffffffffffff600386901b1c1916600185901b178555613280565b6000858152602081207fffffffffffffffffffffffffffffffffffffffffffffffffffffffffffffffe08616915b8281101561504357888601518255948401946001909101908401615024565b508582101561507f57878501517fffffffffffffffffffffffffffffffffffffffffffffffffffffffffffffffff600388901b60f8161c191681555b5050505050600190811b01905550565b8183823760009101908152919050565b6000845160206150b28285838a01614404565b8551918401916150c58184848a01614404565b85549201916000906150d681614aa5565b600182811680156150ee57600181146151215761514d565b7fffffffffffffffffffffffffffffffffffffffffffffffffffffffffffffff008416875282151583028701945061514d565b896000528560002060005b848110156151455781548982015290830190870161512c565b505082870194505b50929a9950505050505050505050565b7f4e487b7100000000000000000000000000000000000000000000000000000000600052603260045260246000fd5b6000825161519e818460208701614404565b9190910192915050565b6000816151b7576151b7614a63565b507fffffffffffffffffffffffffffffffffffffffffffffffffffffffffffffffff0190565b600073ffffffffffffffffffffffffffffffffffffffff80871683528086166020840152508360408301526080606083015261521c6080830184614428565b9695505050505050565b60006020828403121561523857600080fd5b8151612b4c816143b9565b7f416363657373436f6e74726f6c3a206163636f756e742000000000000000000081526000835161527b816017850160208801614404565b7f206973206d697373696e6720726f6c652000000000000000000000000000000060179184019182015283516152b8816028840160208801614404565b0160280194935050505056fea26469706673582212203e7020311b56977c1c81bab084e3bf7e362ea30b52f9c86c9ca4c5f428121cd164736f6c63430008140033",
  "linkReferences": {},
  "deployedLinkReferences": {}
}