{
  "_format": "hh-sol-artifact-1",
  "contractName": "MvxCollection",
  "sourceName": "src/MvxCollection.sol",
  "abi": [
    {
      "inputs": [],
      "name": "ApprovalCallerNotOwnerNorApproved",
      "type": "error"
    },
    {
      "inputs": [],
      "name": "ApprovalQueryForNonexistentToken",
      "type": "error"
    },
    {
      "inputs": [],
      "name": "BalanceQueryForZeroAddress",
      "type": "error"
    },
    {
      "inputs": [],
      "name": "MintERC2309QuantityExceedsLimit",
      "type": "error"
    },
    {
      "inputs": [],
      "name": "MintToZeroAddress",
      "type": "error"
    },
    {
      "inputs": [],
      "name": "MintZeroQuantity",
      "type": "error"
    },
    {
      "inputs": [],
      "name": "OwnerQueryForNonexistentToken",
      "type": "error"
    },
    {
      "inputs": [],
      "name": "OwnershipNotInitializedForExtraData",
      "type": "error"
    },
    {
      "inputs": [],
      "name": "TransferCallerNotOwnerNorApproved",
      "type": "error"
    },
    {
      "inputs": [],
      "name": "TransferFromIncorrectOwner",
      "type": "error"
    },
    {
      "inputs": [],
      "name": "TransferToNonERC721ReceiverImplementer",
      "type": "error"
    },
    {
      "inputs": [],
      "name": "TransferToZeroAddress",
      "type": "error"
    },
    {
      "inputs": [],
      "name": "URIQueryForNonexistentToken",
      "type": "error"
    },
    {
      "anonymous": false,
      "inputs": [
        {
          "indexed": true,
          "internalType": "address",
          "name": "owner",
          "type": "address"
        },
        {
          "indexed": true,
          "internalType": "address",
          "name": "approved",
          "type": "address"
        },
        {
          "indexed": true,
          "internalType": "uint256",
          "name": "tokenId",
          "type": "uint256"
        }
      ],
      "name": "Approval",
      "type": "event"
    },
    {
      "anonymous": false,
      "inputs": [
        {
          "indexed": true,
          "internalType": "address",
          "name": "owner",
          "type": "address"
        },
        {
          "indexed": true,
          "internalType": "address",
          "name": "operator",
          "type": "address"
        },
        {
          "indexed": false,
          "internalType": "bool",
          "name": "approved",
          "type": "bool"
        }
      ],
      "name": "ApprovalForAll",
      "type": "event"
    },
    {
      "anonymous": false,
      "inputs": [
        {
          "indexed": true,
          "internalType": "address",
          "name": "sender",
          "type": "address"
        },
        {
          "indexed": false,
          "internalType": "uint256",
          "name": "tokenId",
          "type": "uint256"
        }
      ],
      "name": "BurnEvent",
      "type": "event"
    },
    {
      "anonymous": false,
      "inputs": [
        {
          "indexed": true,
          "internalType": "uint256",
          "name": "fromTokenId",
          "type": "uint256"
        },
        {
          "indexed": false,
          "internalType": "uint256",
          "name": "toTokenId",
          "type": "uint256"
        },
        {
          "indexed": true,
          "internalType": "address",
          "name": "from",
          "type": "address"
        },
        {
          "indexed": true,
          "internalType": "address",
          "name": "to",
          "type": "address"
        }
      ],
      "name": "ConsecutiveTransfer",
      "type": "event"
    },
    {
      "anonymous": false,
      "inputs": [
        {
          "indexed": false,
          "internalType": "uint8",
          "name": "version",
          "type": "uint8"
        }
      ],
      "name": "Initialized",
      "type": "event"
    },
    {
      "anonymous": false,
      "inputs": [
        {
          "indexed": true,
          "internalType": "address",
          "name": "sender",
          "type": "address"
        },
        {
          "indexed": false,
          "internalType": "uint256",
          "name": "value",
          "type": "uint256"
        },
        {
          "indexed": false,
          "internalType": "address",
          "name": "to",
          "type": "address"
        },
        {
          "indexed": false,
          "internalType": "uint256",
          "name": "amount",
          "type": "uint256"
        },
        {
          "indexed": false,
          "internalType": "uint256",
          "name": "mintPrice",
          "type": "uint256"
        }
      ],
      "name": "MintEvent",
      "type": "event"
    },
    {
      "anonymous": false,
      "inputs": [
        {
          "indexed": true,
          "internalType": "address",
          "name": "sender",
          "type": "address"
        },
        {
          "indexed": false,
          "internalType": "uint256",
          "name": "value",
          "type": "uint256"
        },
        {
          "indexed": false,
          "internalType": "address",
          "name": "to",
          "type": "address"
        },
        {
          "indexed": false,
          "internalType": "uint256",
          "name": "amount",
          "type": "uint256"
        },
        {
          "indexed": false,
          "internalType": "uint256",
          "name": "_ogMintPrice",
          "type": "uint256"
        }
      ],
      "name": "OGmintEvent",
      "type": "event"
    },
    {
      "anonymous": false,
      "inputs": [
        {
          "indexed": true,
          "internalType": "address",
          "name": "sender",
          "type": "address"
        },
        {
          "indexed": false,
          "internalType": "address",
          "name": "to",
          "type": "address"
        },
        {
          "indexed": false,
          "internalType": "uint256",
          "name": "amount",
          "type": "uint256"
        }
      ],
      "name": "OwnerMintEvent",
      "type": "event"
    },
    {
      "anonymous": false,
      "inputs": [
        {
          "indexed": true,
          "internalType": "bytes32",
          "name": "role",
          "type": "bytes32"
        },
        {
          "indexed": true,
          "internalType": "bytes32",
          "name": "previousAdminRole",
          "type": "bytes32"
        },
        {
          "indexed": true,
          "internalType": "bytes32",
          "name": "newAdminRole",
          "type": "bytes32"
        }
      ],
      "name": "RoleAdminChanged",
      "type": "event"
    },
    {
      "anonymous": false,
      "inputs": [
        {
          "indexed": true,
          "internalType": "bytes32",
          "name": "role",
          "type": "bytes32"
        },
        {
          "indexed": true,
          "internalType": "address",
          "name": "account",
          "type": "address"
        },
        {
          "indexed": true,
          "internalType": "address",
          "name": "sender",
          "type": "address"
        }
      ],
      "name": "RoleGranted",
      "type": "event"
    },
    {
      "anonymous": false,
      "inputs": [
        {
          "indexed": true,
          "internalType": "bytes32",
          "name": "role",
          "type": "bytes32"
        },
        {
          "indexed": true,
          "internalType": "address",
          "name": "account",
          "type": "address"
        },
        {
          "indexed": true,
          "internalType": "address",
          "name": "sender",
          "type": "address"
        }
      ],
      "name": "RoleRevoked",
      "type": "event"
    },
    {
      "anonymous": false,
      "inputs": [
        {
          "indexed": true,
          "internalType": "address",
          "name": "sender",
          "type": "address"
        },
        {
          "indexed": false,
          "internalType": "address",
          "name": "receiver",
          "type": "address"
        },
        {
          "indexed": false,
          "internalType": "uint96",
          "name": "royaltyFee",
          "type": "uint96"
        }
      ],
      "name": "RoyaltyFeeUpdate",
      "type": "event"
    },
    {
      "anonymous": false,
      "inputs": [
        {
          "indexed": true,
          "internalType": "address",
          "name": "from",
          "type": "address"
        },
        {
          "indexed": true,
          "internalType": "address",
          "name": "to",
          "type": "address"
        },
        {
          "indexed": true,
          "internalType": "uint256",
          "name": "tokenId",
          "type": "uint256"
        }
      ],
      "name": "Transfer",
      "type": "event"
    },
    {
      "anonymous": false,
      "inputs": [
        {
          "indexed": true,
          "internalType": "address",
          "name": "sender",
          "type": "address"
        },
        {
          "indexed": false,
          "internalType": "uint256",
          "name": "listLength",
          "type": "uint256"
        }
      ],
      "name": "UpdateOgEvent",
      "type": "event"
    },
    {
      "anonymous": false,
      "inputs": [
        {
          "indexed": true,
          "internalType": "address",
          "name": "sender",
          "type": "address"
        },
        {
          "indexed": false,
          "internalType": "uint256",
          "name": "listLength",
          "type": "uint256"
        }
      ],
      "name": "UpdateWLevent",
      "type": "event"
    },
    {
      "anonymous": false,
      "inputs": [
        {
          "indexed": true,
          "internalType": "address",
          "name": "sender",
          "type": "address"
        },
        {
          "indexed": false,
          "internalType": "uint256",
          "name": "value",
          "type": "uint256"
        },
        {
          "indexed": false,
          "internalType": "address",
          "name": "to",
          "type": "address"
        },
        {
          "indexed": false,
          "internalType": "uint256",
          "name": "amount",
          "type": "uint256"
        },
        {
          "indexed": false,
          "internalType": "uint256",
          "name": "wlMintPrice",
          "type": "uint256"
        }
      ],
      "name": "WLmintEvent",
      "type": "event"
    },
    {
      "anonymous": false,
      "inputs": [
        {
          "indexed": true,
          "internalType": "address",
          "name": "",
          "type": "address"
        },
        {
          "indexed": false,
          "internalType": "uint256",
          "name": "",
          "type": "uint256"
        },
        {
          "indexed": false,
          "internalType": "address",
          "name": "",
          "type": "address"
        },
        {
          "indexed": false,
          "internalType": "uint256",
          "name": "",
          "type": "uint256"
        }
      ],
      "name": "WithdrawEvent",
      "type": "event"
    },
    {
      "inputs": [],
      "name": "ADMIN_ROLE",
      "outputs": [
        {
          "internalType": "bytes32",
          "name": "",
          "type": "bytes32"
        }
      ],
      "stateMutability": "view",
      "type": "function"
    },
    {
      "inputs": [],
      "name": "DEFAULT_ADMIN_ROLE",
      "outputs": [
        {
          "internalType": "bytes32",
          "name": "",
          "type": "bytes32"
        }
      ],
      "stateMutability": "view",
      "type": "function"
    },
    {
      "inputs": [],
      "name": "OG_MINTER_ROLE",
      "outputs": [
        {
          "internalType": "bytes32",
          "name": "",
          "type": "bytes32"
        }
      ],
      "stateMutability": "view",
      "type": "function"
    },
    {
      "inputs": [],
      "name": "OPERATOR_ROLE",
      "outputs": [
        {
          "internalType": "bytes32",
          "name": "",
          "type": "bytes32"
        }
      ],
      "stateMutability": "view",
      "type": "function"
    },
    {
      "inputs": [],
      "name": "WL_MINTER_ROLE",
      "outputs": [
        {
          "internalType": "bytes32",
          "name": "",
          "type": "bytes32"
        }
      ],
      "stateMutability": "view",
      "type": "function"
    },
    {
      "inputs": [
        {
          "internalType": "address",
          "name": "to",
          "type": "address"
        },
        {
          "internalType": "uint256",
          "name": "tokenId",
          "type": "uint256"
        }
      ],
      "name": "approve",
      "outputs": [],
      "stateMutability": "payable",
      "type": "function"
    },
    {
      "inputs": [
        {
          "internalType": "address",
          "name": "owner",
          "type": "address"
        }
      ],
      "name": "balanceOf",
      "outputs": [
        {
          "internalType": "uint256",
          "name": "",
          "type": "uint256"
        }
      ],
      "stateMutability": "view",
      "type": "function"
    },
    {
      "inputs": [],
      "name": "baseURI",
      "outputs": [
        {
          "internalType": "string",
          "name": "",
          "type": "string"
        }
      ],
      "stateMutability": "view",
      "type": "function"
    },
    {
      "inputs": [
        {
          "internalType": "uint256",
          "name": "_tokenId",
          "type": "uint256"
        }
      ],
      "name": "burn",
      "outputs": [],
      "stateMutability": "nonpayable",
      "type": "function"
    },
    {
      "inputs": [],
      "name": "collectionData",
      "outputs": [
        {
          "internalType": "string",
          "name": "name",
          "type": "string"
        },
        {
          "internalType": "string",
          "name": "symbol",
          "type": "string"
        },
        {
          "internalType": "string",
          "name": "baseURI",
          "type": "string"
        },
        {
          "internalType": "string",
          "name": "baseExt",
          "type": "string"
        },
        {
          "internalType": "uint256",
          "name": "maxSupply",
          "type": "uint256"
        },
        {
          "internalType": "uint96",
          "name": "royaltyFee",
          "type": "uint96"
        },
        {
          "internalType": "address",
          "name": "royaltyReceiver",
          "type": "address"
        }
      ],
      "stateMutability": "view",
      "type": "function"
    },
    {
      "inputs": [
        {
          "internalType": "uint256",
          "name": "tokenId",
          "type": "uint256"
        }
      ],
      "name": "getApproved",
      "outputs": [
        {
          "internalType": "address",
          "name": "",
          "type": "address"
        }
      ],
      "stateMutability": "view",
      "type": "function"
    },
    {
      "inputs": [
        {
          "internalType": "address",
          "name": "_user",
          "type": "address"
        }
      ],
      "name": "getMintCountOf",
      "outputs": [
        {
          "internalType": "uint256",
          "name": "",
          "type": "uint256"
        }
      ],
      "stateMutability": "view",
      "type": "function"
    },
    {
      "inputs": [
        {
          "internalType": "bytes32",
          "name": "role",
          "type": "bytes32"
        }
      ],
      "name": "getRoleAdmin",
      "outputs": [
        {
          "internalType": "bytes32",
          "name": "",
          "type": "bytes32"
        }
      ],
      "stateMutability": "view",
      "type": "function"
    },
    {
      "inputs": [
        {
          "internalType": "bytes32",
          "name": "role",
          "type": "bytes32"
        },
        {
          "internalType": "address",
          "name": "account",
          "type": "address"
        }
      ],
      "name": "grantRole",
      "outputs": [],
      "stateMutability": "nonpayable",
      "type": "function"
    },
    {
      "inputs": [
        {
          "internalType": "bytes32",
          "name": "role",
          "type": "bytes32"
        },
        {
          "internalType": "address",
          "name": "account",
          "type": "address"
        }
      ],
      "name": "hasRole",
      "outputs": [
        {
          "internalType": "bool",
          "name": "",
          "type": "bool"
        }
      ],
      "stateMutability": "view",
      "type": "function"
    },
    {
      "inputs": [
        {
          "internalType": "uint96",
          "name": "platformFee",
          "type": "uint96"
        },
        {
          "components": [
            {
              "internalType": "string",
              "name": "name",
              "type": "string"
            },
            {
              "internalType": "string",
              "name": "symbol",
              "type": "string"
            },
            {
              "internalType": "string",
              "name": "baseURI",
              "type": "string"
            },
            {
              "internalType": "string",
              "name": "baseExt",
              "type": "string"
            },
            {
              "internalType": "uint256",
              "name": "maxSupply",
              "type": "uint256"
            },
            {
              "internalType": "uint96",
              "name": "royaltyFee",
              "type": "uint96"
            },
            {
              "internalType": "address",
              "name": "royaltyReceiver",
              "type": "address"
            }
          ],
          "internalType": "struct Collection",
          "name": "_nftData",
          "type": "tuple"
        },
        {
          "components": [
            {
              "internalType": "uint256",
              "name": "ogMintPrice",
              "type": "uint256"
            },
            {
              "internalType": "uint256",
              "name": "whitelistMintPrice",
              "type": "uint256"
            },
            {
              "internalType": "uint256",
              "name": "mintPrice",
              "type": "uint256"
            },
            {
              "internalType": "uint256",
              "name": "mintMaxPerUser",
              "type": "uint256"
            },
            {
              "internalType": "uint256",
              "name": "ogMintMaxPerUser",
              "type": "uint256"
            },
            {
              "internalType": "uint256",
              "name": "whitelistMintMaxPerUser",
              "type": "uint256"
            },
            {
              "internalType": "uint256",
              "name": "mintStart",
              "type": "uint256"
            },
            {
              "internalType": "uint256",
              "name": "mintEnd",
              "type": "uint256"
            },
            {
              "internalType": "uint256",
              "name": "ogMintStart",
              "type": "uint256"
            },
            {
              "internalType": "uint256",
              "name": "ogMintEnd",
              "type": "uint256"
            },
            {
              "internalType": "uint256",
              "name": "whitelistMintStart",
              "type": "uint256"
            },
            {
              "internalType": "uint256",
              "name": "whitelistMintEnd",
              "type": "uint256"
            }
          ],
          "internalType": "struct Stages",
          "name": "_mintingStages",
          "type": "tuple"
        },
        {
          "internalType": "address[]",
          "name": "_ogs",
          "type": "address[]"
        },
        {
          "internalType": "address[]",
          "name": "_wls",
          "type": "address[]"
        }
      ],
      "name": "initialize",
      "outputs": [],
      "stateMutability": "nonpayable",
      "type": "function"
    },
    {
      "inputs": [
        {
          "internalType": "address",
          "name": "owner",
          "type": "address"
        },
        {
          "internalType": "address",
          "name": "operator",
          "type": "address"
        }
      ],
      "name": "isApprovedForAll",
      "outputs": [
        {
          "internalType": "bool",
          "name": "",
          "type": "bool"
        }
      ],
      "stateMutability": "view",
      "type": "function"
    },
    {
      "inputs": [
        {
          "internalType": "address",
          "name": "_to",
          "type": "address"
        },
        {
          "internalType": "uint256",
          "name": "_amount",
          "type": "uint256"
        }
      ],
      "name": "mintForOG",
      "outputs": [],
      "stateMutability": "payable",
      "type": "function"
    },
    {
      "inputs": [
        {
          "internalType": "address",
          "name": "_to",
          "type": "address"
        },
        {
          "internalType": "uint256",
          "name": "_amount",
          "type": "uint256"
        }
      ],
      "name": "mintForOwner",
      "outputs": [],
      "stateMutability": "payable",
      "type": "function"
    },
    {
      "inputs": [
        {
          "internalType": "address",
          "name": "_to",
          "type": "address"
        },
        {
          "internalType": "uint256",
          "name": "_amount",
          "type": "uint256"
        }
      ],
      "name": "mintForRegular",
      "outputs": [],
      "stateMutability": "payable",
      "type": "function"
    },
    {
      "inputs": [
        {
          "internalType": "address",
          "name": "_to",
          "type": "address"
        },
        {
          "internalType": "uint256",
          "name": "_amount",
          "type": "uint256"
        }
      ],
      "name": "mintForWhitelist",
      "outputs": [],
      "stateMutability": "payable",
      "type": "function"
    },
    {
      "inputs": [],
      "name": "mintingStages",
      "outputs": [
        {
          "internalType": "uint256",
          "name": "ogMintPrice",
          "type": "uint256"
        },
        {
          "internalType": "uint256",
          "name": "whitelistMintPrice",
          "type": "uint256"
        },
        {
          "internalType": "uint256",
          "name": "mintPrice",
          "type": "uint256"
        },
        {
          "internalType": "uint256",
          "name": "mintMaxPerUser",
          "type": "uint256"
        },
        {
          "internalType": "uint256",
          "name": "ogMintMaxPerUser",
          "type": "uint256"
        },
        {
          "internalType": "uint256",
          "name": "whitelistMintMaxPerUser",
          "type": "uint256"
        },
        {
          "internalType": "uint256",
          "name": "mintStart",
          "type": "uint256"
        },
        {
          "internalType": "uint256",
          "name": "mintEnd",
          "type": "uint256"
        },
        {
          "internalType": "uint256",
          "name": "ogMintStart",
          "type": "uint256"
        },
        {
          "internalType": "uint256",
          "name": "ogMintEnd",
          "type": "uint256"
        },
        {
          "internalType": "uint256",
          "name": "whitelistMintStart",
          "type": "uint256"
        },
        {
          "internalType": "uint256",
          "name": "whitelistMintEnd",
          "type": "uint256"
        }
      ],
      "stateMutability": "view",
      "type": "function"
    },
    {
      "inputs": [
        {
          "internalType": "address",
          "name": "",
          "type": "address"
        }
      ],
      "name": "mintsPerWallet",
      "outputs": [
        {
          "internalType": "uint256",
          "name": "",
          "type": "uint256"
        }
      ],
      "stateMutability": "view",
      "type": "function"
    },
    {
      "inputs": [],
      "name": "name",
      "outputs": [
        {
          "internalType": "string",
          "name": "",
          "type": "string"
        }
      ],
      "stateMutability": "view",
      "type": "function"
    },
    {
      "inputs": [
        {
          "internalType": "address",
          "name": "",
          "type": "address"
        }
      ],
      "name": "ogPerWallet",
      "outputs": [
        {
          "internalType": "uint256",
          "name": "",
          "type": "uint256"
        }
      ],
      "stateMutability": "view",
      "type": "function"
    },
    {
      "inputs": [
        {
          "internalType": "uint256",
          "name": "tokenId",
          "type": "uint256"
        }
      ],
      "name": "ownerOf",
      "outputs": [
        {
          "internalType": "address",
          "name": "",
          "type": "address"
        }
      ],
      "stateMutability": "view",
      "type": "function"
    },
    {
      "inputs": [
        {
          "internalType": "bytes32",
          "name": "role",
          "type": "bytes32"
        },
        {
          "internalType": "address",
          "name": "account",
          "type": "address"
        }
      ],
      "name": "renounceRole",
      "outputs": [],
      "stateMutability": "nonpayable",
      "type": "function"
    },
    {
      "inputs": [
        {
          "internalType": "bytes32",
          "name": "role",
          "type": "bytes32"
        },
        {
          "internalType": "address",
          "name": "account",
          "type": "address"
        }
      ],
      "name": "revokeRole",
      "outputs": [],
      "stateMutability": "nonpayable",
      "type": "function"
    },
    {
      "inputs": [
        {
          "internalType": "uint256",
          "name": "tokenId",
          "type": "uint256"
        },
        {
          "internalType": "uint256",
          "name": "_salePrice",
          "type": "uint256"
        }
      ],
      "name": "royaltyInfo",
      "outputs": [
        {
          "internalType": "address",
          "name": "",
          "type": "address"
        },
        {
          "internalType": "uint256",
          "name": "",
          "type": "uint256"
        }
      ],
      "stateMutability": "view",
      "type": "function"
    },
    {
      "inputs": [
        {
          "internalType": "address",
          "name": "from",
          "type": "address"
        },
        {
          "internalType": "address",
          "name": "to",
          "type": "address"
        },
        {
          "internalType": "uint256",
          "name": "tokenId",
          "type": "uint256"
        }
      ],
      "name": "safeTransferFrom",
      "outputs": [],
      "stateMutability": "payable",
      "type": "function"
    },
    {
      "inputs": [
        {
          "internalType": "address",
          "name": "from",
          "type": "address"
        },
        {
          "internalType": "address",
          "name": "to",
          "type": "address"
        },
        {
          "internalType": "uint256",
          "name": "tokenId",
          "type": "uint256"
        },
        {
          "internalType": "bytes",
          "name": "_data",
          "type": "bytes"
        }
      ],
      "name": "safeTransferFrom",
      "outputs": [],
      "stateMutability": "payable",
      "type": "function"
    },
    {
      "inputs": [
        {
          "internalType": "address",
          "name": "operator",
          "type": "address"
        },
        {
          "internalType": "bool",
          "name": "approved",
          "type": "bool"
        }
      ],
      "name": "setApprovalForAll",
      "outputs": [],
      "stateMutability": "nonpayable",
      "type": "function"
    },
    {
      "inputs": [
        {
          "internalType": "string",
          "name": "_newBaseExtension",
          "type": "string"
        }
      ],
      "name": "setBaseExtension",
      "outputs": [],
      "stateMutability": "nonpayable",
      "type": "function"
    },
    {
      "inputs": [
        {
          "internalType": "string",
          "name": "_newBaseURI",
          "type": "string"
        }
      ],
      "name": "setBaseURI",
      "outputs": [],
      "stateMutability": "nonpayable",
      "type": "function"
    },
    {
      "inputs": [
        {
          "internalType": "bytes4",
          "name": "_interfaceId",
          "type": "bytes4"
        }
      ],
      "name": "supportsInterface",
      "outputs": [
        {
          "internalType": "bool",
          "name": "",
          "type": "bool"
        }
      ],
      "stateMutability": "view",
      "type": "function"
    },
    {
      "inputs": [],
      "name": "symbol",
      "outputs": [
        {
          "internalType": "string",
          "name": "",
          "type": "string"
        }
      ],
      "stateMutability": "view",
      "type": "function"
    },
    {
      "inputs": [
        {
          "internalType": "uint256",
          "name": "_tokenId",
          "type": "uint256"
        }
      ],
      "name": "tokenURI",
      "outputs": [
        {
          "internalType": "string",
          "name": "",
          "type": "string"
        }
      ],
      "stateMutability": "view",
      "type": "function"
    },
    {
      "inputs": [],
      "name": "totalSupply",
      "outputs": [
        {
          "internalType": "uint256",
          "name": "",
          "type": "uint256"
        }
      ],
      "stateMutability": "view",
      "type": "function"
    },
    {
      "inputs": [
        {
          "internalType": "address",
          "name": "from",
          "type": "address"
        },
        {
          "internalType": "address",
          "name": "to",
          "type": "address"
        },
        {
          "internalType": "uint256",
          "name": "tokenId",
          "type": "uint256"
        }
      ],
      "name": "transferFrom",
      "outputs": [],
      "stateMutability": "payable",
      "type": "function"
    },
    {
      "inputs": [
        {
          "internalType": "uint256",
          "name": "_mintMax",
          "type": "uint256"
        }
      ],
      "name": "updateMintMax",
      "outputs": [],
      "stateMutability": "nonpayable",
      "type": "function"
    },
    {
      "inputs": [
        {
          "internalType": "uint256",
          "name": "_mintPrice",
          "type": "uint256"
        }
      ],
      "name": "updateMintPrice",
      "outputs": [],
      "stateMutability": "nonpayable",
      "type": "function"
    },
    {
      "inputs": [
        {
          "internalType": "address[]",
          "name": "_minterList",
          "type": "address[]"
        },
        {
          "internalType": "uint8",
          "name": "_mintRole",
          "type": "uint8"
        }
      ],
      "name": "updateMinterRoles",
      "outputs": [],
      "stateMutability": "nonpayable",
      "type": "function"
    },
    {
      "inputs": [
        {
          "internalType": "uint256",
          "name": "_ogMintMax",
          "type": "uint256"
        }
      ],
      "name": "updateOGMintMax",
      "outputs": [],
      "stateMutability": "nonpayable",
      "type": "function"
    },
    {
      "inputs": [
        {
          "internalType": "uint256",
          "name": "_price",
          "type": "uint256"
        }
      ],
      "name": "updateOGMintPrice",
      "outputs": [],
      "stateMutability": "nonpayable",
      "type": "function"
    },
    {
      "inputs": [
        {
          "internalType": "address",
          "name": "_receiver",
          "type": "address"
        },
        {
          "internalType": "uint96",
          "name": "_royaltyFee",
          "type": "uint96"
        }
      ],
      "name": "updateRoyaltyInfo",
      "outputs": [],
      "stateMutability": "nonpayable",
      "type": "function"
    },
    {
      "inputs": [
        {
          "internalType": "uint256",
          "name": "_start",
          "type": "uint256"
        },
        {
          "internalType": "uint256",
          "name": "_end",
          "type": "uint256"
        }
      ],
      "name": "updateTime",
      "outputs": [],
      "stateMutability": "nonpayable",
      "type": "function"
    },
    {
      "inputs": [
        {
          "internalType": "uint256",
          "name": "_whitelistMintMax",
          "type": "uint256"
        }
      ],
      "name": "updateWLMintMax",
      "outputs": [],
      "stateMutability": "nonpayable",
      "type": "function"
    },
    {
      "inputs": [
        {
          "internalType": "uint256",
          "name": "_whitelistMintPrice",
          "type": "uint256"
        }
      ],
      "name": "updateWhitelistMintPrice",
      "outputs": [],
      "stateMutability": "nonpayable",
      "type": "function"
    },
    {
      "inputs": [],
      "name": "version",
      "outputs": [
        {
          "internalType": "uint8",
          "name": "_version",
          "type": "uint8"
        }
      ],
      "stateMutability": "pure",
      "type": "function"
    },
    {
      "inputs": [],
      "name": "withdraw",
      "outputs": [],
      "stateMutability": "payable",
      "type": "function"
    },
    {
      "inputs": [
        {
          "internalType": "address",
          "name": "",
          "type": "address"
        }
      ],
      "name": "wlPerWallet",
      "outputs": [
        {
          "internalType": "uint256",
          "name": "",
          "type": "uint256"
        }
      ],
      "stateMutability": "view",
      "type": "function"
    }
  ],
  "bytecode": "0x608060405234801561001057600080fd5b506151f2806100206000396000f3fe6080604052600436106103335760003560e01c80636c0360eb116101b0578063ab556b80116100ec578063d547741f11610095578063e985e9c51161006f578063e985e9c514610a53578063eb980abf14610aa9578063f2cca28f14610ac9578063f5b541a614610ae957600080fd5b8063d547741f146109d0578063da3ef23f146109f0578063e4bce01614610a1057600080fd5b8063c87b56dd116100c6578063c87b56dd14610963578063caafc20814610983578063d05ec0a8146109b057600080fd5b8063ab556b80146108ef578063b0338f2e1461091c578063b88d4fde1461095057600080fd5b806391d14854116101595780639c89a7b3116101335780639c89a7b31461087f578063a217fddf146108a7578063a22cb465146108bc578063a8c3182b146108dc57600080fd5b806391d14854146107f7578063938908511461084a57806395d89b411461086a57600080fd5b80637ab06c121161018a5780637ab06c12146107a45780638577c1fa146107b7578063912fb690146107d757600080fd5b80636c0360eb1461073b57806370a082311461075057806375b238fc1461077057600080fd5b80632a55205a1161027f57806342842e0e1161022857806353b859df1161020257806353b859df146106cc57806354fd4d50146106df57806355f804b3146106fb5780636352211e1461071b57600080fd5b806342842e0e1461066c57806342966c681461067f5780634d0df5fc1461069f57600080fd5b80633693a358116102595780633693a358146106245780633ccfd60b14610644578063411c44421461064c57600080fd5b80632a55205a146105985780632f2ff15d146105e457806336568abe1461060457600080fd5b8063172cf75f116102e157806321f1b677116102bb57806321f1b6771461053557806323b872dd14610555578063248a9ca31461056857600080fd5b8063172cf75f1461041c57806318160ddd1461045e5780631a8f41931461049957600080fd5b806306fdde031161031257806306fdde03146103a2578063081812fc146103c4578063095ea7b31461040957600080fd5b8062728e46146103385780630167f3c51461035a57806301ffc9a71461036d575b600080fd5b34801561034457600080fd5b50610358610353366004614342565b610b1d565b005b61035861036836600461437d565b610c62565b34801561037957600080fd5b5061038d6103883660046143d7565b610e3b565b60405190151581526020015b60405180910390f35b3480156103ae57600080fd5b506103b7610ee3565b6040516103999190614462565b3480156103d057600080fd5b506103e46103df366004614342565b610f75565b60405173ffffffffffffffffffffffffffffffffffffffff9091168152602001610399565b61035861041736600461437d565b610fd6565b34801561042857600080fd5b506104507f9eb10b7eab35fabb5491c526a3cf39c3bb7ce2ee5d483e1558635d2c96c2085c81565b604051908152602001610399565b34801561046a57600080fd5b50600154600054037fffffffffffffffffffffffffffffffffffffffffffffffffffffffffffffffff01610450565b3480156104a557600080fd5b5060d15460d25460d35460d45460d55460d65460d75460d85460d95460da5460db5460dc546104dc9b9a999897969594939291908c565b604080519c8d5260208d019b909b52998b019890985260608a0196909652608089019490945260a088019290925260c087015260e086015261010085015261012084015261014083015261016082015261018001610399565b34801561054157600080fd5b50610358610550366004614475565b610fe2565b610358610563366004614497565b611127565b34801561057457600080fd5b50610450610583366004614342565b6000908152606d602052604090206001015490565b3480156105a457600080fd5b506105b86105b3366004614475565b611366565b6040805173ffffffffffffffffffffffffffffffffffffffff9093168352602083019190915201610399565b3480156105f057600080fd5b506103586105ff3660046144d8565b6113c7565b34801561061057600080fd5b5061035861061f3660046144d8565b6113f1565b34801561063057600080fd5b5061035861063f366004614567565b6114a0565b61035861193b565b34801561065857600080fd5b50610358610667366004614659565b611bd4565b61035861067a366004614497565b611c6b565b34801561068b57600080fd5b5061035861069a366004614342565b611c86565b3480156106ab57600080fd5b506104506106ba366004614687565b60e46020526000908152604090205481565b6103586106da36600461437d565b611d4e565b3480156106eb57600080fd5b5060405160028152602001610399565b34801561070757600080fd5b50610358610716366004614767565b611f2d565b34801561072757600080fd5b506103e4610736366004614342565b611f39565b34801561074757600080fd5b506103b7611f44565b34801561075c57600080fd5b5061045061076b366004614687565b611f53565b34801561077c57600080fd5b506104507fa49807205ce4d355092ef5a8a18f56e8913cf4a201fbe287825b095693c2177581565b6103586107b236600461437d565b611fcc565b3480156107c357600080fd5b506103586107d2366004614342565b612176565b3480156107e357600080fd5b506103586107f2366004614342565b6122b6565b34801561080357600080fd5b5061038d6108123660046144d8565b6000918252606d6020908152604080842073ffffffffffffffffffffffffffffffffffffffff93909316845291905290205460ff1690565b34801561085657600080fd5b50610358610865366004614342565b6123f6565b34801561087657600080fd5b506103b7612536565b34801561088b57600080fd5b50610894612545565b60405161039997969594939291906147b0565b3480156108b357600080fd5b50610450600081565b3480156108c857600080fd5b506103586108d7366004614841565b6127c3565b6103586108ea36600461437d565b61285a565b3480156108fb57600080fd5b5061045061090a366004614687565b60e66020526000908152604090205481565b34801561092857600080fd5b506104507fcb7e89b7eed8294d41c0215e2f4fe023e2166afcfa3d1f479c394274afe5f01981565b61035861095e366004614874565b612a2e565b34801561096f57600080fd5b506103b761097e366004614342565b612a95565b34801561098f57600080fd5b5061045061099e366004614687565b60e56020526000908152604090205481565b3480156109bc57600080fd5b506103586109cb366004614342565b612b8b565b3480156109dc57600080fd5b506103586109eb3660046144d8565b612ccb565b3480156109fc57600080fd5b50610358610a0b366004614767565b612cf0565b348015610a1c57600080fd5b50610450610a2b366004614687565b73ffffffffffffffffffffffffffffffffffffffff16600090815260e4602052604090205490565b348015610a5f57600080fd5b5061038d610a6e3660046148f4565b73ffffffffffffffffffffffffffffffffffffffff918216600090815260076020908152604080832093909416825291909152205460ff1690565b348015610ab557600080fd5b50610358610ac4366004614342565b612cfc565b348015610ad557600080fd5b50610358610ae4366004614922565b612e3c565b348015610af557600080fd5b506104507f97667070c54ef182b0f5858b034beac1b6f3089aa2d3188bb1e8929f4fa9b92981565b3360009081527f9deef4832b18b62adaf7ce030da5f06e20ee9867097fb4884ce69b9f78341c42602052604090205460ff1680610b8857503360009081527f1e6a3de0d48b74115044b871eacee36727a72e27f7906b5d35017cf5f4a3a042602052604090205460ff165b610bf3576040517f08c379a000000000000000000000000000000000000000000000000000000000815260206004820152601660248201527f4f6e6c792041646d696e206f72204f70657261746f720000000000000000000060448201526064015b60405180910390fd5b60008111610c5d576040517f08c379a000000000000000000000000000000000000000000000000000000000815260206004820152601460248201527f496e76616c696420707269636520616d6f756e740000000000000000000000006044820152606401610bea565b60d355565b610c6a6130e1565b7fcb7e89b7eed8294d41c0215e2f4fe023e2166afcfa3d1f479c394274afe5f019610c9481613154565b60da5442908111801590610caa575060d9548110155b610d10576040517f08c379a000000000000000000000000000000000000000000000000000000000815260206004820152601060248201527f4e6f74204f47206d696e742074696d65000000000000000000000000000000006044820152606401610bea565b60e154600154600054859190037fffffffffffffffffffffffffffffffffffffffffffffffffffffffffffffffff01610d4991906149ae565b1115610db1576040517f08c379a000000000000000000000000000000000000000000000000000000000815260206004820152601260248201527f4f766572206d696e744d6178206572726f7200000000000000000000000000006044820152606401610bea565b610dc8348560d1600001548660d160040154613161565b60d1546040805134815273ffffffffffffffffffffffffffffffffffffffff87166020820152908101859052606081019190915233907f12868c3639cc6f45bf88ecdaf9a5a315a966c89339b502a13c32758761b814949060800160405180910390a25050610e376001609f55565b5050565b60007fffffffff0000000000000000000000000000000000000000000000000000000082167fc21b8f28000000000000000000000000000000000000000000000000000000001480610ece57507fffffffff0000000000000000000000000000000000000000000000000000000082167f2a55205a00000000000000000000000000000000000000000000000000000000145b80610edd5750610edd8261327f565b92915050565b606060028054610ef2906149c1565b80601f0160208091040260200160405190810160405280929190818152602001828054610f1e906149c1565b8015610f6b5780601f10610f4057610100808354040283529160200191610f6b565b820191906000526020600020905b815481529060010190602001808311610f4e57829003601f168201915b5050505050905090565b6000610f8082613316565b610fad57610fad7fcf4700e40000000000000000000000000000000000000000000000000000000061337d565b5060009081526006602052604090205473ffffffffffffffffffffffffffffffffffffffff1690565b610e3782826001613387565b3360009081527f9deef4832b18b62adaf7ce030da5f06e20ee9867097fb4884ce69b9f78341c42602052604090205460ff168061104d57503360009081527f1e6a3de0d48b74115044b871eacee36727a72e27f7906b5d35017cf5f4a3a042602052604090205460ff165b6110b3576040517f08c379a000000000000000000000000000000000000000000000000000000000815260206004820152601660248201527f4f6e6c792041646d696e206f72204f70657261746f72000000000000000000006044820152606401610bea565b81811161111c576040517f08c379a000000000000000000000000000000000000000000000000000000000815260206004820152600f60248201527f456e64206e6f74203e20737461727400000000000000000000000000000000006044820152606401610bea565b60d79190915560d855565b600061113282613475565b73ffffffffffffffffffffffffffffffffffffffff948516949091508116841461117f5761117f7fa11481000000000000000000000000000000000000000000000000000000000061337d565b600082815260066020526040902080546111b88187335b73ffffffffffffffffffffffffffffffffffffffff9081169116811491141790565b6111f3576111c68633610a6e565b6111f3576111f37f59c896be0000000000000000000000000000000000000000000000000000000061337d565b80156111fe57600082555b73ffffffffffffffffffffffffffffffffffffffff86811660009081526005602052604080822080547fffffffffffffffffffffffffffffffffffffffffffffffffffffffffffffffff019055918716808252919020805460010190554260a01b177c0200000000000000000000000000000000000000000000000000000000176000858152600460205260408120919091557c0200000000000000000000000000000000000000000000000000000000841690036112ed576001840160008181526004602052604081205490036112eb5760005481146112eb5760008181526004602052604090208490555b505b73ffffffffffffffffffffffffffffffffffffffff85168481887fddf252ad1be2c89b69c2b068fc378daa952ba7f163c4a11628f55a4df523b3ef600080a48060000361135d5761135d7fea553b340000000000000000000000000000000000000000000000000000000061337d565b50505050505050565b60e254600090819073ffffffffffffffffffffffffffffffffffffffff6c0100000000000000000000000082041690612710906113b1906bffffffffffffffffffffffff1686614a14565b6113bb9190614a2b565b915091505b9250929050565b6000828152606d60205260409020600101546113e281613154565b6113ec83836135b1565b505050565b73ffffffffffffffffffffffffffffffffffffffff81163314611496576040517f08c379a000000000000000000000000000000000000000000000000000000000815260206004820152602f60248201527f416363657373436f6e74726f6c3a2063616e206f6e6c792072656e6f756e636560448201527f20726f6c657320666f722073656c6600000000000000000000000000000000006064820152608401610bea565b610e3782826136a5565b600854610100900460ff16158080156114c05750600854600160ff909116105b806114da5750303b1580156114da575060085460ff166001145b611566576040517f08c379a000000000000000000000000000000000000000000000000000000000815260206004820152602e60248201527f496e697469616c697a61626c653a20636f6e747261637420697320616c72656160448201527f647920696e697469616c697a65640000000000000000000000000000000000006064820152608401610bea565b600880547fffffffffffffffffffffffffffffffffffffffffffffffffffffffffffffff0016600117905580156115c457600880547fffffffffffffffffffffffffffffffffffffffffffffffffffffffffffff00ff166101001790555b367ffffffffffffffffffffffffffffffffffffffffffffffffffffffffffffffffe81013560f01c90033560601c3361167c6116008a80614a66565b8080601f0160208091040260200160405190810160405280939291908181526020018383808284376000920191909152506116429250505060208c018c614a66565b8080601f01602080910402602001604051908101604052809392919081815260200183838082843760009201919091525061376092505050565b611684613783565b61168c61381a565b6116b67fa49807205ce4d355092ef5a8a18f56e8913cf4a201fbe287825b095693c21775806138b9565b6117007fcb7e89b7eed8294d41c0215e2f4fe023e2166afcfa3d1f479c394274afe5f0197fa49807205ce4d355092ef5a8a18f56e8913cf4a201fbe287825b095693c217756138b9565b61174a7f9eb10b7eab35fabb5491c526a3cf39c3bb7ce2ee5d483e1558635d2c96c2085c7fa49807205ce4d355092ef5a8a18f56e8913cf4a201fbe287825b095693c217756138b9565b6117747fa49807205ce4d355092ef5a8a18f56e8913cf4a201fbe287825b095693c21775826135b1565b61179e7fa49807205ce4d355092ef5a8a18f56e8913cf4a201fbe287825b095693c21775836135b1565b6117aa87876000612e3c565b6117b685856001612e3c565b6117cf826117ca60c08c0160a08d01614acb565b613904565b8860dd6117dc8282614c6a565b5050873560d155602088013560d255604088013560d355606088013560d455608088013560d55560a088013560d65560c088013560d75560e088013560d85561010088013560d95561012088013560da5561014088013560db5561016088013560dc557fffffffffffffffffffffffff0000000000000000000000000000000000000000740100000000000000000000000000000000000000006bffffffffffffffffffffffff8c16021673ffffffffffffffffffffffffffffffffffffffff82161760e3556118cc7fa49807205ce4d355092ef5a8a18f56e8913cf4a201fbe287825b095693c2177582612ccb565b5050801561193157600880547fffffffffffffffffffffffffffffffffffffffffffffffffffffffffffff00ff169055604051600181527f7f26b83ff96e1f2b6a682f133852f6798a09c465da95921460cefb38474024989060200160405180910390a15b5050505050505050565b6119436130e1565b7fa49807205ce4d355092ef5a8a18f56e8913cf4a201fbe287825b095693c2177561196d81613154565b60e3544790600090612710906119a9907401000000000000000000000000000000000000000090046bffffffffffffffffffffffff1684614a14565b6119b39190614a2b565b905060006119c18284614e86565b60e35460405191925060009173ffffffffffffffffffffffffffffffffffffffff9091169084908381818185875af1925050503d8060008114611a20576040519150601f19603f3d011682016040523d82523d6000602084013e611a25565b606091505b5050905080611a90576040517f08c379a000000000000000000000000000000000000000000000000000000000815260206004820152601a60248201527f5769746864726177205f706c6174666f726d466565206661696c0000000000006044820152606401610bea565b604051600090339084908381818185875af1925050503d8060008114611ad2576040519150601f19603f3d011682016040523d82523d6000602084013e611ad7565b606091505b5050905080611b42576040517f08c379a000000000000000000000000000000000000000000000000000000000815260206004820152601e60248201527f5769746864726177205f62616c616e63654166746572466565206661696c00006044820152606401610bea565b60e3546040805185815273ffffffffffffffffffffffffffffffffffffffff83166020820152740100000000000000000000000000000000000000009092046bffffffffffffffffffffffff169082015233907f7e27a75faf6b8f74ec66364c1d23167ad5a538473e8bb4986ac2a26c30dbbbe69060600160405180910390a2505050505050611bd26001609f55565b565b7fa49807205ce4d355092ef5a8a18f56e8913cf4a201fbe287825b095693c21775611bfe81613154565b611c088383613904565b6040805173ffffffffffffffffffffffffffffffffffffffff851681526bffffffffffffffffffffffff8416602082015233917f0d68bfdb860b47ebf04e76cebf91e412a17ee7ccf960b3dd8720471b090b2ea8910160405180910390a2505050565b6113ec83838360405180602001604052806000815250612a2e565b33611c9082611f39565b73ffffffffffffffffffffffffffffffffffffffff1614611d0d576040517f08c379a000000000000000000000000000000000000000000000000000000000815260206004820152600960248201527f4e6f74204f776e657200000000000000000000000000000000000000000000006044820152606401610bea565b611d1681613a58565b60405181815233907f512586160ebd4dc6945ba9ec5d21a1f723f26f3c7aa36cdffb6818d4e7b880309060200160405180910390a250565b611d566130e1565b3360009081527f9deef4832b18b62adaf7ce030da5f06e20ee9867097fb4884ce69b9f78341c42602052604090205460ff1680611dc157503360009081527f1e6a3de0d48b74115044b871eacee36727a72e27f7906b5d35017cf5f4a3a042602052604090205460ff165b611e27576040517f08c379a000000000000000000000000000000000000000000000000000000000815260206004820152601660248201527f4f6e6c792041646d696e206f72204f70657261746f72000000000000000000006044820152606401610bea565b60e154600154600054839190037fffffffffffffffffffffffffffffffffffffffffffffffffffffffffffffffff01611e6091906149ae565b1115611ec8576040517f08c379a000000000000000000000000000000000000000000000000000000000815260206004820152601260248201527f4f766572206d696e744d6178206572726f7200000000000000000000000000006044820152606401610bea565b611ed28282613a63565b6040805173ffffffffffffffffffffffffffffffffffffffff841681526020810183905233917f1a3e625d40ebf494638afa2b07e6a62f9fbfa2060469d5bfc998ce32d7c91b90910160405180910390a2610e376001609f55565b60df610e378282614e99565b6000610edd82613475565b6060611f4e613a7d565b905090565b600073ffffffffffffffffffffffffffffffffffffffff8216611f9957611f997f8f4eb6040000000000000000000000000000000000000000000000000000000061337d565b5073ffffffffffffffffffffffffffffffffffffffff1660009081526005602052604090205467ffffffffffffffff1690565b611fd46130e1565b60d85442908111801590611fea575060d7548110155b612050576040517f08c379a000000000000000000000000000000000000000000000000000000000815260206004820152601360248201527f4e6f7420526567756c6172206d696e54696d65000000000000000000000000006044820152606401610bea565b60e154600154600054849190037fffffffffffffffffffffffffffffffffffffffffffffffffffffffffffffffff0161208991906149ae565b11156120f1576040517f08c379a000000000000000000000000000000000000000000000000000000000815260206004820152601260248201527f4f766572206d696e744d6178206572726f7200000000000000000000000000006044820152606401610bea565b612108348460d1600201548560d160030154613161565b60d3546040805134815273ffffffffffffffffffffffffffffffffffffffff86166020820152908101849052606081019190915233907f4b39a2b601e18792cafbb9db818cbd30b9cd45ad108161d616484ec3b3cc1def9060800160405180910390a250610e376001609f55565b3360009081527f9deef4832b18b62adaf7ce030da5f06e20ee9867097fb4884ce69b9f78341c42602052604090205460ff16806121e157503360009081527f1e6a3de0d48b74115044b871eacee36727a72e27f7906b5d35017cf5f4a3a042602052604090205460ff165b612247576040517f08c379a000000000000000000000000000000000000000000000000000000000815260206004820152601660248201527f4f6e6c792041646d696e206f72204f70657261746f72000000000000000000006044820152606401610bea565b600081116122b1576040517f08c379a000000000000000000000000000000000000000000000000000000000815260206004820152601460248201527f496e76616c696420707269636520616d6f756e740000000000000000000000006044820152606401610bea565b60d155565b3360009081527f9deef4832b18b62adaf7ce030da5f06e20ee9867097fb4884ce69b9f78341c42602052604090205460ff168061232157503360009081527f1e6a3de0d48b74115044b871eacee36727a72e27f7906b5d35017cf5f4a3a042602052604090205460ff165b612387576040517f08c379a000000000000000000000000000000000000000000000000000000000815260206004820152601660248201527f4f6e6c792041646d696e206f72204f70657261746f72000000000000000000006044820152606401610bea565b600081116123f1576040517f08c379a000000000000000000000000000000000000000000000000000000000815260206004820152601260248201527f496e76616c6964206d617820616d6f756e7400000000000000000000000000006044820152606401610bea565b60d555565b3360009081527f9deef4832b18b62adaf7ce030da5f06e20ee9867097fb4884ce69b9f78341c42602052604090205460ff168061246157503360009081527f1e6a3de0d48b74115044b871eacee36727a72e27f7906b5d35017cf5f4a3a042602052604090205460ff165b6124c7576040517f08c379a000000000000000000000000000000000000000000000000000000000815260206004820152601660248201527f4f6e6c792041646d696e206f72204f70657261746f72000000000000000000006044820152606401610bea565b60008111612531576040517f08c379a000000000000000000000000000000000000000000000000000000000815260206004820152601360248201527f496e76616c6964206d696e7420616d6f756e74000000000000000000000000006044820152606401610bea565b60d455565b606060038054610ef2906149c1565b60dd80548190612554906149c1565b80601f0160208091040260200160405190810160405280929190818152602001828054612580906149c1565b80156125cd5780601f106125a2576101008083540402835291602001916125cd565b820191906000526020600020905b8154815290600101906020018083116125b057829003601f168201915b5050505050908060010180546125e2906149c1565b80601f016020809104026020016040519081016040528092919081815260200182805461260e906149c1565b801561265b5780601f106126305761010080835404028352916020019161265b565b820191906000526020600020905b81548152906001019060200180831161263e57829003601f168201915b505050505090806002018054612670906149c1565b80601f016020809104026020016040519081016040528092919081815260200182805461269c906149c1565b80156126e95780601f106126be576101008083540402835291602001916126e9565b820191906000526020600020905b8154815290600101906020018083116126cc57829003601f168201915b5050505050908060030180546126fe906149c1565b80601f016020809104026020016040519081016040528092919081815260200182805461272a906149c1565b80156127775780601f1061274c57610100808354040283529160200191612777565b820191906000526020600020905b81548152906001019060200180831161275a57829003601f168201915b5050505060048301546005909301549192916bffffffffffffffffffffffff811691506c01000000000000000000000000900473ffffffffffffffffffffffffffffffffffffffff1687565b33600081815260076020908152604080832073ffffffffffffffffffffffffffffffffffffffff87168085529083529281902080547fffffffffffffffffffffffffffffffffffffffffffffffffffffffffffffff001686151590811790915590519081529192917f17307eab39ab6107e8899845ad3d59bd9653f200f220920489ca2b5937696c31910160405180910390a35050565b7f9eb10b7eab35fabb5491c526a3cf39c3bb7ce2ee5d483e1558635d2c96c2085c61288481613154565b61288c6130e1565b60dc54429081118015906128a2575060db548110155b612908576040517f08c379a000000000000000000000000000000000000000000000000000000000815260206004820152601060248201527f4e6f74204f47206d696e742074696d65000000000000000000000000000000006044820152606401610bea565b60e154600154600054859190037fffffffffffffffffffffffffffffffffffffffffffffffffffffffffffffffff0161294191906149ae565b11156129a9576040517f08c379a000000000000000000000000000000000000000000000000000000000815260206004820152601260248201527f4f766572206d696e744d6178206572726f7200000000000000000000000000006044820152606401610bea565b6129c0348560d1600101548660d160050154613161565b60d2546040805134815273ffffffffffffffffffffffffffffffffffffffff87166020820152908101859052606081019190915233907f2803fcf0a236d2815d9e6b3ef81ad6014f08139d44906d7d3cfc5302331e81e09060800160405180910390a2506113ec6001609f55565b612a39848484611127565b73ffffffffffffffffffffffffffffffffffffffff83163b15612a8f57612a6284848484613a8f565b612a8f57612a8f7fd1a57ed60000000000000000000000000000000000000000000000000000000061337d565b50505050565b6060612aa082613316565b612b2c576040517f08c379a000000000000000000000000000000000000000000000000000000000815260206004820152602f60248201527f4552433732314d657461646174613a2055524920717565727920666f72206e6f60448201527f6e6578697374656e7420746f6b656e00000000000000000000000000000000006064820152608401610bea565b6000612b36611f44565b90506000815111612b565760405180602001604052806000815250612b84565b80612b6084613c00565b604051612b7492919060e090602001614fb3565b6040516020818303038152906040525b9392505050565b3360009081527f9deef4832b18b62adaf7ce030da5f06e20ee9867097fb4884ce69b9f78341c42602052604090205460ff1680612bf657503360009081527f1e6a3de0d48b74115044b871eacee36727a72e27f7906b5d35017cf5f4a3a042602052604090205460ff165b612c5c576040517f08c379a000000000000000000000000000000000000000000000000000000000815260206004820152601660248201527f4f6e6c792041646d696e206f72204f70657261746f72000000000000000000006044820152606401610bea565b60008111612cc6576040517f08c379a000000000000000000000000000000000000000000000000000000000815260206004820152601260248201527f496e76616c6964206d617820616d6f756e7400000000000000000000000000006044820152606401610bea565b60d655565b6000828152606d6020526040902060010154612ce681613154565b6113ec83836136a5565b60e0610e378282614e99565b3360009081527f9deef4832b18b62adaf7ce030da5f06e20ee9867097fb4884ce69b9f78341c42602052604090205460ff1680612d6757503360009081527f1e6a3de0d48b74115044b871eacee36727a72e27f7906b5d35017cf5f4a3a042602052604090205460ff165b612dcd576040517f08c379a000000000000000000000000000000000000000000000000000000000815260206004820152601660248201527f4f6e6c792041646d696e206f72204f70657261746f72000000000000000000006044820152606401610bea565b60008111612e37576040517f08c379a000000000000000000000000000000000000000000000000000000000815260206004820152601460248201527f496e76616c696420707269636520616d6f756e740000000000000000000000006044820152606401610bea565b60d255565b3360009081527f9deef4832b18b62adaf7ce030da5f06e20ee9867097fb4884ce69b9f78341c42602052604090205460ff1680612ea757503360009081527f1e6a3de0d48b74115044b871eacee36727a72e27f7906b5d35017cf5f4a3a042602052604090205460ff165b612f0d576040517f08c379a000000000000000000000000000000000000000000000000000000000815260206004820152601660248201527f4f6e6c792041646d696e206f72204f70657261746f72000000000000000000006044820152606401610bea565b60ff81161580612f2057508060ff166001145b612f86576040517f08c379a000000000000000000000000000000000000000000000000000000000815260206004820152601460248201527f4572726f72206f6e6c79204f473d302c574c3d310000000000000000000000006044820152606401610bea565b818015612a8f5760005b818110156130da576000858583818110612fac57612fac615071565b9050602002016020810190612fc19190614687565b73ffffffffffffffffffffffffffffffffffffffff160361303e576040517f08c379a000000000000000000000000000000000000000000000000000000000815260206004820152600f60248201527f496e76616c6964204164647265737300000000000000000000000000000000006044820152606401610bea565b60ff83161561309c576130977f9eb10b7eab35fabb5491c526a3cf39c3bb7ce2ee5d483e1558635d2c96c2085c86868481811061307d5761307d615071565b90506020020160208101906130929190614687565b6135b1565b6130d2565b6130d27fcb7e89b7eed8294d41c0215e2f4fe023e2166afcfa3d1f479c394274afe5f01986868481811061307d5761307d615071565b600101612f90565b5050505050565b6002609f540361314d576040517f08c379a000000000000000000000000000000000000000000000000000000000815260206004820152601f60248201527f5265656e7472616e637947756172643a207265656e7472616e742063616c6c006044820152606401610bea565b6002609f55565b61315e8133613c62565b50565b33600090815260e46020526040902054819061317e9084906149ae565b11156131e6576040517f08c379a000000000000000000000000000000000000000000000000000000000815260206004820152600f60248201527f45786365656473206d61784d696e7400000000000000000000000000000000006044820152606401610bea565b6131f08383614a14565b851015613259576040517f08c379a000000000000000000000000000000000000000000000000000000000815260206004820152601960248201527f496e73756666696369656e74206d696e74207061796d656e74000000000000006044820152606401610bea565b33600090815260e4602052604090208054830190556130da8483613a63565b6001609f55565b60007fffffffff0000000000000000000000000000000000000000000000000000000082167f7965db0b000000000000000000000000000000000000000000000000000000001480610edd57507f01ffc9a7000000000000000000000000000000000000000000000000000000007fffffffff00000000000000000000000000000000000000000000000000000000831614610edd565b600081600111613378576000548210156133785760005b50600082815260046020526040812054908190036133555761334e836150a0565b925061332d565b7c0100000000000000000000000000000000000000000000000000000000161590505b919050565b8060005260046000fd5b600061339283611f39565b90508180156133b757503373ffffffffffffffffffffffffffffffffffffffff821614155b156133f3576133c68133610a6e565b6133f3576133f37fcfb3b9420000000000000000000000000000000000000000000000000000000061337d565b60008381526006602052604080822080547fffffffffffffffffffffffff00000000000000000000000000000000000000001673ffffffffffffffffffffffffffffffffffffffff88811691821790925591518693918516917f8c5be1e5ebec7d5bd14f71427d1e84f3dd0314c0f7b2291e5b200ac8c7c3b92591a450505050565b60008160011161358857506000818152600460205260408120549081900361355c5760005482106134c9576134c97fdf2d9b420000000000000000000000000000000000000000000000000000000061337d565b5b507fffffffffffffffffffffffffffffffffffffffffffffffffffffffffffffffff0160008181526004602052604090205480156134ca577c0100000000000000000000000000000000000000000000000000000000811660000361352e57919050565b6135577fdf2d9b420000000000000000000000000000000000000000000000000000000061337d565b6134ca565b7c0100000000000000000000000000000000000000000000000000000000811660000361358857919050565b6133787fdf2d9b420000000000000000000000000000000000000000000000000000000061337d565b6000828152606d6020908152604080832073ffffffffffffffffffffffffffffffffffffffff8516845290915290205460ff16610e37576000828152606d6020908152604080832073ffffffffffffffffffffffffffffffffffffffff85168452909152902080547fffffffffffffffffffffffffffffffffffffffffffffffffffffffffffffff001660011790556136473390565b73ffffffffffffffffffffffffffffffffffffffff168173ffffffffffffffffffffffffffffffffffffffff16837f2f8788117e7eff1d82e926ec794901d17c78024a50270940304540a733656f0d60405160405180910390a45050565b6000828152606d6020908152604080832073ffffffffffffffffffffffffffffffffffffffff8516845290915290205460ff1615610e37576000828152606d6020908152604080832073ffffffffffffffffffffffffffffffffffffffff8516808552925280832080547fffffffffffffffffffffffffffffffffffffffffffffffffffffffffffffff0016905551339285917ff6391f5c32d9c69d2a47ea670b442974b53935d1edc7fd64eb21e047a839171b9190a45050565b600261376c8382614e99565b5060036137798282614e99565b5060016000555050565b600854610100900460ff16611bd2576040517f08c379a000000000000000000000000000000000000000000000000000000000815260206004820152602b60248201527f496e697469616c697a61626c653a20636f6e7472616374206973206e6f74206960448201527f6e697469616c697a696e670000000000000000000000000000000000000000006064820152608401610bea565b600854610100900460ff166138b1576040517f08c379a000000000000000000000000000000000000000000000000000000000815260206004820152602b60248201527f496e697469616c697a61626c653a20636f6e7472616374206973206e6f74206960448201527f6e697469616c697a696e670000000000000000000000000000000000000000006064820152608401610bea565b611bd2613d1c565b6000828152606d6020526040808220600101805490849055905190918391839186917fbd79b86ffe0ab8e8776151514217cd7cacd52c909f66475c3af44e129f0b00ff9190a4505050565b6127106bffffffffffffffffffffffff8216111561397e576040517f08c379a000000000000000000000000000000000000000000000000000000000815260206004820152601d60248201527f455243323938313a20666565206578636565642073616c6550726963650000006044820152606401610bea565b73ffffffffffffffffffffffffffffffffffffffff82166139fb576040517f08c379a000000000000000000000000000000000000000000000000000000000815260206004820152601960248201527f455243323938313a20696e76616c6964207265636569766572000000000000006044820152606401610bea565b6bffffffffffffffffffffffff1673ffffffffffffffffffffffffffffffffffffffff9091166c01000000000000000000000000027fffffffffffffffffffffffffffffffffffffffff000000000000000000000000161760e255565b61315e816000613db3565b610e37828260405180602001604052806000815250613f59565b606060dd6002018054610ef2906149c1565b6040517f150b7a0200000000000000000000000000000000000000000000000000000000815260009073ffffffffffffffffffffffffffffffffffffffff85169063150b7a0290613aea9033908990889088906004016150d5565b6020604051808303816000875af1925050508015613b43575060408051601f3d9081017fffffffffffffffffffffffffffffffffffffffffffffffffffffffffffffffe0168201909252613b409181019061511e565b60015b613bb1573d808015613b71576040519150601f19603f3d011682016040523d82523d6000602084013e613b76565b606091505b508051600003613ba957613ba97fd1a57ed60000000000000000000000000000000000000000000000000000000061337d565b805181602001fd5b7fffffffff00000000000000000000000000000000000000000000000000000000167f150b7a02000000000000000000000000000000000000000000000000000000001490505b949350505050565b606060a06040510180604052602081039150506000815280825b600183039250600a81066030018353600a900480613c1a57508190037fffffffffffffffffffffffffffffffffffffffffffffffffffffffffffffffe0909101908152919050565b6000828152606d6020908152604080832073ffffffffffffffffffffffffffffffffffffffff8516845290915290205460ff16610e3757613ca281613fe1565b613cad836020614000565b604051602001613cbe92919061513b565b604080517fffffffffffffffffffffffffffffffffffffffffffffffffffffffffffffffe0818403018152908290527f08c379a0000000000000000000000000000000000000000000000000000000008252610bea91600401614462565b600854610100900460ff16613278576040517f08c379a000000000000000000000000000000000000000000000000000000000815260206004820152602b60248201527f496e697469616c697a61626c653a20636f6e7472616374206973206e6f74206960448201527f6e697469616c697a696e670000000000000000000000000000000000000000006064820152608401610bea565b6000613dbe83613475565b905080600080613ddc86600090815260066020526040902080549091565b915091508415613e2c57613df1818433611196565b613e2c57613dff8333610a6e565b613e2c57613e2c7f59c896be0000000000000000000000000000000000000000000000000000000061337d565b8015613e3757600082555b73ffffffffffffffffffffffffffffffffffffffff8316600081815260056020526040902080546fffffffffffffffffffffffffffffffff0190554260a01b177c0300000000000000000000000000000000000000000000000000000000176000878152600460205260408120919091557c020000000000000000000000000000000000000000000000000000000085169003613f0457600186016000818152600460205260408120549003613f02576000548114613f025760008181526004602052604090208590555b505b604051869060009073ffffffffffffffffffffffffffffffffffffffff8616907fddf252ad1be2c89b69c2b068fc378daa952ba7f163c4a11628f55a4df523b3ef908390a45050600180548101905550505050565b613f638383614243565b73ffffffffffffffffffffffffffffffffffffffff83163b156113ec576000548281035b613f9a6000868380600101945086613a8f565b613fc757613fc77fd1a57ed60000000000000000000000000000000000000000000000000000000061337d565b818110613f875781600054146130da576130da600061337d565b6060610edd73ffffffffffffffffffffffffffffffffffffffff831660145b6060600061400f836002614a14565b61401a9060026149ae565b67ffffffffffffffff811115614032576140326146a4565b6040519080825280601f01601f19166020018201604052801561405c576020820181803683370190505b5090507f30000000000000000000000000000000000000000000000000000000000000008160008151811061409357614093615071565b60200101907effffffffffffffffffffffffffffffffffffffffffffffffffffffffffffff1916908160001a9053507f7800000000000000000000000000000000000000000000000000000000000000816001815181106140f6576140f6615071565b60200101907effffffffffffffffffffffffffffffffffffffffffffffffffffffffffffff1916908160001a9053506000614132846002614a14565b61413d9060016149ae565b90505b60018111156141da577f303132333435363738396162636465660000000000000000000000000000000085600f166010811061417e5761417e615071565b1a60f81b82828151811061419457614194615071565b60200101907effffffffffffffffffffffffffffffffffffffffffffffffffffffffffffff1916908160001a90535060049490941c936141d3816150a0565b9050614140565b508315612b84576040517f08c379a000000000000000000000000000000000000000000000000000000000815260206004820181905260248201527f537472696e67733a20686578206c656e67746820696e73756666696369656e746044820152606401610bea565b6000805490829003614278576142787fb562e8dd0000000000000000000000000000000000000000000000000000000061337d565b600081815260046020908152604080832073ffffffffffffffffffffffffffffffffffffffff87164260a01b6001881460e11b178117909155808452600590925282208054680100000000000000018602019055908190036142fd576142fd7f2e0763000000000000000000000000000000000000000000000000000000000061337d565b818301825b808360007fddf252ad1be2c89b69c2b068fc378daa952ba7f163c4a11628f55a4df523b3ef600080a4818160010191508103614302575060005550505050565b60006020828403121561435457600080fd5b5035919050565b73ffffffffffffffffffffffffffffffffffffffff8116811461315e57600080fd5b6000806040838503121561439057600080fd5b823561439b8161435b565b946020939093013593505050565b7fffffffff000000000000000000000000000000000000000000000000000000008116811461315e57600080fd5b6000602082840312156143e957600080fd5b8135612b84816143a9565b60005b8381101561440f5781810151838201526020016143f7565b50506000910152565b600081518084526144308160208601602086016143f4565b601f017fffffffffffffffffffffffffffffffffffffffffffffffffffffffffffffffe0169290920160200192915050565b602081526000612b846020830184614418565b6000806040838503121561448857600080fd5b50508035926020909101359150565b6000806000606084860312156144ac57600080fd5b83356144b78161435b565b925060208401356144c78161435b565b929592945050506040919091013590565b600080604083850312156144eb57600080fd5b8235915060208301356144fd8161435b565b809150509250929050565b6bffffffffffffffffffffffff8116811461315e57600080fd5b60008083601f84011261453457600080fd5b50813567ffffffffffffffff81111561454c57600080fd5b6020830191508360208260051b85010111156113c057600080fd5b600080600080600080600087890361020081121561458457600080fd5b883561458f81614508565b9750602089013567ffffffffffffffff808211156145ac57600080fd5b908a019060e0828d0312156145c057600080fd5b8198506101807fffffffffffffffffffffffffffffffffffffffffffffffffffffffffffffffc0840112156145f457600080fd5b60408b0197506101c08b013592508083111561460f57600080fd5b61461b8c848d01614522565b90975095506101e08b013592508691508083111561463857600080fd5b50506146468a828b01614522565b989b979a50959850939692959293505050565b6000806040838503121561466c57600080fd5b82356146778161435b565b915060208301356144fd81614508565b60006020828403121561469957600080fd5b8135612b848161435b565b7f4e487b7100000000000000000000000000000000000000000000000000000000600052604160045260246000fd5b600067ffffffffffffffff808411156146ee576146ee6146a4565b604051601f85017fffffffffffffffffffffffffffffffffffffffffffffffffffffffffffffffe0908116603f01168101908282118183101715614734576147346146a4565b8160405280935085815286868601111561474d57600080fd5b858560208301376000602087830101525050509392505050565b60006020828403121561477957600080fd5b813567ffffffffffffffff81111561479057600080fd5b8201601f810184136147a157600080fd5b613bf8848235602084016146d3565b60e0815260006147c360e083018a614418565b82810360208401526147d5818a614418565b905082810360408401526147e98189614418565b905082810360608401526147fd8188614418565b608084019690965250506bffffffffffffffffffffffff9290921660a083015273ffffffffffffffffffffffffffffffffffffffff1660c090910152949350505050565b6000806040838503121561485457600080fd5b823561485f8161435b565b9150602083013580151581146144fd57600080fd5b6000806000806080858703121561488a57600080fd5b84356148958161435b565b935060208501356148a58161435b565b925060408501359150606085013567ffffffffffffffff8111156148c857600080fd5b8501601f810187136148d957600080fd5b6148e8878235602084016146d3565b91505092959194509250565b6000806040838503121561490757600080fd5b82356149128161435b565b915060208301356144fd8161435b565b60008060006040848603121561493757600080fd5b833567ffffffffffffffff81111561494e57600080fd5b61495a86828701614522565b909450925050602084013560ff8116811461497457600080fd5b809150509250925092565b7f4e487b7100000000000000000000000000000000000000000000000000000000600052601160045260246000fd5b80820180821115610edd57610edd61497f565b600181811c908216806149d557607f821691505b602082108103614a0e577f4e487b7100000000000000000000000000000000000000000000000000000000600052602260045260246000fd5b50919050565b8082028115828204841417610edd57610edd61497f565b600082614a61577f4e487b7100000000000000000000000000000000000000000000000000000000600052601260045260246000fd5b500490565b60008083357fffffffffffffffffffffffffffffffffffffffffffffffffffffffffffffffe1843603018112614a9b57600080fd5b83018035915067ffffffffffffffff821115614ab657600080fd5b6020019150368190038213156113c057600080fd5b600060208284031215614add57600080fd5b8135612b8481614508565b601f8211156113ec57600081815260208120601f850160051c81016020861015614b0f5750805b601f850160051c820191505b81811015614b2e57828155600101614b1b565b505050505050565b67ffffffffffffffff831115614b4e57614b4e6146a4565b614b6283614b5c83546149c1565b83614ae8565b6000601f841160018114614bb45760008515614b7e5750838201355b7fffffffffffffffffffffffffffffffffffffffffffffffffffffffffffffffff600387901b1c1916600186901b1783556130da565b6000838152602090207fffffffffffffffffffffffffffffffffffffffffffffffffffffffffffffffe0861690835b82811015614c035786850135825560209485019460019092019101614be3565b5086821015614c3e577fffffffffffffffffffffffffffffffffffffffffffffffffffffffffffffffff60f88860031b161c19848701351681555b505060018560011b0183555050505050565b60008135610edd81614508565b60008135610edd8161435b565b614c748283614a66565b67ffffffffffffffff811115614c8c57614c8c6146a4565b614ca081614c9a85546149c1565b85614ae8565b6000601f821160018114614cf25760008315614cbc5750838201355b7fffffffffffffffffffffffffffffffffffffffffffffffffffffffffffffffff600385901b1c1916600184901b178555614d88565b6000858152602090207fffffffffffffffffffffffffffffffffffffffffffffffffffffffffffffffe0841690835b82811015614d415786850135825560209485019460019092019101614d21565b5084821015614d7c577fffffffffffffffffffffffffffffffffffffffffffffffffffffffffffffffff60f88660031b161c19848701351681555b505060018360011b0185555b50505050614d996020830183614a66565b614da7818360018601614b36565b5050614db66040830183614a66565b614dc4818360028601614b36565b5050614dd36060830183614a66565b614de1818360038601614b36565b50506080820135600482015560058101614e3a614e0060a08501614c50565b82547fffffffffffffffffffffffffffffffffffffffff000000000000000000000000166bffffffffffffffffffffffff91909116178255565b6113ec614e4960c08501614c5d565b82546bffffffffffffffffffffffff1660609190911b7fffffffffffffffffffffffffffffffffffffffff00000000000000000000000016178255565b81810381811115610edd57610edd61497f565b815167ffffffffffffffff811115614eb357614eb36146a4565b614ec781614ec184546149c1565b84614ae8565b602080601f831160018114614f1a5760008415614ee45750858301515b7fffffffffffffffffffffffffffffffffffffffffffffffffffffffffffffffff600386901b1c1916600185901b178555614b2e565b6000858152602081207fffffffffffffffffffffffffffffffffffffffffffffffffffffffffffffffe08616915b82811015614f6757888601518255948401946001909101908401614f48565b5085821015614fa357878501517fffffffffffffffffffffffffffffffffffffffffffffffffffffffffffffffff600388901b60f8161c191681555b5050505050600190811b01905550565b600084516020614fc68285838a016143f4565b855191840191614fd98184848a016143f4565b8554920191600090614fea816149c1565b60018281168015615002576001811461503557615061565b7fffffffffffffffffffffffffffffffffffffffffffffffffffffffffffffff0084168752821515830287019450615061565b896000528560002060005b8481101561505957815489820152908301908701615040565b505082870194505b50929a9950505050505050505050565b7f4e487b7100000000000000000000000000000000000000000000000000000000600052603260045260246000fd5b6000816150af576150af61497f565b507fffffffffffffffffffffffffffffffffffffffffffffffffffffffffffffffff0190565b600073ffffffffffffffffffffffffffffffffffffffff8087168352808616602084015250836040830152608060608301526151146080830184614418565b9695505050505050565b60006020828403121561513057600080fd5b8151612b84816143a9565b7f416363657373436f6e74726f6c3a206163636f756e74200000000000000000008152600083516151738160178501602088016143f4565b7f206973206d697373696e6720726f6c652000000000000000000000000000000060179184019182015283516151b08160288401602088016143f4565b0160280194935050505056fea264697066735822122091ef12b41d60f6df1a54921fa9491afde0c90723dd9f21f498e5ebd7b17bd87164736f6c63430008140033",
  "linkReferences": {},
  "deployedLinkReferences": {}
}