{
  "_format": "hh-sol-artifact-1",
  "contractName": "MvxCollection",
  "sourceName": "src/MvxCollection.sol",
  "abi": [
    {
      "inputs": [],
      "name": "ApprovalCallerNotOwnerNorApproved",
      "type": "error"
    },
    {
      "inputs": [],
      "name": "ApprovalQueryForNonexistentToken",
      "type": "error"
    },
    {
      "inputs": [],
      "name": "BalanceQueryForZeroAddress",
      "type": "error"
    },
    {
      "inputs": [],
      "name": "MintERC2309QuantityExceedsLimit",
      "type": "error"
    },
    {
      "inputs": [
        {
          "internalType": "string",
          "name": "",
          "type": "string"
        },
        {
          "internalType": "uint8",
          "name": "",
          "type": "uint8"
        }
      ],
      "name": "MintError",
      "type": "error"
    },
    {
      "inputs": [
        {
          "internalType": "uint8",
          "name": "",
          "type": "uint8"
        }
      ],
      "name": "MintForOwnerError",
      "type": "error"
    },
    {
      "inputs": [],
      "name": "MintToZeroAddress",
      "type": "error"
    },
    {
      "inputs": [],
      "name": "MintZeroQuantity",
      "type": "error"
    },
    {
      "inputs": [],
      "name": "OwnerQueryForNonexistentToken",
      "type": "error"
    },
    {
      "inputs": [],
      "name": "OwnershipNotInitializedForExtraData",
      "type": "error"
    },
    {
      "inputs": [],
      "name": "TokenNotExistsError",
      "type": "error"
    },
    {
      "inputs": [],
      "name": "TransferCallerNotOwnerNorApproved",
      "type": "error"
    },
    {
      "inputs": [],
      "name": "TransferFromIncorrectOwner",
      "type": "error"
    },
    {
      "inputs": [],
      "name": "TransferToNonERC721ReceiverImplementer",
      "type": "error"
    },
    {
      "inputs": [],
      "name": "TransferToZeroAddress",
      "type": "error"
    },
    {
      "inputs": [],
      "name": "URIQueryForNonexistentToken",
      "type": "error"
    },
    {
      "inputs": [
        {
          "internalType": "uint8",
          "name": "isPlaformCall",
          "type": "uint8"
        }
      ],
      "name": "WithdrawError",
      "type": "error"
    },
    {
      "anonymous": false,
      "inputs": [
        {
          "indexed": true,
          "internalType": "address",
          "name": "owner",
          "type": "address"
        },
        {
          "indexed": true,
          "internalType": "address",
          "name": "approved",
          "type": "address"
        },
        {
          "indexed": true,
          "internalType": "uint256",
          "name": "tokenId",
          "type": "uint256"
        }
      ],
      "name": "Approval",
      "type": "event"
    },
    {
      "anonymous": false,
      "inputs": [
        {
          "indexed": true,
          "internalType": "address",
          "name": "owner",
          "type": "address"
        },
        {
          "indexed": true,
          "internalType": "address",
          "name": "operator",
          "type": "address"
        },
        {
          "indexed": false,
          "internalType": "bool",
          "name": "approved",
          "type": "bool"
        }
      ],
      "name": "ApprovalForAll",
      "type": "event"
    },
    {
      "anonymous": false,
      "inputs": [
        {
          "indexed": true,
          "internalType": "address",
          "name": "sender",
          "type": "address"
        },
        {
          "indexed": false,
          "internalType": "uint256",
          "name": "tokenId",
          "type": "uint256"
        }
      ],
      "name": "BurnEvent",
      "type": "event"
    },
    {
      "anonymous": false,
      "inputs": [
        {
          "indexed": true,
          "internalType": "uint256",
          "name": "fromTokenId",
          "type": "uint256"
        },
        {
          "indexed": false,
          "internalType": "uint256",
          "name": "toTokenId",
          "type": "uint256"
        },
        {
          "indexed": true,
          "internalType": "address",
          "name": "from",
          "type": "address"
        },
        {
          "indexed": true,
          "internalType": "address",
          "name": "to",
          "type": "address"
        }
      ],
      "name": "ConsecutiveTransfer",
      "type": "event"
    },
    {
      "anonymous": false,
      "inputs": [
        {
          "indexed": false,
          "internalType": "string",
          "name": "",
          "type": "string"
        },
        {
          "indexed": false,
          "internalType": "uint256",
          "name": "",
          "type": "uint256"
        }
      ],
      "name": "Log",
      "type": "event"
    },
    {
      "anonymous": false,
      "inputs": [
        {
          "indexed": true,
          "internalType": "address",
          "name": "sender",
          "type": "address"
        },
        {
          "indexed": false,
          "internalType": "uint256",
          "name": "value",
          "type": "uint256"
        },
        {
          "indexed": false,
          "internalType": "address",
          "name": "to",
          "type": "address"
        },
        {
          "indexed": false,
          "internalType": "uint256",
          "name": "amount",
          "type": "uint256"
        },
        {
          "indexed": false,
          "internalType": "uint256",
          "name": "mintPrice",
          "type": "uint256"
        }
      ],
      "name": "MintEvent",
      "type": "event"
    },
    {
      "anonymous": false,
      "inputs": [
        {
          "indexed": true,
          "internalType": "address",
          "name": "sender",
          "type": "address"
        },
        {
          "indexed": false,
          "internalType": "uint256",
          "name": "value",
          "type": "uint256"
        },
        {
          "indexed": false,
          "internalType": "address",
          "name": "to",
          "type": "address"
        },
        {
          "indexed": false,
          "internalType": "uint256",
          "name": "amount",
          "type": "uint256"
        },
        {
          "indexed": false,
          "internalType": "uint256",
          "name": "_ogMintPrice",
          "type": "uint256"
        }
      ],
      "name": "OGmintEvent",
      "type": "event"
    },
    {
      "anonymous": false,
      "inputs": [
        {
          "indexed": true,
          "internalType": "address",
          "name": "sender",
          "type": "address"
        },
        {
          "indexed": false,
          "internalType": "address",
          "name": "to",
          "type": "address"
        },
        {
          "indexed": false,
          "internalType": "uint256",
          "name": "amount",
          "type": "uint256"
        }
      ],
      "name": "OwnerMintEvent",
      "type": "event"
    },
    {
      "anonymous": false,
      "inputs": [
        {
          "indexed": true,
          "internalType": "bytes32",
          "name": "role",
          "type": "bytes32"
        },
        {
          "indexed": true,
          "internalType": "bytes32",
          "name": "previousAdminRole",
          "type": "bytes32"
        },
        {
          "indexed": true,
          "internalType": "bytes32",
          "name": "newAdminRole",
          "type": "bytes32"
        }
      ],
      "name": "RoleAdminChanged",
      "type": "event"
    },
    {
      "anonymous": false,
      "inputs": [
        {
          "indexed": true,
          "internalType": "bytes32",
          "name": "role",
          "type": "bytes32"
        },
        {
          "indexed": true,
          "internalType": "address",
          "name": "account",
          "type": "address"
        },
        {
          "indexed": true,
          "internalType": "address",
          "name": "sender",
          "type": "address"
        }
      ],
      "name": "RoleGranted",
      "type": "event"
    },
    {
      "anonymous": false,
      "inputs": [
        {
          "indexed": true,
          "internalType": "bytes32",
          "name": "role",
          "type": "bytes32"
        },
        {
          "indexed": true,
          "internalType": "address",
          "name": "account",
          "type": "address"
        },
        {
          "indexed": true,
          "internalType": "address",
          "name": "sender",
          "type": "address"
        }
      ],
      "name": "RoleRevoked",
      "type": "event"
    },
    {
      "anonymous": false,
      "inputs": [
        {
          "indexed": true,
          "internalType": "address",
          "name": "sender",
          "type": "address"
        },
        {
          "indexed": false,
          "internalType": "address",
          "name": "receiver",
          "type": "address"
        },
        {
          "indexed": false,
          "internalType": "uint96",
          "name": "royaltyFee",
          "type": "uint96"
        }
      ],
      "name": "RoyaltyFeeUpdate",
      "type": "event"
    },
    {
      "anonymous": false,
      "inputs": [
        {
          "indexed": true,
          "internalType": "address",
          "name": "from",
          "type": "address"
        },
        {
          "indexed": true,
          "internalType": "address",
          "name": "to",
          "type": "address"
        },
        {
          "indexed": true,
          "internalType": "uint256",
          "name": "tokenId",
          "type": "uint256"
        }
      ],
      "name": "Transfer",
      "type": "event"
    },
    {
      "anonymous": false,
      "inputs": [
        {
          "indexed": true,
          "internalType": "address",
          "name": "sender",
          "type": "address"
        },
        {
          "indexed": false,
          "internalType": "uint256",
          "name": "listLength",
          "type": "uint256"
        }
      ],
      "name": "UpdateOgEvent",
      "type": "event"
    },
    {
      "anonymous": false,
      "inputs": [
        {
          "indexed": true,
          "internalType": "address",
          "name": "sender",
          "type": "address"
        },
        {
          "indexed": false,
          "internalType": "uint256",
          "name": "listLength",
          "type": "uint256"
        }
      ],
      "name": "UpdateWLevent",
      "type": "event"
    },
    {
      "anonymous": false,
      "inputs": [
        {
          "indexed": true,
          "internalType": "address",
          "name": "sender",
          "type": "address"
        },
        {
          "indexed": false,
          "internalType": "uint256",
          "name": "value",
          "type": "uint256"
        },
        {
          "indexed": false,
          "internalType": "address",
          "name": "to",
          "type": "address"
        },
        {
          "indexed": false,
          "internalType": "uint256",
          "name": "amount",
          "type": "uint256"
        },
        {
          "indexed": false,
          "internalType": "uint256",
          "name": "wlMintPrice",
          "type": "uint256"
        }
      ],
      "name": "WLmintEvent",
      "type": "event"
    },
    {
      "anonymous": false,
      "inputs": [
        {
          "indexed": true,
          "internalType": "address",
          "name": "",
          "type": "address"
        },
        {
          "indexed": false,
          "internalType": "uint256",
          "name": "",
          "type": "uint256"
        },
        {
          "indexed": false,
          "internalType": "address",
          "name": "",
          "type": "address"
        },
        {
          "indexed": false,
          "internalType": "uint256",
          "name": "",
          "type": "uint256"
        }
      ],
      "name": "WithdrawEvent",
      "type": "event"
    },
    {
      "inputs": [],
      "name": "ADMIN_ROLE",
      "outputs": [
        {
          "internalType": "bytes32",
          "name": "",
          "type": "bytes32"
        }
      ],
      "stateMutability": "view",
      "type": "function"
    },
    {
      "inputs": [],
      "name": "DEFAULT_ADMIN_ROLE",
      "outputs": [
        {
          "internalType": "bytes32",
          "name": "",
          "type": "bytes32"
        }
      ],
      "stateMutability": "view",
      "type": "function"
    },
    {
      "inputs": [],
      "name": "OG_MINTER_ROLE",
      "outputs": [
        {
          "internalType": "bytes32",
          "name": "",
          "type": "bytes32"
        }
      ],
      "stateMutability": "view",
      "type": "function"
    },
    {
      "inputs": [],
      "name": "OPERATOR_ROLE",
      "outputs": [
        {
          "internalType": "bytes32",
          "name": "",
          "type": "bytes32"
        }
      ],
      "stateMutability": "view",
      "type": "function"
    },
    {
      "inputs": [],
      "name": "WL_MINTER_ROLE",
      "outputs": [
        {
          "internalType": "bytes32",
          "name": "",
          "type": "bytes32"
        }
      ],
      "stateMutability": "view",
      "type": "function"
    },
    {
      "inputs": [
        {
          "internalType": "address",
          "name": "to",
          "type": "address"
        },
        {
          "internalType": "uint256",
          "name": "tokenId",
          "type": "uint256"
        }
      ],
      "name": "approve",
      "outputs": [],
      "stateMutability": "payable",
      "type": "function"
    },
    {
      "inputs": [
        {
          "internalType": "address",
          "name": "owner",
          "type": "address"
        }
      ],
      "name": "balanceOf",
      "outputs": [
        {
          "internalType": "uint256",
          "name": "",
          "type": "uint256"
        }
      ],
      "stateMutability": "view",
      "type": "function"
    },
    {
      "inputs": [],
      "name": "baseURI",
      "outputs": [
        {
          "internalType": "string",
          "name": "",
          "type": "string"
        }
      ],
      "stateMutability": "view",
      "type": "function"
    },
    {
      "inputs": [
        {
          "internalType": "uint256",
          "name": "_tokenId",
          "type": "uint256"
        }
      ],
      "name": "burn",
      "outputs": [],
      "stateMutability": "nonpayable",
      "type": "function"
    },
    {
      "inputs": [],
      "name": "collectionData",
      "outputs": [
        {
          "internalType": "string",
          "name": "name",
          "type": "string"
        },
        {
          "internalType": "string",
          "name": "symbol",
          "type": "string"
        },
        {
          "internalType": "string",
          "name": "baseURI",
          "type": "string"
        },
        {
          "internalType": "string",
          "name": "baseExt",
          "type": "string"
        },
        {
          "internalType": "uint256",
          "name": "maxSupply",
          "type": "uint256"
        },
        {
          "internalType": "uint96",
          "name": "royaltyFee",
          "type": "uint96"
        },
        {
          "internalType": "address",
          "name": "royaltyReceiver",
          "type": "address"
        }
      ],
      "stateMutability": "view",
      "type": "function"
    },
    {
      "inputs": [
        {
          "internalType": "uint256",
          "name": "tokenId",
          "type": "uint256"
        }
      ],
      "name": "getApproved",
      "outputs": [
        {
          "internalType": "address",
          "name": "",
          "type": "address"
        }
      ],
      "stateMutability": "view",
      "type": "function"
    },
    {
      "inputs": [
        {
          "internalType": "string",
          "name": "mintType",
          "type": "string"
        },
        {
          "internalType": "address",
          "name": "_user",
          "type": "address"
        }
      ],
      "name": "getMintCountOf",
      "outputs": [
        {
          "internalType": "uint256",
          "name": "",
          "type": "uint256"
        }
      ],
      "stateMutability": "view",
      "type": "function"
    },
    {
      "inputs": [
        {
          "internalType": "bytes32",
          "name": "role",
          "type": "bytes32"
        }
      ],
      "name": "getRoleAdmin",
      "outputs": [
        {
          "internalType": "bytes32",
          "name": "",
          "type": "bytes32"
        }
      ],
      "stateMutability": "view",
      "type": "function"
    },
    {
      "inputs": [
        {
          "internalType": "bytes32",
          "name": "role",
          "type": "bytes32"
        },
        {
          "internalType": "address",
          "name": "account",
          "type": "address"
        }
      ],
      "name": "grantRole",
      "outputs": [],
      "stateMutability": "nonpayable",
      "type": "function"
    },
    {
      "inputs": [
        {
          "internalType": "bytes32",
          "name": "role",
          "type": "bytes32"
        },
        {
          "internalType": "address",
          "name": "account",
          "type": "address"
        }
      ],
      "name": "hasRole",
      "outputs": [
        {
          "internalType": "bool",
          "name": "",
          "type": "bool"
        }
      ],
      "stateMutability": "view",
      "type": "function"
    },
    {
      "inputs": [
        {
          "internalType": "uint256",
          "name": "platformFee",
          "type": "uint256"
        },
        {
          "components": [
            {
              "internalType": "string",
              "name": "name",
              "type": "string"
            },
            {
              "internalType": "string",
              "name": "symbol",
              "type": "string"
            },
            {
              "internalType": "string",
              "name": "baseURI",
              "type": "string"
            },
            {
              "internalType": "string",
              "name": "baseExt",
              "type": "string"
            },
            {
              "internalType": "uint256",
              "name": "maxSupply",
              "type": "uint256"
            },
            {
              "internalType": "uint96",
              "name": "royaltyFee",
              "type": "uint96"
            },
            {
              "internalType": "address",
              "name": "royaltyReceiver",
              "type": "address"
            }
          ],
          "internalType": "struct Collection",
          "name": "_nftData",
          "type": "tuple"
        },
        {
          "components": [
            {
              "internalType": "uint256",
              "name": "ogMintPrice",
              "type": "uint256"
            },
            {
              "internalType": "uint256",
              "name": "whitelistMintPrice",
              "type": "uint256"
            },
            {
              "internalType": "uint256",
              "name": "mintPrice",
              "type": "uint256"
            },
            {
              "internalType": "uint256",
              "name": "mintMaxPerUser",
              "type": "uint256"
            },
            {
              "internalType": "uint256",
              "name": "ogMintMaxPerUser",
              "type": "uint256"
            },
            {
              "internalType": "uint256",
              "name": "whitelistMintMaxPerUser",
              "type": "uint256"
            },
            {
              "internalType": "uint256",
              "name": "mintStart",
              "type": "uint256"
            },
            {
              "internalType": "uint256",
              "name": "mintEnd",
              "type": "uint256"
            },
            {
              "internalType": "uint256",
              "name": "ogMintStart",
              "type": "uint256"
            },
            {
              "internalType": "uint256",
              "name": "ogMintEnd",
              "type": "uint256"
            },
            {
              "internalType": "uint256",
              "name": "whitelistMintStart",
              "type": "uint256"
            },
            {
              "internalType": "uint256",
              "name": "whitelistMintEnd",
              "type": "uint256"
            }
          ],
          "internalType": "struct Stages",
          "name": "_mintingStages",
          "type": "tuple"
        },
        {
          "internalType": "address[]",
          "name": "_ogs",
          "type": "address[]"
        },
        {
          "internalType": "address[]",
          "name": "_wls",
          "type": "address[]"
        }
      ],
      "name": "initialize",
      "outputs": [],
      "stateMutability": "nonpayable",
      "type": "function"
    },
    {
      "inputs": [
        {
          "internalType": "address",
          "name": "owner",
          "type": "address"
        },
        {
          "internalType": "address",
          "name": "operator",
          "type": "address"
        }
      ],
      "name": "isApprovedForAll",
      "outputs": [
        {
          "internalType": "bool",
          "name": "",
          "type": "bool"
        }
      ],
      "stateMutability": "view",
      "type": "function"
    },
    {
      "inputs": [
        {
          "internalType": "address",
          "name": "_to",
          "type": "address"
        },
        {
          "internalType": "uint256",
          "name": "_amount",
          "type": "uint256"
        }
      ],
      "name": "mintForOG",
      "outputs": [],
      "stateMutability": "payable",
      "type": "function"
    },
    {
      "inputs": [
        {
          "internalType": "address",
          "name": "_to",
          "type": "address"
        },
        {
          "internalType": "uint256",
          "name": "_amount",
          "type": "uint256"
        }
      ],
      "name": "mintForOwner",
      "outputs": [],
      "stateMutability": "payable",
      "type": "function"
    },
    {
      "inputs": [
        {
          "internalType": "address",
          "name": "_to",
          "type": "address"
        },
        {
          "internalType": "uint256",
          "name": "_amount",
          "type": "uint256"
        }
      ],
      "name": "mintForRegular",
      "outputs": [],
      "stateMutability": "payable",
      "type": "function"
    },
    {
      "inputs": [
        {
          "internalType": "address",
          "name": "_to",
          "type": "address"
        },
        {
          "internalType": "uint256",
          "name": "_amount",
          "type": "uint256"
        }
      ],
      "name": "mintForWhitelist",
      "outputs": [],
      "stateMutability": "payable",
      "type": "function"
    },
    {
      "inputs": [],
      "name": "mintingStages",
      "outputs": [
        {
          "internalType": "uint256",
          "name": "ogMintPrice",
          "type": "uint256"
        },
        {
          "internalType": "uint256",
          "name": "whitelistMintPrice",
          "type": "uint256"
        },
        {
          "internalType": "uint256",
          "name": "mintPrice",
          "type": "uint256"
        },
        {
          "internalType": "uint256",
          "name": "mintMaxPerUser",
          "type": "uint256"
        },
        {
          "internalType": "uint256",
          "name": "ogMintMaxPerUser",
          "type": "uint256"
        },
        {
          "internalType": "uint256",
          "name": "whitelistMintMaxPerUser",
          "type": "uint256"
        },
        {
          "internalType": "uint256",
          "name": "mintStart",
          "type": "uint256"
        },
        {
          "internalType": "uint256",
          "name": "mintEnd",
          "type": "uint256"
        },
        {
          "internalType": "uint256",
          "name": "ogMintStart",
          "type": "uint256"
        },
        {
          "internalType": "uint256",
          "name": "ogMintEnd",
          "type": "uint256"
        },
        {
          "internalType": "uint256",
          "name": "whitelistMintStart",
          "type": "uint256"
        },
        {
          "internalType": "uint256",
          "name": "whitelistMintEnd",
          "type": "uint256"
        }
      ],
      "stateMutability": "view",
      "type": "function"
    },
    {
      "inputs": [
        {
          "internalType": "address",
          "name": "",
          "type": "address"
        },
        {
          "internalType": "string",
          "name": "",
          "type": "string"
        }
      ],
      "name": "mintsPerWallet",
      "outputs": [
        {
          "internalType": "uint256",
          "name": "",
          "type": "uint256"
        }
      ],
      "stateMutability": "view",
      "type": "function"
    },
    {
      "inputs": [],
      "name": "name",
      "outputs": [
        {
          "internalType": "string",
          "name": "",
          "type": "string"
        }
      ],
      "stateMutability": "view",
      "type": "function"
    },
    {
      "inputs": [
        {
          "internalType": "uint256",
          "name": "tokenId",
          "type": "uint256"
        }
      ],
      "name": "ownerOf",
      "outputs": [
        {
          "internalType": "address",
          "name": "",
          "type": "address"
        }
      ],
      "stateMutability": "view",
      "type": "function"
    },
    {
      "inputs": [
        {
          "internalType": "bytes32",
          "name": "role",
          "type": "bytes32"
        },
        {
          "internalType": "address",
          "name": "account",
          "type": "address"
        }
      ],
      "name": "renounceRole",
      "outputs": [],
      "stateMutability": "nonpayable",
      "type": "function"
    },
    {
      "inputs": [
        {
          "internalType": "bytes32",
          "name": "role",
          "type": "bytes32"
        },
        {
          "internalType": "address",
          "name": "account",
          "type": "address"
        }
      ],
      "name": "revokeRole",
      "outputs": [],
      "stateMutability": "nonpayable",
      "type": "function"
    },
    {
      "inputs": [
        {
          "internalType": "uint256",
          "name": "tokenId",
          "type": "uint256"
        },
        {
          "internalType": "uint256",
          "name": "_salePrice",
          "type": "uint256"
        }
      ],
      "name": "royaltyInfo",
      "outputs": [
        {
          "internalType": "address",
          "name": "",
          "type": "address"
        },
        {
          "internalType": "uint256",
          "name": "",
          "type": "uint256"
        }
      ],
      "stateMutability": "view",
      "type": "function"
    },
    {
      "inputs": [
        {
          "internalType": "address",
          "name": "from",
          "type": "address"
        },
        {
          "internalType": "address",
          "name": "to",
          "type": "address"
        },
        {
          "internalType": "uint256",
          "name": "tokenId",
          "type": "uint256"
        }
      ],
      "name": "safeTransferFrom",
      "outputs": [],
      "stateMutability": "payable",
      "type": "function"
    },
    {
      "inputs": [
        {
          "internalType": "address",
          "name": "from",
          "type": "address"
        },
        {
          "internalType": "address",
          "name": "to",
          "type": "address"
        },
        {
          "internalType": "uint256",
          "name": "tokenId",
          "type": "uint256"
        },
        {
          "internalType": "bytes",
          "name": "_data",
          "type": "bytes"
        }
      ],
      "name": "safeTransferFrom",
      "outputs": [],
      "stateMutability": "payable",
      "type": "function"
    },
    {
      "inputs": [
        {
          "internalType": "address",
          "name": "operator",
          "type": "address"
        },
        {
          "internalType": "bool",
          "name": "approved",
          "type": "bool"
        }
      ],
      "name": "setApprovalForAll",
      "outputs": [],
      "stateMutability": "nonpayable",
      "type": "function"
    },
    {
      "inputs": [
        {
          "internalType": "string",
          "name": "_newBaseExtension",
          "type": "string"
        }
      ],
      "name": "setBaseExtension",
      "outputs": [],
      "stateMutability": "nonpayable",
      "type": "function"
    },
    {
      "inputs": [
        {
          "internalType": "string",
          "name": "_newBaseURI",
          "type": "string"
        }
      ],
      "name": "setBaseURI",
      "outputs": [],
      "stateMutability": "nonpayable",
      "type": "function"
    },
    {
      "inputs": [
        {
          "internalType": "bytes4",
          "name": "_interfaceId",
          "type": "bytes4"
        }
      ],
      "name": "supportsInterface",
      "outputs": [
        {
          "internalType": "bool",
          "name": "",
          "type": "bool"
        }
      ],
      "stateMutability": "view",
      "type": "function"
    },
    {
      "inputs": [],
      "name": "symbol",
      "outputs": [
        {
          "internalType": "string",
          "name": "",
          "type": "string"
        }
      ],
      "stateMutability": "view",
      "type": "function"
    },
    {
      "inputs": [
        {
          "internalType": "uint256",
          "name": "_tokenId",
          "type": "uint256"
        }
      ],
      "name": "tokenURI",
      "outputs": [
        {
          "internalType": "string",
          "name": "",
          "type": "string"
        }
      ],
      "stateMutability": "view",
      "type": "function"
    },
    {
      "inputs": [],
      "name": "totalSupply",
      "outputs": [
        {
          "internalType": "uint256",
          "name": "",
          "type": "uint256"
        }
      ],
      "stateMutability": "view",
      "type": "function"
    },
    {
      "inputs": [
        {
          "internalType": "address",
          "name": "from",
          "type": "address"
        },
        {
          "internalType": "address",
          "name": "to",
          "type": "address"
        },
        {
          "internalType": "uint256",
          "name": "tokenId",
          "type": "uint256"
        }
      ],
      "name": "transferFrom",
      "outputs": [],
      "stateMutability": "payable",
      "type": "function"
    },
    {
      "inputs": [
        {
          "internalType": "uint256",
          "name": "_mintMax",
          "type": "uint256"
        }
      ],
      "name": "updateMintMax",
      "outputs": [],
      "stateMutability": "nonpayable",
      "type": "function"
    },
    {
      "inputs": [
        {
          "internalType": "uint256",
          "name": "_mintPrice",
          "type": "uint256"
        }
      ],
      "name": "updateMintPrice",
      "outputs": [],
      "stateMutability": "nonpayable",
      "type": "function"
    },
    {
      "inputs": [
        {
          "internalType": "address[]",
          "name": "_minterList",
          "type": "address[]"
        },
        {
          "internalType": "uint8",
          "name": "_mintRole",
          "type": "uint8"
        }
      ],
      "name": "updateMinterRoles",
      "outputs": [],
      "stateMutability": "nonpayable",
      "type": "function"
    },
    {
      "inputs": [
        {
          "internalType": "uint256",
          "name": "_ogMintMax",
          "type": "uint256"
        }
      ],
      "name": "updateOGMintMax",
      "outputs": [],
      "stateMutability": "nonpayable",
      "type": "function"
    },
    {
      "inputs": [
        {
          "internalType": "uint256",
          "name": "_price",
          "type": "uint256"
        }
      ],
      "name": "updateOGMintPrice",
      "outputs": [],
      "stateMutability": "nonpayable",
      "type": "function"
    },
    {
      "inputs": [
        {
          "internalType": "address",
          "name": "_receiver",
          "type": "address"
        },
        {
          "internalType": "uint96",
          "name": "_royaltyFee",
          "type": "uint96"
        }
      ],
      "name": "updateRoyaltyInfo",
      "outputs": [],
      "stateMutability": "nonpayable",
      "type": "function"
    },
    {
      "inputs": [
        {
          "internalType": "uint256",
          "name": "_start",
          "type": "uint256"
        },
        {
          "internalType": "uint256",
          "name": "_end",
          "type": "uint256"
        }
      ],
      "name": "updateTime",
      "outputs": [],
      "stateMutability": "nonpayable",
      "type": "function"
    },
    {
      "inputs": [
        {
          "internalType": "uint256",
          "name": "_whitelistMintMax",
          "type": "uint256"
        }
      ],
      "name": "updateWLMintMax",
      "outputs": [],
      "stateMutability": "nonpayable",
      "type": "function"
    },
    {
      "inputs": [
        {
          "internalType": "uint256",
          "name": "_whitelistMintPrice",
          "type": "uint256"
        }
      ],
      "name": "updateWhitelistMintPrice",
      "outputs": [],
      "stateMutability": "nonpayable",
      "type": "function"
    },
    {
      "inputs": [],
      "name": "version",
      "outputs": [
        {
          "internalType": "uint8",
          "name": "_version",
          "type": "uint8"
        }
      ],
      "stateMutability": "pure",
      "type": "function"
    },
    {
      "inputs": [],
      "name": "withdraw",
      "outputs": [],
      "stateMutability": "payable",
      "type": "function"
    }
  ],
  "bytecode": "0x6080604052601e805460ff19169055348015610019575f80fd5b50614eab806100275f395ff3fe60806040526004361061030d575f3560e01c80636352211e1161019c578063a217fddf116100e7578063d05ec0a811610092578063e985e9c51161006d578063e985e9c5146109a1578063eb980abf146109f5578063f2cca28f14610a14578063f5b541a614610a33575f80fd5b8063d05ec0a814610944578063d547741f14610963578063da3ef23f14610982575f80fd5b8063b0338f2e116100c2578063b0338f2e146108df578063b88d4fde14610912578063c87b56dd14610925575f80fd5b8063a217fddf1461089a578063a22cb465146108ad578063a8c3182b146108cc575f80fd5b80638577c1fa116101475780639389085111610122578063938908511461084057806395d89b411461085f5780639c89a7b314610873575f80fd5b80638577c1fa146107b3578063912fb690146107d257806391d14854146107f1575f80fd5b806375b238fc1161017757806375b238fc1461074e5780637a3bc32f146107815780637ab06c12146107a0575f80fd5b80636352211e146106fc5780636c0360eb1461071b57806370a082311461072f575f80fd5b8063248a9ca31161025c578063411c44421161020757806353b859df116101e257806353b859df146106af57806354fd4d50146106c257806355f804b3146106dd575f80fd5b8063411c44421461065e57806342842e0e1461067d57806342966c6814610690575f80fd5b80632f2ff15d116102375780632f2ff15d1461061857806336568abe146106375780633ccfd60b14610656575f80fd5b8063248a9ca3146105805780632a55205a146105ae5780632caa9dec146105f9575f80fd5b8063172cf75f116102bc578063207a209011610297578063207a20901461050757806321f1b6771461054e57806323b872dd1461056d575f80fd5b8063172cf75f146103f157806318160ddd146104325780631a8f41931461046c575f80fd5b806306fdde03116102ec57806306fdde0314610379578063081812fc1461039a578063095ea7b3146103de575f80fd5b8062728e46146103115780630167f3c51461033257806301ffc9a714610345575b5f80fd5b34801561031c575f80fd5b5061033061032b366004613f50565b610a66565b005b610330610340366004613f88565b610ba8565b348015610350575f80fd5b5061036461035f366004613fdf565b610cd1565b60405190151581526020015b60405180910390f35b348015610384575f80fd5b5061038d610d78565b6040516103709190614065565b3480156103a5575f80fd5b506103b96103b4366004613f50565b610e08565b60405173ffffffffffffffffffffffffffffffffffffffff9091168152602001610370565b6103306103ec366004613f88565b610e67565b3480156103fc575f80fd5b506104247f9eb10b7eab35fabb5491c526a3cf39c3bb7ce2ee5d483e1558635d2c96c2085c81565b604051908152602001610370565b34801561043d575f80fd5b50600254600154037fffffffffffffffffffffffffffffffffffffffffffffffffffffffffffffffff01610424565b348015610477575f80fd5b50600a54600b54600c54600d54600e54600f546010546011546012546013546014546015546104ae9b9a999897969594939291908c565b604080519c8d5260208d019b909b52998b019890985260608a0196909652608089019490945260a088019290925260c087015260e086015261010085015261012084015261014083015261016082015261018001610370565b348015610512575f80fd5b50610424610521366004614153565b600960209081525f9283526040909220815180830184018051928152908401929093019190912091525481565b348015610559575f80fd5b506103306105683660046141a0565b610e77565b61033061057b3660046141c0565b610fba565b34801561058b575f80fd5b5061042461059a366004613f50565b5f9081526020819052604090206001015490565b3480156105b9575f80fd5b506105cd6105c83660046141a0565b6111f0565b6040805173ffffffffffffffffffffffffffffffffffffffff9093168352602083019190915201610370565b348015610604575f80fd5b5061033061061336600461423f565b611250565b348015610623575f80fd5b5061033061063236600461431e565b611626565b348015610642575f80fd5b5061033061065136600461431e565b61164f565b6103306116fe565b348015610669575f80fd5b50610330610678366004614365565b611a24565b61033061068b3660046141c0565b611ab3565b34801561069b575f80fd5b506103306106aa366004613f50565b611acd565b6103306106bd366004613f88565b611b95565b3480156106cd575f80fd5b5060405160028152602001610370565b3480156106e8575f80fd5b506103306106f7366004614391565b611d37565b348015610707575f80fd5b506103b9610716366004613f50565b611d43565b348015610726575f80fd5b5061038d611d4d565b34801561073a575f80fd5b506104246107493660046143c3565b611d5c565b348015610759575f80fd5b506104247fa49807205ce4d355092ef5a8a18f56e8913cf4a201fbe287825b095693c2177581565b34801561078c575f80fd5b5061042461079b3660046143de565b611dd3565b6103306107ae366004613f88565b611e1f565b3480156107be575f80fd5b506103306107cd366004613f50565b611f14565b3480156107dd575f80fd5b506103306107ec366004613f50565b612051565b3480156107fc575f80fd5b5061036461080b36600461431e565b5f9182526020828152604080842073ffffffffffffffffffffffffffffffffffffffff93909316845291905290205460ff1690565b34801561084b575f80fd5b5061033061085a366004613f50565b61218e565b34801561086a575f80fd5b5061038d6122cb565b34801561087e575f80fd5b506108876122da565b604051610370979695949392919061445a565b3480156108a5575f80fd5b506104245f81565b3480156108b8575f80fd5b506103306108c73660046144ea565b612550565b6103306108da366004613f88565b6125e6565b3480156108ea575f80fd5b506104247fcb7e89b7eed8294d41c0215e2f4fe023e2166afcfa3d1f479c394274afe5f01981565b61033061092036600461451a565b612705565b348015610930575f80fd5b5061038d61093f366004613f50565b61276c565b34801561094f575f80fd5b5061033061095e366004613f50565b612809565b34801561096e575f80fd5b5061033061097d36600461431e565b612946565b34801561098d575f80fd5b5061033061099c366004614391565b61296a565b3480156109ac575f80fd5b506103646109bb366004614595565b73ffffffffffffffffffffffffffffffffffffffff9182165f90815260086020908152604080832093909416825291909152205460ff1690565b348015610a00575f80fd5b50610330610a0f366004613f50565b612976565b348015610a1f575f80fd5b50610330610a2e3660046145c1565b612ab3565b348015610a3e575f80fd5b506104247f97667070c54ef182b0f5858b034beac1b6f3089aa2d3188bb1e8929f4fa9b92981565b335f9081527f7d7ffb7a348e1c6a02869081a26547b49160dd3df72d1d75a570eb9b698292ec602052604090205460ff1680610acf5750335f9081527fee57cd81e84075558e8fcc182a1f4393f91fc97f963a136e66b7f949a62f319f602052604090205460ff165b610b3a576040517f08c379a000000000000000000000000000000000000000000000000000000000815260206004820152601660248201527f4f6e6c792041646d696e206f72204f70657261746f720000000000000000000060448201526064015b60405180910390fd5b5f8111610ba3576040517f08c379a000000000000000000000000000000000000000000000000000000000815260206004820152601460248201527f496e76616c696420707269636520616d6f756e740000000000000000000000006044820152606401610b31565b600c55565b7fcb7e89b7eed8294d41c0215e2f4fe023e2166afcfa3d1f479c394274afe5f019610bd281612d54565b60408051808201909152600281527f4f470000000000000000000000000000000000000000000000000000000000006020820152600a54610c13908461463b565b341015610c5057805f6040517f422e6598000000000000000000000000000000000000000000000000000000008152600401610b31929190614652565b600e54601254601354610c67928792879286612d61565b600a546040805134815273ffffffffffffffffffffffffffffffffffffffff87166020820152908101859052606081019190915233907f12868c3639cc6f45bf88ecdaf9a5a315a966c89339b502a13c32758761b81494906080015b60405180910390a250505050565b5f7fffffffff0000000000000000000000000000000000000000000000000000000082167fc21b8f28000000000000000000000000000000000000000000000000000000001480610d6357507fffffffff0000000000000000000000000000000000000000000000000000000082167f2a55205a00000000000000000000000000000000000000000000000000000000145b80610d725750610d7282613081565b92915050565b606060038054610d8790614676565b80601f0160208091040260200160405190810160405280929190818152602001828054610db390614676565b8015610dfe5780601f10610dd557610100808354040283529160200191610dfe565b820191905f5260205f20905b815481529060010190602001808311610de157829003601f168201915b5050505050905090565b5f610e1282613161565b610e3f57610e3f7fcf4700e4000000000000000000000000000000000000000000000000000000006131c5565b505f9081526007602052604090205473ffffffffffffffffffffffffffffffffffffffff1690565b610e73828260016131cd565b5050565b335f9081527f7d7ffb7a348e1c6a02869081a26547b49160dd3df72d1d75a570eb9b698292ec602052604090205460ff1680610ee05750335f9081527fee57cd81e84075558e8fcc182a1f4393f91fc97f963a136e66b7f949a62f319f602052604090205460ff165b610f46576040517f08c379a000000000000000000000000000000000000000000000000000000000815260206004820152601660248201527f4f6e6c792041646d696e206f72204f70657261746f72000000000000000000006044820152606401610b31565b818111610faf576040517f08c379a000000000000000000000000000000000000000000000000000000000815260206004820152600f60248201527f456e64206e6f74203e20737461727400000000000000000000000000000000006044820152606401610b31565b601091909155601155565b5f610fc4826132b9565b73ffffffffffffffffffffffffffffffffffffffff9485169490915081168414611011576110117fa1148100000000000000000000000000000000000000000000000000000000006131c5565b5f82815260076020526040902080546110498187335b73ffffffffffffffffffffffffffffffffffffffff9081169116811491141790565b6110845761105786336109bb565b611084576110847f59c896be000000000000000000000000000000000000000000000000000000006131c5565b801561108e575f82555b73ffffffffffffffffffffffffffffffffffffffff8681165f9081526006602052604080822080547fffffffffffffffffffffffffffffffffffffffffffffffffffffffffffffffff019055918716808252919020805460010190554260a01b177c0200000000000000000000000000000000000000000000000000000000175f858152600560205260408120919091557c02000000000000000000000000000000000000000000000000000000008416900361117957600184015f818152600560205260408120549003611177576001548114611177575f8181526005602052604090208490555b505b73ffffffffffffffffffffffffffffffffffffffff85168481887fddf252ad1be2c89b69c2b068fc378daa952ba7f163c4a11628f55a4df523b3ef5f80a4805f036111e7576111e77fea553b34000000000000000000000000000000000000000000000000000000006131c5565b50505050505050565b601b545f90819073ffffffffffffffffffffffffffffffffffffffff6c01000000000000000000000000820416906127109061123a906bffffffffffffffffffffffff168661463b565b61124491906146c7565b915091505b9250929050565b601e5460ff16156112bd576040517f08c379a000000000000000000000000000000000000000000000000000000000815260206004820152601360248201527f416c726561647920696e697469616c697a6564000000000000000000000000006044820152606401610b31565b367ffffffffffffffffffffffffffffffffffffffffffffffffffffffffffffffffe81013560f01c90033560601c336113736112f989806146ff565b8080601f0160208091040260200160405190810160405280939291908181526020018383808284375f9201919091525061133a9250505060208b018b6146ff565b8080601f0160208091040260200160405190810160405280939291908181526020018383808284375f920191909152506133f092505050565b61139d7fa49807205ce4d355092ef5a8a18f56e8913cf4a201fbe287825b095693c2177580613412565b6113e77f97667070c54ef182b0f5858b034beac1b6f3089aa2d3188bb1e8929f4fa9b9297fa49807205ce4d355092ef5a8a18f56e8913cf4a201fbe287825b095693c21775613412565b6114317fcb7e89b7eed8294d41c0215e2f4fe023e2166afcfa3d1f479c394274afe5f0197fa49807205ce4d355092ef5a8a18f56e8913cf4a201fbe287825b095693c21775613412565b61147b7f9eb10b7eab35fabb5491c526a3cf39c3bb7ce2ee5d483e1558635d2c96c2085c7fa49807205ce4d355092ef5a8a18f56e8913cf4a201fbe287825b095693c21775613412565b6114a57fa49807205ce4d355092ef5a8a18f56e8913cf4a201fbe287825b095693c217758261345c565b6114cf7fa49807205ce4d355092ef5a8a18f56e8913cf4a201fbe287825b095693c217758361345c565b6114da86865f612ab3565b6114e684846001612ab3565b6114ff826114fa60c08b0160a08c01614760565b613513565b87601661150c82826148f7565b50508635600a556020870135600b556040870135600c556060870135600d556080870135600e5560a0870135600f5560c087013560105560e0870135601155610100870135601255610120870135601355610140870135601455610160870135601555601d8990558861157f575f611581565b805b601c80547fffffffffffffffffffffffff00000000000000000000000000000000000000001673ffffffffffffffffffffffffffffffffffffffff929092169190911790556115f07fa49807205ce4d355092ef5a8a18f56e8913cf4a201fbe287825b095693c2177582612946565b5050601e80547fffffffffffffffffffffffffffffffffffffffffffffffffffffffffffffff0016600117905550505050505050565b5f8281526020819052604090206001015461164081612d54565b61164a838361345c565b505050565b73ffffffffffffffffffffffffffffffffffffffff811633146116f4576040517f08c379a000000000000000000000000000000000000000000000000000000000815260206004820152602f60248201527f416363657373436f6e74726f6c3a2063616e206f6e6c792072656e6f756e636560448201527f20726f6c657320666f722073656c6600000000000000000000000000000000006064820152608401610b31565b610e738282613666565b7fa49807205ce4d355092ef5a8a18f56e8913cf4a201fbe287825b095693c2177561172881612d54565b601c54339073ffffffffffffffffffffffffffffffffffffffff1615611923575f612710601d544761175a919061463b565b61176491906146c7565b601c546040519192505f9173ffffffffffffffffffffffffffffffffffffffff9091169083908381818185875af1925050503d805f81146117c0576040519150601f19603f3d011682016040523d82523d5f602084013e6117c5565b606091505b5050905080611802576040517fe91555480000000000000000000000000000000000000000000000000000000081525f6004820152602401610b31565b60405147905f9073ffffffffffffffffffffffffffffffffffffffff86169083908381818185875af1925050503d805f8114611859576040519150601f19603f3d011682016040523d82523d5f602084013e61185e565b606091505b505090508061189c576040517fe915554800000000000000000000000000000000000000000000000000000000815260016004820152602401610b31565b8473ffffffffffffffffffffffffffffffffffffffff167f7e27a75faf6b8f74ec66364c1d23167ad5a538473e8bb4986ac2a26c30dbbbe6601d54846118e29190614b10565b601c54601d546040805193845273ffffffffffffffffffffffffffffffffffffffff90921660208401529082015260600160405180910390a2505050505050565b5f8173ffffffffffffffffffffffffffffffffffffffff16476040515f6040518083038185875af1925050503d805f8114611979576040519150601f19603f3d011682016040523d82523d5f602084013e61197e565b606091505b50509050806119bc576040517fe915554800000000000000000000000000000000000000000000000000000000815260026004820152602401610b31565b601c54601d546040805147815273ffffffffffffffffffffffffffffffffffffffff938416602082015290810191909152908316907f7e27a75faf6b8f74ec66364c1d23167ad5a538473e8bb4986ac2a26c30dbbbe6906060015b60405180910390a2505050565b7fa49807205ce4d355092ef5a8a18f56e8913cf4a201fbe287825b095693c21775611a4e81612d54565b611a588383613513565b6040805173ffffffffffffffffffffffffffffffffffffffff851681526bffffffffffffffffffffffff8416602082015233917f0d68bfdb860b47ebf04e76cebf91e412a17ee7ccf960b3dd8720471b090b2ea89101611a17565b61164a83838360405180602001604052805f815250612705565b33611ad782611d43565b73ffffffffffffffffffffffffffffffffffffffff1614611b54576040517f08c379a000000000000000000000000000000000000000000000000000000000815260206004820152600960248201527f4e6f74204f776e657200000000000000000000000000000000000000000000006044820152606401610b31565b611b5d8161371b565b60405181815233907f512586160ebd4dc6945ba9ec5d21a1f723f26f3c7aa36cdffb6818d4e7b880309060200160405180910390a250565b335f9081527f7d7ffb7a348e1c6a02869081a26547b49160dd3df72d1d75a570eb9b698292ec602052604090205460ff1680611bfe5750335f9081527fee57cd81e84075558e8fcc182a1f4393f91fc97f963a136e66b7f949a62f319f602052604090205460ff165b611c64576040517f08c379a000000000000000000000000000000000000000000000000000000000815260206004820152601660248201527f4f6e6c792041646d696e206f72204f70657261746f72000000000000000000006044820152606401610b31565b601a54600254600154839190037fffffffffffffffffffffffffffffffffffffffffffffffffffffffffffffffff01611c9d9190614b23565b1115611cd8576040517fc9eae84200000000000000000000000000000000000000000000000000000000815260016004820152602401610b31565b611ce28282613725565b6040805173ffffffffffffffffffffffffffffffffffffffff841681526020810183905233917f1a3e625d40ebf494638afa2b07e6a62f9fbfa2060469d5bfc998ce32d7c91b90910160405180910390a25050565b6018610e738282614b36565b5f610d72826132b9565b6060611d5761373e565b905090565b5f73ffffffffffffffffffffffffffffffffffffffff8216611da157611da17f8f4eb604000000000000000000000000000000000000000000000000000000006131c5565b5073ffffffffffffffffffffffffffffffffffffffff165f9081526006602052604090205467ffffffffffffffff1690565b73ffffffffffffffffffffffffffffffffffffffff81165f908152600960205260408082209051611e079086908690614c4e565b90815260200160405180910390205490509392505050565b60408051808201909152600781527f526567756c6172000000000000000000000000000000000000000000000000006020820152600c54611e60908361463b565b341015611e9d57805f6040517f422e6598000000000000000000000000000000000000000000000000000000008152600401610b31929190614652565b600d54601054601154611eb4928692869286612d61565b600c546040805134815273ffffffffffffffffffffffffffffffffffffffff86166020820152908101849052606081019190915233907f4b39a2b601e18792cafbb9db818cbd30b9cd45ad108161d616484ec3b3cc1def90608001611a17565b335f9081527f7d7ffb7a348e1c6a02869081a26547b49160dd3df72d1d75a570eb9b698292ec602052604090205460ff1680611f7d5750335f9081527fee57cd81e84075558e8fcc182a1f4393f91fc97f963a136e66b7f949a62f319f602052604090205460ff165b611fe3576040517f08c379a000000000000000000000000000000000000000000000000000000000815260206004820152601660248201527f4f6e6c792041646d696e206f72204f70657261746f72000000000000000000006044820152606401610b31565b5f811161204c576040517f08c379a000000000000000000000000000000000000000000000000000000000815260206004820152601460248201527f496e76616c696420707269636520616d6f756e740000000000000000000000006044820152606401610b31565b600a55565b335f9081527f7d7ffb7a348e1c6a02869081a26547b49160dd3df72d1d75a570eb9b698292ec602052604090205460ff16806120ba5750335f9081527fee57cd81e84075558e8fcc182a1f4393f91fc97f963a136e66b7f949a62f319f602052604090205460ff165b612120576040517f08c379a000000000000000000000000000000000000000000000000000000000815260206004820152601660248201527f4f6e6c792041646d696e206f72204f70657261746f72000000000000000000006044820152606401610b31565b5f8111612189576040517f08c379a000000000000000000000000000000000000000000000000000000000815260206004820152601260248201527f496e76616c6964206d617820616d6f756e7400000000000000000000000000006044820152606401610b31565b600e55565b335f9081527f7d7ffb7a348e1c6a02869081a26547b49160dd3df72d1d75a570eb9b698292ec602052604090205460ff16806121f75750335f9081527fee57cd81e84075558e8fcc182a1f4393f91fc97f963a136e66b7f949a62f319f602052604090205460ff165b61225d576040517f08c379a000000000000000000000000000000000000000000000000000000000815260206004820152601660248201527f4f6e6c792041646d696e206f72204f70657261746f72000000000000000000006044820152606401610b31565b5f81116122c6576040517f08c379a000000000000000000000000000000000000000000000000000000000815260206004820152601360248201527f496e76616c6964206d696e7420616d6f756e74000000000000000000000000006044820152606401610b31565b600d55565b606060048054610d8790614676565b6016805481906122e990614676565b80601f016020809104026020016040519081016040528092919081815260200182805461231590614676565b80156123605780601f1061233757610100808354040283529160200191612360565b820191905f5260205f20905b81548152906001019060200180831161234357829003601f168201915b50505050509080600101805461237590614676565b80601f01602080910402602001604051908101604052809291908181526020018280546123a190614676565b80156123ec5780601f106123c3576101008083540402835291602001916123ec565b820191905f5260205f20905b8154815290600101906020018083116123cf57829003601f168201915b50505050509080600201805461240190614676565b80601f016020809104026020016040519081016040528092919081815260200182805461242d90614676565b80156124785780601f1061244f57610100808354040283529160200191612478565b820191905f5260205f20905b81548152906001019060200180831161245b57829003601f168201915b50505050509080600301805461248d90614676565b80601f01602080910402602001604051908101604052809291908181526020018280546124b990614676565b80156125045780601f106124db57610100808354040283529160200191612504565b820191905f5260205f20905b8154815290600101906020018083116124e757829003601f168201915b5050505060048301546005909301549192916bffffffffffffffffffffffff811691506c01000000000000000000000000900473ffffffffffffffffffffffffffffffffffffffff1687565b335f81815260086020908152604080832073ffffffffffffffffffffffffffffffffffffffff87168085529083529281902080547fffffffffffffffffffffffffffffffffffffffffffffffffffffffffffffff001686151590811790915590519081529192917f17307eab39ab6107e8899845ad3d59bd9653f200f220920489ca2b5937696c31910160405180910390a35050565b7f9eb10b7eab35fabb5491c526a3cf39c3bb7ce2ee5d483e1558635d2c96c2085c61261081612d54565b60408051808201909152600281527f574c0000000000000000000000000000000000000000000000000000000000006020820152600b54612651908461463b565b34101561268e57805f6040517f422e6598000000000000000000000000000000000000000000000000000000008152600401610b31929190614652565b600f546014546015546126a5928792879286612d61565b600b546040805134815273ffffffffffffffffffffffffffffffffffffffff87166020820152908101859052606081019190915233907f2803fcf0a236d2815d9e6b3ef81ad6014f08139d44906d7d3cfc5302331e81e090608001610cc3565b612710848484610fba565b73ffffffffffffffffffffffffffffffffffffffff83163b156127665761273984848484613750565b612766576127667fd1a57ed6000000000000000000000000000000000000000000000000000000006131c5565b50505050565b606061277782613161565b6127ad576040517f5a13bba900000000000000000000000000000000000000000000000000000000815260040160405180910390fd5b5f6127b6611d4d565b90505f8151116127d45760405180602001604052805f815250612802565b806127de846138bd565b6040516127f2929190601990602001614c5d565b6040516020818303038152906040525b9392505050565b335f9081527f7d7ffb7a348e1c6a02869081a26547b49160dd3df72d1d75a570eb9b698292ec602052604090205460ff16806128725750335f9081527fee57cd81e84075558e8fcc182a1f4393f91fc97f963a136e66b7f949a62f319f602052604090205460ff165b6128d8576040517f08c379a000000000000000000000000000000000000000000000000000000000815260206004820152601660248201527f4f6e6c792041646d696e206f72204f70657261746f72000000000000000000006044820152606401610b31565b5f8111612941576040517f08c379a000000000000000000000000000000000000000000000000000000000815260206004820152601260248201527f496e76616c6964206d617820616d6f756e7400000000000000000000000000006044820152606401610b31565b600f55565b5f8281526020819052604090206001015461296081612d54565b61164a8383613666565b6019610e738282614b36565b335f9081527f7d7ffb7a348e1c6a02869081a26547b49160dd3df72d1d75a570eb9b698292ec602052604090205460ff16806129df5750335f9081527fee57cd81e84075558e8fcc182a1f4393f91fc97f963a136e66b7f949a62f319f602052604090205460ff165b612a45576040517f08c379a000000000000000000000000000000000000000000000000000000000815260206004820152601660248201527f4f6e6c792041646d696e206f72204f70657261746f72000000000000000000006044820152606401610b31565b5f8111612aae576040517f08c379a000000000000000000000000000000000000000000000000000000000815260206004820152601460248201527f496e76616c696420707269636520616d6f756e740000000000000000000000006044820152606401610b31565b600b55565b335f9081527f7d7ffb7a348e1c6a02869081a26547b49160dd3df72d1d75a570eb9b698292ec602052604090205460ff1680612b1c5750335f9081527fee57cd81e84075558e8fcc182a1f4393f91fc97f963a136e66b7f949a62f319f602052604090205460ff165b612b82576040517f08c379a000000000000000000000000000000000000000000000000000000000815260206004820152601660248201527f4f6e6c792041646d696e206f72204f70657261746f72000000000000000000006044820152606401610b31565b60ff81161580612b9557508060ff166001145b612bfb576040517f08c379a000000000000000000000000000000000000000000000000000000000815260206004820152601460248201527f4572726f72206f6e6c79204f473d302c574c3d310000000000000000000000006044820152606401610b31565b818015612766575f5b81811015612d4d575f858583818110612c1f57612c1f614d16565b9050602002016020810190612c3491906143c3565b73ffffffffffffffffffffffffffffffffffffffff1603612cb1576040517f08c379a000000000000000000000000000000000000000000000000000000000815260206004820152600f60248201527f496e76616c6964204164647265737300000000000000000000000000000000006044820152606401610b31565b60ff831615612d0f57612d0a7f9eb10b7eab35fabb5491c526a3cf39c3bb7ce2ee5d483e1558635d2c96c2085c868684818110612cf057612cf0614d16565b9050602002016020810190612d0591906143c3565b61345c565b612d45565b612d457fcb7e89b7eed8294d41c0215e2f4fe023e2166afcfa3d1f479c394274afe5f019868684818110612cf057612cf0614d16565b600101612c04565b5050505050565b612d5e813361391e565b50565b335f9081526009602052604090819020905185918791612d82908590614d43565b908152602001604051809103902054612d9b9190614b23565b1115612dd8578060016040517f422e6598000000000000000000000000000000000000000000000000000000008152600401610b31929190614652565b4280841015612e18578160026040517f422e6598000000000000000000000000000000000000000000000000000000008152600401610b31929190614652565b82811115612e57578160036040517f422e6598000000000000000000000000000000000000000000000000000000008152600401610b31929190614652565b6002546001547fdd970dd9b5bfe707922155b058a407655cb18288b807e2216442bca8ad83d6b59190037fffffffffffffffffffffffffffffffffffffffffffffffffffffffffffffffff01604051612eea91906040808252600f908201527f746f74616c537570706c7928293a3a00000000000000000000000000000000006060820152602081019190915260800190565b60405180910390a160408051818152600f818301527f5f6d696e74416d6f756e7428293a3a000000000000000000000000000000000060608201526020810188905290517fdd970dd9b5bfe707922155b058a407655cb18288b807e2216442bca8ad83d6b59181900360800190a1601a546040517fdd970dd9b5bfe707922155b058a407655cb18288b807e2216442bca8ad83d6b591612fc3916040808252601c908201527f636f6c6c656374696f6e446174612e6d6178537570706c7928293a3a000000006060820152602081019190915260800190565b60405180910390a1601a54600254600154889190037fffffffffffffffffffffffffffffffffffffffffffffffffffffffffffffffff016130049190614b23565b1115613041578160046040517f422e6598000000000000000000000000000000000000000000000000000000008152600401610b31929190614652565b335f90815260096020526040908190209051879190613061908590614d43565b908152604051908190036020019020805490910190556111e78787613725565b5f7f01ffc9a7000000000000000000000000000000000000000000000000000000007fffffffff000000000000000000000000000000000000000000000000000000008316148061311357507f80ac58cd000000000000000000000000000000000000000000000000000000007fffffffff000000000000000000000000000000000000000000000000000000008316145b80610d725750507fffffffff00000000000000000000000000000000000000000000000000000000167f5b5e139f000000000000000000000000000000000000000000000000000000001490565b5f816001116131c0576001548210156131c0575f5b505f828152600560205260408120549081900361319d5761319683614d5e565b9250613176565b7c0100000000000000000000000000000000000000000000000000000000161590505b919050565b805f5260045ffd5b5f6131d783611d43565b90508180156131fc57503373ffffffffffffffffffffffffffffffffffffffff821614155b156132385761320b81336109bb565b613238576132387fcfb3b942000000000000000000000000000000000000000000000000000000006131c5565b5f8381526007602052604080822080547fffffffffffffffffffffffff00000000000000000000000000000000000000001673ffffffffffffffffffffffffffffffffffffffff88811691821790925591518693918516917f8c5be1e5ebec7d5bd14f71427d1e84f3dd0314c0f7b2291e5b200ac8c7c3b92591a450505050565b5f816001116133c757505f818152600560205260408120549081900361339c57600154821061330b5761330b7fdf2d9b42000000000000000000000000000000000000000000000000000000006131c5565b5b507fffffffffffffffffffffffffffffffffffffffffffffffffffffffffffffffff015f81815260056020526040902054801561330c577c010000000000000000000000000000000000000000000000000000000081165f0361336e57919050565b6133977fdf2d9b42000000000000000000000000000000000000000000000000000000006131c5565b61330c565b7c010000000000000000000000000000000000000000000000000000000081165f036133c757919050565b6131c07fdf2d9b42000000000000000000000000000000000000000000000000000000006131c5565b60036133fc8382614b36565b5060046134098282614b36565b50600180555050565b5f82815260208190526040808220600101805490849055905190918391839186917fbd79b86ffe0ab8e8776151514217cd7cacd52c909f66475c3af44e129f0b00ff9190a4505050565b5f8281526020818152604080832073ffffffffffffffffffffffffffffffffffffffff8516845290915290205460ff16610e73575f8281526020818152604080832073ffffffffffffffffffffffffffffffffffffffff8516808552925280832080547fffffffffffffffffffffffffffffffffffffffffffffffffffffffffffffff0016600117905551339285917f2f8788117e7eff1d82e926ec794901d17c78024a50270940304540a733656f0d9190a45050565b612710816bffffffffffffffffffffffff161061358c576040517f08c379a000000000000000000000000000000000000000000000000000000000815260206004820152601d60248201527f455243323938313a20666565206578636565642073616c6550726963650000006044820152606401610b31565b73ffffffffffffffffffffffffffffffffffffffff8216613609576040517f08c379a000000000000000000000000000000000000000000000000000000000815260206004820152601960248201527f455243323938313a20696e76616c6964207265636569766572000000000000006044820152606401610b31565b6bffffffffffffffffffffffff1673ffffffffffffffffffffffffffffffffffffffff9091166c01000000000000000000000000027fffffffffffffffffffffffffffffffffffffffff0000000000000000000000001617601b55565b5f8281526020818152604080832073ffffffffffffffffffffffffffffffffffffffff8516845290915290205460ff1615610e73575f8281526020818152604080832073ffffffffffffffffffffffffffffffffffffffff8516808552925280832080547fffffffffffffffffffffffffffffffffffffffffffffffffffffffffffffff0016905551339285917ff6391f5c32d9c69d2a47ea670b442974b53935d1edc7fd64eb21e047a839171b9190a45050565b612d5e815f6139d5565b610e73828260405180602001604052805f815250613b73565b606060166002018054610d8790614676565b6040517f150b7a020000000000000000000000000000000000000000000000000000000081525f9073ffffffffffffffffffffffffffffffffffffffff85169063150b7a02906137aa903390899088908890600401614d92565b6020604051808303815f875af1925050508015613802575060408051601f3d9081017fffffffffffffffffffffffffffffffffffffffffffffffffffffffffffffffe01682019092526137ff91810190614dda565b60015b61386e573d80801561382f576040519150601f19603f3d011682016040523d82523d5f602084013e613834565b606091505b5080515f03613866576138667fd1a57ed6000000000000000000000000000000000000000000000000000000006131c5565b805181602001fd5b7fffffffff00000000000000000000000000000000000000000000000000000000167f150b7a02000000000000000000000000000000000000000000000000000000001490505b949350505050565b606060a06040510180604052602081039150505f815280825b600183039250600a81066030018353600a9004806138d657508190037fffffffffffffffffffffffffffffffffffffffffffffffffffffffffffffffe0909101908152919050565b5f8281526020818152604080832073ffffffffffffffffffffffffffffffffffffffff8516845290915290205460ff16610e735761395b81613bf9565b613966836020613c18565b604051602001613977929190614df5565b604080517fffffffffffffffffffffffffffffffffffffffffffffffffffffffffffffffe0818403018152908290527f08c379a0000000000000000000000000000000000000000000000000000000008252610b3191600401614065565b5f6139df836132b9565b9050805f806139fb865f90815260076020526040902080549091565b915091508415613a4b57613a10818433611027565b613a4b57613a1e83336109bb565b613a4b57613a4b7f59c896be000000000000000000000000000000000000000000000000000000006131c5565b8015613a55575f82555b73ffffffffffffffffffffffffffffffffffffffff83165f81815260066020526040902080546fffffffffffffffffffffffffffffffff0190554260a01b177c0300000000000000000000000000000000000000000000000000000000175f878152600560205260408120919091557c020000000000000000000000000000000000000000000000000000000085169003613b1e57600186015f818152600560205260408120549003613b1c576001548114613b1c575f8181526005602052604090208590555b505b60405186905f9073ffffffffffffffffffffffffffffffffffffffff8616907fddf252ad1be2c89b69c2b068fc378daa952ba7f163c4a11628f55a4df523b3ef908390a4505060028054600101905550505050565b613b7d8383613e55565b73ffffffffffffffffffffffffffffffffffffffff83163b1561164a576001548281035b613bb35f868380600101945086613750565b613be057613be07fd1a57ed6000000000000000000000000000000000000000000000000000000006131c5565b818110613ba1578160015414612d4d57612d4d5f6131c5565b6060610d7273ffffffffffffffffffffffffffffffffffffffff831660145b60605f613c2683600261463b565b613c31906002614b23565b67ffffffffffffffff811115613c4957613c49614077565b6040519080825280601f01601f191660200182016040528015613c73576020820181803683370190505b5090507f3000000000000000000000000000000000000000000000000000000000000000815f81518110613ca957613ca9614d16565b60200101907effffffffffffffffffffffffffffffffffffffffffffffffffffffffffffff191690815f1a9053507f780000000000000000000000000000000000000000000000000000000000000081600181518110613d0b57613d0b614d16565b60200101907effffffffffffffffffffffffffffffffffffffffffffffffffffffffffffff191690815f1a9053505f613d4584600261463b565b613d50906001614b23565b90505b6001811115613dec577f303132333435363738396162636465660000000000000000000000000000000085600f1660108110613d9157613d91614d16565b1a60f81b828281518110613da757613da7614d16565b60200101907effffffffffffffffffffffffffffffffffffffffffffffffffffffffffffff191690815f1a90535060049490941c93613de581614d5e565b9050613d53565b508315612802576040517f08c379a000000000000000000000000000000000000000000000000000000000815260206004820181905260248201527f537472696e67733a20686578206c656e67746820696e73756666696369656e746044820152606401610b31565b6001545f829003613e8957613e897fb562e8dd000000000000000000000000000000000000000000000000000000006131c5565b5f81815260056020908152604080832073ffffffffffffffffffffffffffffffffffffffff87164260a01b6001881460e11b17811790915580845260069092528220805468010000000000000001860201905590819003613f0d57613f0d7f2e076300000000000000000000000000000000000000000000000000000000006131c5565b818301825b80835f7fddf252ad1be2c89b69c2b068fc378daa952ba7f163c4a11628f55a4df523b3ef5f80a4818160010191508103613f12575060015550505050565b5f60208284031215613f60575f80fd5b5035919050565b73ffffffffffffffffffffffffffffffffffffffff81168114612d5e575f80fd5b5f8060408385031215613f99575f80fd5b8235613fa481613f67565b946020939093013593505050565b7fffffffff0000000000000000000000000000000000000000000000000000000081168114612d5e575f80fd5b5f60208284031215613fef575f80fd5b813561280281613fb2565b5f5b83811015614014578181015183820152602001613ffc565b50505f910152565b5f8151808452614033816020860160208601613ffa565b601f017fffffffffffffffffffffffffffffffffffffffffffffffffffffffffffffffe0169290920160200192915050565b602081525f612802602083018461401c565b7f4e487b71000000000000000000000000000000000000000000000000000000005f52604160045260245ffd5b5f67ffffffffffffffff808411156140be576140be614077565b604051601f85017fffffffffffffffffffffffffffffffffffffffffffffffffffffffffffffffe0908116603f0116810190828211818310171561410457614104614077565b8160405280935085815286868601111561411c575f80fd5b858560208301375f602087830101525050509392505050565b5f82601f830112614144575f80fd5b612802838335602085016140a4565b5f8060408385031215614164575f80fd5b823561416f81613f67565b9150602083013567ffffffffffffffff81111561418a575f80fd5b61419685828601614135565b9150509250929050565b5f80604083850312156141b1575f80fd5b50508035926020909101359150565b5f805f606084860312156141d2575f80fd5b83356141dd81613f67565b925060208401356141ed81613f67565b929592945050506040919091013590565b5f8083601f84011261420e575f80fd5b50813567ffffffffffffffff811115614225575f80fd5b6020830191508360208260051b8501011115611249575f80fd5b5f805f805f805f878903610200811215614257575f80fd5b88359750602089013567ffffffffffffffff80821115614275575f80fd5b908a019060e0828d031215614288575f80fd5b8198506101807fffffffffffffffffffffffffffffffffffffffffffffffffffffffffffffffc0840112156142bb575f80fd5b60408b0197506101c08b01359250808311156142d5575f80fd5b6142e18c848d016141fe565b90975095506101e08b01359250869150808311156142fd575f80fd5b505061430b8a828b016141fe565b989b979a50959850939692959293505050565b5f806040838503121561432f575f80fd5b82359150602083013561434181613f67565b809150509250929050565b6bffffffffffffffffffffffff81168114612d5e575f80fd5b5f8060408385031215614376575f80fd5b823561438181613f67565b915060208301356143418161434c565b5f602082840312156143a1575f80fd5b813567ffffffffffffffff8111156143b7575f80fd5b6138b584828501614135565b5f602082840312156143d3575f80fd5b813561280281613f67565b5f805f604084860312156143f0575f80fd5b833567ffffffffffffffff80821115614407575f80fd5b818601915086601f83011261441a575f80fd5b813581811115614428575f80fd5b876020828501011115614439575f80fd5b6020928301955093505084013561444f81613f67565b809150509250925092565b60e081525f61446c60e083018a61401c565b828103602084015261447e818a61401c565b90508281036040840152614492818961401c565b905082810360608401526144a6818861401c565b608084019690965250506bffffffffffffffffffffffff9290921660a083015273ffffffffffffffffffffffffffffffffffffffff1660c090910152949350505050565b5f80604083850312156144fb575f80fd5b823561450681613f67565b915060208301358015158114614341575f80fd5b5f805f806080858703121561452d575f80fd5b843561453881613f67565b9350602085013561454881613f67565b925060408501359150606085013567ffffffffffffffff81111561456a575f80fd5b8501601f8101871361457a575f80fd5b614589878235602084016140a4565b91505092959194509250565b5f80604083850312156145a6575f80fd5b82356145b181613f67565b9150602083013561434181613f67565b5f805f604084860312156145d3575f80fd5b833567ffffffffffffffff8111156145e9575f80fd5b6145f5868287016141fe565b909450925050602084013560ff8116811461444f575f80fd5b7f4e487b71000000000000000000000000000000000000000000000000000000005f52601160045260245ffd5b8082028115828204841417610d7257610d7261460e565b604081525f614664604083018561401c565b905060ff831660208301529392505050565b600181811c9082168061468a57607f821691505b6020821081036146c1577f4e487b71000000000000000000000000000000000000000000000000000000005f52602260045260245ffd5b50919050565b5f826146fa577f4e487b71000000000000000000000000000000000000000000000000000000005f52601260045260245ffd5b500490565b5f8083357fffffffffffffffffffffffffffffffffffffffffffffffffffffffffffffffe1843603018112614732575f80fd5b83018035915067ffffffffffffffff82111561474c575f80fd5b602001915036819003821315611249575f80fd5b5f60208284031215614770575f80fd5b81356128028161434c565b601f82111561164a575f81815260208120601f850160051c810160208610156147a15750805b601f850160051c820191505b818110156147c0578281556001016147ad565b505050505050565b67ffffffffffffffff8311156147e0576147e0614077565b6147f4836147ee8354614676565b8361477b565b5f601f841160018114614844575f851561480e5750838201355b7fffffffffffffffffffffffffffffffffffffffffffffffffffffffffffffffff600387901b1c1916600186901b178355612d4d565b5f838152602090207fffffffffffffffffffffffffffffffffffffffffffffffffffffffffffffffe0861690835b828110156148925786850135825560209485019460019092019101614872565b50868210156148cd577fffffffffffffffffffffffffffffffffffffffffffffffffffffffffffffffff60f88860031b161c19848701351681555b505060018560011b0183555050505050565b5f8135610d728161434c565b5f8135610d7281613f67565b61490182836146ff565b67ffffffffffffffff81111561491957614919614077565b61492d816149278554614676565b8561477b565b5f601f82116001811461497d575f83156149475750838201355b7fffffffffffffffffffffffffffffffffffffffffffffffffffffffffffffffff600385901b1c1916600184901b178555614a12565b5f858152602090207fffffffffffffffffffffffffffffffffffffffffffffffffffffffffffffffe0841690835b828110156149cb57868501358255602094850194600190920191016149ab565b5084821015614a06577fffffffffffffffffffffffffffffffffffffffffffffffffffffffffffffffff60f88660031b161c19848701351681555b505060018360011b0185555b50505050614a2360208301836146ff565b614a318183600186016147c8565b5050614a4060408301836146ff565b614a4e8183600286016147c8565b5050614a5d60608301836146ff565b614a6b8183600386016147c8565b50506080820135600482015560058101614ac4614a8a60a085016148df565b82547fffffffffffffffffffffffffffffffffffffffff000000000000000000000000166bffffffffffffffffffffffff91909116178255565b61164a614ad360c085016148eb565b82546bffffffffffffffffffffffff1660609190911b7fffffffffffffffffffffffffffffffffffffffff00000000000000000000000016178255565b81810381811115610d7257610d7261460e565b80820180821115610d7257610d7261460e565b815167ffffffffffffffff811115614b5057614b50614077565b614b6481614b5e8454614676565b8461477b565b602080601f831160018114614bb6575f8415614b805750858301515b7fffffffffffffffffffffffffffffffffffffffffffffffffffffffffffffffff600386901b1c1916600185901b1785556147c0565b5f858152602081207fffffffffffffffffffffffffffffffffffffffffffffffffffffffffffffffe08616915b82811015614c0257888601518255948401946001909101908401614be3565b5085821015614c3e57878501517fffffffffffffffffffffffffffffffffffffffffffffffffffffffffffffffff600388901b60f8161c191681555b5050505050600190811b01905550565b818382375f9101908152919050565b5f84516020614c6f8285838a01613ffa565b855191840191614c828184848a01613ffa565b85549201915f90614c9281614676565b60018281168015614caa5760018114614cdd57614d06565b7fffffffffffffffffffffffffffffffffffffffffffffffffffffffffffffff0084168752821515830287019450614d06565b895f52855f205f5b84811015614cfe57815489820152908301908701614ce5565b505082870194505b50929a9950505050505050505050565b7f4e487b71000000000000000000000000000000000000000000000000000000005f52603260045260245ffd5b5f8251614d54818460208701613ffa565b9190910192915050565b5f81614d6c57614d6c61460e565b507fffffffffffffffffffffffffffffffffffffffffffffffffffffffffffffffff0190565b5f73ffffffffffffffffffffffffffffffffffffffff808716835280861660208401525083604083015260806060830152614dd0608083018461401c565b9695505050505050565b5f60208284031215614dea575f80fd5b815161280281613fb2565b7f416363657373436f6e74726f6c3a206163636f756e742000000000000000000081525f8351614e2c816017850160208801613ffa565b7f206973206d697373696e6720726f6c65200000000000000000000000000000006017918401918201528351614e69816028840160208801613ffa565b0160280194935050505056fea2646970667358221220946d2da6d382ead593e9ed38062b74685740968e8b940387f09f5c41d6acaae864736f6c63430008140033",
  "linkReferences": {},
  "deployedLinkReferences": {}
}