{
	"data": {
		"bytecode": {
			"linkReferences": {},
			"object": "608060405234801561000f575f80fd5b506136838061001d5f395ff3fe6080604052600436106103c8575f3560e01c806367faf4dd116101f4578063a22cb46511610113578063e455fd71116100a8578063f2a08abb11610078578063f2a08abb14610ac2578063f2cca28f14610ad7578063f5b541a614610af6578063fd23be4e14610b16578063fe6f9d2614610b2b575f80fd5b8063e455fd7114610a09578063e4bce01614610a28578063e985e9c514610a5c578063eb980abf14610aa3575f80fd5b8063c87b56dd116100e3578063c87b56dd1461098d578063d05ec0a8146109ac578063d547741f146109cb578063da3ef23f146109ea575f80fd5b8063a22cb46514610928578063a8c3182b14610947578063b0338f2e1461095a578063b88d4fde1461097a575f80fd5b80638c36908c1161018957806395d89b411161015957806395d89b41146108c15780639a8160ec146108d55780639c5e3dd314610900578063a217fddf14610915575f80fd5b80638c36908c1461084f578063912fb6901461086457806391d148541461088357806393890851146108a2575f80fd5b8063769da943116101c4578063769da943146107f35780637ab06c12146108085780637fb4197d1461081b5780638577c1fa14610830575f80fd5b806367faf4dd1461078b5780636c0360eb146107a057806370a08231146107b457806375b238fc146107d3575f80fd5b8063248a9ca3116102eb57806342842e0e1161028057806353b859df1161025057806353b859df1461070557806354fd4d501461071857806355f804b3146107385780635f8def44146107575780636352211e1461076c575f80fd5b806342842e0e146106a957806342966c68146106bc5780634a7a52d5146106db5780634bcd8772146106f0575f80fd5b80632f2ff15d116102bb5780632f2ff15d1461064457806333726c581461066357806336568abe146106825780633ccfd60b146106a1575f80fd5b8063248a9ca3146105af5780632672c902146105dd5780632a55205a146105f15780632b892c801461062f575f80fd5b8063095ea7b311610361578063187a3dd011610331578063187a3dd01461054957806321f1b6771461056857806322f4596f1461058757806323b872dd1461059c575f80fd5b8063095ea7b3146104e357806309fd6fd2146104f6578063172cf75f1461051557806318160ddd14610535575f80fd5b80630387da421161039c5780630387da42146104615780630425c2781461047657806306fdde031461048b578063081812fc146104ac575f80fd5b8062728e46146103cc5780630167f3c5146103ed57806301ffc9a714610400578063029cf2f714610434575b5f80fd5b3480156103d7575f80fd5b506103eb6103e6366004612c6c565b610b40565b005b6103eb6103fb366004612c99565b610bbd565b34801561040b575f80fd5b5061041f61041a366004612cd6565b610cdc565b60405190151581526020015b60405180910390f35b34801561043f575f80fd5b5061045361044e366004612c6c565b610d21565b60405190815260200161042b565b34801561046c575f80fd5b5061045360d95481565b348015610481575f80fd5b5061045360d85481565b348015610496575f80fd5b5061049f610d5f565b60405161042b9190612d3e565b3480156104b7575f80fd5b506104cb6104c6366004612c6c565b610def565b6040516001600160a01b03909116815260200161042b565b6103eb6104f1366004612c99565b610e28565b348015610501575f80fd5b50610453610510366004612c6c565b610e34565b348015610520575f80fd5b506104535f8051602061362e83398151915281565b348015610540575f80fd5b50610453610e44565b348015610554575f80fd5b506103eb610563366004612d98565b610e50565b348015610573575f80fd5b506103eb610582366004612e89565b611231565b348015610592575f80fd5b5061045360df5481565b6103eb6105aa366004612ea9565b6112cd565b3480156105ba575f80fd5b506104536105c9366004612c6c565b5f908152606d602052604090206001015490565b3480156105e8575f80fd5b5061049f611431565b3480156105fc575f80fd5b5061061061060b366004612e89565b6114bd565b604080516001600160a01b03909316835260208301919091520161042b565b34801561063a575f80fd5b5061045360d15481565b34801561064f575f80fd5b506103eb61065e366004612ee2565b6114f8565b34801561066e575f80fd5b5061049f61067d366004612fa8565b611521565b34801561068d575f80fd5b506103eb61069c366004612ee2565b611556565b6103eb6115d0565b6103eb6106b7366004612ea9565b611610565b3480156106c7575f80fd5b506103eb6106d6366004612c6c565b61162a565b3480156106e6575f80fd5b5061045360d75481565b3480156106fb575f80fd5b5061045360dc5481565b6103eb610713366004612c99565b6116b7565b348015610723575f80fd5b5060405162302e3160e81b815260200161042b565b348015610743575f80fd5b506103eb61075236600461303d565b61179b565b348015610762575f80fd5b5061045360db5481565b348015610777575f80fd5b506104cb610786366004612c6c565b6117a7565b348015610796575f80fd5b5061045360d65481565b3480156107ab575f80fd5b5061049f6117b1565b3480156107bf575f80fd5b506104536107ce36600461306f565b6117be565b3480156107de575f80fd5b506104535f8051602061360e83398151915281565b3480156107fe575f80fd5b5061045360e15481565b6103eb610816366004612c99565b611802565b348015610826575f80fd5b5061045360d45481565b34801561083b575f80fd5b506103eb61084a366004612c6c565b611908565b34801561085a575f80fd5b5061045360da5481565b34801561086f575f80fd5b506103eb61087e366004612c6c565b61197c565b34801561088e575f80fd5b5061041f61089d366004612ee2565b611a15565b3480156108ad575f80fd5b506103eb6108bc366004612c6c565b611a3f565b3480156108cc575f80fd5b5061049f611ad9565b3480156108e0575f80fd5b506104536108ef36600461306f565b60e26020525f908152604090205481565b34801561090b575f80fd5b5061045360d55481565b348015610920575f80fd5b506104535f81565b348015610933575f80fd5b506103eb610942366004613088565b611ae8565b6103eb610955366004612c99565b611b53565b348015610965575f80fd5b506104535f805160206135ce83398151915281565b6103eb6109883660046130c1565b611c6d565b348015610998575f80fd5b5061049f6109a7366004612c6c565b611cae565b3480156109b7575f80fd5b506103eb6109c6366004612c6c565b611d84565b3480156109d6575f80fd5b506103eb6109e5366004612ee2565b611e1d565b3480156109f5575f80fd5b506103eb610a0436600461303d565b611e41565b348015610a14575f80fd5b50610453610a23366004612c6c565b611e4d565b348015610a33575f80fd5b50610453610a4236600461306f565b6001600160a01b03165f90815260e2602052604090205490565b348015610a67575f80fd5b5061041f610a76366004613138565b6001600160a01b039182165f90815260076020908152604080832093909416825291909152205460ff1690565b348015610aae575f80fd5b506103eb610abd366004612c6c565b611e5d565b348015610acd575f80fd5b5061045360e05481565b348015610ae2575f80fd5b506103eb610af1366004613160565b611ed1565b348015610b01575f80fd5b506104535f805160206135ee83398151915281565b348015610b21575f80fd5b5061045360d25481565b348015610b36575f80fd5b5061045360d35481565b610b575f8051602061360e83398151915233611a15565b80610b745750610b745f805160206135ee83398151915233611a15565b610b995760405162461bcd60e51b8152600401610b90906131b8565b60405180910390fd5b5f8111610bb85760405162461bcd60e51b8152600401610b90906131e8565b60d955565b610bc5612070565b5f805160206135ce833981519152610bdc816120c9565b60d45442908111801590610bf2575060d3548110155b610c315760405162461bcd60e51b815260206004820152601060248201526f4e6f74204f47206d696e742074696d6560801b6044820152606401610b90565b60df5483610c3d610e44565b610c47919061322a565b1115610c655760405162461bcd60e51b8152600401610b909061323d565b610c76348560d1548660d2546120d6565b60d154604080513481526001600160a01b0387166020820152908101859052606081019190915233907f12868c3639cc6f45bf88ecdaf9a5a315a966c89339b502a13c32758761b814949060800160405180910390a25050610cd86001609f55565b5050565b5f6001600160e01b0319821663184371e560e31b1480610d0c57506001600160e01b0319821663152a902d60e11b145b80610d1b5750610d1b826121d4565b92915050565b5f808260d154610d319190613269565b905060e0545f03610d42575f610d4e565b610d4e8160e054612208565b610d58908261322a565b9392505050565b606060028054610d6e90613280565b80601f0160208091040260200160405190810160405280929190818152602001828054610d9a90613280565b8015610de55780601f10610dbc57610100808354040283529160200191610de5565b820191905f5260205f20905b815481529060010190602001808311610dc857829003601f168201915b5050505050905090565b5f610df98261221a565b610e0d57610e0d6333d1c03960e21b612264565b505f908152600660205260409020546001600160a01b031690565b610cd88282600161226c565b5f808260d954610d319190613269565b6001545f54035f190190565b600854610100900460ff1615808015610e705750600854600160ff909116105b80610e8a5750303b158015610e8a575060085460ff166001145b610eed5760405162461bcd60e51b815260206004820152602e60248201527f496e697469616c697a61626c653a20636f6e747261637420697320616c72656160448201526d191e481a5b9a5d1a585b1a5e995960921b6064820152608401610b90565b6008805460ff191660011790558015610f10576008805461ff0019166101001790555b5f80808080610f218d8f018f612fa8565b94509450945094509450610f35838361230d565b610f3d61232f565b610f545f8051602061360e8339815191528061239c565b610f6b5f8051602061360e833981519152336123e6565b610f825f8051602061360e8339815191528061239c565b610fad5f8051602061360e8339815191523660011981013560f01c90033560601c6123e6565b6123e6565b610fd15f805160206135ce8339815191525f8051602061360e83398151915261239c565b610ff55f8051602061362e8339815191525f8051602061360e83398151915261239c565b60dd6110018282613305565b50604080518082019091526005815264173539b7b760d91b602082015260de9061102b9082613305565b5060df85905560e184905587875f81611046576110466133c1565b602002919091013560d1555087876001818110611065576110656133c1565b602002919091013560d2555087876002818110611084576110846133c1565b602002919091013560d35550878760038181106110a3576110a36133c1565b602002919091013560d45550878760048181106110c2576110c26133c1565b602002919091013560d55550878760058181106110e1576110e16133c1565b602002919091013560d6555087876006818110611100576111006133c1565b602002919091013560d755508787600781811061111f5761111f6133c1565b602002919091013560d855508787600881811061113e5761113e6133c1565b602002919091013560d955508787600981811061115d5761115d6133c1565b602002919091013560da55508787600a81811061117c5761117c6133c1565b602002919091013560db55508787600b81811061119b5761119b6133c1565b602002919091013560dc55506111b28c8c5f611ed1565b6111be8a8a6001611ed1565b60e08f90556111da5f8051602061360e83398151915233611e1d565b50505050508015611225576008805461ff0019169055604051600181527f7f26b83ff96e1f2b6a682f133852f6798a09c465da95921460cefb38474024989060200160405180910390a15b50505050505050505050565b6112485f8051602061360e83398151915233611a15565b8061126557506112655f805160206135ee83398151915233611a15565b6112815760405162461bcd60e51b8152600401610b90906131b8565b8181116112c25760405162461bcd60e51b815260206004820152600f60248201526e115b99081b9bdd080f881cdd185c9d608a1b6044820152606401610b90565b60db9190915560dc55565b5f6112d78261246b565b6001600160a01b0394851694909150811684146112fd576112fd62a1148160e81b612264565b5f82815260066020526040902080546113288187335b6001600160a01b039081169116811491141790565b61134a576113368633610a76565b61134a5761134a632ce44b5f60e11b612264565b8015611354575f82555b6001600160a01b038681165f9081526005602052604080822080545f19019055918716808252919020805460010190554260a01b17600160e11b175f85815260046020526040812091909155600160e11b841690036113e057600184015f8181526004602052604081205490036113de575f5481146113de575f8181526004602052604090208490555b505b6001600160a01b0385168481887fddf252ad1be2c89b69c2b068fc378daa952ba7f163c4a11628f55a4df523b3ef5f80a4805f0361142857611428633a954ecd60e21b612264565b50505050505050565b60de805461143e90613280565b80601f016020809104026020016040519081016040528092919081815260200182805461146a90613280565b80156114b55780601f1061148c576101008083540402835291602001916114b5565b820191905f5260205f20905b81548152906001019060200180831161149857829003601f168201915b505050505081565b5f803660011981013560f01c90033560601c91506114ef8360e154620f42406114e691906133d5565b620f4240612505565b90509250929050565b5f828152606d6020526040902060010154611512816120c9565b61151c83836123e6565b505050565b6060858585858560405160200161153c9594939291906133e8565b604051602081830303815290604052905095945050505050565b6001600160a01b03811633146115c65760405162461bcd60e51b815260206004820152602f60248201527f416363657373436f6e74726f6c3a2063616e206f6e6c792072656e6f756e636560448201526e103937b632b9903337b91039b2b63360891b6064820152608401610b90565b610cd88282612671565b5f8051602061360e8339815191526115e7816120c9565b60405133904780156108fc02915f818181858888f19350505050158015610cd8573d5f803e3d5ffd5b61151c83838360405180602001604052805f815250611c6d565b33611634826117a7565b6001600160a01b0316146116765760405162461bcd60e51b81526020600482015260096024820152682737ba1027bbb732b960b91b6044820152606401610b90565b61167f816126d7565b60405181815233907f512586160ebd4dc6945ba9ec5d21a1f723f26f3c7aa36cdffb6818d4e7b880309060200160405180910390a250565b6116bf612070565b6116d65f8051602061360e83398151915233611a15565b806116f357506116f35f805160206135ee83398151915233611a15565b61170f5760405162461bcd60e51b8152600401610b90906131b8565b60df548161171b610e44565b611725919061322a565b11156117435760405162461bcd60e51b8152600401610b909061323d565b61174d82826126e1565b604080516001600160a01b03841681526020810183905233917f1a3e625d40ebf494638afa2b07e6a62f9fbfa2060469d5bfc998ce32d7c91b90910160405180910390a2610cd86001609f55565b60dd610cd88282613305565b5f610d1b8261246b565b60dd805461143e90613280565b5f6001600160a01b0382166117dd576117dd6323d3ad8160e21b612264565b506001600160a01b03165f9081526005602052604090205467ffffffffffffffff1690565b61180a612070565b60dc5442908111801590611820575060db548110155b6118625760405162461bcd60e51b81526020600482015260136024820152724e6f7420526567756c6172206d696e54696d6560681b6044820152606401610b90565b60df548261186e610e44565b611878919061322a565b11156118965760405162461bcd60e51b8152600401610b909061323d565b6118a7348460d9548560da546120d6565b60d954604080513481526001600160a01b0386166020820152908101849052606081019190915233907f4b39a2b601e18792cafbb9db818cbd30b9cd45ad108161d616484ec3b3cc1def9060800160405180910390a250610cd86001609f55565b61191f5f8051602061360e83398151915233611a15565b8061193c575061193c5f805160206135ee83398151915233611a15565b6119585760405162461bcd60e51b8152600401610b90906131b8565b5f81116119775760405162461bcd60e51b8152600401610b90906131e8565b60d155565b6119935f8051602061360e83398151915233611a15565b806119b057506119b05f805160206135ee83398151915233611a15565b6119cc5760405162461bcd60e51b8152600401610b90906131b8565b5f8111611a105760405162461bcd60e51b8152602060048201526012602482015271125b9d985b1a59081b585e08185b5bdd5b9d60721b6044820152606401610b90565b60d255565b5f918252606d602090815260408084206001600160a01b0393909316845291905290205460ff1690565b611a565f8051602061360e83398151915233611a15565b80611a735750611a735f805160206135ee83398151915233611a15565b611a8f5760405162461bcd60e51b8152600401610b90906131b8565b5f8111611ad45760405162461bcd60e51b8152602060048201526013602482015272125b9d985b1a59081b5a5b9d08185b5bdd5b9d606a1b6044820152606401610b90565b60da55565b606060038054610d6e90613280565b335f8181526007602090815260408083206001600160a01b03871680855290835292819020805460ff191686151590811790915590519081529192917f17307eab39ab6107e8899845ad3d59bd9653f200f220920489ca2b5937696c31910160405180910390a35050565b5f8051602061362e833981519152611b6a816120c9565b611b72612070565b60d85442908111801590611b88575060d7548110155b611bc75760405162461bcd60e51b815260206004820152601060248201526f4e6f74204f47206d696e742074696d6560801b6044820152606401610b90565b60df5483611bd3610e44565b611bdd919061322a565b1115611bfb5760405162461bcd60e51b8152600401610b909061323d565b611c0c348560d5548660d6546120d6565b60d554604080513481526001600160a01b0387166020820152908101859052606081019190915233907f2803fcf0a236d2815d9e6b3ef81ad6014f08139d44906d7d3cfc5302331e81e09060800160405180910390a25061151c6001609f55565b611c788484846112cd565b6001600160a01b0383163b15611ca857611c94848484846126fa565b611ca857611ca86368d2bf6b60e11b612264565b50505050565b6060611cb98261221a565b611d1d5760405162461bcd60e51b815260206004820152602f60248201527f4552433732314d657461646174613a2055524920717565727920666f72206e6f60448201526e3732bc34b9ba32b73a103a37b5b2b760891b6064820152608401610b90565b5f611d3260408051602081019091525f815290565b90505f815111611d505760405180602001604052805f815250610d58565b80611d5a846127d9565b60de604051602001611d6e93929190613438565b6040516020818303038152906040529392505050565b611d9b5f8051602061360e83398151915233611a15565b80611db85750611db85f805160206135ee83398151915233611a15565b611dd45760405162461bcd60e51b8152600401610b90906131b8565b5f8111611e185760405162461bcd60e51b8152602060048201526012602482015271125b9d985b1a59081b585e08185b5bdd5b9d60721b6044820152606401610b90565b60d655565b5f828152606d6020526040902060010154611e37816120c9565b61151c8383612671565b60de610cd88282613305565b5f808260d554610d319190613269565b611e745f8051602061360e83398151915233611a15565b80611e915750611e915f805160206135ee83398151915233611a15565b611ead5760405162461bcd60e51b8152600401610b90906131b8565b5f8111611ecc5760405162461bcd60e51b8152600401610b90906131e8565b60d555565b611ee85f8051602061360e83398151915233611a15565b80611f055750611f055f805160206135ee83398151915233611a15565b611f215760405162461bcd60e51b8152600401610b90906131b8565b60ff81161580611f3457508060ff166001145b611f775760405162461bcd60e51b81526020600482015260146024820152734572726f72206f6e6c79204f473d302c574c3d3160601b6044820152606401610b90565b818015611ca8575f5b81811015612069575f858583818110611f9b57611f9b6133c1565b9050602002016020810190611fb0919061306f565b6001600160a01b031603611ff85760405162461bcd60e51b815260206004820152600f60248201526e496e76616c6964204164647265737360881b6044820152606401610b90565b60ff83161561203e576120395f8051602061362e833981519152868684818110612024576120246133c1565b9050602002016020810190610fa8919061306f565b612061565b6120615f805160206135ce833981519152868684818110612024576120246133c1565b600101611f80565b5050505050565b6002609f54036120c25760405162461bcd60e51b815260206004820152601f60248201527f5265656e7472616e637947756172643a207265656e7472616e742063616c6c006044820152606401610b90565b6002609f55565b6120d3813361281c565b50565b335f90815260e2602052604090205481906120f290849061322a565b11156121325760405162461bcd60e51b815260206004820152600f60248201526e115e18d959591cc81b585e135a5b9d608a1b6044820152606401610b90565b5f61213d8484613269565b90505f60e0545f0361214f575f61215b565b61215b8260e054612208565b9050612167818361322a565b8710156121b65760405162461bcd60e51b815260206004820152601960248201527f496e73756666696369656e74206d696e74207061796d656e74000000000000006044820152606401610b90565b335f90815260e26020526040902080548501905561142886856126e1565b5f6001600160e01b03198216637965db0b60e01b1480610d1b57506301ffc9a760e01b6001600160e01b0319831614610d1b565b5f610d58836114e684620f42406133d5565b5f8160011161225f575f5482101561225f575f5b505f82815260046020526040812054908190036122555761224e836134d3565b925061222e565b600160e01b161590505b919050565b805f5260045ffd5b5f612276836117a7565b905081801561228e5750336001600160a01b03821614155b156122b15761229d8133610a76565b6122b1576122b16367d9dca160e11b612264565b5f8381526006602052604080822080546001600160a01b0319166001600160a01b0388811691821790925591518693918516917f8c5be1e5ebec7d5bd14f71427d1e84f3dd0314c0f7b2291e5b200ac8c7c3b92591a450505050565b60026123198382613305565b5060036123268282613305565b5060015f555050565b600854610100900460ff1661239a5760405162461bcd60e51b815260206004820152602b60248201527f496e697469616c697a61626c653a20636f6e7472616374206973206e6f74206960448201526a6e697469616c697a696e6760a81b6064820152608401610b90565b565b5f828152606d6020526040808220600101805490849055905190918391839186917fbd79b86ffe0ab8e8776151514217cd7cacd52c909f66475c3af44e129f0b00ff9190a4505050565b6123f08282611a15565b610cd8575f828152606d602090815260408083206001600160a01b03851684529091529020805460ff191660011790556124273390565b6001600160a01b0316816001600160a01b0316837f2f8788117e7eff1d82e926ec794901d17c78024a50270940304540a733656f0d60405160405180910390a45050565b5f816001116124f557505f81815260046020526040812054908190036124e3575f5482106124a3576124a3636f96cda160e11b612264565b5b505f19015f8181526004602052604090205480156124a457600160e01b81165f036124ce57919050565b6124de636f96cda160e11b612264565b6124a4565b600160e01b81165f036124f557919050565b61225f636f96cda160e11b612264565b5f80805f19858709858702925082811083820303915050805f03612539575f841161252e575f80fd5b508290049050610d58565b808411612544575f80fd5b5f848688098084039381119092039190505f85612560816134e8565b16958690049593849004935f81900304600101905061257f8184613269565b909317925f61258f876003613269565b600218905061259e8188613269565b6125a99060026133d5565b6125b39082613269565b90506125bf8188613269565b6125ca9060026133d5565b6125d49082613269565b90506125e08188613269565b6125eb9060026133d5565b6125f59082613269565b90506126018188613269565b61260c9060026133d5565b6126169082613269565b90506126228188613269565b61262d9060026133d5565b6126379082613269565b90506126438188613269565b61264e9060026133d5565b6126589082613269565b90506126648186613269565b9998505050505050505050565b61267b8282611a15565b15610cd8575f828152606d602090815260408083206001600160a01b0385168085529252808320805460ff1916905551339285917ff6391f5c32d9c69d2a47ea670b442974b53935d1edc7fd64eb21e047a839171b9190a45050565b6120d3815f612875565b610cd8828260405180602001604052805f8152506129ac565b604051630a85bd0160e11b81525f906001600160a01b0385169063150b7a029061272e903390899088908890600401613502565b6020604051808303815f875af1925050508015612768575060408051601f3d908101601f191682019092526127659181019061353e565b60015b6127bb573d808015612795576040519150601f19603f3d011682016040523d82523d5f602084013e61279a565b606091505b5080515f036127b3576127b36368d2bf6b60e11b612264565b805181602001fd5b6001600160e01b031916630a85bd0160e11b1490505b949350505050565b606060a06040510180604052602081039150505f815280825b600183039250600a81066030018353600a9004806127f25750819003601f19909101908152919050565b6128268282611a15565b610cd85761283381612a0a565b61283e836020612a1c565b60405160200161284f929190613559565b60408051601f198184030181529082905262461bcd60e51b8252610b9091600401612d3e565b5f61287f8361246b565b9050805f8061289b865f90815260066020526040902080549091565b9150915084156128d2576128b0818433611313565b6128d2576128be8333610a76565b6128d2576128d2632ce44b5f60e11b612264565b80156128dc575f82555b6001600160a01b0383165f81815260056020526040902080546fffffffffffffffffffffffffffffffff0190554260a01b17600360e01b175f87815260046020526040812091909155600160e11b8516900361296557600186015f818152600460205260408120549003612963575f548114612963575f8181526004602052604090208590555b505b60405186905f906001600160a01b038616907fddf252ad1be2c89b69c2b068fc378daa952ba7f163c4a11628f55a4df523b3ef908390a45050600180548101905550505050565b6129b68383612bb2565b6001600160a01b0383163b1561151c575f548281035b6129de5f8683806001019450866126fa565b6129f2576129f26368d2bf6b60e11b612264565b8181106129cc57815f5414612069576120695f612264565b6060610d1b6001600160a01b03831660145b60605f612a2a836002613269565b612a3590600261322a565b67ffffffffffffffff811115612a4d57612a4d612f03565b6040519080825280601f01601f191660200182016040528015612a77576020820181803683370190505b509050600360fc1b815f81518110612a9157612a916133c1565b60200101906001600160f81b03191690815f1a905350600f60fb1b81600181518110612abf57612abf6133c1565b60200101906001600160f81b03191690815f1a9053505f612ae1846002613269565b612aec90600161322a565b90505b6001811115612b63576f181899199a1a9b1b9c1cb0b131b232b360811b85600f1660108110612b2057612b206133c1565b1a60f81b828281518110612b3657612b366133c1565b60200101906001600160f81b03191690815f1a90535060049490941c93612b5c816134d3565b9050612aef565b508315610d585760405162461bcd60e51b815260206004820181905260248201527f537472696e67733a20686578206c656e67746820696e73756666696369656e746044820152606401610b90565b5f805490829003612bcd57612bcd63b562e8dd60e01b612264565b5f8181526004602090815260408083206001600160a01b0387164260a01b6001881460e11b17811790915580845260059092528220805468010000000000000001860201905590819003612c2a57612c2a622e076360e81b612264565b818301825b80835f7fddf252ad1be2c89b69c2b068fc378daa952ba7f163c4a11628f55a4df523b3ef5f80a4818160010191508103612c2f57505f5550505050565b5f60208284031215612c7c575f80fd5b5035919050565b80356001600160a01b038116811461225f575f80fd5b5f8060408385031215612caa575f80fd5b612cb383612c83565b946020939093013593505050565b6001600160e01b0319811681146120d3575f80fd5b5f60208284031215612ce6575f80fd5b8135610d5881612cc1565b5f5b83811015612d0b578181015183820152602001612cf3565b50505f910152565b5f8151808452612d2a816020860160208601612cf1565b601f01601f19169290920160200192915050565b602081525f610d586020830184612d13565b5f8083601f840112612d60575f80fd5b50813567ffffffffffffffff811115612d77575f80fd5b6020830191508360208260051b8501011115612d91575f80fd5b9250929050565b5f805f805f805f805f60a08a8c031215612db0575f80fd5b8935985060208a013567ffffffffffffffff80821115612dce575f80fd5b818c0191508c601f830112612de1575f80fd5b813581811115612def575f80fd5b8d6020828501011115612e00575f80fd5b602083019a508099505060408c0135915080821115612e1d575f80fd5b612e298d838e01612d50565b909850965060608c0135915080821115612e41575f80fd5b612e4d8d838e01612d50565b909650945060808c0135915080821115612e65575f80fd5b50612e728c828d01612d50565b915080935050809150509295985092959850929598565b5f8060408385031215612e9a575f80fd5b50508035926020909101359150565b5f805f60608486031215612ebb575f80fd5b612ec484612c83565b9250612ed260208501612c83565b9150604084013590509250925092565b5f8060408385031215612ef3575f80fd5b823591506114ef60208401612c83565b634e487b7160e01b5f52604160045260245ffd5b5f67ffffffffffffffff80841115612f3157612f31612f03565b604051601f8501601f19908116603f01168101908282118183101715612f5957612f59612f03565b81604052809350858152868686011115612f71575f80fd5b858560208301375f602087830101525050509392505050565b5f82601f830112612f99575f80fd5b610d5883833560208501612f17565b5f805f805f60a08688031215612fbc575f80fd5b8535945060208601359350604086013567ffffffffffffffff80821115612fe1575f80fd5b612fed89838a01612f8a565b94506060880135915080821115613002575f80fd5b61300e89838a01612f8a565b93506080880135915080821115613023575f80fd5b5061303088828901612f8a565b9150509295509295909350565b5f6020828403121561304d575f80fd5b813567ffffffffffffffff811115613063575f80fd5b6127d184828501612f8a565b5f6020828403121561307f575f80fd5b610d5882612c83565b5f8060408385031215613099575f80fd5b6130a283612c83565b9150602083013580151581146130b6575f80fd5b809150509250929050565b5f805f80608085870312156130d4575f80fd5b6130dd85612c83565b93506130eb60208601612c83565b925060408501359150606085013567ffffffffffffffff81111561310d575f80fd5b8501601f8101871361311d575f80fd5b61312c87823560208401612f17565b91505092959194509250565b5f8060408385031215613149575f80fd5b61315283612c83565b91506114ef60208401612c83565b5f805f60408486031215613172575f80fd5b833567ffffffffffffffff811115613188575f80fd5b61319486828701612d50565b909450925050602084013560ff811681146131ad575f80fd5b809150509250925092565b60208082526016908201527527b7363c9020b236b4b71037b91027b832b930ba37b960511b604082015260600190565b602080825260149082015273125b9d985b1a59081c1c9a58d948185b5bdd5b9d60621b604082015260600190565b634e487b7160e01b5f52601160045260245ffd5b80820180821115610d1b57610d1b613216565b60208082526012908201527127bb32b91036b4b73a26b0bc1032b93937b960711b604082015260600190565b8082028115828204841417610d1b57610d1b613216565b600181811c9082168061329457607f821691505b6020821081036132b257634e487b7160e01b5f52602260045260245ffd5b50919050565b601f82111561151c575f81815260208120601f850160051c810160208610156132de5750805b601f850160051c820191505b818110156132fd578281556001016132ea565b505050505050565b815167ffffffffffffffff81111561331f5761331f612f03565b6133338161332d8454613280565b846132b8565b602080601f831160018114613366575f841561334f5750858301515b5f19600386901b1c1916600185901b1785556132fd565b5f85815260208120601f198616915b8281101561339457888601518255948401946001909101908401613375565b50858210156133b157878501515f19600388901b60f8161c191681555b5050505050600190811b01905550565b634e487b7160e01b5f52603260045260245ffd5b81810381811115610d1b57610d1b613216565b85815284602082015260a060408201525f61340660a0830186612d13565b82810360608401526134188186612d13565b9050828103608084015261342c8185612d13565b98975050505050505050565b5f8451602061344a8285838a01612cf1565b85519184019161345d8184848a01612cf1565b85549201915f9061346d81613280565b60018281168015613485576001811461349a576134c3565b60ff19841687528215158302870194506134c3565b895f52855f205f5b848110156134bb578154898201529083019087016134a2565b505082870194505b50929a9950505050505050505050565b5f816134e1576134e1613216565b505f190190565b5f600160ff1b82016134fc576134fc613216565b505f0390565b6001600160a01b03858116825284166020820152604081018390526080606082018190525f9061353490830184612d13565b9695505050505050565b5f6020828403121561354e575f80fd5b8151610d5881612cc1565b7f416363657373436f6e74726f6c3a206163636f756e742000000000000000000081525f8351613590816017850160208801612cf1565b7001034b99036b4b9b9b4b733903937b6329607d1b60179184019182015283516135c1816028840160208801612cf1565b0160280194935050505056fecb7e89b7eed8294d41c0215e2f4fe023e2166afcfa3d1f479c394274afe5f01997667070c54ef182b0f5858b034beac1b6f3089aa2d3188bb1e8929f4fa9b929a49807205ce4d355092ef5a8a18f56e8913cf4a201fbe287825b095693c217759eb10b7eab35fabb5491c526a3cf39c3bb7ce2ee5d483e1558635d2c96c2085ca264697066735822122054dcf696d529107215ef65635cb787e74076454e579490bc591ade865237bd7964736f6c63430008140033",
			"opcodes": "PUSH1 0x80 PUSH1 0x40 MSTORE CALLVALUE DUP1 ISZERO PUSH2 0xF JUMPI PUSH0 DUP1 REVERT JUMPDEST POP PUSH2 0x3683 DUP1 PUSH2 0x1D PUSH0 CODECOPY PUSH0 RETURN INVALID PUSH1 0x80 PUSH1 0x40 MSTORE PUSH1 0x4 CALLDATASIZE LT PUSH2 0x3C8 JUMPI PUSH0 CALLDATALOAD PUSH1 0xE0 SHR DUP1 PUSH4 0x67FAF4DD GT PUSH2 0x1F4 JUMPI DUP1 PUSH4 0xA22CB465 GT PUSH2 0x113 JUMPI DUP1 PUSH4 0xE455FD71 GT PUSH2 0xA8 JUMPI DUP1 PUSH4 0xF2A08ABB GT PUSH2 0x78 JUMPI DUP1 PUSH4 0xF2A08ABB EQ PUSH2 0xAC2 JUMPI DUP1 PUSH4 0xF2CCA28F EQ PUSH2 0xAD7 JUMPI DUP1 PUSH4 0xF5B541A6 EQ PUSH2 0xAF6 JUMPI DUP1 PUSH4 0xFD23BE4E EQ PUSH2 0xB16 JUMPI DUP1 PUSH4 0xFE6F9D26 EQ PUSH2 0xB2B JUMPI PUSH0 DUP1 REVERT JUMPDEST DUP1 PUSH4 0xE455FD71 EQ PUSH2 0xA09 JUMPI DUP1 PUSH4 0xE4BCE016 EQ PUSH2 0xA28 JUMPI DUP1 PUSH4 0xE985E9C5 EQ PUSH2 0xA5C JUMPI DUP1 PUSH4 0xEB980ABF EQ PUSH2 0xAA3 JUMPI PUSH0 DUP1 REVERT JUMPDEST DUP1 PUSH4 0xC87B56DD GT PUSH2 0xE3 JUMPI DUP1 PUSH4 0xC87B56DD EQ PUSH2 0x98D JUMPI DUP1 PUSH4 0xD05EC0A8 EQ PUSH2 0x9AC JUMPI DUP1 PUSH4 0xD547741F EQ PUSH2 0x9CB JUMPI DUP1 PUSH4 0xDA3EF23F EQ PUSH2 0x9EA JUMPI PUSH0 DUP1 REVERT JUMPDEST DUP1 PUSH4 0xA22CB465 EQ PUSH2 0x928 JUMPI DUP1 PUSH4 0xA8C3182B EQ PUSH2 0x947 JUMPI DUP1 PUSH4 0xB0338F2E EQ PUSH2 0x95A JUMPI DUP1 PUSH4 0xB88D4FDE EQ PUSH2 0x97A JUMPI PUSH0 DUP1 REVERT JUMPDEST DUP1 PUSH4 0x8C36908C GT PUSH2 0x189 JUMPI DUP1 PUSH4 0x95D89B41 GT PUSH2 0x159 JUMPI DUP1 PUSH4 0x95D89B41 EQ PUSH2 0x8C1 JUMPI DUP1 PUSH4 0x9A8160EC EQ PUSH2 0x8D5 JUMPI DUP1 PUSH4 0x9C5E3DD3 EQ PUSH2 0x900 JUMPI DUP1 PUSH4 0xA217FDDF EQ PUSH2 0x915 JUMPI PUSH0 DUP1 REVERT JUMPDEST DUP1 PUSH4 0x8C36908C EQ PUSH2 0x84F JUMPI DUP1 PUSH4 0x912FB690 EQ PUSH2 0x864 JUMPI DUP1 PUSH4 0x91D14854 EQ PUSH2 0x883 JUMPI DUP1 PUSH4 0x93890851 EQ PUSH2 0x8A2 JUMPI PUSH0 DUP1 REVERT JUMPDEST DUP1 PUSH4 0x769DA943 GT PUSH2 0x1C4 JUMPI DUP1 PUSH4 0x769DA943 EQ PUSH2 0x7F3 JUMPI DUP1 PUSH4 0x7AB06C12 EQ PUSH2 0x808 JUMPI DUP1 PUSH4 0x7FB4197D EQ PUSH2 0x81B JUMPI DUP1 PUSH4 0x8577C1FA EQ PUSH2 0x830 JUMPI PUSH0 DUP1 REVERT JUMPDEST DUP1 PUSH4 0x67FAF4DD EQ PUSH2 0x78B JUMPI DUP1 PUSH4 0x6C0360EB EQ PUSH2 0x7A0 JUMPI DUP1 PUSH4 0x70A08231 EQ PUSH2 0x7B4 JUMPI DUP1 PUSH4 0x75B238FC EQ PUSH2 0x7D3 JUMPI PUSH0 DUP1 REVERT JUMPDEST DUP1 PUSH4 0x248A9CA3 GT PUSH2 0x2EB JUMPI DUP1 PUSH4 0x42842E0E GT PUSH2 0x280 JUMPI DUP1 PUSH4 0x53B859DF GT PUSH2 0x250 JUMPI DUP1 PUSH4 0x53B859DF EQ PUSH2 0x705 JUMPI DUP1 PUSH4 0x54FD4D50 EQ PUSH2 0x718 JUMPI DUP1 PUSH4 0x55F804B3 EQ PUSH2 0x738 JUMPI DUP1 PUSH4 0x5F8DEF44 EQ PUSH2 0x757 JUMPI DUP1 PUSH4 0x6352211E EQ PUSH2 0x76C JUMPI PUSH0 DUP1 REVERT JUMPDEST DUP1 PUSH4 0x42842E0E EQ PUSH2 0x6A9 JUMPI DUP1 PUSH4 0x42966C68 EQ PUSH2 0x6BC JUMPI DUP1 PUSH4 0x4A7A52D5 EQ PUSH2 0x6DB JUMPI DUP1 PUSH4 0x4BCD8772 EQ PUSH2 0x6F0 JUMPI PUSH0 DUP1 REVERT JUMPDEST DUP1 PUSH4 0x2F2FF15D GT PUSH2 0x2BB JUMPI DUP1 PUSH4 0x2F2FF15D EQ PUSH2 0x644 JUMPI DUP1 PUSH4 0x33726C58 EQ PUSH2 0x663 JUMPI DUP1 PUSH4 0x36568ABE EQ PUSH2 0x682 JUMPI DUP1 PUSH4 0x3CCFD60B EQ PUSH2 0x6A1 JUMPI PUSH0 DUP1 REVERT JUMPDEST DUP1 PUSH4 0x248A9CA3 EQ PUSH2 0x5AF JUMPI DUP1 PUSH4 0x2672C902 EQ PUSH2 0x5DD JUMPI DUP1 PUSH4 0x2A55205A EQ PUSH2 0x5F1 JUMPI DUP1 PUSH4 0x2B892C80 EQ PUSH2 0x62F JUMPI PUSH0 DUP1 REVERT JUMPDEST DUP1 PUSH4 0x95EA7B3 GT PUSH2 0x361 JUMPI DUP1 PUSH4 0x187A3DD0 GT PUSH2 0x331 JUMPI DUP1 PUSH4 0x187A3DD0 EQ PUSH2 0x549 JUMPI DUP1 PUSH4 0x21F1B677 EQ PUSH2 0x568 JUMPI DUP1 PUSH4 0x22F4596F EQ PUSH2 0x587 JUMPI DUP1 PUSH4 0x23B872DD EQ PUSH2 0x59C JUMPI PUSH0 DUP1 REVERT JUMPDEST DUP1 PUSH4 0x95EA7B3 EQ PUSH2 0x4E3 JUMPI DUP1 PUSH4 0x9FD6FD2 EQ PUSH2 0x4F6 JUMPI DUP1 PUSH4 0x172CF75F EQ PUSH2 0x515 JUMPI DUP1 PUSH4 0x18160DDD EQ PUSH2 0x535 JUMPI PUSH0 DUP1 REVERT JUMPDEST DUP1 PUSH4 0x387DA42 GT PUSH2 0x39C JUMPI DUP1 PUSH4 0x387DA42 EQ PUSH2 0x461 JUMPI DUP1 PUSH4 0x425C278 EQ PUSH2 0x476 JUMPI DUP1 PUSH4 0x6FDDE03 EQ PUSH2 0x48B JUMPI DUP1 PUSH4 0x81812FC EQ PUSH2 0x4AC JUMPI PUSH0 DUP1 REVERT JUMPDEST DUP1 PUSH3 0x728E46 EQ PUSH2 0x3CC JUMPI DUP1 PUSH4 0x167F3C5 EQ PUSH2 0x3ED JUMPI DUP1 PUSH4 0x1FFC9A7 EQ PUSH2 0x400 JUMPI DUP1 PUSH4 0x29CF2F7 EQ PUSH2 0x434 JUMPI JUMPDEST PUSH0 DUP1 REVERT JUMPDEST CALLVALUE DUP1 ISZERO PUSH2 0x3D7 JUMPI PUSH0 DUP1 REVERT JUMPDEST POP PUSH2 0x3EB PUSH2 0x3E6 CALLDATASIZE PUSH1 0x4 PUSH2 0x2C6C JUMP JUMPDEST PUSH2 0xB40 JUMP JUMPDEST STOP JUMPDEST PUSH2 0x3EB PUSH2 0x3FB CALLDATASIZE PUSH1 0x4 PUSH2 0x2C99 JUMP JUMPDEST PUSH2 0xBBD JUMP JUMPDEST CALLVALUE DUP1 ISZERO PUSH2 0x40B JUMPI PUSH0 DUP1 REVERT JUMPDEST POP PUSH2 0x41F PUSH2 0x41A CALLDATASIZE PUSH1 0x4 PUSH2 0x2CD6 JUMP JUMPDEST PUSH2 0xCDC JUMP JUMPDEST PUSH1 0x40 MLOAD SWAP1 ISZERO ISZERO DUP2 MSTORE PUSH1 0x20 ADD JUMPDEST PUSH1 0x40 MLOAD DUP1 SWAP2 SUB SWAP1 RETURN JUMPDEST CALLVALUE DUP1 ISZERO PUSH2 0x43F JUMPI PUSH0 DUP1 REVERT JUMPDEST POP PUSH2 0x453 PUSH2 0x44E CALLDATASIZE PUSH1 0x4 PUSH2 0x2C6C JUMP JUMPDEST PUSH2 0xD21 JUMP JUMPDEST PUSH1 0x40 MLOAD SWAP1 DUP2 MSTORE PUSH1 0x20 ADD PUSH2 0x42B JUMP JUMPDEST CALLVALUE DUP1 ISZERO PUSH2 0x46C JUMPI PUSH0 DUP1 REVERT JUMPDEST POP PUSH2 0x453 PUSH1 0xD9 SLOAD DUP2 JUMP JUMPDEST CALLVALUE DUP1 ISZERO PUSH2 0x481 JUMPI PUSH0 DUP1 REVERT JUMPDEST POP PUSH2 0x453 PUSH1 0xD8 SLOAD DUP2 JUMP JUMPDEST CALLVALUE DUP1 ISZERO PUSH2 0x496 JUMPI PUSH0 DUP1 REVERT JUMPDEST POP PUSH2 0x49F PUSH2 0xD5F JUMP JUMPDEST PUSH1 0x40 MLOAD PUSH2 0x42B SWAP2 SWAP1 PUSH2 0x2D3E JUMP JUMPDEST CALLVALUE DUP1 ISZERO PUSH2 0x4B7 JUMPI PUSH0 DUP1 REVERT JUMPDEST POP PUSH2 0x4CB PUSH2 0x4C6 CALLDATASIZE PUSH1 0x4 PUSH2 0x2C6C JUMP JUMPDEST PUSH2 0xDEF JUMP JUMPDEST PUSH1 0x40 MLOAD PUSH1 0x1 PUSH1 0x1 PUSH1 0xA0 SHL SUB SWAP1 SWAP2 AND DUP2 MSTORE PUSH1 0x20 ADD PUSH2 0x42B JUMP JUMPDEST PUSH2 0x3EB PUSH2 0x4F1 CALLDATASIZE PUSH1 0x4 PUSH2 0x2C99 JUMP JUMPDEST PUSH2 0xE28 JUMP JUMPDEST CALLVALUE DUP1 ISZERO PUSH2 0x501 JUMPI PUSH0 DUP1 REVERT JUMPDEST POP PUSH2 0x453 PUSH2 0x510 CALLDATASIZE PUSH1 0x4 PUSH2 0x2C6C JUMP JUMPDEST PUSH2 0xE34 JUMP JUMPDEST CALLVALUE DUP1 ISZERO PUSH2 0x520 JUMPI PUSH0 DUP1 REVERT JUMPDEST POP PUSH2 0x453 PUSH0 DUP1 MLOAD PUSH1 0x20 PUSH2 0x362E DUP4 CODECOPY DUP2 MLOAD SWAP2 MSTORE DUP2 JUMP JUMPDEST CALLVALUE DUP1 ISZERO PUSH2 0x540 JUMPI PUSH0 DUP1 REVERT JUMPDEST POP PUSH2 0x453 PUSH2 0xE44 JUMP JUMPDEST CALLVALUE DUP1 ISZERO PUSH2 0x554 JUMPI PUSH0 DUP1 REVERT JUMPDEST POP PUSH2 0x3EB PUSH2 0x563 CALLDATASIZE PUSH1 0x4 PUSH2 0x2D98 JUMP JUMPDEST PUSH2 0xE50 JUMP JUMPDEST CALLVALUE DUP1 ISZERO PUSH2 0x573 JUMPI PUSH0 DUP1 REVERT JUMPDEST POP PUSH2 0x3EB PUSH2 0x582 CALLDATASIZE PUSH1 0x4 PUSH2 0x2E89 JUMP JUMPDEST PUSH2 0x1231 JUMP JUMPDEST CALLVALUE DUP1 ISZERO PUSH2 0x592 JUMPI PUSH0 DUP1 REVERT JUMPDEST POP PUSH2 0x453 PUSH1 0xDF SLOAD DUP2 JUMP JUMPDEST PUSH2 0x3EB PUSH2 0x5AA CALLDATASIZE PUSH1 0x4 PUSH2 0x2EA9 JUMP JUMPDEST PUSH2 0x12CD JUMP JUMPDEST CALLVALUE DUP1 ISZERO PUSH2 0x5BA JUMPI PUSH0 DUP1 REVERT JUMPDEST POP PUSH2 0x453 PUSH2 0x5C9 CALLDATASIZE PUSH1 0x4 PUSH2 0x2C6C JUMP JUMPDEST PUSH0 SWAP1 DUP2 MSTORE PUSH1 0x6D PUSH1 0x20 MSTORE PUSH1 0x40 SWAP1 KECCAK256 PUSH1 0x1 ADD SLOAD SWAP1 JUMP JUMPDEST CALLVALUE DUP1 ISZERO PUSH2 0x5E8 JUMPI PUSH0 DUP1 REVERT JUMPDEST POP PUSH2 0x49F PUSH2 0x1431 JUMP JUMPDEST CALLVALUE DUP1 ISZERO PUSH2 0x5FC JUMPI PUSH0 DUP1 REVERT JUMPDEST POP PUSH2 0x610 PUSH2 0x60B CALLDATASIZE PUSH1 0x4 PUSH2 0x2E89 JUMP JUMPDEST PUSH2 0x14BD JUMP JUMPDEST PUSH1 0x40 DUP1 MLOAD PUSH1 0x1 PUSH1 0x1 PUSH1 0xA0 SHL SUB SWAP1 SWAP4 AND DUP4 MSTORE PUSH1 0x20 DUP4 ADD SWAP2 SWAP1 SWAP2 MSTORE ADD PUSH2 0x42B JUMP JUMPDEST CALLVALUE DUP1 ISZERO PUSH2 0x63A JUMPI PUSH0 DUP1 REVERT JUMPDEST POP PUSH2 0x453 PUSH1 0xD1 SLOAD DUP2 JUMP JUMPDEST CALLVALUE DUP1 ISZERO PUSH2 0x64F JUMPI PUSH0 DUP1 REVERT JUMPDEST POP PUSH2 0x3EB PUSH2 0x65E CALLDATASIZE PUSH1 0x4 PUSH2 0x2EE2 JUMP JUMPDEST PUSH2 0x14F8 JUMP JUMPDEST CALLVALUE DUP1 ISZERO PUSH2 0x66E JUMPI PUSH0 DUP1 REVERT JUMPDEST POP PUSH2 0x49F PUSH2 0x67D CALLDATASIZE PUSH1 0x4 PUSH2 0x2FA8 JUMP JUMPDEST PUSH2 0x1521 JUMP JUMPDEST CALLVALUE DUP1 ISZERO PUSH2 0x68D JUMPI PUSH0 DUP1 REVERT JUMPDEST POP PUSH2 0x3EB PUSH2 0x69C CALLDATASIZE PUSH1 0x4 PUSH2 0x2EE2 JUMP JUMPDEST PUSH2 0x1556 JUMP JUMPDEST PUSH2 0x3EB PUSH2 0x15D0 JUMP JUMPDEST PUSH2 0x3EB PUSH2 0x6B7 CALLDATASIZE PUSH1 0x4 PUSH2 0x2EA9 JUMP JUMPDEST PUSH2 0x1610 JUMP JUMPDEST CALLVALUE DUP1 ISZERO PUSH2 0x6C7 JUMPI PUSH0 DUP1 REVERT JUMPDEST POP PUSH2 0x3EB PUSH2 0x6D6 CALLDATASIZE PUSH1 0x4 PUSH2 0x2C6C JUMP JUMPDEST PUSH2 0x162A JUMP JUMPDEST CALLVALUE DUP1 ISZERO PUSH2 0x6E6 JUMPI PUSH0 DUP1 REVERT JUMPDEST POP PUSH2 0x453 PUSH1 0xD7 SLOAD DUP2 JUMP JUMPDEST CALLVALUE DUP1 ISZERO PUSH2 0x6FB JUMPI PUSH0 DUP1 REVERT JUMPDEST POP PUSH2 0x453 PUSH1 0xDC SLOAD DUP2 JUMP JUMPDEST PUSH2 0x3EB PUSH2 0x713 CALLDATASIZE PUSH1 0x4 PUSH2 0x2C99 JUMP JUMPDEST PUSH2 0x16B7 JUMP JUMPDEST CALLVALUE DUP1 ISZERO PUSH2 0x723 JUMPI PUSH0 DUP1 REVERT JUMPDEST POP PUSH1 0x40 MLOAD PUSH3 0x302E31 PUSH1 0xE8 SHL DUP2 MSTORE PUSH1 0x20 ADD PUSH2 0x42B JUMP JUMPDEST CALLVALUE DUP1 ISZERO PUSH2 0x743 JUMPI PUSH0 DUP1 REVERT JUMPDEST POP PUSH2 0x3EB PUSH2 0x752 CALLDATASIZE PUSH1 0x4 PUSH2 0x303D JUMP JUMPDEST PUSH2 0x179B JUMP JUMPDEST CALLVALUE DUP1 ISZERO PUSH2 0x762 JUMPI PUSH0 DUP1 REVERT JUMPDEST POP PUSH2 0x453 PUSH1 0xDB SLOAD DUP2 JUMP JUMPDEST CALLVALUE DUP1 ISZERO PUSH2 0x777 JUMPI PUSH0 DUP1 REVERT JUMPDEST POP PUSH2 0x4CB PUSH2 0x786 CALLDATASIZE PUSH1 0x4 PUSH2 0x2C6C JUMP JUMPDEST PUSH2 0x17A7 JUMP JUMPDEST CALLVALUE DUP1 ISZERO PUSH2 0x796 JUMPI PUSH0 DUP1 REVERT JUMPDEST POP PUSH2 0x453 PUSH1 0xD6 SLOAD DUP2 JUMP JUMPDEST CALLVALUE DUP1 ISZERO PUSH2 0x7AB JUMPI PUSH0 DUP1 REVERT JUMPDEST POP PUSH2 0x49F PUSH2 0x17B1 JUMP JUMPDEST CALLVALUE DUP1 ISZERO PUSH2 0x7BF JUMPI PUSH0 DUP1 REVERT JUMPDEST POP PUSH2 0x453 PUSH2 0x7CE CALLDATASIZE PUSH1 0x4 PUSH2 0x306F JUMP JUMPDEST PUSH2 0x17BE JUMP JUMPDEST CALLVALUE DUP1 ISZERO PUSH2 0x7DE JUMPI PUSH0 DUP1 REVERT JUMPDEST POP PUSH2 0x453 PUSH0 DUP1 MLOAD PUSH1 0x20 PUSH2 0x360E DUP4 CODECOPY DUP2 MLOAD SWAP2 MSTORE DUP2 JUMP JUMPDEST CALLVALUE DUP1 ISZERO PUSH2 0x7FE JUMPI PUSH0 DUP1 REVERT JUMPDEST POP PUSH2 0x453 PUSH1 0xE1 SLOAD DUP2 JUMP JUMPDEST PUSH2 0x3EB PUSH2 0x816 CALLDATASIZE PUSH1 0x4 PUSH2 0x2C99 JUMP JUMPDEST PUSH2 0x1802 JUMP JUMPDEST CALLVALUE DUP1 ISZERO PUSH2 0x826 JUMPI PUSH0 DUP1 REVERT JUMPDEST POP PUSH2 0x453 PUSH1 0xD4 SLOAD DUP2 JUMP JUMPDEST CALLVALUE DUP1 ISZERO PUSH2 0x83B JUMPI PUSH0 DUP1 REVERT JUMPDEST POP PUSH2 0x3EB PUSH2 0x84A CALLDATASIZE PUSH1 0x4 PUSH2 0x2C6C JUMP JUMPDEST PUSH2 0x1908 JUMP JUMPDEST CALLVALUE DUP1 ISZERO PUSH2 0x85A JUMPI PUSH0 DUP1 REVERT JUMPDEST POP PUSH2 0x453 PUSH1 0xDA SLOAD DUP2 JUMP JUMPDEST CALLVALUE DUP1 ISZERO PUSH2 0x86F JUMPI PUSH0 DUP1 REVERT JUMPDEST POP PUSH2 0x3EB PUSH2 0x87E CALLDATASIZE PUSH1 0x4 PUSH2 0x2C6C JUMP JUMPDEST PUSH2 0x197C JUMP JUMPDEST CALLVALUE DUP1 ISZERO PUSH2 0x88E JUMPI PUSH0 DUP1 REVERT JUMPDEST POP PUSH2 0x41F PUSH2 0x89D CALLDATASIZE PUSH1 0x4 PUSH2 0x2EE2 JUMP JUMPDEST PUSH2 0x1A15 JUMP JUMPDEST CALLVALUE DUP1 ISZERO PUSH2 0x8AD JUMPI PUSH0 DUP1 REVERT JUMPDEST POP PUSH2 0x3EB PUSH2 0x8BC CALLDATASIZE PUSH1 0x4 PUSH2 0x2C6C JUMP JUMPDEST PUSH2 0x1A3F JUMP JUMPDEST CALLVALUE DUP1 ISZERO PUSH2 0x8CC JUMPI PUSH0 DUP1 REVERT JUMPDEST POP PUSH2 0x49F PUSH2 0x1AD9 JUMP JUMPDEST CALLVALUE DUP1 ISZERO PUSH2 0x8E0 JUMPI PUSH0 DUP1 REVERT JUMPDEST POP PUSH2 0x453 PUSH2 0x8EF CALLDATASIZE PUSH1 0x4 PUSH2 0x306F JUMP JUMPDEST PUSH1 0xE2 PUSH1 0x20 MSTORE PUSH0 SWAP1 DUP2 MSTORE PUSH1 0x40 SWAP1 KECCAK256 SLOAD DUP2 JUMP JUMPDEST CALLVALUE DUP1 ISZERO PUSH2 0x90B JUMPI PUSH0 DUP1 REVERT JUMPDEST POP PUSH2 0x453 PUSH1 0xD5 SLOAD DUP2 JUMP JUMPDEST CALLVALUE DUP1 ISZERO PUSH2 0x920 JUMPI PUSH0 DUP1 REVERT JUMPDEST POP PUSH2 0x453 PUSH0 DUP2 JUMP JUMPDEST CALLVALUE DUP1 ISZERO PUSH2 0x933 JUMPI PUSH0 DUP1 REVERT JUMPDEST POP PUSH2 0x3EB PUSH2 0x942 CALLDATASIZE PUSH1 0x4 PUSH2 0x3088 JUMP JUMPDEST PUSH2 0x1AE8 JUMP JUMPDEST PUSH2 0x3EB PUSH2 0x955 CALLDATASIZE PUSH1 0x4 PUSH2 0x2C99 JUMP JUMPDEST PUSH2 0x1B53 JUMP JUMPDEST CALLVALUE DUP1 ISZERO PUSH2 0x965 JUMPI PUSH0 DUP1 REVERT JUMPDEST POP PUSH2 0x453 PUSH0 DUP1 MLOAD PUSH1 0x20 PUSH2 0x35CE DUP4 CODECOPY DUP2 MLOAD SWAP2 MSTORE DUP2 JUMP JUMPDEST PUSH2 0x3EB PUSH2 0x988 CALLDATASIZE PUSH1 0x4 PUSH2 0x30C1 JUMP JUMPDEST PUSH2 0x1C6D JUMP JUMPDEST CALLVALUE DUP1 ISZERO PUSH2 0x998 JUMPI PUSH0 DUP1 REVERT JUMPDEST POP PUSH2 0x49F PUSH2 0x9A7 CALLDATASIZE PUSH1 0x4 PUSH2 0x2C6C JUMP JUMPDEST PUSH2 0x1CAE JUMP JUMPDEST CALLVALUE DUP1 ISZERO PUSH2 0x9B7 JUMPI PUSH0 DUP1 REVERT JUMPDEST POP PUSH2 0x3EB PUSH2 0x9C6 CALLDATASIZE PUSH1 0x4 PUSH2 0x2C6C JUMP JUMPDEST PUSH2 0x1D84 JUMP JUMPDEST CALLVALUE DUP1 ISZERO PUSH2 0x9D6 JUMPI PUSH0 DUP1 REVERT JUMPDEST POP PUSH2 0x3EB PUSH2 0x9E5 CALLDATASIZE PUSH1 0x4 PUSH2 0x2EE2 JUMP JUMPDEST PUSH2 0x1E1D JUMP JUMPDEST CALLVALUE DUP1 ISZERO PUSH2 0x9F5 JUMPI PUSH0 DUP1 REVERT JUMPDEST POP PUSH2 0x3EB PUSH2 0xA04 CALLDATASIZE PUSH1 0x4 PUSH2 0x303D JUMP JUMPDEST PUSH2 0x1E41 JUMP JUMPDEST CALLVALUE DUP1 ISZERO PUSH2 0xA14 JUMPI PUSH0 DUP1 REVERT JUMPDEST POP PUSH2 0x453 PUSH2 0xA23 CALLDATASIZE PUSH1 0x4 PUSH2 0x2C6C JUMP JUMPDEST PUSH2 0x1E4D JUMP JUMPDEST CALLVALUE DUP1 ISZERO PUSH2 0xA33 JUMPI PUSH0 DUP1 REVERT JUMPDEST POP PUSH2 0x453 PUSH2 0xA42 CALLDATASIZE PUSH1 0x4 PUSH2 0x306F JUMP JUMPDEST PUSH1 0x1 PUSH1 0x1 PUSH1 0xA0 SHL SUB AND PUSH0 SWAP1 DUP2 MSTORE PUSH1 0xE2 PUSH1 0x20 MSTORE PUSH1 0x40 SWAP1 KECCAK256 SLOAD SWAP1 JUMP JUMPDEST CALLVALUE DUP1 ISZERO PUSH2 0xA67 JUMPI PUSH0 DUP1 REVERT JUMPDEST POP PUSH2 0x41F PUSH2 0xA76 CALLDATASIZE PUSH1 0x4 PUSH2 0x3138 JUMP JUMPDEST PUSH1 0x1 PUSH1 0x1 PUSH1 0xA0 SHL SUB SWAP2 DUP3 AND PUSH0 SWAP1 DUP2 MSTORE PUSH1 0x7 PUSH1 0x20 SWAP1 DUP2 MSTORE PUSH1 0x40 DUP1 DUP4 KECCAK256 SWAP4 SWAP1 SWAP5 AND DUP3 MSTORE SWAP2 SWAP1 SWAP2 MSTORE KECCAK256 SLOAD PUSH1 0xFF AND SWAP1 JUMP JUMPDEST CALLVALUE DUP1 ISZERO PUSH2 0xAAE JUMPI PUSH0 DUP1 REVERT JUMPDEST POP PUSH2 0x3EB PUSH2 0xABD CALLDATASIZE PUSH1 0x4 PUSH2 0x2C6C JUMP JUMPDEST PUSH2 0x1E5D JUMP JUMPDEST CALLVALUE DUP1 ISZERO PUSH2 0xACD JUMPI PUSH0 DUP1 REVERT JUMPDEST POP PUSH2 0x453 PUSH1 0xE0 SLOAD DUP2 JUMP JUMPDEST CALLVALUE DUP1 ISZERO PUSH2 0xAE2 JUMPI PUSH0 DUP1 REVERT JUMPDEST POP PUSH2 0x3EB PUSH2 0xAF1 CALLDATASIZE PUSH1 0x4 PUSH2 0x3160 JUMP JUMPDEST PUSH2 0x1ED1 JUMP JUMPDEST CALLVALUE DUP1 ISZERO PUSH2 0xB01 JUMPI PUSH0 DUP1 REVERT JUMPDEST POP PUSH2 0x453 PUSH0 DUP1 MLOAD PUSH1 0x20 PUSH2 0x35EE DUP4 CODECOPY DUP2 MLOAD SWAP2 MSTORE DUP2 JUMP JUMPDEST CALLVALUE DUP1 ISZERO PUSH2 0xB21 JUMPI PUSH0 DUP1 REVERT JUMPDEST POP PUSH2 0x453 PUSH1 0xD2 SLOAD DUP2 JUMP JUMPDEST CALLVALUE DUP1 ISZERO PUSH2 0xB36 JUMPI PUSH0 DUP1 REVERT JUMPDEST POP PUSH2 0x453 PUSH1 0xD3 SLOAD DUP2 JUMP JUMPDEST PUSH2 0xB57 PUSH0 DUP1 MLOAD PUSH1 0x20 PUSH2 0x360E DUP4 CODECOPY DUP2 MLOAD SWAP2 MSTORE CALLER PUSH2 0x1A15 JUMP JUMPDEST DUP1 PUSH2 0xB74 JUMPI POP PUSH2 0xB74 PUSH0 DUP1 MLOAD PUSH1 0x20 PUSH2 0x35EE DUP4 CODECOPY DUP2 MLOAD SWAP2 MSTORE CALLER PUSH2 0x1A15 JUMP JUMPDEST PUSH2 0xB99 JUMPI PUSH1 0x40 MLOAD PUSH3 0x461BCD PUSH1 0xE5 SHL DUP2 MSTORE PUSH1 0x4 ADD PUSH2 0xB90 SWAP1 PUSH2 0x31B8 JUMP JUMPDEST PUSH1 0x40 MLOAD DUP1 SWAP2 SUB SWAP1 REVERT JUMPDEST PUSH0 DUP2 GT PUSH2 0xBB8 JUMPI PUSH1 0x40 MLOAD PUSH3 0x461BCD PUSH1 0xE5 SHL DUP2 MSTORE PUSH1 0x4 ADD PUSH2 0xB90 SWAP1 PUSH2 0x31E8 JUMP JUMPDEST PUSH1 0xD9 SSTORE JUMP JUMPDEST PUSH2 0xBC5 PUSH2 0x2070 JUMP JUMPDEST PUSH0 DUP1 MLOAD PUSH1 0x20 PUSH2 0x35CE DUP4 CODECOPY DUP2 MLOAD SWAP2 MSTORE PUSH2 0xBDC DUP2 PUSH2 0x20C9 JUMP JUMPDEST PUSH1 0xD4 SLOAD TIMESTAMP SWAP1 DUP2 GT DUP1 ISZERO SWAP1 PUSH2 0xBF2 JUMPI POP PUSH1 0xD3 SLOAD DUP2 LT ISZERO JUMPDEST PUSH2 0xC31 JUMPI PUSH1 0x40 MLOAD PUSH3 0x461BCD PUSH1 0xE5 SHL DUP2 MSTORE PUSH1 0x20 PUSH1 0x4 DUP3 ADD MSTORE PUSH1 0x10 PUSH1 0x24 DUP3 ADD MSTORE PUSH16 0x4E6F74204F47206D696E742074696D65 PUSH1 0x80 SHL PUSH1 0x44 DUP3 ADD MSTORE PUSH1 0x64 ADD PUSH2 0xB90 JUMP JUMPDEST PUSH1 0xDF SLOAD DUP4 PUSH2 0xC3D PUSH2 0xE44 JUMP JUMPDEST PUSH2 0xC47 SWAP2 SWAP1 PUSH2 0x322A JUMP JUMPDEST GT ISZERO PUSH2 0xC65 JUMPI PUSH1 0x40 MLOAD PUSH3 0x461BCD PUSH1 0xE5 SHL DUP2 MSTORE PUSH1 0x4 ADD PUSH2 0xB90 SWAP1 PUSH2 0x323D JUMP JUMPDEST PUSH2 0xC76 CALLVALUE DUP6 PUSH1 0xD1 SLOAD DUP7 PUSH1 0xD2 SLOAD PUSH2 0x20D6 JUMP JUMPDEST PUSH1 0xD1 SLOAD PUSH1 0x40 DUP1 MLOAD CALLVALUE DUP2 MSTORE PUSH1 0x1 PUSH1 0x1 PUSH1 0xA0 SHL SUB DUP8 AND PUSH1 0x20 DUP3 ADD MSTORE SWAP1 DUP2 ADD DUP6 SWAP1 MSTORE PUSH1 0x60 DUP2 ADD SWAP2 SWAP1 SWAP2 MSTORE CALLER SWAP1 PUSH32 0x12868C3639CC6F45BF88ECDAF9A5A315A966C89339B502A13C32758761B81494 SWAP1 PUSH1 0x80 ADD PUSH1 0x40 MLOAD DUP1 SWAP2 SUB SWAP1 LOG2 POP POP PUSH2 0xCD8 PUSH1 0x1 PUSH1 0x9F SSTORE JUMP JUMPDEST POP POP JUMP JUMPDEST PUSH0 PUSH1 0x1 PUSH1 0x1 PUSH1 0xE0 SHL SUB NOT DUP3 AND PUSH4 0x184371E5 PUSH1 0xE3 SHL EQ DUP1 PUSH2 0xD0C JUMPI POP PUSH1 0x1 PUSH1 0x1 PUSH1 0xE0 SHL SUB NOT DUP3 AND PUSH4 0x152A902D PUSH1 0xE1 SHL EQ JUMPDEST DUP1 PUSH2 0xD1B JUMPI POP PUSH2 0xD1B DUP3 PUSH2 0x21D4 JUMP JUMPDEST SWAP3 SWAP2 POP POP JUMP JUMPDEST PUSH0 DUP1 DUP3 PUSH1 0xD1 SLOAD PUSH2 0xD31 SWAP2 SWAP1 PUSH2 0x3269 JUMP JUMPDEST SWAP1 POP PUSH1 0xE0 SLOAD PUSH0 SUB PUSH2 0xD42 JUMPI PUSH0 PUSH2 0xD4E JUMP JUMPDEST PUSH2 0xD4E DUP2 PUSH1 0xE0 SLOAD PUSH2 0x2208 JUMP JUMPDEST PUSH2 0xD58 SWAP1 DUP3 PUSH2 0x322A JUMP JUMPDEST SWAP4 SWAP3 POP POP POP JUMP JUMPDEST PUSH1 0x60 PUSH1 0x2 DUP1 SLOAD PUSH2 0xD6E SWAP1 PUSH2 0x3280 JUMP JUMPDEST DUP1 PUSH1 0x1F ADD PUSH1 0x20 DUP1 SWAP2 DIV MUL PUSH1 0x20 ADD PUSH1 0x40 MLOAD SWAP1 DUP2 ADD PUSH1 0x40 MSTORE DUP1 SWAP3 SWAP2 SWAP1 DUP2 DUP2 MSTORE PUSH1 0x20 ADD DUP3 DUP1 SLOAD PUSH2 0xD9A SWAP1 PUSH2 0x3280 JUMP JUMPDEST DUP1 ISZERO PUSH2 0xDE5 JUMPI DUP1 PUSH1 0x1F LT PUSH2 0xDBC JUMPI PUSH2 0x100 DUP1 DUP4 SLOAD DIV MUL DUP4 MSTORE SWAP2 PUSH1 0x20 ADD SWAP2 PUSH2 0xDE5 JUMP JUMPDEST DUP3 ADD SWAP2 SWAP1 PUSH0 MSTORE PUSH1 0x20 PUSH0 KECCAK256 SWAP1 JUMPDEST DUP2 SLOAD DUP2 MSTORE SWAP1 PUSH1 0x1 ADD SWAP1 PUSH1 0x20 ADD DUP1 DUP4 GT PUSH2 0xDC8 JUMPI DUP3 SWAP1 SUB PUSH1 0x1F AND DUP3 ADD SWAP2 JUMPDEST POP POP POP POP POP SWAP1 POP SWAP1 JUMP JUMPDEST PUSH0 PUSH2 0xDF9 DUP3 PUSH2 0x221A JUMP JUMPDEST PUSH2 0xE0D JUMPI PUSH2 0xE0D PUSH4 0x33D1C039 PUSH1 0xE2 SHL PUSH2 0x2264 JUMP JUMPDEST POP PUSH0 SWAP1 DUP2 MSTORE PUSH1 0x6 PUSH1 0x20 MSTORE PUSH1 0x40 SWAP1 KECCAK256 SLOAD PUSH1 0x1 PUSH1 0x1 PUSH1 0xA0 SHL SUB AND SWAP1 JUMP JUMPDEST PUSH2 0xCD8 DUP3 DUP3 PUSH1 0x1 PUSH2 0x226C JUMP JUMPDEST PUSH0 DUP1 DUP3 PUSH1 0xD9 SLOAD PUSH2 0xD31 SWAP2 SWAP1 PUSH2 0x3269 JUMP JUMPDEST PUSH1 0x1 SLOAD PUSH0 SLOAD SUB PUSH0 NOT ADD SWAP1 JUMP JUMPDEST PUSH1 0x8 SLOAD PUSH2 0x100 SWAP1 DIV PUSH1 0xFF AND ISZERO DUP1 DUP1 ISZERO PUSH2 0xE70 JUMPI POP PUSH1 0x8 SLOAD PUSH1 0x1 PUSH1 0xFF SWAP1 SWAP2 AND LT JUMPDEST DUP1 PUSH2 0xE8A JUMPI POP ADDRESS EXTCODESIZE ISZERO DUP1 ISZERO PUSH2 0xE8A JUMPI POP PUSH1 0x8 SLOAD PUSH1 0xFF AND PUSH1 0x1 EQ JUMPDEST PUSH2 0xEED JUMPI PUSH1 0x40 MLOAD PUSH3 0x461BCD PUSH1 0xE5 SHL DUP2 MSTORE PUSH1 0x20 PUSH1 0x4 DUP3 ADD MSTORE PUSH1 0x2E PUSH1 0x24 DUP3 ADD MSTORE PUSH32 0x496E697469616C697A61626C653A20636F6E747261637420697320616C726561 PUSH1 0x44 DUP3 ADD MSTORE PUSH14 0x191E481A5B9A5D1A585B1A5E9959 PUSH1 0x92 SHL PUSH1 0x64 DUP3 ADD MSTORE PUSH1 0x84 ADD PUSH2 0xB90 JUMP JUMPDEST PUSH1 0x8 DUP1 SLOAD PUSH1 0xFF NOT AND PUSH1 0x1 OR SWAP1 SSTORE DUP1 ISZERO PUSH2 0xF10 JUMPI PUSH1 0x8 DUP1 SLOAD PUSH2 0xFF00 NOT AND PUSH2 0x100 OR SWAP1 SSTORE JUMPDEST PUSH0 DUP1 DUP1 DUP1 DUP1 PUSH2 0xF21 DUP14 DUP16 ADD DUP16 PUSH2 0x2FA8 JUMP JUMPDEST SWAP5 POP SWAP5 POP SWAP5 POP SWAP5 POP SWAP5 POP PUSH2 0xF35 DUP4 DUP4 PUSH2 0x230D JUMP JUMPDEST PUSH2 0xF3D PUSH2 0x232F JUMP JUMPDEST PUSH2 0xF54 PUSH0 DUP1 MLOAD PUSH1 0x20 PUSH2 0x360E DUP4 CODECOPY DUP2 MLOAD SWAP2 MSTORE DUP1 PUSH2 0x239C JUMP JUMPDEST PUSH2 0xF6B PUSH0 DUP1 MLOAD PUSH1 0x20 PUSH2 0x360E DUP4 CODECOPY DUP2 MLOAD SWAP2 MSTORE CALLER PUSH2 0x23E6 JUMP JUMPDEST PUSH2 0xF82 PUSH0 DUP1 MLOAD PUSH1 0x20 PUSH2 0x360E DUP4 CODECOPY DUP2 MLOAD SWAP2 MSTORE DUP1 PUSH2 0x239C JUMP JUMPDEST PUSH2 0xFAD PUSH0 DUP1 MLOAD PUSH1 0x20 PUSH2 0x360E DUP4 CODECOPY DUP2 MLOAD SWAP2 MSTORE CALLDATASIZE PUSH1 0x1 NOT DUP2 ADD CALLDATALOAD PUSH1 0xF0 SHR SWAP1 SUB CALLDATALOAD PUSH1 0x60 SHR PUSH2 0x23E6 JUMP JUMPDEST PUSH2 0x23E6 JUMP JUMPDEST PUSH2 0xFD1 PUSH0 DUP1 MLOAD PUSH1 0x20 PUSH2 0x35CE DUP4 CODECOPY DUP2 MLOAD SWAP2 MSTORE PUSH0 DUP1 MLOAD PUSH1 0x20 PUSH2 0x360E DUP4 CODECOPY DUP2 MLOAD SWAP2 MSTORE PUSH2 0x239C JUMP JUMPDEST PUSH2 0xFF5 PUSH0 DUP1 MLOAD PUSH1 0x20 PUSH2 0x362E DUP4 CODECOPY DUP2 MLOAD SWAP2 MSTORE PUSH0 DUP1 MLOAD PUSH1 0x20 PUSH2 0x360E DUP4 CODECOPY DUP2 MLOAD SWAP2 MSTORE PUSH2 0x239C JUMP JUMPDEST PUSH1 0xDD PUSH2 0x1001 DUP3 DUP3 PUSH2 0x3305 JUMP JUMPDEST POP PUSH1 0x40 DUP1 MLOAD DUP1 DUP3 ADD SWAP1 SWAP2 MSTORE PUSH1 0x5 DUP2 MSTORE PUSH5 0x173539B7B7 PUSH1 0xD9 SHL PUSH1 0x20 DUP3 ADD MSTORE PUSH1 0xDE SWAP1 PUSH2 0x102B SWAP1 DUP3 PUSH2 0x3305 JUMP JUMPDEST POP PUSH1 0xDF DUP6 SWAP1 SSTORE PUSH1 0xE1 DUP5 SWAP1 SSTORE DUP8 DUP8 PUSH0 DUP2 PUSH2 0x1046 JUMPI PUSH2 0x1046 PUSH2 0x33C1 JUMP JUMPDEST PUSH1 0x20 MUL SWAP2 SWAP1 SWAP2 ADD CALLDATALOAD PUSH1 0xD1 SSTORE POP DUP8 DUP8 PUSH1 0x1 DUP2 DUP2 LT PUSH2 0x1065 JUMPI PUSH2 0x1065 PUSH2 0x33C1 JUMP JUMPDEST PUSH1 0x20 MUL SWAP2 SWAP1 SWAP2 ADD CALLDATALOAD PUSH1 0xD2 SSTORE POP DUP8 DUP8 PUSH1 0x2 DUP2 DUP2 LT PUSH2 0x1084 JUMPI PUSH2 0x1084 PUSH2 0x33C1 JUMP JUMPDEST PUSH1 0x20 MUL SWAP2 SWAP1 SWAP2 ADD CALLDATALOAD PUSH1 0xD3 SSTORE POP DUP8 DUP8 PUSH1 0x3 DUP2 DUP2 LT PUSH2 0x10A3 JUMPI PUSH2 0x10A3 PUSH2 0x33C1 JUMP JUMPDEST PUSH1 0x20 MUL SWAP2 SWAP1 SWAP2 ADD CALLDATALOAD PUSH1 0xD4 SSTORE POP DUP8 DUP8 PUSH1 0x4 DUP2 DUP2 LT PUSH2 0x10C2 JUMPI PUSH2 0x10C2 PUSH2 0x33C1 JUMP JUMPDEST PUSH1 0x20 MUL SWAP2 SWAP1 SWAP2 ADD CALLDATALOAD PUSH1 0xD5 SSTORE POP DUP8 DUP8 PUSH1 0x5 DUP2 DUP2 LT PUSH2 0x10E1 JUMPI PUSH2 0x10E1 PUSH2 0x33C1 JUMP JUMPDEST PUSH1 0x20 MUL SWAP2 SWAP1 SWAP2 ADD CALLDATALOAD PUSH1 0xD6 SSTORE POP DUP8 DUP8 PUSH1 0x6 DUP2 DUP2 LT PUSH2 0x1100 JUMPI PUSH2 0x1100 PUSH2 0x33C1 JUMP JUMPDEST PUSH1 0x20 MUL SWAP2 SWAP1 SWAP2 ADD CALLDATALOAD PUSH1 0xD7 SSTORE POP DUP8 DUP8 PUSH1 0x7 DUP2 DUP2 LT PUSH2 0x111F JUMPI PUSH2 0x111F PUSH2 0x33C1 JUMP JUMPDEST PUSH1 0x20 MUL SWAP2 SWAP1 SWAP2 ADD CALLDATALOAD PUSH1 0xD8 SSTORE POP DUP8 DUP8 PUSH1 0x8 DUP2 DUP2 LT PUSH2 0x113E JUMPI PUSH2 0x113E PUSH2 0x33C1 JUMP JUMPDEST PUSH1 0x20 MUL SWAP2 SWAP1 SWAP2 ADD CALLDATALOAD PUSH1 0xD9 SSTORE POP DUP8 DUP8 PUSH1 0x9 DUP2 DUP2 LT PUSH2 0x115D JUMPI PUSH2 0x115D PUSH2 0x33C1 JUMP JUMPDEST PUSH1 0x20 MUL SWAP2 SWAP1 SWAP2 ADD CALLDATALOAD PUSH1 0xDA SSTORE POP DUP8 DUP8 PUSH1 0xA DUP2 DUP2 LT PUSH2 0x117C JUMPI PUSH2 0x117C PUSH2 0x33C1 JUMP JUMPDEST PUSH1 0x20 MUL SWAP2 SWAP1 SWAP2 ADD CALLDATALOAD PUSH1 0xDB SSTORE POP DUP8 DUP8 PUSH1 0xB DUP2 DUP2 LT PUSH2 0x119B JUMPI PUSH2 0x119B PUSH2 0x33C1 JUMP JUMPDEST PUSH1 0x20 MUL SWAP2 SWAP1 SWAP2 ADD CALLDATALOAD PUSH1 0xDC SSTORE POP PUSH2 0x11B2 DUP13 DUP13 PUSH0 PUSH2 0x1ED1 JUMP JUMPDEST PUSH2 0x11BE DUP11 DUP11 PUSH1 0x1 PUSH2 0x1ED1 JUMP JUMPDEST PUSH1 0xE0 DUP16 SWAP1 SSTORE PUSH2 0x11DA PUSH0 DUP1 MLOAD PUSH1 0x20 PUSH2 0x360E DUP4 CODECOPY DUP2 MLOAD SWAP2 MSTORE CALLER PUSH2 0x1E1D JUMP JUMPDEST POP POP POP POP POP DUP1 ISZERO PUSH2 0x1225 JUMPI PUSH1 0x8 DUP1 SLOAD PUSH2 0xFF00 NOT AND SWAP1 SSTORE PUSH1 0x40 MLOAD PUSH1 0x1 DUP2 MSTORE PUSH32 0x7F26B83FF96E1F2B6A682F133852F6798A09C465DA95921460CEFB3847402498 SWAP1 PUSH1 0x20 ADD PUSH1 0x40 MLOAD DUP1 SWAP2 SUB SWAP1 LOG1 JUMPDEST POP POP POP POP POP POP POP POP POP POP JUMP JUMPDEST PUSH2 0x1248 PUSH0 DUP1 MLOAD PUSH1 0x20 PUSH2 0x360E DUP4 CODECOPY DUP2 MLOAD SWAP2 MSTORE CALLER PUSH2 0x1A15 JUMP JUMPDEST DUP1 PUSH2 0x1265 JUMPI POP PUSH2 0x1265 PUSH0 DUP1 MLOAD PUSH1 0x20 PUSH2 0x35EE DUP4 CODECOPY DUP2 MLOAD SWAP2 MSTORE CALLER PUSH2 0x1A15 JUMP JUMPDEST PUSH2 0x1281 JUMPI PUSH1 0x40 MLOAD PUSH3 0x461BCD PUSH1 0xE5 SHL DUP2 MSTORE PUSH1 0x4 ADD PUSH2 0xB90 SWAP1 PUSH2 0x31B8 JUMP JUMPDEST DUP2 DUP2 GT PUSH2 0x12C2 JUMPI PUSH1 0x40 MLOAD PUSH3 0x461BCD PUSH1 0xE5 SHL DUP2 MSTORE PUSH1 0x20 PUSH1 0x4 DUP3 ADD MSTORE PUSH1 0xF PUSH1 0x24 DUP3 ADD MSTORE PUSH15 0x115B99081B9BDD080F881CDD185C9D PUSH1 0x8A SHL PUSH1 0x44 DUP3 ADD MSTORE PUSH1 0x64 ADD PUSH2 0xB90 JUMP JUMPDEST PUSH1 0xDB SWAP2 SWAP1 SWAP2 SSTORE PUSH1 0xDC SSTORE JUMP JUMPDEST PUSH0 PUSH2 0x12D7 DUP3 PUSH2 0x246B JUMP JUMPDEST PUSH1 0x1 PUSH1 0x1 PUSH1 0xA0 SHL SUB SWAP5 DUP6 AND SWAP5 SWAP1 SWAP2 POP DUP2 AND DUP5 EQ PUSH2 0x12FD JUMPI PUSH2 0x12FD PUSH3 0xA11481 PUSH1 0xE8 SHL PUSH2 0x2264 JUMP JUMPDEST PUSH0 DUP3 DUP2 MSTORE PUSH1 0x6 PUSH1 0x20 MSTORE PUSH1 0x40 SWAP1 KECCAK256 DUP1 SLOAD PUSH2 0x1328 DUP2 DUP8 CALLER JUMPDEST PUSH1 0x1 PUSH1 0x1 PUSH1 0xA0 SHL SUB SWAP1 DUP2 AND SWAP2 AND DUP2 EQ SWAP2 EQ OR SWAP1 JUMP JUMPDEST PUSH2 0x134A JUMPI PUSH2 0x1336 DUP7 CALLER PUSH2 0xA76 JUMP JUMPDEST PUSH2 0x134A JUMPI PUSH2 0x134A PUSH4 0x2CE44B5F PUSH1 0xE1 SHL PUSH2 0x2264 JUMP JUMPDEST DUP1 ISZERO PUSH2 0x1354 JUMPI PUSH0 DUP3 SSTORE JUMPDEST PUSH1 0x1 PUSH1 0x1 PUSH1 0xA0 SHL SUB DUP7 DUP2 AND PUSH0 SWAP1 DUP2 MSTORE PUSH1 0x5 PUSH1 0x20 MSTORE PUSH1 0x40 DUP1 DUP3 KECCAK256 DUP1 SLOAD PUSH0 NOT ADD SWAP1 SSTORE SWAP2 DUP8 AND DUP1 DUP3 MSTORE SWAP2 SWAP1 KECCAK256 DUP1 SLOAD PUSH1 0x1 ADD SWAP1 SSTORE TIMESTAMP PUSH1 0xA0 SHL OR PUSH1 0x1 PUSH1 0xE1 SHL OR PUSH0 DUP6 DUP2 MSTORE PUSH1 0x4 PUSH1 0x20 MSTORE PUSH1 0x40 DUP2 KECCAK256 SWAP2 SWAP1 SWAP2 SSTORE PUSH1 0x1 PUSH1 0xE1 SHL DUP5 AND SWAP1 SUB PUSH2 0x13E0 JUMPI PUSH1 0x1 DUP5 ADD PUSH0 DUP2 DUP2 MSTORE PUSH1 0x4 PUSH1 0x20 MSTORE PUSH1 0x40 DUP2 KECCAK256 SLOAD SWAP1 SUB PUSH2 0x13DE JUMPI PUSH0 SLOAD DUP2 EQ PUSH2 0x13DE JUMPI PUSH0 DUP2 DUP2 MSTORE PUSH1 0x4 PUSH1 0x20 MSTORE PUSH1 0x40 SWAP1 KECCAK256 DUP5 SWAP1 SSTORE JUMPDEST POP JUMPDEST PUSH1 0x1 PUSH1 0x1 PUSH1 0xA0 SHL SUB DUP6 AND DUP5 DUP2 DUP9 PUSH32 0xDDF252AD1BE2C89B69C2B068FC378DAA952BA7F163C4A11628F55A4DF523B3EF PUSH0 DUP1 LOG4 DUP1 PUSH0 SUB PUSH2 0x1428 JUMPI PUSH2 0x1428 PUSH4 0x3A954ECD PUSH1 0xE2 SHL PUSH2 0x2264 JUMP JUMPDEST POP POP POP POP POP POP POP JUMP JUMPDEST PUSH1 0xDE DUP1 SLOAD PUSH2 0x143E SWAP1 PUSH2 0x3280 JUMP JUMPDEST DUP1 PUSH1 0x1F ADD PUSH1 0x20 DUP1 SWAP2 DIV MUL PUSH1 0x20 ADD PUSH1 0x40 MLOAD SWAP1 DUP2 ADD PUSH1 0x40 MSTORE DUP1 SWAP3 SWAP2 SWAP1 DUP2 DUP2 MSTORE PUSH1 0x20 ADD DUP3 DUP1 SLOAD PUSH2 0x146A SWAP1 PUSH2 0x3280 JUMP JUMPDEST DUP1 ISZERO PUSH2 0x14B5 JUMPI DUP1 PUSH1 0x1F LT PUSH2 0x148C JUMPI PUSH2 0x100 DUP1 DUP4 SLOAD DIV MUL DUP4 MSTORE SWAP2 PUSH1 0x20 ADD SWAP2 PUSH2 0x14B5 JUMP JUMPDEST DUP3 ADD SWAP2 SWAP1 PUSH0 MSTORE PUSH1 0x20 PUSH0 KECCAK256 SWAP1 JUMPDEST DUP2 SLOAD DUP2 MSTORE SWAP1 PUSH1 0x1 ADD SWAP1 PUSH1 0x20 ADD DUP1 DUP4 GT PUSH2 0x1498 JUMPI DUP3 SWAP1 SUB PUSH1 0x1F AND DUP3 ADD SWAP2 JUMPDEST POP POP POP POP POP DUP2 JUMP JUMPDEST PUSH0 DUP1 CALLDATASIZE PUSH1 0x1 NOT DUP2 ADD CALLDATALOAD PUSH1 0xF0 SHR SWAP1 SUB CALLDATALOAD PUSH1 0x60 SHR SWAP2 POP PUSH2 0x14EF DUP4 PUSH1 0xE1 SLOAD PUSH3 0xF4240 PUSH2 0x14E6 SWAP2 SWAP1 PUSH2 0x33D5 JUMP JUMPDEST PUSH3 0xF4240 PUSH2 0x2505 JUMP JUMPDEST SWAP1 POP SWAP3 POP SWAP3 SWAP1 POP JUMP JUMPDEST PUSH0 DUP3 DUP2 MSTORE PUSH1 0x6D PUSH1 0x20 MSTORE PUSH1 0x40 SWAP1 KECCAK256 PUSH1 0x1 ADD SLOAD PUSH2 0x1512 DUP2 PUSH2 0x20C9 JUMP JUMPDEST PUSH2 0x151C DUP4 DUP4 PUSH2 0x23E6 JUMP JUMPDEST POP POP POP JUMP JUMPDEST PUSH1 0x60 DUP6 DUP6 DUP6 DUP6 DUP6 PUSH1 0x40 MLOAD PUSH1 0x20 ADD PUSH2 0x153C SWAP6 SWAP5 SWAP4 SWAP3 SWAP2 SWAP1 PUSH2 0x33E8 JUMP JUMPDEST PUSH1 0x40 MLOAD PUSH1 0x20 DUP2 DUP4 SUB SUB DUP2 MSTORE SWAP1 PUSH1 0x40 MSTORE SWAP1 POP SWAP6 SWAP5 POP POP POP POP POP JUMP JUMPDEST PUSH1 0x1 PUSH1 0x1 PUSH1 0xA0 SHL SUB DUP2 AND CALLER EQ PUSH2 0x15C6 JUMPI PUSH1 0x40 MLOAD PUSH3 0x461BCD PUSH1 0xE5 SHL DUP2 MSTORE PUSH1 0x20 PUSH1 0x4 DUP3 ADD MSTORE PUSH1 0x2F PUSH1 0x24 DUP3 ADD MSTORE PUSH32 0x416363657373436F6E74726F6C3A2063616E206F6E6C792072656E6F756E6365 PUSH1 0x44 DUP3 ADD MSTORE PUSH15 0x103937B632B9903337B91039B2B633 PUSH1 0x89 SHL PUSH1 0x64 DUP3 ADD MSTORE PUSH1 0x84 ADD PUSH2 0xB90 JUMP JUMPDEST PUSH2 0xCD8 DUP3 DUP3 PUSH2 0x2671 JUMP JUMPDEST PUSH0 DUP1 MLOAD PUSH1 0x20 PUSH2 0x360E DUP4 CODECOPY DUP2 MLOAD SWAP2 MSTORE PUSH2 0x15E7 DUP2 PUSH2 0x20C9 JUMP JUMPDEST PUSH1 0x40 MLOAD CALLER SWAP1 SELFBALANCE DUP1 ISZERO PUSH2 0x8FC MUL SWAP2 PUSH0 DUP2 DUP2 DUP2 DUP6 DUP9 DUP9 CALL SWAP4 POP POP POP POP ISZERO DUP1 ISZERO PUSH2 0xCD8 JUMPI RETURNDATASIZE PUSH0 DUP1 RETURNDATACOPY RETURNDATASIZE PUSH0 REVERT JUMPDEST PUSH2 0x151C DUP4 DUP4 DUP4 PUSH1 0x40 MLOAD DUP1 PUSH1 0x20 ADD PUSH1 0x40 MSTORE DUP1 PUSH0 DUP2 MSTORE POP PUSH2 0x1C6D JUMP JUMPDEST CALLER PUSH2 0x1634 DUP3 PUSH2 0x17A7 JUMP JUMPDEST PUSH1 0x1 PUSH1 0x1 PUSH1 0xA0 SHL SUB AND EQ PUSH2 0x1676 JUMPI PUSH1 0x40 MLOAD PUSH3 0x461BCD PUSH1 0xE5 SHL DUP2 MSTORE PUSH1 0x20 PUSH1 0x4 DUP3 ADD MSTORE PUSH1 0x9 PUSH1 0x24 DUP3 ADD MSTORE PUSH9 0x2737BA1027BBB732B9 PUSH1 0xB9 SHL PUSH1 0x44 DUP3 ADD MSTORE PUSH1 0x64 ADD PUSH2 0xB90 JUMP JUMPDEST PUSH2 0x167F DUP2 PUSH2 0x26D7 JUMP JUMPDEST PUSH1 0x40 MLOAD DUP2 DUP2 MSTORE CALLER SWAP1 PUSH32 0x512586160EBD4DC6945BA9EC5D21A1F723F26F3C7AA36CDFFB6818D4E7B88030 SWAP1 PUSH1 0x20 ADD PUSH1 0x40 MLOAD DUP1 SWAP2 SUB SWAP1 LOG2 POP JUMP JUMPDEST PUSH2 0x16BF PUSH2 0x2070 JUMP JUMPDEST PUSH2 0x16D6 PUSH0 DUP1 MLOAD PUSH1 0x20 PUSH2 0x360E DUP4 CODECOPY DUP2 MLOAD SWAP2 MSTORE CALLER PUSH2 0x1A15 JUMP JUMPDEST DUP1 PUSH2 0x16F3 JUMPI POP PUSH2 0x16F3 PUSH0 DUP1 MLOAD PUSH1 0x20 PUSH2 0x35EE DUP4 CODECOPY DUP2 MLOAD SWAP2 MSTORE CALLER PUSH2 0x1A15 JUMP JUMPDEST PUSH2 0x170F JUMPI PUSH1 0x40 MLOAD PUSH3 0x461BCD PUSH1 0xE5 SHL DUP2 MSTORE PUSH1 0x4 ADD PUSH2 0xB90 SWAP1 PUSH2 0x31B8 JUMP JUMPDEST PUSH1 0xDF SLOAD DUP2 PUSH2 0x171B PUSH2 0xE44 JUMP JUMPDEST PUSH2 0x1725 SWAP2 SWAP1 PUSH2 0x322A JUMP JUMPDEST GT ISZERO PUSH2 0x1743 JUMPI PUSH1 0x40 MLOAD PUSH3 0x461BCD PUSH1 0xE5 SHL DUP2 MSTORE PUSH1 0x4 ADD PUSH2 0xB90 SWAP1 PUSH2 0x323D JUMP JUMPDEST PUSH2 0x174D DUP3 DUP3 PUSH2 0x26E1 JUMP JUMPDEST PUSH1 0x40 DUP1 MLOAD PUSH1 0x1 PUSH1 0x1 PUSH1 0xA0 SHL SUB DUP5 AND DUP2 MSTORE PUSH1 0x20 DUP2 ADD DUP4 SWAP1 MSTORE CALLER SWAP2 PUSH32 0x1A3E625D40EBF494638AFA2B07E6A62F9FBFA2060469D5BFC998CE32D7C91B90 SWAP2 ADD PUSH1 0x40 MLOAD DUP1 SWAP2 SUB SWAP1 LOG2 PUSH2 0xCD8 PUSH1 0x1 PUSH1 0x9F SSTORE JUMP JUMPDEST PUSH1 0xDD PUSH2 0xCD8 DUP3 DUP3 PUSH2 0x3305 JUMP JUMPDEST PUSH0 PUSH2 0xD1B DUP3 PUSH2 0x246B JUMP JUMPDEST PUSH1 0xDD DUP1 SLOAD PUSH2 0x143E SWAP1 PUSH2 0x3280 JUMP JUMPDEST PUSH0 PUSH1 0x1 PUSH1 0x1 PUSH1 0xA0 SHL SUB DUP3 AND PUSH2 0x17DD JUMPI PUSH2 0x17DD PUSH4 0x23D3AD81 PUSH1 0xE2 SHL PUSH2 0x2264 JUMP JUMPDEST POP PUSH1 0x1 PUSH1 0x1 PUSH1 0xA0 SHL SUB AND PUSH0 SWAP1 DUP2 MSTORE PUSH1 0x5 PUSH1 0x20 MSTORE PUSH1 0x40 SWAP1 KECCAK256 SLOAD PUSH8 0xFFFFFFFFFFFFFFFF AND SWAP1 JUMP JUMPDEST PUSH2 0x180A PUSH2 0x2070 JUMP JUMPDEST PUSH1 0xDC SLOAD TIMESTAMP SWAP1 DUP2 GT DUP1 ISZERO SWAP1 PUSH2 0x1820 JUMPI POP PUSH1 0xDB SLOAD DUP2 LT ISZERO JUMPDEST PUSH2 0x1862 JUMPI PUSH1 0x40 MLOAD PUSH3 0x461BCD PUSH1 0xE5 SHL DUP2 MSTORE PUSH1 0x20 PUSH1 0x4 DUP3 ADD MSTORE PUSH1 0x13 PUSH1 0x24 DUP3 ADD MSTORE PUSH19 0x4E6F7420526567756C6172206D696E54696D65 PUSH1 0x68 SHL PUSH1 0x44 DUP3 ADD MSTORE PUSH1 0x64 ADD PUSH2 0xB90 JUMP JUMPDEST PUSH1 0xDF SLOAD DUP3 PUSH2 0x186E PUSH2 0xE44 JUMP JUMPDEST PUSH2 0x1878 SWAP2 SWAP1 PUSH2 0x322A JUMP JUMPDEST GT ISZERO PUSH2 0x1896 JUMPI PUSH1 0x40 MLOAD PUSH3 0x461BCD PUSH1 0xE5 SHL DUP2 MSTORE PUSH1 0x4 ADD PUSH2 0xB90 SWAP1 PUSH2 0x323D JUMP JUMPDEST PUSH2 0x18A7 CALLVALUE DUP5 PUSH1 0xD9 SLOAD DUP6 PUSH1 0xDA SLOAD PUSH2 0x20D6 JUMP JUMPDEST PUSH1 0xD9 SLOAD PUSH1 0x40 DUP1 MLOAD CALLVALUE DUP2 MSTORE PUSH1 0x1 PUSH1 0x1 PUSH1 0xA0 SHL SUB DUP7 AND PUSH1 0x20 DUP3 ADD MSTORE SWAP1 DUP2 ADD DUP5 SWAP1 MSTORE PUSH1 0x60 DUP2 ADD SWAP2 SWAP1 SWAP2 MSTORE CALLER SWAP1 PUSH32 0x4B39A2B601E18792CAFBB9DB818CBD30B9CD45AD108161D616484EC3B3CC1DEF SWAP1 PUSH1 0x80 ADD PUSH1 0x40 MLOAD DUP1 SWAP2 SUB SWAP1 LOG2 POP PUSH2 0xCD8 PUSH1 0x1 PUSH1 0x9F SSTORE JUMP JUMPDEST PUSH2 0x191F PUSH0 DUP1 MLOAD PUSH1 0x20 PUSH2 0x360E DUP4 CODECOPY DUP2 MLOAD SWAP2 MSTORE CALLER PUSH2 0x1A15 JUMP JUMPDEST DUP1 PUSH2 0x193C JUMPI POP PUSH2 0x193C PUSH0 DUP1 MLOAD PUSH1 0x20 PUSH2 0x35EE DUP4 CODECOPY DUP2 MLOAD SWAP2 MSTORE CALLER PUSH2 0x1A15 JUMP JUMPDEST PUSH2 0x1958 JUMPI PUSH1 0x40 MLOAD PUSH3 0x461BCD PUSH1 0xE5 SHL DUP2 MSTORE PUSH1 0x4 ADD PUSH2 0xB90 SWAP1 PUSH2 0x31B8 JUMP JUMPDEST PUSH0 DUP2 GT PUSH2 0x1977 JUMPI PUSH1 0x40 MLOAD PUSH3 0x461BCD PUSH1 0xE5 SHL DUP2 MSTORE PUSH1 0x4 ADD PUSH2 0xB90 SWAP1 PUSH2 0x31E8 JUMP JUMPDEST PUSH1 0xD1 SSTORE JUMP JUMPDEST PUSH2 0x1993 PUSH0 DUP1 MLOAD PUSH1 0x20 PUSH2 0x360E DUP4 CODECOPY DUP2 MLOAD SWAP2 MSTORE CALLER PUSH2 0x1A15 JUMP JUMPDEST DUP1 PUSH2 0x19B0 JUMPI POP PUSH2 0x19B0 PUSH0 DUP1 MLOAD PUSH1 0x20 PUSH2 0x35EE DUP4 CODECOPY DUP2 MLOAD SWAP2 MSTORE CALLER PUSH2 0x1A15 JUMP JUMPDEST PUSH2 0x19CC JUMPI PUSH1 0x40 MLOAD PUSH3 0x461BCD PUSH1 0xE5 SHL DUP2 MSTORE PUSH1 0x4 ADD PUSH2 0xB90 SWAP1 PUSH2 0x31B8 JUMP JUMPDEST PUSH0 DUP2 GT PUSH2 0x1A10 JUMPI PUSH1 0x40 MLOAD PUSH3 0x461BCD PUSH1 0xE5 SHL DUP2 MSTORE PUSH1 0x20 PUSH1 0x4 DUP3 ADD MSTORE PUSH1 0x12 PUSH1 0x24 DUP3 ADD MSTORE PUSH18 0x125B9D985B1A59081B585E08185B5BDD5B9D PUSH1 0x72 SHL PUSH1 0x44 DUP3 ADD MSTORE PUSH1 0x64 ADD PUSH2 0xB90 JUMP JUMPDEST PUSH1 0xD2 SSTORE JUMP JUMPDEST PUSH0 SWAP2 DUP3 MSTORE PUSH1 0x6D PUSH1 0x20 SWAP1 DUP2 MSTORE PUSH1 0x40 DUP1 DUP5 KECCAK256 PUSH1 0x1 PUSH1 0x1 PUSH1 0xA0 SHL SUB SWAP4 SWAP1 SWAP4 AND DUP5 MSTORE SWAP2 SWAP1 MSTORE SWAP1 KECCAK256 SLOAD PUSH1 0xFF AND SWAP1 JUMP JUMPDEST PUSH2 0x1A56 PUSH0 DUP1 MLOAD PUSH1 0x20 PUSH2 0x360E DUP4 CODECOPY DUP2 MLOAD SWAP2 MSTORE CALLER PUSH2 0x1A15 JUMP JUMPDEST DUP1 PUSH2 0x1A73 JUMPI POP PUSH2 0x1A73 PUSH0 DUP1 MLOAD PUSH1 0x20 PUSH2 0x35EE DUP4 CODECOPY DUP2 MLOAD SWAP2 MSTORE CALLER PUSH2 0x1A15 JUMP JUMPDEST PUSH2 0x1A8F JUMPI PUSH1 0x40 MLOAD PUSH3 0x461BCD PUSH1 0xE5 SHL DUP2 MSTORE PUSH1 0x4 ADD PUSH2 0xB90 SWAP1 PUSH2 0x31B8 JUMP JUMPDEST PUSH0 DUP2 GT PUSH2 0x1AD4 JUMPI PUSH1 0x40 MLOAD PUSH3 0x461BCD PUSH1 0xE5 SHL DUP2 MSTORE PUSH1 0x20 PUSH1 0x4 DUP3 ADD MSTORE PUSH1 0x13 PUSH1 0x24 DUP3 ADD MSTORE PUSH19 0x125B9D985B1A59081B5A5B9D08185B5BDD5B9D PUSH1 0x6A SHL PUSH1 0x44 DUP3 ADD MSTORE PUSH1 0x64 ADD PUSH2 0xB90 JUMP JUMPDEST PUSH1 0xDA SSTORE JUMP JUMPDEST PUSH1 0x60 PUSH1 0x3 DUP1 SLOAD PUSH2 0xD6E SWAP1 PUSH2 0x3280 JUMP JUMPDEST CALLER PUSH0 DUP2 DUP2 MSTORE PUSH1 0x7 PUSH1 0x20 SWAP1 DUP2 MSTORE PUSH1 0x40 DUP1 DUP4 KECCAK256 PUSH1 0x1 PUSH1 0x1 PUSH1 0xA0 SHL SUB DUP8 AND DUP1 DUP6 MSTORE SWAP1 DUP4 MSTORE SWAP3 DUP2 SWAP1 KECCAK256 DUP1 SLOAD PUSH1 0xFF NOT AND DUP7 ISZERO ISZERO SWAP1 DUP2 OR SWAP1 SWAP2 SSTORE SWAP1 MLOAD SWAP1 DUP2 MSTORE SWAP2 SWAP3 SWAP2 PUSH32 0x17307EAB39AB6107E8899845AD3D59BD9653F200F220920489CA2B5937696C31 SWAP2 ADD PUSH1 0x40 MLOAD DUP1 SWAP2 SUB SWAP1 LOG3 POP POP JUMP JUMPDEST PUSH0 DUP1 MLOAD PUSH1 0x20 PUSH2 0x362E DUP4 CODECOPY DUP2 MLOAD SWAP2 MSTORE PUSH2 0x1B6A DUP2 PUSH2 0x20C9 JUMP JUMPDEST PUSH2 0x1B72 PUSH2 0x2070 JUMP JUMPDEST PUSH1 0xD8 SLOAD TIMESTAMP SWAP1 DUP2 GT DUP1 ISZERO SWAP1 PUSH2 0x1B88 JUMPI POP PUSH1 0xD7 SLOAD DUP2 LT ISZERO JUMPDEST PUSH2 0x1BC7 JUMPI PUSH1 0x40 MLOAD PUSH3 0x461BCD PUSH1 0xE5 SHL DUP2 MSTORE PUSH1 0x20 PUSH1 0x4 DUP3 ADD MSTORE PUSH1 0x10 PUSH1 0x24 DUP3 ADD MSTORE PUSH16 0x4E6F74204F47206D696E742074696D65 PUSH1 0x80 SHL PUSH1 0x44 DUP3 ADD MSTORE PUSH1 0x64 ADD PUSH2 0xB90 JUMP JUMPDEST PUSH1 0xDF SLOAD DUP4 PUSH2 0x1BD3 PUSH2 0xE44 JUMP JUMPDEST PUSH2 0x1BDD SWAP2 SWAP1 PUSH2 0x322A JUMP JUMPDEST GT ISZERO PUSH2 0x1BFB JUMPI PUSH1 0x40 MLOAD PUSH3 0x461BCD PUSH1 0xE5 SHL DUP2 MSTORE PUSH1 0x4 ADD PUSH2 0xB90 SWAP1 PUSH2 0x323D JUMP JUMPDEST PUSH2 0x1C0C CALLVALUE DUP6 PUSH1 0xD5 SLOAD DUP7 PUSH1 0xD6 SLOAD PUSH2 0x20D6 JUMP JUMPDEST PUSH1 0xD5 SLOAD PUSH1 0x40 DUP1 MLOAD CALLVALUE DUP2 MSTORE PUSH1 0x1 PUSH1 0x1 PUSH1 0xA0 SHL SUB DUP8 AND PUSH1 0x20 DUP3 ADD MSTORE SWAP1 DUP2 ADD DUP6 SWAP1 MSTORE PUSH1 0x60 DUP2 ADD SWAP2 SWAP1 SWAP2 MSTORE CALLER SWAP1 PUSH32 0x2803FCF0A236D2815D9E6B3EF81AD6014F08139D44906D7D3CFC5302331E81E0 SWAP1 PUSH1 0x80 ADD PUSH1 0x40 MLOAD DUP1 SWAP2 SUB SWAP1 LOG2 POP PUSH2 0x151C PUSH1 0x1 PUSH1 0x9F SSTORE JUMP JUMPDEST PUSH2 0x1C78 DUP5 DUP5 DUP5 PUSH2 0x12CD JUMP JUMPDEST PUSH1 0x1 PUSH1 0x1 PUSH1 0xA0 SHL SUB DUP4 AND EXTCODESIZE ISZERO PUSH2 0x1CA8 JUMPI PUSH2 0x1C94 DUP5 DUP5 DUP5 DUP5 PUSH2 0x26FA JUMP JUMPDEST PUSH2 0x1CA8 JUMPI PUSH2 0x1CA8 PUSH4 0x68D2BF6B PUSH1 0xE1 SHL PUSH2 0x2264 JUMP JUMPDEST POP POP POP POP JUMP JUMPDEST PUSH1 0x60 PUSH2 0x1CB9 DUP3 PUSH2 0x221A JUMP JUMPDEST PUSH2 0x1D1D JUMPI PUSH1 0x40 MLOAD PUSH3 0x461BCD PUSH1 0xE5 SHL DUP2 MSTORE PUSH1 0x20 PUSH1 0x4 DUP3 ADD MSTORE PUSH1 0x2F PUSH1 0x24 DUP3 ADD MSTORE PUSH32 0x4552433732314D657461646174613A2055524920717565727920666F72206E6F PUSH1 0x44 DUP3 ADD MSTORE PUSH15 0x3732BC34B9BA32B73A103A37B5B2B7 PUSH1 0x89 SHL PUSH1 0x64 DUP3 ADD MSTORE PUSH1 0x84 ADD PUSH2 0xB90 JUMP JUMPDEST PUSH0 PUSH2 0x1D32 PUSH1 0x40 DUP1 MLOAD PUSH1 0x20 DUP2 ADD SWAP1 SWAP2 MSTORE PUSH0 DUP2 MSTORE SWAP1 JUMP JUMPDEST SWAP1 POP PUSH0 DUP2 MLOAD GT PUSH2 0x1D50 JUMPI PUSH1 0x40 MLOAD DUP1 PUSH1 0x20 ADD PUSH1 0x40 MSTORE DUP1 PUSH0 DUP2 MSTORE POP PUSH2 0xD58 JUMP JUMPDEST DUP1 PUSH2 0x1D5A DUP5 PUSH2 0x27D9 JUMP JUMPDEST PUSH1 0xDE PUSH1 0x40 MLOAD PUSH1 0x20 ADD PUSH2 0x1D6E SWAP4 SWAP3 SWAP2 SWAP1 PUSH2 0x3438 JUMP JUMPDEST PUSH1 0x40 MLOAD PUSH1 0x20 DUP2 DUP4 SUB SUB DUP2 MSTORE SWAP1 PUSH1 0x40 MSTORE SWAP4 SWAP3 POP POP POP JUMP JUMPDEST PUSH2 0x1D9B PUSH0 DUP1 MLOAD PUSH1 0x20 PUSH2 0x360E DUP4 CODECOPY DUP2 MLOAD SWAP2 MSTORE CALLER PUSH2 0x1A15 JUMP JUMPDEST DUP1 PUSH2 0x1DB8 JUMPI POP PUSH2 0x1DB8 PUSH0 DUP1 MLOAD PUSH1 0x20 PUSH2 0x35EE DUP4 CODECOPY DUP2 MLOAD SWAP2 MSTORE CALLER PUSH2 0x1A15 JUMP JUMPDEST PUSH2 0x1DD4 JUMPI PUSH1 0x40 MLOAD PUSH3 0x461BCD PUSH1 0xE5 SHL DUP2 MSTORE PUSH1 0x4 ADD PUSH2 0xB90 SWAP1 PUSH2 0x31B8 JUMP JUMPDEST PUSH0 DUP2 GT PUSH2 0x1E18 JUMPI PUSH1 0x40 MLOAD PUSH3 0x461BCD PUSH1 0xE5 SHL DUP2 MSTORE PUSH1 0x20 PUSH1 0x4 DUP3 ADD MSTORE PUSH1 0x12 PUSH1 0x24 DUP3 ADD MSTORE PUSH18 0x125B9D985B1A59081B585E08185B5BDD5B9D PUSH1 0x72 SHL PUSH1 0x44 DUP3 ADD MSTORE PUSH1 0x64 ADD PUSH2 0xB90 JUMP JUMPDEST PUSH1 0xD6 SSTORE JUMP JUMPDEST PUSH0 DUP3 DUP2 MSTORE PUSH1 0x6D PUSH1 0x20 MSTORE PUSH1 0x40 SWAP1 KECCAK256 PUSH1 0x1 ADD SLOAD PUSH2 0x1E37 DUP2 PUSH2 0x20C9 JUMP JUMPDEST PUSH2 0x151C DUP4 DUP4 PUSH2 0x2671 JUMP JUMPDEST PUSH1 0xDE PUSH2 0xCD8 DUP3 DUP3 PUSH2 0x3305 JUMP JUMPDEST PUSH0 DUP1 DUP3 PUSH1 0xD5 SLOAD PUSH2 0xD31 SWAP2 SWAP1 PUSH2 0x3269 JUMP JUMPDEST PUSH2 0x1E74 PUSH0 DUP1 MLOAD PUSH1 0x20 PUSH2 0x360E DUP4 CODECOPY DUP2 MLOAD SWAP2 MSTORE CALLER PUSH2 0x1A15 JUMP JUMPDEST DUP1 PUSH2 0x1E91 JUMPI POP PUSH2 0x1E91 PUSH0 DUP1 MLOAD PUSH1 0x20 PUSH2 0x35EE DUP4 CODECOPY DUP2 MLOAD SWAP2 MSTORE CALLER PUSH2 0x1A15 JUMP JUMPDEST PUSH2 0x1EAD JUMPI PUSH1 0x40 MLOAD PUSH3 0x461BCD PUSH1 0xE5 SHL DUP2 MSTORE PUSH1 0x4 ADD PUSH2 0xB90 SWAP1 PUSH2 0x31B8 JUMP JUMPDEST PUSH0 DUP2 GT PUSH2 0x1ECC JUMPI PUSH1 0x40 MLOAD PUSH3 0x461BCD PUSH1 0xE5 SHL DUP2 MSTORE PUSH1 0x4 ADD PUSH2 0xB90 SWAP1 PUSH2 0x31E8 JUMP JUMPDEST PUSH1 0xD5 SSTORE JUMP JUMPDEST PUSH2 0x1EE8 PUSH0 DUP1 MLOAD PUSH1 0x20 PUSH2 0x360E DUP4 CODECOPY DUP2 MLOAD SWAP2 MSTORE CALLER PUSH2 0x1A15 JUMP JUMPDEST DUP1 PUSH2 0x1F05 JUMPI POP PUSH2 0x1F05 PUSH0 DUP1 MLOAD PUSH1 0x20 PUSH2 0x35EE DUP4 CODECOPY DUP2 MLOAD SWAP2 MSTORE CALLER PUSH2 0x1A15 JUMP JUMPDEST PUSH2 0x1F21 JUMPI PUSH1 0x40 MLOAD PUSH3 0x461BCD PUSH1 0xE5 SHL DUP2 MSTORE PUSH1 0x4 ADD PUSH2 0xB90 SWAP1 PUSH2 0x31B8 JUMP JUMPDEST PUSH1 0xFF DUP2 AND ISZERO DUP1 PUSH2 0x1F34 JUMPI POP DUP1 PUSH1 0xFF AND PUSH1 0x1 EQ JUMPDEST PUSH2 0x1F77 JUMPI PUSH1 0x40 MLOAD PUSH3 0x461BCD PUSH1 0xE5 SHL DUP2 MSTORE PUSH1 0x20 PUSH1 0x4 DUP3 ADD MSTORE PUSH1 0x14 PUSH1 0x24 DUP3 ADD MSTORE PUSH20 0x4572726F72206F6E6C79204F473D302C574C3D31 PUSH1 0x60 SHL PUSH1 0x44 DUP3 ADD MSTORE PUSH1 0x64 ADD PUSH2 0xB90 JUMP JUMPDEST DUP2 DUP1 ISZERO PUSH2 0x1CA8 JUMPI PUSH0 JUMPDEST DUP2 DUP2 LT ISZERO PUSH2 0x2069 JUMPI PUSH0 DUP6 DUP6 DUP4 DUP2 DUP2 LT PUSH2 0x1F9B JUMPI PUSH2 0x1F9B PUSH2 0x33C1 JUMP JUMPDEST SWAP1 POP PUSH1 0x20 MUL ADD PUSH1 0x20 DUP2 ADD SWAP1 PUSH2 0x1FB0 SWAP2 SWAP1 PUSH2 0x306F JUMP JUMPDEST PUSH1 0x1 PUSH1 0x1 PUSH1 0xA0 SHL SUB AND SUB PUSH2 0x1FF8 JUMPI PUSH1 0x40 MLOAD PUSH3 0x461BCD PUSH1 0xE5 SHL DUP2 MSTORE PUSH1 0x20 PUSH1 0x4 DUP3 ADD MSTORE PUSH1 0xF PUSH1 0x24 DUP3 ADD MSTORE PUSH15 0x496E76616C69642041646472657373 PUSH1 0x88 SHL PUSH1 0x44 DUP3 ADD MSTORE PUSH1 0x64 ADD PUSH2 0xB90 JUMP JUMPDEST PUSH1 0xFF DUP4 AND ISZERO PUSH2 0x203E JUMPI PUSH2 0x2039 PUSH0 DUP1 MLOAD PUSH1 0x20 PUSH2 0x362E DUP4 CODECOPY DUP2 MLOAD SWAP2 MSTORE DUP7 DUP7 DUP5 DUP2 DUP2 LT PUSH2 0x2024 JUMPI PUSH2 0x2024 PUSH2 0x33C1 JUMP JUMPDEST SWAP1 POP PUSH1 0x20 MUL ADD PUSH1 0x20 DUP2 ADD SWAP1 PUSH2 0xFA8 SWAP2 SWAP1 PUSH2 0x306F JUMP JUMPDEST PUSH2 0x2061 JUMP JUMPDEST PUSH2 0x2061 PUSH0 DUP1 MLOAD PUSH1 0x20 PUSH2 0x35CE DUP4 CODECOPY DUP2 MLOAD SWAP2 MSTORE DUP7 DUP7 DUP5 DUP2 DUP2 LT PUSH2 0x2024 JUMPI PUSH2 0x2024 PUSH2 0x33C1 JUMP JUMPDEST PUSH1 0x1 ADD PUSH2 0x1F80 JUMP JUMPDEST POP POP POP POP POP JUMP JUMPDEST PUSH1 0x2 PUSH1 0x9F SLOAD SUB PUSH2 0x20C2 JUMPI PUSH1 0x40 MLOAD PUSH3 0x461BCD PUSH1 0xE5 SHL DUP2 MSTORE PUSH1 0x20 PUSH1 0x4 DUP3 ADD MSTORE PUSH1 0x1F PUSH1 0x24 DUP3 ADD MSTORE PUSH32 0x5265656E7472616E637947756172643A207265656E7472616E742063616C6C00 PUSH1 0x44 DUP3 ADD MSTORE PUSH1 0x64 ADD PUSH2 0xB90 JUMP JUMPDEST PUSH1 0x2 PUSH1 0x9F SSTORE JUMP JUMPDEST PUSH2 0x20D3 DUP2 CALLER PUSH2 0x281C JUMP JUMPDEST POP JUMP JUMPDEST CALLER PUSH0 SWAP1 DUP2 MSTORE PUSH1 0xE2 PUSH1 0x20 MSTORE PUSH1 0x40 SWAP1 KECCAK256 SLOAD DUP2 SWAP1 PUSH2 0x20F2 SWAP1 DUP5 SWAP1 PUSH2 0x322A JUMP JUMPDEST GT ISZERO PUSH2 0x2132 JUMPI PUSH1 0x40 MLOAD PUSH3 0x461BCD PUSH1 0xE5 SHL DUP2 MSTORE PUSH1 0x20 PUSH1 0x4 DUP3 ADD MSTORE PUSH1 0xF PUSH1 0x24 DUP3 ADD MSTORE PUSH15 0x115E18D959591CC81B585E135A5B9D PUSH1 0x8A SHL PUSH1 0x44 DUP3 ADD MSTORE PUSH1 0x64 ADD PUSH2 0xB90 JUMP JUMPDEST PUSH0 PUSH2 0x213D DUP5 DUP5 PUSH2 0x3269 JUMP JUMPDEST SWAP1 POP PUSH0 PUSH1 0xE0 SLOAD PUSH0 SUB PUSH2 0x214F JUMPI PUSH0 PUSH2 0x215B JUMP JUMPDEST PUSH2 0x215B DUP3 PUSH1 0xE0 SLOAD PUSH2 0x2208 JUMP JUMPDEST SWAP1 POP PUSH2 0x2167 DUP2 DUP4 PUSH2 0x322A JUMP JUMPDEST DUP8 LT ISZERO PUSH2 0x21B6 JUMPI PUSH1 0x40 MLOAD PUSH3 0x461BCD PUSH1 0xE5 SHL DUP2 MSTORE PUSH1 0x20 PUSH1 0x4 DUP3 ADD MSTORE PUSH1 0x19 PUSH1 0x24 DUP3 ADD MSTORE PUSH32 0x496E73756666696369656E74206D696E74207061796D656E7400000000000000 PUSH1 0x44 DUP3 ADD MSTORE PUSH1 0x64 ADD PUSH2 0xB90 JUMP JUMPDEST CALLER PUSH0 SWAP1 DUP2 MSTORE PUSH1 0xE2 PUSH1 0x20 MSTORE PUSH1 0x40 SWAP1 KECCAK256 DUP1 SLOAD DUP6 ADD SWAP1 SSTORE PUSH2 0x1428 DUP7 DUP6 PUSH2 0x26E1 JUMP JUMPDEST PUSH0 PUSH1 0x1 PUSH1 0x1 PUSH1 0xE0 SHL SUB NOT DUP3 AND PUSH4 0x7965DB0B PUSH1 0xE0 SHL EQ DUP1 PUSH2 0xD1B JUMPI POP PUSH4 0x1FFC9A7 PUSH1 0xE0 SHL PUSH1 0x1 PUSH1 0x1 PUSH1 0xE0 SHL SUB NOT DUP4 AND EQ PUSH2 0xD1B JUMP JUMPDEST PUSH0 PUSH2 0xD58 DUP4 PUSH2 0x14E6 DUP5 PUSH3 0xF4240 PUSH2 0x33D5 JUMP JUMPDEST PUSH0 DUP2 PUSH1 0x1 GT PUSH2 0x225F JUMPI PUSH0 SLOAD DUP3 LT ISZERO PUSH2 0x225F JUMPI PUSH0 JUMPDEST POP PUSH0 DUP3 DUP2 MSTORE PUSH1 0x4 PUSH1 0x20 MSTORE PUSH1 0x40 DUP2 KECCAK256 SLOAD SWAP1 DUP2 SWAP1 SUB PUSH2 0x2255 JUMPI PUSH2 0x224E DUP4 PUSH2 0x34D3 JUMP JUMPDEST SWAP3 POP PUSH2 0x222E JUMP JUMPDEST PUSH1 0x1 PUSH1 0xE0 SHL AND ISZERO SWAP1 POP JUMPDEST SWAP2 SWAP1 POP JUMP JUMPDEST DUP1 PUSH0 MSTORE PUSH1 0x4 PUSH0 REVERT JUMPDEST PUSH0 PUSH2 0x2276 DUP4 PUSH2 0x17A7 JUMP JUMPDEST SWAP1 POP DUP2 DUP1 ISZERO PUSH2 0x228E JUMPI POP CALLER PUSH1 0x1 PUSH1 0x1 PUSH1 0xA0 SHL SUB DUP3 AND EQ ISZERO JUMPDEST ISZERO PUSH2 0x22B1 JUMPI PUSH2 0x229D DUP2 CALLER PUSH2 0xA76 JUMP JUMPDEST PUSH2 0x22B1 JUMPI PUSH2 0x22B1 PUSH4 0x67D9DCA1 PUSH1 0xE1 SHL PUSH2 0x2264 JUMP JUMPDEST PUSH0 DUP4 DUP2 MSTORE PUSH1 0x6 PUSH1 0x20 MSTORE PUSH1 0x40 DUP1 DUP3 KECCAK256 DUP1 SLOAD PUSH1 0x1 PUSH1 0x1 PUSH1 0xA0 SHL SUB NOT AND PUSH1 0x1 PUSH1 0x1 PUSH1 0xA0 SHL SUB DUP9 DUP2 AND SWAP2 DUP3 OR SWAP1 SWAP3 SSTORE SWAP2 MLOAD DUP7 SWAP4 SWAP2 DUP6 AND SWAP2 PUSH32 0x8C5BE1E5EBEC7D5BD14F71427D1E84F3DD0314C0F7B2291E5B200AC8C7C3B925 SWAP2 LOG4 POP POP POP POP JUMP JUMPDEST PUSH1 0x2 PUSH2 0x2319 DUP4 DUP3 PUSH2 0x3305 JUMP JUMPDEST POP PUSH1 0x3 PUSH2 0x2326 DUP3 DUP3 PUSH2 0x3305 JUMP JUMPDEST POP PUSH1 0x1 PUSH0 SSTORE POP POP JUMP JUMPDEST PUSH1 0x8 SLOAD PUSH2 0x100 SWAP1 DIV PUSH1 0xFF AND PUSH2 0x239A JUMPI PUSH1 0x40 MLOAD PUSH3 0x461BCD PUSH1 0xE5 SHL DUP2 MSTORE PUSH1 0x20 PUSH1 0x4 DUP3 ADD MSTORE PUSH1 0x2B PUSH1 0x24 DUP3 ADD MSTORE PUSH32 0x496E697469616C697A61626C653A20636F6E7472616374206973206E6F742069 PUSH1 0x44 DUP3 ADD MSTORE PUSH11 0x6E697469616C697A696E67 PUSH1 0xA8 SHL PUSH1 0x64 DUP3 ADD MSTORE PUSH1 0x84 ADD PUSH2 0xB90 JUMP JUMPDEST JUMP JUMPDEST PUSH0 DUP3 DUP2 MSTORE PUSH1 0x6D PUSH1 0x20 MSTORE PUSH1 0x40 DUP1 DUP3 KECCAK256 PUSH1 0x1 ADD DUP1 SLOAD SWAP1 DUP5 SWAP1 SSTORE SWAP1 MLOAD SWAP1 SWAP2 DUP4 SWAP2 DUP4 SWAP2 DUP7 SWAP2 PUSH32 0xBD79B86FFE0AB8E8776151514217CD7CACD52C909F66475C3AF44E129F0B00FF SWAP2 SWAP1 LOG4 POP POP POP JUMP JUMPDEST PUSH2 0x23F0 DUP3 DUP3 PUSH2 0x1A15 JUMP JUMPDEST PUSH2 0xCD8 JUMPI PUSH0 DUP3 DUP2 MSTORE PUSH1 0x6D PUSH1 0x20 SWAP1 DUP2 MSTORE PUSH1 0x40 DUP1 DUP4 KECCAK256 PUSH1 0x1 PUSH1 0x1 PUSH1 0xA0 SHL SUB DUP6 AND DUP5 MSTORE SWAP1 SWAP2 MSTORE SWAP1 KECCAK256 DUP1 SLOAD PUSH1 0xFF NOT AND PUSH1 0x1 OR SWAP1 SSTORE PUSH2 0x2427 CALLER SWAP1 JUMP JUMPDEST PUSH1 0x1 PUSH1 0x1 PUSH1 0xA0 SHL SUB AND DUP2 PUSH1 0x1 PUSH1 0x1 PUSH1 0xA0 SHL SUB AND DUP4 PUSH32 0x2F8788117E7EFF1D82E926EC794901D17C78024A50270940304540A733656F0D PUSH1 0x40 MLOAD PUSH1 0x40 MLOAD DUP1 SWAP2 SUB SWAP1 LOG4 POP POP JUMP JUMPDEST PUSH0 DUP2 PUSH1 0x1 GT PUSH2 0x24F5 JUMPI POP PUSH0 DUP2 DUP2 MSTORE PUSH1 0x4 PUSH1 0x20 MSTORE PUSH1 0x40 DUP2 KECCAK256 SLOAD SWAP1 DUP2 SWAP1 SUB PUSH2 0x24E3 JUMPI PUSH0 SLOAD DUP3 LT PUSH2 0x24A3 JUMPI PUSH2 0x24A3 PUSH4 0x6F96CDA1 PUSH1 0xE1 SHL PUSH2 0x2264 JUMP JUMPDEST JUMPDEST POP PUSH0 NOT ADD PUSH0 DUP2 DUP2 MSTORE PUSH1 0x4 PUSH1 0x20 MSTORE PUSH1 0x40 SWAP1 KECCAK256 SLOAD DUP1 ISZERO PUSH2 0x24A4 JUMPI PUSH1 0x1 PUSH1 0xE0 SHL DUP2 AND PUSH0 SUB PUSH2 0x24CE JUMPI SWAP2 SWAP1 POP JUMP JUMPDEST PUSH2 0x24DE PUSH4 0x6F96CDA1 PUSH1 0xE1 SHL PUSH2 0x2264 JUMP JUMPDEST PUSH2 0x24A4 JUMP JUMPDEST PUSH1 0x1 PUSH1 0xE0 SHL DUP2 AND PUSH0 SUB PUSH2 0x24F5 JUMPI SWAP2 SWAP1 POP JUMP JUMPDEST PUSH2 0x225F PUSH4 0x6F96CDA1 PUSH1 0xE1 SHL PUSH2 0x2264 JUMP JUMPDEST PUSH0 DUP1 DUP1 PUSH0 NOT DUP6 DUP8 MULMOD DUP6 DUP8 MUL SWAP3 POP DUP3 DUP2 LT DUP4 DUP3 SUB SUB SWAP2 POP POP DUP1 PUSH0 SUB PUSH2 0x2539 JUMPI PUSH0 DUP5 GT PUSH2 0x252E JUMPI PUSH0 DUP1 REVERT JUMPDEST POP DUP3 SWAP1 DIV SWAP1 POP PUSH2 0xD58 JUMP JUMPDEST DUP1 DUP5 GT PUSH2 0x2544 JUMPI PUSH0 DUP1 REVERT JUMPDEST PUSH0 DUP5 DUP7 DUP9 MULMOD DUP1 DUP5 SUB SWAP4 DUP2 GT SWAP1 SWAP3 SUB SWAP2 SWAP1 POP PUSH0 DUP6 PUSH2 0x2560 DUP2 PUSH2 0x34E8 JUMP JUMPDEST AND SWAP6 DUP7 SWAP1 DIV SWAP6 SWAP4 DUP5 SWAP1 DIV SWAP4 PUSH0 DUP2 SWAP1 SUB DIV PUSH1 0x1 ADD SWAP1 POP PUSH2 0x257F DUP2 DUP5 PUSH2 0x3269 JUMP JUMPDEST SWAP1 SWAP4 OR SWAP3 PUSH0 PUSH2 0x258F DUP8 PUSH1 0x3 PUSH2 0x3269 JUMP JUMPDEST PUSH1 0x2 XOR SWAP1 POP PUSH2 0x259E DUP2 DUP9 PUSH2 0x3269 JUMP JUMPDEST PUSH2 0x25A9 SWAP1 PUSH1 0x2 PUSH2 0x33D5 JUMP JUMPDEST PUSH2 0x25B3 SWAP1 DUP3 PUSH2 0x3269 JUMP JUMPDEST SWAP1 POP PUSH2 0x25BF DUP2 DUP9 PUSH2 0x3269 JUMP JUMPDEST PUSH2 0x25CA SWAP1 PUSH1 0x2 PUSH2 0x33D5 JUMP JUMPDEST PUSH2 0x25D4 SWAP1 DUP3 PUSH2 0x3269 JUMP JUMPDEST SWAP1 POP PUSH2 0x25E0 DUP2 DUP9 PUSH2 0x3269 JUMP JUMPDEST PUSH2 0x25EB SWAP1 PUSH1 0x2 PUSH2 0x33D5 JUMP JUMPDEST PUSH2 0x25F5 SWAP1 DUP3 PUSH2 0x3269 JUMP JUMPDEST SWAP1 POP PUSH2 0x2601 DUP2 DUP9 PUSH2 0x3269 JUMP JUMPDEST PUSH2 0x260C SWAP1 PUSH1 0x2 PUSH2 0x33D5 JUMP JUMPDEST PUSH2 0x2616 SWAP1 DUP3 PUSH2 0x3269 JUMP JUMPDEST SWAP1 POP PUSH2 0x2622 DUP2 DUP9 PUSH2 0x3269 JUMP JUMPDEST PUSH2 0x262D SWAP1 PUSH1 0x2 PUSH2 0x33D5 JUMP JUMPDEST PUSH2 0x2637 SWAP1 DUP3 PUSH2 0x3269 JUMP JUMPDEST SWAP1 POP PUSH2 0x2643 DUP2 DUP9 PUSH2 0x3269 JUMP JUMPDEST PUSH2 0x264E SWAP1 PUSH1 0x2 PUSH2 0x33D5 JUMP JUMPDEST PUSH2 0x2658 SWAP1 DUP3 PUSH2 0x3269 JUMP JUMPDEST SWAP1 POP PUSH2 0x2664 DUP2 DUP7 PUSH2 0x3269 JUMP JUMPDEST SWAP10 SWAP9 POP POP POP POP POP POP POP POP POP JUMP JUMPDEST PUSH2 0x267B DUP3 DUP3 PUSH2 0x1A15 JUMP JUMPDEST ISZERO PUSH2 0xCD8 JUMPI PUSH0 DUP3 DUP2 MSTORE PUSH1 0x6D PUSH1 0x20 SWAP1 DUP2 MSTORE PUSH1 0x40 DUP1 DUP4 KECCAK256 PUSH1 0x1 PUSH1 0x1 PUSH1 0xA0 SHL SUB DUP6 AND DUP1 DUP6 MSTORE SWAP3 MSTORE DUP1 DUP4 KECCAK256 DUP1 SLOAD PUSH1 0xFF NOT AND SWAP1 SSTORE MLOAD CALLER SWAP3 DUP6 SWAP2 PUSH32 0xF6391F5C32D9C69D2A47EA670B442974B53935D1EDC7FD64EB21E047A839171B SWAP2 SWAP1 LOG4 POP POP JUMP JUMPDEST PUSH2 0x20D3 DUP2 PUSH0 PUSH2 0x2875 JUMP JUMPDEST PUSH2 0xCD8 DUP3 DUP3 PUSH1 0x40 MLOAD DUP1 PUSH1 0x20 ADD PUSH1 0x40 MSTORE DUP1 PUSH0 DUP2 MSTORE POP PUSH2 0x29AC JUMP JUMPDEST PUSH1 0x40 MLOAD PUSH4 0xA85BD01 PUSH1 0xE1 SHL DUP2 MSTORE PUSH0 SWAP1 PUSH1 0x1 PUSH1 0x1 PUSH1 0xA0 SHL SUB DUP6 AND SWAP1 PUSH4 0x150B7A02 SWAP1 PUSH2 0x272E SWAP1 CALLER SWAP1 DUP10 SWAP1 DUP9 SWAP1 DUP9 SWAP1 PUSH1 0x4 ADD PUSH2 0x3502 JUMP JUMPDEST PUSH1 0x20 PUSH1 0x40 MLOAD DUP1 DUP4 SUB DUP2 PUSH0 DUP8 GAS CALL SWAP3 POP POP POP DUP1 ISZERO PUSH2 0x2768 JUMPI POP PUSH1 0x40 DUP1 MLOAD PUSH1 0x1F RETURNDATASIZE SWAP1 DUP2 ADD PUSH1 0x1F NOT AND DUP3 ADD SWAP1 SWAP3 MSTORE PUSH2 0x2765 SWAP2 DUP2 ADD SWAP1 PUSH2 0x353E JUMP JUMPDEST PUSH1 0x1 JUMPDEST PUSH2 0x27BB JUMPI RETURNDATASIZE DUP1 DUP1 ISZERO PUSH2 0x2795 JUMPI PUSH1 0x40 MLOAD SWAP2 POP PUSH1 0x1F NOT PUSH1 0x3F RETURNDATASIZE ADD AND DUP3 ADD PUSH1 0x40 MSTORE RETURNDATASIZE DUP3 MSTORE RETURNDATASIZE PUSH0 PUSH1 0x20 DUP5 ADD RETURNDATACOPY PUSH2 0x279A JUMP JUMPDEST PUSH1 0x60 SWAP2 POP JUMPDEST POP DUP1 MLOAD PUSH0 SUB PUSH2 0x27B3 JUMPI PUSH2 0x27B3 PUSH4 0x68D2BF6B PUSH1 0xE1 SHL PUSH2 0x2264 JUMP JUMPDEST DUP1 MLOAD DUP2 PUSH1 0x20 ADD REVERT JUMPDEST PUSH1 0x1 PUSH1 0x1 PUSH1 0xE0 SHL SUB NOT AND PUSH4 0xA85BD01 PUSH1 0xE1 SHL EQ SWAP1 POP JUMPDEST SWAP5 SWAP4 POP POP POP POP JUMP JUMPDEST PUSH1 0x60 PUSH1 0xA0 PUSH1 0x40 MLOAD ADD DUP1 PUSH1 0x40 MSTORE PUSH1 0x20 DUP2 SUB SWAP2 POP POP PUSH0 DUP2 MSTORE DUP1 DUP3 JUMPDEST PUSH1 0x1 DUP4 SUB SWAP3 POP PUSH1 0xA DUP2 MOD PUSH1 0x30 ADD DUP4 MSTORE8 PUSH1 0xA SWAP1 DIV DUP1 PUSH2 0x27F2 JUMPI POP DUP2 SWAP1 SUB PUSH1 0x1F NOT SWAP1 SWAP2 ADD SWAP1 DUP2 MSTORE SWAP2 SWAP1 POP JUMP JUMPDEST PUSH2 0x2826 DUP3 DUP3 PUSH2 0x1A15 JUMP JUMPDEST PUSH2 0xCD8 JUMPI PUSH2 0x2833 DUP2 PUSH2 0x2A0A JUMP JUMPDEST PUSH2 0x283E DUP4 PUSH1 0x20 PUSH2 0x2A1C JUMP JUMPDEST PUSH1 0x40 MLOAD PUSH1 0x20 ADD PUSH2 0x284F SWAP3 SWAP2 SWAP1 PUSH2 0x3559 JUMP JUMPDEST PUSH1 0x40 DUP1 MLOAD PUSH1 0x1F NOT DUP2 DUP5 SUB ADD DUP2 MSTORE SWAP1 DUP3 SWAP1 MSTORE PUSH3 0x461BCD PUSH1 0xE5 SHL DUP3 MSTORE PUSH2 0xB90 SWAP2 PUSH1 0x4 ADD PUSH2 0x2D3E JUMP JUMPDEST PUSH0 PUSH2 0x287F DUP4 PUSH2 0x246B JUMP JUMPDEST SWAP1 POP DUP1 PUSH0 DUP1 PUSH2 0x289B DUP7 PUSH0 SWAP1 DUP2 MSTORE PUSH1 0x6 PUSH1 0x20 MSTORE PUSH1 0x40 SWAP1 KECCAK256 DUP1 SLOAD SWAP1 SWAP2 JUMP JUMPDEST SWAP2 POP SWAP2 POP DUP5 ISZERO PUSH2 0x28D2 JUMPI PUSH2 0x28B0 DUP2 DUP5 CALLER PUSH2 0x1313 JUMP JUMPDEST PUSH2 0x28D2 JUMPI PUSH2 0x28BE DUP4 CALLER PUSH2 0xA76 JUMP JUMPDEST PUSH2 0x28D2 JUMPI PUSH2 0x28D2 PUSH4 0x2CE44B5F PUSH1 0xE1 SHL PUSH2 0x2264 JUMP JUMPDEST DUP1 ISZERO PUSH2 0x28DC JUMPI PUSH0 DUP3 SSTORE JUMPDEST PUSH1 0x1 PUSH1 0x1 PUSH1 0xA0 SHL SUB DUP4 AND PUSH0 DUP2 DUP2 MSTORE PUSH1 0x5 PUSH1 0x20 MSTORE PUSH1 0x40 SWAP1 KECCAK256 DUP1 SLOAD PUSH16 0xFFFFFFFFFFFFFFFFFFFFFFFFFFFFFFFF ADD SWAP1 SSTORE TIMESTAMP PUSH1 0xA0 SHL OR PUSH1 0x3 PUSH1 0xE0 SHL OR PUSH0 DUP8 DUP2 MSTORE PUSH1 0x4 PUSH1 0x20 MSTORE PUSH1 0x40 DUP2 KECCAK256 SWAP2 SWAP1 SWAP2 SSTORE PUSH1 0x1 PUSH1 0xE1 SHL DUP6 AND SWAP1 SUB PUSH2 0x2965 JUMPI PUSH1 0x1 DUP7 ADD PUSH0 DUP2 DUP2 MSTORE PUSH1 0x4 PUSH1 0x20 MSTORE PUSH1 0x40 DUP2 KECCAK256 SLOAD SWAP1 SUB PUSH2 0x2963 JUMPI PUSH0 SLOAD DUP2 EQ PUSH2 0x2963 JUMPI PUSH0 DUP2 DUP2 MSTORE PUSH1 0x4 PUSH1 0x20 MSTORE PUSH1 0x40 SWAP1 KECCAK256 DUP6 SWAP1 SSTORE JUMPDEST POP JUMPDEST PUSH1 0x40 MLOAD DUP7 SWAP1 PUSH0 SWAP1 PUSH1 0x1 PUSH1 0x1 PUSH1 0xA0 SHL SUB DUP7 AND SWAP1 PUSH32 0xDDF252AD1BE2C89B69C2B068FC378DAA952BA7F163C4A11628F55A4DF523B3EF SWAP1 DUP4 SWAP1 LOG4 POP POP PUSH1 0x1 DUP1 SLOAD DUP2 ADD SWAP1 SSTORE POP POP POP POP JUMP JUMPDEST PUSH2 0x29B6 DUP4 DUP4 PUSH2 0x2BB2 JUMP JUMPDEST PUSH1 0x1 PUSH1 0x1 PUSH1 0xA0 SHL SUB DUP4 AND EXTCODESIZE ISZERO PUSH2 0x151C JUMPI PUSH0 SLOAD DUP3 DUP2 SUB JUMPDEST PUSH2 0x29DE PUSH0 DUP7 DUP4 DUP1 PUSH1 0x1 ADD SWAP5 POP DUP7 PUSH2 0x26FA JUMP JUMPDEST PUSH2 0x29F2 JUMPI PUSH2 0x29F2 PUSH4 0x68D2BF6B PUSH1 0xE1 SHL PUSH2 0x2264 JUMP JUMPDEST DUP2 DUP2 LT PUSH2 0x29CC JUMPI DUP2 PUSH0 SLOAD EQ PUSH2 0x2069 JUMPI PUSH2 0x2069 PUSH0 PUSH2 0x2264 JUMP JUMPDEST PUSH1 0x60 PUSH2 0xD1B PUSH1 0x1 PUSH1 0x1 PUSH1 0xA0 SHL SUB DUP4 AND PUSH1 0x14 JUMPDEST PUSH1 0x60 PUSH0 PUSH2 0x2A2A DUP4 PUSH1 0x2 PUSH2 0x3269 JUMP JUMPDEST PUSH2 0x2A35 SWAP1 PUSH1 0x2 PUSH2 0x322A JUMP JUMPDEST PUSH8 0xFFFFFFFFFFFFFFFF DUP2 GT ISZERO PUSH2 0x2A4D JUMPI PUSH2 0x2A4D PUSH2 0x2F03 JUMP JUMPDEST PUSH1 0x40 MLOAD SWAP1 DUP1 DUP3 MSTORE DUP1 PUSH1 0x1F ADD PUSH1 0x1F NOT AND PUSH1 0x20 ADD DUP3 ADD PUSH1 0x40 MSTORE DUP1 ISZERO PUSH2 0x2A77 JUMPI PUSH1 0x20 DUP3 ADD DUP2 DUP1 CALLDATASIZE DUP4 CALLDATACOPY ADD SWAP1 POP JUMPDEST POP SWAP1 POP PUSH1 0x3 PUSH1 0xFC SHL DUP2 PUSH0 DUP2 MLOAD DUP2 LT PUSH2 0x2A91 JUMPI PUSH2 0x2A91 PUSH2 0x33C1 JUMP JUMPDEST PUSH1 0x20 ADD ADD SWAP1 PUSH1 0x1 PUSH1 0x1 PUSH1 0xF8 SHL SUB NOT AND SWAP1 DUP2 PUSH0 BYTE SWAP1 MSTORE8 POP PUSH1 0xF PUSH1 0xFB SHL DUP2 PUSH1 0x1 DUP2 MLOAD DUP2 LT PUSH2 0x2ABF JUMPI PUSH2 0x2ABF PUSH2 0x33C1 JUMP JUMPDEST PUSH1 0x20 ADD ADD SWAP1 PUSH1 0x1 PUSH1 0x1 PUSH1 0xF8 SHL SUB NOT AND SWAP1 DUP2 PUSH0 BYTE SWAP1 MSTORE8 POP PUSH0 PUSH2 0x2AE1 DUP5 PUSH1 0x2 PUSH2 0x3269 JUMP JUMPDEST PUSH2 0x2AEC SWAP1 PUSH1 0x1 PUSH2 0x322A JUMP JUMPDEST SWAP1 POP JUMPDEST PUSH1 0x1 DUP2 GT ISZERO PUSH2 0x2B63 JUMPI PUSH16 0x181899199A1A9B1B9C1CB0B131B232B3 PUSH1 0x81 SHL DUP6 PUSH1 0xF AND PUSH1 0x10 DUP2 LT PUSH2 0x2B20 JUMPI PUSH2 0x2B20 PUSH2 0x33C1 JUMP JUMPDEST BYTE PUSH1 0xF8 SHL DUP3 DUP3 DUP2 MLOAD DUP2 LT PUSH2 0x2B36 JUMPI PUSH2 0x2B36 PUSH2 0x33C1 JUMP JUMPDEST PUSH1 0x20 ADD ADD SWAP1 PUSH1 0x1 PUSH1 0x1 PUSH1 0xF8 SHL SUB NOT AND SWAP1 DUP2 PUSH0 BYTE SWAP1 MSTORE8 POP PUSH1 0x4 SWAP5 SWAP1 SWAP5 SHR SWAP4 PUSH2 0x2B5C DUP2 PUSH2 0x34D3 JUMP JUMPDEST SWAP1 POP PUSH2 0x2AEF JUMP JUMPDEST POP DUP4 ISZERO PUSH2 0xD58 JUMPI PUSH1 0x40 MLOAD PUSH3 0x461BCD PUSH1 0xE5 SHL DUP2 MSTORE PUSH1 0x20 PUSH1 0x4 DUP3 ADD DUP2 SWAP1 MSTORE PUSH1 0x24 DUP3 ADD MSTORE PUSH32 0x537472696E67733A20686578206C656E67746820696E73756666696369656E74 PUSH1 0x44 DUP3 ADD MSTORE PUSH1 0x64 ADD PUSH2 0xB90 JUMP JUMPDEST PUSH0 DUP1 SLOAD SWAP1 DUP3 SWAP1 SUB PUSH2 0x2BCD JUMPI PUSH2 0x2BCD PUSH4 0xB562E8DD PUSH1 0xE0 SHL PUSH2 0x2264 JUMP JUMPDEST PUSH0 DUP2 DUP2 MSTORE PUSH1 0x4 PUSH1 0x20 SWAP1 DUP2 MSTORE PUSH1 0x40 DUP1 DUP4 KECCAK256 PUSH1 0x1 PUSH1 0x1 PUSH1 0xA0 SHL SUB DUP8 AND TIMESTAMP PUSH1 0xA0 SHL PUSH1 0x1 DUP9 EQ PUSH1 0xE1 SHL OR DUP2 OR SWAP1 SWAP2 SSTORE DUP1 DUP5 MSTORE PUSH1 0x5 SWAP1 SWAP3 MSTORE DUP3 KECCAK256 DUP1 SLOAD PUSH9 0x10000000000000001 DUP7 MUL ADD SWAP1 SSTORE SWAP1 DUP2 SWAP1 SUB PUSH2 0x2C2A JUMPI PUSH2 0x2C2A PUSH3 0x2E0763 PUSH1 0xE8 SHL PUSH2 0x2264 JUMP JUMPDEST DUP2 DUP4 ADD DUP3 JUMPDEST DUP1 DUP4 PUSH0 PUSH32 0xDDF252AD1BE2C89B69C2B068FC378DAA952BA7F163C4A11628F55A4DF523B3EF PUSH0 DUP1 LOG4 DUP2 DUP2 PUSH1 0x1 ADD SWAP2 POP DUP2 SUB PUSH2 0x2C2F JUMPI POP PUSH0 SSTORE POP POP POP POP JUMP JUMPDEST PUSH0 PUSH1 0x20 DUP3 DUP5 SUB SLT ISZERO PUSH2 0x2C7C JUMPI PUSH0 DUP1 REVERT JUMPDEST POP CALLDATALOAD SWAP2 SWAP1 POP JUMP JUMPDEST DUP1 CALLDATALOAD PUSH1 0x1 PUSH1 0x1 PUSH1 0xA0 SHL SUB DUP2 AND DUP2 EQ PUSH2 0x225F JUMPI PUSH0 DUP1 REVERT JUMPDEST PUSH0 DUP1 PUSH1 0x40 DUP4 DUP6 SUB SLT ISZERO PUSH2 0x2CAA JUMPI PUSH0 DUP1 REVERT JUMPDEST PUSH2 0x2CB3 DUP4 PUSH2 0x2C83 JUMP JUMPDEST SWAP5 PUSH1 0x20 SWAP4 SWAP1 SWAP4 ADD CALLDATALOAD SWAP4 POP POP POP JUMP JUMPDEST PUSH1 0x1 PUSH1 0x1 PUSH1 0xE0 SHL SUB NOT DUP2 AND DUP2 EQ PUSH2 0x20D3 JUMPI PUSH0 DUP1 REVERT JUMPDEST PUSH0 PUSH1 0x20 DUP3 DUP5 SUB SLT ISZERO PUSH2 0x2CE6 JUMPI PUSH0 DUP1 REVERT JUMPDEST DUP2 CALLDATALOAD PUSH2 0xD58 DUP2 PUSH2 0x2CC1 JUMP JUMPDEST PUSH0 JUMPDEST DUP4 DUP2 LT ISZERO PUSH2 0x2D0B JUMPI DUP2 DUP2 ADD MLOAD DUP4 DUP3 ADD MSTORE PUSH1 0x20 ADD PUSH2 0x2CF3 JUMP JUMPDEST POP POP PUSH0 SWAP2 ADD MSTORE JUMP JUMPDEST PUSH0 DUP2 MLOAD DUP1 DUP5 MSTORE PUSH2 0x2D2A DUP2 PUSH1 0x20 DUP7 ADD PUSH1 0x20 DUP7 ADD PUSH2 0x2CF1 JUMP JUMPDEST PUSH1 0x1F ADD PUSH1 0x1F NOT AND SWAP3 SWAP1 SWAP3 ADD PUSH1 0x20 ADD SWAP3 SWAP2 POP POP JUMP JUMPDEST PUSH1 0x20 DUP2 MSTORE PUSH0 PUSH2 0xD58 PUSH1 0x20 DUP4 ADD DUP5 PUSH2 0x2D13 JUMP JUMPDEST PUSH0 DUP1 DUP4 PUSH1 0x1F DUP5 ADD SLT PUSH2 0x2D60 JUMPI PUSH0 DUP1 REVERT JUMPDEST POP DUP2 CALLDATALOAD PUSH8 0xFFFFFFFFFFFFFFFF DUP2 GT ISZERO PUSH2 0x2D77 JUMPI PUSH0 DUP1 REVERT JUMPDEST PUSH1 0x20 DUP4 ADD SWAP2 POP DUP4 PUSH1 0x20 DUP3 PUSH1 0x5 SHL DUP6 ADD ADD GT ISZERO PUSH2 0x2D91 JUMPI PUSH0 DUP1 REVERT JUMPDEST SWAP3 POP SWAP3 SWAP1 POP JUMP JUMPDEST PUSH0 DUP1 PUSH0 DUP1 PUSH0 DUP1 PUSH0 DUP1 PUSH0 PUSH1 0xA0 DUP11 DUP13 SUB SLT ISZERO PUSH2 0x2DB0 JUMPI PUSH0 DUP1 REVERT JUMPDEST DUP10 CALLDATALOAD SWAP9 POP PUSH1 0x20 DUP11 ADD CALLDATALOAD PUSH8 0xFFFFFFFFFFFFFFFF DUP1 DUP3 GT ISZERO PUSH2 0x2DCE JUMPI PUSH0 DUP1 REVERT JUMPDEST DUP2 DUP13 ADD SWAP2 POP DUP13 PUSH1 0x1F DUP4 ADD SLT PUSH2 0x2DE1 JUMPI PUSH0 DUP1 REVERT JUMPDEST DUP2 CALLDATALOAD DUP2 DUP2 GT ISZERO PUSH2 0x2DEF JUMPI PUSH0 DUP1 REVERT JUMPDEST DUP14 PUSH1 0x20 DUP3 DUP6 ADD ADD GT ISZERO PUSH2 0x2E00 JUMPI PUSH0 DUP1 REVERT JUMPDEST PUSH1 0x20 DUP4 ADD SWAP11 POP DUP1 SWAP10 POP POP PUSH1 0x40 DUP13 ADD CALLDATALOAD SWAP2 POP DUP1 DUP3 GT ISZERO PUSH2 0x2E1D JUMPI PUSH0 DUP1 REVERT JUMPDEST PUSH2 0x2E29 DUP14 DUP4 DUP15 ADD PUSH2 0x2D50 JUMP JUMPDEST SWAP1 SWAP9 POP SWAP7 POP PUSH1 0x60 DUP13 ADD CALLDATALOAD SWAP2 POP DUP1 DUP3 GT ISZERO PUSH2 0x2E41 JUMPI PUSH0 DUP1 REVERT JUMPDEST PUSH2 0x2E4D DUP14 DUP4 DUP15 ADD PUSH2 0x2D50 JUMP JUMPDEST SWAP1 SWAP7 POP SWAP5 POP PUSH1 0x80 DUP13 ADD CALLDATALOAD SWAP2 POP DUP1 DUP3 GT ISZERO PUSH2 0x2E65 JUMPI PUSH0 DUP1 REVERT JUMPDEST POP PUSH2 0x2E72 DUP13 DUP3 DUP14 ADD PUSH2 0x2D50 JUMP JUMPDEST SWAP2 POP DUP1 SWAP4 POP POP DUP1 SWAP2 POP POP SWAP3 SWAP6 SWAP9 POP SWAP3 SWAP6 SWAP9 POP SWAP3 SWAP6 SWAP9 JUMP JUMPDEST PUSH0 DUP1 PUSH1 0x40 DUP4 DUP6 SUB SLT ISZERO PUSH2 0x2E9A JUMPI PUSH0 DUP1 REVERT JUMPDEST POP POP DUP1 CALLDATALOAD SWAP3 PUSH1 0x20 SWAP1 SWAP2 ADD CALLDATALOAD SWAP2 POP JUMP JUMPDEST PUSH0 DUP1 PUSH0 PUSH1 0x60 DUP5 DUP7 SUB SLT ISZERO PUSH2 0x2EBB JUMPI PUSH0 DUP1 REVERT JUMPDEST PUSH2 0x2EC4 DUP5 PUSH2 0x2C83 JUMP JUMPDEST SWAP3 POP PUSH2 0x2ED2 PUSH1 0x20 DUP6 ADD PUSH2 0x2C83 JUMP JUMPDEST SWAP2 POP PUSH1 0x40 DUP5 ADD CALLDATALOAD SWAP1 POP SWAP3 POP SWAP3 POP SWAP3 JUMP JUMPDEST PUSH0 DUP1 PUSH1 0x40 DUP4 DUP6 SUB SLT ISZERO PUSH2 0x2EF3 JUMPI PUSH0 DUP1 REVERT JUMPDEST DUP3 CALLDATALOAD SWAP2 POP PUSH2 0x14EF PUSH1 0x20 DUP5 ADD PUSH2 0x2C83 JUMP JUMPDEST PUSH4 0x4E487B71 PUSH1 0xE0 SHL PUSH0 MSTORE PUSH1 0x41 PUSH1 0x4 MSTORE PUSH1 0x24 PUSH0 REVERT JUMPDEST PUSH0 PUSH8 0xFFFFFFFFFFFFFFFF DUP1 DUP5 GT ISZERO PUSH2 0x2F31 JUMPI PUSH2 0x2F31 PUSH2 0x2F03 JUMP JUMPDEST PUSH1 0x40 MLOAD PUSH1 0x1F DUP6 ADD PUSH1 0x1F NOT SWAP1 DUP2 AND PUSH1 0x3F ADD AND DUP2 ADD SWAP1 DUP3 DUP3 GT DUP2 DUP4 LT OR ISZERO PUSH2 0x2F59 JUMPI PUSH2 0x2F59 PUSH2 0x2F03 JUMP JUMPDEST DUP2 PUSH1 0x40 MSTORE DUP1 SWAP4 POP DUP6 DUP2 MSTORE DUP7 DUP7 DUP7 ADD GT ISZERO PUSH2 0x2F71 JUMPI PUSH0 DUP1 REVERT JUMPDEST DUP6 DUP6 PUSH1 0x20 DUP4 ADD CALLDATACOPY PUSH0 PUSH1 0x20 DUP8 DUP4 ADD ADD MSTORE POP POP POP SWAP4 SWAP3 POP POP POP JUMP JUMPDEST PUSH0 DUP3 PUSH1 0x1F DUP4 ADD SLT PUSH2 0x2F99 JUMPI PUSH0 DUP1 REVERT JUMPDEST PUSH2 0xD58 DUP4 DUP4 CALLDATALOAD PUSH1 0x20 DUP6 ADD PUSH2 0x2F17 JUMP JUMPDEST PUSH0 DUP1 PUSH0 DUP1 PUSH0 PUSH1 0xA0 DUP7 DUP9 SUB SLT ISZERO PUSH2 0x2FBC JUMPI PUSH0 DUP1 REVERT JUMPDEST DUP6 CALLDATALOAD SWAP5 POP PUSH1 0x20 DUP7 ADD CALLDATALOAD SWAP4 POP PUSH1 0x40 DUP7 ADD CALLDATALOAD PUSH8 0xFFFFFFFFFFFFFFFF DUP1 DUP3 GT ISZERO PUSH2 0x2FE1 JUMPI PUSH0 DUP1 REVERT JUMPDEST PUSH2 0x2FED DUP10 DUP4 DUP11 ADD PUSH2 0x2F8A JUMP JUMPDEST SWAP5 POP PUSH1 0x60 DUP9 ADD CALLDATALOAD SWAP2 POP DUP1 DUP3 GT ISZERO PUSH2 0x3002 JUMPI PUSH0 DUP1 REVERT JUMPDEST PUSH2 0x300E DUP10 DUP4 DUP11 ADD PUSH2 0x2F8A JUMP JUMPDEST SWAP4 POP PUSH1 0x80 DUP9 ADD CALLDATALOAD SWAP2 POP DUP1 DUP3 GT ISZERO PUSH2 0x3023 JUMPI PUSH0 DUP1 REVERT JUMPDEST POP PUSH2 0x3030 DUP9 DUP3 DUP10 ADD PUSH2 0x2F8A JUMP JUMPDEST SWAP2 POP POP SWAP3 SWAP6 POP SWAP3 SWAP6 SWAP1 SWAP4 POP JUMP JUMPDEST PUSH0 PUSH1 0x20 DUP3 DUP5 SUB SLT ISZERO PUSH2 0x304D JUMPI PUSH0 DUP1 REVERT JUMPDEST DUP2 CALLDATALOAD PUSH8 0xFFFFFFFFFFFFFFFF DUP2 GT ISZERO PUSH2 0x3063 JUMPI PUSH0 DUP1 REVERT JUMPDEST PUSH2 0x27D1 DUP5 DUP3 DUP6 ADD PUSH2 0x2F8A JUMP JUMPDEST PUSH0 PUSH1 0x20 DUP3 DUP5 SUB SLT ISZERO PUSH2 0x307F JUMPI PUSH0 DUP1 REVERT JUMPDEST PUSH2 0xD58 DUP3 PUSH2 0x2C83 JUMP JUMPDEST PUSH0 DUP1 PUSH1 0x40 DUP4 DUP6 SUB SLT ISZERO PUSH2 0x3099 JUMPI PUSH0 DUP1 REVERT JUMPDEST PUSH2 0x30A2 DUP4 PUSH2 0x2C83 JUMP JUMPDEST SWAP2 POP PUSH1 0x20 DUP4 ADD CALLDATALOAD DUP1 ISZERO ISZERO DUP2 EQ PUSH2 0x30B6 JUMPI PUSH0 DUP1 REVERT JUMPDEST DUP1 SWAP2 POP POP SWAP3 POP SWAP3 SWAP1 POP JUMP JUMPDEST PUSH0 DUP1 PUSH0 DUP1 PUSH1 0x80 DUP6 DUP8 SUB SLT ISZERO PUSH2 0x30D4 JUMPI PUSH0 DUP1 REVERT JUMPDEST PUSH2 0x30DD DUP6 PUSH2 0x2C83 JUMP JUMPDEST SWAP4 POP PUSH2 0x30EB PUSH1 0x20 DUP7 ADD PUSH2 0x2C83 JUMP JUMPDEST SWAP3 POP PUSH1 0x40 DUP6 ADD CALLDATALOAD SWAP2 POP PUSH1 0x60 DUP6 ADD CALLDATALOAD PUSH8 0xFFFFFFFFFFFFFFFF DUP2 GT ISZERO PUSH2 0x310D JUMPI PUSH0 DUP1 REVERT JUMPDEST DUP6 ADD PUSH1 0x1F DUP2 ADD DUP8 SGT PUSH2 0x311D JUMPI PUSH0 DUP1 REVERT JUMPDEST PUSH2 0x312C DUP8 DUP3 CALLDATALOAD PUSH1 0x20 DUP5 ADD PUSH2 0x2F17 JUMP JUMPDEST SWAP2 POP POP SWAP3 SWAP6 SWAP2 SWAP5 POP SWAP3 POP JUMP JUMPDEST PUSH0 DUP1 PUSH1 0x40 DUP4 DUP6 SUB SLT ISZERO PUSH2 0x3149 JUMPI PUSH0 DUP1 REVERT JUMPDEST PUSH2 0x3152 DUP4 PUSH2 0x2C83 JUMP JUMPDEST SWAP2 POP PUSH2 0x14EF PUSH1 0x20 DUP5 ADD PUSH2 0x2C83 JUMP JUMPDEST PUSH0 DUP1 PUSH0 PUSH1 0x40 DUP5 DUP7 SUB SLT ISZERO PUSH2 0x3172 JUMPI PUSH0 DUP1 REVERT JUMPDEST DUP4 CALLDATALOAD PUSH8 0xFFFFFFFFFFFFFFFF DUP2 GT ISZERO PUSH2 0x3188 JUMPI PUSH0 DUP1 REVERT JUMPDEST PUSH2 0x3194 DUP7 DUP3 DUP8 ADD PUSH2 0x2D50 JUMP JUMPDEST SWAP1 SWAP5 POP SWAP3 POP POP PUSH1 0x20 DUP5 ADD CALLDATALOAD PUSH1 0xFF DUP2 AND DUP2 EQ PUSH2 0x31AD JUMPI PUSH0 DUP1 REVERT JUMPDEST DUP1 SWAP2 POP POP SWAP3 POP SWAP3 POP SWAP3 JUMP JUMPDEST PUSH1 0x20 DUP1 DUP3 MSTORE PUSH1 0x16 SWAP1 DUP3 ADD MSTORE PUSH22 0x27B7363C9020B236B4B71037B91027B832B930BA37B9 PUSH1 0x51 SHL PUSH1 0x40 DUP3 ADD MSTORE PUSH1 0x60 ADD SWAP1 JUMP JUMPDEST PUSH1 0x20 DUP1 DUP3 MSTORE PUSH1 0x14 SWAP1 DUP3 ADD MSTORE PUSH20 0x125B9D985B1A59081C1C9A58D948185B5BDD5B9D PUSH1 0x62 SHL PUSH1 0x40 DUP3 ADD MSTORE PUSH1 0x60 ADD SWAP1 JUMP JUMPDEST PUSH4 0x4E487B71 PUSH1 0xE0 SHL PUSH0 MSTORE PUSH1 0x11 PUSH1 0x4 MSTORE PUSH1 0x24 PUSH0 REVERT JUMPDEST DUP1 DUP3 ADD DUP1 DUP3 GT ISZERO PUSH2 0xD1B JUMPI PUSH2 0xD1B PUSH2 0x3216 JUMP JUMPDEST PUSH1 0x20 DUP1 DUP3 MSTORE PUSH1 0x12 SWAP1 DUP3 ADD MSTORE PUSH18 0x27BB32B91036B4B73A26B0BC1032B93937B9 PUSH1 0x71 SHL PUSH1 0x40 DUP3 ADD MSTORE PUSH1 0x60 ADD SWAP1 JUMP JUMPDEST DUP1 DUP3 MUL DUP2 ISZERO DUP3 DUP3 DIV DUP5 EQ OR PUSH2 0xD1B JUMPI PUSH2 0xD1B PUSH2 0x3216 JUMP JUMPDEST PUSH1 0x1 DUP2 DUP2 SHR SWAP1 DUP3 AND DUP1 PUSH2 0x3294 JUMPI PUSH1 0x7F DUP3 AND SWAP2 POP JUMPDEST PUSH1 0x20 DUP3 LT DUP2 SUB PUSH2 0x32B2 JUMPI PUSH4 0x4E487B71 PUSH1 0xE0 SHL PUSH0 MSTORE PUSH1 0x22 PUSH1 0x4 MSTORE PUSH1 0x24 PUSH0 REVERT JUMPDEST POP SWAP2 SWAP1 POP JUMP JUMPDEST PUSH1 0x1F DUP3 GT ISZERO PUSH2 0x151C JUMPI PUSH0 DUP2 DUP2 MSTORE PUSH1 0x20 DUP2 KECCAK256 PUSH1 0x1F DUP6 ADD PUSH1 0x5 SHR DUP2 ADD PUSH1 0x20 DUP7 LT ISZERO PUSH2 0x32DE JUMPI POP DUP1 JUMPDEST PUSH1 0x1F DUP6 ADD PUSH1 0x5 SHR DUP3 ADD SWAP2 POP JUMPDEST DUP2 DUP2 LT ISZERO PUSH2 0x32FD JUMPI DUP3 DUP2 SSTORE PUSH1 0x1 ADD PUSH2 0x32EA JUMP JUMPDEST POP POP POP POP POP POP JUMP JUMPDEST DUP2 MLOAD PUSH8 0xFFFFFFFFFFFFFFFF DUP2 GT ISZERO PUSH2 0x331F JUMPI PUSH2 0x331F PUSH2 0x2F03 JUMP JUMPDEST PUSH2 0x3333 DUP2 PUSH2 0x332D DUP5 SLOAD PUSH2 0x3280 JUMP JUMPDEST DUP5 PUSH2 0x32B8 JUMP JUMPDEST PUSH1 0x20 DUP1 PUSH1 0x1F DUP4 GT PUSH1 0x1 DUP2 EQ PUSH2 0x3366 JUMPI PUSH0 DUP5 ISZERO PUSH2 0x334F JUMPI POP DUP6 DUP4 ADD MLOAD JUMPDEST PUSH0 NOT PUSH1 0x3 DUP7 SWAP1 SHL SHR NOT AND PUSH1 0x1 DUP6 SWAP1 SHL OR DUP6 SSTORE PUSH2 0x32FD JUMP JUMPDEST PUSH0 DUP6 DUP2 MSTORE PUSH1 0x20 DUP2 KECCAK256 PUSH1 0x1F NOT DUP7 AND SWAP2 JUMPDEST DUP3 DUP2 LT ISZERO PUSH2 0x3394 JUMPI DUP9 DUP7 ADD MLOAD DUP3 SSTORE SWAP5 DUP5 ADD SWAP5 PUSH1 0x1 SWAP1 SWAP2 ADD SWAP1 DUP5 ADD PUSH2 0x3375 JUMP JUMPDEST POP DUP6 DUP3 LT ISZERO PUSH2 0x33B1 JUMPI DUP8 DUP6 ADD MLOAD PUSH0 NOT PUSH1 0x3 DUP9 SWAP1 SHL PUSH1 0xF8 AND SHR NOT AND DUP2 SSTORE JUMPDEST POP POP POP POP POP PUSH1 0x1 SWAP1 DUP2 SHL ADD SWAP1 SSTORE POP JUMP JUMPDEST PUSH4 0x4E487B71 PUSH1 0xE0 SHL PUSH0 MSTORE PUSH1 0x32 PUSH1 0x4 MSTORE PUSH1 0x24 PUSH0 REVERT JUMPDEST DUP2 DUP2 SUB DUP2 DUP2 GT ISZERO PUSH2 0xD1B JUMPI PUSH2 0xD1B PUSH2 0x3216 JUMP JUMPDEST DUP6 DUP2 MSTORE DUP5 PUSH1 0x20 DUP3 ADD MSTORE PUSH1 0xA0 PUSH1 0x40 DUP3 ADD MSTORE PUSH0 PUSH2 0x3406 PUSH1 0xA0 DUP4 ADD DUP7 PUSH2 0x2D13 JUMP JUMPDEST DUP3 DUP2 SUB PUSH1 0x60 DUP5 ADD MSTORE PUSH2 0x3418 DUP2 DUP7 PUSH2 0x2D13 JUMP JUMPDEST SWAP1 POP DUP3 DUP2 SUB PUSH1 0x80 DUP5 ADD MSTORE PUSH2 0x342C DUP2 DUP6 PUSH2 0x2D13 JUMP JUMPDEST SWAP9 SWAP8 POP POP POP POP POP POP POP POP JUMP JUMPDEST PUSH0 DUP5 MLOAD PUSH1 0x20 PUSH2 0x344A DUP3 DUP6 DUP4 DUP11 ADD PUSH2 0x2CF1 JUMP JUMPDEST DUP6 MLOAD SWAP2 DUP5 ADD SWAP2 PUSH2 0x345D DUP2 DUP5 DUP5 DUP11 ADD PUSH2 0x2CF1 JUMP JUMPDEST DUP6 SLOAD SWAP3 ADD SWAP2 PUSH0 SWAP1 PUSH2 0x346D DUP2 PUSH2 0x3280 JUMP JUMPDEST PUSH1 0x1 DUP3 DUP2 AND DUP1 ISZERO PUSH2 0x3485 JUMPI PUSH1 0x1 DUP2 EQ PUSH2 0x349A JUMPI PUSH2 0x34C3 JUMP JUMPDEST PUSH1 0xFF NOT DUP5 AND DUP8 MSTORE DUP3 ISZERO ISZERO DUP4 MUL DUP8 ADD SWAP5 POP PUSH2 0x34C3 JUMP JUMPDEST DUP10 PUSH0 MSTORE DUP6 PUSH0 KECCAK256 PUSH0 JUMPDEST DUP5 DUP2 LT ISZERO PUSH2 0x34BB JUMPI DUP2 SLOAD DUP10 DUP3 ADD MSTORE SWAP1 DUP4 ADD SWAP1 DUP8 ADD PUSH2 0x34A2 JUMP JUMPDEST POP POP DUP3 DUP8 ADD SWAP5 POP JUMPDEST POP SWAP3 SWAP11 SWAP10 POP POP POP POP POP POP POP POP POP POP JUMP JUMPDEST PUSH0 DUP2 PUSH2 0x34E1 JUMPI PUSH2 0x34E1 PUSH2 0x3216 JUMP JUMPDEST POP PUSH0 NOT ADD SWAP1 JUMP JUMPDEST PUSH0 PUSH1 0x1 PUSH1 0xFF SHL DUP3 ADD PUSH2 0x34FC JUMPI PUSH2 0x34FC PUSH2 0x3216 JUMP JUMPDEST POP PUSH0 SUB SWAP1 JUMP JUMPDEST PUSH1 0x1 PUSH1 0x1 PUSH1 0xA0 SHL SUB DUP6 DUP2 AND DUP3 MSTORE DUP5 AND PUSH1 0x20 DUP3 ADD MSTORE PUSH1 0x40 DUP2 ADD DUP4 SWAP1 MSTORE PUSH1 0x80 PUSH1 0x60 DUP3 ADD DUP2 SWAP1 MSTORE PUSH0 SWAP1 PUSH2 0x3534 SWAP1 DUP4 ADD DUP5 PUSH2 0x2D13 JUMP JUMPDEST SWAP7 SWAP6 POP POP POP POP POP POP JUMP JUMPDEST PUSH0 PUSH1 0x20 DUP3 DUP5 SUB SLT ISZERO PUSH2 0x354E JUMPI PUSH0 DUP1 REVERT JUMPDEST DUP2 MLOAD PUSH2 0xD58 DUP2 PUSH2 0x2CC1 JUMP JUMPDEST PUSH32 0x416363657373436F6E74726F6C3A206163636F756E7420000000000000000000 DUP2 MSTORE PUSH0 DUP4 MLOAD PUSH2 0x3590 DUP2 PUSH1 0x17 DUP6 ADD PUSH1 0x20 DUP9 ADD PUSH2 0x2CF1 JUMP JUMPDEST PUSH17 0x1034B99036B4B9B9B4B733903937B6329 PUSH1 0x7D SHL PUSH1 0x17 SWAP2 DUP5 ADD SWAP2 DUP3 ADD MSTORE DUP4 MLOAD PUSH2 0x35C1 DUP2 PUSH1 0x28 DUP5 ADD PUSH1 0x20 DUP9 ADD PUSH2 0x2CF1 JUMP JUMPDEST ADD PUSH1 0x28 ADD SWAP5 SWAP4 POP POP POP POP JUMP INVALID 0xCB PUSH31 0x89B7EED8294D41C0215E2F4FE023E2166AFCFA3D1F479C394274AFE5F01997 PUSH7 0x7070C54EF182B0 CREATE2 DUP6 DUP12 SUB 0x4B 0xEA 0xC1 0xB6 RETURN ADDMOD SWAP11 LOG2 0xD3 XOR DUP12 0xB1 0xE8 SWAP3 SWAP16 0x4F 0xA9 0xB9 0x29 LOG4 SWAP9 SMOD KECCAK256 0x5C 0xE4 0xD3 SSTORE MULMOD 0x2E CREATE2 0xA8 LOG1 DUP16 JUMP 0xE8 SWAP2 EXTCODECOPY DELEGATECALL LOG2 ADD 0xFB 0xE2 DUP8 DUP3 JUMPDEST MULMOD JUMP SWAP4 0xC2 OR PUSH22 0x9EB10B7EAB35FABB5491C526A3CF39C3BB7CE2EE5D48 RETURNDATACOPY ISZERO PC PUSH4 0x5D2C96C2 ADDMOD 0x5C LOG2 PUSH5 0x6970667358 0x22 SLT KECCAK256 SLOAD 0xDC 0xF6 SWAP7 0xD5 0x29 LT PUSH19 0x15EF65635CB787E74076454E579490BC591ADE DUP7 MSTORE CALLDATACOPY 0xBD PUSH26 0x64736F6C63430008140033000000000000000000000000000000 "
		},
		"gasEstimates": {
			"creation": {
				"codeDepositCost": "2791000",
				"executionCost": "3043",
				"totalCost": "2794043"
			},
			"external": {
				"ADMIN_ROLE()": "infinite",
				"DEFAULT_ADMIN_ROLE()": "326",
				"OG_MINTER_ROLE()": "infinite",
				"OPERATOR_ROLE()": "infinite",
				"WL_MINTER_ROLE()": "infinite",
				"_baseExtension()": "infinite",
				"_maxSupply()": "2406",
				"_mintEnd()": "2428",
				"_mintFee()": "2360",
				"_mintMaxPerUser()": "2362",
				"_mintPrice()": "2363",
				"_mintStart()": "2427",
				"_mintsPerWallet(address)": "2605",
				"_ogMintEnd()": "2406",
				"_ogMintMaxPerUser()": "2426",
				"_ogMintPrice()": "2429",
				"_ogMintStart()": "2448",
				"_royaltyFee()": "2362",
				"_whitelistMintEnd()": "2385",
				"_whitelistMintMaxPerUser()": "2363",
				"_whitelistMintPrice()": "2405",
				"_whitelistMintStart()": "2406",
				"approve(address,uint256)": "infinite",
				"balanceOf(address)": "2704",
				"baseURI()": "infinite",
				"burn(uint256)": "infinite",
				"encodeNftParams(uint256,uint256,string,string,string)": "infinite",
				"getApproved(uint256)": "infinite",
				"getMintCountOf(address)": "2623",
				"getRoleAdmin(bytes32)": "2510",
				"grantRole(bytes32,address)": "infinite",
				"hasRole(bytes32,address)": "2763",
				"initialize(uint256,bytes,address[],address[],uint256[])": "infinite",
				"isApprovedForAll(address,address)": "infinite",
				"mintForOG(address,uint256)": "infinite",
				"mintForOwner(address,uint256)": "infinite",
				"mintForRegular(address,uint256)": "infinite",
				"mintForWhitelist(address,uint256)": "infinite",
				"name()": "infinite",
				"ownerOf(uint256)": "infinite",
				"quoteMints(uint256)": "infinite",
				"quoteOgMints(uint256)": "infinite",
				"quoteWLMints(uint256)": "infinite",
				"renounceRole(bytes32,address)": "29109",
				"revokeRole(bytes32,address)": "infinite",
				"royaltyInfo(uint256,uint256)": "infinite",
				"safeTransferFrom(address,address,uint256)": "infinite",
				"safeTransferFrom(address,address,uint256,bytes)": "infinite",
				"setApprovalForAll(address,bool)": "26650",
				"setBaseExtension(string)": "infinite",
				"setBaseURI(string)": "infinite",
				"supportsInterface(bytes4)": "infinite",
				"symbol()": "infinite",
				"tokenURI(uint256)": "infinite",
				"totalSupply()": "4554",
				"transferFrom(address,address,uint256)": "infinite",
				"updateMintMax(uint256)": "infinite",
				"updateMintPrice(uint256)": "infinite",
				"updateMinterRoles(address[],uint8)": "infinite",
				"updateOGMintMax(uint256)": "infinite",
				"updateOGMintPrice(uint256)": "infinite",
				"updateTime(uint256,uint256)": "infinite",
				"updateWLMintMax(uint256)": "infinite",
				"updateWhitelistMintPrice(uint256)": "infinite",
				"version()": "271",
				"withdraw()": "infinite"
			},
			"internal": {
				"_calculateFee(uint256,uint256)": "infinite",
				"_internalSafeMint(uint256,address,uint256,uint256,uint256)": "infinite"
			}
		},
		"methodIdentifiers": {
			"ADMIN_ROLE()": "75b238fc",
			"DEFAULT_ADMIN_ROLE()": "a217fddf",
			"OG_MINTER_ROLE()": "b0338f2e",
			"OPERATOR_ROLE()": "f5b541a6",
			"WL_MINTER_ROLE()": "172cf75f",
			"_baseExtension()": "2672c902",
			"_maxSupply()": "22f4596f",
			"_mintEnd()": "4bcd8772",
			"_mintFee()": "f2a08abb",
			"_mintMaxPerUser()": "8c36908c",
			"_mintPrice()": "0387da42",
			"_mintStart()": "5f8def44",
			"_mintsPerWallet(address)": "9a8160ec",
			"_ogMintEnd()": "7fb4197d",
			"_ogMintMaxPerUser()": "fd23be4e",
			"_ogMintPrice()": "2b892c80",
			"_ogMintStart()": "fe6f9d26",
			"_royaltyFee()": "769da943",
			"_whitelistMintEnd()": "0425c278",
			"_whitelistMintMaxPerUser()": "67faf4dd",
			"_whitelistMintPrice()": "9c5e3dd3",
			"_whitelistMintStart()": "4a7a52d5",
			"approve(address,uint256)": "095ea7b3",
			"balanceOf(address)": "70a08231",
			"baseURI()": "6c0360eb",
			"burn(uint256)": "42966c68",
			"encodeNftParams(uint256,uint256,string,string,string)": "33726c58",
			"getApproved(uint256)": "081812fc",
			"getMintCountOf(address)": "e4bce016",
			"getRoleAdmin(bytes32)": "248a9ca3",
			"grantRole(bytes32,address)": "2f2ff15d",
			"hasRole(bytes32,address)": "91d14854",
			"initialize(uint256,bytes,address[],address[],uint256[])": "187a3dd0",
			"isApprovedForAll(address,address)": "e985e9c5",
			"mintForOG(address,uint256)": "0167f3c5",
			"mintForOwner(address,uint256)": "53b859df",
			"mintForRegular(address,uint256)": "7ab06c12",
			"mintForWhitelist(address,uint256)": "a8c3182b",
			"name()": "06fdde03",
			"ownerOf(uint256)": "6352211e",
			"quoteMints(uint256)": "09fd6fd2",
			"quoteOgMints(uint256)": "029cf2f7",
			"quoteWLMints(uint256)": "e455fd71",
			"renounceRole(bytes32,address)": "36568abe",
			"revokeRole(bytes32,address)": "d547741f",
			"royaltyInfo(uint256,uint256)": "2a55205a",
			"safeTransferFrom(address,address,uint256)": "42842e0e",
			"safeTransferFrom(address,address,uint256,bytes)": "b88d4fde",
			"setApprovalForAll(address,bool)": "a22cb465",
			"setBaseExtension(string)": "da3ef23f",
			"setBaseURI(string)": "55f804b3",
			"supportsInterface(bytes4)": "01ffc9a7",
			"symbol()": "95d89b41",
			"tokenURI(uint256)": "c87b56dd",
			"totalSupply()": "18160ddd",
			"transferFrom(address,address,uint256)": "23b872dd",
			"updateMintMax(uint256)": "93890851",
			"updateMintPrice(uint256)": "00728e46",
			"updateMinterRoles(address[],uint8)": "f2cca28f",
			"updateOGMintMax(uint256)": "912fb690",
			"updateOGMintPrice(uint256)": "8577c1fa",
			"updateTime(uint256,uint256)": "21f1b677",
			"updateWLMintMax(uint256)": "d05ec0a8",
			"updateWhitelistMintPrice(uint256)": "eb980abf",
			"version()": "54fd4d50",
			"withdraw()": "3ccfd60b"
		}
	},
	"abi": [
		{
			"inputs": [],
			"name": "ApprovalCallerNotOwnerNorApproved",
			"type": "error"
		},
		{
			"inputs": [],
			"name": "ApprovalQueryForNonexistentToken",
			"type": "error"
		},
		{
			"inputs": [],
			"name": "BalanceQueryForZeroAddress",
			"type": "error"
		},
		{
			"inputs": [],
			"name": "MintERC2309QuantityExceedsLimit",
			"type": "error"
		},
		{
			"inputs": [],
			"name": "MintToZeroAddress",
			"type": "error"
		},
		{
			"inputs": [],
			"name": "MintZeroQuantity",
			"type": "error"
		},
		{
			"inputs": [],
			"name": "OwnerQueryForNonexistentToken",
			"type": "error"
		},
		{
			"inputs": [],
			"name": "OwnershipNotInitializedForExtraData",
			"type": "error"
		},
		{
			"inputs": [],
			"name": "TransferCallerNotOwnerNorApproved",
			"type": "error"
		},
		{
			"inputs": [],
			"name": "TransferFromIncorrectOwner",
			"type": "error"
		},
		{
			"inputs": [],
			"name": "TransferToNonERC721ReceiverImplementer",
			"type": "error"
		},
		{
			"inputs": [],
			"name": "TransferToZeroAddress",
			"type": "error"
		},
		{
			"inputs": [],
			"name": "URIQueryForNonexistentToken",
			"type": "error"
		},
		{
			"anonymous": false,
			"inputs": [
				{
					"indexed": true,
					"internalType": "address",
					"name": "owner",
					"type": "address"
				},
				{
					"indexed": true,
					"internalType": "address",
					"name": "approved",
					"type": "address"
				},
				{
					"indexed": true,
					"internalType": "uint256",
					"name": "tokenId",
					"type": "uint256"
				}
			],
			"name": "Approval",
			"type": "event"
		},
		{
			"anonymous": false,
			"inputs": [
				{
					"indexed": true,
					"internalType": "address",
					"name": "owner",
					"type": "address"
				},
				{
					"indexed": true,
					"internalType": "address",
					"name": "operator",
					"type": "address"
				},
				{
					"indexed": false,
					"internalType": "bool",
					"name": "approved",
					"type": "bool"
				}
			],
			"name": "ApprovalForAll",
			"type": "event"
		},
		{
			"anonymous": false,
			"inputs": [
				{
					"indexed": true,
					"internalType": "address",
					"name": "sender",
					"type": "address"
				},
				{
					"indexed": false,
					"internalType": "uint256",
					"name": "tokenId",
					"type": "uint256"
				}
			],
			"name": "BurnEvent",
			"type": "event"
		},
		{
			"anonymous": false,
			"inputs": [
				{
					"indexed": true,
					"internalType": "uint256",
					"name": "fromTokenId",
					"type": "uint256"
				},
				{
					"indexed": false,
					"internalType": "uint256",
					"name": "toTokenId",
					"type": "uint256"
				},
				{
					"indexed": true,
					"internalType": "address",
					"name": "from",
					"type": "address"
				},
				{
					"indexed": true,
					"internalType": "address",
					"name": "to",
					"type": "address"
				}
			],
			"name": "ConsecutiveTransfer",
			"type": "event"
		},
		{
			"anonymous": false,
			"inputs": [
				{
					"indexed": false,
					"internalType": "uint8",
					"name": "version",
					"type": "uint8"
				}
			],
			"name": "Initialized",
			"type": "event"
		},
		{
			"anonymous": false,
			"inputs": [
				{
					"indexed": true,
					"internalType": "address",
					"name": "sender",
					"type": "address"
				},
				{
					"indexed": false,
					"internalType": "uint256",
					"name": "value",
					"type": "uint256"
				},
				{
					"indexed": false,
					"internalType": "address",
					"name": "to",
					"type": "address"
				},
				{
					"indexed": false,
					"internalType": "uint256",
					"name": "amount",
					"type": "uint256"
				},
				{
					"indexed": false,
					"internalType": "uint256",
					"name": "mintPrice",
					"type": "uint256"
				}
			],
			"name": "MintEvent",
			"type": "event"
		},
		{
			"anonymous": false,
			"inputs": [
				{
					"indexed": true,
					"internalType": "address",
					"name": "sender",
					"type": "address"
				},
				{
					"indexed": false,
					"internalType": "uint256",
					"name": "value",
					"type": "uint256"
				},
				{
					"indexed": false,
					"internalType": "address",
					"name": "to",
					"type": "address"
				},
				{
					"indexed": false,
					"internalType": "uint256",
					"name": "amount",
					"type": "uint256"
				},
				{
					"indexed": false,
					"internalType": "uint256",
					"name": "_ogMintPrice",
					"type": "uint256"
				}
			],
			"name": "OGmintEvent",
			"type": "event"
		},
		{
			"anonymous": false,
			"inputs": [
				{
					"indexed": true,
					"internalType": "address",
					"name": "sender",
					"type": "address"
				},
				{
					"indexed": false,
					"internalType": "address",
					"name": "to",
					"type": "address"
				},
				{
					"indexed": false,
					"internalType": "uint256",
					"name": "amount",
					"type": "uint256"
				}
			],
			"name": "OwnerMintEvent",
			"type": "event"
		},
		{
			"anonymous": false,
			"inputs": [
				{
					"indexed": true,
					"internalType": "bytes32",
					"name": "role",
					"type": "bytes32"
				},
				{
					"indexed": true,
					"internalType": "bytes32",
					"name": "previousAdminRole",
					"type": "bytes32"
				},
				{
					"indexed": true,
					"internalType": "bytes32",
					"name": "newAdminRole",
					"type": "bytes32"
				}
			],
			"name": "RoleAdminChanged",
			"type": "event"
		},
		{
			"anonymous": false,
			"inputs": [
				{
					"indexed": true,
					"internalType": "bytes32",
					"name": "role",
					"type": "bytes32"
				},
				{
					"indexed": true,
					"internalType": "address",
					"name": "account",
					"type": "address"
				},
				{
					"indexed": true,
					"internalType": "address",
					"name": "sender",
					"type": "address"
				}
			],
			"name": "RoleGranted",
			"type": "event"
		},
		{
			"anonymous": false,
			"inputs": [
				{
					"indexed": true,
					"internalType": "bytes32",
					"name": "role",
					"type": "bytes32"
				},
				{
					"indexed": true,
					"internalType": "address",
					"name": "account",
					"type": "address"
				},
				{
					"indexed": true,
					"internalType": "address",
					"name": "sender",
					"type": "address"
				}
			],
			"name": "RoleRevoked",
			"type": "event"
		},
		{
			"anonymous": false,
			"inputs": [
				{
					"indexed": true,
					"internalType": "address",
					"name": "from",
					"type": "address"
				},
				{
					"indexed": true,
					"internalType": "address",
					"name": "to",
					"type": "address"
				},
				{
					"indexed": true,
					"internalType": "uint256",
					"name": "tokenId",
					"type": "uint256"
				}
			],
			"name": "Transfer",
			"type": "event"
		},
		{
			"anonymous": false,
			"inputs": [
				{
					"indexed": true,
					"internalType": "address",
					"name": "sender",
					"type": "address"
				},
				{
					"indexed": false,
					"internalType": "uint256",
					"name": "listLength",
					"type": "uint256"
				}
			],
			"name": "UpdateOgEvent",
			"type": "event"
		},
		{
			"anonymous": false,
			"inputs": [
				{
					"indexed": true,
					"internalType": "address",
					"name": "sender",
					"type": "address"
				},
				{
					"indexed": false,
					"internalType": "uint256",
					"name": "listLength",
					"type": "uint256"
				}
			],
			"name": "UpdateWLevent",
			"type": "event"
		},
		{
			"anonymous": false,
			"inputs": [
				{
					"indexed": true,
					"internalType": "address",
					"name": "sender",
					"type": "address"
				},
				{
					"indexed": false,
					"internalType": "uint256",
					"name": "value",
					"type": "uint256"
				},
				{
					"indexed": false,
					"internalType": "address",
					"name": "to",
					"type": "address"
				},
				{
					"indexed": false,
					"internalType": "uint256",
					"name": "amount",
					"type": "uint256"
				},
				{
					"indexed": false,
					"internalType": "uint256",
					"name": "wlMintPrice",
					"type": "uint256"
				}
			],
			"name": "WLmintEvent",
			"type": "event"
		},
		{
			"inputs": [],
			"name": "ADMIN_ROLE",
			"outputs": [
				{
					"internalType": "bytes32",
					"name": "",
					"type": "bytes32"
				}
			],
			"stateMutability": "view",
			"type": "function"
		},
		{
			"inputs": [],
			"name": "DEFAULT_ADMIN_ROLE",
			"outputs": [
				{
					"internalType": "bytes32",
					"name": "",
					"type": "bytes32"
				}
			],
			"stateMutability": "view",
			"type": "function"
		},
		{
			"inputs": [],
			"name": "OG_MINTER_ROLE",
			"outputs": [
				{
					"internalType": "bytes32",
					"name": "",
					"type": "bytes32"
				}
			],
			"stateMutability": "view",
			"type": "function"
		},
		{
			"inputs": [],
			"name": "OPERATOR_ROLE",
			"outputs": [
				{
					"internalType": "bytes32",
					"name": "",
					"type": "bytes32"
				}
			],
			"stateMutability": "view",
			"type": "function"
		},
		{
			"inputs": [],
			"name": "WL_MINTER_ROLE",
			"outputs": [
				{
					"internalType": "bytes32",
					"name": "",
					"type": "bytes32"
				}
			],
			"stateMutability": "view",
			"type": "function"
		},
		{
			"inputs": [],
			"name": "_baseExtension",
			"outputs": [
				{
					"internalType": "string",
					"name": "",
					"type": "string"
				}
			],
			"stateMutability": "view",
			"type": "function"
		},
		{
			"inputs": [],
			"name": "_maxSupply",
			"outputs": [
				{
					"internalType": "uint256",
					"name": "",
					"type": "uint256"
				}
			],
			"stateMutability": "view",
			"type": "function"
		},
		{
			"inputs": [],
			"name": "_mintEnd",
			"outputs": [
				{
					"internalType": "uint256",
					"name": "",
					"type": "uint256"
				}
			],
			"stateMutability": "view",
			"type": "function"
		},
		{
			"inputs": [],
			"name": "_mintFee",
			"outputs": [
				{
					"internalType": "uint256",
					"name": "",
					"type": "uint256"
				}
			],
			"stateMutability": "view",
			"type": "function"
		},
		{
			"inputs": [],
			"name": "_mintMaxPerUser",
			"outputs": [
				{
					"internalType": "uint256",
					"name": "",
					"type": "uint256"
				}
			],
			"stateMutability": "view",
			"type": "function"
		},
		{
			"inputs": [],
			"name": "_mintPrice",
			"outputs": [
				{
					"internalType": "uint256",
					"name": "",
					"type": "uint256"
				}
			],
			"stateMutability": "view",
			"type": "function"
		},
		{
			"inputs": [],
			"name": "_mintStart",
			"outputs": [
				{
					"internalType": "uint256",
					"name": "",
					"type": "uint256"
				}
			],
			"stateMutability": "view",
			"type": "function"
		},
		{
			"inputs": [
				{
					"internalType": "address",
					"name": "",
					"type": "address"
				}
			],
			"name": "_mintsPerWallet",
			"outputs": [
				{
					"internalType": "uint256",
					"name": "",
					"type": "uint256"
				}
			],
			"stateMutability": "view",
			"type": "function"
		},
		{
			"inputs": [],
			"name": "_ogMintEnd",
			"outputs": [
				{
					"internalType": "uint256",
					"name": "",
					"type": "uint256"
				}
			],
			"stateMutability": "view",
			"type": "function"
		},
		{
			"inputs": [],
			"name": "_ogMintMaxPerUser",
			"outputs": [
				{
					"internalType": "uint256",
					"name": "",
					"type": "uint256"
				}
			],
			"stateMutability": "view",
			"type": "function"
		},
		{
			"inputs": [],
			"name": "_ogMintPrice",
			"outputs": [
				{
					"internalType": "uint256",
					"name": "",
					"type": "uint256"
				}
			],
			"stateMutability": "view",
			"type": "function"
		},
		{
			"inputs": [],
			"name": "_ogMintStart",
			"outputs": [
				{
					"internalType": "uint256",
					"name": "",
					"type": "uint256"
				}
			],
			"stateMutability": "view",
			"type": "function"
		},
		{
			"inputs": [],
			"name": "_royaltyFee",
			"outputs": [
				{
					"internalType": "uint256",
					"name": "",
					"type": "uint256"
				}
			],
			"stateMutability": "view",
			"type": "function"
		},
		{
			"inputs": [],
			"name": "_whitelistMintEnd",
			"outputs": [
				{
					"internalType": "uint256",
					"name": "",
					"type": "uint256"
				}
			],
			"stateMutability": "view",
			"type": "function"
		},
		{
			"inputs": [],
			"name": "_whitelistMintMaxPerUser",
			"outputs": [
				{
					"internalType": "uint256",
					"name": "",
					"type": "uint256"
				}
			],
			"stateMutability": "view",
			"type": "function"
		},
		{
			"inputs": [],
			"name": "_whitelistMintPrice",
			"outputs": [
				{
					"internalType": "uint256",
					"name": "",
					"type": "uint256"
				}
			],
			"stateMutability": "view",
			"type": "function"
		},
		{
			"inputs": [],
			"name": "_whitelistMintStart",
			"outputs": [
				{
					"internalType": "uint256",
					"name": "",
					"type": "uint256"
				}
			],
			"stateMutability": "view",
			"type": "function"
		},
		{
			"inputs": [
				{
					"internalType": "address",
					"name": "to",
					"type": "address"
				},
				{
					"internalType": "uint256",
					"name": "tokenId",
					"type": "uint256"
				}
			],
			"name": "approve",
			"outputs": [],
			"stateMutability": "payable",
			"type": "function"
		},
		{
			"inputs": [
				{
					"internalType": "address",
					"name": "owner",
					"type": "address"
				}
			],
			"name": "balanceOf",
			"outputs": [
				{
					"internalType": "uint256",
					"name": "",
					"type": "uint256"
				}
			],
			"stateMutability": "view",
			"type": "function"
		},
		{
			"inputs": [],
			"name": "baseURI",
			"outputs": [
				{
					"internalType": "string",
					"name": "",
					"type": "string"
				}
			],
			"stateMutability": "view",
			"type": "function"
		},
		{
			"inputs": [
				{
					"internalType": "uint256",
					"name": "tokenId",
					"type": "uint256"
				}
			],
			"name": "burn",
			"outputs": [],
			"stateMutability": "nonpayable",
			"type": "function"
		},
		{
			"inputs": [
				{
					"internalType": "uint256",
					"name": "maxSupply",
					"type": "uint256"
				},
				{
					"internalType": "uint256",
					"name": "royaltyFee",
					"type": "uint256"
				},
				{
					"internalType": "string",
					"name": "name",
					"type": "string"
				},
				{
					"internalType": "string",
					"name": "symbol",
					"type": "string"
				},
				{
					"internalType": "string",
					"name": "initBaseURI",
					"type": "string"
				}
			],
			"name": "encodeNftParams",
			"outputs": [
				{
					"internalType": "bytes",
					"name": "_data",
					"type": "bytes"
				}
			],
			"stateMutability": "pure",
			"type": "function"
		},
		{
			"inputs": [
				{
					"internalType": "uint256",
					"name": "tokenId",
					"type": "uint256"
				}
			],
			"name": "getApproved",
			"outputs": [
				{
					"internalType": "address",
					"name": "",
					"type": "address"
				}
			],
			"stateMutability": "view",
			"type": "function"
		},
		{
			"inputs": [
				{
					"internalType": "address",
					"name": "user",
					"type": "address"
				}
			],
			"name": "getMintCountOf",
			"outputs": [
				{
					"internalType": "uint256",
					"name": "",
					"type": "uint256"
				}
			],
			"stateMutability": "view",
			"type": "function"
		},
		{
			"inputs": [
				{
					"internalType": "bytes32",
					"name": "role",
					"type": "bytes32"
				}
			],
			"name": "getRoleAdmin",
			"outputs": [
				{
					"internalType": "bytes32",
					"name": "",
					"type": "bytes32"
				}
			],
			"stateMutability": "view",
			"type": "function"
		},
		{
			"inputs": [
				{
					"internalType": "bytes32",
					"name": "role",
					"type": "bytes32"
				},
				{
					"internalType": "address",
					"name": "account",
					"type": "address"
				}
			],
			"name": "grantRole",
			"outputs": [],
			"stateMutability": "nonpayable",
			"type": "function"
		},
		{
			"inputs": [
				{
					"internalType": "bytes32",
					"name": "role",
					"type": "bytes32"
				},
				{
					"internalType": "address",
					"name": "account",
					"type": "address"
				}
			],
			"name": "hasRole",
			"outputs": [
				{
					"internalType": "bool",
					"name": "",
					"type": "bool"
				}
			],
			"stateMutability": "view",
			"type": "function"
		},
		{
			"inputs": [
				{
					"internalType": "uint256",
					"name": "mintFee",
					"type": "uint256"
				},
				{
					"internalType": "bytes",
					"name": "nftData",
					"type": "bytes"
				},
				{
					"internalType": "address[]",
					"name": "initialOGMinters",
					"type": "address[]"
				},
				{
					"internalType": "address[]",
					"name": "initialWLMinters",
					"type": "address[]"
				},
				{
					"internalType": "uint256[]",
					"name": "mintingStages",
					"type": "uint256[]"
				}
			],
			"name": "initialize",
			"outputs": [],
			"stateMutability": "nonpayable",
			"type": "function"
		},
		{
			"inputs": [
				{
					"internalType": "address",
					"name": "owner",
					"type": "address"
				},
				{
					"internalType": "address",
					"name": "operator",
					"type": "address"
				}
			],
			"name": "isApprovedForAll",
			"outputs": [
				{
					"internalType": "bool",
					"name": "",
					"type": "bool"
				}
			],
			"stateMutability": "view",
			"type": "function"
		},
		{
			"inputs": [
				{
					"internalType": "address",
					"name": "to",
					"type": "address"
				},
				{
					"internalType": "uint256",
					"name": "amount",
					"type": "uint256"
				}
			],
			"name": "mintForOG",
			"outputs": [],
			"stateMutability": "payable",
			"type": "function"
		},
		{
			"inputs": [
				{
					"internalType": "address",
					"name": "to",
					"type": "address"
				},
				{
					"internalType": "uint256",
					"name": "amount",
					"type": "uint256"
				}
			],
			"name": "mintForOwner",
			"outputs": [],
			"stateMutability": "payable",
			"type": "function"
		},
		{
			"inputs": [
				{
					"internalType": "address",
					"name": "to",
					"type": "address"
				},
				{
					"internalType": "uint256",
					"name": "amount",
					"type": "uint256"
				}
			],
			"name": "mintForRegular",
			"outputs": [],
			"stateMutability": "payable",
			"type": "function"
		},
		{
			"inputs": [
				{
					"internalType": "address",
					"name": "to",
					"type": "address"
				},
				{
					"internalType": "uint256",
					"name": "amount",
					"type": "uint256"
				}
			],
			"name": "mintForWhitelist",
			"outputs": [],
			"stateMutability": "payable",
			"type": "function"
		},
		{
			"inputs": [],
			"name": "name",
			"outputs": [
				{
					"internalType": "string",
					"name": "",
					"type": "string"
				}
			],
			"stateMutability": "view",
			"type": "function"
		},
		{
			"inputs": [
				{
					"internalType": "uint256",
					"name": "tokenId",
					"type": "uint256"
				}
			],
			"name": "ownerOf",
			"outputs": [
				{
					"internalType": "address",
					"name": "",
					"type": "address"
				}
			],
			"stateMutability": "view",
			"type": "function"
		},
		{
			"inputs": [
				{
					"internalType": "uint256",
					"name": "amount",
					"type": "uint256"
				}
			],
			"name": "quoteMints",
			"outputs": [
				{
					"internalType": "uint256",
					"name": "quote",
					"type": "uint256"
				}
			],
			"stateMutability": "view",
			"type": "function"
		},
		{
			"inputs": [
				{
					"internalType": "uint256",
					"name": "amount",
					"type": "uint256"
				}
			],
			"name": "quoteOgMints",
			"outputs": [
				{
					"internalType": "uint256",
					"name": "quote",
					"type": "uint256"
				}
			],
			"stateMutability": "view",
			"type": "function"
		},
		{
			"inputs": [
				{
					"internalType": "uint256",
					"name": "amount",
					"type": "uint256"
				}
			],
			"name": "quoteWLMints",
			"outputs": [
				{
					"internalType": "uint256",
					"name": "quote",
					"type": "uint256"
				}
			],
			"stateMutability": "view",
			"type": "function"
		},
		{
			"inputs": [
				{
					"internalType": "bytes32",
					"name": "role",
					"type": "bytes32"
				},
				{
					"internalType": "address",
					"name": "account",
					"type": "address"
				}
			],
			"name": "renounceRole",
			"outputs": [],
			"stateMutability": "nonpayable",
			"type": "function"
		},
		{
			"inputs": [
				{
					"internalType": "bytes32",
					"name": "role",
					"type": "bytes32"
				},
				{
					"internalType": "address",
					"name": "account",
					"type": "address"
				}
			],
			"name": "revokeRole",
			"outputs": [],
			"stateMutability": "nonpayable",
			"type": "function"
		},
		{
			"inputs": [
				{
					"internalType": "uint256",
					"name": "tokenId",
					"type": "uint256"
				},
				{
					"internalType": "uint256",
					"name": "salePrice",
					"type": "uint256"
				}
			],
			"name": "royaltyInfo",
			"outputs": [
				{
					"internalType": "address",
					"name": "receiver",
					"type": "address"
				},
				{
					"internalType": "uint256",
					"name": "royaltyAmount",
					"type": "uint256"
				}
			],
			"stateMutability": "view",
			"type": "function"
		},
		{
			"inputs": [
				{
					"internalType": "address",
					"name": "from",
					"type": "address"
				},
				{
					"internalType": "address",
					"name": "to",
					"type": "address"
				},
				{
					"internalType": "uint256",
					"name": "tokenId",
					"type": "uint256"
				}
			],
			"name": "safeTransferFrom",
			"outputs": [],
			"stateMutability": "payable",
			"type": "function"
		},
		{
			"inputs": [
				{
					"internalType": "address",
					"name": "from",
					"type": "address"
				},
				{
					"internalType": "address",
					"name": "to",
					"type": "address"
				},
				{
					"internalType": "uint256",
					"name": "tokenId",
					"type": "uint256"
				},
				{
					"internalType": "bytes",
					"name": "_data",
					"type": "bytes"
				}
			],
			"name": "safeTransferFrom",
			"outputs": [],
			"stateMutability": "payable",
			"type": "function"
		},
		{
			"inputs": [
				{
					"internalType": "address",
					"name": "operator",
					"type": "address"
				},
				{
					"internalType": "bool",
					"name": "approved",
					"type": "bool"
				}
			],
			"name": "setApprovalForAll",
			"outputs": [],
			"stateMutability": "nonpayable",
			"type": "function"
		},
		{
			"inputs": [
				{
					"internalType": "string",
					"name": "newBaseExtension",
					"type": "string"
				}
			],
			"name": "setBaseExtension",
			"outputs": [],
			"stateMutability": "nonpayable",
			"type": "function"
		},
		{
			"inputs": [
				{
					"internalType": "string",
					"name": "newBaseURI",
					"type": "string"
				}
			],
			"name": "setBaseURI",
			"outputs": [],
			"stateMutability": "nonpayable",
			"type": "function"
		},
		{
			"inputs": [
				{
					"internalType": "bytes4",
					"name": "interfaceId",
					"type": "bytes4"
				}
			],
			"name": "supportsInterface",
			"outputs": [
				{
					"internalType": "bool",
					"name": "",
					"type": "bool"
				}
			],
			"stateMutability": "view",
			"type": "function"
		},
		{
			"inputs": [],
			"name": "symbol",
			"outputs": [
				{
					"internalType": "string",
					"name": "",
					"type": "string"
				}
			],
			"stateMutability": "view",
			"type": "function"
		},
		{
			"inputs": [
				{
					"internalType": "uint256",
					"name": "tokenId",
					"type": "uint256"
				}
			],
			"name": "tokenURI",
			"outputs": [
				{
					"internalType": "string",
					"name": "",
					"type": "string"
				}
			],
			"stateMutability": "view",
			"type": "function"
		},
		{
			"inputs": [],
			"name": "totalSupply",
			"outputs": [
				{
					"internalType": "uint256",
					"name": "",
					"type": "uint256"
				}
			],
			"stateMutability": "view",
			"type": "function"
		},
		{
			"inputs": [
				{
					"internalType": "address",
					"name": "from",
					"type": "address"
				},
				{
					"internalType": "address",
					"name": "to",
					"type": "address"
				},
				{
					"internalType": "uint256",
					"name": "tokenId",
					"type": "uint256"
				}
			],
			"name": "transferFrom",
			"outputs": [],
			"stateMutability": "payable",
			"type": "function"
		},
		{
			"inputs": [
				{
					"internalType": "uint256",
					"name": "mintMax",
					"type": "uint256"
				}
			],
			"name": "updateMintMax",
			"outputs": [],
			"stateMutability": "nonpayable",
			"type": "function"
		},
		{
			"inputs": [
				{
					"internalType": "uint256",
					"name": "mintPrice",
					"type": "uint256"
				}
			],
			"name": "updateMintPrice",
			"outputs": [],
			"stateMutability": "nonpayable",
			"type": "function"
		},
		{
			"inputs": [
				{
					"internalType": "address[]",
					"name": "_minterList",
					"type": "address[]"
				},
				{
					"internalType": "uint8",
					"name": "_mintRole",
					"type": "uint8"
				}
			],
			"name": "updateMinterRoles",
			"outputs": [],
			"stateMutability": "nonpayable",
			"type": "function"
		},
		{
			"inputs": [
				{
					"internalType": "uint256",
					"name": "ogMintMax",
					"type": "uint256"
				}
			],
			"name": "updateOGMintMax",
			"outputs": [],
			"stateMutability": "nonpayable",
			"type": "function"
		},
		{
			"inputs": [
				{
					"internalType": "uint256",
					"name": "price",
					"type": "uint256"
				}
			],
			"name": "updateOGMintPrice",
			"outputs": [],
			"stateMutability": "nonpayable",
			"type": "function"
		},
		{
			"inputs": [
				{
					"internalType": "uint256",
					"name": "start",
					"type": "uint256"
				},
				{
					"internalType": "uint256",
					"name": "end",
					"type": "uint256"
				}
			],
			"name": "updateTime",
			"outputs": [],
			"stateMutability": "nonpayable",
			"type": "function"
		},
		{
			"inputs": [
				{
					"internalType": "uint256",
					"name": "whitelistMintMax",
					"type": "uint256"
				}
			],
			"name": "updateWLMintMax",
			"outputs": [],
			"stateMutability": "nonpayable",
			"type": "function"
		},
		{
			"inputs": [
				{
					"internalType": "uint256",
					"name": "whitelistMintPrice",
					"type": "uint256"
				}
			],
			"name": "updateWhitelistMintPrice",
			"outputs": [],
			"stateMutability": "nonpayable",
			"type": "function"
		},
		{
			"inputs": [],
			"name": "version",
			"outputs": [
				{
					"internalType": "bytes16",
					"name": "",
					"type": "bytes16"
				}
			],
			"stateMutability": "pure",
			"type": "function"
		},
		{
			"inputs": [],
			"name": "withdraw",
			"outputs": [],
			"stateMutability": "payable",
			"type": "function"
		}
	]
}